{
	"leaderboard.sol": {
		"LeaderboardUpgradeable": {
			"abi": [
				{
					"inputs": [],
					"stateMutability": "nonpayable",
					"type": "constructor"
				},
				{
					"inputs": [
						{
							"internalType": "address",
							"name": "target",
							"type": "address"
						}
					],
					"name": "AddressEmptyCode",
					"type": "error"
				},
				{
					"inputs": [
						{
							"internalType": "address",
							"name": "implementation",
							"type": "address"
						}
					],
					"name": "ERC1967InvalidImplementation",
					"type": "error"
				},
				{
					"inputs": [],
					"name": "ERC1967NonPayable",
					"type": "error"
				},
				{
					"inputs": [],
					"name": "FailedCall",
					"type": "error"
				},
				{
					"inputs": [],
					"name": "InvalidInitialization",
					"type": "error"
				},
				{
					"inputs": [],
					"name": "NotInitializing",
					"type": "error"
				},
				{
					"inputs": [
						{
							"internalType": "address",
							"name": "owner",
							"type": "address"
						}
					],
					"name": "OwnableInvalidOwner",
					"type": "error"
				},
				{
					"inputs": [
						{
							"internalType": "address",
							"name": "account",
							"type": "address"
						}
					],
					"name": "OwnableUnauthorizedAccount",
					"type": "error"
				},
				{
					"inputs": [],
					"name": "UUPSUnauthorizedCallContext",
					"type": "error"
				},
				{
					"inputs": [
						{
							"internalType": "bytes32",
							"name": "slot",
							"type": "bytes32"
						}
					],
					"name": "UUPSUnsupportedProxiableUUID",
					"type": "error"
				},
				{
					"anonymous": false,
					"inputs": [
						{
							"indexed": true,
							"internalType": "address",
							"name": "updater",
							"type": "address"
						},
						{
							"indexed": false,
							"internalType": "bool",
							"name": "allowed",
							"type": "bool"
						}
					],
					"name": "AuthorizedUpdaterChanged",
					"type": "event"
				},
				{
					"anonymous": false,
					"inputs": [
						{
							"indexed": false,
							"internalType": "uint64",
							"name": "version",
							"type": "uint64"
						}
					],
					"name": "Initialized",
					"type": "event"
				},
				{
					"anonymous": false,
					"inputs": [
						{
							"indexed": false,
							"internalType": "uint256",
							"name": "oldMax",
							"type": "uint256"
						},
						{
							"indexed": false,
							"internalType": "uint256",
							"name": "newMax",
							"type": "uint256"
						}
					],
					"name": "MaxEntriesChanged",
					"type": "event"
				},
				{
					"anonymous": false,
					"inputs": [
						{
							"indexed": true,
							"internalType": "address",
							"name": "previousOwner",
							"type": "address"
						},
						{
							"indexed": true,
							"internalType": "address",
							"name": "newOwner",
							"type": "address"
						}
					],
					"name": "OwnershipTransferred",
					"type": "event"
				},
				{
					"anonymous": false,
					"inputs": [
						{
							"indexed": false,
							"internalType": "address",
							"name": "account",
							"type": "address"
						}
					],
					"name": "Paused",
					"type": "event"
				},
				{
					"anonymous": false,
					"inputs": [
						{
							"indexed": true,
							"internalType": "address",
							"name": "player",
							"type": "address"
						}
					],
					"name": "PlayerRemovedFromTop",
					"type": "event"
				},
				{
					"anonymous": false,
					"inputs": [
						{
							"indexed": true,
							"internalType": "address",
							"name": "updater",
							"type": "address"
						},
						{
							"indexed": true,
							"internalType": "address",
							"name": "player",
							"type": "address"
						},
						{
							"indexed": false,
							"internalType": "uint256",
							"name": "newScore",
							"type": "uint256"
						}
					],
					"name": "ScoreUpdated",
					"type": "event"
				},
				{
					"anonymous": false,
					"inputs": [],
					"name": "SeasonReset",
					"type": "event"
				},
				{
					"anonymous": false,
					"inputs": [
						{
							"indexed": false,
							"internalType": "address",
							"name": "account",
							"type": "address"
						}
					],
					"name": "Unpaused",
					"type": "event"
				},
				{
					"anonymous": false,
					"inputs": [
						{
							"indexed": true,
							"internalType": "address",
							"name": "implementation",
							"type": "address"
						}
					],
					"name": "Upgraded",
					"type": "event"
				},
				{
					"inputs": [],
					"name": "UPGRADE_INTERFACE_VERSION",
					"outputs": [
						{
							"internalType": "string",
							"name": "",
							"type": "string"
						}
					],
					"stateMutability": "view",
					"type": "function"
				},
				{
					"inputs": [
						{
							"internalType": "address",
							"name": "",
							"type": "address"
						}
					],
					"name": "authorizedUpdaters",
					"outputs": [
						{
							"internalType": "bool",
							"name": "",
							"type": "bool"
						}
					],
					"stateMutability": "view",
					"type": "function"
				},
				{
					"inputs": [
						{
							"internalType": "address",
							"name": "player",
							"type": "address"
						}
					],
					"name": "getPlayerRank",
					"outputs": [
						{
							"internalType": "uint256",
							"name": "rank",
							"type": "uint256"
						},
						{
							"internalType": "uint256",
							"name": "scoreOut",
							"type": "uint256"
						}
					],
					"stateMutability": "view",
					"type": "function"
				},
				{
					"inputs": [
						{
							"internalType": "uint256",
							"name": "n",
							"type": "uint256"
						}
					],
					"name": "getTopPlayers",
					"outputs": [
						{
							"components": [
								{
									"internalType": "address",
									"name": "player",
									"type": "address"
								},
								{
									"internalType": "uint256",
									"name": "score",
									"type": "uint256"
								}
							],
							"internalType": "struct LeaderboardUpgradeable.Entry[]",
							"name": "",
							"type": "tuple[]"
						}
					],
					"stateMutability": "view",
					"type": "function"
				},
				{
					"inputs": [
						{
							"internalType": "uint256",
							"name": "_maxEntries",
							"type": "uint256"
						}
					],
					"name": "initialize",
					"outputs": [],
					"stateMutability": "nonpayable",
					"type": "function"
				},
				{
					"inputs": [],
					"name": "maxEntries",
					"outputs": [
						{
							"internalType": "uint256",
							"name": "",
							"type": "uint256"
						}
					],
					"stateMutability": "view",
					"type": "function"
				},
				{
					"inputs": [],
					"name": "owner",
					"outputs": [
						{
							"internalType": "address",
							"name": "",
							"type": "address"
						}
					],
					"stateMutability": "view",
					"type": "function"
				},
				{
					"inputs": [],
					"name": "paused",
					"outputs": [
						{
							"internalType": "bool",
							"name": "",
							"type": "bool"
						}
					],
					"stateMutability": "view",
					"type": "function"
				},
				{
					"inputs": [],
					"name": "proxiableUUID",
					"outputs": [
						{
							"internalType": "bytes32",
							"name": "",
							"type": "bytes32"
						}
					],
					"stateMutability": "view",
					"type": "function"
				},
				{
					"inputs": [],
					"name": "renounceOwnership",
					"outputs": [],
					"stateMutability": "nonpayable",
					"type": "function"
				},
				{
					"inputs": [],
					"name": "resetSeason",
					"outputs": [],
					"stateMutability": "nonpayable",
					"type": "function"
				},
				{
					"inputs": [
						{
							"internalType": "address",
							"name": "",
							"type": "address"
						}
					],
					"name": "scores",
					"outputs": [
						{
							"internalType": "uint256",
							"name": "",
							"type": "uint256"
						}
					],
					"stateMutability": "view",
					"type": "function"
				},
				{
					"inputs": [
						{
							"internalType": "address",
							"name": "updater",
							"type": "address"
						},
						{
							"internalType": "bool",
							"name": "allowed",
							"type": "bool"
						}
					],
					"name": "setAuthorizedUpdater",
					"outputs": [],
					"stateMutability": "nonpayable",
					"type": "function"
				},
				{
					"inputs": [
						{
							"internalType": "uint256",
							"name": "newMax",
							"type": "uint256"
						}
					],
					"name": "setMaxEntries",
					"outputs": [],
					"stateMutability": "nonpayable",
					"type": "function"
				},
				{
					"inputs": [
						{
							"internalType": "address",
							"name": "",
							"type": "address"
						}
					],
					"name": "topIndex",
					"outputs": [
						{
							"internalType": "uint256",
							"name": "",
							"type": "uint256"
						}
					],
					"stateMutability": "view",
					"type": "function"
				},
				{
					"inputs": [
						{
							"internalType": "address",
							"name": "newOwner",
							"type": "address"
						}
					],
					"name": "transferOwnership",
					"outputs": [],
					"stateMutability": "nonpayable",
					"type": "function"
				},
				{
					"inputs": [
						{
							"internalType": "address",
							"name": "player",
							"type": "address"
						},
						{
							"internalType": "uint256",
							"name": "newScore",
							"type": "uint256"
						}
					],
					"name": "updateScore",
					"outputs": [],
					"stateMutability": "nonpayable",
					"type": "function"
				},
				{
					"inputs": [
						{
							"internalType": "address",
							"name": "newImplementation",
							"type": "address"
						},
						{
							"internalType": "bytes",
							"name": "data",
							"type": "bytes"
						}
					],
					"name": "upgradeToAndCall",
					"outputs": [],
					"stateMutability": "payable",
					"type": "function"
				}
			],
			"devdoc": {
				"errors": {
					"AddressEmptyCode(address)": [
						{
							"details": "There's no code at `target` (it is not a contract)."
						}
					],
					"ERC1967InvalidImplementation(address)": [
						{
							"details": "The `implementation` of the proxy is invalid."
						}
					],
					"ERC1967NonPayable()": [
						{
							"details": "An upgrade function sees `msg.value > 0` that may be lost."
						}
					],
					"FailedCall()": [
						{
							"details": "A call to an address target failed. The target may have reverted."
						}
					],
					"InvalidInitialization()": [
						{
							"details": "The contract is already initialized."
						}
					],
					"NotInitializing()": [
						{
							"details": "The contract is not initializing."
						}
					],
					"OwnableInvalidOwner(address)": [
						{
							"details": "The owner is not a valid owner account. (eg. `address(0)`)"
						}
					],
					"OwnableUnauthorizedAccount(address)": [
						{
							"details": "The caller account is not authorized to perform an operation."
						}
					],
					"UUPSUnauthorizedCallContext()": [
						{
							"details": "The call is from an unauthorized context."
						}
					],
					"UUPSUnsupportedProxiableUUID(bytes32)": [
						{
							"details": "The storage `slot` is unsupported as a UUID."
						}
					]
				},
				"events": {
					"Initialized(uint64)": {
						"details": "Triggered when the contract has been initialized or reinitialized."
					},
					"Paused(address)": {
						"details": "Emitted when the pause is triggered by `account`."
					},
					"Unpaused(address)": {
						"details": "Emitted when the pause is lifted by `account`."
					},
					"Upgraded(address)": {
						"details": "Emitted when the implementation is upgraded."
					}
				},
				"kind": "dev",
				"methods": {
					"constructor": {
						"custom:oz-upgrades-unsafe-allow": "constructor"
					},
					"getTopPlayers(uint256)": {
						"params": {
							"n": "number of top players to return"
						}
					},
					"initialize(uint256)": {
						"details": "initialize the contract",
						"params": {
							"_maxEntries": "maximum leaderboard entries to keep (capped at 200)"
						}
					},
					"owner()": {
						"details": "Returns the address of the current owner."
					},
					"paused()": {
						"details": "Returns true if the contract is paused, and false otherwise."
					},
					"proxiableUUID()": {
						"details": "Implementation of the ERC-1822 {proxiableUUID} function. This returns the storage slot used by the implementation. It is used to validate the implementation's compatibility when performing an upgrade. IMPORTANT: A proxy pointing at a proxiable contract should not be considered proxiable itself, because this risks bricking a proxy that upgrades to it, by delegating to itself until out of gas. Thus it is critical that this function revert if invoked through a proxy. This is guaranteed by the `notDelegated` modifier."
					},
					"renounceOwnership()": {
						"details": "Leaves the contract without owner. It will not be possible to call `onlyOwner` functions. Can only be called by the current owner. NOTE: Renouncing ownership will leave the contract without an owner, thereby disabling any functionality that is only available to the owner."
					},
					"setAuthorizedUpdater(address,bool)": {
						"params": {
							"allowed": "true to authorize, false to revoke",
							"updater": "address to authorize/revoke"
						}
					},
					"transferOwnership(address)": {
						"details": "Transfers ownership of the contract to a new account (`newOwner`). Can only be called by the current owner."
					},
					"updateScore(address,uint256)": {
						"params": {
							"newScore": "new score to set (replaces previous). If you want incremental, call with sum externally.",
							"player": "player's address"
						}
					},
					"upgradeToAndCall(address,bytes)": {
						"custom:oz-upgrades-unsafe-allow-reachable": "delegatecall",
						"details": "Upgrade the implementation of the proxy to `newImplementation`, and subsequently execute the function call encoded in `data`. Calls {_authorizeUpgrade}. Emits an {Upgraded} event."
					}
				},
				"version": 1
			},
			"evm": {
				"assembly": "    /* \"leaderboard.sol\":1045:8408  contract LeaderboardUpgradeable is Initializable, OwnableUpgradeable, PausableUpgradeable, ReentrancyGuardUpgradeable, UUPSUpgradeable {... */\n  mstore(0x40, 0xa0)\n    /* \"@openzeppelin/contracts-upgradeable/proxy/utils/UUPSUpgradeable.sol\":1171:1175  this */\n  address\n    /* \"@openzeppelin/contracts-upgradeable/proxy/utils/UUPSUpgradeable.sol\":1128:1176  address private immutable __self = address(this) */\n  0xffffffffffffffffffffffffffffffffffffffff\n  and\n  0x80\n  swap1\n  0xffffffffffffffffffffffffffffffffffffffff\n  and\n  dup2\n  mstore\n  pop\n    /* \"leaderboard.sol\":2155:2208  constructor() {... */\n  callvalue\n  dup1\n  iszero\n  tag_1\n  jumpi\n  revert(0x00, 0x00)\ntag_1:\n  pop\n    /* \"leaderboard.sol\":2179:2201  _disableInitializers() */\n  tag_4\n    /* \"leaderboard.sol\":2179:2199  _disableInitializers */\n  shl(0x20, tag_5)\n    /* \"leaderboard.sol\":2179:2201  _disableInitializers() */\n  0x20\n  shr\n  jump\t// in\ntag_4:\n    /* \"leaderboard.sol\":1045:8408  contract LeaderboardUpgradeable is Initializable, OwnableUpgradeable, PausableUpgradeable, ReentrancyGuardUpgradeable, UUPSUpgradeable {... */\n  jump(tag_6)\n    /* \"@openzeppelin/contracts-upgradeable/proxy/utils/Initializable.sol\":7709:8131  function _disableInitializers() internal virtual {... */\ntag_5:\n    /* \"@openzeppelin/contracts-upgradeable/proxy/utils/Initializable.sol\":7824:7854  InitializableStorage storage $ */\n  0x00\n    /* \"@openzeppelin/contracts-upgradeable/proxy/utils/Initializable.sol\":7857:7883  _getInitializableStorage() */\n  tag_8\n    /* \"@openzeppelin/contracts-upgradeable/proxy/utils/Initializable.sol\":7857:7881  _getInitializableStorage */\n  shl(0x20, tag_9)\n    /* \"@openzeppelin/contracts-upgradeable/proxy/utils/Initializable.sol\":7857:7883  _getInitializableStorage() */\n  0x20\n  shr\n  jump\t// in\ntag_8:\n    /* \"@openzeppelin/contracts-upgradeable/proxy/utils/Initializable.sol\":7824:7883  InitializableStorage storage $ = _getInitializableStorage() */\n  swap1\n  pop\n    /* \"@openzeppelin/contracts-upgradeable/proxy/utils/Initializable.sol\":7898:7899  $ */\n  dup1\n    /* \"@openzeppelin/contracts-upgradeable/proxy/utils/Initializable.sol\":7898:7913  $._initializing */\n  0x00\n  add\n  0x08\n  swap1\n  sload\n  swap1\n  0x0100\n  exp\n  swap1\n  div\n  0xff\n  and\n    /* \"@openzeppelin/contracts-upgradeable/proxy/utils/Initializable.sol\":7894:7970  if ($._initializing) {... */\n  iszero\n  tag_10\n  jumpi\n    /* \"@openzeppelin/contracts-upgradeable/proxy/utils/Initializable.sol\":7936:7959  InvalidInitialization() */\n  mload(0x40)\n  0xf92ee8a900000000000000000000000000000000000000000000000000000000\n  dup2\n  mstore\n  0x04\n  add\n  mload(0x40)\n  dup1\n  swap2\n  sub\n  swap1\n  revert\n    /* \"@openzeppelin/contracts-upgradeable/proxy/utils/Initializable.sol\":7894:7970  if ($._initializing) {... */\ntag_10:\n    /* \"@openzeppelin/contracts-upgradeable/proxy/utils/Initializable.sol\":8001:8017  type(uint64).max */\n  0xffffffffffffffff\n    /* \"@openzeppelin/contracts-upgradeable/proxy/utils/Initializable.sol\":7983:8017  $._initialized != type(uint64).max */\n  dup1\n  and\n    /* \"@openzeppelin/contracts-upgradeable/proxy/utils/Initializable.sol\":7983:7984  $ */\n  dup2\n    /* \"@openzeppelin/contracts-upgradeable/proxy/utils/Initializable.sol\":7983:7997  $._initialized */\n  0x00\n  add\n  0x00\n  swap1\n  sload\n  swap1\n  0x0100\n  exp\n  swap1\n  div\n  0xffffffffffffffff\n  and\n    /* \"@openzeppelin/contracts-upgradeable/proxy/utils/Initializable.sol\":7983:8017  $._initialized != type(uint64).max */\n  0xffffffffffffffff\n  and\n  eq\n    /* \"@openzeppelin/contracts-upgradeable/proxy/utils/Initializable.sol\":7979:8125  if ($._initialized != type(uint64).max) {... */\n  tag_11\n  jumpi\n    /* \"@openzeppelin/contracts-upgradeable/proxy/utils/Initializable.sol\":8050:8066  type(uint64).max */\n  0xffffffffffffffff\n    /* \"@openzeppelin/contracts-upgradeable/proxy/utils/Initializable.sol\":8033:8034  $ */\n  dup2\n    /* \"@openzeppelin/contracts-upgradeable/proxy/utils/Initializable.sol\":8033:8047  $._initialized */\n  0x00\n  add\n  0x00\n    /* \"@openzeppelin/contracts-upgradeable/proxy/utils/Initializable.sol\":8033:8066  $._initialized = type(uint64).max */\n  0x0100\n  exp\n  dup2\n  sload\n  dup2\n  0xffffffffffffffff\n  mul\n  not\n  and\n  swap1\n  dup4\n  0xffffffffffffffff\n  and\n  mul\n  or\n  swap1\n  sstore\n  pop\n    /* \"@openzeppelin/contracts-upgradeable/proxy/utils/Initializable.sol\":8085:8114  Initialized(type(uint64).max) */\n  0xc7f505b2f371ae2175ee4913f4499e1f2633a7b5936321eed1cdaeb6115181d2\n    /* \"@openzeppelin/contracts-upgradeable/proxy/utils/Initializable.sol\":8097:8113  type(uint64).max */\n  0xffffffffffffffff\n    /* \"@openzeppelin/contracts-upgradeable/proxy/utils/Initializable.sol\":8085:8114  Initialized(type(uint64).max) */\n  mload(0x40)\n  tag_12\n  swap2\n  swap1\n  tag_13\n  jump\t// in\ntag_12:\n  mload(0x40)\n  dup1\n  swap2\n  sub\n  swap1\n  log1\n    /* \"@openzeppelin/contracts-upgradeable/proxy/utils/Initializable.sol\":7979:8125  if ($._initialized != type(uint64).max) {... */\ntag_11:\n    /* \"@openzeppelin/contracts-upgradeable/proxy/utils/Initializable.sol\":7758:8131  {... */\n  pop\n    /* \"@openzeppelin/contracts-upgradeable/proxy/utils/Initializable.sol\":7709:8131  function _disableInitializers() internal virtual {... */\n  jump\t// out\n    /* \"@openzeppelin/contracts-upgradeable/proxy/utils/Initializable.sol\":9071:9276  function _getInitializableStorage() private pure returns (InitializableStorage storage $) {... */\ntag_9:\n    /* \"@openzeppelin/contracts-upgradeable/proxy/utils/Initializable.sol\":9129:9159  InitializableStorage storage $ */\n  0x00\n    /* \"@openzeppelin/contracts-upgradeable/proxy/utils/Initializable.sol\":9171:9183  bytes32 slot */\n  0x00\n    /* \"@openzeppelin/contracts-upgradeable/proxy/utils/Initializable.sol\":9186:9213  _initializableStorageSlot() */\n  tag_15\n    /* \"@openzeppelin/contracts-upgradeable/proxy/utils/Initializable.sol\":9186:9211  _initializableStorageSlot */\n  shl(0x20, tag_16)\n    /* \"@openzeppelin/contracts-upgradeable/proxy/utils/Initializable.sol\":9186:9213  _initializableStorageSlot() */\n  0x20\n  shr\n  jump\t// in\ntag_15:\n    /* \"@openzeppelin/contracts-upgradeable/proxy/utils/Initializable.sol\":9171:9213  bytes32 slot = _initializableStorageSlot() */\n  swap1\n  pop\n    /* \"@openzeppelin/contracts-upgradeable/proxy/utils/Initializable.sol\":9256:9260  slot */\n  dup1\n    /* \"@openzeppelin/contracts-upgradeable/proxy/utils/Initializable.sol\":9246:9260  $.slot := slot */\n  swap2\n  pop\n    /* \"@openzeppelin/contracts-upgradeable/proxy/utils/Initializable.sol\":9232:9270  {... */\n  pop\n    /* \"@openzeppelin/contracts-upgradeable/proxy/utils/Initializable.sol\":9071:9276  function _getInitializableStorage() private pure returns (InitializableStorage storage $) {... */\n  swap1\n  jump\t// out\n    /* \"@openzeppelin/contracts-upgradeable/proxy/utils/Initializable.sol\":8819:8941  function _initializableStorageSlot() internal pure virtual returns (bytes32) {... */\ntag_16:\n    /* \"@openzeppelin/contracts-upgradeable/proxy/utils/Initializable.sol\":8887:8894  bytes32 */\n  0x00\n    /* \"@openzeppelin/contracts-upgradeable/proxy/utils/Initializable.sol\":3147:3213  0xf0c57e16840df040f15088dc2f81fe391c3923bec73e23a9662efc9c229c6a00 */\n  0xf0c57e16840df040f15088dc2f81fe391c3923bec73e23a9662efc9c229c6a00\n    /* \"@openzeppelin/contracts-upgradeable/proxy/utils/Initializable.sol\":8913:8934  INITIALIZABLE_STORAGE */\n  0x00\n  shl\n    /* \"@openzeppelin/contracts-upgradeable/proxy/utils/Initializable.sol\":8906:8934  return INITIALIZABLE_STORAGE */\n  swap1\n  pop\n    /* \"@openzeppelin/contracts-upgradeable/proxy/utils/Initializable.sol\":8819:8941  function _initializableStorageSlot() internal pure virtual returns (bytes32) {... */\n  swap1\n  jump\t// out\n    /* \"#utility.yul\":7:108   */\ntag_18:\n    /* \"#utility.yul\":43:50   */\n  0x00\n    /* \"#utility.yul\":83:101   */\n  0xffffffffffffffff\n    /* \"#utility.yul\":76:81   */\n  dup3\n    /* \"#utility.yul\":72:102   */\n  and\n    /* \"#utility.yul\":61:102   */\n  swap1\n  pop\n    /* \"#utility.yul\":7:108   */\n  swap2\n  swap1\n  pop\n  jump\t// out\n    /* \"#utility.yul\":114:229   */\ntag_19:\n    /* \"#utility.yul\":199:222   */\n  tag_23\n    /* \"#utility.yul\":216:221   */\n  dup2\n    /* \"#utility.yul\":199:222   */\n  tag_18\n  jump\t// in\ntag_23:\n    /* \"#utility.yul\":194:197   */\n  dup3\n    /* \"#utility.yul\":187:223   */\n  mstore\n    /* \"#utility.yul\":114:229   */\n  pop\n  pop\n  jump\t// out\n    /* \"#utility.yul\":235:453   */\ntag_13:\n    /* \"#utility.yul\":326:330   */\n  0x00\n    /* \"#utility.yul\":364:366   */\n  0x20\n    /* \"#utility.yul\":353:362   */\n  dup3\n    /* \"#utility.yul\":349:367   */\n  add\n    /* \"#utility.yul\":341:367   */\n  swap1\n  pop\n    /* \"#utility.yul\":377:446   */\n  tag_25\n    /* \"#utility.yul\":443:444   */\n  0x00\n    /* \"#utility.yul\":432:441   */\n  dup4\n    /* \"#utility.yul\":428:445   */\n  add\n    /* \"#utility.yul\":419:425   */\n  dup5\n    /* \"#utility.yul\":377:446   */\n  tag_19\n  jump\t// in\ntag_25:\n    /* \"#utility.yul\":235:453   */\n  swap3\n  swap2\n  pop\n  pop\n  jump\t// out\n    /* \"leaderboard.sol\":1045:8408  contract LeaderboardUpgradeable is Initializable, OwnableUpgradeable, PausableUpgradeable, ReentrancyGuardUpgradeable, UUPSUpgradeable {... */\ntag_6:\n  mload(0x80)\n  codecopy(0x00, dataOffset(sub_0), dataSize(sub_0))\n  0x00\n  assignImmutable(\"0x4ce4dab4689da140a0c12de1a6af6b8f679594aeb723205f513e052d27f5b26f\")\n  return(0x00, dataSize(sub_0))\nstop\n\nsub_0: assembly {\n        /* \"leaderboard.sol\":1045:8408  contract LeaderboardUpgradeable is Initializable, OwnableUpgradeable, PausableUpgradeable, ReentrancyGuardUpgradeable, UUPSUpgradeable {... */\n      mstore(0x40, 0x80)\n      jumpi(tag_1, lt(calldatasize, 0x04))\n      shr(0xe0, calldataload(0x00))\n      dup1\n      0x8da5cb5b\n      gt\n      tag_20\n      jumpi\n      dup1\n      0xad3cb1cc\n      gt\n      tag_21\n      jumpi\n      dup1\n      0xad3cb1cc\n      eq\n      tag_15\n      jumpi\n      dup1\n      0xba3c0067\n      eq\n      tag_16\n      jumpi\n      dup1\n      0xf23f3ba5\n      eq\n      tag_17\n      jumpi\n      dup1\n      0xf2fde38b\n      eq\n      tag_18\n      jumpi\n      dup1\n      0xfe4b84df\n      eq\n      tag_19\n      jumpi\n      jump(tag_1)\n    tag_21:\n      dup1\n      0x8da5cb5b\n      eq\n      tag_11\n      jumpi\n      dup1\n      0x8ff29cfe\n      eq\n      tag_12\n      jumpi\n      dup1\n      0x99fc65d4\n      eq\n      tag_13\n      jumpi\n      dup1\n      0xa697cb0e\n      eq\n      tag_14\n      jumpi\n      jump(tag_1)\n    tag_20:\n      dup1\n      0x5c975abb\n      gt\n      tag_22\n      jumpi\n      dup1\n      0x5c975abb\n      eq\n      tag_6\n      jumpi\n      dup1\n      0x65d97724\n      eq\n      tag_7\n      jumpi\n      dup1\n      0x6eef5220\n      eq\n      tag_8\n      jumpi\n      dup1\n      0x715018a6\n      eq\n      tag_9\n      jumpi\n      dup1\n      0x76dd110f\n      eq\n      tag_10\n      jumpi\n      jump(tag_1)\n    tag_22:\n      dup1\n      0x0a9b337f\n      eq\n      tag_2\n      jumpi\n      dup1\n      0x45a587ae\n      eq\n      tag_3\n      jumpi\n      dup1\n      0x4f1ef286\n      eq\n      tag_4\n      jumpi\n      dup1\n      0x52d1902d\n      eq\n      tag_5\n      jumpi\n    tag_1:\n      revert(0x00, 0x00)\n        /* \"leaderboard.sol\":1599:1642  mapping(address => uint256) public topIndex */\n    tag_2:\n      callvalue\n      dup1\n      iszero\n      tag_23\n      jumpi\n      revert(0x00, 0x00)\n    tag_23:\n      pop\n      tag_24\n      0x04\n      dup1\n      calldatasize\n      sub\n      dup2\n      add\n      swap1\n      tag_25\n      swap2\n      swap1\n      tag_26\n      jump\t// in\n    tag_25:\n      tag_27\n      jump\t// in\n    tag_24:\n      mload(0x40)\n      tag_28\n      swap2\n      swap1\n      tag_29\n      jump\t// in\n    tag_28:\n      mload(0x40)\n      dup1\n      swap2\n      sub\n      swap1\n      return\n        /* \"leaderboard.sol\":7212:7848  function setMaxEntries(uint256 newMax) external onlyOwner {... */\n    tag_3:\n      callvalue\n      dup1\n      iszero\n      tag_30\n      jumpi\n      revert(0x00, 0x00)\n    tag_30:\n      pop\n      tag_31\n      0x04\n      dup1\n      calldatasize\n      sub\n      dup2\n      add\n      swap1\n      tag_32\n      swap2\n      swap1\n      tag_33\n      jump\t// in\n    tag_32:\n      tag_34\n      jump\t// in\n    tag_31:\n      stop\n        /* \"@openzeppelin/contracts-upgradeable/proxy/utils/UUPSUpgradeable.sol\":4161:4375  function upgradeToAndCall(address newImplementation, bytes memory data) public payable virtual onlyProxy {... */\n    tag_4:\n      tag_35\n      0x04\n      dup1\n      calldatasize\n      sub\n      dup2\n      add\n      swap1\n      tag_36\n      swap2\n      swap1\n      tag_37\n      jump\t// in\n    tag_36:\n      tag_38\n      jump\t// in\n    tag_35:\n      stop\n        /* \"@openzeppelin/contracts-upgradeable/proxy/utils/UUPSUpgradeable.sol\":3708:3842  function proxiableUUID() external view virtual notDelegated returns (bytes32) {... */\n    tag_5:\n      callvalue\n      dup1\n      iszero\n      tag_39\n      jumpi\n      revert(0x00, 0x00)\n    tag_39:\n      pop\n      tag_40\n      tag_41\n      jump\t// in\n    tag_40:\n      mload(0x40)\n      tag_42\n      swap2\n      swap1\n      tag_43\n      jump\t// in\n    tag_42:\n      mload(0x40)\n      dup1\n      swap2\n      sub\n      swap1\n      return\n        /* \"@openzeppelin/contracts-upgradeable/security/PausableUpgradeable.sol\":1879:1963  function paused() public view virtual returns (bool) {... */\n    tag_6:\n      callvalue\n      dup1\n      iszero\n      tag_44\n      jumpi\n      revert(0x00, 0x00)\n    tag_44:\n      pop\n      tag_45\n      tag_46\n      jump\t// in\n    tag_45:\n      mload(0x40)\n      tag_47\n      swap2\n      swap1\n      tag_48\n      jump\t// in\n    tag_47:\n      mload(0x40)\n      dup1\n      swap2\n      sub\n      swap1\n      return\n        /* \"leaderboard.sol\":3501:3811  function updateScore(address player, uint256 newScore) external whenNotPaused onlyAuthorized nonReentrant {... */\n    tag_7:\n      callvalue\n      dup1\n      iszero\n      tag_49\n      jumpi\n      revert(0x00, 0x00)\n    tag_49:\n      pop\n      tag_50\n      0x04\n      dup1\n      calldatasize\n      sub\n      dup2\n      add\n      swap1\n      tag_51\n      swap2\n      swap1\n      tag_52\n      jump\t// in\n    tag_51:\n      tag_53\n      jump\t// in\n    tag_50:\n      stop\n        /* \"leaderboard.sol\":7997:8277  function resetSeason() external onlyOwner {... */\n    tag_8:\n      callvalue\n      dup1\n      iszero\n      tag_54\n      jumpi\n      revert(0x00, 0x00)\n    tag_54:\n      pop\n      tag_55\n      tag_56\n      jump\t// in\n    tag_55:\n      stop\n        /* \"@openzeppelin/contracts-upgradeable/access/OwnableUpgradeable.sol\":3155:3256  function renounceOwnership() public virtual onlyOwner {... */\n    tag_9:\n      callvalue\n      dup1\n      iszero\n      tag_57\n      jumpi\n      revert(0x00, 0x00)\n    tag_57:\n      pop\n      tag_58\n      tag_59\n      jump\t// in\n    tag_58:\n      stop\n        /* \"leaderboard.sol\":1294:1335  mapping(address => uint256) public scores */\n    tag_10:\n      callvalue\n      dup1\n      iszero\n      tag_60\n      jumpi\n      revert(0x00, 0x00)\n    tag_60:\n      pop\n      tag_61\n      0x04\n      dup1\n      calldatasize\n      sub\n      dup2\n      add\n      swap1\n      tag_62\n      swap2\n      swap1\n      tag_26\n      jump\t// in\n    tag_62:\n      tag_63\n      jump\t// in\n    tag_61:\n      mload(0x40)\n      tag_64\n      swap2\n      swap1\n      tag_29\n      jump\t// in\n    tag_64:\n      mload(0x40)\n      dup1\n      swap2\n      sub\n      swap1\n      return\n        /* \"@openzeppelin/contracts-upgradeable/access/OwnableUpgradeable.sol\":2441:2585  function owner() public view virtual returns (address) {... */\n    tag_11:\n      callvalue\n      dup1\n      iszero\n      tag_65\n      jumpi\n      revert(0x00, 0x00)\n    tag_65:\n      pop\n      tag_66\n      tag_67\n      jump\t// in\n    tag_66:\n      mload(0x40)\n      tag_68\n      swap2\n      swap1\n      tag_69\n      jump\t// in\n    tag_68:\n      mload(0x40)\n      dup1\n      swap2\n      sub\n      swap1\n      return\n        /* \"leaderboard.sol\":1722:1772  mapping(address => bool) public authorizedUpdaters */\n    tag_12:\n      callvalue\n      dup1\n      iszero\n      tag_70\n      jumpi\n      revert(0x00, 0x00)\n    tag_70:\n      pop\n      tag_71\n      0x04\n      dup1\n      calldatasize\n      sub\n      dup2\n      add\n      swap1\n      tag_72\n      swap2\n      swap1\n      tag_26\n      jump\t// in\n    tag_72:\n      tag_73\n      jump\t// in\n    tag_71:\n      mload(0x40)\n      tag_74\n      swap2\n      swap1\n      tag_48\n      jump\t// in\n    tag_74:\n      mload(0x40)\n      dup1\n      swap2\n      sub\n      swap1\n      return\n        /* \"leaderboard.sol\":2998:3248  function setAuthorizedUpdater(address updater, bool allowed) external onlyOwner {... */\n    tag_13:\n      callvalue\n      dup1\n      iszero\n      tag_75\n      jumpi\n      revert(0x00, 0x00)\n    tag_75:\n      pop\n      tag_76\n      0x04\n      dup1\n      calldatasize\n      sub\n      dup2\n      add\n      swap1\n      tag_77\n      swap2\n      swap1\n      tag_78\n      jump\t// in\n    tag_77:\n      tag_79\n      jump\t// in\n    tag_76:\n      stop\n        /* \"leaderboard.sol\":6857:7130  function getPlayerRank(address player) external view returns (uint256 rank, uint256 scoreOut) {... */\n    tag_14:\n      callvalue\n      dup1\n      iszero\n      tag_80\n      jumpi\n      revert(0x00, 0x00)\n    tag_80:\n      pop\n      tag_81\n      0x04\n      dup1\n      calldatasize\n      sub\n      dup2\n      add\n      swap1\n      tag_82\n      swap2\n      swap1\n      tag_26\n      jump\t// in\n    tag_82:\n      tag_83\n      jump\t// in\n    tag_81:\n      mload(0x40)\n      tag_84\n      swap3\n      swap2\n      swap1\n      tag_85\n      jump\t// in\n    tag_84:\n      mload(0x40)\n      dup1\n      swap2\n      sub\n      swap1\n      return\n        /* \"@openzeppelin/contracts-upgradeable/proxy/utils/UUPSUpgradeable.sol\":1819:1877  string public constant UPGRADE_INTERFACE_VERSION = \"5.0.0\" */\n    tag_15:\n      callvalue\n      dup1\n      iszero\n      tag_86\n      jumpi\n      revert(0x00, 0x00)\n    tag_86:\n      pop\n      tag_87\n      tag_88\n      jump\t// in\n    tag_87:\n      mload(0x40)\n      tag_89\n      swap2\n      swap1\n      tag_90\n      jump\t// in\n    tag_89:\n      mload(0x40)\n      dup1\n      swap2\n      sub\n      swap1\n      return\n        /* \"leaderboard.sol\":6451:6718  function getTopPlayers(uint256 n) external view returns (Entry[] memory) {... */\n    tag_16:\n      callvalue\n      dup1\n      iszero\n      tag_91\n      jumpi\n      revert(0x00, 0x00)\n    tag_91:\n      pop\n      tag_92\n      0x04\n      dup1\n      calldatasize\n      sub\n      dup2\n      add\n      swap1\n      tag_93\n      swap2\n      swap1\n      tag_33\n      jump\t// in\n    tag_93:\n      tag_94\n      jump\t// in\n    tag_92:\n      mload(0x40)\n      tag_95\n      swap2\n      swap1\n      tag_96\n      jump\t// in\n    tag_95:\n      mload(0x40)\n      dup1\n      swap2\n      sub\n      swap1\n      return\n        /* \"leaderboard.sol\":1422:1447  uint256 public maxEntries */\n    tag_17:\n      callvalue\n      dup1\n      iszero\n      tag_97\n      jumpi\n      revert(0x00, 0x00)\n    tag_97:\n      pop\n      tag_98\n      tag_99\n      jump\t// in\n    tag_98:\n      mload(0x40)\n      tag_100\n      swap2\n      swap1\n      tag_29\n      jump\t// in\n    tag_100:\n      mload(0x40)\n      dup1\n      swap2\n      sub\n      swap1\n      return\n        /* \"@openzeppelin/contracts-upgradeable/access/OwnableUpgradeable.sol\":3405:3620  function transferOwnership(address newOwner) public virtual onlyOwner {... */\n    tag_18:\n      callvalue\n      dup1\n      iszero\n      tag_101\n      jumpi\n      revert(0x00, 0x00)\n    tag_101:\n      pop\n      tag_102\n      0x04\n      dup1\n      calldatasize\n      sub\n      dup2\n      add\n      swap1\n      tag_103\n      swap2\n      swap1\n      tag_26\n      jump\t// in\n    tag_103:\n      tag_104\n      jump\t// in\n    tag_102:\n      stop\n        /* \"leaderboard.sol\":2344:2665  function initialize(uint256 _maxEntries) public initializer {... */\n    tag_19:\n      callvalue\n      dup1\n      iszero\n      tag_105\n      jumpi\n      revert(0x00, 0x00)\n    tag_105:\n      pop\n      tag_106\n      0x04\n      dup1\n      calldatasize\n      sub\n      dup2\n      add\n      swap1\n      tag_107\n      swap2\n      swap1\n      tag_33\n      jump\t// in\n    tag_107:\n      tag_108\n      jump\t// in\n    tag_106:\n      stop\n        /* \"leaderboard.sol\":1599:1642  mapping(address => uint256) public topIndex */\n    tag_27:\n      mstore(0x20, 0x67)\n      dup1\n      0x00\n      mstore\n      keccak256(0x00, 0x40)\n      0x00\n      swap2\n      pop\n      swap1\n      pop\n      sload\n      dup2\n      jump\t// out\n        /* \"leaderboard.sol\":7212:7848  function setMaxEntries(uint256 newMax) external onlyOwner {... */\n    tag_34:\n        /* \"@openzeppelin/contracts-upgradeable/access/OwnableUpgradeable.sol\":2334:2347  _checkOwner() */\n      tag_110\n        /* \"@openzeppelin/contracts-upgradeable/access/OwnableUpgradeable.sol\":2334:2345  _checkOwner */\n      tag_111\n        /* \"@openzeppelin/contracts-upgradeable/access/OwnableUpgradeable.sol\":2334:2347  _checkOwner() */\n      jump\t// in\n    tag_110:\n        /* \"leaderboard.sol\":7297:7298  0 */\n      0x00\n        /* \"leaderboard.sol\":7288:7294  newMax */\n      dup2\n        /* \"leaderboard.sol\":7288:7298  newMax > 0 */\n      gt\n        /* \"leaderboard.sol\":7288:7315  newMax > 0 && newMax <= 200 */\n      dup1\n      iszero\n      tag_113\n      jumpi\n      pop\n        /* \"leaderboard.sol\":7312:7315  200 */\n      0xc8\n        /* \"leaderboard.sol\":7302:7308  newMax */\n      dup2\n        /* \"leaderboard.sol\":7302:7315  newMax <= 200 */\n      gt\n      iszero\n        /* \"leaderboard.sol\":7288:7315  newMax > 0 && newMax <= 200 */\n    tag_113:\n        /* \"leaderboard.sol\":7280:7339  require(newMax > 0 && newMax <= 200, \"invalid max entries\") */\n      tag_114\n      jumpi\n      mload(0x40)\n      0x08c379a000000000000000000000000000000000000000000000000000000000\n      dup2\n      mstore\n      0x04\n      add\n      tag_115\n      swap1\n      tag_116\n      jump\t// in\n    tag_115:\n      mload(0x40)\n      dup1\n      swap2\n      sub\n      swap1\n      revert\n    tag_114:\n        /* \"leaderboard.sol\":7349:7360  uint256 old */\n      0x00\n        /* \"leaderboard.sol\":7363:7373  maxEntries */\n      sload(0x66)\n        /* \"leaderboard.sol\":7349:7373  uint256 old = maxEntries */\n      swap1\n      pop\n        /* \"leaderboard.sol\":7396:7406  maxEntries */\n      sload(0x66)\n        /* \"leaderboard.sol\":7387:7393  newMax */\n      dup3\n        /* \"leaderboard.sol\":7387:7406  newMax < maxEntries */\n      lt\n        /* \"leaderboard.sol\":7383:7768  if (newMax < maxEntries) {... */\n      iszero\n      tag_117\n      jumpi\n        /* \"leaderboard.sol\":7495:7758  while (topPlayers.length > newMax) {... */\n    tag_118:\n        /* \"leaderboard.sol\":7522:7528  newMax */\n      dup2\n        /* \"leaderboard.sol\":7502:7512  topPlayers */\n      0x65\n        /* \"leaderboard.sol\":7502:7519  topPlayers.length */\n      dup1\n      sload\n      swap1\n      pop\n        /* \"leaderboard.sol\":7502:7528  topPlayers.length > newMax */\n      gt\n        /* \"leaderboard.sol\":7495:7758  while (topPlayers.length > newMax) {... */\n      iszero\n      tag_119\n      jumpi\n        /* \"leaderboard.sol\":7548:7568  Entry memory removed */\n      0x00\n        /* \"leaderboard.sol\":7571:7581  topPlayers */\n      0x65\n        /* \"leaderboard.sol\":7602:7603  1 */\n      0x01\n        /* \"leaderboard.sol\":7582:7592  topPlayers */\n      0x65\n        /* \"leaderboard.sol\":7582:7599  topPlayers.length */\n      dup1\n      sload\n      swap1\n      pop\n        /* \"leaderboard.sol\":7582:7603  topPlayers.length - 1 */\n      tag_120\n      swap2\n      swap1\n      tag_121\n      jump\t// in\n    tag_120:\n        /* \"leaderboard.sol\":7571:7604  topPlayers[topPlayers.length - 1] */\n      dup2\n      sload\n      dup2\n      lt\n      tag_122\n      jumpi\n      tag_123\n      tag_124\n      jump\t// in\n    tag_123:\n    tag_122:\n      swap1\n      0x00\n      mstore\n      keccak256(0x00, 0x20)\n      swap1\n      0x02\n      mul\n      add\n        /* \"leaderboard.sol\":7548:7604  Entry memory removed = topPlayers[topPlayers.length - 1] */\n      mload(0x40)\n      dup1\n      0x40\n      add\n      0x40\n      mstore\n      swap1\n      dup2\n      0x00\n      dup3\n      add\n      0x00\n      swap1\n      sload\n      swap1\n      0x0100\n      exp\n      swap1\n      div\n      0xffffffffffffffffffffffffffffffffffffffff\n      and\n      0xffffffffffffffffffffffffffffffffffffffff\n      and\n      0xffffffffffffffffffffffffffffffffffffffff\n      and\n      dup2\n      mstore\n      0x20\n      add\n      0x01\n      dup3\n      add\n      sload\n      dup2\n      mstore\n      pop\n      pop\n      swap1\n      pop\n        /* \"leaderboard.sol\":7649:7650  0 */\n      0x00\n        /* \"leaderboard.sol\":7622:7630  topIndex */\n      0x67\n        /* \"leaderboard.sol\":7622:7646  topIndex[removed.player] */\n      0x00\n        /* \"leaderboard.sol\":7631:7638  removed */\n      dup4\n        /* \"leaderboard.sol\":7631:7645  removed.player */\n      0x00\n      add\n      mload\n        /* \"leaderboard.sol\":7622:7646  topIndex[removed.player] */\n      0xffffffffffffffffffffffffffffffffffffffff\n      and\n      0xffffffffffffffffffffffffffffffffffffffff\n      and\n      dup2\n      mstore\n      0x20\n      add\n      swap1\n      dup2\n      mstore\n      0x20\n      add\n      0x00\n      keccak256\n        /* \"leaderboard.sol\":7622:7650  topIndex[removed.player] = 0 */\n      dup2\n      swap1\n      sstore\n      pop\n        /* \"leaderboard.sol\":7668:7678  topPlayers */\n      0x65\n        /* \"leaderboard.sol\":7668:7684  topPlayers.pop() */\n      dup1\n      sload\n      dup1\n      tag_126\n      jumpi\n      tag_127\n      tag_128\n      jump\t// in\n    tag_127:\n    tag_126:\n      0x01\n      swap1\n      sub\n      dup2\n      dup2\n      swap1\n      0x00\n      mstore\n      keccak256(0x00, 0x20)\n      swap1\n      0x02\n      mul\n      add\n      0x00\n      0x00\n      dup3\n      add\n      exp(0x0100, 0x00)\n      dup2\n      sload\n      swap1\n      0xffffffffffffffffffffffffffffffffffffffff\n      mul\n      not\n      and\n      swap1\n      sstore\n      0x01\n      dup3\n      add\n      0x00\n      swap1\n      sstore\n      pop\n      pop\n      swap1\n      sstore\n        /* \"leaderboard.sol\":7728:7735  removed */\n      dup1\n        /* \"leaderboard.sol\":7728:7742  removed.player */\n      0x00\n      add\n      mload\n        /* \"leaderboard.sol\":7707:7743  PlayerRemovedFromTop(removed.player) */\n      0xffffffffffffffffffffffffffffffffffffffff\n      and\n      0x4aa8f37b1c02d2e7a161c65d88e8b28520237d9523cd588a6b21ec10311b5dd8\n      mload(0x40)\n      mload(0x40)\n      dup1\n      swap2\n      sub\n      swap1\n      log2\n        /* \"leaderboard.sol\":7530:7758  {... */\n      pop\n        /* \"leaderboard.sol\":7495:7758  while (topPlayers.length > newMax) {... */\n      jump(tag_118)\n    tag_119:\n        /* \"leaderboard.sol\":7383:7768  if (newMax < maxEntries) {... */\n    tag_117:\n        /* \"leaderboard.sol\":7790:7796  newMax */\n      dup2\n        /* \"leaderboard.sol\":7777:7787  maxEntries */\n      0x66\n        /* \"leaderboard.sol\":7777:7796  maxEntries = newMax */\n      dup2\n      swap1\n      sstore\n      pop\n        /* \"leaderboard.sol\":7811:7841  MaxEntriesChanged(old, newMax) */\n      0x0a61d601f6958397b49d3d15ab5e4c91a755b88f301e68c13d4d3d0be30a9b71\n        /* \"leaderboard.sol\":7829:7832  old */\n      dup2\n        /* \"leaderboard.sol\":7834:7840  newMax */\n      dup4\n        /* \"leaderboard.sol\":7811:7841  MaxEntriesChanged(old, newMax) */\n      mload(0x40)\n      tag_130\n      swap3\n      swap2\n      swap1\n      tag_85\n      jump\t// in\n    tag_130:\n      mload(0x40)\n      dup1\n      swap2\n      sub\n      swap1\n      log1\n        /* \"leaderboard.sol\":7270:7848  {... */\n      pop\n        /* \"leaderboard.sol\":7212:7848  function setMaxEntries(uint256 newMax) external onlyOwner {... */\n      pop\n      jump\t// out\n        /* \"@openzeppelin/contracts-upgradeable/proxy/utils/UUPSUpgradeable.sol\":4161:4375  function upgradeToAndCall(address newImplementation, bytes memory data) public payable virtual onlyProxy {... */\n    tag_38:\n        /* \"@openzeppelin/contracts-upgradeable/proxy/utils/UUPSUpgradeable.sol\":2655:2668  _checkProxy() */\n      tag_132\n        /* \"@openzeppelin/contracts-upgradeable/proxy/utils/UUPSUpgradeable.sol\":2655:2666  _checkProxy */\n      tag_133\n        /* \"@openzeppelin/contracts-upgradeable/proxy/utils/UUPSUpgradeable.sol\":2655:2668  _checkProxy() */\n      jump\t// in\n    tag_132:\n        /* \"@openzeppelin/contracts-upgradeable/proxy/utils/UUPSUpgradeable.sol\":4276:4312  _authorizeUpgrade(newImplementation) */\n      tag_135\n        /* \"@openzeppelin/contracts-upgradeable/proxy/utils/UUPSUpgradeable.sol\":4294:4311  newImplementation */\n      dup3\n        /* \"@openzeppelin/contracts-upgradeable/proxy/utils/UUPSUpgradeable.sol\":4276:4293  _authorizeUpgrade */\n      tag_136\n        /* \"@openzeppelin/contracts-upgradeable/proxy/utils/UUPSUpgradeable.sol\":4276:4312  _authorizeUpgrade(newImplementation) */\n      jump\t// in\n    tag_135:\n        /* \"@openzeppelin/contracts-upgradeable/proxy/utils/UUPSUpgradeable.sol\":4322:4368  _upgradeToAndCallUUPS(newImplementation, data) */\n      tag_137\n        /* \"@openzeppelin/contracts-upgradeable/proxy/utils/UUPSUpgradeable.sol\":4344:4361  newImplementation */\n      dup3\n        /* \"@openzeppelin/contracts-upgradeable/proxy/utils/UUPSUpgradeable.sol\":4363:4367  data */\n      dup3\n        /* \"@openzeppelin/contracts-upgradeable/proxy/utils/UUPSUpgradeable.sol\":4322:4343  _upgradeToAndCallUUPS */\n      tag_138\n        /* \"@openzeppelin/contracts-upgradeable/proxy/utils/UUPSUpgradeable.sol\":4322:4368  _upgradeToAndCallUUPS(newImplementation, data) */\n      jump\t// in\n    tag_137:\n        /* \"@openzeppelin/contracts-upgradeable/proxy/utils/UUPSUpgradeable.sol\":4161:4375  function upgradeToAndCall(address newImplementation, bytes memory data) public payable virtual onlyProxy {... */\n      pop\n      pop\n      jump\t// out\n        /* \"@openzeppelin/contracts-upgradeable/proxy/utils/UUPSUpgradeable.sol\":3708:3842  function proxiableUUID() external view virtual notDelegated returns (bytes32) {... */\n    tag_41:\n        /* \"@openzeppelin/contracts-upgradeable/proxy/utils/UUPSUpgradeable.sol\":3777:3784  bytes32 */\n      0x00\n        /* \"@openzeppelin/contracts-upgradeable/proxy/utils/UUPSUpgradeable.sol\":2926:2946  _checkNotDelegated() */\n      tag_140\n        /* \"@openzeppelin/contracts-upgradeable/proxy/utils/UUPSUpgradeable.sol\":2926:2944  _checkNotDelegated */\n      tag_141\n        /* \"@openzeppelin/contracts-upgradeable/proxy/utils/UUPSUpgradeable.sol\":2926:2946  _checkNotDelegated() */\n      jump\t// in\n    tag_140:\n        /* \"@openzeppelin/contracts/proxy/ERC1967/ERC1967Utils.sol\":811:877  0x360894a13ba1a3210667c828492db98dca3e2076cc3735a920a3ca505d382bbc */\n      0x360894a13ba1a3210667c828492db98dca3e2076cc3735a920a3ca505d382bbc\n        /* \"@openzeppelin/contracts-upgradeable/proxy/utils/UUPSUpgradeable.sol\":3803:3835  ERC1967Utils.IMPLEMENTATION_SLOT */\n      0x00\n      shl\n        /* \"@openzeppelin/contracts-upgradeable/proxy/utils/UUPSUpgradeable.sol\":3796:3835  return ERC1967Utils.IMPLEMENTATION_SLOT */\n      swap1\n      pop\n        /* \"@openzeppelin/contracts-upgradeable/proxy/utils/UUPSUpgradeable.sol\":3708:3842  function proxiableUUID() external view virtual notDelegated returns (bytes32) {... */\n      swap1\n      jump\t// out\n        /* \"@openzeppelin/contracts-upgradeable/security/PausableUpgradeable.sol\":1879:1963  function paused() public view virtual returns (bool) {... */\n    tag_46:\n        /* \"@openzeppelin/contracts-upgradeable/security/PausableUpgradeable.sol\":1926:1930  bool */\n      0x00\n        /* \"@openzeppelin/contracts-upgradeable/security/PausableUpgradeable.sol\":1949:1956  _paused */\n      0x00\n      0x00\n      swap1\n      sload\n      swap1\n      0x0100\n      exp\n      swap1\n      div\n      0xff\n      and\n        /* \"@openzeppelin/contracts-upgradeable/security/PausableUpgradeable.sol\":1942:1956  return _paused */\n      swap1\n      pop\n        /* \"@openzeppelin/contracts-upgradeable/security/PausableUpgradeable.sol\":1879:1963  function paused() public view virtual returns (bool) {... */\n      swap1\n      jump\t// out\n        /* \"leaderboard.sol\":3501:3811  function updateScore(address player, uint256 newScore) external whenNotPaused onlyAuthorized nonReentrant {... */\n    tag_53:\n        /* \"@openzeppelin/contracts-upgradeable/security/PausableUpgradeable.sol\":1503:1522  _requireNotPaused() */\n      tag_145\n        /* \"@openzeppelin/contracts-upgradeable/security/PausableUpgradeable.sol\":1503:1520  _requireNotPaused */\n      tag_146\n        /* \"@openzeppelin/contracts-upgradeable/security/PausableUpgradeable.sol\":1503:1522  _requireNotPaused() */\n      jump\t// in\n    tag_145:\n        /* \"leaderboard.sol\":2715:2733  authorizedUpdaters */\n      0x68\n        /* \"leaderboard.sol\":2715:2745  authorizedUpdaters[msg.sender] */\n      0x00\n        /* \"leaderboard.sol\":2734:2744  msg.sender */\n      caller\n        /* \"leaderboard.sol\":2715:2745  authorizedUpdaters[msg.sender] */\n      0xffffffffffffffffffffffffffffffffffffffff\n      and\n      0xffffffffffffffffffffffffffffffffffffffff\n      and\n      dup2\n      mstore\n      0x20\n      add\n      swap1\n      dup2\n      mstore\n      0x20\n      add\n      0x00\n      keccak256\n      0x00\n      swap1\n      sload\n      swap1\n      0x0100\n      exp\n      swap1\n      div\n      0xff\n      and\n        /* \"leaderboard.sol\":2715:2770  authorizedUpdaters[msg.sender] || owner() == msg.sender */\n      dup1\n      tag_148\n      jumpi\n      pop\n        /* \"leaderboard.sol\":2760:2770  msg.sender */\n      caller\n        /* \"leaderboard.sol\":2749:2770  owner() == msg.sender */\n      0xffffffffffffffffffffffffffffffffffffffff\n      and\n        /* \"leaderboard.sol\":2749:2756  owner() */\n      tag_149\n        /* \"leaderboard.sol\":2749:2754  owner */\n      tag_67\n        /* \"leaderboard.sol\":2749:2756  owner() */\n      jump\t// in\n    tag_149:\n        /* \"leaderboard.sol\":2749:2770  owner() == msg.sender */\n      0xffffffffffffffffffffffffffffffffffffffff\n      and\n      eq\n        /* \"leaderboard.sol\":2715:2770  authorizedUpdaters[msg.sender] || owner() == msg.sender */\n    tag_148:\n        /* \"leaderboard.sol\":2707:2789  require(authorizedUpdaters[msg.sender] || owner() == msg.sender, \"not authorized\") */\n      tag_150\n      jumpi\n      mload(0x40)\n      0x08c379a000000000000000000000000000000000000000000000000000000000\n      dup2\n      mstore\n      0x04\n      add\n      tag_151\n      swap1\n      tag_152\n      jump\t// in\n    tag_151:\n      mload(0x40)\n      dup1\n      swap2\n      sub\n      swap1\n      revert\n    tag_150:\n        /* \"@openzeppelin/contracts-upgradeable/security/ReentrancyGuardUpgradeable.sol\":2526:2547  _nonReentrantBefore() */\n      tag_154\n        /* \"@openzeppelin/contracts-upgradeable/security/ReentrancyGuardUpgradeable.sol\":2526:2545  _nonReentrantBefore */\n      tag_155\n        /* \"@openzeppelin/contracts-upgradeable/security/ReentrancyGuardUpgradeable.sol\":2526:2547  _nonReentrantBefore() */\n      jump\t// in\n    tag_154:\n        /* \"leaderboard.sol\":3643:3644  0 */\n      0x00\n        /* \"leaderboard.sol\":3625:3645  player != address(0) */\n      0xffffffffffffffffffffffffffffffffffffffff\n      and\n        /* \"leaderboard.sol\":3625:3631  player */\n      dup3\n        /* \"leaderboard.sol\":3625:3645  player != address(0) */\n      0xffffffffffffffffffffffffffffffffffffffff\n      and\n      sub\n        /* \"leaderboard.sol\":3617:3664  require(player != address(0), \"invalid player\") */\n      tag_157\n      jumpi\n      mload(0x40)\n      0x08c379a000000000000000000000000000000000000000000000000000000000\n      dup2\n      mstore\n      0x04\n      add\n      tag_158\n      swap1\n      tag_159\n      jump\t// in\n    tag_158:\n      mload(0x40)\n      dup1\n      swap2\n      sub\n      swap1\n      revert\n    tag_157:\n        /* \"leaderboard.sol\":3692:3700  newScore */\n      dup1\n        /* \"leaderboard.sol\":3675:3681  scores */\n      0x64\n        /* \"leaderboard.sol\":3675:3689  scores[player] */\n      0x00\n        /* \"leaderboard.sol\":3682:3688  player */\n      dup5\n        /* \"leaderboard.sol\":3675:3689  scores[player] */\n      0xffffffffffffffffffffffffffffffffffffffff\n      and\n      0xffffffffffffffffffffffffffffffffffffffff\n      and\n      dup2\n      mstore\n      0x20\n      add\n      swap1\n      dup2\n      mstore\n      0x20\n      add\n      0x00\n      keccak256\n        /* \"leaderboard.sol\":3675:3700  scores[player] = newScore */\n      dup2\n      swap1\n      sstore\n      pop\n        /* \"leaderboard.sol\":3710:3746  _insertOrUpdateTop(player, newScore) */\n      tag_160\n        /* \"leaderboard.sol\":3729:3735  player */\n      dup3\n        /* \"leaderboard.sol\":3737:3745  newScore */\n      dup3\n        /* \"leaderboard.sol\":3710:3728  _insertOrUpdateTop */\n      tag_161\n        /* \"leaderboard.sol\":3710:3746  _insertOrUpdateTop(player, newScore) */\n      jump\t// in\n    tag_160:\n        /* \"leaderboard.sol\":3787:3793  player */\n      dup2\n        /* \"leaderboard.sol\":3762:3804  ScoreUpdated(msg.sender, player, newScore) */\n      0xffffffffffffffffffffffffffffffffffffffff\n      and\n        /* \"leaderboard.sol\":3775:3785  msg.sender */\n      caller\n        /* \"leaderboard.sol\":3762:3804  ScoreUpdated(msg.sender, player, newScore) */\n      0xffffffffffffffffffffffffffffffffffffffff\n      and\n      0xe224e5a0583a60821f4bb611ea7a905ff6025cb7e442f3c3e5925f3b7223dd64\n        /* \"leaderboard.sol\":3795:3803  newScore */\n      dup4\n        /* \"leaderboard.sol\":3762:3804  ScoreUpdated(msg.sender, player, newScore) */\n      mload(0x40)\n      tag_162\n      swap2\n      swap1\n      tag_29\n      jump\t// in\n    tag_162:\n      mload(0x40)\n      dup1\n      swap2\n      sub\n      swap1\n      log3\n        /* \"@openzeppelin/contracts-upgradeable/security/ReentrancyGuardUpgradeable.sol\":2568:2588  _nonReentrantAfter() */\n      tag_163\n        /* \"@openzeppelin/contracts-upgradeable/security/ReentrancyGuardUpgradeable.sol\":2568:2586  _nonReentrantAfter */\n      tag_164\n        /* \"@openzeppelin/contracts-upgradeable/security/ReentrancyGuardUpgradeable.sol\":2568:2588  _nonReentrantAfter() */\n      jump\t// in\n    tag_163:\n        /* \"leaderboard.sol\":3501:3811  function updateScore(address player, uint256 newScore) external whenNotPaused onlyAuthorized nonReentrant {... */\n      pop\n      pop\n      jump\t// out\n        /* \"leaderboard.sol\":7997:8277  function resetSeason() external onlyOwner {... */\n    tag_56:\n        /* \"@openzeppelin/contracts-upgradeable/access/OwnableUpgradeable.sol\":2334:2347  _checkOwner() */\n      tag_166\n        /* \"@openzeppelin/contracts-upgradeable/access/OwnableUpgradeable.sol\":2334:2345  _checkOwner */\n      tag_111\n        /* \"@openzeppelin/contracts-upgradeable/access/OwnableUpgradeable.sol\":2334:2347  _checkOwner() */\n      jump\t// in\n    tag_166:\n        /* \"leaderboard.sol\":8114:8123  uint256 i */\n      0x00\n        /* \"leaderboard.sol\":8126:8127  0 */\n      0x00\n        /* \"leaderboard.sol\":8114:8127  uint256 i = 0 */\n      swap1\n      pop\n        /* \"leaderboard.sol\":8109:8216  for (uint256 i = 0; i < topPlayers.length; i++) {... */\n    tag_168:\n        /* \"leaderboard.sol\":8133:8143  topPlayers */\n      0x65\n        /* \"leaderboard.sol\":8133:8150  topPlayers.length */\n      dup1\n      sload\n      swap1\n      pop\n        /* \"leaderboard.sol\":8129:8130  i */\n      dup2\n        /* \"leaderboard.sol\":8129:8150  i < topPlayers.length */\n      lt\n        /* \"leaderboard.sol\":8109:8216  for (uint256 i = 0; i < topPlayers.length; i++) {... */\n      iszero\n      tag_169\n      jumpi\n        /* \"leaderboard.sol\":8204:8205  0 */\n      0x00\n        /* \"leaderboard.sol\":8171:8179  topIndex */\n      0x67\n        /* \"leaderboard.sol\":8171:8201  topIndex[topPlayers[i].player] */\n      0x00\n        /* \"leaderboard.sol\":8180:8190  topPlayers */\n      0x65\n        /* \"leaderboard.sol\":8191:8192  i */\n      dup5\n        /* \"leaderboard.sol\":8180:8193  topPlayers[i] */\n      dup2\n      sload\n      dup2\n      lt\n      tag_171\n      jumpi\n      tag_172\n      tag_124\n      jump\t// in\n    tag_172:\n    tag_171:\n      swap1\n      0x00\n      mstore\n      keccak256(0x00, 0x20)\n      swap1\n      0x02\n      mul\n      add\n        /* \"leaderboard.sol\":8180:8200  topPlayers[i].player */\n      0x00\n      add\n      0x00\n      swap1\n      sload\n      swap1\n      0x0100\n      exp\n      swap1\n      div\n      0xffffffffffffffffffffffffffffffffffffffff\n      and\n        /* \"leaderboard.sol\":8171:8201  topIndex[topPlayers[i].player] */\n      0xffffffffffffffffffffffffffffffffffffffff\n      and\n      0xffffffffffffffffffffffffffffffffffffffff\n      and\n      dup2\n      mstore\n      0x20\n      add\n      swap1\n      dup2\n      mstore\n      0x20\n      add\n      0x00\n      keccak256\n        /* \"leaderboard.sol\":8171:8205  topIndex[topPlayers[i].player] = 0 */\n      dup2\n      swap1\n      sstore\n      pop\n        /* \"leaderboard.sol\":8152:8155  i++ */\n      dup1\n      dup1\n      0x01\n      add\n      swap2\n      pop\n      pop\n        /* \"leaderboard.sol\":8109:8216  for (uint256 i = 0; i < topPlayers.length; i++) {... */\n      jump(tag_168)\n    tag_169:\n      pop\n        /* \"leaderboard.sol\":8232:8242  topPlayers */\n      0x65\n      0x00\n        /* \"leaderboard.sol\":8225:8242  delete topPlayers */\n      tag_174\n      swap2\n      swap1\n      tag_175\n      jump\t// in\n    tag_174:\n        /* \"leaderboard.sol\":8257:8270  SeasonReset() */\n      0xba0dd1b89d07a0cce0ce70c4d1037363bc6ff4dbc6b1b80b5452e167fac36c28\n      mload(0x40)\n      mload(0x40)\n      dup1\n      swap2\n      sub\n      swap1\n      log1\n        /* \"leaderboard.sol\":7997:8277  function resetSeason() external onlyOwner {... */\n      jump\t// out\n        /* \"@openzeppelin/contracts-upgradeable/access/OwnableUpgradeable.sol\":3155:3256  function renounceOwnership() public virtual onlyOwner {... */\n    tag_59:\n        /* \"@openzeppelin/contracts-upgradeable/access/OwnableUpgradeable.sol\":2334:2347  _checkOwner() */\n      tag_177\n        /* \"@openzeppelin/contracts-upgradeable/access/OwnableUpgradeable.sol\":2334:2345  _checkOwner */\n      tag_111\n        /* \"@openzeppelin/contracts-upgradeable/access/OwnableUpgradeable.sol\":2334:2347  _checkOwner() */\n      jump\t// in\n    tag_177:\n        /* \"@openzeppelin/contracts-upgradeable/access/OwnableUpgradeable.sol\":3219:3249  _transferOwnership(address(0)) */\n      tag_179\n        /* \"@openzeppelin/contracts-upgradeable/access/OwnableUpgradeable.sol\":3246:3247  0 */\n      0x00\n        /* \"@openzeppelin/contracts-upgradeable/access/OwnableUpgradeable.sol\":3219:3237  _transferOwnership */\n      tag_180\n        /* \"@openzeppelin/contracts-upgradeable/access/OwnableUpgradeable.sol\":3219:3249  _transferOwnership(address(0)) */\n      jump\t// in\n    tag_179:\n        /* \"@openzeppelin/contracts-upgradeable/access/OwnableUpgradeable.sol\":3155:3256  function renounceOwnership() public virtual onlyOwner {... */\n      jump\t// out\n        /* \"leaderboard.sol\":1294:1335  mapping(address => uint256) public scores */\n    tag_63:\n      mstore(0x20, 0x64)\n      dup1\n      0x00\n      mstore\n      keccak256(0x00, 0x40)\n      0x00\n      swap2\n      pop\n      swap1\n      pop\n      sload\n      dup2\n      jump\t// out\n        /* \"@openzeppelin/contracts-upgradeable/access/OwnableUpgradeable.sol\":2441:2585  function owner() public view virtual returns (address) {... */\n    tag_67:\n        /* \"@openzeppelin/contracts-upgradeable/access/OwnableUpgradeable.sol\":2487:2494  address */\n      0x00\n        /* \"@openzeppelin/contracts-upgradeable/access/OwnableUpgradeable.sol\":2506:2530  OwnableStorage storage $ */\n      0x00\n        /* \"@openzeppelin/contracts-upgradeable/access/OwnableUpgradeable.sol\":2533:2553  _getOwnableStorage() */\n      tag_182\n        /* \"@openzeppelin/contracts-upgradeable/access/OwnableUpgradeable.sol\":2533:2551  _getOwnableStorage */\n      tag_183\n        /* \"@openzeppelin/contracts-upgradeable/access/OwnableUpgradeable.sol\":2533:2553  _getOwnableStorage() */\n      jump\t// in\n    tag_182:\n        /* \"@openzeppelin/contracts-upgradeable/access/OwnableUpgradeable.sol\":2506:2553  OwnableStorage storage $ = _getOwnableStorage() */\n      swap1\n      pop\n        /* \"@openzeppelin/contracts-upgradeable/access/OwnableUpgradeable.sol\":2570:2571  $ */\n      dup1\n        /* \"@openzeppelin/contracts-upgradeable/access/OwnableUpgradeable.sol\":2570:2578  $._owner */\n      0x00\n      add\n      0x00\n      swap1\n      sload\n      swap1\n      0x0100\n      exp\n      swap1\n      div\n      0xffffffffffffffffffffffffffffffffffffffff\n      and\n        /* \"@openzeppelin/contracts-upgradeable/access/OwnableUpgradeable.sol\":2563:2578  return $._owner */\n      swap2\n      pop\n      pop\n        /* \"@openzeppelin/contracts-upgradeable/access/OwnableUpgradeable.sol\":2441:2585  function owner() public view virtual returns (address) {... */\n      swap1\n      jump\t// out\n        /* \"leaderboard.sol\":1722:1772  mapping(address => bool) public authorizedUpdaters */\n    tag_73:\n      mstore(0x20, 0x68)\n      dup1\n      0x00\n      mstore\n      keccak256(0x00, 0x40)\n      0x00\n      swap2\n      pop\n      sload\n      swap1\n      0x0100\n      exp\n      swap1\n      div\n      0xff\n      and\n      dup2\n      jump\t// out\n        /* \"leaderboard.sol\":2998:3248  function setAuthorizedUpdater(address updater, bool allowed) external onlyOwner {... */\n    tag_79:\n        /* \"@openzeppelin/contracts-upgradeable/access/OwnableUpgradeable.sol\":2334:2347  _checkOwner() */\n      tag_185\n        /* \"@openzeppelin/contracts-upgradeable/access/OwnableUpgradeable.sol\":2334:2345  _checkOwner */\n      tag_111\n        /* \"@openzeppelin/contracts-upgradeable/access/OwnableUpgradeable.sol\":2334:2347  _checkOwner() */\n      jump\t// in\n    tag_185:\n        /* \"leaderboard.sol\":3115:3116  0 */\n      0x00\n        /* \"leaderboard.sol\":3096:3117  updater != address(0) */\n      0xffffffffffffffffffffffffffffffffffffffff\n      and\n        /* \"leaderboard.sol\":3096:3103  updater */\n      dup3\n        /* \"leaderboard.sol\":3096:3117  updater != address(0) */\n      0xffffffffffffffffffffffffffffffffffffffff\n      and\n      sub\n        /* \"leaderboard.sol\":3088:3137  require(updater != address(0), \"invalid updater\") */\n      tag_187\n      jumpi\n      mload(0x40)\n      0x08c379a000000000000000000000000000000000000000000000000000000000\n      dup2\n      mstore\n      0x04\n      add\n      tag_188\n      swap1\n      tag_189\n      jump\t// in\n    tag_188:\n      mload(0x40)\n      dup1\n      swap2\n      sub\n      swap1\n      revert\n    tag_187:\n        /* \"leaderboard.sol\":3177:3184  allowed */\n      dup1\n        /* \"leaderboard.sol\":3147:3165  authorizedUpdaters */\n      0x68\n        /* \"leaderboard.sol\":3147:3174  authorizedUpdaters[updater] */\n      0x00\n        /* \"leaderboard.sol\":3166:3173  updater */\n      dup5\n        /* \"leaderboard.sol\":3147:3174  authorizedUpdaters[updater] */\n      0xffffffffffffffffffffffffffffffffffffffff\n      and\n      0xffffffffffffffffffffffffffffffffffffffff\n      and\n      dup2\n      mstore\n      0x20\n      add\n      swap1\n      dup2\n      mstore\n      0x20\n      add\n      0x00\n      keccak256\n      0x00\n        /* \"leaderboard.sol\":3147:3184  authorizedUpdaters[updater] = allowed */\n      0x0100\n      exp\n      dup2\n      sload\n      dup2\n      0xff\n      mul\n      not\n      and\n      swap1\n      dup4\n      iszero\n      iszero\n      mul\n      or\n      swap1\n      sstore\n      pop\n        /* \"leaderboard.sol\":3224:3231  updater */\n      dup2\n        /* \"leaderboard.sol\":3199:3241  AuthorizedUpdaterChanged(updater, allowed) */\n      0xffffffffffffffffffffffffffffffffffffffff\n      and\n      0xe80976c6c2c07678ce9937c9c4c043ace71abf610ddf891b568b77d7904f34f3\n        /* \"leaderboard.sol\":3233:3240  allowed */\n      dup3\n        /* \"leaderboard.sol\":3199:3241  AuthorizedUpdaterChanged(updater, allowed) */\n      mload(0x40)\n      tag_190\n      swap2\n      swap1\n      tag_48\n      jump\t// in\n    tag_190:\n      mload(0x40)\n      dup1\n      swap2\n      sub\n      swap1\n      log2\n        /* \"leaderboard.sol\":2998:3248  function setAuthorizedUpdater(address updater, bool allowed) external onlyOwner {... */\n      pop\n      pop\n      jump\t// out\n        /* \"leaderboard.sol\":6857:7130  function getPlayerRank(address player) external view returns (uint256 rank, uint256 scoreOut) {... */\n    tag_83:\n        /* \"leaderboard.sol\":6919:6931  uint256 rank */\n      0x00\n        /* \"leaderboard.sol\":6933:6949  uint256 scoreOut */\n      0x00\n        /* \"leaderboard.sol\":6972:6978  scores */\n      0x64\n        /* \"leaderboard.sol\":6972:6986  scores[player] */\n      0x00\n        /* \"leaderboard.sol\":6979:6985  player */\n      dup5\n        /* \"leaderboard.sol\":6972:6986  scores[player] */\n      0xffffffffffffffffffffffffffffffffffffffff\n      and\n      0xffffffffffffffffffffffffffffffffffffffff\n      and\n      dup2\n      mstore\n      0x20\n      add\n      swap1\n      dup2\n      mstore\n      0x20\n      add\n      0x00\n      keccak256\n      sload\n        /* \"leaderboard.sol\":6961:6986  scoreOut = scores[player] */\n      swap1\n      pop\n        /* \"leaderboard.sol\":6996:7014  uint256 idxPlusOne */\n      0x00\n        /* \"leaderboard.sol\":7017:7025  topIndex */\n      0x67\n        /* \"leaderboard.sol\":7017:7033  topIndex[player] */\n      0x00\n        /* \"leaderboard.sol\":7026:7032  player */\n      dup6\n        /* \"leaderboard.sol\":7017:7033  topIndex[player] */\n      0xffffffffffffffffffffffffffffffffffffffff\n      and\n      0xffffffffffffffffffffffffffffffffffffffff\n      and\n      dup2\n      mstore\n      0x20\n      add\n      swap1\n      dup2\n      mstore\n      0x20\n      add\n      0x00\n      keccak256\n      sload\n        /* \"leaderboard.sol\":6996:7033  uint256 idxPlusOne = topIndex[player] */\n      swap1\n      pop\n        /* \"leaderboard.sol\":7061:7062  0 */\n      0x00\n        /* \"leaderboard.sol\":7047:7057  idxPlusOne */\n      dup2\n        /* \"leaderboard.sol\":7047:7062  idxPlusOne == 0 */\n      sub\n        /* \"leaderboard.sol\":7043:7084  if (idxPlusOne == 0) return (0, scoreOut) */\n      tag_192\n      jumpi\n        /* \"leaderboard.sol\":7072:7073  0 */\n      0x00\n        /* \"leaderboard.sol\":7064:7084  return (0, scoreOut) */\n      swap3\n      pop\n      pop\n      jump(tag_191)\n        /* \"leaderboard.sol\":7043:7084  if (idxPlusOne == 0) return (0, scoreOut) */\n    tag_192:\n        /* \"leaderboard.sol\":7102:7112  idxPlusOne */\n      dup1\n        /* \"leaderboard.sol\":7094:7123  return (idxPlusOne, scoreOut) */\n      swap3\n      pop\n      pop\n        /* \"leaderboard.sol\":6857:7130  function getPlayerRank(address player) external view returns (uint256 rank, uint256 scoreOut) {... */\n    tag_191:\n      swap2\n      pop\n      swap2\n      jump\t// out\n        /* \"@openzeppelin/contracts-upgradeable/proxy/utils/UUPSUpgradeable.sol\":1819:1877  string public constant UPGRADE_INTERFACE_VERSION = \"5.0.0\" */\n    tag_88:\n      mload(0x40)\n      dup1\n      0x40\n      add\n      0x40\n      mstore\n      dup1\n      0x05\n      dup2\n      mstore\n      0x20\n      add\n      0x352e302e30000000000000000000000000000000000000000000000000000000\n      dup2\n      mstore\n      pop\n      dup2\n      jump\t// out\n        /* \"leaderboard.sol\":6451:6718  function getTopPlayers(uint256 n) external view returns (Entry[] memory) {... */\n    tag_94:\n        /* \"leaderboard.sol\":6508:6522  Entry[] memory */\n      0x60\n        /* \"leaderboard.sol\":6542:6552  topPlayers */\n      0x65\n        /* \"leaderboard.sol\":6542:6559  topPlayers.length */\n      dup1\n      sload\n      swap1\n      pop\n        /* \"leaderboard.sol\":6538:6539  n */\n      dup3\n        /* \"leaderboard.sol\":6538:6559  n > topPlayers.length */\n      gt\n        /* \"leaderboard.sol\":6534:6582  if (n > topPlayers.length) n = topPlayers.length */\n      iszero\n      tag_194\n      jumpi\n        /* \"leaderboard.sol\":6565:6575  topPlayers */\n      0x65\n        /* \"leaderboard.sol\":6565:6582  topPlayers.length */\n      dup1\n      sload\n      swap1\n      pop\n        /* \"leaderboard.sol\":6561:6582  n = topPlayers.length */\n      swap2\n      pop\n        /* \"leaderboard.sol\":6534:6582  if (n > topPlayers.length) n = topPlayers.length */\n    tag_194:\n        /* \"leaderboard.sol\":6592:6610  Entry[] memory out */\n      0x00\n        /* \"leaderboard.sol\":6625:6626  n */\n      dup3\n        /* \"leaderboard.sol\":6613:6627  new Entry[](n) */\n      0xffffffffffffffff\n      dup2\n      gt\n      iszero\n      tag_195\n      jumpi\n      tag_196\n      tag_197\n      jump\t// in\n    tag_196:\n    tag_195:\n      mload(0x40)\n      swap1\n      dup1\n      dup3\n      mstore\n      dup1\n      0x20\n      mul\n      0x20\n      add\n      dup3\n      add\n      0x40\n      mstore\n      dup1\n      iszero\n      tag_198\n      jumpi\n      dup2\n      0x20\n      add\n    tag_199:\n      tag_200\n      tag_201\n      jump\t// in\n    tag_200:\n      dup2\n      mstore\n      0x20\n      add\n      swap1\n      0x01\n      swap1\n      sub\n      swap1\n      dup2\n      tag_199\n      jumpi\n      swap1\n      pop\n    tag_198:\n      pop\n        /* \"leaderboard.sol\":6592:6627  Entry[] memory out = new Entry[](n) */\n      swap1\n      pop\n        /* \"leaderboard.sol\":6642:6651  uint256 i */\n      0x00\n        /* \"leaderboard.sol\":6654:6655  0 */\n      0x00\n        /* \"leaderboard.sol\":6642:6655  uint256 i = 0 */\n      swap1\n      pop\n        /* \"leaderboard.sol\":6637:6691  for (uint256 i = 0; i < n; i++) out[i] = topPlayers[i] */\n    tag_202:\n        /* \"leaderboard.sol\":6661:6662  n */\n      dup4\n        /* \"leaderboard.sol\":6657:6658  i */\n      dup2\n        /* \"leaderboard.sol\":6657:6662  i < n */\n      lt\n        /* \"leaderboard.sol\":6637:6691  for (uint256 i = 0; i < n; i++) out[i] = topPlayers[i] */\n      iszero\n      tag_203\n      jumpi\n        /* \"leaderboard.sol\":6678:6688  topPlayers */\n      0x65\n        /* \"leaderboard.sol\":6689:6690  i */\n      dup2\n        /* \"leaderboard.sol\":6678:6691  topPlayers[i] */\n      dup2\n      sload\n      dup2\n      lt\n      tag_205\n      jumpi\n      tag_206\n      tag_124\n      jump\t// in\n    tag_206:\n    tag_205:\n      swap1\n      0x00\n      mstore\n      keccak256(0x00, 0x20)\n      swap1\n      0x02\n      mul\n      add\n        /* \"leaderboard.sol\":6669:6691  out[i] = topPlayers[i] */\n      mload(0x40)\n      dup1\n      0x40\n      add\n      0x40\n      mstore\n      swap1\n      dup2\n      0x00\n      dup3\n      add\n      0x00\n      swap1\n      sload\n      swap1\n      0x0100\n      exp\n      swap1\n      div\n      0xffffffffffffffffffffffffffffffffffffffff\n      and\n      0xffffffffffffffffffffffffffffffffffffffff\n      and\n      0xffffffffffffffffffffffffffffffffffffffff\n      and\n      dup2\n      mstore\n      0x20\n      add\n      0x01\n      dup3\n      add\n      sload\n      dup2\n      mstore\n      pop\n      pop\n        /* \"leaderboard.sol\":6669:6672  out */\n      dup3\n        /* \"leaderboard.sol\":6673:6674  i */\n      dup3\n        /* \"leaderboard.sol\":6669:6675  out[i] */\n      dup2\n      mload\n      dup2\n      lt\n      tag_208\n      jumpi\n      tag_209\n      tag_124\n      jump\t// in\n    tag_209:\n    tag_208:\n      0x20\n      mul\n      0x20\n      add\n      add\n        /* \"leaderboard.sol\":6669:6691  out[i] = topPlayers[i] */\n      dup2\n      swap1\n      mstore\n      pop\n        /* \"leaderboard.sol\":6664:6667  i++ */\n      dup1\n      dup1\n      0x01\n      add\n      swap2\n      pop\n      pop\n        /* \"leaderboard.sol\":6637:6691  for (uint256 i = 0; i < n; i++) out[i] = topPlayers[i] */\n      jump(tag_202)\n    tag_203:\n      pop\n        /* \"leaderboard.sol\":6708:6711  out */\n      dup1\n        /* \"leaderboard.sol\":6701:6711  return out */\n      swap2\n      pop\n      pop\n        /* \"leaderboard.sol\":6451:6718  function getTopPlayers(uint256 n) external view returns (Entry[] memory) {... */\n      swap2\n      swap1\n      pop\n      jump\t// out\n        /* \"leaderboard.sol\":1422:1447  uint256 public maxEntries */\n    tag_99:\n      sload(0x66)\n      dup2\n      jump\t// out\n        /* \"@openzeppelin/contracts-upgradeable/access/OwnableUpgradeable.sol\":3405:3620  function transferOwnership(address newOwner) public virtual onlyOwner {... */\n    tag_104:\n        /* \"@openzeppelin/contracts-upgradeable/access/OwnableUpgradeable.sol\":2334:2347  _checkOwner() */\n      tag_211\n        /* \"@openzeppelin/contracts-upgradeable/access/OwnableUpgradeable.sol\":2334:2345  _checkOwner */\n      tag_111\n        /* \"@openzeppelin/contracts-upgradeable/access/OwnableUpgradeable.sol\":2334:2347  _checkOwner() */\n      jump\t// in\n    tag_211:\n        /* \"@openzeppelin/contracts-upgradeable/access/OwnableUpgradeable.sol\":3509:3510  0 */\n      0x00\n        /* \"@openzeppelin/contracts-upgradeable/access/OwnableUpgradeable.sol\":3489:3511  newOwner == address(0) */\n      0xffffffffffffffffffffffffffffffffffffffff\n      and\n        /* \"@openzeppelin/contracts-upgradeable/access/OwnableUpgradeable.sol\":3489:3497  newOwner */\n      dup2\n        /* \"@openzeppelin/contracts-upgradeable/access/OwnableUpgradeable.sol\":3489:3511  newOwner == address(0) */\n      0xffffffffffffffffffffffffffffffffffffffff\n      and\n      sub\n        /* \"@openzeppelin/contracts-upgradeable/access/OwnableUpgradeable.sol\":3485:3576  if (newOwner == address(0)) {... */\n      tag_213\n      jumpi\n        /* \"@openzeppelin/contracts-upgradeable/access/OwnableUpgradeable.sol\":3562:3563  0 */\n      0x00\n        /* \"@openzeppelin/contracts-upgradeable/access/OwnableUpgradeable.sol\":3534:3565  OwnableInvalidOwner(address(0)) */\n      mload(0x40)\n      0x1e4fbdf700000000000000000000000000000000000000000000000000000000\n      dup2\n      mstore\n      0x04\n      add\n      tag_214\n      swap2\n      swap1\n      tag_69\n      jump\t// in\n    tag_214:\n      mload(0x40)\n      dup1\n      swap2\n      sub\n      swap1\n      revert\n        /* \"@openzeppelin/contracts-upgradeable/access/OwnableUpgradeable.sol\":3485:3576  if (newOwner == address(0)) {... */\n    tag_213:\n        /* \"@openzeppelin/contracts-upgradeable/access/OwnableUpgradeable.sol\":3585:3613  _transferOwnership(newOwner) */\n      tag_215\n        /* \"@openzeppelin/contracts-upgradeable/access/OwnableUpgradeable.sol\":3604:3612  newOwner */\n      dup2\n        /* \"@openzeppelin/contracts-upgradeable/access/OwnableUpgradeable.sol\":3585:3603  _transferOwnership */\n      tag_180\n        /* \"@openzeppelin/contracts-upgradeable/access/OwnableUpgradeable.sol\":3585:3613  _transferOwnership(newOwner) */\n      jump\t// in\n    tag_215:\n        /* \"@openzeppelin/contracts-upgradeable/access/OwnableUpgradeable.sol\":3405:3620  function transferOwnership(address newOwner) public virtual onlyOwner {... */\n      pop\n      jump\t// out\n        /* \"leaderboard.sol\":2344:2665  function initialize(uint256 _maxEntries) public initializer {... */\n    tag_108:\n        /* \"@openzeppelin/contracts-upgradeable/proxy/utils/Initializable.sol\":4158:4188  InitializableStorage storage $ */\n      0x00\n        /* \"@openzeppelin/contracts-upgradeable/proxy/utils/Initializable.sol\":4191:4217  _getInitializableStorage() */\n      tag_217\n        /* \"@openzeppelin/contracts-upgradeable/proxy/utils/Initializable.sol\":4191:4215  _getInitializableStorage */\n      tag_218\n        /* \"@openzeppelin/contracts-upgradeable/proxy/utils/Initializable.sol\":4191:4217  _getInitializableStorage() */\n      jump\t// in\n    tag_217:\n        /* \"@openzeppelin/contracts-upgradeable/proxy/utils/Initializable.sol\":4158:4217  InitializableStorage storage $ = _getInitializableStorage() */\n      swap1\n      pop\n        /* \"@openzeppelin/contracts-upgradeable/proxy/utils/Initializable.sol\":4279:4298  bool isTopLevelCall */\n      0x00\n        /* \"@openzeppelin/contracts-upgradeable/proxy/utils/Initializable.sol\":4302:4303  $ */\n      dup2\n        /* \"@openzeppelin/contracts-upgradeable/proxy/utils/Initializable.sol\":4302:4317  $._initializing */\n      0x00\n      add\n      0x08\n      swap1\n      sload\n      swap1\n      0x0100\n      exp\n      swap1\n      div\n      0xff\n      and\n        /* \"@openzeppelin/contracts-upgradeable/proxy/utils/Initializable.sol\":4301:4317  !$._initializing */\n      iszero\n        /* \"@openzeppelin/contracts-upgradeable/proxy/utils/Initializable.sol\":4279:4317  bool isTopLevelCall = !$._initializing */\n      swap1\n      pop\n        /* \"@openzeppelin/contracts-upgradeable/proxy/utils/Initializable.sol\":4327:4345  uint64 initialized */\n      0x00\n        /* \"@openzeppelin/contracts-upgradeable/proxy/utils/Initializable.sol\":4348:4349  $ */\n      dup3\n        /* \"@openzeppelin/contracts-upgradeable/proxy/utils/Initializable.sol\":4348:4362  $._initialized */\n      0x00\n      add\n      0x00\n      swap1\n      sload\n      swap1\n      0x0100\n      exp\n      swap1\n      div\n      0xffffffffffffffff\n      and\n        /* \"@openzeppelin/contracts-upgradeable/proxy/utils/Initializable.sol\":4327:4362  uint64 initialized = $._initialized */\n      swap1\n      pop\n        /* \"@openzeppelin/contracts-upgradeable/proxy/utils/Initializable.sol\":4704:4721  bool initialSetup */\n      0x00\n        /* \"@openzeppelin/contracts-upgradeable/proxy/utils/Initializable.sol\":4739:4740  0 */\n      0x00\n        /* \"@openzeppelin/contracts-upgradeable/proxy/utils/Initializable.sol\":4724:4735  initialized */\n      dup3\n        /* \"@openzeppelin/contracts-upgradeable/proxy/utils/Initializable.sol\":4724:4740  initialized == 0 */\n      0xffffffffffffffff\n      and\n      eq\n        /* \"@openzeppelin/contracts-upgradeable/proxy/utils/Initializable.sol\":4724:4758  initialized == 0 && isTopLevelCall */\n      dup1\n      iszero\n      tag_219\n      jumpi\n      pop\n        /* \"@openzeppelin/contracts-upgradeable/proxy/utils/Initializable.sol\":4744:4758  isTopLevelCall */\n      dup3\n        /* \"@openzeppelin/contracts-upgradeable/proxy/utils/Initializable.sol\":4724:4758  initialized == 0 && isTopLevelCall */\n    tag_219:\n        /* \"@openzeppelin/contracts-upgradeable/proxy/utils/Initializable.sol\":4704:4758  bool initialSetup = initialized == 0 && isTopLevelCall */\n      swap1\n      pop\n        /* \"@openzeppelin/contracts-upgradeable/proxy/utils/Initializable.sol\":4768:4785  bool construction */\n      0x00\n        /* \"@openzeppelin/contracts-upgradeable/proxy/utils/Initializable.sol\":4803:4804  1 */\n      0x01\n        /* \"@openzeppelin/contracts-upgradeable/proxy/utils/Initializable.sol\":4788:4799  initialized */\n      dup4\n        /* \"@openzeppelin/contracts-upgradeable/proxy/utils/Initializable.sol\":4788:4804  initialized == 1 */\n      0xffffffffffffffff\n      and\n      eq\n        /* \"@openzeppelin/contracts-upgradeable/proxy/utils/Initializable.sol\":4788:4838  initialized == 1 && address(this).code.length == 0 */\n      dup1\n      iszero\n      tag_220\n      jumpi\n      pop\n        /* \"@openzeppelin/contracts-upgradeable/proxy/utils/Initializable.sol\":4837:4838  0 */\n      0x00\n        /* \"@openzeppelin/contracts-upgradeable/proxy/utils/Initializable.sol\":4816:4820  this */\n      address\n        /* \"@openzeppelin/contracts-upgradeable/proxy/utils/Initializable.sol\":4808:4833  address(this).code.length */\n      0xffffffffffffffffffffffffffffffffffffffff\n      and\n      extcodesize\n        /* \"@openzeppelin/contracts-upgradeable/proxy/utils/Initializable.sol\":4808:4838  address(this).code.length == 0 */\n      eq\n        /* \"@openzeppelin/contracts-upgradeable/proxy/utils/Initializable.sol\":4788:4838  initialized == 1 && address(this).code.length == 0 */\n    tag_220:\n        /* \"@openzeppelin/contracts-upgradeable/proxy/utils/Initializable.sol\":4768:4838  bool construction = initialized == 1 && address(this).code.length == 0 */\n      swap1\n      pop\n        /* \"@openzeppelin/contracts-upgradeable/proxy/utils/Initializable.sol\":4854:4866  initialSetup */\n      dup2\n        /* \"@openzeppelin/contracts-upgradeable/proxy/utils/Initializable.sol\":4853:4866  !initialSetup */\n      iszero\n        /* \"@openzeppelin/contracts-upgradeable/proxy/utils/Initializable.sol\":4853:4883  !initialSetup && !construction */\n      dup1\n      iszero\n      tag_221\n      jumpi\n      pop\n        /* \"@openzeppelin/contracts-upgradeable/proxy/utils/Initializable.sol\":4871:4883  construction */\n      dup1\n        /* \"@openzeppelin/contracts-upgradeable/proxy/utils/Initializable.sol\":4870:4883  !construction */\n      iszero\n        /* \"@openzeppelin/contracts-upgradeable/proxy/utils/Initializable.sol\":4853:4883  !initialSetup && !construction */\n    tag_221:\n        /* \"@openzeppelin/contracts-upgradeable/proxy/utils/Initializable.sol\":4849:4940  if (!initialSetup && !construction) {... */\n      iszero\n      tag_222\n      jumpi\n        /* \"@openzeppelin/contracts-upgradeable/proxy/utils/Initializable.sol\":4906:4929  InvalidInitialization() */\n      mload(0x40)\n      0xf92ee8a900000000000000000000000000000000000000000000000000000000\n      dup2\n      mstore\n      0x04\n      add\n      mload(0x40)\n      dup1\n      swap2\n      sub\n      swap1\n      revert\n        /* \"@openzeppelin/contracts-upgradeable/proxy/utils/Initializable.sol\":4849:4940  if (!initialSetup && !construction) {... */\n    tag_222:\n        /* \"@openzeppelin/contracts-upgradeable/proxy/utils/Initializable.sol\":4966:4967  1 */\n      0x01\n        /* \"@openzeppelin/contracts-upgradeable/proxy/utils/Initializable.sol\":4949:4950  $ */\n      dup6\n        /* \"@openzeppelin/contracts-upgradeable/proxy/utils/Initializable.sol\":4949:4963  $._initialized */\n      0x00\n      add\n      0x00\n        /* \"@openzeppelin/contracts-upgradeable/proxy/utils/Initializable.sol\":4949:4967  $._initialized = 1 */\n      0x0100\n      exp\n      dup2\n      sload\n      dup2\n      0xffffffffffffffff\n      mul\n      not\n      and\n      swap1\n      dup4\n      0xffffffffffffffff\n      and\n      mul\n      or\n      swap1\n      sstore\n      pop\n        /* \"@openzeppelin/contracts-upgradeable/proxy/utils/Initializable.sol\":4981:4995  isTopLevelCall */\n      dup4\n        /* \"@openzeppelin/contracts-upgradeable/proxy/utils/Initializable.sol\":4977:5044  if (isTopLevelCall) {... */\n      iszero\n      tag_223\n      jumpi\n        /* \"@openzeppelin/contracts-upgradeable/proxy/utils/Initializable.sol\":5029:5033  true */\n      0x01\n        /* \"@openzeppelin/contracts-upgradeable/proxy/utils/Initializable.sol\":5011:5012  $ */\n      dup6\n        /* \"@openzeppelin/contracts-upgradeable/proxy/utils/Initializable.sol\":5011:5026  $._initializing */\n      0x00\n      add\n      0x08\n        /* \"@openzeppelin/contracts-upgradeable/proxy/utils/Initializable.sol\":5011:5033  $._initializing = true */\n      0x0100\n      exp\n      dup2\n      sload\n      dup2\n      0xff\n      mul\n      not\n      and\n      swap1\n      dup4\n      iszero\n      iszero\n      mul\n      or\n      swap1\n      sstore\n      pop\n        /* \"@openzeppelin/contracts-upgradeable/proxy/utils/Initializable.sol\":4977:5044  if (isTopLevelCall) {... */\n    tag_223:\n        /* \"leaderboard.sol\":2436:2437  0 */\n      0x00\n        /* \"leaderboard.sol\":2422:2433  _maxEntries */\n      dup7\n        /* \"leaderboard.sol\":2422:2437  _maxEntries > 0 */\n      gt\n        /* \"leaderboard.sol\":2422:2459  _maxEntries > 0 && _maxEntries <= 200 */\n      dup1\n      iszero\n      tag_225\n      jumpi\n      pop\n        /* \"leaderboard.sol\":2456:2459  200 */\n      0xc8\n        /* \"leaderboard.sol\":2441:2452  _maxEntries */\n      dup7\n        /* \"leaderboard.sol\":2441:2459  _maxEntries <= 200 */\n      gt\n      iszero\n        /* \"leaderboard.sol\":2422:2459  _maxEntries > 0 && _maxEntries <= 200 */\n    tag_225:\n        /* \"leaderboard.sol\":2414:2492  require(_maxEntries > 0 && _maxEntries <= 200, \"invalid max entries, max 200\") */\n      tag_226\n      jumpi\n      mload(0x40)\n      0x08c379a000000000000000000000000000000000000000000000000000000000\n      dup2\n      mstore\n      0x04\n      add\n      tag_227\n      swap1\n      tag_228\n      jump\t// in\n    tag_227:\n      mload(0x40)\n      dup1\n      swap2\n      sub\n      swap1\n      revert\n    tag_226:\n        /* \"leaderboard.sol\":2502:2528  __Ownable_init(msg.sender) */\n      tag_229\n        /* \"leaderboard.sol\":2517:2527  msg.sender */\n      caller\n        /* \"leaderboard.sol\":2502:2516  __Ownable_init */\n      tag_230\n        /* \"leaderboard.sol\":2502:2528  __Ownable_init(msg.sender) */\n      jump\t// in\n    tag_229:\n        /* \"leaderboard.sol\":2538:2555  __Pausable_init() */\n      tag_231\n        /* \"leaderboard.sol\":2538:2553  __Pausable_init */\n      tag_232\n        /* \"leaderboard.sol\":2538:2555  __Pausable_init() */\n      jump\t// in\n    tag_231:\n        /* \"leaderboard.sol\":2565:2589  __ReentrancyGuard_init() */\n      tag_233\n        /* \"leaderboard.sol\":2565:2587  __ReentrancyGuard_init */\n      tag_234\n        /* \"leaderboard.sol\":2565:2589  __ReentrancyGuard_init() */\n      jump\t// in\n    tag_233:\n        /* \"leaderboard.sol\":2599:2623  __UUPSUpgradeable_init() */\n      tag_235\n        /* \"leaderboard.sol\":2599:2621  __UUPSUpgradeable_init */\n      tag_236\n        /* \"leaderboard.sol\":2599:2623  __UUPSUpgradeable_init() */\n      jump\t// in\n    tag_235:\n        /* \"leaderboard.sol\":2647:2658  _maxEntries */\n      dup6\n        /* \"leaderboard.sol\":2634:2644  maxEntries */\n      0x66\n        /* \"leaderboard.sol\":2634:2658  maxEntries = _maxEntries */\n      dup2\n      swap1\n      sstore\n      pop\n        /* \"@openzeppelin/contracts-upgradeable/proxy/utils/Initializable.sol\":5068:5082  isTopLevelCall */\n      dup4\n        /* \"@openzeppelin/contracts-upgradeable/proxy/utils/Initializable.sol\":5064:5165  if (isTopLevelCall) {... */\n      iszero\n      tag_237\n      jumpi\n        /* \"@openzeppelin/contracts-upgradeable/proxy/utils/Initializable.sol\":5116:5121  false */\n      0x00\n        /* \"@openzeppelin/contracts-upgradeable/proxy/utils/Initializable.sol\":5098:5099  $ */\n      dup6\n        /* \"@openzeppelin/contracts-upgradeable/proxy/utils/Initializable.sol\":5098:5113  $._initializing */\n      0x00\n      add\n      0x08\n        /* \"@openzeppelin/contracts-upgradeable/proxy/utils/Initializable.sol\":5098:5121  $._initializing = false */\n      0x0100\n      exp\n      dup2\n      sload\n      dup2\n      0xff\n      mul\n      not\n      and\n      swap1\n      dup4\n      iszero\n      iszero\n      mul\n      or\n      swap1\n      sstore\n      pop\n        /* \"@openzeppelin/contracts-upgradeable/proxy/utils/Initializable.sol\":5140:5154  Initialized(1) */\n      0xc7f505b2f371ae2175ee4913f4499e1f2633a7b5936321eed1cdaeb6115181d2\n        /* \"@openzeppelin/contracts-upgradeable/proxy/utils/Initializable.sol\":5152:5153  1 */\n      0x01\n        /* \"@openzeppelin/contracts-upgradeable/proxy/utils/Initializable.sol\":5140:5154  Initialized(1) */\n      mload(0x40)\n      tag_238\n      swap2\n      swap1\n      tag_239\n      jump\t// in\n    tag_238:\n      mload(0x40)\n      dup1\n      swap2\n      sub\n      swap1\n      log1\n        /* \"@openzeppelin/contracts-upgradeable/proxy/utils/Initializable.sol\":5064:5165  if (isTopLevelCall) {... */\n    tag_237:\n        /* \"@openzeppelin/contracts-upgradeable/proxy/utils/Initializable.sol\":4092:5171  {... */\n      pop\n      pop\n      pop\n      pop\n      pop\n        /* \"leaderboard.sol\":2344:2665  function initialize(uint256 _maxEntries) public initializer {... */\n      pop\n      jump\t// out\n        /* \"@openzeppelin/contracts-upgradeable/access/OwnableUpgradeable.sol\":2658:2820  function _checkOwner() internal view virtual {... */\n    tag_111:\n        /* \"@openzeppelin/contracts-upgradeable/access/OwnableUpgradeable.sol\":2728:2740  _msgSender() */\n      tag_241\n        /* \"@openzeppelin/contracts-upgradeable/access/OwnableUpgradeable.sol\":2728:2738  _msgSender */\n      tag_242\n        /* \"@openzeppelin/contracts-upgradeable/access/OwnableUpgradeable.sol\":2728:2740  _msgSender() */\n      jump\t// in\n    tag_241:\n        /* \"@openzeppelin/contracts-upgradeable/access/OwnableUpgradeable.sol\":2717:2740  owner() != _msgSender() */\n      0xffffffffffffffffffffffffffffffffffffffff\n      and\n        /* \"@openzeppelin/contracts-upgradeable/access/OwnableUpgradeable.sol\":2717:2724  owner() */\n      tag_243\n        /* \"@openzeppelin/contracts-upgradeable/access/OwnableUpgradeable.sol\":2717:2722  owner */\n      tag_67\n        /* \"@openzeppelin/contracts-upgradeable/access/OwnableUpgradeable.sol\":2717:2724  owner() */\n      jump\t// in\n    tag_243:\n        /* \"@openzeppelin/contracts-upgradeable/access/OwnableUpgradeable.sol\":2717:2740  owner() != _msgSender() */\n      0xffffffffffffffffffffffffffffffffffffffff\n      and\n      eq\n        /* \"@openzeppelin/contracts-upgradeable/access/OwnableUpgradeable.sol\":2713:2814  if (owner() != _msgSender()) {... */\n      tag_244\n      jumpi\n        /* \"@openzeppelin/contracts-upgradeable/access/OwnableUpgradeable.sol\":2790:2802  _msgSender() */\n      tag_245\n        /* \"@openzeppelin/contracts-upgradeable/access/OwnableUpgradeable.sol\":2790:2800  _msgSender */\n      tag_242\n        /* \"@openzeppelin/contracts-upgradeable/access/OwnableUpgradeable.sol\":2790:2802  _msgSender() */\n      jump\t// in\n    tag_245:\n        /* \"@openzeppelin/contracts-upgradeable/access/OwnableUpgradeable.sol\":2763:2803  OwnableUnauthorizedAccount(_msgSender()) */\n      mload(0x40)\n      0x118cdaa700000000000000000000000000000000000000000000000000000000\n      dup2\n      mstore\n      0x04\n      add\n      tag_246\n      swap2\n      swap1\n      tag_69\n      jump\t// in\n    tag_246:\n      mload(0x40)\n      dup1\n      swap2\n      sub\n      swap1\n      revert\n        /* \"@openzeppelin/contracts-upgradeable/access/OwnableUpgradeable.sol\":2713:2814  if (owner() != _msgSender()) {... */\n    tag_244:\n        /* \"@openzeppelin/contracts-upgradeable/access/OwnableUpgradeable.sol\":2658:2820  function _checkOwner() internal view virtual {... */\n      jump\t// out\n        /* \"@openzeppelin/contracts-upgradeable/proxy/utils/UUPSUpgradeable.sol\":4578:4890  function _checkProxy() internal view virtual {... */\n    tag_133:\n        /* \"@openzeppelin/contracts-upgradeable/proxy/utils/UUPSUpgradeable.sol\":4667:4673  __self */\n      immutable(\"0x4ce4dab4689da140a0c12de1a6af6b8f679594aeb723205f513e052d27f5b26f\")\n        /* \"@openzeppelin/contracts-upgradeable/proxy/utils/UUPSUpgradeable.sol\":4650:4673  address(this) == __self */\n      0xffffffffffffffffffffffffffffffffffffffff\n      and\n        /* \"@openzeppelin/contracts-upgradeable/proxy/utils/UUPSUpgradeable.sol\":4658:4662  this */\n      address\n        /* \"@openzeppelin/contracts-upgradeable/proxy/utils/UUPSUpgradeable.sol\":4650:4673  address(this) == __self */\n      0xffffffffffffffffffffffffffffffffffffffff\n      and\n      eq\n        /* \"@openzeppelin/contracts-upgradeable/proxy/utils/UUPSUpgradeable.sol\":4650:4770  address(this) == __self || // Must be called through delegatecall... */\n      dup1\n      tag_248\n      jumpi\n      pop\n        /* \"@openzeppelin/contracts-upgradeable/proxy/utils/UUPSUpgradeable.sol\":4764:4770  __self */\n      immutable(\"0x4ce4dab4689da140a0c12de1a6af6b8f679594aeb723205f513e052d27f5b26f\")\n        /* \"@openzeppelin/contracts-upgradeable/proxy/utils/UUPSUpgradeable.sol\":4728:4770  ERC1967Utils.getImplementation() != __self */\n      0xffffffffffffffffffffffffffffffffffffffff\n      and\n        /* \"@openzeppelin/contracts-upgradeable/proxy/utils/UUPSUpgradeable.sol\":4728:4760  ERC1967Utils.getImplementation() */\n      tag_249\n        /* \"@openzeppelin/contracts-upgradeable/proxy/utils/UUPSUpgradeable.sol\":4728:4758  ERC1967Utils.getImplementation */\n      tag_250\n        /* \"@openzeppelin/contracts-upgradeable/proxy/utils/UUPSUpgradeable.sol\":4728:4760  ERC1967Utils.getImplementation() */\n      jump\t// in\n    tag_249:\n        /* \"@openzeppelin/contracts-upgradeable/proxy/utils/UUPSUpgradeable.sol\":4728:4770  ERC1967Utils.getImplementation() != __self */\n      0xffffffffffffffffffffffffffffffffffffffff\n      and\n      eq\n      iszero\n        /* \"@openzeppelin/contracts-upgradeable/proxy/utils/UUPSUpgradeable.sol\":4650:4770  address(this) == __self || // Must be called through delegatecall... */\n    tag_248:\n        /* \"@openzeppelin/contracts-upgradeable/proxy/utils/UUPSUpgradeable.sol\":4633:4884  if (... */\n      iszero\n      tag_251\n      jumpi\n        /* \"@openzeppelin/contracts-upgradeable/proxy/utils/UUPSUpgradeable.sol\":4844:4873  UUPSUnauthorizedCallContext() */\n      mload(0x40)\n      0xe07c8dba00000000000000000000000000000000000000000000000000000000\n      dup2\n      mstore\n      0x04\n      add\n      mload(0x40)\n      dup1\n      swap2\n      sub\n      swap1\n      revert\n        /* \"@openzeppelin/contracts-upgradeable/proxy/utils/UUPSUpgradeable.sol\":4633:4884  if (... */\n    tag_251:\n        /* \"@openzeppelin/contracts-upgradeable/proxy/utils/UUPSUpgradeable.sol\":4578:4890  function _checkProxy() internal view virtual {... */\n      jump\t// out\n        /* \"leaderboard.sol\":8322:8406  function _authorizeUpgrade(address newImplementation) internal override onlyOwner {} */\n    tag_136:\n        /* \"@openzeppelin/contracts-upgradeable/access/OwnableUpgradeable.sol\":2334:2347  _checkOwner() */\n      tag_253\n        /* \"@openzeppelin/contracts-upgradeable/access/OwnableUpgradeable.sol\":2334:2345  _checkOwner */\n      tag_111\n        /* \"@openzeppelin/contracts-upgradeable/access/OwnableUpgradeable.sol\":2334:2347  _checkOwner() */\n      jump\t// in\n    tag_253:\n        /* \"leaderboard.sol\":8322:8406  function _authorizeUpgrade(address newImplementation) internal override onlyOwner {} */\n      pop\n      jump\t// out\n        /* \"@openzeppelin/contracts-upgradeable/proxy/utils/UUPSUpgradeable.sol\":6032:6570  function _upgradeToAndCallUUPS(address newImplementation, bytes memory data) private {... */\n    tag_138:\n        /* \"@openzeppelin/contracts-upgradeable/proxy/utils/UUPSUpgradeable.sol\":6149:6166  newImplementation */\n      dup2\n        /* \"@openzeppelin/contracts-upgradeable/proxy/utils/UUPSUpgradeable.sol\":6131:6181  IERC1822Proxiable(newImplementation).proxiableUUID */\n      0xffffffffffffffffffffffffffffffffffffffff\n      and\n      0x52d1902d\n        /* \"@openzeppelin/contracts-upgradeable/proxy/utils/UUPSUpgradeable.sol\":6131:6183  IERC1822Proxiable(newImplementation).proxiableUUID() */\n      mload(0x40)\n      dup2\n      0xffffffff\n      and\n      0xe0\n      shl\n      dup2\n      mstore\n      0x04\n      add\n      0x20\n      mload(0x40)\n      dup1\n      dup4\n      sub\n      dup2\n      dup7\n      gas\n      staticcall\n      swap3\n      pop\n      pop\n      pop\n      dup1\n      iszero\n      tag_256\n      jumpi\n      pop\n      mload(0x40)\n      returndatasize\n      not(0x1f)\n      0x1f\n      dup3\n      add\n      and\n      dup3\n      add\n      dup1\n      0x40\n      mstore\n      pop\n      dup2\n      add\n      swap1\n      tag_257\n      swap2\n      swap1\n      tag_258\n      jump\t// in\n    tag_257:\n      0x01\n    tag_256:\n        /* \"@openzeppelin/contracts-upgradeable/proxy/utils/UUPSUpgradeable.sol\":6127:6564  try IERC1822Proxiable(newImplementation).proxiableUUID() returns (bytes32 slot) {... */\n      tag_259\n      jumpi\n        /* \"@openzeppelin/contracts-upgradeable/proxy/utils/UUPSUpgradeable.sol\":6535:6552  newImplementation */\n      dup2\n        /* \"@openzeppelin/contracts-upgradeable/proxy/utils/UUPSUpgradeable.sol\":6493:6553  ERC1967Utils.ERC1967InvalidImplementation(newImplementation) */\n      mload(0x40)\n      0x4c9c8ce300000000000000000000000000000000000000000000000000000000\n      dup2\n      mstore\n      0x04\n      add\n      tag_263\n      swap2\n      swap1\n      tag_69\n      jump\t// in\n    tag_263:\n      mload(0x40)\n      dup1\n      swap2\n      sub\n      swap1\n      revert\n        /* \"@openzeppelin/contracts-upgradeable/proxy/utils/UUPSUpgradeable.sol\":6127:6564  try IERC1822Proxiable(newImplementation).proxiableUUID() returns (bytes32 slot) {... */\n    tag_259:\n        /* \"@openzeppelin/contracts/proxy/ERC1967/ERC1967Utils.sol\":811:877  0x360894a13ba1a3210667c828492db98dca3e2076cc3735a920a3ca505d382bbc */\n      0x360894a13ba1a3210667c828492db98dca3e2076cc3735a920a3ca505d382bbc\n        /* \"@openzeppelin/contracts-upgradeable/proxy/utils/UUPSUpgradeable.sol\":6233:6265  ERC1967Utils.IMPLEMENTATION_SLOT */\n      0x00\n      shl\n        /* \"@openzeppelin/contracts-upgradeable/proxy/utils/UUPSUpgradeable.sol\":6225:6229  slot */\n      dup2\n        /* \"@openzeppelin/contracts-upgradeable/proxy/utils/UUPSUpgradeable.sol\":6225:6265  slot != ERC1967Utils.IMPLEMENTATION_SLOT */\n      eq\n        /* \"@openzeppelin/contracts-upgradeable/proxy/utils/UUPSUpgradeable.sol\":6221:6341  if (slot != ERC1967Utils.IMPLEMENTATION_SLOT) {... */\n      tag_265\n      jumpi\n        /* \"@openzeppelin/contracts-upgradeable/proxy/utils/UUPSUpgradeable.sol\":6321:6325  slot */\n      dup1\n        /* \"@openzeppelin/contracts-upgradeable/proxy/utils/UUPSUpgradeable.sol\":6292:6326  UUPSUnsupportedProxiableUUID(slot) */\n      mload(0x40)\n      0xaa1d49a400000000000000000000000000000000000000000000000000000000\n      dup2\n      mstore\n      0x04\n      add\n      tag_266\n      swap2\n      swap1\n      tag_43\n      jump\t// in\n    tag_266:\n      mload(0x40)\n      dup1\n      swap2\n      sub\n      swap1\n      revert\n        /* \"@openzeppelin/contracts-upgradeable/proxy/utils/UUPSUpgradeable.sol\":6221:6341  if (slot != ERC1967Utils.IMPLEMENTATION_SLOT) {... */\n    tag_265:\n        /* \"@openzeppelin/contracts-upgradeable/proxy/utils/UUPSUpgradeable.sol\":6354:6408  ERC1967Utils.upgradeToAndCall(newImplementation, data) */\n      tag_267\n        /* \"@openzeppelin/contracts-upgradeable/proxy/utils/UUPSUpgradeable.sol\":6384:6401  newImplementation */\n      dup4\n        /* \"@openzeppelin/contracts-upgradeable/proxy/utils/UUPSUpgradeable.sol\":6403:6407  data */\n      dup4\n        /* \"@openzeppelin/contracts-upgradeable/proxy/utils/UUPSUpgradeable.sol\":6354:6383  ERC1967Utils.upgradeToAndCall */\n      tag_268\n        /* \"@openzeppelin/contracts-upgradeable/proxy/utils/UUPSUpgradeable.sol\":6354:6408  ERC1967Utils.upgradeToAndCall(newImplementation, data) */\n      jump\t// in\n    tag_267:\n        /* \"@openzeppelin/contracts-upgradeable/proxy/utils/UUPSUpgradeable.sol\":6184:6419  returns (bytes32 slot) {... */\n      pop\n        /* \"@openzeppelin/contracts-upgradeable/proxy/utils/UUPSUpgradeable.sol\":6032:6570  function _upgradeToAndCallUUPS(address newImplementation, bytes memory data) private {... */\n      pop\n      pop\n      jump\t// out\n        /* \"@openzeppelin/contracts-upgradeable/proxy/utils/UUPSUpgradeable.sol\":5007:5220  function _checkNotDelegated() internal view virtual {... */\n    tag_141:\n        /* \"@openzeppelin/contracts-upgradeable/proxy/utils/UUPSUpgradeable.sol\":5090:5096  __self */\n      immutable(\"0x4ce4dab4689da140a0c12de1a6af6b8f679594aeb723205f513e052d27f5b26f\")\n        /* \"@openzeppelin/contracts-upgradeable/proxy/utils/UUPSUpgradeable.sol\":5073:5096  address(this) != __self */\n      0xffffffffffffffffffffffffffffffffffffffff\n      and\n        /* \"@openzeppelin/contracts-upgradeable/proxy/utils/UUPSUpgradeable.sol\":5081:5085  this */\n      address\n        /* \"@openzeppelin/contracts-upgradeable/proxy/utils/UUPSUpgradeable.sol\":5073:5096  address(this) != __self */\n      0xffffffffffffffffffffffffffffffffffffffff\n      and\n      eq\n        /* \"@openzeppelin/contracts-upgradeable/proxy/utils/UUPSUpgradeable.sol\":5069:5214  if (address(this) != __self) {... */\n      tag_270\n      jumpi\n        /* \"@openzeppelin/contracts-upgradeable/proxy/utils/UUPSUpgradeable.sol\":5174:5203  UUPSUnauthorizedCallContext() */\n      mload(0x40)\n      0xe07c8dba00000000000000000000000000000000000000000000000000000000\n      dup2\n      mstore\n      0x04\n      add\n      mload(0x40)\n      dup1\n      swap2\n      sub\n      swap1\n      revert\n        /* \"@openzeppelin/contracts-upgradeable/proxy/utils/UUPSUpgradeable.sol\":5069:5214  if (address(this) != __self) {... */\n    tag_270:\n        /* \"@openzeppelin/contracts-upgradeable/proxy/utils/UUPSUpgradeable.sol\":5007:5220  function _checkNotDelegated() internal view virtual {... */\n      jump\t// out\n        /* \"@openzeppelin/contracts-upgradeable/security/PausableUpgradeable.sol\":2031:2137  function _requireNotPaused() internal view virtual {... */\n    tag_146:\n        /* \"@openzeppelin/contracts-upgradeable/security/PausableUpgradeable.sol\":2101:2109  paused() */\n      tag_272\n        /* \"@openzeppelin/contracts-upgradeable/security/PausableUpgradeable.sol\":2101:2107  paused */\n      tag_46\n        /* \"@openzeppelin/contracts-upgradeable/security/PausableUpgradeable.sol\":2101:2109  paused() */\n      jump\t// in\n    tag_272:\n        /* \"@openzeppelin/contracts-upgradeable/security/PausableUpgradeable.sol\":2100:2109  !paused() */\n      iszero\n        /* \"@openzeppelin/contracts-upgradeable/security/PausableUpgradeable.sol\":2092:2130  require(!paused(), \"Pausable: paused\") */\n      tag_273\n      jumpi\n      mload(0x40)\n      0x08c379a000000000000000000000000000000000000000000000000000000000\n      dup2\n      mstore\n      0x04\n      add\n      tag_274\n      swap1\n      tag_275\n      jump\t// in\n    tag_274:\n      mload(0x40)\n      dup1\n      swap2\n      sub\n      swap1\n      revert\n    tag_273:\n        /* \"@openzeppelin/contracts-upgradeable/security/PausableUpgradeable.sol\":2031:2137  function _requireNotPaused() internal view virtual {... */\n      jump\t// out\n        /* \"@openzeppelin/contracts-upgradeable/security/ReentrancyGuardUpgradeable.sol\":2601:2888  function _nonReentrantBefore() private {... */\n    tag_155:\n        /* \"@openzeppelin/contracts-upgradeable/security/ReentrancyGuardUpgradeable.sol\":1851:1852  2 */\n      0x02\n        /* \"@openzeppelin/contracts-upgradeable/security/ReentrancyGuardUpgradeable.sol\":2733:2740  _status */\n      sload(0x32)\n        /* \"@openzeppelin/contracts-upgradeable/security/ReentrancyGuardUpgradeable.sol\":2733:2752  _status != _ENTERED */\n      sub\n        /* \"@openzeppelin/contracts-upgradeable/security/ReentrancyGuardUpgradeable.sol\":2725:2788  require(_status != _ENTERED, \"ReentrancyGuard: reentrant call\") */\n      tag_277\n      jumpi\n      mload(0x40)\n      0x08c379a000000000000000000000000000000000000000000000000000000000\n      dup2\n      mstore\n      0x04\n      add\n      tag_278\n      swap1\n      tag_279\n      jump\t// in\n    tag_278:\n      mload(0x40)\n      dup1\n      swap2\n      sub\n      swap1\n      revert\n    tag_277:\n        /* \"@openzeppelin/contracts-upgradeable/security/ReentrancyGuardUpgradeable.sol\":1851:1852  2 */\n      0x02\n        /* \"@openzeppelin/contracts-upgradeable/security/ReentrancyGuardUpgradeable.sol\":2863:2870  _status */\n      0x32\n        /* \"@openzeppelin/contracts-upgradeable/security/ReentrancyGuardUpgradeable.sol\":2863:2881  _status = _ENTERED */\n      dup2\n      swap1\n      sstore\n      pop\n        /* \"@openzeppelin/contracts-upgradeable/security/ReentrancyGuardUpgradeable.sol\":2601:2888  function _nonReentrantBefore() private {... */\n      jump\t// out\n        /* \"leaderboard.sol\":3989:5299  function _insertOrUpdateTop(address player, uint256 newScore) internal {... */\n    tag_161:\n        /* \"leaderboard.sol\":4070:4088  uint256 idxPlusOne */\n      0x00\n        /* \"leaderboard.sol\":4091:4099  topIndex */\n      0x67\n        /* \"leaderboard.sol\":4091:4107  topIndex[player] */\n      0x00\n        /* \"leaderboard.sol\":4100:4106  player */\n      dup5\n        /* \"leaderboard.sol\":4091:4107  topIndex[player] */\n      0xffffffffffffffffffffffffffffffffffffffff\n      and\n      0xffffffffffffffffffffffffffffffffffffffff\n      and\n      dup2\n      mstore\n      0x20\n      add\n      swap1\n      dup2\n      mstore\n      0x20\n      add\n      0x00\n      keccak256\n      sload\n        /* \"leaderboard.sol\":4070:4107  uint256 idxPlusOne = topIndex[player] */\n      swap1\n      pop\n        /* \"leaderboard.sol\":4135:4136  0 */\n      0x00\n        /* \"leaderboard.sol\":4121:4131  idxPlusOne */\n      dup2\n        /* \"leaderboard.sol\":4121:4136  idxPlusOne != 0 */\n      eq\n        /* \"leaderboard.sol\":4117:5293  if (idxPlusOne != 0) {... */\n      tag_281\n      jumpi\n        /* \"leaderboard.sol\":4182:4193  uint256 idx */\n      0x00\n        /* \"leaderboard.sol\":4209:4210  1 */\n      0x01\n        /* \"leaderboard.sol\":4196:4206  idxPlusOne */\n      dup3\n        /* \"leaderboard.sol\":4196:4210  idxPlusOne - 1 */\n      tag_282\n      swap2\n      swap1\n      tag_121\n      jump\t// in\n    tag_282:\n        /* \"leaderboard.sol\":4182:4210  uint256 idx = idxPlusOne - 1 */\n      swap1\n      pop\n        /* \"leaderboard.sol\":4248:4256  newScore */\n      dup3\n        /* \"leaderboard.sol\":4224:4234  topPlayers */\n      0x65\n        /* \"leaderboard.sol\":4235:4238  idx */\n      dup3\n        /* \"leaderboard.sol\":4224:4239  topPlayers[idx] */\n      dup2\n      sload\n      dup2\n      lt\n      tag_283\n      jumpi\n      tag_284\n      tag_124\n      jump\t// in\n    tag_284:\n    tag_283:\n      swap1\n      0x00\n      mstore\n      keccak256(0x00, 0x20)\n      swap1\n      0x02\n      mul\n      add\n        /* \"leaderboard.sol\":4224:4245  topPlayers[idx].score */\n      0x01\n      add\n        /* \"leaderboard.sol\":4224:4256  topPlayers[idx].score = newScore */\n      dup2\n      swap1\n      sstore\n      pop\n        /* \"leaderboard.sol\":4270:4284  _bubbleUp(idx) */\n      tag_286\n        /* \"leaderboard.sol\":4280:4283  idx */\n      dup2\n        /* \"leaderboard.sol\":4270:4279  _bubbleUp */\n      tag_287\n        /* \"leaderboard.sol\":4270:4284  _bubbleUp(idx) */\n      jump\t// in\n    tag_286:\n        /* \"leaderboard.sol\":4298:4314  _bubbleDown(idx) */\n      tag_288\n        /* \"leaderboard.sol\":4310:4313  idx */\n      dup2\n        /* \"leaderboard.sol\":4298:4309  _bubbleDown */\n      tag_289\n        /* \"leaderboard.sol\":4298:4314  _bubbleDown(idx) */\n      jump\t// in\n    tag_288:\n        /* \"leaderboard.sol\":4138:4325  {... */\n      pop\n        /* \"leaderboard.sol\":4117:5293  if (idxPlusOne != 0) {... */\n      jump(tag_290)\n    tag_281:\n        /* \"leaderboard.sol\":4396:4406  maxEntries */\n      sload(0x66)\n        /* \"leaderboard.sol\":4376:4386  topPlayers */\n      0x65\n        /* \"leaderboard.sol\":4376:4393  topPlayers.length */\n      dup1\n      sload\n      swap1\n      pop\n        /* \"leaderboard.sol\":4376:4406  topPlayers.length < maxEntries */\n      lt\n        /* \"leaderboard.sol\":4372:5283  if (topPlayers.length < maxEntries) {... */\n      iszero\n      tag_291\n      jumpi\n        /* \"leaderboard.sol\":4426:4436  topPlayers */\n      0x65\n        /* \"leaderboard.sol\":4442:4484  Entry({ player: player, score: newScore }) */\n      mload(0x40)\n      dup1\n      0x40\n      add\n      0x40\n      mstore\n      dup1\n        /* \"leaderboard.sol\":4458:4464  player */\n      dup6\n        /* \"leaderboard.sol\":4442:4484  Entry({ player: player, score: newScore }) */\n      0xffffffffffffffffffffffffffffffffffffffff\n      and\n      dup2\n      mstore\n      0x20\n      add\n        /* \"leaderboard.sol\":4473:4481  newScore */\n      dup5\n        /* \"leaderboard.sol\":4442:4484  Entry({ player: player, score: newScore }) */\n      dup2\n      mstore\n      pop\n        /* \"leaderboard.sol\":4426:4485  topPlayers.push(Entry({ player: player, score: newScore })) */\n      swap1\n      dup1\n      0x01\n      dup2\n      sload\n      add\n      dup1\n      dup3\n      sstore\n      dup1\n      swap2\n      pop\n      pop\n      0x01\n      swap1\n      sub\n      swap1\n      0x00\n      mstore\n      keccak256(0x00, 0x20)\n      swap1\n      0x02\n      mul\n      add\n      0x00\n      swap1\n      swap2\n      swap1\n      swap2\n      swap1\n      swap2\n      pop\n      0x00\n      dup3\n      add\n      mload\n      dup2\n      0x00\n      add\n      exp(0x0100, 0x00)\n      dup2\n      sload\n      dup2\n      0xffffffffffffffffffffffffffffffffffffffff\n      mul\n      not\n      and\n      swap1\n      dup4\n      0xffffffffffffffffffffffffffffffffffffffff\n      and\n      mul\n      or\n      swap1\n      sstore\n      pop\n      0x20\n      dup3\n      add\n      mload\n      dup2\n      0x01\n      add\n      sstore\n      pop\n      pop\n        /* \"leaderboard.sol\":4503:4517  uint256 newIdx */\n      0x00\n        /* \"leaderboard.sol\":4540:4541  1 */\n      0x01\n        /* \"leaderboard.sol\":4520:4530  topPlayers */\n      0x65\n        /* \"leaderboard.sol\":4520:4537  topPlayers.length */\n      dup1\n      sload\n      swap1\n      pop\n        /* \"leaderboard.sol\":4520:4541  topPlayers.length - 1 */\n      tag_293\n      swap2\n      swap1\n      tag_121\n      jump\t// in\n    tag_293:\n        /* \"leaderboard.sol\":4503:4541  uint256 newIdx = topPlayers.length - 1 */\n      swap1\n      pop\n        /* \"leaderboard.sol\":4587:4588  1 */\n      0x01\n        /* \"leaderboard.sol\":4578:4584  newIdx */\n      dup2\n        /* \"leaderboard.sol\":4578:4588  newIdx + 1 */\n      tag_294\n      swap2\n      swap1\n      tag_295\n      jump\t// in\n    tag_294:\n        /* \"leaderboard.sol\":4559:4567  topIndex */\n      0x67\n        /* \"leaderboard.sol\":4559:4575  topIndex[player] */\n      0x00\n        /* \"leaderboard.sol\":4568:4574  player */\n      dup7\n        /* \"leaderboard.sol\":4559:4575  topIndex[player] */\n      0xffffffffffffffffffffffffffffffffffffffff\n      and\n      0xffffffffffffffffffffffffffffffffffffffff\n      and\n      dup2\n      mstore\n      0x20\n      add\n      swap1\n      dup2\n      mstore\n      0x20\n      add\n      0x00\n      keccak256\n        /* \"leaderboard.sol\":4559:4588  topIndex[player] = newIdx + 1 */\n      dup2\n      swap1\n      sstore\n      pop\n        /* \"leaderboard.sol\":4606:4623  _bubbleUp(newIdx) */\n      tag_296\n        /* \"leaderboard.sol\":4616:4622  newIdx */\n      dup2\n        /* \"leaderboard.sol\":4606:4615  _bubbleUp */\n      tag_287\n        /* \"leaderboard.sol\":4606:4623  _bubbleUp(newIdx) */\n      jump\t// in\n    tag_296:\n        /* \"leaderboard.sol\":4408:4638  {... */\n      pop\n        /* \"leaderboard.sol\":4372:5283  if (topPlayers.length < maxEntries) {... */\n      jump(tag_297)\n    tag_291:\n        /* \"leaderboard.sol\":4730:4747  uint256 lastIndex */\n      0x00\n        /* \"leaderboard.sol\":4770:4771  1 */\n      0x01\n        /* \"leaderboard.sol\":4750:4760  topPlayers */\n      0x65\n        /* \"leaderboard.sol\":4750:4767  topPlayers.length */\n      dup1\n      sload\n      swap1\n      pop\n        /* \"leaderboard.sol\":4750:4771  topPlayers.length - 1 */\n      tag_298\n      swap2\n      swap1\n      tag_121\n      jump\t// in\n    tag_298:\n        /* \"leaderboard.sol\":4730:4771  uint256 lastIndex = topPlayers.length - 1 */\n      swap1\n      pop\n        /* \"leaderboard.sol\":4805:4815  topPlayers */\n      0x65\n        /* \"leaderboard.sol\":4816:4825  lastIndex */\n      dup2\n        /* \"leaderboard.sol\":4805:4826  topPlayers[lastIndex] */\n      dup2\n      sload\n      dup2\n      lt\n      tag_299\n      jumpi\n      tag_300\n      tag_124\n      jump\t// in\n    tag_300:\n    tag_299:\n      swap1\n      0x00\n      mstore\n      keccak256(0x00, 0x20)\n      swap1\n      0x02\n      mul\n      add\n        /* \"leaderboard.sol\":4805:4832  topPlayers[lastIndex].score */\n      0x01\n      add\n      sload\n        /* \"leaderboard.sol\":4793:4801  newScore */\n      dup4\n        /* \"leaderboard.sol\":4793:4832  newScore <= topPlayers[lastIndex].score */\n      gt\n        /* \"leaderboard.sol\":4789:4894  if (newScore <= topPlayers[lastIndex].score) {... */\n      tag_302\n      jumpi\n        /* \"leaderboard.sol\":4856:4863  return; */\n      pop\n      pop\n      jump(tag_280)\n        /* \"leaderboard.sol\":4789:4894  if (newScore <= topPlayers[lastIndex].score) {... */\n    tag_302:\n        /* \"leaderboard.sol\":4964:4979  address removed */\n      0x00\n        /* \"leaderboard.sol\":4982:4992  topPlayers */\n      0x65\n        /* \"leaderboard.sol\":4993:5002  lastIndex */\n      dup3\n        /* \"leaderboard.sol\":4982:5003  topPlayers[lastIndex] */\n      dup2\n      sload\n      dup2\n      lt\n      tag_303\n      jumpi\n      tag_304\n      tag_124\n      jump\t// in\n    tag_304:\n    tag_303:\n      swap1\n      0x00\n      mstore\n      keccak256(0x00, 0x20)\n      swap1\n      0x02\n      mul\n      add\n        /* \"leaderboard.sol\":4982:5010  topPlayers[lastIndex].player */\n      0x00\n      add\n      0x00\n      swap1\n      sload\n      swap1\n      0x0100\n      exp\n      swap1\n      div\n      0xffffffffffffffffffffffffffffffffffffffff\n      and\n        /* \"leaderboard.sol\":4964:5010  address removed = topPlayers[lastIndex].player */\n      swap1\n      pop\n        /* \"leaderboard.sol\":5048:5049  0 */\n      0x00\n        /* \"leaderboard.sol\":5028:5036  topIndex */\n      0x67\n        /* \"leaderboard.sol\":5028:5045  topIndex[removed] */\n      0x00\n        /* \"leaderboard.sol\":5037:5044  removed */\n      dup4\n        /* \"leaderboard.sol\":5028:5045  topIndex[removed] */\n      0xffffffffffffffffffffffffffffffffffffffff\n      and\n      0xffffffffffffffffffffffffffffffffffffffff\n      and\n      dup2\n      mstore\n      0x20\n      add\n      swap1\n      dup2\n      mstore\n      0x20\n      add\n      0x00\n      keccak256\n        /* \"leaderboard.sol\":5028:5049  topIndex[removed] = 0 */\n      dup2\n      swap1\n      sstore\n      pop\n        /* \"leaderboard.sol\":5138:5180  Entry({ player: player, score: newScore }) */\n      mload(0x40)\n      dup1\n      0x40\n      add\n      0x40\n      mstore\n      dup1\n        /* \"leaderboard.sol\":5154:5160  player */\n      dup7\n        /* \"leaderboard.sol\":5138:5180  Entry({ player: player, score: newScore }) */\n      0xffffffffffffffffffffffffffffffffffffffff\n      and\n      dup2\n      mstore\n      0x20\n      add\n        /* \"leaderboard.sol\":5169:5177  newScore */\n      dup6\n        /* \"leaderboard.sol\":5138:5180  Entry({ player: player, score: newScore }) */\n      dup2\n      mstore\n      pop\n        /* \"leaderboard.sol\":5114:5124  topPlayers */\n      0x65\n        /* \"leaderboard.sol\":5125:5134  lastIndex */\n      dup4\n        /* \"leaderboard.sol\":5114:5135  topPlayers[lastIndex] */\n      dup2\n      sload\n      dup2\n      lt\n      tag_306\n      jumpi\n      tag_307\n      tag_124\n      jump\t// in\n    tag_307:\n    tag_306:\n      swap1\n      0x00\n      mstore\n      keccak256(0x00, 0x20)\n      swap1\n      0x02\n      mul\n      add\n        /* \"leaderboard.sol\":5114:5180  topPlayers[lastIndex] = Entry({ player: player, score: newScore }) */\n      0x00\n      dup3\n      add\n      mload\n      dup2\n      0x00\n      add\n      exp(0x0100, 0x00)\n      dup2\n      sload\n      dup2\n      0xffffffffffffffffffffffffffffffffffffffff\n      mul\n      not\n      and\n      swap1\n      dup4\n      0xffffffffffffffffffffffffffffffffffffffff\n      and\n      mul\n      or\n      swap1\n      sstore\n      pop\n      0x20\n      dup3\n      add\n      mload\n      dup2\n      0x01\n      add\n      sstore\n      swap1\n      pop\n      pop\n        /* \"leaderboard.sol\":5229:5230  1 */\n      0x01\n        /* \"leaderboard.sol\":5217:5226  lastIndex */\n      dup3\n        /* \"leaderboard.sol\":5217:5230  lastIndex + 1 */\n      tag_309\n      swap2\n      swap1\n      tag_295\n      jump\t// in\n    tag_309:\n        /* \"leaderboard.sol\":5198:5206  topIndex */\n      0x67\n        /* \"leaderboard.sol\":5198:5214  topIndex[player] */\n      0x00\n        /* \"leaderboard.sol\":5207:5213  player */\n      dup8\n        /* \"leaderboard.sol\":5198:5214  topIndex[player] */\n      0xffffffffffffffffffffffffffffffffffffffff\n      and\n      0xffffffffffffffffffffffffffffffffffffffff\n      and\n      dup2\n      mstore\n      0x20\n      add\n      swap1\n      dup2\n      mstore\n      0x20\n      add\n      0x00\n      keccak256\n        /* \"leaderboard.sol\":5198:5230  topIndex[player] = lastIndex + 1 */\n      dup2\n      swap1\n      sstore\n      pop\n        /* \"leaderboard.sol\":5248:5268  _bubbleUp(lastIndex) */\n      tag_310\n        /* \"leaderboard.sol\":5258:5267  lastIndex */\n      dup3\n        /* \"leaderboard.sol\":5248:5257  _bubbleUp */\n      tag_287\n        /* \"leaderboard.sol\":5248:5268  _bubbleUp(lastIndex) */\n      jump\t// in\n    tag_310:\n        /* \"leaderboard.sol\":4644:5283  {... */\n      pop\n      pop\n        /* \"leaderboard.sol\":4372:5283  if (topPlayers.length < maxEntries) {... */\n    tag_297:\n        /* \"leaderboard.sol\":4117:5293  if (idxPlusOne != 0) {... */\n    tag_290:\n        /* \"leaderboard.sol\":4060:5299  {... */\n      pop\n        /* \"leaderboard.sol\":3989:5299  function _insertOrUpdateTop(address player, uint256 newScore) internal {... */\n    tag_280:\n      pop\n      pop\n      jump\t// out\n        /* \"@openzeppelin/contracts-upgradeable/security/ReentrancyGuardUpgradeable.sol\":2894:3103  function _nonReentrantAfter() private {... */\n    tag_164:\n        /* \"@openzeppelin/contracts-upgradeable/security/ReentrancyGuardUpgradeable.sol\":1808:1809  1 */\n      0x01\n        /* \"@openzeppelin/contracts-upgradeable/security/ReentrancyGuardUpgradeable.sol\":3074:3081  _status */\n      0x32\n        /* \"@openzeppelin/contracts-upgradeable/security/ReentrancyGuardUpgradeable.sol\":3074:3096  _status = _NOT_ENTERED */\n      dup2\n      swap1\n      sstore\n      pop\n        /* \"@openzeppelin/contracts-upgradeable/security/ReentrancyGuardUpgradeable.sol\":2894:3103  function _nonReentrantAfter() private {... */\n      jump\t// out\n        /* \"@openzeppelin/contracts-upgradeable/access/OwnableUpgradeable.sol\":3774:4022  function _transferOwnership(address newOwner) internal virtual {... */\n    tag_180:\n        /* \"@openzeppelin/contracts-upgradeable/access/OwnableUpgradeable.sol\":3847:3871  OwnableStorage storage $ */\n      0x00\n        /* \"@openzeppelin/contracts-upgradeable/access/OwnableUpgradeable.sol\":3874:3894  _getOwnableStorage() */\n      tag_313\n        /* \"@openzeppelin/contracts-upgradeable/access/OwnableUpgradeable.sol\":3874:3892  _getOwnableStorage */\n      tag_183\n        /* \"@openzeppelin/contracts-upgradeable/access/OwnableUpgradeable.sol\":3874:3894  _getOwnableStorage() */\n      jump\t// in\n    tag_313:\n        /* \"@openzeppelin/contracts-upgradeable/access/OwnableUpgradeable.sol\":3847:3894  OwnableStorage storage $ = _getOwnableStorage() */\n      swap1\n      pop\n        /* \"@openzeppelin/contracts-upgradeable/access/OwnableUpgradeable.sol\":3904:3920  address oldOwner */\n      0x00\n        /* \"@openzeppelin/contracts-upgradeable/access/OwnableUpgradeable.sol\":3923:3924  $ */\n      dup2\n        /* \"@openzeppelin/contracts-upgradeable/access/OwnableUpgradeable.sol\":3923:3931  $._owner */\n      0x00\n      add\n      0x00\n      swap1\n      sload\n      swap1\n      0x0100\n      exp\n      swap1\n      div\n      0xffffffffffffffffffffffffffffffffffffffff\n      and\n        /* \"@openzeppelin/contracts-upgradeable/access/OwnableUpgradeable.sol\":3904:3931  address oldOwner = $._owner */\n      swap1\n      pop\n        /* \"@openzeppelin/contracts-upgradeable/access/OwnableUpgradeable.sol\":3952:3960  newOwner */\n      dup3\n        /* \"@openzeppelin/contracts-upgradeable/access/OwnableUpgradeable.sol\":3941:3942  $ */\n      dup3\n        /* \"@openzeppelin/contracts-upgradeable/access/OwnableUpgradeable.sol\":3941:3949  $._owner */\n      0x00\n      add\n      0x00\n        /* \"@openzeppelin/contracts-upgradeable/access/OwnableUpgradeable.sol\":3941:3960  $._owner = newOwner */\n      0x0100\n      exp\n      dup2\n      sload\n      dup2\n      0xffffffffffffffffffffffffffffffffffffffff\n      mul\n      not\n      and\n      swap1\n      dup4\n      0xffffffffffffffffffffffffffffffffffffffff\n      and\n      mul\n      or\n      swap1\n      sstore\n      pop\n        /* \"@openzeppelin/contracts-upgradeable/access/OwnableUpgradeable.sol\":4006:4014  newOwner */\n      dup3\n        /* \"@openzeppelin/contracts-upgradeable/access/OwnableUpgradeable.sol\":3975:4015  OwnershipTransferred(oldOwner, newOwner) */\n      0xffffffffffffffffffffffffffffffffffffffff\n      and\n        /* \"@openzeppelin/contracts-upgradeable/access/OwnableUpgradeable.sol\":3996:4004  oldOwner */\n      dup2\n        /* \"@openzeppelin/contracts-upgradeable/access/OwnableUpgradeable.sol\":3975:4015  OwnershipTransferred(oldOwner, newOwner) */\n      0xffffffffffffffffffffffffffffffffffffffff\n      and\n      0x8be0079c531659141344cd1fd0a4f28419497f9722a3daafe3b4186f6b6457e0\n      mload(0x40)\n      mload(0x40)\n      dup1\n      swap2\n      sub\n      swap1\n      log3\n        /* \"@openzeppelin/contracts-upgradeable/access/OwnableUpgradeable.sol\":3837:4022  {... */\n      pop\n      pop\n        /* \"@openzeppelin/contracts-upgradeable/access/OwnableUpgradeable.sol\":3774:4022  function _transferOwnership(address newOwner) internal virtual {... */\n      pop\n      jump\t// out\n        /* \"@openzeppelin/contracts-upgradeable/access/OwnableUpgradeable.sol\":1192:1351  function _getOwnableStorage() private pure returns (OwnableStorage storage $) {... */\n    tag_183:\n        /* \"@openzeppelin/contracts-upgradeable/access/OwnableUpgradeable.sol\":1244:1268  OwnableStorage storage $ */\n      0x00\n        /* \"@openzeppelin/contracts-upgradeable/access/OwnableUpgradeable.sol\":1313:1335  OwnableStorageLocation */\n      0x9016d09d72d40fdae2fd8ceac6b6234c7706214fd39c1cd1e609a0528c199300\n        /* \"@openzeppelin/contracts-upgradeable/access/OwnableUpgradeable.sol\":1303:1335  $.slot := OwnableStorageLocation */\n      swap1\n      pop\n        /* \"@openzeppelin/contracts-upgradeable/access/OwnableUpgradeable.sol\":1192:1351  function _getOwnableStorage() private pure returns (OwnableStorage storage $) {... */\n      swap1\n      jump\t// out\n        /* \"@openzeppelin/contracts-upgradeable/proxy/utils/Initializable.sol\":9071:9276  function _getInitializableStorage() private pure returns (InitializableStorage storage $) {... */\n    tag_218:\n        /* \"@openzeppelin/contracts-upgradeable/proxy/utils/Initializable.sol\":9129:9159  InitializableStorage storage $ */\n      0x00\n        /* \"@openzeppelin/contracts-upgradeable/proxy/utils/Initializable.sol\":9171:9183  bytes32 slot */\n      0x00\n        /* \"@openzeppelin/contracts-upgradeable/proxy/utils/Initializable.sol\":9186:9213  _initializableStorageSlot() */\n      tag_316\n        /* \"@openzeppelin/contracts-upgradeable/proxy/utils/Initializable.sol\":9186:9211  _initializableStorageSlot */\n      tag_317\n        /* \"@openzeppelin/contracts-upgradeable/proxy/utils/Initializable.sol\":9186:9213  _initializableStorageSlot() */\n      jump\t// in\n    tag_316:\n        /* \"@openzeppelin/contracts-upgradeable/proxy/utils/Initializable.sol\":9171:9213  bytes32 slot = _initializableStorageSlot() */\n      swap1\n      pop\n        /* \"@openzeppelin/contracts-upgradeable/proxy/utils/Initializable.sol\":9256:9260  slot */\n      dup1\n        /* \"@openzeppelin/contracts-upgradeable/proxy/utils/Initializable.sol\":9246:9260  $.slot := slot */\n      swap2\n      pop\n        /* \"@openzeppelin/contracts-upgradeable/proxy/utils/Initializable.sol\":9232:9270  {... */\n      pop\n        /* \"@openzeppelin/contracts-upgradeable/proxy/utils/Initializable.sol\":9071:9276  function _getInitializableStorage() private pure returns (InitializableStorage storage $) {... */\n      swap1\n      jump\t// out\n        /* \"@openzeppelin/contracts-upgradeable/access/OwnableUpgradeable.sol\":1847:1974  function __Ownable_init(address initialOwner) internal onlyInitializing {... */\n    tag_230:\n        /* \"@openzeppelin/contracts-upgradeable/proxy/utils/Initializable.sol\":6929:6949  _checkInitializing() */\n      tag_319\n        /* \"@openzeppelin/contracts-upgradeable/proxy/utils/Initializable.sol\":6929:6947  _checkInitializing */\n      tag_320\n        /* \"@openzeppelin/contracts-upgradeable/proxy/utils/Initializable.sol\":6929:6949  _checkInitializing() */\n      jump\t// in\n    tag_319:\n        /* \"@openzeppelin/contracts-upgradeable/access/OwnableUpgradeable.sol\":1929:1967  __Ownable_init_unchained(initialOwner) */\n      tag_322\n        /* \"@openzeppelin/contracts-upgradeable/access/OwnableUpgradeable.sol\":1954:1966  initialOwner */\n      dup2\n        /* \"@openzeppelin/contracts-upgradeable/access/OwnableUpgradeable.sol\":1929:1953  __Ownable_init_unchained */\n      tag_323\n        /* \"@openzeppelin/contracts-upgradeable/access/OwnableUpgradeable.sol\":1929:1967  __Ownable_init_unchained(initialOwner) */\n      jump\t// in\n    tag_322:\n        /* \"@openzeppelin/contracts-upgradeable/access/OwnableUpgradeable.sol\":1847:1974  function __Ownable_init(address initialOwner) internal onlyInitializing {... */\n      pop\n      jump\t// out\n        /* \"@openzeppelin/contracts-upgradeable/security/PausableUpgradeable.sol\":1084:1181  function __Pausable_init() internal onlyInitializing {... */\n    tag_232:\n        /* \"@openzeppelin/contracts-upgradeable/proxy/utils/Initializable.sol\":6929:6949  _checkInitializing() */\n      tag_325\n        /* \"@openzeppelin/contracts-upgradeable/proxy/utils/Initializable.sol\":6929:6947  _checkInitializing */\n      tag_320\n        /* \"@openzeppelin/contracts-upgradeable/proxy/utils/Initializable.sol\":6929:6949  _checkInitializing() */\n      jump\t// in\n    tag_325:\n        /* \"@openzeppelin/contracts-upgradeable/security/PausableUpgradeable.sol\":1147:1174  __Pausable_init_unchained() */\n      tag_327\n        /* \"@openzeppelin/contracts-upgradeable/security/PausableUpgradeable.sol\":1147:1172  __Pausable_init_unchained */\n      tag_328\n        /* \"@openzeppelin/contracts-upgradeable/security/PausableUpgradeable.sol\":1147:1174  __Pausable_init_unchained() */\n      jump\t// in\n    tag_327:\n        /* \"@openzeppelin/contracts-upgradeable/security/PausableUpgradeable.sol\":1084:1181  function __Pausable_init() internal onlyInitializing {... */\n      jump\t// out\n        /* \"@openzeppelin/contracts-upgradeable/security/ReentrancyGuardUpgradeable.sol\":1889:2000  function __ReentrancyGuard_init() internal onlyInitializing {... */\n    tag_234:\n        /* \"@openzeppelin/contracts-upgradeable/proxy/utils/Initializable.sol\":6929:6949  _checkInitializing() */\n      tag_330\n        /* \"@openzeppelin/contracts-upgradeable/proxy/utils/Initializable.sol\":6929:6947  _checkInitializing */\n      tag_320\n        /* \"@openzeppelin/contracts-upgradeable/proxy/utils/Initializable.sol\":6929:6949  _checkInitializing() */\n      jump\t// in\n    tag_330:\n        /* \"@openzeppelin/contracts-upgradeable/security/ReentrancyGuardUpgradeable.sol\":1959:1993  __ReentrancyGuard_init_unchained() */\n      tag_332\n        /* \"@openzeppelin/contracts-upgradeable/security/ReentrancyGuardUpgradeable.sol\":1959:1991  __ReentrancyGuard_init_unchained */\n      tag_333\n        /* \"@openzeppelin/contracts-upgradeable/security/ReentrancyGuardUpgradeable.sol\":1959:1993  __ReentrancyGuard_init_unchained() */\n      jump\t// in\n    tag_332:\n        /* \"@openzeppelin/contracts-upgradeable/security/ReentrancyGuardUpgradeable.sol\":1889:2000  function __ReentrancyGuard_init() internal onlyInitializing {... */\n      jump\t// out\n        /* \"@openzeppelin/contracts-upgradeable/proxy/utils/UUPSUpgradeable.sol\":2970:3037  function __UUPSUpgradeable_init() internal onlyInitializing {... */\n    tag_236:\n        /* \"@openzeppelin/contracts-upgradeable/proxy/utils/Initializable.sol\":6929:6949  _checkInitializing() */\n      tag_335\n        /* \"@openzeppelin/contracts-upgradeable/proxy/utils/Initializable.sol\":6929:6947  _checkInitializing */\n      tag_320\n        /* \"@openzeppelin/contracts-upgradeable/proxy/utils/Initializable.sol\":6929:6949  _checkInitializing() */\n      jump\t// in\n    tag_335:\n        /* \"@openzeppelin/contracts-upgradeable/proxy/utils/UUPSUpgradeable.sol\":2970:3037  function __UUPSUpgradeable_init() internal onlyInitializing {... */\n      jump\t// out\n        /* \"@openzeppelin/contracts-upgradeable/utils/ContextUpgradeable.sol\":887:983  function _msgSender() internal view virtual returns (address) {... */\n    tag_242:\n        /* \"@openzeppelin/contracts-upgradeable/utils/ContextUpgradeable.sol\":940:947  address */\n      0x00\n        /* \"@openzeppelin/contracts-upgradeable/utils/ContextUpgradeable.sol\":966:976  msg.sender */\n      caller\n        /* \"@openzeppelin/contracts-upgradeable/utils/ContextUpgradeable.sol\":959:976  return msg.sender */\n      swap1\n      pop\n        /* \"@openzeppelin/contracts-upgradeable/utils/ContextUpgradeable.sol\":887:983  function _msgSender() internal view virtual returns (address) {... */\n      swap1\n      jump\t// out\n        /* \"@openzeppelin/contracts/proxy/ERC1967/ERC1967Utils.sol\":1441:1579  function getImplementation() internal view returns (address) {... */\n    tag_250:\n        /* \"@openzeppelin/contracts/proxy/ERC1967/ERC1967Utils.sol\":1493:1500  address */\n      0x00\n        /* \"@openzeppelin/contracts/proxy/ERC1967/ERC1967Utils.sol\":1519:1566  StorageSlot.getAddressSlot(IMPLEMENTATION_SLOT) */\n      tag_339\n        /* \"@openzeppelin/contracts/proxy/ERC1967/ERC1967Utils.sol\":811:877  0x360894a13ba1a3210667c828492db98dca3e2076cc3735a920a3ca505d382bbc */\n      0x360894a13ba1a3210667c828492db98dca3e2076cc3735a920a3ca505d382bbc\n        /* \"@openzeppelin/contracts/proxy/ERC1967/ERC1967Utils.sol\":1546:1565  IMPLEMENTATION_SLOT */\n      0x00\n      shl\n        /* \"@openzeppelin/contracts/proxy/ERC1967/ERC1967Utils.sol\":1519:1545  StorageSlot.getAddressSlot */\n      tag_340\n        /* \"@openzeppelin/contracts/proxy/ERC1967/ERC1967Utils.sol\":1519:1566  StorageSlot.getAddressSlot(IMPLEMENTATION_SLOT) */\n      jump\t// in\n    tag_339:\n        /* \"@openzeppelin/contracts/proxy/ERC1967/ERC1967Utils.sol\":1519:1572  StorageSlot.getAddressSlot(IMPLEMENTATION_SLOT).value */\n      0x00\n      add\n      0x00\n      swap1\n      sload\n      swap1\n      0x0100\n      exp\n      swap1\n      div\n      0xffffffffffffffffffffffffffffffffffffffff\n      and\n        /* \"@openzeppelin/contracts/proxy/ERC1967/ERC1967Utils.sol\":1512:1572  return StorageSlot.getAddressSlot(IMPLEMENTATION_SLOT).value */\n      swap1\n      pop\n        /* \"@openzeppelin/contracts/proxy/ERC1967/ERC1967Utils.sol\":1441:1579  function getImplementation() internal view returns (address) {... */\n      swap1\n      jump\t// out\n        /* \"@openzeppelin/contracts/proxy/ERC1967/ERC1967Utils.sol\":2264:2608  function upgradeToAndCall(address newImplementation, bytes memory data) internal {... */\n    tag_268:\n        /* \"@openzeppelin/contracts/proxy/ERC1967/ERC1967Utils.sol\":2355:2392  _setImplementation(newImplementation) */\n      tag_342\n        /* \"@openzeppelin/contracts/proxy/ERC1967/ERC1967Utils.sol\":2374:2391  newImplementation */\n      dup3\n        /* \"@openzeppelin/contracts/proxy/ERC1967/ERC1967Utils.sol\":2355:2373  _setImplementation */\n      tag_343\n        /* \"@openzeppelin/contracts/proxy/ERC1967/ERC1967Utils.sol\":2355:2392  _setImplementation(newImplementation) */\n      jump\t// in\n    tag_342:\n        /* \"@openzeppelin/contracts/proxy/ERC1967/ERC1967Utils.sol\":2425:2442  newImplementation */\n      dup2\n        /* \"@openzeppelin/contracts/proxy/ERC1967/ERC1967Utils.sol\":2407:2443  IERC1967.Upgraded(newImplementation) */\n      0xffffffffffffffffffffffffffffffffffffffff\n      and\n      0xbc7cd75a20ee27fd9adebab32041f755214dbc6bffa90cc0225b39da2e5c2d3b\n      mload(0x40)\n      mload(0x40)\n      dup1\n      swap2\n      sub\n      swap1\n      log2\n        /* \"@openzeppelin/contracts/proxy/ERC1967/ERC1967Utils.sol\":2472:2473  0 */\n      0x00\n        /* \"@openzeppelin/contracts/proxy/ERC1967/ERC1967Utils.sol\":2458:2462  data */\n      dup2\n        /* \"@openzeppelin/contracts/proxy/ERC1967/ERC1967Utils.sol\":2458:2469  data.length */\n      mload\n        /* \"@openzeppelin/contracts/proxy/ERC1967/ERC1967Utils.sol\":2458:2473  data.length > 0 */\n      gt\n        /* \"@openzeppelin/contracts/proxy/ERC1967/ERC1967Utils.sol\":2454:2602  if (data.length > 0) {... */\n      iszero\n      tag_344\n      jumpi\n        /* \"@openzeppelin/contracts/proxy/ERC1967/ERC1967Utils.sol\":2489:2542  Address.functionDelegateCall(newImplementation, data) */\n      tag_345\n        /* \"@openzeppelin/contracts/proxy/ERC1967/ERC1967Utils.sol\":2518:2535  newImplementation */\n      dup3\n        /* \"@openzeppelin/contracts/proxy/ERC1967/ERC1967Utils.sol\":2537:2541  data */\n      dup3\n        /* \"@openzeppelin/contracts/proxy/ERC1967/ERC1967Utils.sol\":2489:2517  Address.functionDelegateCall */\n      tag_346\n        /* \"@openzeppelin/contracts/proxy/ERC1967/ERC1967Utils.sol\":2489:2542  Address.functionDelegateCall(newImplementation, data) */\n      jump\t// in\n    tag_345:\n      pop\n        /* \"@openzeppelin/contracts/proxy/ERC1967/ERC1967Utils.sol\":2454:2602  if (data.length > 0) {... */\n      jump(tag_347)\n    tag_344:\n        /* \"@openzeppelin/contracts/proxy/ERC1967/ERC1967Utils.sol\":2573:2591  _checkNonPayable() */\n      tag_348\n        /* \"@openzeppelin/contracts/proxy/ERC1967/ERC1967Utils.sol\":2573:2589  _checkNonPayable */\n      tag_349\n        /* \"@openzeppelin/contracts/proxy/ERC1967/ERC1967Utils.sol\":2573:2591  _checkNonPayable() */\n      jump\t// in\n    tag_348:\n        /* \"@openzeppelin/contracts/proxy/ERC1967/ERC1967Utils.sol\":2454:2602  if (data.length > 0) {... */\n    tag_347:\n        /* \"@openzeppelin/contracts/proxy/ERC1967/ERC1967Utils.sol\":2264:2608  function upgradeToAndCall(address newImplementation, bytes memory data) internal {... */\n      pop\n      pop\n      jump\t// out\n        /* \"leaderboard.sol\":5305:5806  function _bubbleUp(uint256 idx) internal {... */\n    tag_287:\n        /* \"leaderboard.sol\":5356:5800  while (idx > 0) {... */\n    tag_351:\n        /* \"leaderboard.sol\":5369:5370  0 */\n      0x00\n        /* \"leaderboard.sol\":5363:5366  idx */\n      dup2\n        /* \"leaderboard.sol\":5363:5370  idx > 0 */\n      gt\n        /* \"leaderboard.sol\":5356:5800  while (idx > 0) {... */\n      iszero\n      tag_352\n      jumpi\n        /* \"leaderboard.sol\":5386:5398  uint256 prev */\n      0x00\n        /* \"leaderboard.sol\":5407:5408  1 */\n      0x01\n        /* \"leaderboard.sol\":5401:5404  idx */\n      dup3\n        /* \"leaderboard.sol\":5401:5408  idx - 1 */\n      tag_353\n      swap2\n      swap1\n      tag_121\n      jump\t// in\n    tag_353:\n        /* \"leaderboard.sol\":5386:5408  uint256 prev = idx - 1 */\n      swap1\n      pop\n        /* \"leaderboard.sol\":5452:5462  topPlayers */\n      0x65\n        /* \"leaderboard.sol\":5463:5466  idx */\n      dup3\n        /* \"leaderboard.sol\":5452:5467  topPlayers[idx] */\n      dup2\n      sload\n      dup2\n      lt\n      tag_354\n      jumpi\n      tag_355\n      tag_124\n      jump\t// in\n    tag_355:\n    tag_354:\n      swap1\n      0x00\n      mstore\n      keccak256(0x00, 0x20)\n      swap1\n      0x02\n      mul\n      add\n        /* \"leaderboard.sol\":5452:5473  topPlayers[idx].score */\n      0x01\n      add\n      sload\n        /* \"leaderboard.sol\":5426:5436  topPlayers */\n      0x65\n        /* \"leaderboard.sol\":5437:5441  prev */\n      dup3\n        /* \"leaderboard.sol\":5426:5442  topPlayers[prev] */\n      dup2\n      sload\n      dup2\n      lt\n      tag_357\n      jumpi\n      tag_358\n      tag_124\n      jump\t// in\n    tag_358:\n    tag_357:\n      swap1\n      0x00\n      mstore\n      keccak256(0x00, 0x20)\n      swap1\n      0x02\n      mul\n      add\n        /* \"leaderboard.sol\":5426:5448  topPlayers[prev].score */\n      0x01\n      add\n      sload\n        /* \"leaderboard.sol\":5426:5473  topPlayers[prev].score >= topPlayers[idx].score */\n      lt\n        /* \"leaderboard.sol\":5422:5480  if (topPlayers[prev].score >= topPlayers[idx].score) break */\n      tag_360\n      jumpi\n        /* \"leaderboard.sol\":5475:5480  break */\n      pop\n      jump(tag_352)\n        /* \"leaderboard.sol\":5422:5480  if (topPlayers[prev].score >= topPlayers[idx].score) break */\n    tag_360:\n        /* \"leaderboard.sol\":5533:5549  Entry memory tmp */\n      0x00\n        /* \"leaderboard.sol\":5552:5562  topPlayers */\n      0x65\n        /* \"leaderboard.sol\":5563:5567  prev */\n      dup3\n        /* \"leaderboard.sol\":5552:5568  topPlayers[prev] */\n      dup2\n      sload\n      dup2\n      lt\n      tag_361\n      jumpi\n      tag_362\n      tag_124\n      jump\t// in\n    tag_362:\n    tag_361:\n      swap1\n      0x00\n      mstore\n      keccak256(0x00, 0x20)\n      swap1\n      0x02\n      mul\n      add\n        /* \"leaderboard.sol\":5533:5568  Entry memory tmp = topPlayers[prev] */\n      mload(0x40)\n      dup1\n      0x40\n      add\n      0x40\n      mstore\n      swap1\n      dup2\n      0x00\n      dup3\n      add\n      0x00\n      swap1\n      sload\n      swap1\n      0x0100\n      exp\n      swap1\n      div\n      0xffffffffffffffffffffffffffffffffffffffff\n      and\n      0xffffffffffffffffffffffffffffffffffffffff\n      and\n      0xffffffffffffffffffffffffffffffffffffffff\n      and\n      dup2\n      mstore\n      0x20\n      add\n      0x01\n      dup3\n      add\n      sload\n      dup2\n      mstore\n      pop\n      pop\n      swap1\n      pop\n        /* \"leaderboard.sol\":5601:5611  topPlayers */\n      0x65\n        /* \"leaderboard.sol\":5612:5615  idx */\n      dup4\n        /* \"leaderboard.sol\":5601:5616  topPlayers[idx] */\n      dup2\n      sload\n      dup2\n      lt\n      tag_364\n      jumpi\n      tag_365\n      tag_124\n      jump\t// in\n    tag_365:\n    tag_364:\n      swap1\n      0x00\n      mstore\n      keccak256(0x00, 0x20)\n      swap1\n      0x02\n      mul\n      add\n        /* \"leaderboard.sol\":5582:5592  topPlayers */\n      0x65\n        /* \"leaderboard.sol\":5593:5597  prev */\n      dup4\n        /* \"leaderboard.sol\":5582:5598  topPlayers[prev] */\n      dup2\n      sload\n      dup2\n      lt\n      tag_367\n      jumpi\n      tag_368\n      tag_124\n      jump\t// in\n    tag_368:\n    tag_367:\n      swap1\n      0x00\n      mstore\n      keccak256(0x00, 0x20)\n      swap1\n      0x02\n      mul\n      add\n        /* \"leaderboard.sol\":5582:5616  topPlayers[prev] = topPlayers[idx] */\n      0x00\n      dup3\n      add\n      0x00\n      swap1\n      sload\n      swap1\n      0x0100\n      exp\n      swap1\n      div\n      0xffffffffffffffffffffffffffffffffffffffff\n      and\n      dup2\n      0x00\n      add\n      exp(0x0100, 0x00)\n      dup2\n      sload\n      dup2\n      0xffffffffffffffffffffffffffffffffffffffff\n      mul\n      not\n      and\n      swap1\n      dup4\n      0xffffffffffffffffffffffffffffffffffffffff\n      and\n      mul\n      or\n      swap1\n      sstore\n      pop\n      0x01\n      dup3\n      add\n      sload\n      dup2\n      0x01\n      add\n      sstore\n      swap1\n      pop\n      pop\n        /* \"leaderboard.sol\":5648:5651  tmp */\n      dup1\n        /* \"leaderboard.sol\":5630:5640  topPlayers */\n      0x65\n        /* \"leaderboard.sol\":5641:5644  idx */\n      dup5\n        /* \"leaderboard.sol\":5630:5645  topPlayers[idx] */\n      dup2\n      sload\n      dup2\n      lt\n      tag_370\n      jumpi\n      tag_371\n      tag_124\n      jump\t// in\n    tag_371:\n    tag_370:\n      swap1\n      0x00\n      mstore\n      keccak256(0x00, 0x20)\n      swap1\n      0x02\n      mul\n      add\n        /* \"leaderboard.sol\":5630:5651  topPlayers[idx] = tmp */\n      0x00\n      dup3\n      add\n      mload\n      dup2\n      0x00\n      add\n      exp(0x0100, 0x00)\n      dup2\n      sload\n      dup2\n      0xffffffffffffffffffffffffffffffffffffffff\n      mul\n      not\n      and\n      swap1\n      dup4\n      0xffffffffffffffffffffffffffffffffffffffff\n      and\n      mul\n      or\n      swap1\n      sstore\n      pop\n      0x20\n      dup3\n      add\n      mload\n      dup2\n      0x01\n      add\n      sstore\n      swap1\n      pop\n      pop\n        /* \"leaderboard.sol\":5708:5709  1 */\n      0x01\n        /* \"leaderboard.sol\":5701:5705  prev */\n      dup3\n        /* \"leaderboard.sol\":5701:5709  prev + 1 */\n      tag_373\n      swap2\n      swap1\n      tag_295\n      jump\t// in\n    tag_373:\n        /* \"leaderboard.sol\":5665:5673  topIndex */\n      0x67\n        /* \"leaderboard.sol\":5665:5698  topIndex[topPlayers[prev].player] */\n      0x00\n        /* \"leaderboard.sol\":5674:5684  topPlayers */\n      0x65\n        /* \"leaderboard.sol\":5685:5689  prev */\n      dup6\n        /* \"leaderboard.sol\":5674:5690  topPlayers[prev] */\n      dup2\n      sload\n      dup2\n      lt\n      tag_374\n      jumpi\n      tag_375\n      tag_124\n      jump\t// in\n    tag_375:\n    tag_374:\n      swap1\n      0x00\n      mstore\n      keccak256(0x00, 0x20)\n      swap1\n      0x02\n      mul\n      add\n        /* \"leaderboard.sol\":5674:5697  topPlayers[prev].player */\n      0x00\n      add\n      0x00\n      swap1\n      sload\n      swap1\n      0x0100\n      exp\n      swap1\n      div\n      0xffffffffffffffffffffffffffffffffffffffff\n      and\n        /* \"leaderboard.sol\":5665:5698  topIndex[topPlayers[prev].player] */\n      0xffffffffffffffffffffffffffffffffffffffff\n      and\n      0xffffffffffffffffffffffffffffffffffffffff\n      and\n      dup2\n      mstore\n      0x20\n      add\n      swap1\n      dup2\n      mstore\n      0x20\n      add\n      0x00\n      keccak256\n        /* \"leaderboard.sol\":5665:5709  topIndex[topPlayers[prev].player] = prev + 1 */\n      dup2\n      swap1\n      sstore\n      pop\n        /* \"leaderboard.sol\":5764:5765  1 */\n      0x01\n        /* \"leaderboard.sol\":5758:5761  idx */\n      dup4\n        /* \"leaderboard.sol\":5758:5765  idx + 1 */\n      tag_377\n      swap2\n      swap1\n      tag_295\n      jump\t// in\n    tag_377:\n        /* \"leaderboard.sol\":5723:5731  topIndex */\n      0x67\n        /* \"leaderboard.sol\":5723:5755  topIndex[topPlayers[idx].player] */\n      0x00\n        /* \"leaderboard.sol\":5732:5742  topPlayers */\n      0x65\n        /* \"leaderboard.sol\":5743:5746  idx */\n      dup7\n        /* \"leaderboard.sol\":5732:5747  topPlayers[idx] */\n      dup2\n      sload\n      dup2\n      lt\n      tag_378\n      jumpi\n      tag_379\n      tag_124\n      jump\t// in\n    tag_379:\n    tag_378:\n      swap1\n      0x00\n      mstore\n      keccak256(0x00, 0x20)\n      swap1\n      0x02\n      mul\n      add\n        /* \"leaderboard.sol\":5732:5754  topPlayers[idx].player */\n      0x00\n      add\n      0x00\n      swap1\n      sload\n      swap1\n      0x0100\n      exp\n      swap1\n      div\n      0xffffffffffffffffffffffffffffffffffffffff\n      and\n        /* \"leaderboard.sol\":5723:5755  topIndex[topPlayers[idx].player] */\n      0xffffffffffffffffffffffffffffffffffffffff\n      and\n      0xffffffffffffffffffffffffffffffffffffffff\n      and\n      dup2\n      mstore\n      0x20\n      add\n      swap1\n      dup2\n      mstore\n      0x20\n      add\n      0x00\n      keccak256\n        /* \"leaderboard.sol\":5723:5765  topIndex[topPlayers[idx].player] = idx + 1 */\n      dup2\n      swap1\n      sstore\n      pop\n        /* \"leaderboard.sol\":5785:5789  prev */\n      dup2\n        /* \"leaderboard.sol\":5779:5789  idx = prev */\n      swap3\n      pop\n        /* \"leaderboard.sol\":5372:5800  {... */\n      pop\n      pop\n        /* \"leaderboard.sol\":5356:5800  while (idx > 0) {... */\n      jump(tag_351)\n    tag_352:\n        /* \"leaderboard.sol\":5305:5806  function _bubbleUp(uint256 idx) internal {... */\n      pop\n      jump\t// out\n        /* \"leaderboard.sol\":5812:6323  function _bubbleDown(uint256 idx) internal {... */\n    tag_289:\n        /* \"leaderboard.sol\":5865:5876  uint256 len */\n      0x00\n        /* \"leaderboard.sol\":5879:5889  topPlayers */\n      0x65\n        /* \"leaderboard.sol\":5879:5896  topPlayers.length */\n      dup1\n      sload\n      swap1\n      pop\n        /* \"leaderboard.sol\":5865:5896  uint256 len = topPlayers.length */\n      swap1\n      pop\n        /* \"leaderboard.sol\":5906:6317  while (idx + 1 < len) {... */\n    tag_382:\n        /* \"leaderboard.sol\":5923:5926  len */\n      dup1\n        /* \"leaderboard.sol\":5919:5920  1 */\n      0x01\n        /* \"leaderboard.sol\":5913:5916  idx */\n      dup4\n        /* \"leaderboard.sol\":5913:5920  idx + 1 */\n      tag_384\n      swap2\n      swap1\n      tag_295\n      jump\t// in\n    tag_384:\n        /* \"leaderboard.sol\":5913:5926  idx + 1 < len */\n      lt\n        /* \"leaderboard.sol\":5906:6317  while (idx + 1 < len) {... */\n      iszero\n      tag_383\n      jumpi\n        /* \"leaderboard.sol\":5942:5954  uint256 next */\n      0x00\n        /* \"leaderboard.sol\":5963:5964  1 */\n      0x01\n        /* \"leaderboard.sol\":5957:5960  idx */\n      dup4\n        /* \"leaderboard.sol\":5957:5964  idx + 1 */\n      tag_385\n      swap2\n      swap1\n      tag_295\n      jump\t// in\n    tag_385:\n        /* \"leaderboard.sol\":5942:5964  uint256 next = idx + 1 */\n      swap1\n      pop\n        /* \"leaderboard.sol\":6007:6017  topPlayers */\n      0x65\n        /* \"leaderboard.sol\":6018:6022  next */\n      dup2\n        /* \"leaderboard.sol\":6007:6023  topPlayers[next] */\n      dup2\n      sload\n      dup2\n      lt\n      tag_386\n      jumpi\n      tag_387\n      tag_124\n      jump\t// in\n    tag_387:\n    tag_386:\n      swap1\n      0x00\n      mstore\n      keccak256(0x00, 0x20)\n      swap1\n      0x02\n      mul\n      add\n        /* \"leaderboard.sol\":6007:6029  topPlayers[next].score */\n      0x01\n      add\n      sload\n        /* \"leaderboard.sol\":5982:5992  topPlayers */\n      0x65\n        /* \"leaderboard.sol\":5993:5996  idx */\n      dup5\n        /* \"leaderboard.sol\":5982:5997  topPlayers[idx] */\n      dup2\n      sload\n      dup2\n      lt\n      tag_389\n      jumpi\n      tag_390\n      tag_124\n      jump\t// in\n    tag_390:\n    tag_389:\n      swap1\n      0x00\n      mstore\n      keccak256(0x00, 0x20)\n      swap1\n      0x02\n      mul\n      add\n        /* \"leaderboard.sol\":5982:6003  topPlayers[idx].score */\n      0x01\n      add\n      sload\n        /* \"leaderboard.sol\":5982:6029  topPlayers[idx].score >= topPlayers[next].score */\n      lt\n        /* \"leaderboard.sol\":5978:6036  if (topPlayers[idx].score >= topPlayers[next].score) break */\n      tag_392\n      jumpi\n        /* \"leaderboard.sol\":6031:6036  break */\n      pop\n      jump(tag_383)\n        /* \"leaderboard.sol\":5978:6036  if (topPlayers[idx].score >= topPlayers[next].score) break */\n    tag_392:\n        /* \"leaderboard.sol\":6050:6066  Entry memory tmp */\n      0x00\n        /* \"leaderboard.sol\":6069:6079  topPlayers */\n      0x65\n        /* \"leaderboard.sol\":6080:6084  next */\n      dup3\n        /* \"leaderboard.sol\":6069:6085  topPlayers[next] */\n      dup2\n      sload\n      dup2\n      lt\n      tag_393\n      jumpi\n      tag_394\n      tag_124\n      jump\t// in\n    tag_394:\n    tag_393:\n      swap1\n      0x00\n      mstore\n      keccak256(0x00, 0x20)\n      swap1\n      0x02\n      mul\n      add\n        /* \"leaderboard.sol\":6050:6085  Entry memory tmp = topPlayers[next] */\n      mload(0x40)\n      dup1\n      0x40\n      add\n      0x40\n      mstore\n      swap1\n      dup2\n      0x00\n      dup3\n      add\n      0x00\n      swap1\n      sload\n      swap1\n      0x0100\n      exp\n      swap1\n      div\n      0xffffffffffffffffffffffffffffffffffffffff\n      and\n      0xffffffffffffffffffffffffffffffffffffffff\n      and\n      0xffffffffffffffffffffffffffffffffffffffff\n      and\n      dup2\n      mstore\n      0x20\n      add\n      0x01\n      dup3\n      add\n      sload\n      dup2\n      mstore\n      pop\n      pop\n      swap1\n      pop\n        /* \"leaderboard.sol\":6118:6128  topPlayers */\n      0x65\n        /* \"leaderboard.sol\":6129:6132  idx */\n      dup5\n        /* \"leaderboard.sol\":6118:6133  topPlayers[idx] */\n      dup2\n      sload\n      dup2\n      lt\n      tag_396\n      jumpi\n      tag_397\n      tag_124\n      jump\t// in\n    tag_397:\n    tag_396:\n      swap1\n      0x00\n      mstore\n      keccak256(0x00, 0x20)\n      swap1\n      0x02\n      mul\n      add\n        /* \"leaderboard.sol\":6099:6109  topPlayers */\n      0x65\n        /* \"leaderboard.sol\":6110:6114  next */\n      dup4\n        /* \"leaderboard.sol\":6099:6115  topPlayers[next] */\n      dup2\n      sload\n      dup2\n      lt\n      tag_399\n      jumpi\n      tag_400\n      tag_124\n      jump\t// in\n    tag_400:\n    tag_399:\n      swap1\n      0x00\n      mstore\n      keccak256(0x00, 0x20)\n      swap1\n      0x02\n      mul\n      add\n        /* \"leaderboard.sol\":6099:6133  topPlayers[next] = topPlayers[idx] */\n      0x00\n      dup3\n      add\n      0x00\n      swap1\n      sload\n      swap1\n      0x0100\n      exp\n      swap1\n      div\n      0xffffffffffffffffffffffffffffffffffffffff\n      and\n      dup2\n      0x00\n      add\n      exp(0x0100, 0x00)\n      dup2\n      sload\n      dup2\n      0xffffffffffffffffffffffffffffffffffffffff\n      mul\n      not\n      and\n      swap1\n      dup4\n      0xffffffffffffffffffffffffffffffffffffffff\n      and\n      mul\n      or\n      swap1\n      sstore\n      pop\n      0x01\n      dup3\n      add\n      sload\n      dup2\n      0x01\n      add\n      sstore\n      swap1\n      pop\n      pop\n        /* \"leaderboard.sol\":6165:6168  tmp */\n      dup1\n        /* \"leaderboard.sol\":6147:6157  topPlayers */\n      0x65\n        /* \"leaderboard.sol\":6158:6161  idx */\n      dup6\n        /* \"leaderboard.sol\":6147:6162  topPlayers[idx] */\n      dup2\n      sload\n      dup2\n      lt\n      tag_402\n      jumpi\n      tag_403\n      tag_124\n      jump\t// in\n    tag_403:\n    tag_402:\n      swap1\n      0x00\n      mstore\n      keccak256(0x00, 0x20)\n      swap1\n      0x02\n      mul\n      add\n        /* \"leaderboard.sol\":6147:6168  topPlayers[idx] = tmp */\n      0x00\n      dup3\n      add\n      mload\n      dup2\n      0x00\n      add\n      exp(0x0100, 0x00)\n      dup2\n      sload\n      dup2\n      0xffffffffffffffffffffffffffffffffffffffff\n      mul\n      not\n      and\n      swap1\n      dup4\n      0xffffffffffffffffffffffffffffffffffffffff\n      and\n      mul\n      or\n      swap1\n      sstore\n      pop\n      0x20\n      dup3\n      add\n      mload\n      dup2\n      0x01\n      add\n      sstore\n      swap1\n      pop\n      pop\n        /* \"leaderboard.sol\":6225:6226  1 */\n      0x01\n        /* \"leaderboard.sol\":6218:6222  next */\n      dup3\n        /* \"leaderboard.sol\":6218:6226  next + 1 */\n      tag_405\n      swap2\n      swap1\n      tag_295\n      jump\t// in\n    tag_405:\n        /* \"leaderboard.sol\":6182:6190  topIndex */\n      0x67\n        /* \"leaderboard.sol\":6182:6215  topIndex[topPlayers[next].player] */\n      0x00\n        /* \"leaderboard.sol\":6191:6201  topPlayers */\n      0x65\n        /* \"leaderboard.sol\":6202:6206  next */\n      dup6\n        /* \"leaderboard.sol\":6191:6207  topPlayers[next] */\n      dup2\n      sload\n      dup2\n      lt\n      tag_406\n      jumpi\n      tag_407\n      tag_124\n      jump\t// in\n    tag_407:\n    tag_406:\n      swap1\n      0x00\n      mstore\n      keccak256(0x00, 0x20)\n      swap1\n      0x02\n      mul\n      add\n        /* \"leaderboard.sol\":6191:6214  topPlayers[next].player */\n      0x00\n      add\n      0x00\n      swap1\n      sload\n      swap1\n      0x0100\n      exp\n      swap1\n      div\n      0xffffffffffffffffffffffffffffffffffffffff\n      and\n        /* \"leaderboard.sol\":6182:6215  topIndex[topPlayers[next].player] */\n      0xffffffffffffffffffffffffffffffffffffffff\n      and\n      0xffffffffffffffffffffffffffffffffffffffff\n      and\n      dup2\n      mstore\n      0x20\n      add\n      swap1\n      dup2\n      mstore\n      0x20\n      add\n      0x00\n      keccak256\n        /* \"leaderboard.sol\":6182:6226  topIndex[topPlayers[next].player] = next + 1 */\n      dup2\n      swap1\n      sstore\n      pop\n        /* \"leaderboard.sol\":6281:6282  1 */\n      0x01\n        /* \"leaderboard.sol\":6275:6278  idx */\n      dup5\n        /* \"leaderboard.sol\":6275:6282  idx + 1 */\n      tag_409\n      swap2\n      swap1\n      tag_295\n      jump\t// in\n    tag_409:\n        /* \"leaderboard.sol\":6240:6248  topIndex */\n      0x67\n        /* \"leaderboard.sol\":6240:6272  topIndex[topPlayers[idx].player] */\n      0x00\n        /* \"leaderboard.sol\":6249:6259  topPlayers */\n      0x65\n        /* \"leaderboard.sol\":6260:6263  idx */\n      dup8\n        /* \"leaderboard.sol\":6249:6264  topPlayers[idx] */\n      dup2\n      sload\n      dup2\n      lt\n      tag_410\n      jumpi\n      tag_411\n      tag_124\n      jump\t// in\n    tag_411:\n    tag_410:\n      swap1\n      0x00\n      mstore\n      keccak256(0x00, 0x20)\n      swap1\n      0x02\n      mul\n      add\n        /* \"leaderboard.sol\":6249:6271  topPlayers[idx].player */\n      0x00\n      add\n      0x00\n      swap1\n      sload\n      swap1\n      0x0100\n      exp\n      swap1\n      div\n      0xffffffffffffffffffffffffffffffffffffffff\n      and\n        /* \"leaderboard.sol\":6240:6272  topIndex[topPlayers[idx].player] */\n      0xffffffffffffffffffffffffffffffffffffffff\n      and\n      0xffffffffffffffffffffffffffffffffffffffff\n      and\n      dup2\n      mstore\n      0x20\n      add\n      swap1\n      dup2\n      mstore\n      0x20\n      add\n      0x00\n      keccak256\n        /* \"leaderboard.sol\":6240:6282  topIndex[topPlayers[idx].player] = idx + 1 */\n      dup2\n      swap1\n      sstore\n      pop\n        /* \"leaderboard.sol\":6302:6306  next */\n      dup2\n        /* \"leaderboard.sol\":6296:6306  idx = next */\n      swap4\n      pop\n        /* \"leaderboard.sol\":5928:6317  {... */\n      pop\n      pop\n        /* \"leaderboard.sol\":5906:6317  while (idx + 1 < len) {... */\n      jump(tag_382)\n    tag_383:\n        /* \"leaderboard.sol\":5855:6323  {... */\n      pop\n        /* \"leaderboard.sol\":5812:6323  function _bubbleDown(uint256 idx) internal {... */\n      pop\n      jump\t// out\n        /* \"@openzeppelin/contracts-upgradeable/proxy/utils/Initializable.sol\":8819:8941  function _initializableStorageSlot() internal pure virtual returns (bytes32) {... */\n    tag_317:\n        /* \"@openzeppelin/contracts-upgradeable/proxy/utils/Initializable.sol\":8887:8894  bytes32 */\n      0x00\n        /* \"@openzeppelin/contracts-upgradeable/proxy/utils/Initializable.sol\":3147:3213  0xf0c57e16840df040f15088dc2f81fe391c3923bec73e23a9662efc9c229c6a00 */\n      0xf0c57e16840df040f15088dc2f81fe391c3923bec73e23a9662efc9c229c6a00\n        /* \"@openzeppelin/contracts-upgradeable/proxy/utils/Initializable.sol\":8913:8934  INITIALIZABLE_STORAGE */\n      0x00\n      shl\n        /* \"@openzeppelin/contracts-upgradeable/proxy/utils/Initializable.sol\":8906:8934  return INITIALIZABLE_STORAGE */\n      swap1\n      pop\n        /* \"@openzeppelin/contracts-upgradeable/proxy/utils/Initializable.sol\":8819:8941  function _initializableStorageSlot() internal pure virtual returns (bytes32) {... */\n      swap1\n      jump\t// out\n        /* \"@openzeppelin/contracts-upgradeable/proxy/utils/Initializable.sol\":7082:7223  function _checkInitializing() internal view virtual {... */\n    tag_320:\n        /* \"@openzeppelin/contracts-upgradeable/proxy/utils/Initializable.sol\":7149:7166  _isInitializing() */\n      tag_415\n        /* \"@openzeppelin/contracts-upgradeable/proxy/utils/Initializable.sol\":7149:7164  _isInitializing */\n      tag_416\n        /* \"@openzeppelin/contracts-upgradeable/proxy/utils/Initializable.sol\":7149:7166  _isInitializing() */\n      jump\t// in\n    tag_415:\n        /* \"@openzeppelin/contracts-upgradeable/proxy/utils/Initializable.sol\":7144:7217  if (!_isInitializing()) {... */\n      tag_417\n      jumpi\n        /* \"@openzeppelin/contracts-upgradeable/proxy/utils/Initializable.sol\":7189:7206  NotInitializing() */\n      mload(0x40)\n      0xd7e6bcf800000000000000000000000000000000000000000000000000000000\n      dup2\n      mstore\n      0x04\n      add\n      mload(0x40)\n      dup1\n      swap2\n      sub\n      swap1\n      revert\n        /* \"@openzeppelin/contracts-upgradeable/proxy/utils/Initializable.sol\":7144:7217  if (!_isInitializing()) {... */\n    tag_417:\n        /* \"@openzeppelin/contracts-upgradeable/proxy/utils/Initializable.sol\":7082:7223  function _checkInitializing() internal view virtual {... */\n      jump\t// out\n        /* \"@openzeppelin/contracts-upgradeable/access/OwnableUpgradeable.sol\":1980:2215  function __Ownable_init_unchained(address initialOwner) internal onlyInitializing {... */\n    tag_323:\n        /* \"@openzeppelin/contracts-upgradeable/proxy/utils/Initializable.sol\":6929:6949  _checkInitializing() */\n      tag_419\n        /* \"@openzeppelin/contracts-upgradeable/proxy/utils/Initializable.sol\":6929:6947  _checkInitializing */\n      tag_320\n        /* \"@openzeppelin/contracts-upgradeable/proxy/utils/Initializable.sol\":6929:6949  _checkInitializing() */\n      jump\t// in\n    tag_419:\n        /* \"@openzeppelin/contracts-upgradeable/access/OwnableUpgradeable.sol\":2100:2101  0 */\n      0x00\n        /* \"@openzeppelin/contracts-upgradeable/access/OwnableUpgradeable.sol\":2076:2102  initialOwner == address(0) */\n      0xffffffffffffffffffffffffffffffffffffffff\n      and\n        /* \"@openzeppelin/contracts-upgradeable/access/OwnableUpgradeable.sol\":2076:2088  initialOwner */\n      dup2\n        /* \"@openzeppelin/contracts-upgradeable/access/OwnableUpgradeable.sol\":2076:2102  initialOwner == address(0) */\n      0xffffffffffffffffffffffffffffffffffffffff\n      and\n      sub\n        /* \"@openzeppelin/contracts-upgradeable/access/OwnableUpgradeable.sol\":2072:2167  if (initialOwner == address(0)) {... */\n      tag_421\n      jumpi\n        /* \"@openzeppelin/contracts-upgradeable/access/OwnableUpgradeable.sol\":2153:2154  0 */\n      0x00\n        /* \"@openzeppelin/contracts-upgradeable/access/OwnableUpgradeable.sol\":2125:2156  OwnableInvalidOwner(address(0)) */\n      mload(0x40)\n      0x1e4fbdf700000000000000000000000000000000000000000000000000000000\n      dup2\n      mstore\n      0x04\n      add\n      tag_422\n      swap2\n      swap1\n      tag_69\n      jump\t// in\n    tag_422:\n      mload(0x40)\n      dup1\n      swap2\n      sub\n      swap1\n      revert\n        /* \"@openzeppelin/contracts-upgradeable/access/OwnableUpgradeable.sol\":2072:2167  if (initialOwner == address(0)) {... */\n    tag_421:\n        /* \"@openzeppelin/contracts-upgradeable/access/OwnableUpgradeable.sol\":2176:2208  _transferOwnership(initialOwner) */\n      tag_423\n        /* \"@openzeppelin/contracts-upgradeable/access/OwnableUpgradeable.sol\":2195:2207  initialOwner */\n      dup2\n        /* \"@openzeppelin/contracts-upgradeable/access/OwnableUpgradeable.sol\":2176:2194  _transferOwnership */\n      tag_180\n        /* \"@openzeppelin/contracts-upgradeable/access/OwnableUpgradeable.sol\":2176:2208  _transferOwnership(initialOwner) */\n      jump\t// in\n    tag_423:\n        /* \"@openzeppelin/contracts-upgradeable/access/OwnableUpgradeable.sol\":1980:2215  function __Ownable_init_unchained(address initialOwner) internal onlyInitializing {... */\n      pop\n      jump\t// out\n        /* \"@openzeppelin/contracts-upgradeable/security/PausableUpgradeable.sol\":1187:1282  function __Pausable_init_unchained() internal onlyInitializing {... */\n    tag_328:\n        /* \"@openzeppelin/contracts-upgradeable/proxy/utils/Initializable.sol\":6929:6949  _checkInitializing() */\n      tag_425\n        /* \"@openzeppelin/contracts-upgradeable/proxy/utils/Initializable.sol\":6929:6947  _checkInitializing */\n      tag_320\n        /* \"@openzeppelin/contracts-upgradeable/proxy/utils/Initializable.sol\":6929:6949  _checkInitializing() */\n      jump\t// in\n    tag_425:\n        /* \"@openzeppelin/contracts-upgradeable/security/PausableUpgradeable.sol\":1270:1275  false */\n      0x00\n        /* \"@openzeppelin/contracts-upgradeable/security/PausableUpgradeable.sol\":1260:1267  _paused */\n      0x00\n      0x00\n        /* \"@openzeppelin/contracts-upgradeable/security/PausableUpgradeable.sol\":1260:1275  _paused = false */\n      0x0100\n      exp\n      dup2\n      sload\n      dup2\n      0xff\n      mul\n      not\n      and\n      swap1\n      dup4\n      iszero\n      iszero\n      mul\n      or\n      swap1\n      sstore\n      pop\n        /* \"@openzeppelin/contracts-upgradeable/security/PausableUpgradeable.sol\":1187:1282  function __Pausable_init_unchained() internal onlyInitializing {... */\n      jump\t// out\n        /* \"@openzeppelin/contracts-upgradeable/security/ReentrancyGuardUpgradeable.sol\":2006:2115  function __ReentrancyGuard_init_unchained() internal onlyInitializing {... */\n    tag_333:\n        /* \"@openzeppelin/contracts-upgradeable/proxy/utils/Initializable.sol\":6929:6949  _checkInitializing() */\n      tag_428\n        /* \"@openzeppelin/contracts-upgradeable/proxy/utils/Initializable.sol\":6929:6947  _checkInitializing */\n      tag_320\n        /* \"@openzeppelin/contracts-upgradeable/proxy/utils/Initializable.sol\":6929:6949  _checkInitializing() */\n      jump\t// in\n    tag_428:\n        /* \"@openzeppelin/contracts-upgradeable/security/ReentrancyGuardUpgradeable.sol\":1808:1809  1 */\n      0x01\n        /* \"@openzeppelin/contracts-upgradeable/security/ReentrancyGuardUpgradeable.sol\":2086:2093  _status */\n      0x32\n        /* \"@openzeppelin/contracts-upgradeable/security/ReentrancyGuardUpgradeable.sol\":2086:2108  _status = _NOT_ENTERED */\n      dup2\n      swap1\n      sstore\n      pop\n        /* \"@openzeppelin/contracts-upgradeable/security/ReentrancyGuardUpgradeable.sol\":2006:2115  function __ReentrancyGuard_init_unchained() internal onlyInitializing {... */\n      jump\t// out\n        /* \"@openzeppelin/contracts/utils/StorageSlot.sol\":1899:2062  function getAddressSlot(bytes32 slot) internal pure returns (AddressSlot storage r) {... */\n    tag_340:\n        /* \"@openzeppelin/contracts/utils/StorageSlot.sol\":1960:1981  AddressSlot storage r */\n      0x00\n        /* \"@openzeppelin/contracts/utils/StorageSlot.sol\":2042:2046  slot */\n      dup2\n        /* \"@openzeppelin/contracts/utils/StorageSlot.sol\":2032:2046  r.slot := slot */\n      swap1\n      pop\n        /* \"@openzeppelin/contracts/utils/StorageSlot.sol\":1899:2062  function getAddressSlot(bytes32 slot) internal pure returns (AddressSlot storage r) {... */\n      swap2\n      swap1\n      pop\n      jump\t// out\n        /* \"@openzeppelin/contracts/proxy/ERC1967/ERC1967Utils.sol\":1671:1952  function _setImplementation(address newImplementation) private {... */\n    tag_343:\n        /* \"@openzeppelin/contracts/proxy/ERC1967/ERC1967Utils.sol\":1781:1782  0 */\n      0x00\n        /* \"@openzeppelin/contracts/proxy/ERC1967/ERC1967Utils.sol\":1748:1765  newImplementation */\n      dup2\n        /* \"@openzeppelin/contracts/proxy/ERC1967/ERC1967Utils.sol\":1748:1777  newImplementation.code.length */\n      0xffffffffffffffffffffffffffffffffffffffff\n      and\n      extcodesize\n        /* \"@openzeppelin/contracts/proxy/ERC1967/ERC1967Utils.sol\":1748:1782  newImplementation.code.length == 0 */\n      sub\n        /* \"@openzeppelin/contracts/proxy/ERC1967/ERC1967Utils.sol\":1744:1863  if (newImplementation.code.length == 0) {... */\n      tag_432\n      jumpi\n        /* \"@openzeppelin/contracts/proxy/ERC1967/ERC1967Utils.sol\":1834:1851  newImplementation */\n      dup1\n        /* \"@openzeppelin/contracts/proxy/ERC1967/ERC1967Utils.sol\":1805:1852  ERC1967InvalidImplementation(newImplementation) */\n      mload(0x40)\n      0x4c9c8ce300000000000000000000000000000000000000000000000000000000\n      dup2\n      mstore\n      0x04\n      add\n      tag_433\n      swap2\n      swap1\n      tag_69\n      jump\t// in\n    tag_433:\n      mload(0x40)\n      dup1\n      swap2\n      sub\n      swap1\n      revert\n        /* \"@openzeppelin/contracts/proxy/ERC1967/ERC1967Utils.sol\":1744:1863  if (newImplementation.code.length == 0) {... */\n    tag_432:\n        /* \"@openzeppelin/contracts/proxy/ERC1967/ERC1967Utils.sol\":1928:1945  newImplementation */\n      dup1\n        /* \"@openzeppelin/contracts/proxy/ERC1967/ERC1967Utils.sol\":1872:1919  StorageSlot.getAddressSlot(IMPLEMENTATION_SLOT) */\n      tag_434\n        /* \"@openzeppelin/contracts/proxy/ERC1967/ERC1967Utils.sol\":811:877  0x360894a13ba1a3210667c828492db98dca3e2076cc3735a920a3ca505d382bbc */\n      0x360894a13ba1a3210667c828492db98dca3e2076cc3735a920a3ca505d382bbc\n        /* \"@openzeppelin/contracts/proxy/ERC1967/ERC1967Utils.sol\":1899:1918  IMPLEMENTATION_SLOT */\n      0x00\n      shl\n        /* \"@openzeppelin/contracts/proxy/ERC1967/ERC1967Utils.sol\":1872:1898  StorageSlot.getAddressSlot */\n      tag_340\n        /* \"@openzeppelin/contracts/proxy/ERC1967/ERC1967Utils.sol\":1872:1919  StorageSlot.getAddressSlot(IMPLEMENTATION_SLOT) */\n      jump\t// in\n    tag_434:\n        /* \"@openzeppelin/contracts/proxy/ERC1967/ERC1967Utils.sol\":1872:1925  StorageSlot.getAddressSlot(IMPLEMENTATION_SLOT).value */\n      0x00\n      add\n      0x00\n        /* \"@openzeppelin/contracts/proxy/ERC1967/ERC1967Utils.sol\":1872:1945  StorageSlot.getAddressSlot(IMPLEMENTATION_SLOT).value = newImplementation */\n      0x0100\n      exp\n      dup2\n      sload\n      dup2\n      0xffffffffffffffffffffffffffffffffffffffff\n      mul\n      not\n      and\n      swap1\n      dup4\n      0xffffffffffffffffffffffffffffffffffffffff\n      and\n      mul\n      or\n      swap1\n      sstore\n      pop\n        /* \"@openzeppelin/contracts/proxy/ERC1967/ERC1967Utils.sol\":1671:1952  function _setImplementation(address newImplementation) private {... */\n      pop\n      jump\t// out\n        /* \"@openzeppelin/contracts/utils/Address.sol\":3916:4169  function functionDelegateCall(address target, bytes memory data) internal returns (bytes memory) {... */\n    tag_346:\n        /* \"@openzeppelin/contracts/utils/Address.sol\":3999:4011  bytes memory */\n      0x60\n        /* \"@openzeppelin/contracts/utils/Address.sol\":4024:4036  bool success */\n      0x00\n        /* \"@openzeppelin/contracts/utils/Address.sol\":4038:4061  bytes memory returndata */\n      0x00\n        /* \"@openzeppelin/contracts/utils/Address.sol\":4065:4071  target */\n      dup5\n        /* \"@openzeppelin/contracts/utils/Address.sol\":4065:4084  target.delegatecall */\n      0xffffffffffffffffffffffffffffffffffffffff\n      and\n        /* \"@openzeppelin/contracts/utils/Address.sol\":4085:4089  data */\n      dup5\n        /* \"@openzeppelin/contracts/utils/Address.sol\":4065:4090  target.delegatecall(data) */\n      mload(0x40)\n      tag_436\n      swap2\n      swap1\n      tag_437\n      jump\t// in\n    tag_436:\n      0x00\n      mload(0x40)\n      dup1\n      dup4\n      sub\n      dup2\n      dup6\n      gas\n      delegatecall\n      swap2\n      pop\n      pop\n      returndatasize\n      dup1\n      0x00\n      dup2\n      eq\n      tag_440\n      jumpi\n      mload(0x40)\n      swap2\n      pop\n      and(add(returndatasize, 0x3f), not(0x1f))\n      dup3\n      add\n      0x40\n      mstore\n      returndatasize\n      dup3\n      mstore\n      returndatasize\n      0x00\n      0x20\n      dup5\n      add\n      returndatacopy\n      jump(tag_439)\n    tag_440:\n      0x60\n      swap2\n      pop\n    tag_439:\n      pop\n        /* \"@openzeppelin/contracts/utils/Address.sol\":4023:4090  (bool success, bytes memory returndata) = target.delegatecall(data) */\n      swap2\n      pop\n      swap2\n      pop\n        /* \"@openzeppelin/contracts/utils/Address.sol\":4107:4162  verifyCallResultFromTarget(target, success, returndata) */\n      tag_441\n        /* \"@openzeppelin/contracts/utils/Address.sol\":4134:4140  target */\n      dup6\n        /* \"@openzeppelin/contracts/utils/Address.sol\":4142:4149  success */\n      dup4\n        /* \"@openzeppelin/contracts/utils/Address.sol\":4151:4161  returndata */\n      dup4\n        /* \"@openzeppelin/contracts/utils/Address.sol\":4107:4133  verifyCallResultFromTarget */\n      tag_442\n        /* \"@openzeppelin/contracts/utils/Address.sol\":4107:4162  verifyCallResultFromTarget(target, success, returndata) */\n      jump\t// in\n    tag_441:\n        /* \"@openzeppelin/contracts/utils/Address.sol\":4100:4162  return verifyCallResultFromTarget(target, success, returndata) */\n      swap3\n      pop\n      pop\n      pop\n        /* \"@openzeppelin/contracts/utils/Address.sol\":3916:4169  function functionDelegateCall(address target, bytes memory data) internal returns (bytes memory) {... */\n      swap3\n      swap2\n      pop\n      pop\n      jump\t// out\n        /* \"@openzeppelin/contracts/proxy/ERC1967/ERC1967Utils.sol\":6113:6235  function _checkNonPayable() private {... */\n    tag_349:\n        /* \"@openzeppelin/contracts/proxy/ERC1967/ERC1967Utils.sol\":6175:6176  0 */\n      0x00\n        /* \"@openzeppelin/contracts/proxy/ERC1967/ERC1967Utils.sol\":6163:6172  msg.value */\n      callvalue\n        /* \"@openzeppelin/contracts/proxy/ERC1967/ERC1967Utils.sol\":6163:6176  msg.value > 0 */\n      gt\n        /* \"@openzeppelin/contracts/proxy/ERC1967/ERC1967Utils.sol\":6159:6229  if (msg.value > 0) {... */\n      iszero\n      tag_444\n      jumpi\n        /* \"@openzeppelin/contracts/proxy/ERC1967/ERC1967Utils.sol\":6199:6218  ERC1967NonPayable() */\n      mload(0x40)\n      0xb398979f00000000000000000000000000000000000000000000000000000000\n      dup2\n      mstore\n      0x04\n      add\n      mload(0x40)\n      dup1\n      swap2\n      sub\n      swap1\n      revert\n        /* \"@openzeppelin/contracts/proxy/ERC1967/ERC1967Utils.sol\":6159:6229  if (msg.value > 0) {... */\n    tag_444:\n        /* \"@openzeppelin/contracts/proxy/ERC1967/ERC1967Utils.sol\":6113:6235  function _checkNonPayable() private {... */\n      jump\t// out\n        /* \"@openzeppelin/contracts-upgradeable/proxy/utils/Initializable.sol\":8485:8605  function _isInitializing() internal view returns (bool) {... */\n    tag_416:\n        /* \"@openzeppelin/contracts-upgradeable/proxy/utils/Initializable.sol\":8535:8539  bool */\n      0x00\n        /* \"@openzeppelin/contracts-upgradeable/proxy/utils/Initializable.sol\":8558:8584  _getInitializableStorage() */\n      tag_446\n        /* \"@openzeppelin/contracts-upgradeable/proxy/utils/Initializable.sol\":8558:8582  _getInitializableStorage */\n      tag_218\n        /* \"@openzeppelin/contracts-upgradeable/proxy/utils/Initializable.sol\":8558:8584  _getInitializableStorage() */\n      jump\t// in\n    tag_446:\n        /* \"@openzeppelin/contracts-upgradeable/proxy/utils/Initializable.sol\":8558:8598  _getInitializableStorage()._initializing */\n      0x00\n      add\n      0x08\n      swap1\n      sload\n      swap1\n      0x0100\n      exp\n      swap1\n      div\n      0xff\n      and\n        /* \"@openzeppelin/contracts-upgradeable/proxy/utils/Initializable.sol\":8551:8598  return _getInitializableStorage()._initializing */\n      swap1\n      pop\n        /* \"@openzeppelin/contracts-upgradeable/proxy/utils/Initializable.sol\":8485:8605  function _isInitializing() internal view returns (bool) {... */\n      swap1\n      jump\t// out\n        /* \"@openzeppelin/contracts/utils/Address.sol\":4437:5019  function verifyCallResultFromTarget(... */\n    tag_442:\n        /* \"@openzeppelin/contracts/utils/Address.sol\":4581:4593  bytes memory */\n      0x60\n        /* \"@openzeppelin/contracts/utils/Address.sol\":4610:4617  success */\n      dup3\n        /* \"@openzeppelin/contracts/utils/Address.sol\":4605:5013  if (!success) {... */\n      tag_448\n      jumpi\n        /* \"@openzeppelin/contracts/utils/Address.sol\":4633:4652  _revert(returndata) */\n      tag_449\n        /* \"@openzeppelin/contracts/utils/Address.sol\":4641:4651  returndata */\n      dup3\n        /* \"@openzeppelin/contracts/utils/Address.sol\":4633:4640  _revert */\n      tag_450\n        /* \"@openzeppelin/contracts/utils/Address.sol\":4633:4652  _revert(returndata) */\n      jump\t// in\n    tag_449:\n        /* \"@openzeppelin/contracts/utils/Address.sol\":4605:5013  if (!success) {... */\n      jump(tag_451)\n    tag_448:\n        /* \"@openzeppelin/contracts/utils/Address.sol\":4878:4879  0 */\n      0x00\n        /* \"@openzeppelin/contracts/utils/Address.sol\":4857:4867  returndata */\n      dup3\n        /* \"@openzeppelin/contracts/utils/Address.sol\":4857:4874  returndata.length */\n      mload\n        /* \"@openzeppelin/contracts/utils/Address.sol\":4857:4879  returndata.length == 0 */\n      eq\n        /* \"@openzeppelin/contracts/utils/Address.sol\":4857:4906  returndata.length == 0 && target.code.length == 0 */\n      dup1\n      iszero\n      tag_452\n      jumpi\n      pop\n        /* \"@openzeppelin/contracts/utils/Address.sol\":4905:4906  0 */\n      0x00\n        /* \"@openzeppelin/contracts/utils/Address.sol\":4883:4889  target */\n      dup5\n        /* \"@openzeppelin/contracts/utils/Address.sol\":4883:4901  target.code.length */\n      0xffffffffffffffffffffffffffffffffffffffff\n      and\n      extcodesize\n        /* \"@openzeppelin/contracts/utils/Address.sol\":4883:4906  target.code.length == 0 */\n      eq\n        /* \"@openzeppelin/contracts/utils/Address.sol\":4857:4906  returndata.length == 0 && target.code.length == 0 */\n    tag_452:\n        /* \"@openzeppelin/contracts/utils/Address.sol\":4853:4972  if (returndata.length == 0 && target.code.length == 0) {... */\n      iszero\n      tag_453\n      jumpi\n        /* \"@openzeppelin/contracts/utils/Address.sol\":4950:4956  target */\n      dup4\n        /* \"@openzeppelin/contracts/utils/Address.sol\":4933:4957  AddressEmptyCode(target) */\n      mload(0x40)\n      0x9996b31500000000000000000000000000000000000000000000000000000000\n      dup2\n      mstore\n      0x04\n      add\n      tag_454\n      swap2\n      swap1\n      tag_69\n      jump\t// in\n    tag_454:\n      mload(0x40)\n      dup1\n      swap2\n      sub\n      swap1\n      revert\n        /* \"@openzeppelin/contracts/utils/Address.sol\":4853:4972  if (returndata.length == 0 && target.code.length == 0) {... */\n    tag_453:\n        /* \"@openzeppelin/contracts/utils/Address.sol\":4992:5002  returndata */\n      dup2\n        /* \"@openzeppelin/contracts/utils/Address.sol\":4985:5002  return returndata */\n      swap1\n      pop\n      jump(tag_447)\n        /* \"@openzeppelin/contracts/utils/Address.sol\":4605:5013  if (!success) {... */\n    tag_451:\n        /* \"@openzeppelin/contracts/utils/Address.sol\":4437:5019  function verifyCallResultFromTarget(... */\n    tag_447:\n      swap4\n      swap3\n      pop\n      pop\n      pop\n      jump\t// out\n        /* \"@openzeppelin/contracts/utils/Address.sol\":5559:5993  function _revert(bytes memory returndata) private pure {... */\n    tag_450:\n        /* \"@openzeppelin/contracts/utils/Address.sol\":5710:5711  0 */\n      0x00\n        /* \"@openzeppelin/contracts/utils/Address.sol\":5690:5700  returndata */\n      dup2\n        /* \"@openzeppelin/contracts/utils/Address.sol\":5690:5707  returndata.length */\n      mload\n        /* \"@openzeppelin/contracts/utils/Address.sol\":5690:5711  returndata.length > 0 */\n      gt\n        /* \"@openzeppelin/contracts/utils/Address.sol\":5686:5987  if (returndata.length > 0) {... */\n      iszero\n      tag_456\n      jumpi\n        /* \"@openzeppelin/contracts/utils/Address.sol\":5894:5904  returndata */\n      dup1\n        /* \"@openzeppelin/contracts/utils/Address.sol\":5888:5905  mload(returndata) */\n      mload\n        /* \"@openzeppelin/contracts/utils/Address.sol\":5881:5885  0x20 */\n      0x20\n        /* \"@openzeppelin/contracts/utils/Address.sol\":5869:5879  returndata */\n      dup3\n        /* \"@openzeppelin/contracts/utils/Address.sol\":5865:5886  add(returndata, 0x20) */\n      add\n        /* \"@openzeppelin/contracts/utils/Address.sol\":5858:5906  revert(add(returndata, 0x20), mload(returndata)) */\n      revert\n        /* \"@openzeppelin/contracts/utils/Address.sol\":5686:5987  if (returndata.length > 0) {... */\n    tag_456:\n        /* \"@openzeppelin/contracts/utils/Address.sol\":5957:5976  Errors.FailedCall() */\n      mload(0x40)\n      0xd6bda27500000000000000000000000000000000000000000000000000000000\n      dup2\n      mstore\n      0x04\n      add\n      mload(0x40)\n      dup1\n      swap2\n      sub\n      swap1\n      revert\n    tag_175:\n      pop\n      dup1\n      sload\n      0x00\n      dup3\n      sstore\n      0x02\n      mul\n      swap1\n      0x00\n      mstore\n      keccak256(0x00, 0x20)\n      swap1\n      dup2\n      add\n      swap1\n      tag_459\n      swap2\n      swap1\n      tag_460\n      jump\t// in\n    tag_459:\n      pop\n      jump\t// out\n    tag_201:\n      mload(0x40)\n      dup1\n      0x40\n      add\n      0x40\n      mstore\n      dup1\n      and(0xffffffffffffffffffffffffffffffffffffffff, 0x00)\n      dup2\n      mstore\n      0x20\n      add\n      0x00\n      dup2\n      mstore\n      pop\n      swap1\n      jump\t// out\n    tag_460:\n    tag_461:\n      dup1\n      dup3\n      gt\n      iszero\n      tag_462\n      jumpi\n      0x00\n      0x00\n      dup3\n      add\n      exp(0x0100, 0x00)\n      dup2\n      sload\n      swap1\n      0xffffffffffffffffffffffffffffffffffffffff\n      mul\n      not\n      and\n      swap1\n      sstore\n      0x01\n      dup3\n      add\n      0x00\n      swap1\n      sstore\n      pop\n      0x02\n      add\n      jump(tag_461)\n    tag_462:\n      pop\n      swap1\n      jump\t// out\n        /* \"#utility.yul\":7:82   */\n    tag_463:\n        /* \"#utility.yul\":40:46   */\n      0x00\n        /* \"#utility.yul\":73:75   */\n      0x40\n        /* \"#utility.yul\":67:76   */\n      mload\n        /* \"#utility.yul\":57:76   */\n      swap1\n      pop\n        /* \"#utility.yul\":7:82   */\n      swap1\n      jump\t// out\n        /* \"#utility.yul\":88:205   */\n    tag_464:\n        /* \"#utility.yul\":197:198   */\n      0x00\n        /* \"#utility.yul\":194:195   */\n      0x00\n        /* \"#utility.yul\":187:199   */\n      revert\n        /* \"#utility.yul\":211:328   */\n    tag_465:\n        /* \"#utility.yul\":320:321   */\n      0x00\n        /* \"#utility.yul\":317:318   */\n      0x00\n        /* \"#utility.yul\":310:322   */\n      revert\n        /* \"#utility.yul\":334:460   */\n    tag_466:\n        /* \"#utility.yul\":371:378   */\n      0x00\n        /* \"#utility.yul\":411:453   */\n      0xffffffffffffffffffffffffffffffffffffffff\n        /* \"#utility.yul\":404:409   */\n      dup3\n        /* \"#utility.yul\":400:454   */\n      and\n        /* \"#utility.yul\":389:454   */\n      swap1\n      pop\n        /* \"#utility.yul\":334:460   */\n      swap2\n      swap1\n      pop\n      jump\t// out\n        /* \"#utility.yul\":466:562   */\n    tag_467:\n        /* \"#utility.yul\":503:510   */\n      0x00\n        /* \"#utility.yul\":532:556   */\n      tag_534\n        /* \"#utility.yul\":550:555   */\n      dup3\n        /* \"#utility.yul\":532:556   */\n      tag_466\n      jump\t// in\n    tag_534:\n        /* \"#utility.yul\":521:556   */\n      swap1\n      pop\n        /* \"#utility.yul\":466:562   */\n      swap2\n      swap1\n      pop\n      jump\t// out\n        /* \"#utility.yul\":568:690   */\n    tag_468:\n        /* \"#utility.yul\":641:665   */\n      tag_536\n        /* \"#utility.yul\":659:664   */\n      dup2\n        /* \"#utility.yul\":641:665   */\n      tag_467\n      jump\t// in\n    tag_536:\n        /* \"#utility.yul\":634:639   */\n      dup2\n        /* \"#utility.yul\":631:666   */\n      eq\n        /* \"#utility.yul\":621:684   */\n      tag_537\n      jumpi\n        /* \"#utility.yul\":680:681   */\n      0x00\n        /* \"#utility.yul\":677:678   */\n      0x00\n        /* \"#utility.yul\":670:682   */\n      revert\n        /* \"#utility.yul\":621:684   */\n    tag_537:\n        /* \"#utility.yul\":568:690   */\n      pop\n      jump\t// out\n        /* \"#utility.yul\":696:835   */\n    tag_469:\n        /* \"#utility.yul\":742:747   */\n      0x00\n        /* \"#utility.yul\":780:786   */\n      dup2\n        /* \"#utility.yul\":767:787   */\n      calldataload\n        /* \"#utility.yul\":758:787   */\n      swap1\n      pop\n        /* \"#utility.yul\":796:829   */\n      tag_539\n        /* \"#utility.yul\":823:828   */\n      dup2\n        /* \"#utility.yul\":796:829   */\n      tag_468\n      jump\t// in\n    tag_539:\n        /* \"#utility.yul\":696:835   */\n      swap3\n      swap2\n      pop\n      pop\n      jump\t// out\n        /* \"#utility.yul\":841:1170   */\n    tag_26:\n        /* \"#utility.yul\":900:906   */\n      0x00\n        /* \"#utility.yul\":949:951   */\n      0x20\n        /* \"#utility.yul\":937:946   */\n      dup3\n        /* \"#utility.yul\":928:935   */\n      dup5\n        /* \"#utility.yul\":924:947   */\n      sub\n        /* \"#utility.yul\":920:952   */\n      slt\n        /* \"#utility.yul\":917:1036   */\n      iszero\n      tag_541\n      jumpi\n        /* \"#utility.yul\":955:1034   */\n      tag_542\n      tag_464\n      jump\t// in\n    tag_542:\n        /* \"#utility.yul\":917:1036   */\n    tag_541:\n        /* \"#utility.yul\":1075:1076   */\n      0x00\n        /* \"#utility.yul\":1100:1153   */\n      tag_543\n        /* \"#utility.yul\":1145:1152   */\n      dup5\n        /* \"#utility.yul\":1136:1142   */\n      dup3\n        /* \"#utility.yul\":1125:1134   */\n      dup6\n        /* \"#utility.yul\":1121:1143   */\n      add\n        /* \"#utility.yul\":1100:1153   */\n      tag_469\n      jump\t// in\n    tag_543:\n        /* \"#utility.yul\":1090:1153   */\n      swap2\n      pop\n        /* \"#utility.yul\":1046:1163   */\n      pop\n        /* \"#utility.yul\":841:1170   */\n      swap3\n      swap2\n      pop\n      pop\n      jump\t// out\n        /* \"#utility.yul\":1176:1253   */\n    tag_470:\n        /* \"#utility.yul\":1213:1220   */\n      0x00\n        /* \"#utility.yul\":1242:1247   */\n      dup2\n        /* \"#utility.yul\":1231:1247   */\n      swap1\n      pop\n        /* \"#utility.yul\":1176:1253   */\n      swap2\n      swap1\n      pop\n      jump\t// out\n        /* \"#utility.yul\":1259:1377   */\n    tag_471:\n        /* \"#utility.yul\":1346:1370   */\n      tag_546\n        /* \"#utility.yul\":1364:1369   */\n      dup2\n        /* \"#utility.yul\":1346:1370   */\n      tag_470\n      jump\t// in\n    tag_546:\n        /* \"#utility.yul\":1341:1344   */\n      dup3\n        /* \"#utility.yul\":1334:1371   */\n      mstore\n        /* \"#utility.yul\":1259:1377   */\n      pop\n      pop\n      jump\t// out\n        /* \"#utility.yul\":1383:1605   */\n    tag_29:\n        /* \"#utility.yul\":1476:1480   */\n      0x00\n        /* \"#utility.yul\":1514:1516   */\n      0x20\n        /* \"#utility.yul\":1503:1512   */\n      dup3\n        /* \"#utility.yul\":1499:1517   */\n      add\n        /* \"#utility.yul\":1491:1517   */\n      swap1\n      pop\n        /* \"#utility.yul\":1527:1598   */\n      tag_548\n        /* \"#utility.yul\":1595:1596   */\n      0x00\n        /* \"#utility.yul\":1584:1593   */\n      dup4\n        /* \"#utility.yul\":1580:1597   */\n      add\n        /* \"#utility.yul\":1571:1577   */\n      dup5\n        /* \"#utility.yul\":1527:1598   */\n      tag_471\n      jump\t// in\n    tag_548:\n        /* \"#utility.yul\":1383:1605   */\n      swap3\n      swap2\n      pop\n      pop\n      jump\t// out\n        /* \"#utility.yul\":1611:1733   */\n    tag_472:\n        /* \"#utility.yul\":1684:1708   */\n      tag_550\n        /* \"#utility.yul\":1702:1707   */\n      dup2\n        /* \"#utility.yul\":1684:1708   */\n      tag_470\n      jump\t// in\n    tag_550:\n        /* \"#utility.yul\":1677:1682   */\n      dup2\n        /* \"#utility.yul\":1674:1709   */\n      eq\n        /* \"#utility.yul\":1664:1727   */\n      tag_551\n      jumpi\n        /* \"#utility.yul\":1723:1724   */\n      0x00\n        /* \"#utility.yul\":1720:1721   */\n      0x00\n        /* \"#utility.yul\":1713:1725   */\n      revert\n        /* \"#utility.yul\":1664:1727   */\n    tag_551:\n        /* \"#utility.yul\":1611:1733   */\n      pop\n      jump\t// out\n        /* \"#utility.yul\":1739:1878   */\n    tag_473:\n        /* \"#utility.yul\":1785:1790   */\n      0x00\n        /* \"#utility.yul\":1823:1829   */\n      dup2\n        /* \"#utility.yul\":1810:1830   */\n      calldataload\n        /* \"#utility.yul\":1801:1830   */\n      swap1\n      pop\n        /* \"#utility.yul\":1839:1872   */\n      tag_553\n        /* \"#utility.yul\":1866:1871   */\n      dup2\n        /* \"#utility.yul\":1839:1872   */\n      tag_472\n      jump\t// in\n    tag_553:\n        /* \"#utility.yul\":1739:1878   */\n      swap3\n      swap2\n      pop\n      pop\n      jump\t// out\n        /* \"#utility.yul\":1884:2213   */\n    tag_33:\n        /* \"#utility.yul\":1943:1949   */\n      0x00\n        /* \"#utility.yul\":1992:1994   */\n      0x20\n        /* \"#utility.yul\":1980:1989   */\n      dup3\n        /* \"#utility.yul\":1971:1978   */\n      dup5\n        /* \"#utility.yul\":1967:1990   */\n      sub\n        /* \"#utility.yul\":1963:1995   */\n      slt\n        /* \"#utility.yul\":1960:2079   */\n      iszero\n      tag_555\n      jumpi\n        /* \"#utility.yul\":1998:2077   */\n      tag_556\n      tag_464\n      jump\t// in\n    tag_556:\n        /* \"#utility.yul\":1960:2079   */\n    tag_555:\n        /* \"#utility.yul\":2118:2119   */\n      0x00\n        /* \"#utility.yul\":2143:2196   */\n      tag_557\n        /* \"#utility.yul\":2188:2195   */\n      dup5\n        /* \"#utility.yul\":2179:2185   */\n      dup3\n        /* \"#utility.yul\":2168:2177   */\n      dup6\n        /* \"#utility.yul\":2164:2186   */\n      add\n        /* \"#utility.yul\":2143:2196   */\n      tag_473\n      jump\t// in\n    tag_557:\n        /* \"#utility.yul\":2133:2196   */\n      swap2\n      pop\n        /* \"#utility.yul\":2089:2206   */\n      pop\n        /* \"#utility.yul\":1884:2213   */\n      swap3\n      swap2\n      pop\n      pop\n      jump\t// out\n        /* \"#utility.yul\":2219:2336   */\n    tag_474:\n        /* \"#utility.yul\":2328:2329   */\n      0x00\n        /* \"#utility.yul\":2325:2326   */\n      0x00\n        /* \"#utility.yul\":2318:2330   */\n      revert\n        /* \"#utility.yul\":2342:2459   */\n    tag_475:\n        /* \"#utility.yul\":2451:2452   */\n      0x00\n        /* \"#utility.yul\":2448:2449   */\n      0x00\n        /* \"#utility.yul\":2441:2453   */\n      revert\n        /* \"#utility.yul\":2465:2567   */\n    tag_476:\n        /* \"#utility.yul\":2506:2512   */\n      0x00\n        /* \"#utility.yul\":2557:2559   */\n      0x1f\n        /* \"#utility.yul\":2553:2560   */\n      not\n        /* \"#utility.yul\":2548:2550   */\n      0x1f\n        /* \"#utility.yul\":2541:2546   */\n      dup4\n        /* \"#utility.yul\":2537:2551   */\n      add\n        /* \"#utility.yul\":2533:2561   */\n      and\n        /* \"#utility.yul\":2523:2561   */\n      swap1\n      pop\n        /* \"#utility.yul\":2465:2567   */\n      swap2\n      swap1\n      pop\n      jump\t// out\n        /* \"#utility.yul\":2573:2753   */\n    tag_197:\n        /* \"#utility.yul\":2621:2698   */\n      0x4e487b7100000000000000000000000000000000000000000000000000000000\n        /* \"#utility.yul\":2618:2619   */\n      0x00\n        /* \"#utility.yul\":2611:2699   */\n      mstore\n        /* \"#utility.yul\":2718:2722   */\n      0x41\n        /* \"#utility.yul\":2715:2716   */\n      0x04\n        /* \"#utility.yul\":2708:2723   */\n      mstore\n        /* \"#utility.yul\":2742:2746   */\n      0x24\n        /* \"#utility.yul\":2739:2740   */\n      0x00\n        /* \"#utility.yul\":2732:2747   */\n      revert\n        /* \"#utility.yul\":2759:3040   */\n    tag_477:\n        /* \"#utility.yul\":2842:2869   */\n      tag_563\n        /* \"#utility.yul\":2864:2868   */\n      dup3\n        /* \"#utility.yul\":2842:2869   */\n      tag_476\n      jump\t// in\n    tag_563:\n        /* \"#utility.yul\":2834:2840   */\n      dup2\n        /* \"#utility.yul\":2830:2870   */\n      add\n        /* \"#utility.yul\":2972:2978   */\n      dup2\n        /* \"#utility.yul\":2960:2970   */\n      dup2\n        /* \"#utility.yul\":2957:2979   */\n      lt\n        /* \"#utility.yul\":2936:2954   */\n      0xffffffffffffffff\n        /* \"#utility.yul\":2924:2934   */\n      dup3\n        /* \"#utility.yul\":2921:2955   */\n      gt\n        /* \"#utility.yul\":2918:2980   */\n      or\n        /* \"#utility.yul\":2915:3003   */\n      iszero\n      tag_564\n      jumpi\n        /* \"#utility.yul\":2983:3001   */\n      tag_565\n      tag_197\n      jump\t// in\n    tag_565:\n        /* \"#utility.yul\":2915:3003   */\n    tag_564:\n        /* \"#utility.yul\":3023:3033   */\n      dup1\n        /* \"#utility.yul\":3019:3021   */\n      0x40\n        /* \"#utility.yul\":3012:3034   */\n      mstore\n        /* \"#utility.yul\":2802:3040   */\n      pop\n        /* \"#utility.yul\":2759:3040   */\n      pop\n      pop\n      jump\t// out\n        /* \"#utility.yul\":3046:3175   */\n    tag_478:\n        /* \"#utility.yul\":3080:3086   */\n      0x00\n        /* \"#utility.yul\":3107:3127   */\n      tag_567\n      tag_463\n      jump\t// in\n    tag_567:\n        /* \"#utility.yul\":3097:3127   */\n      swap1\n      pop\n        /* \"#utility.yul\":3136:3169   */\n      tag_568\n        /* \"#utility.yul\":3164:3168   */\n      dup3\n        /* \"#utility.yul\":3156:3162   */\n      dup3\n        /* \"#utility.yul\":3136:3169   */\n      tag_477\n      jump\t// in\n    tag_568:\n        /* \"#utility.yul\":3046:3175   */\n      swap2\n      swap1\n      pop\n      jump\t// out\n        /* \"#utility.yul\":3181:3488   */\n    tag_479:\n        /* \"#utility.yul\":3242:3246   */\n      0x00\n        /* \"#utility.yul\":3332:3350   */\n      0xffffffffffffffff\n        /* \"#utility.yul\":3324:3330   */\n      dup3\n        /* \"#utility.yul\":3321:3351   */\n      gt\n        /* \"#utility.yul\":3318:3374   */\n      iszero\n      tag_570\n      jumpi\n        /* \"#utility.yul\":3354:3372   */\n      tag_571\n      tag_197\n      jump\t// in\n    tag_571:\n        /* \"#utility.yul\":3318:3374   */\n    tag_570:\n        /* \"#utility.yul\":3392:3421   */\n      tag_572\n        /* \"#utility.yul\":3414:3420   */\n      dup3\n        /* \"#utility.yul\":3392:3421   */\n      tag_476\n      jump\t// in\n    tag_572:\n        /* \"#utility.yul\":3384:3421   */\n      swap1\n      pop\n        /* \"#utility.yul\":3476:3480   */\n      0x20\n        /* \"#utility.yul\":3470:3474   */\n      dup2\n        /* \"#utility.yul\":3466:3481   */\n      add\n        /* \"#utility.yul\":3458:3481   */\n      swap1\n      pop\n        /* \"#utility.yul\":3181:3488   */\n      swap2\n      swap1\n      pop\n      jump\t// out\n        /* \"#utility.yul\":3494:3642   */\n    tag_480:\n        /* \"#utility.yul\":3592:3598   */\n      dup3\n        /* \"#utility.yul\":3587:3590   */\n      dup2\n        /* \"#utility.yul\":3582:3585   */\n      dup4\n        /* \"#utility.yul\":3569:3599   */\n      calldatacopy\n        /* \"#utility.yul\":3633:3634   */\n      0x00\n        /* \"#utility.yul\":3624:3630   */\n      dup4\n        /* \"#utility.yul\":3619:3622   */\n      dup4\n        /* \"#utility.yul\":3615:3631   */\n      add\n        /* \"#utility.yul\":3608:3635   */\n      mstore\n        /* \"#utility.yul\":3494:3642   */\n      pop\n      pop\n      pop\n      jump\t// out\n        /* \"#utility.yul\":3648:4071   */\n    tag_481:\n        /* \"#utility.yul\":3725:3730   */\n      0x00\n        /* \"#utility.yul\":3750:3815   */\n      tag_575\n        /* \"#utility.yul\":3766:3814   */\n      tag_576\n        /* \"#utility.yul\":3807:3813   */\n      dup5\n        /* \"#utility.yul\":3766:3814   */\n      tag_479\n      jump\t// in\n    tag_576:\n        /* \"#utility.yul\":3750:3815   */\n      tag_478\n      jump\t// in\n    tag_575:\n        /* \"#utility.yul\":3741:3815   */\n      swap1\n      pop\n        /* \"#utility.yul\":3838:3844   */\n      dup3\n        /* \"#utility.yul\":3831:3836   */\n      dup2\n        /* \"#utility.yul\":3824:3845   */\n      mstore\n        /* \"#utility.yul\":3876:3880   */\n      0x20\n        /* \"#utility.yul\":3869:3874   */\n      dup2\n        /* \"#utility.yul\":3865:3881   */\n      add\n        /* \"#utility.yul\":3914:3917   */\n      dup5\n        /* \"#utility.yul\":3905:3911   */\n      dup5\n        /* \"#utility.yul\":3900:3903   */\n      dup5\n        /* \"#utility.yul\":3896:3912   */\n      add\n        /* \"#utility.yul\":3893:3918   */\n      gt\n        /* \"#utility.yul\":3890:4002   */\n      iszero\n      tag_577\n      jumpi\n        /* \"#utility.yul\":3921:4000   */\n      tag_578\n      tag_475\n      jump\t// in\n    tag_578:\n        /* \"#utility.yul\":3890:4002   */\n    tag_577:\n        /* \"#utility.yul\":4011:4065   */\n      tag_579\n        /* \"#utility.yul\":4058:4064   */\n      dup5\n        /* \"#utility.yul\":4053:4056   */\n      dup3\n        /* \"#utility.yul\":4048:4051   */\n      dup6\n        /* \"#utility.yul\":4011:4065   */\n      tag_480\n      jump\t// in\n    tag_579:\n        /* \"#utility.yul\":3731:4071   */\n      pop\n        /* \"#utility.yul\":3648:4071   */\n      swap4\n      swap3\n      pop\n      pop\n      pop\n      jump\t// out\n        /* \"#utility.yul\":4090:4428   */\n    tag_482:\n        /* \"#utility.yul\":4145:4150   */\n      0x00\n        /* \"#utility.yul\":4194:4197   */\n      dup3\n        /* \"#utility.yul\":4187:4191   */\n      0x1f\n        /* \"#utility.yul\":4179:4185   */\n      dup4\n        /* \"#utility.yul\":4175:4192   */\n      add\n        /* \"#utility.yul\":4171:4198   */\n      slt\n        /* \"#utility.yul\":4161:4283   */\n      tag_581\n      jumpi\n        /* \"#utility.yul\":4202:4281   */\n      tag_582\n      tag_474\n      jump\t// in\n    tag_582:\n        /* \"#utility.yul\":4161:4283   */\n    tag_581:\n        /* \"#utility.yul\":4319:4325   */\n      dup2\n        /* \"#utility.yul\":4306:4326   */\n      calldataload\n        /* \"#utility.yul\":4344:4422   */\n      tag_583\n        /* \"#utility.yul\":4418:4421   */\n      dup5\n        /* \"#utility.yul\":4410:4416   */\n      dup3\n        /* \"#utility.yul\":4403:4407   */\n      0x20\n        /* \"#utility.yul\":4395:4401   */\n      dup7\n        /* \"#utility.yul\":4391:4408   */\n      add\n        /* \"#utility.yul\":4344:4422   */\n      tag_481\n      jump\t// in\n    tag_583:\n        /* \"#utility.yul\":4335:4422   */\n      swap2\n      pop\n        /* \"#utility.yul\":4151:4428   */\n      pop\n        /* \"#utility.yul\":4090:4428   */\n      swap3\n      swap2\n      pop\n      pop\n      jump\t// out\n        /* \"#utility.yul\":4434:5086   */\n    tag_37:\n        /* \"#utility.yul\":4511:4517   */\n      0x00\n        /* \"#utility.yul\":4519:4525   */\n      0x00\n        /* \"#utility.yul\":4568:4570   */\n      0x40\n        /* \"#utility.yul\":4556:4565   */\n      dup4\n        /* \"#utility.yul\":4547:4554   */\n      dup6\n        /* \"#utility.yul\":4543:4566   */\n      sub\n        /* \"#utility.yul\":4539:4571   */\n      slt\n        /* \"#utility.yul\":4536:4655   */\n      iszero\n      tag_585\n      jumpi\n        /* \"#utility.yul\":4574:4653   */\n      tag_586\n      tag_464\n      jump\t// in\n    tag_586:\n        /* \"#utility.yul\":4536:4655   */\n    tag_585:\n        /* \"#utility.yul\":4694:4695   */\n      0x00\n        /* \"#utility.yul\":4719:4772   */\n      tag_587\n        /* \"#utility.yul\":4764:4771   */\n      dup6\n        /* \"#utility.yul\":4755:4761   */\n      dup3\n        /* \"#utility.yul\":4744:4753   */\n      dup7\n        /* \"#utility.yul\":4740:4762   */\n      add\n        /* \"#utility.yul\":4719:4772   */\n      tag_469\n      jump\t// in\n    tag_587:\n        /* \"#utility.yul\":4709:4772   */\n      swap3\n      pop\n        /* \"#utility.yul\":4665:4782   */\n      pop\n        /* \"#utility.yul\":4849:4851   */\n      0x20\n        /* \"#utility.yul\":4838:4847   */\n      dup4\n        /* \"#utility.yul\":4834:4852   */\n      add\n        /* \"#utility.yul\":4821:4853   */\n      calldataload\n        /* \"#utility.yul\":4880:4898   */\n      0xffffffffffffffff\n        /* \"#utility.yul\":4872:4878   */\n      dup2\n        /* \"#utility.yul\":4869:4899   */\n      gt\n        /* \"#utility.yul\":4866:4983   */\n      iszero\n      tag_588\n      jumpi\n        /* \"#utility.yul\":4902:4981   */\n      tag_589\n      tag_465\n      jump\t// in\n    tag_589:\n        /* \"#utility.yul\":4866:4983   */\n    tag_588:\n        /* \"#utility.yul\":5007:5069   */\n      tag_590\n        /* \"#utility.yul\":5061:5068   */\n      dup6\n        /* \"#utility.yul\":5052:5058   */\n      dup3\n        /* \"#utility.yul\":5041:5050   */\n      dup7\n        /* \"#utility.yul\":5037:5059   */\n      add\n        /* \"#utility.yul\":5007:5069   */\n      tag_482\n      jump\t// in\n    tag_590:\n        /* \"#utility.yul\":4997:5069   */\n      swap2\n      pop\n        /* \"#utility.yul\":4792:5079   */\n      pop\n        /* \"#utility.yul\":4434:5086   */\n      swap3\n      pop\n      swap3\n      swap1\n      pop\n      jump\t// out\n        /* \"#utility.yul\":5092:5169   */\n    tag_483:\n        /* \"#utility.yul\":5129:5136   */\n      0x00\n        /* \"#utility.yul\":5158:5163   */\n      dup2\n        /* \"#utility.yul\":5147:5163   */\n      swap1\n      pop\n        /* \"#utility.yul\":5092:5169   */\n      swap2\n      swap1\n      pop\n      jump\t// out\n        /* \"#utility.yul\":5175:5293   */\n    tag_484:\n        /* \"#utility.yul\":5262:5286   */\n      tag_593\n        /* \"#utility.yul\":5280:5285   */\n      dup2\n        /* \"#utility.yul\":5262:5286   */\n      tag_483\n      jump\t// in\n    tag_593:\n        /* \"#utility.yul\":5257:5260   */\n      dup3\n        /* \"#utility.yul\":5250:5287   */\n      mstore\n        /* \"#utility.yul\":5175:5293   */\n      pop\n      pop\n      jump\t// out\n        /* \"#utility.yul\":5299:5521   */\n    tag_43:\n        /* \"#utility.yul\":5392:5396   */\n      0x00\n        /* \"#utility.yul\":5430:5432   */\n      0x20\n        /* \"#utility.yul\":5419:5428   */\n      dup3\n        /* \"#utility.yul\":5415:5433   */\n      add\n        /* \"#utility.yul\":5407:5433   */\n      swap1\n      pop\n        /* \"#utility.yul\":5443:5514   */\n      tag_595\n        /* \"#utility.yul\":5511:5512   */\n      0x00\n        /* \"#utility.yul\":5500:5509   */\n      dup4\n        /* \"#utility.yul\":5496:5513   */\n      add\n        /* \"#utility.yul\":5487:5493   */\n      dup5\n        /* \"#utility.yul\":5443:5514   */\n      tag_484\n      jump\t// in\n    tag_595:\n        /* \"#utility.yul\":5299:5521   */\n      swap3\n      swap2\n      pop\n      pop\n      jump\t// out\n        /* \"#utility.yul\":5527:5617   */\n    tag_485:\n        /* \"#utility.yul\":5561:5568   */\n      0x00\n        /* \"#utility.yul\":5604:5609   */\n      dup2\n        /* \"#utility.yul\":5597:5610   */\n      iszero\n        /* \"#utility.yul\":5590:5611   */\n      iszero\n        /* \"#utility.yul\":5579:5611   */\n      swap1\n      pop\n        /* \"#utility.yul\":5527:5617   */\n      swap2\n      swap1\n      pop\n      jump\t// out\n        /* \"#utility.yul\":5623:5732   */\n    tag_486:\n        /* \"#utility.yul\":5704:5725   */\n      tag_598\n        /* \"#utility.yul\":5719:5724   */\n      dup2\n        /* \"#utility.yul\":5704:5725   */\n      tag_485\n      jump\t// in\n    tag_598:\n        /* \"#utility.yul\":5699:5702   */\n      dup3\n        /* \"#utility.yul\":5692:5726   */\n      mstore\n        /* \"#utility.yul\":5623:5732   */\n      pop\n      pop\n      jump\t// out\n        /* \"#utility.yul\":5738:5948   */\n    tag_48:\n        /* \"#utility.yul\":5825:5829   */\n      0x00\n        /* \"#utility.yul\":5863:5865   */\n      0x20\n        /* \"#utility.yul\":5852:5861   */\n      dup3\n        /* \"#utility.yul\":5848:5866   */\n      add\n        /* \"#utility.yul\":5840:5866   */\n      swap1\n      pop\n        /* \"#utility.yul\":5876:5941   */\n      tag_600\n        /* \"#utility.yul\":5938:5939   */\n      0x00\n        /* \"#utility.yul\":5927:5936   */\n      dup4\n        /* \"#utility.yul\":5923:5940   */\n      add\n        /* \"#utility.yul\":5914:5920   */\n      dup5\n        /* \"#utility.yul\":5876:5941   */\n      tag_486\n      jump\t// in\n    tag_600:\n        /* \"#utility.yul\":5738:5948   */\n      swap3\n      swap2\n      pop\n      pop\n      jump\t// out\n        /* \"#utility.yul\":5954:6428   */\n    tag_52:\n        /* \"#utility.yul\":6022:6028   */\n      0x00\n        /* \"#utility.yul\":6030:6036   */\n      0x00\n        /* \"#utility.yul\":6079:6081   */\n      0x40\n        /* \"#utility.yul\":6067:6076   */\n      dup4\n        /* \"#utility.yul\":6058:6065   */\n      dup6\n        /* \"#utility.yul\":6054:6077   */\n      sub\n        /* \"#utility.yul\":6050:6082   */\n      slt\n        /* \"#utility.yul\":6047:6166   */\n      iszero\n      tag_602\n      jumpi\n        /* \"#utility.yul\":6085:6164   */\n      tag_603\n      tag_464\n      jump\t// in\n    tag_603:\n        /* \"#utility.yul\":6047:6166   */\n    tag_602:\n        /* \"#utility.yul\":6205:6206   */\n      0x00\n        /* \"#utility.yul\":6230:6283   */\n      tag_604\n        /* \"#utility.yul\":6275:6282   */\n      dup6\n        /* \"#utility.yul\":6266:6272   */\n      dup3\n        /* \"#utility.yul\":6255:6264   */\n      dup7\n        /* \"#utility.yul\":6251:6273   */\n      add\n        /* \"#utility.yul\":6230:6283   */\n      tag_469\n      jump\t// in\n    tag_604:\n        /* \"#utility.yul\":6220:6283   */\n      swap3\n      pop\n        /* \"#utility.yul\":6176:6293   */\n      pop\n        /* \"#utility.yul\":6332:6334   */\n      0x20\n        /* \"#utility.yul\":6358:6411   */\n      tag_605\n        /* \"#utility.yul\":6403:6410   */\n      dup6\n        /* \"#utility.yul\":6394:6400   */\n      dup3\n        /* \"#utility.yul\":6383:6392   */\n      dup7\n        /* \"#utility.yul\":6379:6401   */\n      add\n        /* \"#utility.yul\":6358:6411   */\n      tag_473\n      jump\t// in\n    tag_605:\n        /* \"#utility.yul\":6348:6411   */\n      swap2\n      pop\n        /* \"#utility.yul\":6303:6421   */\n      pop\n        /* \"#utility.yul\":5954:6428   */\n      swap3\n      pop\n      swap3\n      swap1\n      pop\n      jump\t// out\n        /* \"#utility.yul\":6434:6552   */\n    tag_487:\n        /* \"#utility.yul\":6521:6545   */\n      tag_607\n        /* \"#utility.yul\":6539:6544   */\n      dup2\n        /* \"#utility.yul\":6521:6545   */\n      tag_467\n      jump\t// in\n    tag_607:\n        /* \"#utility.yul\":6516:6519   */\n      dup3\n        /* \"#utility.yul\":6509:6546   */\n      mstore\n        /* \"#utility.yul\":6434:6552   */\n      pop\n      pop\n      jump\t// out\n        /* \"#utility.yul\":6558:6780   */\n    tag_69:\n        /* \"#utility.yul\":6651:6655   */\n      0x00\n        /* \"#utility.yul\":6689:6691   */\n      0x20\n        /* \"#utility.yul\":6678:6687   */\n      dup3\n        /* \"#utility.yul\":6674:6692   */\n      add\n        /* \"#utility.yul\":6666:6692   */\n      swap1\n      pop\n        /* \"#utility.yul\":6702:6773   */\n      tag_609\n        /* \"#utility.yul\":6770:6771   */\n      0x00\n        /* \"#utility.yul\":6759:6768   */\n      dup4\n        /* \"#utility.yul\":6755:6772   */\n      add\n        /* \"#utility.yul\":6746:6752   */\n      dup5\n        /* \"#utility.yul\":6702:6773   */\n      tag_487\n      jump\t// in\n    tag_609:\n        /* \"#utility.yul\":6558:6780   */\n      swap3\n      swap2\n      pop\n      pop\n      jump\t// out\n        /* \"#utility.yul\":6786:6902   */\n    tag_488:\n        /* \"#utility.yul\":6856:6877   */\n      tag_611\n        /* \"#utility.yul\":6871:6876   */\n      dup2\n        /* \"#utility.yul\":6856:6877   */\n      tag_485\n      jump\t// in\n    tag_611:\n        /* \"#utility.yul\":6849:6854   */\n      dup2\n        /* \"#utility.yul\":6846:6878   */\n      eq\n        /* \"#utility.yul\":6836:6896   */\n      tag_612\n      jumpi\n        /* \"#utility.yul\":6892:6893   */\n      0x00\n        /* \"#utility.yul\":6889:6890   */\n      0x00\n        /* \"#utility.yul\":6882:6894   */\n      revert\n        /* \"#utility.yul\":6836:6896   */\n    tag_612:\n        /* \"#utility.yul\":6786:6902   */\n      pop\n      jump\t// out\n        /* \"#utility.yul\":6908:7041   */\n    tag_489:\n        /* \"#utility.yul\":6951:6956   */\n      0x00\n        /* \"#utility.yul\":6989:6995   */\n      dup2\n        /* \"#utility.yul\":6976:6996   */\n      calldataload\n        /* \"#utility.yul\":6967:6996   */\n      swap1\n      pop\n        /* \"#utility.yul\":7005:7035   */\n      tag_614\n        /* \"#utility.yul\":7029:7034   */\n      dup2\n        /* \"#utility.yul\":7005:7035   */\n      tag_488\n      jump\t// in\n    tag_614:\n        /* \"#utility.yul\":6908:7041   */\n      swap3\n      swap2\n      pop\n      pop\n      jump\t// out\n        /* \"#utility.yul\":7047:7515   */\n    tag_78:\n        /* \"#utility.yul\":7112:7118   */\n      0x00\n        /* \"#utility.yul\":7120:7126   */\n      0x00\n        /* \"#utility.yul\":7169:7171   */\n      0x40\n        /* \"#utility.yul\":7157:7166   */\n      dup4\n        /* \"#utility.yul\":7148:7155   */\n      dup6\n        /* \"#utility.yul\":7144:7167   */\n      sub\n        /* \"#utility.yul\":7140:7172   */\n      slt\n        /* \"#utility.yul\":7137:7256   */\n      iszero\n      tag_616\n      jumpi\n        /* \"#utility.yul\":7175:7254   */\n      tag_617\n      tag_464\n      jump\t// in\n    tag_617:\n        /* \"#utility.yul\":7137:7256   */\n    tag_616:\n        /* \"#utility.yul\":7295:7296   */\n      0x00\n        /* \"#utility.yul\":7320:7373   */\n      tag_618\n        /* \"#utility.yul\":7365:7372   */\n      dup6\n        /* \"#utility.yul\":7356:7362   */\n      dup3\n        /* \"#utility.yul\":7345:7354   */\n      dup7\n        /* \"#utility.yul\":7341:7363   */\n      add\n        /* \"#utility.yul\":7320:7373   */\n      tag_469\n      jump\t// in\n    tag_618:\n        /* \"#utility.yul\":7310:7373   */\n      swap3\n      pop\n        /* \"#utility.yul\":7266:7383   */\n      pop\n        /* \"#utility.yul\":7422:7424   */\n      0x20\n        /* \"#utility.yul\":7448:7498   */\n      tag_619\n        /* \"#utility.yul\":7490:7497   */\n      dup6\n        /* \"#utility.yul\":7481:7487   */\n      dup3\n        /* \"#utility.yul\":7470:7479   */\n      dup7\n        /* \"#utility.yul\":7466:7488   */\n      add\n        /* \"#utility.yul\":7448:7498   */\n      tag_489\n      jump\t// in\n    tag_619:\n        /* \"#utility.yul\":7438:7498   */\n      swap2\n      pop\n        /* \"#utility.yul\":7393:7508   */\n      pop\n        /* \"#utility.yul\":7047:7515   */\n      swap3\n      pop\n      swap3\n      swap1\n      pop\n      jump\t// out\n        /* \"#utility.yul\":7521:7853   */\n    tag_85:\n        /* \"#utility.yul\":7642:7646   */\n      0x00\n        /* \"#utility.yul\":7680:7682   */\n      0x40\n        /* \"#utility.yul\":7669:7678   */\n      dup3\n        /* \"#utility.yul\":7665:7683   */\n      add\n        /* \"#utility.yul\":7657:7683   */\n      swap1\n      pop\n        /* \"#utility.yul\":7693:7764   */\n      tag_621\n        /* \"#utility.yul\":7761:7762   */\n      0x00\n        /* \"#utility.yul\":7750:7759   */\n      dup4\n        /* \"#utility.yul\":7746:7763   */\n      add\n        /* \"#utility.yul\":7737:7743   */\n      dup6\n        /* \"#utility.yul\":7693:7764   */\n      tag_471\n      jump\t// in\n    tag_621:\n        /* \"#utility.yul\":7774:7846   */\n      tag_622\n        /* \"#utility.yul\":7842:7844   */\n      0x20\n        /* \"#utility.yul\":7831:7840   */\n      dup4\n        /* \"#utility.yul\":7827:7845   */\n      add\n        /* \"#utility.yul\":7818:7824   */\n      dup5\n        /* \"#utility.yul\":7774:7846   */\n      tag_471\n      jump\t// in\n    tag_622:\n        /* \"#utility.yul\":7521:7853   */\n      swap4\n      swap3\n      pop\n      pop\n      pop\n      jump\t// out\n        /* \"#utility.yul\":7859:7958   */\n    tag_490:\n        /* \"#utility.yul\":7911:7917   */\n      0x00\n        /* \"#utility.yul\":7945:7950   */\n      dup2\n        /* \"#utility.yul\":7939:7951   */\n      mload\n        /* \"#utility.yul\":7929:7951   */\n      swap1\n      pop\n        /* \"#utility.yul\":7859:7958   */\n      swap2\n      swap1\n      pop\n      jump\t// out\n        /* \"#utility.yul\":7964:8133   */\n    tag_491:\n        /* \"#utility.yul\":8048:8059   */\n      0x00\n        /* \"#utility.yul\":8082:8088   */\n      dup3\n        /* \"#utility.yul\":8077:8080   */\n      dup3\n        /* \"#utility.yul\":8070:8089   */\n      mstore\n        /* \"#utility.yul\":8122:8126   */\n      0x20\n        /* \"#utility.yul\":8117:8120   */\n      dup3\n        /* \"#utility.yul\":8113:8127   */\n      add\n        /* \"#utility.yul\":8098:8127   */\n      swap1\n      pop\n        /* \"#utility.yul\":7964:8133   */\n      swap3\n      swap2\n      pop\n      pop\n      jump\t// out\n        /* \"#utility.yul\":8139:8278   */\n    tag_492:\n        /* \"#utility.yul\":8228:8234   */\n      dup3\n        /* \"#utility.yul\":8223:8226   */\n      dup2\n        /* \"#utility.yul\":8218:8221   */\n      dup4\n        /* \"#utility.yul\":8212:8235   */\n      mcopy\n        /* \"#utility.yul\":8269:8270   */\n      0x00\n        /* \"#utility.yul\":8260:8266   */\n      dup4\n        /* \"#utility.yul\":8255:8258   */\n      dup4\n        /* \"#utility.yul\":8251:8267   */\n      add\n        /* \"#utility.yul\":8244:8271   */\n      mstore\n        /* \"#utility.yul\":8139:8278   */\n      pop\n      pop\n      pop\n      jump\t// out\n        /* \"#utility.yul\":8284:8661   */\n    tag_493:\n        /* \"#utility.yul\":8372:8375   */\n      0x00\n        /* \"#utility.yul\":8400:8439   */\n      tag_627\n        /* \"#utility.yul\":8433:8438   */\n      dup3\n        /* \"#utility.yul\":8400:8439   */\n      tag_490\n      jump\t// in\n    tag_627:\n        /* \"#utility.yul\":8455:8526   */\n      tag_628\n        /* \"#utility.yul\":8519:8525   */\n      dup2\n        /* \"#utility.yul\":8514:8517   */\n      dup6\n        /* \"#utility.yul\":8455:8526   */\n      tag_491\n      jump\t// in\n    tag_628:\n        /* \"#utility.yul\":8448:8526   */\n      swap4\n      pop\n        /* \"#utility.yul\":8535:8600   */\n      tag_629\n        /* \"#utility.yul\":8593:8599   */\n      dup2\n        /* \"#utility.yul\":8588:8591   */\n      dup6\n        /* \"#utility.yul\":8581:8585   */\n      0x20\n        /* \"#utility.yul\":8574:8579   */\n      dup7\n        /* \"#utility.yul\":8570:8586   */\n      add\n        /* \"#utility.yul\":8535:8600   */\n      tag_492\n      jump\t// in\n    tag_629:\n        /* \"#utility.yul\":8625:8654   */\n      tag_630\n        /* \"#utility.yul\":8647:8653   */\n      dup2\n        /* \"#utility.yul\":8625:8654   */\n      tag_476\n      jump\t// in\n    tag_630:\n        /* \"#utility.yul\":8620:8623   */\n      dup5\n        /* \"#utility.yul\":8616:8655   */\n      add\n        /* \"#utility.yul\":8609:8655   */\n      swap2\n      pop\n        /* \"#utility.yul\":8376:8661   */\n      pop\n        /* \"#utility.yul\":8284:8661   */\n      swap3\n      swap2\n      pop\n      pop\n      jump\t// out\n        /* \"#utility.yul\":8667:8980   */\n    tag_90:\n        /* \"#utility.yul\":8780:8784   */\n      0x00\n        /* \"#utility.yul\":8818:8820   */\n      0x20\n        /* \"#utility.yul\":8807:8816   */\n      dup3\n        /* \"#utility.yul\":8803:8821   */\n      add\n        /* \"#utility.yul\":8795:8821   */\n      swap1\n      pop\n        /* \"#utility.yul\":8867:8876   */\n      dup2\n        /* \"#utility.yul\":8861:8865   */\n      dup2\n        /* \"#utility.yul\":8857:8877   */\n      sub\n        /* \"#utility.yul\":8853:8854   */\n      0x00\n        /* \"#utility.yul\":8842:8851   */\n      dup4\n        /* \"#utility.yul\":8838:8855   */\n      add\n        /* \"#utility.yul\":8831:8878   */\n      mstore\n        /* \"#utility.yul\":8895:8973   */\n      tag_632\n        /* \"#utility.yul\":8968:8972   */\n      dup2\n        /* \"#utility.yul\":8959:8965   */\n      dup5\n        /* \"#utility.yul\":8895:8973   */\n      tag_493\n      jump\t// in\n    tag_632:\n        /* \"#utility.yul\":8887:8973   */\n      swap1\n      pop\n        /* \"#utility.yul\":8667:8980   */\n      swap3\n      swap2\n      pop\n      pop\n      jump\t// out\n        /* \"#utility.yul\":8986:9123   */\n    tag_494:\n        /* \"#utility.yul\":9076:9082   */\n      0x00\n        /* \"#utility.yul\":9110:9115   */\n      dup2\n        /* \"#utility.yul\":9104:9116   */\n      mload\n        /* \"#utility.yul\":9094:9116   */\n      swap1\n      pop\n        /* \"#utility.yul\":8986:9123   */\n      swap2\n      swap1\n      pop\n      jump\t// out\n        /* \"#utility.yul\":9129:9336   */\n    tag_495:\n        /* \"#utility.yul\":9251:9262   */\n      0x00\n        /* \"#utility.yul\":9285:9291   */\n      dup3\n        /* \"#utility.yul\":9280:9283   */\n      dup3\n        /* \"#utility.yul\":9273:9292   */\n      mstore\n        /* \"#utility.yul\":9325:9329   */\n      0x20\n        /* \"#utility.yul\":9320:9323   */\n      dup3\n        /* \"#utility.yul\":9316:9330   */\n      add\n        /* \"#utility.yul\":9301:9330   */\n      swap1\n      pop\n        /* \"#utility.yul\":9129:9336   */\n      swap3\n      swap2\n      pop\n      pop\n      jump\t// out\n        /* \"#utility.yul\":9342:9497   */\n    tag_496:\n        /* \"#utility.yul\":9432:9436   */\n      0x00\n        /* \"#utility.yul\":9455:9458   */\n      dup2\n        /* \"#utility.yul\":9447:9458   */\n      swap1\n      pop\n        /* \"#utility.yul\":9485:9489   */\n      0x20\n        /* \"#utility.yul\":9480:9483   */\n      dup3\n        /* \"#utility.yul\":9476:9490   */\n      add\n        /* \"#utility.yul\":9468:9490   */\n      swap1\n      pop\n        /* \"#utility.yul\":9342:9497   */\n      swap2\n      swap1\n      pop\n      jump\t// out\n        /* \"#utility.yul\":9503:9611   */\n    tag_497:\n        /* \"#utility.yul\":9580:9604   */\n      tag_637\n        /* \"#utility.yul\":9598:9603   */\n      dup2\n        /* \"#utility.yul\":9580:9604   */\n      tag_467\n      jump\t// in\n    tag_637:\n        /* \"#utility.yul\":9575:9578   */\n      dup3\n        /* \"#utility.yul\":9568:9605   */\n      mstore\n        /* \"#utility.yul\":9503:9611   */\n      pop\n      pop\n      jump\t// out\n        /* \"#utility.yul\":9617:9725   */\n    tag_498:\n        /* \"#utility.yul\":9694:9718   */\n      tag_639\n        /* \"#utility.yul\":9712:9717   */\n      dup2\n        /* \"#utility.yul\":9694:9718   */\n      tag_470\n      jump\t// in\n    tag_639:\n        /* \"#utility.yul\":9689:9692   */\n      dup3\n        /* \"#utility.yul\":9682:9719   */\n      mstore\n        /* \"#utility.yul\":9617:9725   */\n      pop\n      pop\n      jump\t// out\n        /* \"#utility.yul\":9813:10309   */\n    tag_499:\n        /* \"#utility.yul\":9946:9950   */\n      0x40\n        /* \"#utility.yul\":9941:9944   */\n      dup3\n        /* \"#utility.yul\":9937:9951   */\n      add\n        /* \"#utility.yul\":10035:10039   */\n      0x00\n        /* \"#utility.yul\":10028:10033   */\n      dup3\n        /* \"#utility.yul\":10024:10040   */\n      add\n        /* \"#utility.yul\":10018:10041   */\n      mload\n        /* \"#utility.yul\":10054:10117   */\n      tag_641\n        /* \"#utility.yul\":10111:10115   */\n      0x00\n        /* \"#utility.yul\":10106:10109   */\n      dup6\n        /* \"#utility.yul\":10102:10116   */\n      add\n        /* \"#utility.yul\":10088:10100   */\n      dup3\n        /* \"#utility.yul\":10054:10117   */\n      tag_497\n      jump\t// in\n    tag_641:\n        /* \"#utility.yul\":9961:10127   */\n      pop\n        /* \"#utility.yul\":10210:10214   */\n      0x20\n        /* \"#utility.yul\":10203:10208   */\n      dup3\n        /* \"#utility.yul\":10199:10215   */\n      add\n        /* \"#utility.yul\":10193:10216   */\n      mload\n        /* \"#utility.yul\":10229:10292   */\n      tag_642\n        /* \"#utility.yul\":10286:10290   */\n      0x20\n        /* \"#utility.yul\":10281:10284   */\n      dup6\n        /* \"#utility.yul\":10277:10291   */\n      add\n        /* \"#utility.yul\":10263:10275   */\n      dup3\n        /* \"#utility.yul\":10229:10292   */\n      tag_498\n      jump\t// in\n    tag_642:\n        /* \"#utility.yul\":10137:10302   */\n      pop\n        /* \"#utility.yul\":9915:10309   */\n      pop\n        /* \"#utility.yul\":9813:10309   */\n      pop\n      pop\n      jump\t// out\n        /* \"#utility.yul\":10315:10586   */\n    tag_500:\n        /* \"#utility.yul\":10430:10440   */\n      0x00\n        /* \"#utility.yul\":10451:10543   */\n      tag_644\n        /* \"#utility.yul\":10539:10542   */\n      dup4\n        /* \"#utility.yul\":10531:10537   */\n      dup4\n        /* \"#utility.yul\":10451:10543   */\n      tag_499\n      jump\t// in\n    tag_644:\n        /* \"#utility.yul\":10575:10579   */\n      0x40\n        /* \"#utility.yul\":10570:10573   */\n      dup4\n        /* \"#utility.yul\":10566:10580   */\n      add\n        /* \"#utility.yul\":10552:10580   */\n      swap1\n      pop\n        /* \"#utility.yul\":10315:10586   */\n      swap3\n      swap2\n      pop\n      pop\n      jump\t// out\n        /* \"#utility.yul\":10592:10728   */\n    tag_501:\n        /* \"#utility.yul\":10685:10689   */\n      0x00\n        /* \"#utility.yul\":10717:10721   */\n      0x20\n        /* \"#utility.yul\":10712:10715   */\n      dup3\n        /* \"#utility.yul\":10708:10722   */\n      add\n        /* \"#utility.yul\":10700:10722   */\n      swap1\n      pop\n        /* \"#utility.yul\":10592:10728   */\n      swap2\n      swap1\n      pop\n      jump\t// out\n        /* \"#utility.yul\":10820:11736   */\n    tag_502:\n        /* \"#utility.yul\":10985:10988   */\n      0x00\n        /* \"#utility.yul\":11014:11091   */\n      tag_647\n        /* \"#utility.yul\":11085:11090   */\n      dup3\n        /* \"#utility.yul\":11014:11091   */\n      tag_494\n      jump\t// in\n    tag_647:\n        /* \"#utility.yul\":11107:11216   */\n      tag_648\n        /* \"#utility.yul\":11209:11215   */\n      dup2\n        /* \"#utility.yul\":11204:11207   */\n      dup6\n        /* \"#utility.yul\":11107:11216   */\n      tag_495\n      jump\t// in\n    tag_648:\n        /* \"#utility.yul\":11100:11216   */\n      swap4\n      pop\n        /* \"#utility.yul\":11240:11319   */\n      tag_649\n        /* \"#utility.yul\":11313:11318   */\n      dup4\n        /* \"#utility.yul\":11240:11319   */\n      tag_496\n      jump\t// in\n    tag_649:\n        /* \"#utility.yul\":11342:11349   */\n      dup1\n        /* \"#utility.yul\":11373:11374   */\n      0x00\n        /* \"#utility.yul\":11358:11711   */\n    tag_650:\n        /* \"#utility.yul\":11383:11389   */\n      dup4\n        /* \"#utility.yul\":11380:11381   */\n      dup2\n        /* \"#utility.yul\":11377:11390   */\n      lt\n        /* \"#utility.yul\":11358:11711   */\n      iszero\n      tag_652\n      jumpi\n        /* \"#utility.yul\":11459:11465   */\n      dup2\n        /* \"#utility.yul\":11453:11466   */\n      mload\n        /* \"#utility.yul\":11486:11595   */\n      tag_653\n        /* \"#utility.yul\":11591:11594   */\n      dup9\n        /* \"#utility.yul\":11576:11589   */\n      dup3\n        /* \"#utility.yul\":11486:11595   */\n      tag_500\n      jump\t// in\n    tag_653:\n        /* \"#utility.yul\":11479:11595   */\n      swap8\n      pop\n        /* \"#utility.yul\":11618:11701   */\n      tag_654\n        /* \"#utility.yul\":11694:11700   */\n      dup4\n        /* \"#utility.yul\":11618:11701   */\n      tag_501\n      jump\t// in\n    tag_654:\n        /* \"#utility.yul\":11608:11701   */\n      swap3\n      pop\n        /* \"#utility.yul\":11418:11711   */\n      pop\n        /* \"#utility.yul\":11405:11406   */\n      0x01\n        /* \"#utility.yul\":11402:11403   */\n      dup2\n        /* \"#utility.yul\":11398:11407   */\n      add\n        /* \"#utility.yul\":11393:11407   */\n      swap1\n      pop\n        /* \"#utility.yul\":11358:11711   */\n      jump(tag_650)\n    tag_652:\n        /* \"#utility.yul\":11362:11376   */\n      pop\n        /* \"#utility.yul\":11727:11730   */\n      dup6\n        /* \"#utility.yul\":11720:11730   */\n      swap4\n      pop\n        /* \"#utility.yul\":10990:11736   */\n      pop\n      pop\n      pop\n        /* \"#utility.yul\":10820:11736   */\n      swap3\n      swap2\n      pop\n      pop\n      jump\t// out\n        /* \"#utility.yul\":11742:12207   */\n    tag_96:\n        /* \"#utility.yul\":11931:11935   */\n      0x00\n        /* \"#utility.yul\":11969:11971   */\n      0x20\n        /* \"#utility.yul\":11958:11967   */\n      dup3\n        /* \"#utility.yul\":11954:11972   */\n      add\n        /* \"#utility.yul\":11946:11972   */\n      swap1\n      pop\n        /* \"#utility.yul\":12018:12027   */\n      dup2\n        /* \"#utility.yul\":12012:12016   */\n      dup2\n        /* \"#utility.yul\":12008:12028   */\n      sub\n        /* \"#utility.yul\":12004:12005   */\n      0x00\n        /* \"#utility.yul\":11993:12002   */\n      dup4\n        /* \"#utility.yul\":11989:12006   */\n      add\n        /* \"#utility.yul\":11982:12029   */\n      mstore\n        /* \"#utility.yul\":12046:12200   */\n      tag_656\n        /* \"#utility.yul\":12195:12199   */\n      dup2\n        /* \"#utility.yul\":12186:12192   */\n      dup5\n        /* \"#utility.yul\":12046:12200   */\n      tag_502\n      jump\t// in\n    tag_656:\n        /* \"#utility.yul\":12038:12200   */\n      swap1\n      pop\n        /* \"#utility.yul\":11742:12207   */\n      swap3\n      swap2\n      pop\n      pop\n      jump\t// out\n        /* \"#utility.yul\":12213:12382   */\n    tag_503:\n        /* \"#utility.yul\":12353:12374   */\n      0x696e76616c6964206d617820656e747269657300000000000000000000000000\n        /* \"#utility.yul\":12349:12350   */\n      0x00\n        /* \"#utility.yul\":12341:12347   */\n      dup3\n        /* \"#utility.yul\":12337:12351   */\n      add\n        /* \"#utility.yul\":12330:12375   */\n      mstore\n        /* \"#utility.yul\":12213:12382   */\n      pop\n      jump\t// out\n        /* \"#utility.yul\":12388:12754   */\n    tag_504:\n        /* \"#utility.yul\":12530:12533   */\n      0x00\n        /* \"#utility.yul\":12551:12618   */\n      tag_659\n        /* \"#utility.yul\":12615:12617   */\n      0x13\n        /* \"#utility.yul\":12610:12613   */\n      dup4\n        /* \"#utility.yul\":12551:12618   */\n      tag_491\n      jump\t// in\n    tag_659:\n        /* \"#utility.yul\":12544:12618   */\n      swap2\n      pop\n        /* \"#utility.yul\":12627:12720   */\n      tag_660\n        /* \"#utility.yul\":12716:12719   */\n      dup3\n        /* \"#utility.yul\":12627:12720   */\n      tag_503\n      jump\t// in\n    tag_660:\n        /* \"#utility.yul\":12745:12747   */\n      0x20\n        /* \"#utility.yul\":12740:12743   */\n      dup3\n        /* \"#utility.yul\":12736:12748   */\n      add\n        /* \"#utility.yul\":12729:12748   */\n      swap1\n      pop\n        /* \"#utility.yul\":12388:12754   */\n      swap2\n      swap1\n      pop\n      jump\t// out\n        /* \"#utility.yul\":12760:13179   */\n    tag_116:\n        /* \"#utility.yul\":12926:12930   */\n      0x00\n        /* \"#utility.yul\":12964:12966   */\n      0x20\n        /* \"#utility.yul\":12953:12962   */\n      dup3\n        /* \"#utility.yul\":12949:12967   */\n      add\n        /* \"#utility.yul\":12941:12967   */\n      swap1\n      pop\n        /* \"#utility.yul\":13013:13022   */\n      dup2\n        /* \"#utility.yul\":13007:13011   */\n      dup2\n        /* \"#utility.yul\":13003:13023   */\n      sub\n        /* \"#utility.yul\":12999:13000   */\n      0x00\n        /* \"#utility.yul\":12988:12997   */\n      dup4\n        /* \"#utility.yul\":12984:13001   */\n      add\n        /* \"#utility.yul\":12977:13024   */\n      mstore\n        /* \"#utility.yul\":13041:13172   */\n      tag_662\n        /* \"#utility.yul\":13167:13171   */\n      dup2\n        /* \"#utility.yul\":13041:13172   */\n      tag_504\n      jump\t// in\n    tag_662:\n        /* \"#utility.yul\":13033:13172   */\n      swap1\n      pop\n        /* \"#utility.yul\":12760:13179   */\n      swap2\n      swap1\n      pop\n      jump\t// out\n        /* \"#utility.yul\":13185:13365   */\n    tag_505:\n        /* \"#utility.yul\":13233:13310   */\n      0x4e487b7100000000000000000000000000000000000000000000000000000000\n        /* \"#utility.yul\":13230:13231   */\n      0x00\n        /* \"#utility.yul\":13223:13311   */\n      mstore\n        /* \"#utility.yul\":13330:13334   */\n      0x11\n        /* \"#utility.yul\":13327:13328   */\n      0x04\n        /* \"#utility.yul\":13320:13335   */\n      mstore\n        /* \"#utility.yul\":13354:13358   */\n      0x24\n        /* \"#utility.yul\":13351:13352   */\n      0x00\n        /* \"#utility.yul\":13344:13359   */\n      revert\n        /* \"#utility.yul\":13371:13565   */\n    tag_121:\n        /* \"#utility.yul\":13411:13415   */\n      0x00\n        /* \"#utility.yul\":13431:13451   */\n      tag_665\n        /* \"#utility.yul\":13449:13450   */\n      dup3\n        /* \"#utility.yul\":13431:13451   */\n      tag_470\n      jump\t// in\n    tag_665:\n        /* \"#utility.yul\":13426:13451   */\n      swap2\n      pop\n        /* \"#utility.yul\":13465:13485   */\n      tag_666\n        /* \"#utility.yul\":13483:13484   */\n      dup4\n        /* \"#utility.yul\":13465:13485   */\n      tag_470\n      jump\t// in\n    tag_666:\n        /* \"#utility.yul\":13460:13485   */\n      swap3\n      pop\n        /* \"#utility.yul\":13509:13510   */\n      dup3\n        /* \"#utility.yul\":13506:13507   */\n      dup3\n        /* \"#utility.yul\":13502:13511   */\n      sub\n        /* \"#utility.yul\":13494:13511   */\n      swap1\n      pop\n        /* \"#utility.yul\":13533:13534   */\n      dup2\n        /* \"#utility.yul\":13527:13531   */\n      dup2\n        /* \"#utility.yul\":13524:13535   */\n      gt\n        /* \"#utility.yul\":13521:13558   */\n      iszero\n      tag_667\n      jumpi\n        /* \"#utility.yul\":13538:13556   */\n      tag_668\n      tag_505\n      jump\t// in\n    tag_668:\n        /* \"#utility.yul\":13521:13558   */\n    tag_667:\n        /* \"#utility.yul\":13371:13565   */\n      swap3\n      swap2\n      pop\n      pop\n      jump\t// out\n        /* \"#utility.yul\":13571:13751   */\n    tag_124:\n        /* \"#utility.yul\":13619:13696   */\n      0x4e487b7100000000000000000000000000000000000000000000000000000000\n        /* \"#utility.yul\":13616:13617   */\n      0x00\n        /* \"#utility.yul\":13609:13697   */\n      mstore\n        /* \"#utility.yul\":13716:13720   */\n      0x32\n        /* \"#utility.yul\":13713:13714   */\n      0x04\n        /* \"#utility.yul\":13706:13721   */\n      mstore\n        /* \"#utility.yul\":13740:13744   */\n      0x24\n        /* \"#utility.yul\":13737:13738   */\n      0x00\n        /* \"#utility.yul\":13730:13745   */\n      revert\n        /* \"#utility.yul\":13757:13937   */\n    tag_128:\n        /* \"#utility.yul\":13805:13882   */\n      0x4e487b7100000000000000000000000000000000000000000000000000000000\n        /* \"#utility.yul\":13802:13803   */\n      0x00\n        /* \"#utility.yul\":13795:13883   */\n      mstore\n        /* \"#utility.yul\":13902:13906   */\n      0x31\n        /* \"#utility.yul\":13899:13900   */\n      0x04\n        /* \"#utility.yul\":13892:13907   */\n      mstore\n        /* \"#utility.yul\":13926:13930   */\n      0x24\n        /* \"#utility.yul\":13923:13924   */\n      0x00\n        /* \"#utility.yul\":13916:13931   */\n      revert\n        /* \"#utility.yul\":13943:14107   */\n    tag_506:\n        /* \"#utility.yul\":14083:14099   */\n      0x6e6f7420617574686f72697a6564000000000000000000000000000000000000\n        /* \"#utility.yul\":14079:14080   */\n      0x00\n        /* \"#utility.yul\":14071:14077   */\n      dup3\n        /* \"#utility.yul\":14067:14081   */\n      add\n        /* \"#utility.yul\":14060:14100   */\n      mstore\n        /* \"#utility.yul\":13943:14107   */\n      pop\n      jump\t// out\n        /* \"#utility.yul\":14113:14479   */\n    tag_507:\n        /* \"#utility.yul\":14255:14258   */\n      0x00\n        /* \"#utility.yul\":14276:14343   */\n      tag_673\n        /* \"#utility.yul\":14340:14342   */\n      0x0e\n        /* \"#utility.yul\":14335:14338   */\n      dup4\n        /* \"#utility.yul\":14276:14343   */\n      tag_491\n      jump\t// in\n    tag_673:\n        /* \"#utility.yul\":14269:14343   */\n      swap2\n      pop\n        /* \"#utility.yul\":14352:14445   */\n      tag_674\n        /* \"#utility.yul\":14441:14444   */\n      dup3\n        /* \"#utility.yul\":14352:14445   */\n      tag_506\n      jump\t// in\n    tag_674:\n        /* \"#utility.yul\":14470:14472   */\n      0x20\n        /* \"#utility.yul\":14465:14468   */\n      dup3\n        /* \"#utility.yul\":14461:14473   */\n      add\n        /* \"#utility.yul\":14454:14473   */\n      swap1\n      pop\n        /* \"#utility.yul\":14113:14479   */\n      swap2\n      swap1\n      pop\n      jump\t// out\n        /* \"#utility.yul\":14485:14904   */\n    tag_152:\n        /* \"#utility.yul\":14651:14655   */\n      0x00\n        /* \"#utility.yul\":14689:14691   */\n      0x20\n        /* \"#utility.yul\":14678:14687   */\n      dup3\n        /* \"#utility.yul\":14674:14692   */\n      add\n        /* \"#utility.yul\":14666:14692   */\n      swap1\n      pop\n        /* \"#utility.yul\":14738:14747   */\n      dup2\n        /* \"#utility.yul\":14732:14736   */\n      dup2\n        /* \"#utility.yul\":14728:14748   */\n      sub\n        /* \"#utility.yul\":14724:14725   */\n      0x00\n        /* \"#utility.yul\":14713:14722   */\n      dup4\n        /* \"#utility.yul\":14709:14726   */\n      add\n        /* \"#utility.yul\":14702:14749   */\n      mstore\n        /* \"#utility.yul\":14766:14897   */\n      tag_676\n        /* \"#utility.yul\":14892:14896   */\n      dup2\n        /* \"#utility.yul\":14766:14897   */\n      tag_507\n      jump\t// in\n    tag_676:\n        /* \"#utility.yul\":14758:14897   */\n      swap1\n      pop\n        /* \"#utility.yul\":14485:14904   */\n      swap2\n      swap1\n      pop\n      jump\t// out\n        /* \"#utility.yul\":14910:15074   */\n    tag_508:\n        /* \"#utility.yul\":15050:15066   */\n      0x696e76616c696420706c61796572000000000000000000000000000000000000\n        /* \"#utility.yul\":15046:15047   */\n      0x00\n        /* \"#utility.yul\":15038:15044   */\n      dup3\n        /* \"#utility.yul\":15034:15048   */\n      add\n        /* \"#utility.yul\":15027:15067   */\n      mstore\n        /* \"#utility.yul\":14910:15074   */\n      pop\n      jump\t// out\n        /* \"#utility.yul\":15080:15446   */\n    tag_509:\n        /* \"#utility.yul\":15222:15225   */\n      0x00\n        /* \"#utility.yul\":15243:15310   */\n      tag_679\n        /* \"#utility.yul\":15307:15309   */\n      0x0e\n        /* \"#utility.yul\":15302:15305   */\n      dup4\n        /* \"#utility.yul\":15243:15310   */\n      tag_491\n      jump\t// in\n    tag_679:\n        /* \"#utility.yul\":15236:15310   */\n      swap2\n      pop\n        /* \"#utility.yul\":15319:15412   */\n      tag_680\n        /* \"#utility.yul\":15408:15411   */\n      dup3\n        /* \"#utility.yul\":15319:15412   */\n      tag_508\n      jump\t// in\n    tag_680:\n        /* \"#utility.yul\":15437:15439   */\n      0x20\n        /* \"#utility.yul\":15432:15435   */\n      dup3\n        /* \"#utility.yul\":15428:15440   */\n      add\n        /* \"#utility.yul\":15421:15440   */\n      swap1\n      pop\n        /* \"#utility.yul\":15080:15446   */\n      swap2\n      swap1\n      pop\n      jump\t// out\n        /* \"#utility.yul\":15452:15871   */\n    tag_159:\n        /* \"#utility.yul\":15618:15622   */\n      0x00\n        /* \"#utility.yul\":15656:15658   */\n      0x20\n        /* \"#utility.yul\":15645:15654   */\n      dup3\n        /* \"#utility.yul\":15641:15659   */\n      add\n        /* \"#utility.yul\":15633:15659   */\n      swap1\n      pop\n        /* \"#utility.yul\":15705:15714   */\n      dup2\n        /* \"#utility.yul\":15699:15703   */\n      dup2\n        /* \"#utility.yul\":15695:15715   */\n      sub\n        /* \"#utility.yul\":15691:15692   */\n      0x00\n        /* \"#utility.yul\":15680:15689   */\n      dup4\n        /* \"#utility.yul\":15676:15693   */\n      add\n        /* \"#utility.yul\":15669:15716   */\n      mstore\n        /* \"#utility.yul\":15733:15864   */\n      tag_682\n        /* \"#utility.yul\":15859:15863   */\n      dup2\n        /* \"#utility.yul\":15733:15864   */\n      tag_509\n      jump\t// in\n    tag_682:\n        /* \"#utility.yul\":15725:15864   */\n      swap1\n      pop\n        /* \"#utility.yul\":15452:15871   */\n      swap2\n      swap1\n      pop\n      jump\t// out\n        /* \"#utility.yul\":15877:16042   */\n    tag_510:\n        /* \"#utility.yul\":16017:16034   */\n      0x696e76616c696420757064617465720000000000000000000000000000000000\n        /* \"#utility.yul\":16013:16014   */\n      0x00\n        /* \"#utility.yul\":16005:16011   */\n      dup3\n        /* \"#utility.yul\":16001:16015   */\n      add\n        /* \"#utility.yul\":15994:16035   */\n      mstore\n        /* \"#utility.yul\":15877:16042   */\n      pop\n      jump\t// out\n        /* \"#utility.yul\":16048:16414   */\n    tag_511:\n        /* \"#utility.yul\":16190:16193   */\n      0x00\n        /* \"#utility.yul\":16211:16278   */\n      tag_685\n        /* \"#utility.yul\":16275:16277   */\n      0x0f\n        /* \"#utility.yul\":16270:16273   */\n      dup4\n        /* \"#utility.yul\":16211:16278   */\n      tag_491\n      jump\t// in\n    tag_685:\n        /* \"#utility.yul\":16204:16278   */\n      swap2\n      pop\n        /* \"#utility.yul\":16287:16380   */\n      tag_686\n        /* \"#utility.yul\":16376:16379   */\n      dup3\n        /* \"#utility.yul\":16287:16380   */\n      tag_510\n      jump\t// in\n    tag_686:\n        /* \"#utility.yul\":16405:16407   */\n      0x20\n        /* \"#utility.yul\":16400:16403   */\n      dup3\n        /* \"#utility.yul\":16396:16408   */\n      add\n        /* \"#utility.yul\":16389:16408   */\n      swap1\n      pop\n        /* \"#utility.yul\":16048:16414   */\n      swap2\n      swap1\n      pop\n      jump\t// out\n        /* \"#utility.yul\":16420:16839   */\n    tag_189:\n        /* \"#utility.yul\":16586:16590   */\n      0x00\n        /* \"#utility.yul\":16624:16626   */\n      0x20\n        /* \"#utility.yul\":16613:16622   */\n      dup3\n        /* \"#utility.yul\":16609:16627   */\n      add\n        /* \"#utility.yul\":16601:16627   */\n      swap1\n      pop\n        /* \"#utility.yul\":16673:16682   */\n      dup2\n        /* \"#utility.yul\":16667:16671   */\n      dup2\n        /* \"#utility.yul\":16663:16683   */\n      sub\n        /* \"#utility.yul\":16659:16660   */\n      0x00\n        /* \"#utility.yul\":16648:16657   */\n      dup4\n        /* \"#utility.yul\":16644:16661   */\n      add\n        /* \"#utility.yul\":16637:16684   */\n      mstore\n        /* \"#utility.yul\":16701:16832   */\n      tag_688\n        /* \"#utility.yul\":16827:16831   */\n      dup2\n        /* \"#utility.yul\":16701:16832   */\n      tag_511\n      jump\t// in\n    tag_688:\n        /* \"#utility.yul\":16693:16832   */\n      swap1\n      pop\n        /* \"#utility.yul\":16420:16839   */\n      swap2\n      swap1\n      pop\n      jump\t// out\n        /* \"#utility.yul\":16845:17023   */\n    tag_512:\n        /* \"#utility.yul\":16985:17015   */\n      0x696e76616c6964206d617820656e74726965732c206d61782032303000000000\n        /* \"#utility.yul\":16981:16982   */\n      0x00\n        /* \"#utility.yul\":16973:16979   */\n      dup3\n        /* \"#utility.yul\":16969:16983   */\n      add\n        /* \"#utility.yul\":16962:17016   */\n      mstore\n        /* \"#utility.yul\":16845:17023   */\n      pop\n      jump\t// out\n        /* \"#utility.yul\":17029:17395   */\n    tag_513:\n        /* \"#utility.yul\":17171:17174   */\n      0x00\n        /* \"#utility.yul\":17192:17259   */\n      tag_691\n        /* \"#utility.yul\":17256:17258   */\n      0x1c\n        /* \"#utility.yul\":17251:17254   */\n      dup4\n        /* \"#utility.yul\":17192:17259   */\n      tag_491\n      jump\t// in\n    tag_691:\n        /* \"#utility.yul\":17185:17259   */\n      swap2\n      pop\n        /* \"#utility.yul\":17268:17361   */\n      tag_692\n        /* \"#utility.yul\":17357:17360   */\n      dup3\n        /* \"#utility.yul\":17268:17361   */\n      tag_512\n      jump\t// in\n    tag_692:\n        /* \"#utility.yul\":17386:17388   */\n      0x20\n        /* \"#utility.yul\":17381:17384   */\n      dup3\n        /* \"#utility.yul\":17377:17389   */\n      add\n        /* \"#utility.yul\":17370:17389   */\n      swap1\n      pop\n        /* \"#utility.yul\":17029:17395   */\n      swap2\n      swap1\n      pop\n      jump\t// out\n        /* \"#utility.yul\":17401:17820   */\n    tag_228:\n        /* \"#utility.yul\":17567:17571   */\n      0x00\n        /* \"#utility.yul\":17605:17607   */\n      0x20\n        /* \"#utility.yul\":17594:17603   */\n      dup3\n        /* \"#utility.yul\":17590:17608   */\n      add\n        /* \"#utility.yul\":17582:17608   */\n      swap1\n      pop\n        /* \"#utility.yul\":17654:17663   */\n      dup2\n        /* \"#utility.yul\":17648:17652   */\n      dup2\n        /* \"#utility.yul\":17644:17664   */\n      sub\n        /* \"#utility.yul\":17640:17641   */\n      0x00\n        /* \"#utility.yul\":17629:17638   */\n      dup4\n        /* \"#utility.yul\":17625:17642   */\n      add\n        /* \"#utility.yul\":17618:17665   */\n      mstore\n        /* \"#utility.yul\":17682:17813   */\n      tag_694\n        /* \"#utility.yul\":17808:17812   */\n      dup2\n        /* \"#utility.yul\":17682:17813   */\n      tag_513\n      jump\t// in\n    tag_694:\n        /* \"#utility.yul\":17674:17813   */\n      swap1\n      pop\n        /* \"#utility.yul\":17401:17820   */\n      swap2\n      swap1\n      pop\n      jump\t// out\n        /* \"#utility.yul\":17826:17911   */\n    tag_514:\n        /* \"#utility.yul\":17871:17878   */\n      0x00\n        /* \"#utility.yul\":17900:17905   */\n      dup2\n        /* \"#utility.yul\":17889:17905   */\n      swap1\n      pop\n        /* \"#utility.yul\":17826:17911   */\n      swap2\n      swap1\n      pop\n      jump\t// out\n        /* \"#utility.yul\":17917:18018   */\n    tag_515:\n        /* \"#utility.yul\":17953:17960   */\n      0x00\n        /* \"#utility.yul\":17993:18011   */\n      0xffffffffffffffff\n        /* \"#utility.yul\":17986:17991   */\n      dup3\n        /* \"#utility.yul\":17982:18012   */\n      and\n        /* \"#utility.yul\":17971:18012   */\n      swap1\n      pop\n        /* \"#utility.yul\":17917:18018   */\n      swap2\n      swap1\n      pop\n      jump\t// out\n        /* \"#utility.yul\":18024:18084   */\n    tag_516:\n        /* \"#utility.yul\":18052:18055   */\n      0x00\n        /* \"#utility.yul\":18073:18078   */\n      dup2\n        /* \"#utility.yul\":18066:18078   */\n      swap1\n      pop\n        /* \"#utility.yul\":18024:18084   */\n      swap2\n      swap1\n      pop\n      jump\t// out\n        /* \"#utility.yul\":18090:18246   */\n    tag_517:\n        /* \"#utility.yul\":18147:18156   */\n      0x00\n        /* \"#utility.yul\":18180:18240   */\n      tag_699\n        /* \"#utility.yul\":18197:18239   */\n      tag_700\n        /* \"#utility.yul\":18206:18238   */\n      tag_701\n        /* \"#utility.yul\":18232:18237   */\n      dup5\n        /* \"#utility.yul\":18206:18238   */\n      tag_514\n      jump\t// in\n    tag_701:\n        /* \"#utility.yul\":18197:18239   */\n      tag_516\n      jump\t// in\n    tag_700:\n        /* \"#utility.yul\":18180:18240   */\n      tag_515\n      jump\t// in\n    tag_699:\n        /* \"#utility.yul\":18167:18240   */\n      swap1\n      pop\n        /* \"#utility.yul\":18090:18246   */\n      swap2\n      swap1\n      pop\n      jump\t// out\n        /* \"#utility.yul\":18252:18397   */\n    tag_518:\n        /* \"#utility.yul\":18346:18390   */\n      tag_703\n        /* \"#utility.yul\":18384:18389   */\n      dup2\n        /* \"#utility.yul\":18346:18390   */\n      tag_517\n      jump\t// in\n    tag_703:\n        /* \"#utility.yul\":18341:18344   */\n      dup3\n        /* \"#utility.yul\":18334:18391   */\n      mstore\n        /* \"#utility.yul\":18252:18397   */\n      pop\n      pop\n      jump\t// out\n        /* \"#utility.yul\":18403:18639   */\n    tag_239:\n        /* \"#utility.yul\":18503:18507   */\n      0x00\n        /* \"#utility.yul\":18541:18543   */\n      0x20\n        /* \"#utility.yul\":18530:18539   */\n      dup3\n        /* \"#utility.yul\":18526:18544   */\n      add\n        /* \"#utility.yul\":18518:18544   */\n      swap1\n      pop\n        /* \"#utility.yul\":18554:18632   */\n      tag_705\n        /* \"#utility.yul\":18629:18630   */\n      0x00\n        /* \"#utility.yul\":18618:18627   */\n      dup4\n        /* \"#utility.yul\":18614:18631   */\n      add\n        /* \"#utility.yul\":18605:18611   */\n      dup5\n        /* \"#utility.yul\":18554:18632   */\n      tag_518\n      jump\t// in\n    tag_705:\n        /* \"#utility.yul\":18403:18639   */\n      swap3\n      swap2\n      pop\n      pop\n      jump\t// out\n        /* \"#utility.yul\":18645:18767   */\n    tag_519:\n        /* \"#utility.yul\":18718:18742   */\n      tag_707\n        /* \"#utility.yul\":18736:18741   */\n      dup2\n        /* \"#utility.yul\":18718:18742   */\n      tag_483\n      jump\t// in\n    tag_707:\n        /* \"#utility.yul\":18711:18716   */\n      dup2\n        /* \"#utility.yul\":18708:18743   */\n      eq\n        /* \"#utility.yul\":18698:18761   */\n      tag_708\n      jumpi\n        /* \"#utility.yul\":18757:18758   */\n      0x00\n        /* \"#utility.yul\":18754:18755   */\n      0x00\n        /* \"#utility.yul\":18747:18759   */\n      revert\n        /* \"#utility.yul\":18698:18761   */\n    tag_708:\n        /* \"#utility.yul\":18645:18767   */\n      pop\n      jump\t// out\n        /* \"#utility.yul\":18773:18916   */\n    tag_520:\n        /* \"#utility.yul\":18830:18835   */\n      0x00\n        /* \"#utility.yul\":18861:18867   */\n      dup2\n        /* \"#utility.yul\":18855:18868   */\n      mload\n        /* \"#utility.yul\":18846:18868   */\n      swap1\n      pop\n        /* \"#utility.yul\":18877:18910   */\n      tag_710\n        /* \"#utility.yul\":18904:18909   */\n      dup2\n        /* \"#utility.yul\":18877:18910   */\n      tag_519\n      jump\t// in\n    tag_710:\n        /* \"#utility.yul\":18773:18916   */\n      swap3\n      swap2\n      pop\n      pop\n      jump\t// out\n        /* \"#utility.yul\":18922:19273   */\n    tag_258:\n        /* \"#utility.yul\":18992:18998   */\n      0x00\n        /* \"#utility.yul\":19041:19043   */\n      0x20\n        /* \"#utility.yul\":19029:19038   */\n      dup3\n        /* \"#utility.yul\":19020:19027   */\n      dup5\n        /* \"#utility.yul\":19016:19039   */\n      sub\n        /* \"#utility.yul\":19012:19044   */\n      slt\n        /* \"#utility.yul\":19009:19128   */\n      iszero\n      tag_712\n      jumpi\n        /* \"#utility.yul\":19047:19126   */\n      tag_713\n      tag_464\n      jump\t// in\n    tag_713:\n        /* \"#utility.yul\":19009:19128   */\n    tag_712:\n        /* \"#utility.yul\":19167:19168   */\n      0x00\n        /* \"#utility.yul\":19192:19256   */\n      tag_714\n        /* \"#utility.yul\":19248:19255   */\n      dup5\n        /* \"#utility.yul\":19239:19245   */\n      dup3\n        /* \"#utility.yul\":19228:19237   */\n      dup6\n        /* \"#utility.yul\":19224:19246   */\n      add\n        /* \"#utility.yul\":19192:19256   */\n      tag_520\n      jump\t// in\n    tag_714:\n        /* \"#utility.yul\":19182:19256   */\n      swap2\n      pop\n        /* \"#utility.yul\":19138:19266   */\n      pop\n        /* \"#utility.yul\":18922:19273   */\n      swap3\n      swap2\n      pop\n      pop\n      jump\t// out\n        /* \"#utility.yul\":19279:19445   */\n    tag_521:\n        /* \"#utility.yul\":19419:19437   */\n      0x5061757361626c653a2070617573656400000000000000000000000000000000\n        /* \"#utility.yul\":19415:19416   */\n      0x00\n        /* \"#utility.yul\":19407:19413   */\n      dup3\n        /* \"#utility.yul\":19403:19417   */\n      add\n        /* \"#utility.yul\":19396:19438   */\n      mstore\n        /* \"#utility.yul\":19279:19445   */\n      pop\n      jump\t// out\n        /* \"#utility.yul\":19451:19817   */\n    tag_522:\n        /* \"#utility.yul\":19593:19596   */\n      0x00\n        /* \"#utility.yul\":19614:19681   */\n      tag_717\n        /* \"#utility.yul\":19678:19680   */\n      0x10\n        /* \"#utility.yul\":19673:19676   */\n      dup4\n        /* \"#utility.yul\":19614:19681   */\n      tag_491\n      jump\t// in\n    tag_717:\n        /* \"#utility.yul\":19607:19681   */\n      swap2\n      pop\n        /* \"#utility.yul\":19690:19783   */\n      tag_718\n        /* \"#utility.yul\":19779:19782   */\n      dup3\n        /* \"#utility.yul\":19690:19783   */\n      tag_521\n      jump\t// in\n    tag_718:\n        /* \"#utility.yul\":19808:19810   */\n      0x20\n        /* \"#utility.yul\":19803:19806   */\n      dup3\n        /* \"#utility.yul\":19799:19811   */\n      add\n        /* \"#utility.yul\":19792:19811   */\n      swap1\n      pop\n        /* \"#utility.yul\":19451:19817   */\n      swap2\n      swap1\n      pop\n      jump\t// out\n        /* \"#utility.yul\":19823:20242   */\n    tag_275:\n        /* \"#utility.yul\":19989:19993   */\n      0x00\n        /* \"#utility.yul\":20027:20029   */\n      0x20\n        /* \"#utility.yul\":20016:20025   */\n      dup3\n        /* \"#utility.yul\":20012:20030   */\n      add\n        /* \"#utility.yul\":20004:20030   */\n      swap1\n      pop\n        /* \"#utility.yul\":20076:20085   */\n      dup2\n        /* \"#utility.yul\":20070:20074   */\n      dup2\n        /* \"#utility.yul\":20066:20086   */\n      sub\n        /* \"#utility.yul\":20062:20063   */\n      0x00\n        /* \"#utility.yul\":20051:20060   */\n      dup4\n        /* \"#utility.yul\":20047:20064   */\n      add\n        /* \"#utility.yul\":20040:20087   */\n      mstore\n        /* \"#utility.yul\":20104:20235   */\n      tag_720\n        /* \"#utility.yul\":20230:20234   */\n      dup2\n        /* \"#utility.yul\":20104:20235   */\n      tag_522\n      jump\t// in\n    tag_720:\n        /* \"#utility.yul\":20096:20235   */\n      swap1\n      pop\n        /* \"#utility.yul\":19823:20242   */\n      swap2\n      swap1\n      pop\n      jump\t// out\n        /* \"#utility.yul\":20248:20429   */\n    tag_523:\n        /* \"#utility.yul\":20388:20421   */\n      0x5265656e7472616e637947756172643a207265656e7472616e742063616c6c00\n        /* \"#utility.yul\":20384:20385   */\n      0x00\n        /* \"#utility.yul\":20376:20382   */\n      dup3\n        /* \"#utility.yul\":20372:20386   */\n      add\n        /* \"#utility.yul\":20365:20422   */\n      mstore\n        /* \"#utility.yul\":20248:20429   */\n      pop\n      jump\t// out\n        /* \"#utility.yul\":20435:20801   */\n    tag_524:\n        /* \"#utility.yul\":20577:20580   */\n      0x00\n        /* \"#utility.yul\":20598:20665   */\n      tag_723\n        /* \"#utility.yul\":20662:20664   */\n      0x1f\n        /* \"#utility.yul\":20657:20660   */\n      dup4\n        /* \"#utility.yul\":20598:20665   */\n      tag_491\n      jump\t// in\n    tag_723:\n        /* \"#utility.yul\":20591:20665   */\n      swap2\n      pop\n        /* \"#utility.yul\":20674:20767   */\n      tag_724\n        /* \"#utility.yul\":20763:20766   */\n      dup3\n        /* \"#utility.yul\":20674:20767   */\n      tag_523\n      jump\t// in\n    tag_724:\n        /* \"#utility.yul\":20792:20794   */\n      0x20\n        /* \"#utility.yul\":20787:20790   */\n      dup3\n        /* \"#utility.yul\":20783:20795   */\n      add\n        /* \"#utility.yul\":20776:20795   */\n      swap1\n      pop\n        /* \"#utility.yul\":20435:20801   */\n      swap2\n      swap1\n      pop\n      jump\t// out\n        /* \"#utility.yul\":20807:21226   */\n    tag_279:\n        /* \"#utility.yul\":20973:20977   */\n      0x00\n        /* \"#utility.yul\":21011:21013   */\n      0x20\n        /* \"#utility.yul\":21000:21009   */\n      dup3\n        /* \"#utility.yul\":20996:21014   */\n      add\n        /* \"#utility.yul\":20988:21014   */\n      swap1\n      pop\n        /* \"#utility.yul\":21060:21069   */\n      dup2\n        /* \"#utility.yul\":21054:21058   */\n      dup2\n        /* \"#utility.yul\":21050:21070   */\n      sub\n        /* \"#utility.yul\":21046:21047   */\n      0x00\n        /* \"#utility.yul\":21035:21044   */\n      dup4\n        /* \"#utility.yul\":21031:21048   */\n      add\n        /* \"#utility.yul\":21024:21071   */\n      mstore\n        /* \"#utility.yul\":21088:21219   */\n      tag_726\n        /* \"#utility.yul\":21214:21218   */\n      dup2\n        /* \"#utility.yul\":21088:21219   */\n      tag_524\n      jump\t// in\n    tag_726:\n        /* \"#utility.yul\":21080:21219   */\n      swap1\n      pop\n        /* \"#utility.yul\":20807:21226   */\n      swap2\n      swap1\n      pop\n      jump\t// out\n        /* \"#utility.yul\":21232:21423   */\n    tag_295:\n        /* \"#utility.yul\":21272:21275   */\n      0x00\n        /* \"#utility.yul\":21291:21311   */\n      tag_728\n        /* \"#utility.yul\":21309:21310   */\n      dup3\n        /* \"#utility.yul\":21291:21311   */\n      tag_470\n      jump\t// in\n    tag_728:\n        /* \"#utility.yul\":21286:21311   */\n      swap2\n      pop\n        /* \"#utility.yul\":21325:21345   */\n      tag_729\n        /* \"#utility.yul\":21343:21344   */\n      dup4\n        /* \"#utility.yul\":21325:21345   */\n      tag_470\n      jump\t// in\n    tag_729:\n        /* \"#utility.yul\":21320:21345   */\n      swap3\n      pop\n        /* \"#utility.yul\":21368:21369   */\n      dup3\n        /* \"#utility.yul\":21365:21366   */\n      dup3\n        /* \"#utility.yul\":21361:21370   */\n      add\n        /* \"#utility.yul\":21354:21370   */\n      swap1\n      pop\n        /* \"#utility.yul\":21389:21392   */\n      dup1\n        /* \"#utility.yul\":21386:21387   */\n      dup3\n        /* \"#utility.yul\":21383:21393   */\n      gt\n        /* \"#utility.yul\":21380:21416   */\n      iszero\n      tag_730\n      jumpi\n        /* \"#utility.yul\":21396:21414   */\n      tag_731\n      tag_505\n      jump\t// in\n    tag_731:\n        /* \"#utility.yul\":21380:21416   */\n    tag_730:\n        /* \"#utility.yul\":21232:21423   */\n      swap3\n      swap2\n      pop\n      pop\n      jump\t// out\n        /* \"#utility.yul\":21429:21527   */\n    tag_525:\n        /* \"#utility.yul\":21480:21486   */\n      0x00\n        /* \"#utility.yul\":21514:21519   */\n      dup2\n        /* \"#utility.yul\":21508:21520   */\n      mload\n        /* \"#utility.yul\":21498:21520   */\n      swap1\n      pop\n        /* \"#utility.yul\":21429:21527   */\n      swap2\n      swap1\n      pop\n      jump\t// out\n        /* \"#utility.yul\":21533:21680   */\n    tag_526:\n        /* \"#utility.yul\":21634:21645   */\n      0x00\n        /* \"#utility.yul\":21671:21674   */\n      dup2\n        /* \"#utility.yul\":21656:21674   */\n      swap1\n      pop\n        /* \"#utility.yul\":21533:21680   */\n      swap3\n      swap2\n      pop\n      pop\n      jump\t// out\n        /* \"#utility.yul\":21686:22072   */\n    tag_527:\n        /* \"#utility.yul\":21790:21793   */\n      0x00\n        /* \"#utility.yul\":21818:21856   */\n      tag_735\n        /* \"#utility.yul\":21850:21855   */\n      dup3\n        /* \"#utility.yul\":21818:21856   */\n      tag_525\n      jump\t// in\n    tag_735:\n        /* \"#utility.yul\":21872:21960   */\n      tag_736\n        /* \"#utility.yul\":21953:21959   */\n      dup2\n        /* \"#utility.yul\":21948:21951   */\n      dup6\n        /* \"#utility.yul\":21872:21960   */\n      tag_526\n      jump\t// in\n    tag_736:\n        /* \"#utility.yul\":21865:21960   */\n      swap4\n      pop\n        /* \"#utility.yul\":21969:22034   */\n      tag_737\n        /* \"#utility.yul\":22027:22033   */\n      dup2\n        /* \"#utility.yul\":22022:22025   */\n      dup6\n        /* \"#utility.yul\":22015:22019   */\n      0x20\n        /* \"#utility.yul\":22008:22013   */\n      dup7\n        /* \"#utility.yul\":22004:22020   */\n      add\n        /* \"#utility.yul\":21969:22034   */\n      tag_492\n      jump\t// in\n    tag_737:\n        /* \"#utility.yul\":22059:22065   */\n      dup1\n        /* \"#utility.yul\":22054:22057   */\n      dup5\n        /* \"#utility.yul\":22050:22066   */\n      add\n        /* \"#utility.yul\":22043:22066   */\n      swap2\n      pop\n        /* \"#utility.yul\":21794:22072   */\n      pop\n        /* \"#utility.yul\":21686:22072   */\n      swap3\n      swap2\n      pop\n      pop\n      jump\t// out\n        /* \"#utility.yul\":22078:22349   */\n    tag_437:\n        /* \"#utility.yul\":22208:22211   */\n      0x00\n        /* \"#utility.yul\":22230:22323   */\n      tag_739\n        /* \"#utility.yul\":22319:22322   */\n      dup3\n        /* \"#utility.yul\":22310:22316   */\n      dup5\n        /* \"#utility.yul\":22230:22323   */\n      tag_527\n      jump\t// in\n    tag_739:\n        /* \"#utility.yul\":22223:22323   */\n      swap2\n      pop\n        /* \"#utility.yul\":22340:22343   */\n      dup2\n        /* \"#utility.yul\":22333:22343   */\n      swap1\n      pop\n        /* \"#utility.yul\":22078:22349   */\n      swap3\n      swap2\n      pop\n      pop\n      jump\t// out\n\n    auxdata: 0xa2646970667358221220ec3d5f268e5e0cdfe0fcf83dc28a3d599ee39a57f5663f9463453dfaec044d5a64736f6c634300081e0033\n}\n",
				"bytecode": {
					"linkReferences": {},
					"object": "60a06040523073ffffffffffffffffffffffffffffffffffffffff1660809073ffffffffffffffffffffffffffffffffffffffff16815250348015610042575f5ffd5b5061005161005660201b60201c565b6101d1565b5f61006561015460201b60201c565b9050805f0160089054906101000a900460ff16156100af576040517ff92ee8a900000000000000000000000000000000000000000000000000000000815260040160405180910390fd5b67ffffffffffffffff8016815f015f9054906101000a900467ffffffffffffffff1667ffffffffffffffff16146101515767ffffffffffffffff815f015f6101000a81548167ffffffffffffffff021916908367ffffffffffffffff1602179055507fc7f505b2f371ae2175ee4913f4499e1f2633a7b5936321eed1cdaeb6115181d267ffffffffffffffff60405161014891906101b8565b60405180910390a15b50565b5f5f61016461016d60201b60201c565b90508091505090565b5f7ff0c57e16840df040f15088dc2f81fe391c3923bec73e23a9662efc9c229c6a005f1b905090565b5f67ffffffffffffffff82169050919050565b6101b281610196565b82525050565b5f6020820190506101cb5f8301846101a9565b92915050565b608051612ebb6101f75f395f8181611060015281816110b5015261126f0152612ebb5ff3fe608060405260043610610108575f3560e01c80638da5cb5b11610094578063ad3cb1cc11610063578063ad3cb1cc1461033b578063ba3c006714610365578063f23f3ba5146103a1578063f2fde38b146103cb578063fe4b84df146103f357610108565b80638da5cb5b146102705780638ff29cfe1461029a57806399fc65d4146102d6578063a697cb0e146102fe57610108565b80635c975abb116100db5780635c975abb146101b657806365d97724146101e05780636eef522014610208578063715018a61461021e57806376dd110f1461023457610108565b80630a9b337f1461010c57806345a587ae146101485780634f1ef2861461017057806352d1902d1461018c575b5f5ffd5b348015610117575f5ffd5b50610132600480360381019061012d9190612470565b61041b565b60405161013f91906124b3565b60405180910390f35b348015610153575f5ffd5b5061016e600480360381019061016991906124f6565b610430565b005b61018a6004803603810190610185919061265d565b61066d565b005b348015610197575f5ffd5b506101a061068c565b6040516101ad91906126cf565b60405180910390f35b3480156101c1575f5ffd5b506101ca6106bd565b6040516101d79190612702565b60405180910390f35b3480156101eb575f5ffd5b506102066004803603810190610201919061271b565b6106d1565b005b348015610213575f5ffd5b5061021c6108d2565b005b348015610229575f5ffd5b506102326109b8565b005b34801561023f575f5ffd5b5061025a60048036038101906102559190612470565b6109cb565b60405161026791906124b3565b60405180910390f35b34801561027b575f5ffd5b506102846109e0565b6040516102919190612768565b60405180910390f35b3480156102a5575f5ffd5b506102c060048036038101906102bb9190612470565b610a15565b6040516102cd9190612702565b60405180910390f35b3480156102e1575f5ffd5b506102fc60048036038101906102f791906127ab565b610a32565b005b348015610309575f5ffd5b50610324600480360381019061031f9190612470565b610b4e565b6040516103329291906127e9565b60405180910390f35b348015610346575f5ffd5b5061034f610beb565b60405161035c9190612870565b60405180910390f35b348015610370575f5ffd5b5061038b600480360381019061038691906124f6565b610c24565b6040516103989190612983565b60405180910390f35b3480156103ac575f5ffd5b506103b5610d5e565b6040516103c291906124b3565b60405180910390f35b3480156103d6575f5ffd5b506103f160048036038101906103ec9190612470565b610d64565b005b3480156103fe575f5ffd5b50610419600480360381019061041491906124f6565b610de8565b005b6067602052805f5260405f205f915090505481565b610438610fd7565b5f81118015610448575060c88111155b610487576040517f08c379a000000000000000000000000000000000000000000000000000000000815260040161047e906129ed565b60405180910390fd5b5f6066549050606654821015610629575b816065805490501115610628575f606560016065805490506104ba9190612a38565b815481106104cb576104ca612a6b565b5b905f5260205f2090600202016040518060400160405290815f82015f9054906101000a900473ffffffffffffffffffffffffffffffffffffffff1673ffffffffffffffffffffffffffffffffffffffff1673ffffffffffffffffffffffffffffffffffffffff16815260200160018201548152505090505f60675f835f015173ffffffffffffffffffffffffffffffffffffffff1673ffffffffffffffffffffffffffffffffffffffff1681526020019081526020015f2081905550606580548061059957610598612a98565b5b600190038181905f5260205f2090600202015f5f82015f6101000a81549073ffffffffffffffffffffffffffffffffffffffff0219169055600182015f905550509055805f015173ffffffffffffffffffffffffffffffffffffffff167f4aa8f37b1c02d2e7a161c65d88e8b28520237d9523cd588a6b21ec10311b5dd860405160405180910390a250610498565b5b816066819055507f0a61d601f6958397b49d3d15ab5e4c91a755b88f301e68c13d4d3d0be30a9b7181836040516106619291906127e9565b60405180910390a15050565b61067561105e565b61067e82611144565b610688828261114f565b5050565b5f61069561126d565b7f360894a13ba1a3210667c828492db98dca3e2076cc3735a920a3ca505d382bbc5f1b905090565b5f5f5f9054906101000a900460ff16905090565b6106d96112f4565b60685f3373ffffffffffffffffffffffffffffffffffffffff1673ffffffffffffffffffffffffffffffffffffffff1681526020019081526020015f205f9054906101000a900460ff168061076057503373ffffffffffffffffffffffffffffffffffffffff166107486109e0565b73ffffffffffffffffffffffffffffffffffffffff16145b61079f576040517f08c379a000000000000000000000000000000000000000000000000000000000815260040161079690612b0f565b60405180910390fd5b6107a761133e565b5f73ffffffffffffffffffffffffffffffffffffffff168273ffffffffffffffffffffffffffffffffffffffff1603610815576040517f08c379a000000000000000000000000000000000000000000000000000000000815260040161080c90612b77565b60405180910390fd5b8060645f8473ffffffffffffffffffffffffffffffffffffffff1673ffffffffffffffffffffffffffffffffffffffff1681526020019081526020015f2081905550610861828261138d565b8173ffffffffffffffffffffffffffffffffffffffff163373ffffffffffffffffffffffffffffffffffffffff167fe224e5a0583a60821f4bb611ea7a905ff6025cb7e442f3c3e5925f3b7223dd64836040516108be91906124b3565b60405180910390a36108ce611713565b5050565b6108da610fd7565b5f5f90505b60658054905081101561097c575f60675f6065848154811061090457610903612a6b565b5b905f5260205f2090600202015f015f9054906101000a900473ffffffffffffffffffffffffffffffffffffffff1673ffffffffffffffffffffffffffffffffffffffff1673ffffffffffffffffffffffffffffffffffffffff1681526020019081526020015f208190555080806001019150506108df565b5060655f61098a9190612373565b7fba0dd1b89d07a0cce0ce70c4d1037363bc6ff4dbc6b1b80b5452e167fac36c2860405160405180910390a1565b6109c0610fd7565b6109c95f61171d565b565b6064602052805f5260405f205f915090505481565b5f5f6109ea6117ee565b9050805f015f9054906101000a900473ffffffffffffffffffffffffffffffffffffffff1691505090565b6068602052805f5260405f205f915054906101000a900460ff1681565b610a3a610fd7565b5f73ffffffffffffffffffffffffffffffffffffffff168273ffffffffffffffffffffffffffffffffffffffff1603610aa8576040517f08c379a0000000000000000000000000000000000000000000000000000000008152600401610a9f90612bdf565b60405180910390fd5b8060685f8473ffffffffffffffffffffffffffffffffffffffff1673ffffffffffffffffffffffffffffffffffffffff1681526020019081526020015f205f6101000a81548160ff0219169083151502179055508173ffffffffffffffffffffffffffffffffffffffff167fe80976c6c2c07678ce9937c9c4c043ace71abf610ddf891b568b77d7904f34f382604051610b429190612702565b60405180910390a25050565b5f5f60645f8473ffffffffffffffffffffffffffffffffffffffff1673ffffffffffffffffffffffffffffffffffffffff1681526020019081526020015f205490505f60675f8573ffffffffffffffffffffffffffffffffffffffff1673ffffffffffffffffffffffffffffffffffffffff1681526020019081526020015f205490505f8103610be1575f925050610be6565b809250505b915091565b6040518060400160405280600581526020017f352e302e3000000000000000000000000000000000000000000000000000000081525081565b6060606580549050821115610c3c5760658054905091505b5f8267ffffffffffffffff811115610c5757610c56612539565b5b604051908082528060200260200182016040528015610c9057816020015b610c7d612394565b815260200190600190039081610c755790505b5090505f5f90505b83811015610d545760658181548110610cb457610cb3612a6b565b5b905f5260205f2090600202016040518060400160405290815f82015f9054906101000a900473ffffffffffffffffffffffffffffffffffffffff1673ffffffffffffffffffffffffffffffffffffffff1673ffffffffffffffffffffffffffffffffffffffff168152602001600182015481525050828281518110610d3c57610d3b612a6b565b5b60200260200101819052508080600101915050610c98565b5080915050919050565b60665481565b610d6c610fd7565b5f73ffffffffffffffffffffffffffffffffffffffff168173ffffffffffffffffffffffffffffffffffffffff1603610ddc575f6040517f1e4fbdf7000000000000000000000000000000000000000000000000000000008152600401610dd39190612768565b60405180910390fd5b610de58161171d565b50565b5f610df1611815565b90505f815f0160089054906101000a900460ff161590505f825f015f9054906101000a900467ffffffffffffffff1690505f5f8267ffffffffffffffff16148015610e395750825b90505f60018367ffffffffffffffff16148015610e6c57505f3073ffffffffffffffffffffffffffffffffffffffff163b145b905081158015610e7a575080155b15610eb1576040517ff92ee8a900000000000000000000000000000000000000000000000000000000815260040160405180910390fd5b6001855f015f6101000a81548167ffffffffffffffff021916908367ffffffffffffffff1602179055508315610efe576001855f0160086101000a81548160ff0219169083151502179055505b5f86118015610f0e575060c88611155b610f4d576040517f08c379a0000000000000000000000000000000000000000000000000000000008152600401610f4490612c47565b60405180910390fd5b610f5633611828565b610f5e61183c565b610f6661184e565b610f6e611860565b856066819055508315610fcf575f855f0160086101000a81548160ff0219169083151502179055507fc7f505b2f371ae2175ee4913f4499e1f2633a7b5936321eed1cdaeb6115181d26001604051610fc69190612cba565b60405180910390a15b505050505050565b610fdf61186a565b73ffffffffffffffffffffffffffffffffffffffff16610ffd6109e0565b73ffffffffffffffffffffffffffffffffffffffff161461105c5761102061186a565b6040517f118cdaa70000000000000000000000000000000000000000000000000000000081526004016110539190612768565b60405180910390fd5b565b7f000000000000000000000000000000000000000000000000000000000000000073ffffffffffffffffffffffffffffffffffffffff163073ffffffffffffffffffffffffffffffffffffffff16148061110b57507f000000000000000000000000000000000000000000000000000000000000000073ffffffffffffffffffffffffffffffffffffffff166110f2611871565b73ffffffffffffffffffffffffffffffffffffffff1614155b15611142576040517fe07c8dba00000000000000000000000000000000000000000000000000000000815260040160405180910390fd5b565b61114c610fd7565b50565b8173ffffffffffffffffffffffffffffffffffffffff166352d1902d6040518163ffffffff1660e01b8152600401602060405180830381865afa9250505080156111b757506040513d601f19601f820116820180604052508101906111b49190612cfd565b60015b6111f857816040517f4c9c8ce30000000000000000000000000000000000000000000000000000000081526004016111ef9190612768565b60405180910390fd5b7f360894a13ba1a3210667c828492db98dca3e2076cc3735a920a3ca505d382bbc5f1b811461125e57806040517faa1d49a400000000000000000000000000000000000000000000000000000000815260040161125591906126cf565b60405180910390fd5b61126883836118c4565b505050565b7f000000000000000000000000000000000000000000000000000000000000000073ffffffffffffffffffffffffffffffffffffffff163073ffffffffffffffffffffffffffffffffffffffff16146112f2576040517fe07c8dba00000000000000000000000000000000000000000000000000000000815260040160405180910390fd5b565b6112fc6106bd565b1561133c576040517f08c379a000000000000000000000000000000000000000000000000000000000815260040161133390612d72565b60405180910390fd5b565b600260325403611383576040517f08c379a000000000000000000000000000000000000000000000000000000000815260040161137a90612dda565b60405180910390fd5b6002603281905550565b5f60675f8473ffffffffffffffffffffffffffffffffffffffff1673ffffffffffffffffffffffffffffffffffffffff1681526020019081526020015f205490505f8114611425575f6001826113e39190612a38565b905082606582815481106113fa576113f9612a6b565b5b905f5260205f2090600202016001018190555061141681611936565b61141f81611c7b565b5061170d565b606654606580549050101561154957606560405180604001604052808573ffffffffffffffffffffffffffffffffffffffff16815260200184815250908060018154018082558091505060019003905f5260205f2090600202015f909190919091505f820151815f015f6101000a81548173ffffffffffffffffffffffffffffffffffffffff021916908373ffffffffffffffffffffffffffffffffffffffff1602179055506020820151816001015550505f60016065805490506114ea9190612a38565b90506001816114f99190612df8565b60675f8673ffffffffffffffffffffffffffffffffffffffff1673ffffffffffffffffffffffffffffffffffffffff1681526020019081526020015f208190555061154381611936565b5061170c565b5f600160658054905061155c9190612a38565b90506065818154811061157257611571612a6b565b5b905f5260205f20906002020160010154831161158f57505061170f565b5f606582815481106115a4576115a3612a6b565b5b905f5260205f2090600202015f015f9054906101000a900473ffffffffffffffffffffffffffffffffffffffff1690505f60675f8373ffffffffffffffffffffffffffffffffffffffff1673ffffffffffffffffffffffffffffffffffffffff1681526020019081526020015f208190555060405180604001604052808673ffffffffffffffffffffffffffffffffffffffff168152602001858152506065838154811061165557611654612a6b565b5b905f5260205f2090600202015f820151815f015f6101000a81548173ffffffffffffffffffffffffffffffffffffffff021916908373ffffffffffffffffffffffffffffffffffffffff160217905550602082015181600101559050506001826116bf9190612df8565b60675f8773ffffffffffffffffffffffffffffffffffffffff1673ffffffffffffffffffffffffffffffffffffffff1681526020019081526020015f208190555061170982611936565b50505b5b505b5050565b6001603281905550565b5f6117266117ee565b90505f815f015f9054906101000a900473ffffffffffffffffffffffffffffffffffffffff16905082825f015f6101000a81548173ffffffffffffffffffffffffffffffffffffffff021916908373ffffffffffffffffffffffffffffffffffffffff1602179055508273ffffffffffffffffffffffffffffffffffffffff168173ffffffffffffffffffffffffffffffffffffffff167f8be0079c531659141344cd1fd0a4f28419497f9722a3daafe3b4186f6b6457e060405160405180910390a3505050565b5f7f9016d09d72d40fdae2fd8ceac6b6234c7706214fd39c1cd1e609a0528c199300905090565b5f5f61181f611fd6565b90508091505090565b611830611fff565b6118398161203f565b50565b611844611fff565b61184c6120c3565b565b611856611fff565b61185e6120e5565b565b611868611fff565b565b5f33905090565b5f61189d7f360894a13ba1a3210667c828492db98dca3e2076cc3735a920a3ca505d382bbc5f1b6120f7565b5f015f9054906101000a900473ffffffffffffffffffffffffffffffffffffffff16905090565b6118cd82612100565b8173ffffffffffffffffffffffffffffffffffffffff167fbc7cd75a20ee27fd9adebab32041f755214dbc6bffa90cc0225b39da2e5c2d3b60405160405180910390a25f815111156119295761192382826121c9565b50611932565b611931612249565b5b5050565b5b5f811115611c78575f60018261194d9190612a38565b90506065828154811061196357611962612a6b565b5b905f5260205f209060020201600101546065828154811061198757611986612a6b565b5b905f5260205f20906002020160010154106119a25750611c78565b5f606582815481106119b7576119b6612a6b565b5b905f5260205f2090600202016040518060400160405290815f82015f9054906101000a900473ffffffffffffffffffffffffffffffffffffffff1673ffffffffffffffffffffffffffffffffffffffff1673ffffffffffffffffffffffffffffffffffffffff168152602001600182015481525050905060658381548110611a4257611a41612a6b565b5b905f5260205f20906002020160658381548110611a6257611a61612a6b565b5b905f5260205f2090600202015f82015f9054906101000a900473ffffffffffffffffffffffffffffffffffffffff16815f015f6101000a81548173ffffffffffffffffffffffffffffffffffffffff021916908373ffffffffffffffffffffffffffffffffffffffff160217905550600182015481600101559050508060658481548110611af357611af2612a6b565b5b905f5260205f2090600202015f820151815f015f6101000a81548173ffffffffffffffffffffffffffffffffffffffff021916908373ffffffffffffffffffffffffffffffffffffffff16021790555060208201518160010155905050600182611b5d9190612df8565b60675f60658581548110611b7457611b73612a6b565b5b905f5260205f2090600202015f015f9054906101000a900473ffffffffffffffffffffffffffffffffffffffff1673ffffffffffffffffffffffffffffffffffffffff1673ffffffffffffffffffffffffffffffffffffffff1681526020019081526020015f2081905550600183611bec9190612df8565b60675f60658681548110611c0357611c02612a6b565b5b905f5260205f2090600202015f015f9054906101000a900473ffffffffffffffffffffffffffffffffffffffff1673ffffffffffffffffffffffffffffffffffffffff1673ffffffffffffffffffffffffffffffffffffffff1681526020019081526020015f20819055508192505050611937565b50565b5f60658054905090505b80600183611c939190612df8565b1015611fd2575f600183611ca79190612df8565b905060658181548110611cbd57611cbc612a6b565b5b905f5260205f2090600202016001015460658481548110611ce157611ce0612a6b565b5b905f5260205f2090600202016001015410611cfc5750611fd2565b5f60658281548110611d1157611d10612a6b565b5b905f5260205f2090600202016040518060400160405290815f82015f9054906101000a900473ffffffffffffffffffffffffffffffffffffffff1673ffffffffffffffffffffffffffffffffffffffff1673ffffffffffffffffffffffffffffffffffffffff168152602001600182015481525050905060658481548110611d9c57611d9b612a6b565b5b905f5260205f20906002020160658381548110611dbc57611dbb612a6b565b5b905f5260205f2090600202015f82015f9054906101000a900473ffffffffffffffffffffffffffffffffffffffff16815f015f6101000a81548173ffffffffffffffffffffffffffffffffffffffff021916908373ffffffffffffffffffffffffffffffffffffffff160217905550600182015481600101559050508060658581548110611e4d57611e4c612a6b565b5b905f5260205f2090600202015f820151815f015f6101000a81548173ffffffffffffffffffffffffffffffffffffffff021916908373ffffffffffffffffffffffffffffffffffffffff16021790555060208201518160010155905050600182611eb79190612df8565b60675f60658581548110611ece57611ecd612a6b565b5b905f5260205f2090600202015f015f9054906101000a900473ffffffffffffffffffffffffffffffffffffffff1673ffffffffffffffffffffffffffffffffffffffff1673ffffffffffffffffffffffffffffffffffffffff1681526020019081526020015f2081905550600184611f469190612df8565b60675f60658781548110611f5d57611f5c612a6b565b5b905f5260205f2090600202015f015f9054906101000a900473ffffffffffffffffffffffffffffffffffffffff1673ffffffffffffffffffffffffffffffffffffffff1673ffffffffffffffffffffffffffffffffffffffff1681526020019081526020015f20819055508193505050611c85565b5050565b5f7ff0c57e16840df040f15088dc2f81fe391c3923bec73e23a9662efc9c229c6a005f1b905090565b612007612285565b61203d576040517fd7e6bcf800000000000000000000000000000000000000000000000000000000815260040160405180910390fd5b565b612047611fff565b5f73ffffffffffffffffffffffffffffffffffffffff168173ffffffffffffffffffffffffffffffffffffffff16036120b7575f6040517f1e4fbdf70000000000000000000000000000000000000000000000000000000081526004016120ae9190612768565b60405180910390fd5b6120c08161171d565b50565b6120cb611fff565b5f5f5f6101000a81548160ff021916908315150217905550565b6120ed611fff565b6001603281905550565b5f819050919050565b5f8173ffffffffffffffffffffffffffffffffffffffff163b0361215b57806040517f4c9c8ce30000000000000000000000000000000000000000000000000000000081526004016121529190612768565b60405180910390fd5b806121877f360894a13ba1a3210667c828492db98dca3e2076cc3735a920a3ca505d382bbc5f1b6120f7565b5f015f6101000a81548173ffffffffffffffffffffffffffffffffffffffff021916908373ffffffffffffffffffffffffffffffffffffffff16021790555050565b60605f5f8473ffffffffffffffffffffffffffffffffffffffff16846040516121f29190612e6f565b5f60405180830381855af49150503d805f811461222a576040519150601f19603f3d011682016040523d82523d5f602084013e61222f565b606091505b509150915061223f8583836122a3565b9250505092915050565b5f341115612283576040517fb398979f00000000000000000000000000000000000000000000000000000000815260040160405180910390fd5b565b5f61228e611815565b5f0160089054906101000a900460ff16905090565b6060826122b8576122b382612330565b612328565b5f82511480156122de57505f8473ffffffffffffffffffffffffffffffffffffffff163b145b1561232057836040517f9996b3150000000000000000000000000000000000000000000000000000000081526004016123179190612768565b60405180910390fd5b819050612329565b5b9392505050565b5f8151111561234157805160208201fd5b6040517fd6bda27500000000000000000000000000000000000000000000000000000000815260040160405180910390fd5b5080545f8255600202905f5260205f209081019061239191906123c2565b50565b60405180604001604052805f73ffffffffffffffffffffffffffffffffffffffff1681526020015f81525090565b5b80821115612401575f5f82015f6101000a81549073ffffffffffffffffffffffffffffffffffffffff0219169055600182015f9055506002016123c3565b5090565b5f604051905090565b5f5ffd5b5f5ffd5b5f73ffffffffffffffffffffffffffffffffffffffff82169050919050565b5f61243f82612416565b9050919050565b61244f81612435565b8114612459575f5ffd5b50565b5f8135905061246a81612446565b92915050565b5f602082840312156124855761248461240e565b5b5f6124928482850161245c565b91505092915050565b5f819050919050565b6124ad8161249b565b82525050565b5f6020820190506124c65f8301846124a4565b92915050565b6124d58161249b565b81146124df575f5ffd5b50565b5f813590506124f0816124cc565b92915050565b5f6020828403121561250b5761250a61240e565b5b5f612518848285016124e2565b91505092915050565b5f5ffd5b5f5ffd5b5f601f19601f8301169050919050565b7f4e487b71000000000000000000000000000000000000000000000000000000005f52604160045260245ffd5b61256f82612529565b810181811067ffffffffffffffff8211171561258e5761258d612539565b5b80604052505050565b5f6125a0612405565b90506125ac8282612566565b919050565b5f67ffffffffffffffff8211156125cb576125ca612539565b5b6125d482612529565b9050602081019050919050565b828183375f83830152505050565b5f6126016125fc846125b1565b612597565b90508281526020810184848401111561261d5761261c612525565b5b6126288482856125e1565b509392505050565b5f82601f83011261264457612643612521565b5b81356126548482602086016125ef565b91505092915050565b5f5f604083850312156126735761267261240e565b5b5f6126808582860161245c565b925050602083013567ffffffffffffffff8111156126a1576126a0612412565b5b6126ad85828601612630565b9150509250929050565b5f819050919050565b6126c9816126b7565b82525050565b5f6020820190506126e25f8301846126c0565b92915050565b5f8115159050919050565b6126fc816126e8565b82525050565b5f6020820190506127155f8301846126f3565b92915050565b5f5f604083850312156127315761273061240e565b5b5f61273e8582860161245c565b925050602061274f858286016124e2565b9150509250929050565b61276281612435565b82525050565b5f60208201905061277b5f830184612759565b92915050565b61278a816126e8565b8114612794575f5ffd5b50565b5f813590506127a581612781565b92915050565b5f5f604083850312156127c1576127c061240e565b5b5f6127ce8582860161245c565b92505060206127df85828601612797565b9150509250929050565b5f6040820190506127fc5f8301856124a4565b61280960208301846124a4565b9392505050565b5f81519050919050565b5f82825260208201905092915050565b8281835e5f83830152505050565b5f61284282612810565b61284c818561281a565b935061285c81856020860161282a565b61286581612529565b840191505092915050565b5f6020820190508181035f8301526128888184612838565b905092915050565b5f81519050919050565b5f82825260208201905092915050565b5f819050602082019050919050565b6128c281612435565b82525050565b6128d18161249b565b82525050565b604082015f8201516128eb5f8501826128b9565b5060208201516128fe60208501826128c8565b50505050565b5f61290f83836128d7565b60408301905092915050565b5f602082019050919050565b5f61293182612890565b61293b818561289a565b9350612946836128aa565b805f5b8381101561297657815161295d8882612904565b97506129688361291b565b925050600181019050612949565b5085935050505092915050565b5f6020820190508181035f83015261299b8184612927565b905092915050565b7f696e76616c6964206d617820656e7472696573000000000000000000000000005f82015250565b5f6129d760138361281a565b91506129e2826129a3565b602082019050919050565b5f6020820190508181035f830152612a04816129cb565b9050919050565b7f4e487b71000000000000000000000000000000000000000000000000000000005f52601160045260245ffd5b5f612a428261249b565b9150612a4d8361249b565b9250828203905081811115612a6557612a64612a0b565b5b92915050565b7f4e487b71000000000000000000000000000000000000000000000000000000005f52603260045260245ffd5b7f4e487b71000000000000000000000000000000000000000000000000000000005f52603160045260245ffd5b7f6e6f7420617574686f72697a65640000000000000000000000000000000000005f82015250565b5f612af9600e8361281a565b9150612b0482612ac5565b602082019050919050565b5f6020820190508181035f830152612b2681612aed565b9050919050565b7f696e76616c696420706c617965720000000000000000000000000000000000005f82015250565b5f612b61600e8361281a565b9150612b6c82612b2d565b602082019050919050565b5f6020820190508181035f830152612b8e81612b55565b9050919050565b7f696e76616c6964207570646174657200000000000000000000000000000000005f82015250565b5f612bc9600f8361281a565b9150612bd482612b95565b602082019050919050565b5f6020820190508181035f830152612bf681612bbd565b9050919050565b7f696e76616c6964206d617820656e74726965732c206d617820323030000000005f82015250565b5f612c31601c8361281a565b9150612c3c82612bfd565b602082019050919050565b5f6020820190508181035f830152612c5e81612c25565b9050919050565b5f819050919050565b5f67ffffffffffffffff82169050919050565b5f819050919050565b5f612ca4612c9f612c9a84612c65565b612c81565b612c6e565b9050919050565b612cb481612c8a565b82525050565b5f602082019050612ccd5f830184612cab565b92915050565b612cdc816126b7565b8114612ce6575f5ffd5b50565b5f81519050612cf781612cd3565b92915050565b5f60208284031215612d1257612d1161240e565b5b5f612d1f84828501612ce9565b91505092915050565b7f5061757361626c653a20706175736564000000000000000000000000000000005f82015250565b5f612d5c60108361281a565b9150612d6782612d28565b602082019050919050565b5f6020820190508181035f830152612d8981612d50565b9050919050565b7f5265656e7472616e637947756172643a207265656e7472616e742063616c6c005f82015250565b5f612dc4601f8361281a565b9150612dcf82612d90565b602082019050919050565b5f6020820190508181035f830152612df181612db8565b9050919050565b5f612e028261249b565b9150612e0d8361249b565b9250828201905080821115612e2557612e24612a0b565b5b92915050565b5f81519050919050565b5f81905092915050565b5f612e4982612e2b565b612e538185612e35565b9350612e6381856020860161282a565b80840191505092915050565b5f612e7a8284612e3f565b91508190509291505056fea2646970667358221220ec3d5f268e5e0cdfe0fcf83dc28a3d599ee39a57f5663f9463453dfaec044d5a64736f6c634300081e0033",
					"opcodes": "PUSH1 0xA0 PUSH1 0x40 MSTORE ADDRESS PUSH20 0xFFFFFFFFFFFFFFFFFFFFFFFFFFFFFFFFFFFFFFFF AND PUSH1 0x80 SWAP1 PUSH20 0xFFFFFFFFFFFFFFFFFFFFFFFFFFFFFFFFFFFFFFFF AND DUP2 MSTORE POP CALLVALUE DUP1 ISZERO PUSH2 0x42 JUMPI PUSH0 PUSH0 REVERT JUMPDEST POP PUSH2 0x51 PUSH2 0x56 PUSH1 0x20 SHL PUSH1 0x20 SHR JUMP JUMPDEST PUSH2 0x1D1 JUMP JUMPDEST PUSH0 PUSH2 0x65 PUSH2 0x154 PUSH1 0x20 SHL PUSH1 0x20 SHR JUMP JUMPDEST SWAP1 POP DUP1 PUSH0 ADD PUSH1 0x8 SWAP1 SLOAD SWAP1 PUSH2 0x100 EXP SWAP1 DIV PUSH1 0xFF AND ISZERO PUSH2 0xAF JUMPI PUSH1 0x40 MLOAD PUSH32 0xF92EE8A900000000000000000000000000000000000000000000000000000000 DUP2 MSTORE PUSH1 0x4 ADD PUSH1 0x40 MLOAD DUP1 SWAP2 SUB SWAP1 REVERT JUMPDEST PUSH8 0xFFFFFFFFFFFFFFFF DUP1 AND DUP2 PUSH0 ADD PUSH0 SWAP1 SLOAD SWAP1 PUSH2 0x100 EXP SWAP1 DIV PUSH8 0xFFFFFFFFFFFFFFFF AND PUSH8 0xFFFFFFFFFFFFFFFF AND EQ PUSH2 0x151 JUMPI PUSH8 0xFFFFFFFFFFFFFFFF DUP2 PUSH0 ADD PUSH0 PUSH2 0x100 EXP DUP2 SLOAD DUP2 PUSH8 0xFFFFFFFFFFFFFFFF MUL NOT AND SWAP1 DUP4 PUSH8 0xFFFFFFFFFFFFFFFF AND MUL OR SWAP1 SSTORE POP PUSH32 0xC7F505B2F371AE2175EE4913F4499E1F2633A7B5936321EED1CDAEB6115181D2 PUSH8 0xFFFFFFFFFFFFFFFF PUSH1 0x40 MLOAD PUSH2 0x148 SWAP2 SWAP1 PUSH2 0x1B8 JUMP JUMPDEST PUSH1 0x40 MLOAD DUP1 SWAP2 SUB SWAP1 LOG1 JUMPDEST POP JUMP JUMPDEST PUSH0 PUSH0 PUSH2 0x164 PUSH2 0x16D PUSH1 0x20 SHL PUSH1 0x20 SHR JUMP JUMPDEST SWAP1 POP DUP1 SWAP2 POP POP SWAP1 JUMP JUMPDEST PUSH0 PUSH32 0xF0C57E16840DF040F15088DC2F81FE391C3923BEC73E23A9662EFC9C229C6A00 PUSH0 SHL SWAP1 POP SWAP1 JUMP JUMPDEST PUSH0 PUSH8 0xFFFFFFFFFFFFFFFF DUP3 AND SWAP1 POP SWAP2 SWAP1 POP JUMP JUMPDEST PUSH2 0x1B2 DUP2 PUSH2 0x196 JUMP JUMPDEST DUP3 MSTORE POP POP JUMP JUMPDEST PUSH0 PUSH1 0x20 DUP3 ADD SWAP1 POP PUSH2 0x1CB PUSH0 DUP4 ADD DUP5 PUSH2 0x1A9 JUMP JUMPDEST SWAP3 SWAP2 POP POP JUMP JUMPDEST PUSH1 0x80 MLOAD PUSH2 0x2EBB PUSH2 0x1F7 PUSH0 CODECOPY PUSH0 DUP2 DUP2 PUSH2 0x1060 ADD MSTORE DUP2 DUP2 PUSH2 0x10B5 ADD MSTORE PUSH2 0x126F ADD MSTORE PUSH2 0x2EBB PUSH0 RETURN INVALID PUSH1 0x80 PUSH1 0x40 MSTORE PUSH1 0x4 CALLDATASIZE LT PUSH2 0x108 JUMPI PUSH0 CALLDATALOAD PUSH1 0xE0 SHR DUP1 PUSH4 0x8DA5CB5B GT PUSH2 0x94 JUMPI DUP1 PUSH4 0xAD3CB1CC GT PUSH2 0x63 JUMPI DUP1 PUSH4 0xAD3CB1CC EQ PUSH2 0x33B JUMPI DUP1 PUSH4 0xBA3C0067 EQ PUSH2 0x365 JUMPI DUP1 PUSH4 0xF23F3BA5 EQ PUSH2 0x3A1 JUMPI DUP1 PUSH4 0xF2FDE38B EQ PUSH2 0x3CB JUMPI DUP1 PUSH4 0xFE4B84DF EQ PUSH2 0x3F3 JUMPI PUSH2 0x108 JUMP JUMPDEST DUP1 PUSH4 0x8DA5CB5B EQ PUSH2 0x270 JUMPI DUP1 PUSH4 0x8FF29CFE EQ PUSH2 0x29A JUMPI DUP1 PUSH4 0x99FC65D4 EQ PUSH2 0x2D6 JUMPI DUP1 PUSH4 0xA697CB0E EQ PUSH2 0x2FE JUMPI PUSH2 0x108 JUMP JUMPDEST DUP1 PUSH4 0x5C975ABB GT PUSH2 0xDB JUMPI DUP1 PUSH4 0x5C975ABB EQ PUSH2 0x1B6 JUMPI DUP1 PUSH4 0x65D97724 EQ PUSH2 0x1E0 JUMPI DUP1 PUSH4 0x6EEF5220 EQ PUSH2 0x208 JUMPI DUP1 PUSH4 0x715018A6 EQ PUSH2 0x21E JUMPI DUP1 PUSH4 0x76DD110F EQ PUSH2 0x234 JUMPI PUSH2 0x108 JUMP JUMPDEST DUP1 PUSH4 0xA9B337F EQ PUSH2 0x10C JUMPI DUP1 PUSH4 0x45A587AE EQ PUSH2 0x148 JUMPI DUP1 PUSH4 0x4F1EF286 EQ PUSH2 0x170 JUMPI DUP1 PUSH4 0x52D1902D EQ PUSH2 0x18C JUMPI JUMPDEST PUSH0 PUSH0 REVERT JUMPDEST CALLVALUE DUP1 ISZERO PUSH2 0x117 JUMPI PUSH0 PUSH0 REVERT JUMPDEST POP PUSH2 0x132 PUSH1 0x4 DUP1 CALLDATASIZE SUB DUP2 ADD SWAP1 PUSH2 0x12D SWAP2 SWAP1 PUSH2 0x2470 JUMP JUMPDEST PUSH2 0x41B JUMP JUMPDEST PUSH1 0x40 MLOAD PUSH2 0x13F SWAP2 SWAP1 PUSH2 0x24B3 JUMP JUMPDEST PUSH1 0x40 MLOAD DUP1 SWAP2 SUB SWAP1 RETURN JUMPDEST CALLVALUE DUP1 ISZERO PUSH2 0x153 JUMPI PUSH0 PUSH0 REVERT JUMPDEST POP PUSH2 0x16E PUSH1 0x4 DUP1 CALLDATASIZE SUB DUP2 ADD SWAP1 PUSH2 0x169 SWAP2 SWAP1 PUSH2 0x24F6 JUMP JUMPDEST PUSH2 0x430 JUMP JUMPDEST STOP JUMPDEST PUSH2 0x18A PUSH1 0x4 DUP1 CALLDATASIZE SUB DUP2 ADD SWAP1 PUSH2 0x185 SWAP2 SWAP1 PUSH2 0x265D JUMP JUMPDEST PUSH2 0x66D JUMP JUMPDEST STOP JUMPDEST CALLVALUE DUP1 ISZERO PUSH2 0x197 JUMPI PUSH0 PUSH0 REVERT JUMPDEST POP PUSH2 0x1A0 PUSH2 0x68C JUMP JUMPDEST PUSH1 0x40 MLOAD PUSH2 0x1AD SWAP2 SWAP1 PUSH2 0x26CF JUMP JUMPDEST PUSH1 0x40 MLOAD DUP1 SWAP2 SUB SWAP1 RETURN JUMPDEST CALLVALUE DUP1 ISZERO PUSH2 0x1C1 JUMPI PUSH0 PUSH0 REVERT JUMPDEST POP PUSH2 0x1CA PUSH2 0x6BD JUMP JUMPDEST PUSH1 0x40 MLOAD PUSH2 0x1D7 SWAP2 SWAP1 PUSH2 0x2702 JUMP JUMPDEST PUSH1 0x40 MLOAD DUP1 SWAP2 SUB SWAP1 RETURN JUMPDEST CALLVALUE DUP1 ISZERO PUSH2 0x1EB JUMPI PUSH0 PUSH0 REVERT JUMPDEST POP PUSH2 0x206 PUSH1 0x4 DUP1 CALLDATASIZE SUB DUP2 ADD SWAP1 PUSH2 0x201 SWAP2 SWAP1 PUSH2 0x271B JUMP JUMPDEST PUSH2 0x6D1 JUMP JUMPDEST STOP JUMPDEST CALLVALUE DUP1 ISZERO PUSH2 0x213 JUMPI PUSH0 PUSH0 REVERT JUMPDEST POP PUSH2 0x21C PUSH2 0x8D2 JUMP JUMPDEST STOP JUMPDEST CALLVALUE DUP1 ISZERO PUSH2 0x229 JUMPI PUSH0 PUSH0 REVERT JUMPDEST POP PUSH2 0x232 PUSH2 0x9B8 JUMP JUMPDEST STOP JUMPDEST CALLVALUE DUP1 ISZERO PUSH2 0x23F JUMPI PUSH0 PUSH0 REVERT JUMPDEST POP PUSH2 0x25A PUSH1 0x4 DUP1 CALLDATASIZE SUB DUP2 ADD SWAP1 PUSH2 0x255 SWAP2 SWAP1 PUSH2 0x2470 JUMP JUMPDEST PUSH2 0x9CB JUMP JUMPDEST PUSH1 0x40 MLOAD PUSH2 0x267 SWAP2 SWAP1 PUSH2 0x24B3 JUMP JUMPDEST PUSH1 0x40 MLOAD DUP1 SWAP2 SUB SWAP1 RETURN JUMPDEST CALLVALUE DUP1 ISZERO PUSH2 0x27B JUMPI PUSH0 PUSH0 REVERT JUMPDEST POP PUSH2 0x284 PUSH2 0x9E0 JUMP JUMPDEST PUSH1 0x40 MLOAD PUSH2 0x291 SWAP2 SWAP1 PUSH2 0x2768 JUMP JUMPDEST PUSH1 0x40 MLOAD DUP1 SWAP2 SUB SWAP1 RETURN JUMPDEST CALLVALUE DUP1 ISZERO PUSH2 0x2A5 JUMPI PUSH0 PUSH0 REVERT JUMPDEST POP PUSH2 0x2C0 PUSH1 0x4 DUP1 CALLDATASIZE SUB DUP2 ADD SWAP1 PUSH2 0x2BB SWAP2 SWAP1 PUSH2 0x2470 JUMP JUMPDEST PUSH2 0xA15 JUMP JUMPDEST PUSH1 0x40 MLOAD PUSH2 0x2CD SWAP2 SWAP1 PUSH2 0x2702 JUMP JUMPDEST PUSH1 0x40 MLOAD DUP1 SWAP2 SUB SWAP1 RETURN JUMPDEST CALLVALUE DUP1 ISZERO PUSH2 0x2E1 JUMPI PUSH0 PUSH0 REVERT JUMPDEST POP PUSH2 0x2FC PUSH1 0x4 DUP1 CALLDATASIZE SUB DUP2 ADD SWAP1 PUSH2 0x2F7 SWAP2 SWAP1 PUSH2 0x27AB JUMP JUMPDEST PUSH2 0xA32 JUMP JUMPDEST STOP JUMPDEST CALLVALUE DUP1 ISZERO PUSH2 0x309 JUMPI PUSH0 PUSH0 REVERT JUMPDEST POP PUSH2 0x324 PUSH1 0x4 DUP1 CALLDATASIZE SUB DUP2 ADD SWAP1 PUSH2 0x31F SWAP2 SWAP1 PUSH2 0x2470 JUMP JUMPDEST PUSH2 0xB4E JUMP JUMPDEST PUSH1 0x40 MLOAD PUSH2 0x332 SWAP3 SWAP2 SWAP1 PUSH2 0x27E9 JUMP JUMPDEST PUSH1 0x40 MLOAD DUP1 SWAP2 SUB SWAP1 RETURN JUMPDEST CALLVALUE DUP1 ISZERO PUSH2 0x346 JUMPI PUSH0 PUSH0 REVERT JUMPDEST POP PUSH2 0x34F PUSH2 0xBEB JUMP JUMPDEST PUSH1 0x40 MLOAD PUSH2 0x35C SWAP2 SWAP1 PUSH2 0x2870 JUMP JUMPDEST PUSH1 0x40 MLOAD DUP1 SWAP2 SUB SWAP1 RETURN JUMPDEST CALLVALUE DUP1 ISZERO PUSH2 0x370 JUMPI PUSH0 PUSH0 REVERT JUMPDEST POP PUSH2 0x38B PUSH1 0x4 DUP1 CALLDATASIZE SUB DUP2 ADD SWAP1 PUSH2 0x386 SWAP2 SWAP1 PUSH2 0x24F6 JUMP JUMPDEST PUSH2 0xC24 JUMP JUMPDEST PUSH1 0x40 MLOAD PUSH2 0x398 SWAP2 SWAP1 PUSH2 0x2983 JUMP JUMPDEST PUSH1 0x40 MLOAD DUP1 SWAP2 SUB SWAP1 RETURN JUMPDEST CALLVALUE DUP1 ISZERO PUSH2 0x3AC JUMPI PUSH0 PUSH0 REVERT JUMPDEST POP PUSH2 0x3B5 PUSH2 0xD5E JUMP JUMPDEST PUSH1 0x40 MLOAD PUSH2 0x3C2 SWAP2 SWAP1 PUSH2 0x24B3 JUMP JUMPDEST PUSH1 0x40 MLOAD DUP1 SWAP2 SUB SWAP1 RETURN JUMPDEST CALLVALUE DUP1 ISZERO PUSH2 0x3D6 JUMPI PUSH0 PUSH0 REVERT JUMPDEST POP PUSH2 0x3F1 PUSH1 0x4 DUP1 CALLDATASIZE SUB DUP2 ADD SWAP1 PUSH2 0x3EC SWAP2 SWAP1 PUSH2 0x2470 JUMP JUMPDEST PUSH2 0xD64 JUMP JUMPDEST STOP JUMPDEST CALLVALUE DUP1 ISZERO PUSH2 0x3FE JUMPI PUSH0 PUSH0 REVERT JUMPDEST POP PUSH2 0x419 PUSH1 0x4 DUP1 CALLDATASIZE SUB DUP2 ADD SWAP1 PUSH2 0x414 SWAP2 SWAP1 PUSH2 0x24F6 JUMP JUMPDEST PUSH2 0xDE8 JUMP JUMPDEST STOP JUMPDEST PUSH1 0x67 PUSH1 0x20 MSTORE DUP1 PUSH0 MSTORE PUSH1 0x40 PUSH0 KECCAK256 PUSH0 SWAP2 POP SWAP1 POP SLOAD DUP2 JUMP JUMPDEST PUSH2 0x438 PUSH2 0xFD7 JUMP JUMPDEST PUSH0 DUP2 GT DUP1 ISZERO PUSH2 0x448 JUMPI POP PUSH1 0xC8 DUP2 GT ISZERO JUMPDEST PUSH2 0x487 JUMPI PUSH1 0x40 MLOAD PUSH32 0x8C379A000000000000000000000000000000000000000000000000000000000 DUP2 MSTORE PUSH1 0x4 ADD PUSH2 0x47E SWAP1 PUSH2 0x29ED JUMP JUMPDEST PUSH1 0x40 MLOAD DUP1 SWAP2 SUB SWAP1 REVERT JUMPDEST PUSH0 PUSH1 0x66 SLOAD SWAP1 POP PUSH1 0x66 SLOAD DUP3 LT ISZERO PUSH2 0x629 JUMPI JUMPDEST DUP2 PUSH1 0x65 DUP1 SLOAD SWAP1 POP GT ISZERO PUSH2 0x628 JUMPI PUSH0 PUSH1 0x65 PUSH1 0x1 PUSH1 0x65 DUP1 SLOAD SWAP1 POP PUSH2 0x4BA SWAP2 SWAP1 PUSH2 0x2A38 JUMP JUMPDEST DUP2 SLOAD DUP2 LT PUSH2 0x4CB JUMPI PUSH2 0x4CA PUSH2 0x2A6B JUMP JUMPDEST JUMPDEST SWAP1 PUSH0 MSTORE PUSH1 0x20 PUSH0 KECCAK256 SWAP1 PUSH1 0x2 MUL ADD PUSH1 0x40 MLOAD DUP1 PUSH1 0x40 ADD PUSH1 0x40 MSTORE SWAP1 DUP2 PUSH0 DUP3 ADD PUSH0 SWAP1 SLOAD SWAP1 PUSH2 0x100 EXP SWAP1 DIV PUSH20 0xFFFFFFFFFFFFFFFFFFFFFFFFFFFFFFFFFFFFFFFF AND PUSH20 0xFFFFFFFFFFFFFFFFFFFFFFFFFFFFFFFFFFFFFFFF AND PUSH20 0xFFFFFFFFFFFFFFFFFFFFFFFFFFFFFFFFFFFFFFFF AND DUP2 MSTORE PUSH1 0x20 ADD PUSH1 0x1 DUP3 ADD SLOAD DUP2 MSTORE POP POP SWAP1 POP PUSH0 PUSH1 0x67 PUSH0 DUP4 PUSH0 ADD MLOAD PUSH20 0xFFFFFFFFFFFFFFFFFFFFFFFFFFFFFFFFFFFFFFFF AND PUSH20 0xFFFFFFFFFFFFFFFFFFFFFFFFFFFFFFFFFFFFFFFF AND DUP2 MSTORE PUSH1 0x20 ADD SWAP1 DUP2 MSTORE PUSH1 0x20 ADD PUSH0 KECCAK256 DUP2 SWAP1 SSTORE POP PUSH1 0x65 DUP1 SLOAD DUP1 PUSH2 0x599 JUMPI PUSH2 0x598 PUSH2 0x2A98 JUMP JUMPDEST JUMPDEST PUSH1 0x1 SWAP1 SUB DUP2 DUP2 SWAP1 PUSH0 MSTORE PUSH1 0x20 PUSH0 KECCAK256 SWAP1 PUSH1 0x2 MUL ADD PUSH0 PUSH0 DUP3 ADD PUSH0 PUSH2 0x100 EXP DUP2 SLOAD SWAP1 PUSH20 0xFFFFFFFFFFFFFFFFFFFFFFFFFFFFFFFFFFFFFFFF MUL NOT AND SWAP1 SSTORE PUSH1 0x1 DUP3 ADD PUSH0 SWAP1 SSTORE POP POP SWAP1 SSTORE DUP1 PUSH0 ADD MLOAD PUSH20 0xFFFFFFFFFFFFFFFFFFFFFFFFFFFFFFFFFFFFFFFF AND PUSH32 0x4AA8F37B1C02D2E7A161C65D88E8B28520237D9523CD588A6B21EC10311B5DD8 PUSH1 0x40 MLOAD PUSH1 0x40 MLOAD DUP1 SWAP2 SUB SWAP1 LOG2 POP PUSH2 0x498 JUMP JUMPDEST JUMPDEST DUP2 PUSH1 0x66 DUP2 SWAP1 SSTORE POP PUSH32 0xA61D601F6958397B49D3D15AB5E4C91A755B88F301E68C13D4D3D0BE30A9B71 DUP2 DUP4 PUSH1 0x40 MLOAD PUSH2 0x661 SWAP3 SWAP2 SWAP1 PUSH2 0x27E9 JUMP JUMPDEST PUSH1 0x40 MLOAD DUP1 SWAP2 SUB SWAP1 LOG1 POP POP JUMP JUMPDEST PUSH2 0x675 PUSH2 0x105E JUMP JUMPDEST PUSH2 0x67E DUP3 PUSH2 0x1144 JUMP JUMPDEST PUSH2 0x688 DUP3 DUP3 PUSH2 0x114F JUMP JUMPDEST POP POP JUMP JUMPDEST PUSH0 PUSH2 0x695 PUSH2 0x126D JUMP JUMPDEST PUSH32 0x360894A13BA1A3210667C828492DB98DCA3E2076CC3735A920A3CA505D382BBC PUSH0 SHL SWAP1 POP SWAP1 JUMP JUMPDEST PUSH0 PUSH0 PUSH0 SWAP1 SLOAD SWAP1 PUSH2 0x100 EXP SWAP1 DIV PUSH1 0xFF AND SWAP1 POP SWAP1 JUMP JUMPDEST PUSH2 0x6D9 PUSH2 0x12F4 JUMP JUMPDEST PUSH1 0x68 PUSH0 CALLER PUSH20 0xFFFFFFFFFFFFFFFFFFFFFFFFFFFFFFFFFFFFFFFF AND PUSH20 0xFFFFFFFFFFFFFFFFFFFFFFFFFFFFFFFFFFFFFFFF AND DUP2 MSTORE PUSH1 0x20 ADD SWAP1 DUP2 MSTORE PUSH1 0x20 ADD PUSH0 KECCAK256 PUSH0 SWAP1 SLOAD SWAP1 PUSH2 0x100 EXP SWAP1 DIV PUSH1 0xFF AND DUP1 PUSH2 0x760 JUMPI POP CALLER PUSH20 0xFFFFFFFFFFFFFFFFFFFFFFFFFFFFFFFFFFFFFFFF AND PUSH2 0x748 PUSH2 0x9E0 JUMP JUMPDEST PUSH20 0xFFFFFFFFFFFFFFFFFFFFFFFFFFFFFFFFFFFFFFFF AND EQ JUMPDEST PUSH2 0x79F JUMPI PUSH1 0x40 MLOAD PUSH32 0x8C379A000000000000000000000000000000000000000000000000000000000 DUP2 MSTORE PUSH1 0x4 ADD PUSH2 0x796 SWAP1 PUSH2 0x2B0F JUMP JUMPDEST PUSH1 0x40 MLOAD DUP1 SWAP2 SUB SWAP1 REVERT JUMPDEST PUSH2 0x7A7 PUSH2 0x133E JUMP JUMPDEST PUSH0 PUSH20 0xFFFFFFFFFFFFFFFFFFFFFFFFFFFFFFFFFFFFFFFF AND DUP3 PUSH20 0xFFFFFFFFFFFFFFFFFFFFFFFFFFFFFFFFFFFFFFFF AND SUB PUSH2 0x815 JUMPI PUSH1 0x40 MLOAD PUSH32 0x8C379A000000000000000000000000000000000000000000000000000000000 DUP2 MSTORE PUSH1 0x4 ADD PUSH2 0x80C SWAP1 PUSH2 0x2B77 JUMP JUMPDEST PUSH1 0x40 MLOAD DUP1 SWAP2 SUB SWAP1 REVERT JUMPDEST DUP1 PUSH1 0x64 PUSH0 DUP5 PUSH20 0xFFFFFFFFFFFFFFFFFFFFFFFFFFFFFFFFFFFFFFFF AND PUSH20 0xFFFFFFFFFFFFFFFFFFFFFFFFFFFFFFFFFFFFFFFF AND DUP2 MSTORE PUSH1 0x20 ADD SWAP1 DUP2 MSTORE PUSH1 0x20 ADD PUSH0 KECCAK256 DUP2 SWAP1 SSTORE POP PUSH2 0x861 DUP3 DUP3 PUSH2 0x138D JUMP JUMPDEST DUP2 PUSH20 0xFFFFFFFFFFFFFFFFFFFFFFFFFFFFFFFFFFFFFFFF AND CALLER PUSH20 0xFFFFFFFFFFFFFFFFFFFFFFFFFFFFFFFFFFFFFFFF AND PUSH32 0xE224E5A0583A60821F4BB611EA7A905FF6025CB7E442F3C3E5925F3B7223DD64 DUP4 PUSH1 0x40 MLOAD PUSH2 0x8BE SWAP2 SWAP1 PUSH2 0x24B3 JUMP JUMPDEST PUSH1 0x40 MLOAD DUP1 SWAP2 SUB SWAP1 LOG3 PUSH2 0x8CE PUSH2 0x1713 JUMP JUMPDEST POP POP JUMP JUMPDEST PUSH2 0x8DA PUSH2 0xFD7 JUMP JUMPDEST PUSH0 PUSH0 SWAP1 POP JUMPDEST PUSH1 0x65 DUP1 SLOAD SWAP1 POP DUP2 LT ISZERO PUSH2 0x97C JUMPI PUSH0 PUSH1 0x67 PUSH0 PUSH1 0x65 DUP5 DUP2 SLOAD DUP2 LT PUSH2 0x904 JUMPI PUSH2 0x903 PUSH2 0x2A6B JUMP JUMPDEST JUMPDEST SWAP1 PUSH0 MSTORE PUSH1 0x20 PUSH0 KECCAK256 SWAP1 PUSH1 0x2 MUL ADD PUSH0 ADD PUSH0 SWAP1 SLOAD SWAP1 PUSH2 0x100 EXP SWAP1 DIV PUSH20 0xFFFFFFFFFFFFFFFFFFFFFFFFFFFFFFFFFFFFFFFF AND PUSH20 0xFFFFFFFFFFFFFFFFFFFFFFFFFFFFFFFFFFFFFFFF AND PUSH20 0xFFFFFFFFFFFFFFFFFFFFFFFFFFFFFFFFFFFFFFFF AND DUP2 MSTORE PUSH1 0x20 ADD SWAP1 DUP2 MSTORE PUSH1 0x20 ADD PUSH0 KECCAK256 DUP2 SWAP1 SSTORE POP DUP1 DUP1 PUSH1 0x1 ADD SWAP2 POP POP PUSH2 0x8DF JUMP JUMPDEST POP PUSH1 0x65 PUSH0 PUSH2 0x98A SWAP2 SWAP1 PUSH2 0x2373 JUMP JUMPDEST PUSH32 0xBA0DD1B89D07A0CCE0CE70C4D1037363BC6FF4DBC6B1B80B5452E167FAC36C28 PUSH1 0x40 MLOAD PUSH1 0x40 MLOAD DUP1 SWAP2 SUB SWAP1 LOG1 JUMP JUMPDEST PUSH2 0x9C0 PUSH2 0xFD7 JUMP JUMPDEST PUSH2 0x9C9 PUSH0 PUSH2 0x171D JUMP JUMPDEST JUMP JUMPDEST PUSH1 0x64 PUSH1 0x20 MSTORE DUP1 PUSH0 MSTORE PUSH1 0x40 PUSH0 KECCAK256 PUSH0 SWAP2 POP SWAP1 POP SLOAD DUP2 JUMP JUMPDEST PUSH0 PUSH0 PUSH2 0x9EA PUSH2 0x17EE JUMP JUMPDEST SWAP1 POP DUP1 PUSH0 ADD PUSH0 SWAP1 SLOAD SWAP1 PUSH2 0x100 EXP SWAP1 DIV PUSH20 0xFFFFFFFFFFFFFFFFFFFFFFFFFFFFFFFFFFFFFFFF AND SWAP2 POP POP SWAP1 JUMP JUMPDEST PUSH1 0x68 PUSH1 0x20 MSTORE DUP1 PUSH0 MSTORE PUSH1 0x40 PUSH0 KECCAK256 PUSH0 SWAP2 POP SLOAD SWAP1 PUSH2 0x100 EXP SWAP1 DIV PUSH1 0xFF AND DUP2 JUMP JUMPDEST PUSH2 0xA3A PUSH2 0xFD7 JUMP JUMPDEST PUSH0 PUSH20 0xFFFFFFFFFFFFFFFFFFFFFFFFFFFFFFFFFFFFFFFF AND DUP3 PUSH20 0xFFFFFFFFFFFFFFFFFFFFFFFFFFFFFFFFFFFFFFFF AND SUB PUSH2 0xAA8 JUMPI PUSH1 0x40 MLOAD PUSH32 0x8C379A000000000000000000000000000000000000000000000000000000000 DUP2 MSTORE PUSH1 0x4 ADD PUSH2 0xA9F SWAP1 PUSH2 0x2BDF JUMP JUMPDEST PUSH1 0x40 MLOAD DUP1 SWAP2 SUB SWAP1 REVERT JUMPDEST DUP1 PUSH1 0x68 PUSH0 DUP5 PUSH20 0xFFFFFFFFFFFFFFFFFFFFFFFFFFFFFFFFFFFFFFFF AND PUSH20 0xFFFFFFFFFFFFFFFFFFFFFFFFFFFFFFFFFFFFFFFF AND DUP2 MSTORE PUSH1 0x20 ADD SWAP1 DUP2 MSTORE PUSH1 0x20 ADD PUSH0 KECCAK256 PUSH0 PUSH2 0x100 EXP DUP2 SLOAD DUP2 PUSH1 0xFF MUL NOT AND SWAP1 DUP4 ISZERO ISZERO MUL OR SWAP1 SSTORE POP DUP2 PUSH20 0xFFFFFFFFFFFFFFFFFFFFFFFFFFFFFFFFFFFFFFFF AND PUSH32 0xE80976C6C2C07678CE9937C9C4C043ACE71ABF610DDF891B568B77D7904F34F3 DUP3 PUSH1 0x40 MLOAD PUSH2 0xB42 SWAP2 SWAP1 PUSH2 0x2702 JUMP JUMPDEST PUSH1 0x40 MLOAD DUP1 SWAP2 SUB SWAP1 LOG2 POP POP JUMP JUMPDEST PUSH0 PUSH0 PUSH1 0x64 PUSH0 DUP5 PUSH20 0xFFFFFFFFFFFFFFFFFFFFFFFFFFFFFFFFFFFFFFFF AND PUSH20 0xFFFFFFFFFFFFFFFFFFFFFFFFFFFFFFFFFFFFFFFF AND DUP2 MSTORE PUSH1 0x20 ADD SWAP1 DUP2 MSTORE PUSH1 0x20 ADD PUSH0 KECCAK256 SLOAD SWAP1 POP PUSH0 PUSH1 0x67 PUSH0 DUP6 PUSH20 0xFFFFFFFFFFFFFFFFFFFFFFFFFFFFFFFFFFFFFFFF AND PUSH20 0xFFFFFFFFFFFFFFFFFFFFFFFFFFFFFFFFFFFFFFFF AND DUP2 MSTORE PUSH1 0x20 ADD SWAP1 DUP2 MSTORE PUSH1 0x20 ADD PUSH0 KECCAK256 SLOAD SWAP1 POP PUSH0 DUP2 SUB PUSH2 0xBE1 JUMPI PUSH0 SWAP3 POP POP PUSH2 0xBE6 JUMP JUMPDEST DUP1 SWAP3 POP POP JUMPDEST SWAP2 POP SWAP2 JUMP JUMPDEST PUSH1 0x40 MLOAD DUP1 PUSH1 0x40 ADD PUSH1 0x40 MSTORE DUP1 PUSH1 0x5 DUP2 MSTORE PUSH1 0x20 ADD PUSH32 0x352E302E30000000000000000000000000000000000000000000000000000000 DUP2 MSTORE POP DUP2 JUMP JUMPDEST PUSH1 0x60 PUSH1 0x65 DUP1 SLOAD SWAP1 POP DUP3 GT ISZERO PUSH2 0xC3C JUMPI PUSH1 0x65 DUP1 SLOAD SWAP1 POP SWAP2 POP JUMPDEST PUSH0 DUP3 PUSH8 0xFFFFFFFFFFFFFFFF DUP2 GT ISZERO PUSH2 0xC57 JUMPI PUSH2 0xC56 PUSH2 0x2539 JUMP JUMPDEST JUMPDEST PUSH1 0x40 MLOAD SWAP1 DUP1 DUP3 MSTORE DUP1 PUSH1 0x20 MUL PUSH1 0x20 ADD DUP3 ADD PUSH1 0x40 MSTORE DUP1 ISZERO PUSH2 0xC90 JUMPI DUP2 PUSH1 0x20 ADD JUMPDEST PUSH2 0xC7D PUSH2 0x2394 JUMP JUMPDEST DUP2 MSTORE PUSH1 0x20 ADD SWAP1 PUSH1 0x1 SWAP1 SUB SWAP1 DUP2 PUSH2 0xC75 JUMPI SWAP1 POP JUMPDEST POP SWAP1 POP PUSH0 PUSH0 SWAP1 POP JUMPDEST DUP4 DUP2 LT ISZERO PUSH2 0xD54 JUMPI PUSH1 0x65 DUP2 DUP2 SLOAD DUP2 LT PUSH2 0xCB4 JUMPI PUSH2 0xCB3 PUSH2 0x2A6B JUMP JUMPDEST JUMPDEST SWAP1 PUSH0 MSTORE PUSH1 0x20 PUSH0 KECCAK256 SWAP1 PUSH1 0x2 MUL ADD PUSH1 0x40 MLOAD DUP1 PUSH1 0x40 ADD PUSH1 0x40 MSTORE SWAP1 DUP2 PUSH0 DUP3 ADD PUSH0 SWAP1 SLOAD SWAP1 PUSH2 0x100 EXP SWAP1 DIV PUSH20 0xFFFFFFFFFFFFFFFFFFFFFFFFFFFFFFFFFFFFFFFF AND PUSH20 0xFFFFFFFFFFFFFFFFFFFFFFFFFFFFFFFFFFFFFFFF AND PUSH20 0xFFFFFFFFFFFFFFFFFFFFFFFFFFFFFFFFFFFFFFFF AND DUP2 MSTORE PUSH1 0x20 ADD PUSH1 0x1 DUP3 ADD SLOAD DUP2 MSTORE POP POP DUP3 DUP3 DUP2 MLOAD DUP2 LT PUSH2 0xD3C JUMPI PUSH2 0xD3B PUSH2 0x2A6B JUMP JUMPDEST JUMPDEST PUSH1 0x20 MUL PUSH1 0x20 ADD ADD DUP2 SWAP1 MSTORE POP DUP1 DUP1 PUSH1 0x1 ADD SWAP2 POP POP PUSH2 0xC98 JUMP JUMPDEST POP DUP1 SWAP2 POP POP SWAP2 SWAP1 POP JUMP JUMPDEST PUSH1 0x66 SLOAD DUP2 JUMP JUMPDEST PUSH2 0xD6C PUSH2 0xFD7 JUMP JUMPDEST PUSH0 PUSH20 0xFFFFFFFFFFFFFFFFFFFFFFFFFFFFFFFFFFFFFFFF AND DUP2 PUSH20 0xFFFFFFFFFFFFFFFFFFFFFFFFFFFFFFFFFFFFFFFF AND SUB PUSH2 0xDDC JUMPI PUSH0 PUSH1 0x40 MLOAD PUSH32 0x1E4FBDF700000000000000000000000000000000000000000000000000000000 DUP2 MSTORE PUSH1 0x4 ADD PUSH2 0xDD3 SWAP2 SWAP1 PUSH2 0x2768 JUMP JUMPDEST PUSH1 0x40 MLOAD DUP1 SWAP2 SUB SWAP1 REVERT JUMPDEST PUSH2 0xDE5 DUP2 PUSH2 0x171D JUMP JUMPDEST POP JUMP JUMPDEST PUSH0 PUSH2 0xDF1 PUSH2 0x1815 JUMP JUMPDEST SWAP1 POP PUSH0 DUP2 PUSH0 ADD PUSH1 0x8 SWAP1 SLOAD SWAP1 PUSH2 0x100 EXP SWAP1 DIV PUSH1 0xFF AND ISZERO SWAP1 POP PUSH0 DUP3 PUSH0 ADD PUSH0 SWAP1 SLOAD SWAP1 PUSH2 0x100 EXP SWAP1 DIV PUSH8 0xFFFFFFFFFFFFFFFF AND SWAP1 POP PUSH0 PUSH0 DUP3 PUSH8 0xFFFFFFFFFFFFFFFF AND EQ DUP1 ISZERO PUSH2 0xE39 JUMPI POP DUP3 JUMPDEST SWAP1 POP PUSH0 PUSH1 0x1 DUP4 PUSH8 0xFFFFFFFFFFFFFFFF AND EQ DUP1 ISZERO PUSH2 0xE6C JUMPI POP PUSH0 ADDRESS PUSH20 0xFFFFFFFFFFFFFFFFFFFFFFFFFFFFFFFFFFFFFFFF AND EXTCODESIZE EQ JUMPDEST SWAP1 POP DUP2 ISZERO DUP1 ISZERO PUSH2 0xE7A JUMPI POP DUP1 ISZERO JUMPDEST ISZERO PUSH2 0xEB1 JUMPI PUSH1 0x40 MLOAD PUSH32 0xF92EE8A900000000000000000000000000000000000000000000000000000000 DUP2 MSTORE PUSH1 0x4 ADD PUSH1 0x40 MLOAD DUP1 SWAP2 SUB SWAP1 REVERT JUMPDEST PUSH1 0x1 DUP6 PUSH0 ADD PUSH0 PUSH2 0x100 EXP DUP2 SLOAD DUP2 PUSH8 0xFFFFFFFFFFFFFFFF MUL NOT AND SWAP1 DUP4 PUSH8 0xFFFFFFFFFFFFFFFF AND MUL OR SWAP1 SSTORE POP DUP4 ISZERO PUSH2 0xEFE JUMPI PUSH1 0x1 DUP6 PUSH0 ADD PUSH1 0x8 PUSH2 0x100 EXP DUP2 SLOAD DUP2 PUSH1 0xFF MUL NOT AND SWAP1 DUP4 ISZERO ISZERO MUL OR SWAP1 SSTORE POP JUMPDEST PUSH0 DUP7 GT DUP1 ISZERO PUSH2 0xF0E JUMPI POP PUSH1 0xC8 DUP7 GT ISZERO JUMPDEST PUSH2 0xF4D JUMPI PUSH1 0x40 MLOAD PUSH32 0x8C379A000000000000000000000000000000000000000000000000000000000 DUP2 MSTORE PUSH1 0x4 ADD PUSH2 0xF44 SWAP1 PUSH2 0x2C47 JUMP JUMPDEST PUSH1 0x40 MLOAD DUP1 SWAP2 SUB SWAP1 REVERT JUMPDEST PUSH2 0xF56 CALLER PUSH2 0x1828 JUMP JUMPDEST PUSH2 0xF5E PUSH2 0x183C JUMP JUMPDEST PUSH2 0xF66 PUSH2 0x184E JUMP JUMPDEST PUSH2 0xF6E PUSH2 0x1860 JUMP JUMPDEST DUP6 PUSH1 0x66 DUP2 SWAP1 SSTORE POP DUP4 ISZERO PUSH2 0xFCF JUMPI PUSH0 DUP6 PUSH0 ADD PUSH1 0x8 PUSH2 0x100 EXP DUP2 SLOAD DUP2 PUSH1 0xFF MUL NOT AND SWAP1 DUP4 ISZERO ISZERO MUL OR SWAP1 SSTORE POP PUSH32 0xC7F505B2F371AE2175EE4913F4499E1F2633A7B5936321EED1CDAEB6115181D2 PUSH1 0x1 PUSH1 0x40 MLOAD PUSH2 0xFC6 SWAP2 SWAP1 PUSH2 0x2CBA JUMP JUMPDEST PUSH1 0x40 MLOAD DUP1 SWAP2 SUB SWAP1 LOG1 JUMPDEST POP POP POP POP POP POP JUMP JUMPDEST PUSH2 0xFDF PUSH2 0x186A JUMP JUMPDEST PUSH20 0xFFFFFFFFFFFFFFFFFFFFFFFFFFFFFFFFFFFFFFFF AND PUSH2 0xFFD PUSH2 0x9E0 JUMP JUMPDEST PUSH20 0xFFFFFFFFFFFFFFFFFFFFFFFFFFFFFFFFFFFFFFFF AND EQ PUSH2 0x105C JUMPI PUSH2 0x1020 PUSH2 0x186A JUMP JUMPDEST PUSH1 0x40 MLOAD PUSH32 0x118CDAA700000000000000000000000000000000000000000000000000000000 DUP2 MSTORE PUSH1 0x4 ADD PUSH2 0x1053 SWAP2 SWAP1 PUSH2 0x2768 JUMP JUMPDEST PUSH1 0x40 MLOAD DUP1 SWAP2 SUB SWAP1 REVERT JUMPDEST JUMP JUMPDEST PUSH32 0x0 PUSH20 0xFFFFFFFFFFFFFFFFFFFFFFFFFFFFFFFFFFFFFFFF AND ADDRESS PUSH20 0xFFFFFFFFFFFFFFFFFFFFFFFFFFFFFFFFFFFFFFFF AND EQ DUP1 PUSH2 0x110B JUMPI POP PUSH32 0x0 PUSH20 0xFFFFFFFFFFFFFFFFFFFFFFFFFFFFFFFFFFFFFFFF AND PUSH2 0x10F2 PUSH2 0x1871 JUMP JUMPDEST PUSH20 0xFFFFFFFFFFFFFFFFFFFFFFFFFFFFFFFFFFFFFFFF AND EQ ISZERO JUMPDEST ISZERO PUSH2 0x1142 JUMPI PUSH1 0x40 MLOAD PUSH32 0xE07C8DBA00000000000000000000000000000000000000000000000000000000 DUP2 MSTORE PUSH1 0x4 ADD PUSH1 0x40 MLOAD DUP1 SWAP2 SUB SWAP1 REVERT JUMPDEST JUMP JUMPDEST PUSH2 0x114C PUSH2 0xFD7 JUMP JUMPDEST POP JUMP JUMPDEST DUP2 PUSH20 0xFFFFFFFFFFFFFFFFFFFFFFFFFFFFFFFFFFFFFFFF AND PUSH4 0x52D1902D PUSH1 0x40 MLOAD DUP2 PUSH4 0xFFFFFFFF AND PUSH1 0xE0 SHL DUP2 MSTORE PUSH1 0x4 ADD PUSH1 0x20 PUSH1 0x40 MLOAD DUP1 DUP4 SUB DUP2 DUP7 GAS STATICCALL SWAP3 POP POP POP DUP1 ISZERO PUSH2 0x11B7 JUMPI POP PUSH1 0x40 MLOAD RETURNDATASIZE PUSH1 0x1F NOT PUSH1 0x1F DUP3 ADD AND DUP3 ADD DUP1 PUSH1 0x40 MSTORE POP DUP2 ADD SWAP1 PUSH2 0x11B4 SWAP2 SWAP1 PUSH2 0x2CFD JUMP JUMPDEST PUSH1 0x1 JUMPDEST PUSH2 0x11F8 JUMPI DUP2 PUSH1 0x40 MLOAD PUSH32 0x4C9C8CE300000000000000000000000000000000000000000000000000000000 DUP2 MSTORE PUSH1 0x4 ADD PUSH2 0x11EF SWAP2 SWAP1 PUSH2 0x2768 JUMP JUMPDEST PUSH1 0x40 MLOAD DUP1 SWAP2 SUB SWAP1 REVERT JUMPDEST PUSH32 0x360894A13BA1A3210667C828492DB98DCA3E2076CC3735A920A3CA505D382BBC PUSH0 SHL DUP2 EQ PUSH2 0x125E JUMPI DUP1 PUSH1 0x40 MLOAD PUSH32 0xAA1D49A400000000000000000000000000000000000000000000000000000000 DUP2 MSTORE PUSH1 0x4 ADD PUSH2 0x1255 SWAP2 SWAP1 PUSH2 0x26CF JUMP JUMPDEST PUSH1 0x40 MLOAD DUP1 SWAP2 SUB SWAP1 REVERT JUMPDEST PUSH2 0x1268 DUP4 DUP4 PUSH2 0x18C4 JUMP JUMPDEST POP POP POP JUMP JUMPDEST PUSH32 0x0 PUSH20 0xFFFFFFFFFFFFFFFFFFFFFFFFFFFFFFFFFFFFFFFF AND ADDRESS PUSH20 0xFFFFFFFFFFFFFFFFFFFFFFFFFFFFFFFFFFFFFFFF AND EQ PUSH2 0x12F2 JUMPI PUSH1 0x40 MLOAD PUSH32 0xE07C8DBA00000000000000000000000000000000000000000000000000000000 DUP2 MSTORE PUSH1 0x4 ADD PUSH1 0x40 MLOAD DUP1 SWAP2 SUB SWAP1 REVERT JUMPDEST JUMP JUMPDEST PUSH2 0x12FC PUSH2 0x6BD JUMP JUMPDEST ISZERO PUSH2 0x133C JUMPI PUSH1 0x40 MLOAD PUSH32 0x8C379A000000000000000000000000000000000000000000000000000000000 DUP2 MSTORE PUSH1 0x4 ADD PUSH2 0x1333 SWAP1 PUSH2 0x2D72 JUMP JUMPDEST PUSH1 0x40 MLOAD DUP1 SWAP2 SUB SWAP1 REVERT JUMPDEST JUMP JUMPDEST PUSH1 0x2 PUSH1 0x32 SLOAD SUB PUSH2 0x1383 JUMPI PUSH1 0x40 MLOAD PUSH32 0x8C379A000000000000000000000000000000000000000000000000000000000 DUP2 MSTORE PUSH1 0x4 ADD PUSH2 0x137A SWAP1 PUSH2 0x2DDA JUMP JUMPDEST PUSH1 0x40 MLOAD DUP1 SWAP2 SUB SWAP1 REVERT JUMPDEST PUSH1 0x2 PUSH1 0x32 DUP2 SWAP1 SSTORE POP JUMP JUMPDEST PUSH0 PUSH1 0x67 PUSH0 DUP5 PUSH20 0xFFFFFFFFFFFFFFFFFFFFFFFFFFFFFFFFFFFFFFFF AND PUSH20 0xFFFFFFFFFFFFFFFFFFFFFFFFFFFFFFFFFFFFFFFF AND DUP2 MSTORE PUSH1 0x20 ADD SWAP1 DUP2 MSTORE PUSH1 0x20 ADD PUSH0 KECCAK256 SLOAD SWAP1 POP PUSH0 DUP2 EQ PUSH2 0x1425 JUMPI PUSH0 PUSH1 0x1 DUP3 PUSH2 0x13E3 SWAP2 SWAP1 PUSH2 0x2A38 JUMP JUMPDEST SWAP1 POP DUP3 PUSH1 0x65 DUP3 DUP2 SLOAD DUP2 LT PUSH2 0x13FA JUMPI PUSH2 0x13F9 PUSH2 0x2A6B JUMP JUMPDEST JUMPDEST SWAP1 PUSH0 MSTORE PUSH1 0x20 PUSH0 KECCAK256 SWAP1 PUSH1 0x2 MUL ADD PUSH1 0x1 ADD DUP2 SWAP1 SSTORE POP PUSH2 0x1416 DUP2 PUSH2 0x1936 JUMP JUMPDEST PUSH2 0x141F DUP2 PUSH2 0x1C7B JUMP JUMPDEST POP PUSH2 0x170D JUMP JUMPDEST PUSH1 0x66 SLOAD PUSH1 0x65 DUP1 SLOAD SWAP1 POP LT ISZERO PUSH2 0x1549 JUMPI PUSH1 0x65 PUSH1 0x40 MLOAD DUP1 PUSH1 0x40 ADD PUSH1 0x40 MSTORE DUP1 DUP6 PUSH20 0xFFFFFFFFFFFFFFFFFFFFFFFFFFFFFFFFFFFFFFFF AND DUP2 MSTORE PUSH1 0x20 ADD DUP5 DUP2 MSTORE POP SWAP1 DUP1 PUSH1 0x1 DUP2 SLOAD ADD DUP1 DUP3 SSTORE DUP1 SWAP2 POP POP PUSH1 0x1 SWAP1 SUB SWAP1 PUSH0 MSTORE PUSH1 0x20 PUSH0 KECCAK256 SWAP1 PUSH1 0x2 MUL ADD PUSH0 SWAP1 SWAP2 SWAP1 SWAP2 SWAP1 SWAP2 POP PUSH0 DUP3 ADD MLOAD DUP2 PUSH0 ADD PUSH0 PUSH2 0x100 EXP DUP2 SLOAD DUP2 PUSH20 0xFFFFFFFFFFFFFFFFFFFFFFFFFFFFFFFFFFFFFFFF MUL NOT AND SWAP1 DUP4 PUSH20 0xFFFFFFFFFFFFFFFFFFFFFFFFFFFFFFFFFFFFFFFF AND MUL OR SWAP1 SSTORE POP PUSH1 0x20 DUP3 ADD MLOAD DUP2 PUSH1 0x1 ADD SSTORE POP POP PUSH0 PUSH1 0x1 PUSH1 0x65 DUP1 SLOAD SWAP1 POP PUSH2 0x14EA SWAP2 SWAP1 PUSH2 0x2A38 JUMP JUMPDEST SWAP1 POP PUSH1 0x1 DUP2 PUSH2 0x14F9 SWAP2 SWAP1 PUSH2 0x2DF8 JUMP JUMPDEST PUSH1 0x67 PUSH0 DUP7 PUSH20 0xFFFFFFFFFFFFFFFFFFFFFFFFFFFFFFFFFFFFFFFF AND PUSH20 0xFFFFFFFFFFFFFFFFFFFFFFFFFFFFFFFFFFFFFFFF AND DUP2 MSTORE PUSH1 0x20 ADD SWAP1 DUP2 MSTORE PUSH1 0x20 ADD PUSH0 KECCAK256 DUP2 SWAP1 SSTORE POP PUSH2 0x1543 DUP2 PUSH2 0x1936 JUMP JUMPDEST POP PUSH2 0x170C JUMP JUMPDEST PUSH0 PUSH1 0x1 PUSH1 0x65 DUP1 SLOAD SWAP1 POP PUSH2 0x155C SWAP2 SWAP1 PUSH2 0x2A38 JUMP JUMPDEST SWAP1 POP PUSH1 0x65 DUP2 DUP2 SLOAD DUP2 LT PUSH2 0x1572 JUMPI PUSH2 0x1571 PUSH2 0x2A6B JUMP JUMPDEST JUMPDEST SWAP1 PUSH0 MSTORE PUSH1 0x20 PUSH0 KECCAK256 SWAP1 PUSH1 0x2 MUL ADD PUSH1 0x1 ADD SLOAD DUP4 GT PUSH2 0x158F JUMPI POP POP PUSH2 0x170F JUMP JUMPDEST PUSH0 PUSH1 0x65 DUP3 DUP2 SLOAD DUP2 LT PUSH2 0x15A4 JUMPI PUSH2 0x15A3 PUSH2 0x2A6B JUMP JUMPDEST JUMPDEST SWAP1 PUSH0 MSTORE PUSH1 0x20 PUSH0 KECCAK256 SWAP1 PUSH1 0x2 MUL ADD PUSH0 ADD PUSH0 SWAP1 SLOAD SWAP1 PUSH2 0x100 EXP SWAP1 DIV PUSH20 0xFFFFFFFFFFFFFFFFFFFFFFFFFFFFFFFFFFFFFFFF AND SWAP1 POP PUSH0 PUSH1 0x67 PUSH0 DUP4 PUSH20 0xFFFFFFFFFFFFFFFFFFFFFFFFFFFFFFFFFFFFFFFF AND PUSH20 0xFFFFFFFFFFFFFFFFFFFFFFFFFFFFFFFFFFFFFFFF AND DUP2 MSTORE PUSH1 0x20 ADD SWAP1 DUP2 MSTORE PUSH1 0x20 ADD PUSH0 KECCAK256 DUP2 SWAP1 SSTORE POP PUSH1 0x40 MLOAD DUP1 PUSH1 0x40 ADD PUSH1 0x40 MSTORE DUP1 DUP7 PUSH20 0xFFFFFFFFFFFFFFFFFFFFFFFFFFFFFFFFFFFFFFFF AND DUP2 MSTORE PUSH1 0x20 ADD DUP6 DUP2 MSTORE POP PUSH1 0x65 DUP4 DUP2 SLOAD DUP2 LT PUSH2 0x1655 JUMPI PUSH2 0x1654 PUSH2 0x2A6B JUMP JUMPDEST JUMPDEST SWAP1 PUSH0 MSTORE PUSH1 0x20 PUSH0 KECCAK256 SWAP1 PUSH1 0x2 MUL ADD PUSH0 DUP3 ADD MLOAD DUP2 PUSH0 ADD PUSH0 PUSH2 0x100 EXP DUP2 SLOAD DUP2 PUSH20 0xFFFFFFFFFFFFFFFFFFFFFFFFFFFFFFFFFFFFFFFF MUL NOT AND SWAP1 DUP4 PUSH20 0xFFFFFFFFFFFFFFFFFFFFFFFFFFFFFFFFFFFFFFFF AND MUL OR SWAP1 SSTORE POP PUSH1 0x20 DUP3 ADD MLOAD DUP2 PUSH1 0x1 ADD SSTORE SWAP1 POP POP PUSH1 0x1 DUP3 PUSH2 0x16BF SWAP2 SWAP1 PUSH2 0x2DF8 JUMP JUMPDEST PUSH1 0x67 PUSH0 DUP8 PUSH20 0xFFFFFFFFFFFFFFFFFFFFFFFFFFFFFFFFFFFFFFFF AND PUSH20 0xFFFFFFFFFFFFFFFFFFFFFFFFFFFFFFFFFFFFFFFF AND DUP2 MSTORE PUSH1 0x20 ADD SWAP1 DUP2 MSTORE PUSH1 0x20 ADD PUSH0 KECCAK256 DUP2 SWAP1 SSTORE POP PUSH2 0x1709 DUP3 PUSH2 0x1936 JUMP JUMPDEST POP POP JUMPDEST JUMPDEST POP JUMPDEST POP POP JUMP JUMPDEST PUSH1 0x1 PUSH1 0x32 DUP2 SWAP1 SSTORE POP JUMP JUMPDEST PUSH0 PUSH2 0x1726 PUSH2 0x17EE JUMP JUMPDEST SWAP1 POP PUSH0 DUP2 PUSH0 ADD PUSH0 SWAP1 SLOAD SWAP1 PUSH2 0x100 EXP SWAP1 DIV PUSH20 0xFFFFFFFFFFFFFFFFFFFFFFFFFFFFFFFFFFFFFFFF AND SWAP1 POP DUP3 DUP3 PUSH0 ADD PUSH0 PUSH2 0x100 EXP DUP2 SLOAD DUP2 PUSH20 0xFFFFFFFFFFFFFFFFFFFFFFFFFFFFFFFFFFFFFFFF MUL NOT AND SWAP1 DUP4 PUSH20 0xFFFFFFFFFFFFFFFFFFFFFFFFFFFFFFFFFFFFFFFF AND MUL OR SWAP1 SSTORE POP DUP3 PUSH20 0xFFFFFFFFFFFFFFFFFFFFFFFFFFFFFFFFFFFFFFFF AND DUP2 PUSH20 0xFFFFFFFFFFFFFFFFFFFFFFFFFFFFFFFFFFFFFFFF AND PUSH32 0x8BE0079C531659141344CD1FD0A4F28419497F9722A3DAAFE3B4186F6B6457E0 PUSH1 0x40 MLOAD PUSH1 0x40 MLOAD DUP1 SWAP2 SUB SWAP1 LOG3 POP POP POP JUMP JUMPDEST PUSH0 PUSH32 0x9016D09D72D40FDAE2FD8CEAC6B6234C7706214FD39C1CD1E609A0528C199300 SWAP1 POP SWAP1 JUMP JUMPDEST PUSH0 PUSH0 PUSH2 0x181F PUSH2 0x1FD6 JUMP JUMPDEST SWAP1 POP DUP1 SWAP2 POP POP SWAP1 JUMP JUMPDEST PUSH2 0x1830 PUSH2 0x1FFF JUMP JUMPDEST PUSH2 0x1839 DUP2 PUSH2 0x203F JUMP JUMPDEST POP JUMP JUMPDEST PUSH2 0x1844 PUSH2 0x1FFF JUMP JUMPDEST PUSH2 0x184C PUSH2 0x20C3 JUMP JUMPDEST JUMP JUMPDEST PUSH2 0x1856 PUSH2 0x1FFF JUMP JUMPDEST PUSH2 0x185E PUSH2 0x20E5 JUMP JUMPDEST JUMP JUMPDEST PUSH2 0x1868 PUSH2 0x1FFF JUMP JUMPDEST JUMP JUMPDEST PUSH0 CALLER SWAP1 POP SWAP1 JUMP JUMPDEST PUSH0 PUSH2 0x189D PUSH32 0x360894A13BA1A3210667C828492DB98DCA3E2076CC3735A920A3CA505D382BBC PUSH0 SHL PUSH2 0x20F7 JUMP JUMPDEST PUSH0 ADD PUSH0 SWAP1 SLOAD SWAP1 PUSH2 0x100 EXP SWAP1 DIV PUSH20 0xFFFFFFFFFFFFFFFFFFFFFFFFFFFFFFFFFFFFFFFF AND SWAP1 POP SWAP1 JUMP JUMPDEST PUSH2 0x18CD DUP3 PUSH2 0x2100 JUMP JUMPDEST DUP2 PUSH20 0xFFFFFFFFFFFFFFFFFFFFFFFFFFFFFFFFFFFFFFFF AND PUSH32 0xBC7CD75A20EE27FD9ADEBAB32041F755214DBC6BFFA90CC0225B39DA2E5C2D3B PUSH1 0x40 MLOAD PUSH1 0x40 MLOAD DUP1 SWAP2 SUB SWAP1 LOG2 PUSH0 DUP2 MLOAD GT ISZERO PUSH2 0x1929 JUMPI PUSH2 0x1923 DUP3 DUP3 PUSH2 0x21C9 JUMP JUMPDEST POP PUSH2 0x1932 JUMP JUMPDEST PUSH2 0x1931 PUSH2 0x2249 JUMP JUMPDEST JUMPDEST POP POP JUMP JUMPDEST JUMPDEST PUSH0 DUP2 GT ISZERO PUSH2 0x1C78 JUMPI PUSH0 PUSH1 0x1 DUP3 PUSH2 0x194D SWAP2 SWAP1 PUSH2 0x2A38 JUMP JUMPDEST SWAP1 POP PUSH1 0x65 DUP3 DUP2 SLOAD DUP2 LT PUSH2 0x1963 JUMPI PUSH2 0x1962 PUSH2 0x2A6B JUMP JUMPDEST JUMPDEST SWAP1 PUSH0 MSTORE PUSH1 0x20 PUSH0 KECCAK256 SWAP1 PUSH1 0x2 MUL ADD PUSH1 0x1 ADD SLOAD PUSH1 0x65 DUP3 DUP2 SLOAD DUP2 LT PUSH2 0x1987 JUMPI PUSH2 0x1986 PUSH2 0x2A6B JUMP JUMPDEST JUMPDEST SWAP1 PUSH0 MSTORE PUSH1 0x20 PUSH0 KECCAK256 SWAP1 PUSH1 0x2 MUL ADD PUSH1 0x1 ADD SLOAD LT PUSH2 0x19A2 JUMPI POP PUSH2 0x1C78 JUMP JUMPDEST PUSH0 PUSH1 0x65 DUP3 DUP2 SLOAD DUP2 LT PUSH2 0x19B7 JUMPI PUSH2 0x19B6 PUSH2 0x2A6B JUMP JUMPDEST JUMPDEST SWAP1 PUSH0 MSTORE PUSH1 0x20 PUSH0 KECCAK256 SWAP1 PUSH1 0x2 MUL ADD PUSH1 0x40 MLOAD DUP1 PUSH1 0x40 ADD PUSH1 0x40 MSTORE SWAP1 DUP2 PUSH0 DUP3 ADD PUSH0 SWAP1 SLOAD SWAP1 PUSH2 0x100 EXP SWAP1 DIV PUSH20 0xFFFFFFFFFFFFFFFFFFFFFFFFFFFFFFFFFFFFFFFF AND PUSH20 0xFFFFFFFFFFFFFFFFFFFFFFFFFFFFFFFFFFFFFFFF AND PUSH20 0xFFFFFFFFFFFFFFFFFFFFFFFFFFFFFFFFFFFFFFFF AND DUP2 MSTORE PUSH1 0x20 ADD PUSH1 0x1 DUP3 ADD SLOAD DUP2 MSTORE POP POP SWAP1 POP PUSH1 0x65 DUP4 DUP2 SLOAD DUP2 LT PUSH2 0x1A42 JUMPI PUSH2 0x1A41 PUSH2 0x2A6B JUMP JUMPDEST JUMPDEST SWAP1 PUSH0 MSTORE PUSH1 0x20 PUSH0 KECCAK256 SWAP1 PUSH1 0x2 MUL ADD PUSH1 0x65 DUP4 DUP2 SLOAD DUP2 LT PUSH2 0x1A62 JUMPI PUSH2 0x1A61 PUSH2 0x2A6B JUMP JUMPDEST JUMPDEST SWAP1 PUSH0 MSTORE PUSH1 0x20 PUSH0 KECCAK256 SWAP1 PUSH1 0x2 MUL ADD PUSH0 DUP3 ADD PUSH0 SWAP1 SLOAD SWAP1 PUSH2 0x100 EXP SWAP1 DIV PUSH20 0xFFFFFFFFFFFFFFFFFFFFFFFFFFFFFFFFFFFFFFFF AND DUP2 PUSH0 ADD PUSH0 PUSH2 0x100 EXP DUP2 SLOAD DUP2 PUSH20 0xFFFFFFFFFFFFFFFFFFFFFFFFFFFFFFFFFFFFFFFF MUL NOT AND SWAP1 DUP4 PUSH20 0xFFFFFFFFFFFFFFFFFFFFFFFFFFFFFFFFFFFFFFFF AND MUL OR SWAP1 SSTORE POP PUSH1 0x1 DUP3 ADD SLOAD DUP2 PUSH1 0x1 ADD SSTORE SWAP1 POP POP DUP1 PUSH1 0x65 DUP5 DUP2 SLOAD DUP2 LT PUSH2 0x1AF3 JUMPI PUSH2 0x1AF2 PUSH2 0x2A6B JUMP JUMPDEST JUMPDEST SWAP1 PUSH0 MSTORE PUSH1 0x20 PUSH0 KECCAK256 SWAP1 PUSH1 0x2 MUL ADD PUSH0 DUP3 ADD MLOAD DUP2 PUSH0 ADD PUSH0 PUSH2 0x100 EXP DUP2 SLOAD DUP2 PUSH20 0xFFFFFFFFFFFFFFFFFFFFFFFFFFFFFFFFFFFFFFFF MUL NOT AND SWAP1 DUP4 PUSH20 0xFFFFFFFFFFFFFFFFFFFFFFFFFFFFFFFFFFFFFFFF AND MUL OR SWAP1 SSTORE POP PUSH1 0x20 DUP3 ADD MLOAD DUP2 PUSH1 0x1 ADD SSTORE SWAP1 POP POP PUSH1 0x1 DUP3 PUSH2 0x1B5D SWAP2 SWAP1 PUSH2 0x2DF8 JUMP JUMPDEST PUSH1 0x67 PUSH0 PUSH1 0x65 DUP6 DUP2 SLOAD DUP2 LT PUSH2 0x1B74 JUMPI PUSH2 0x1B73 PUSH2 0x2A6B JUMP JUMPDEST JUMPDEST SWAP1 PUSH0 MSTORE PUSH1 0x20 PUSH0 KECCAK256 SWAP1 PUSH1 0x2 MUL ADD PUSH0 ADD PUSH0 SWAP1 SLOAD SWAP1 PUSH2 0x100 EXP SWAP1 DIV PUSH20 0xFFFFFFFFFFFFFFFFFFFFFFFFFFFFFFFFFFFFFFFF AND PUSH20 0xFFFFFFFFFFFFFFFFFFFFFFFFFFFFFFFFFFFFFFFF AND PUSH20 0xFFFFFFFFFFFFFFFFFFFFFFFFFFFFFFFFFFFFFFFF AND DUP2 MSTORE PUSH1 0x20 ADD SWAP1 DUP2 MSTORE PUSH1 0x20 ADD PUSH0 KECCAK256 DUP2 SWAP1 SSTORE POP PUSH1 0x1 DUP4 PUSH2 0x1BEC SWAP2 SWAP1 PUSH2 0x2DF8 JUMP JUMPDEST PUSH1 0x67 PUSH0 PUSH1 0x65 DUP7 DUP2 SLOAD DUP2 LT PUSH2 0x1C03 JUMPI PUSH2 0x1C02 PUSH2 0x2A6B JUMP JUMPDEST JUMPDEST SWAP1 PUSH0 MSTORE PUSH1 0x20 PUSH0 KECCAK256 SWAP1 PUSH1 0x2 MUL ADD PUSH0 ADD PUSH0 SWAP1 SLOAD SWAP1 PUSH2 0x100 EXP SWAP1 DIV PUSH20 0xFFFFFFFFFFFFFFFFFFFFFFFFFFFFFFFFFFFFFFFF AND PUSH20 0xFFFFFFFFFFFFFFFFFFFFFFFFFFFFFFFFFFFFFFFF AND PUSH20 0xFFFFFFFFFFFFFFFFFFFFFFFFFFFFFFFFFFFFFFFF AND DUP2 MSTORE PUSH1 0x20 ADD SWAP1 DUP2 MSTORE PUSH1 0x20 ADD PUSH0 KECCAK256 DUP2 SWAP1 SSTORE POP DUP2 SWAP3 POP POP POP PUSH2 0x1937 JUMP JUMPDEST POP JUMP JUMPDEST PUSH0 PUSH1 0x65 DUP1 SLOAD SWAP1 POP SWAP1 POP JUMPDEST DUP1 PUSH1 0x1 DUP4 PUSH2 0x1C93 SWAP2 SWAP1 PUSH2 0x2DF8 JUMP JUMPDEST LT ISZERO PUSH2 0x1FD2 JUMPI PUSH0 PUSH1 0x1 DUP4 PUSH2 0x1CA7 SWAP2 SWAP1 PUSH2 0x2DF8 JUMP JUMPDEST SWAP1 POP PUSH1 0x65 DUP2 DUP2 SLOAD DUP2 LT PUSH2 0x1CBD JUMPI PUSH2 0x1CBC PUSH2 0x2A6B JUMP JUMPDEST JUMPDEST SWAP1 PUSH0 MSTORE PUSH1 0x20 PUSH0 KECCAK256 SWAP1 PUSH1 0x2 MUL ADD PUSH1 0x1 ADD SLOAD PUSH1 0x65 DUP5 DUP2 SLOAD DUP2 LT PUSH2 0x1CE1 JUMPI PUSH2 0x1CE0 PUSH2 0x2A6B JUMP JUMPDEST JUMPDEST SWAP1 PUSH0 MSTORE PUSH1 0x20 PUSH0 KECCAK256 SWAP1 PUSH1 0x2 MUL ADD PUSH1 0x1 ADD SLOAD LT PUSH2 0x1CFC JUMPI POP PUSH2 0x1FD2 JUMP JUMPDEST PUSH0 PUSH1 0x65 DUP3 DUP2 SLOAD DUP2 LT PUSH2 0x1D11 JUMPI PUSH2 0x1D10 PUSH2 0x2A6B JUMP JUMPDEST JUMPDEST SWAP1 PUSH0 MSTORE PUSH1 0x20 PUSH0 KECCAK256 SWAP1 PUSH1 0x2 MUL ADD PUSH1 0x40 MLOAD DUP1 PUSH1 0x40 ADD PUSH1 0x40 MSTORE SWAP1 DUP2 PUSH0 DUP3 ADD PUSH0 SWAP1 SLOAD SWAP1 PUSH2 0x100 EXP SWAP1 DIV PUSH20 0xFFFFFFFFFFFFFFFFFFFFFFFFFFFFFFFFFFFFFFFF AND PUSH20 0xFFFFFFFFFFFFFFFFFFFFFFFFFFFFFFFFFFFFFFFF AND PUSH20 0xFFFFFFFFFFFFFFFFFFFFFFFFFFFFFFFFFFFFFFFF AND DUP2 MSTORE PUSH1 0x20 ADD PUSH1 0x1 DUP3 ADD SLOAD DUP2 MSTORE POP POP SWAP1 POP PUSH1 0x65 DUP5 DUP2 SLOAD DUP2 LT PUSH2 0x1D9C JUMPI PUSH2 0x1D9B PUSH2 0x2A6B JUMP JUMPDEST JUMPDEST SWAP1 PUSH0 MSTORE PUSH1 0x20 PUSH0 KECCAK256 SWAP1 PUSH1 0x2 MUL ADD PUSH1 0x65 DUP4 DUP2 SLOAD DUP2 LT PUSH2 0x1DBC JUMPI PUSH2 0x1DBB PUSH2 0x2A6B JUMP JUMPDEST JUMPDEST SWAP1 PUSH0 MSTORE PUSH1 0x20 PUSH0 KECCAK256 SWAP1 PUSH1 0x2 MUL ADD PUSH0 DUP3 ADD PUSH0 SWAP1 SLOAD SWAP1 PUSH2 0x100 EXP SWAP1 DIV PUSH20 0xFFFFFFFFFFFFFFFFFFFFFFFFFFFFFFFFFFFFFFFF AND DUP2 PUSH0 ADD PUSH0 PUSH2 0x100 EXP DUP2 SLOAD DUP2 PUSH20 0xFFFFFFFFFFFFFFFFFFFFFFFFFFFFFFFFFFFFFFFF MUL NOT AND SWAP1 DUP4 PUSH20 0xFFFFFFFFFFFFFFFFFFFFFFFFFFFFFFFFFFFFFFFF AND MUL OR SWAP1 SSTORE POP PUSH1 0x1 DUP3 ADD SLOAD DUP2 PUSH1 0x1 ADD SSTORE SWAP1 POP POP DUP1 PUSH1 0x65 DUP6 DUP2 SLOAD DUP2 LT PUSH2 0x1E4D JUMPI PUSH2 0x1E4C PUSH2 0x2A6B JUMP JUMPDEST JUMPDEST SWAP1 PUSH0 MSTORE PUSH1 0x20 PUSH0 KECCAK256 SWAP1 PUSH1 0x2 MUL ADD PUSH0 DUP3 ADD MLOAD DUP2 PUSH0 ADD PUSH0 PUSH2 0x100 EXP DUP2 SLOAD DUP2 PUSH20 0xFFFFFFFFFFFFFFFFFFFFFFFFFFFFFFFFFFFFFFFF MUL NOT AND SWAP1 DUP4 PUSH20 0xFFFFFFFFFFFFFFFFFFFFFFFFFFFFFFFFFFFFFFFF AND MUL OR SWAP1 SSTORE POP PUSH1 0x20 DUP3 ADD MLOAD DUP2 PUSH1 0x1 ADD SSTORE SWAP1 POP POP PUSH1 0x1 DUP3 PUSH2 0x1EB7 SWAP2 SWAP1 PUSH2 0x2DF8 JUMP JUMPDEST PUSH1 0x67 PUSH0 PUSH1 0x65 DUP6 DUP2 SLOAD DUP2 LT PUSH2 0x1ECE JUMPI PUSH2 0x1ECD PUSH2 0x2A6B JUMP JUMPDEST JUMPDEST SWAP1 PUSH0 MSTORE PUSH1 0x20 PUSH0 KECCAK256 SWAP1 PUSH1 0x2 MUL ADD PUSH0 ADD PUSH0 SWAP1 SLOAD SWAP1 PUSH2 0x100 EXP SWAP1 DIV PUSH20 0xFFFFFFFFFFFFFFFFFFFFFFFFFFFFFFFFFFFFFFFF AND PUSH20 0xFFFFFFFFFFFFFFFFFFFFFFFFFFFFFFFFFFFFFFFF AND PUSH20 0xFFFFFFFFFFFFFFFFFFFFFFFFFFFFFFFFFFFFFFFF AND DUP2 MSTORE PUSH1 0x20 ADD SWAP1 DUP2 MSTORE PUSH1 0x20 ADD PUSH0 KECCAK256 DUP2 SWAP1 SSTORE POP PUSH1 0x1 DUP5 PUSH2 0x1F46 SWAP2 SWAP1 PUSH2 0x2DF8 JUMP JUMPDEST PUSH1 0x67 PUSH0 PUSH1 0x65 DUP8 DUP2 SLOAD DUP2 LT PUSH2 0x1F5D JUMPI PUSH2 0x1F5C PUSH2 0x2A6B JUMP JUMPDEST JUMPDEST SWAP1 PUSH0 MSTORE PUSH1 0x20 PUSH0 KECCAK256 SWAP1 PUSH1 0x2 MUL ADD PUSH0 ADD PUSH0 SWAP1 SLOAD SWAP1 PUSH2 0x100 EXP SWAP1 DIV PUSH20 0xFFFFFFFFFFFFFFFFFFFFFFFFFFFFFFFFFFFFFFFF AND PUSH20 0xFFFFFFFFFFFFFFFFFFFFFFFFFFFFFFFFFFFFFFFF AND PUSH20 0xFFFFFFFFFFFFFFFFFFFFFFFFFFFFFFFFFFFFFFFF AND DUP2 MSTORE PUSH1 0x20 ADD SWAP1 DUP2 MSTORE PUSH1 0x20 ADD PUSH0 KECCAK256 DUP2 SWAP1 SSTORE POP DUP2 SWAP4 POP POP POP PUSH2 0x1C85 JUMP JUMPDEST POP POP JUMP JUMPDEST PUSH0 PUSH32 0xF0C57E16840DF040F15088DC2F81FE391C3923BEC73E23A9662EFC9C229C6A00 PUSH0 SHL SWAP1 POP SWAP1 JUMP JUMPDEST PUSH2 0x2007 PUSH2 0x2285 JUMP JUMPDEST PUSH2 0x203D JUMPI PUSH1 0x40 MLOAD PUSH32 0xD7E6BCF800000000000000000000000000000000000000000000000000000000 DUP2 MSTORE PUSH1 0x4 ADD PUSH1 0x40 MLOAD DUP1 SWAP2 SUB SWAP1 REVERT JUMPDEST JUMP JUMPDEST PUSH2 0x2047 PUSH2 0x1FFF JUMP JUMPDEST PUSH0 PUSH20 0xFFFFFFFFFFFFFFFFFFFFFFFFFFFFFFFFFFFFFFFF AND DUP2 PUSH20 0xFFFFFFFFFFFFFFFFFFFFFFFFFFFFFFFFFFFFFFFF AND SUB PUSH2 0x20B7 JUMPI PUSH0 PUSH1 0x40 MLOAD PUSH32 0x1E4FBDF700000000000000000000000000000000000000000000000000000000 DUP2 MSTORE PUSH1 0x4 ADD PUSH2 0x20AE SWAP2 SWAP1 PUSH2 0x2768 JUMP JUMPDEST PUSH1 0x40 MLOAD DUP1 SWAP2 SUB SWAP1 REVERT JUMPDEST PUSH2 0x20C0 DUP2 PUSH2 0x171D JUMP JUMPDEST POP JUMP JUMPDEST PUSH2 0x20CB PUSH2 0x1FFF JUMP JUMPDEST PUSH0 PUSH0 PUSH0 PUSH2 0x100 EXP DUP2 SLOAD DUP2 PUSH1 0xFF MUL NOT AND SWAP1 DUP4 ISZERO ISZERO MUL OR SWAP1 SSTORE POP JUMP JUMPDEST PUSH2 0x20ED PUSH2 0x1FFF JUMP JUMPDEST PUSH1 0x1 PUSH1 0x32 DUP2 SWAP1 SSTORE POP JUMP JUMPDEST PUSH0 DUP2 SWAP1 POP SWAP2 SWAP1 POP JUMP JUMPDEST PUSH0 DUP2 PUSH20 0xFFFFFFFFFFFFFFFFFFFFFFFFFFFFFFFFFFFFFFFF AND EXTCODESIZE SUB PUSH2 0x215B JUMPI DUP1 PUSH1 0x40 MLOAD PUSH32 0x4C9C8CE300000000000000000000000000000000000000000000000000000000 DUP2 MSTORE PUSH1 0x4 ADD PUSH2 0x2152 SWAP2 SWAP1 PUSH2 0x2768 JUMP JUMPDEST PUSH1 0x40 MLOAD DUP1 SWAP2 SUB SWAP1 REVERT JUMPDEST DUP1 PUSH2 0x2187 PUSH32 0x360894A13BA1A3210667C828492DB98DCA3E2076CC3735A920A3CA505D382BBC PUSH0 SHL PUSH2 0x20F7 JUMP JUMPDEST PUSH0 ADD PUSH0 PUSH2 0x100 EXP DUP2 SLOAD DUP2 PUSH20 0xFFFFFFFFFFFFFFFFFFFFFFFFFFFFFFFFFFFFFFFF MUL NOT AND SWAP1 DUP4 PUSH20 0xFFFFFFFFFFFFFFFFFFFFFFFFFFFFFFFFFFFFFFFF AND MUL OR SWAP1 SSTORE POP POP JUMP JUMPDEST PUSH1 0x60 PUSH0 PUSH0 DUP5 PUSH20 0xFFFFFFFFFFFFFFFFFFFFFFFFFFFFFFFFFFFFFFFF AND DUP5 PUSH1 0x40 MLOAD PUSH2 0x21F2 SWAP2 SWAP1 PUSH2 0x2E6F JUMP JUMPDEST PUSH0 PUSH1 0x40 MLOAD DUP1 DUP4 SUB DUP2 DUP6 GAS DELEGATECALL SWAP2 POP POP RETURNDATASIZE DUP1 PUSH0 DUP2 EQ PUSH2 0x222A JUMPI PUSH1 0x40 MLOAD SWAP2 POP PUSH1 0x1F NOT PUSH1 0x3F RETURNDATASIZE ADD AND DUP3 ADD PUSH1 0x40 MSTORE RETURNDATASIZE DUP3 MSTORE RETURNDATASIZE PUSH0 PUSH1 0x20 DUP5 ADD RETURNDATACOPY PUSH2 0x222F JUMP JUMPDEST PUSH1 0x60 SWAP2 POP JUMPDEST POP SWAP2 POP SWAP2 POP PUSH2 0x223F DUP6 DUP4 DUP4 PUSH2 0x22A3 JUMP JUMPDEST SWAP3 POP POP POP SWAP3 SWAP2 POP POP JUMP JUMPDEST PUSH0 CALLVALUE GT ISZERO PUSH2 0x2283 JUMPI PUSH1 0x40 MLOAD PUSH32 0xB398979F00000000000000000000000000000000000000000000000000000000 DUP2 MSTORE PUSH1 0x4 ADD PUSH1 0x40 MLOAD DUP1 SWAP2 SUB SWAP1 REVERT JUMPDEST JUMP JUMPDEST PUSH0 PUSH2 0x228E PUSH2 0x1815 JUMP JUMPDEST PUSH0 ADD PUSH1 0x8 SWAP1 SLOAD SWAP1 PUSH2 0x100 EXP SWAP1 DIV PUSH1 0xFF AND SWAP1 POP SWAP1 JUMP JUMPDEST PUSH1 0x60 DUP3 PUSH2 0x22B8 JUMPI PUSH2 0x22B3 DUP3 PUSH2 0x2330 JUMP JUMPDEST PUSH2 0x2328 JUMP JUMPDEST PUSH0 DUP3 MLOAD EQ DUP1 ISZERO PUSH2 0x22DE JUMPI POP PUSH0 DUP5 PUSH20 0xFFFFFFFFFFFFFFFFFFFFFFFFFFFFFFFFFFFFFFFF AND EXTCODESIZE EQ JUMPDEST ISZERO PUSH2 0x2320 JUMPI DUP4 PUSH1 0x40 MLOAD PUSH32 0x9996B31500000000000000000000000000000000000000000000000000000000 DUP2 MSTORE PUSH1 0x4 ADD PUSH2 0x2317 SWAP2 SWAP1 PUSH2 0x2768 JUMP JUMPDEST PUSH1 0x40 MLOAD DUP1 SWAP2 SUB SWAP1 REVERT JUMPDEST DUP2 SWAP1 POP PUSH2 0x2329 JUMP JUMPDEST JUMPDEST SWAP4 SWAP3 POP POP POP JUMP JUMPDEST PUSH0 DUP2 MLOAD GT ISZERO PUSH2 0x2341 JUMPI DUP1 MLOAD PUSH1 0x20 DUP3 ADD REVERT JUMPDEST PUSH1 0x40 MLOAD PUSH32 0xD6BDA27500000000000000000000000000000000000000000000000000000000 DUP2 MSTORE PUSH1 0x4 ADD PUSH1 0x40 MLOAD DUP1 SWAP2 SUB SWAP1 REVERT JUMPDEST POP DUP1 SLOAD PUSH0 DUP3 SSTORE PUSH1 0x2 MUL SWAP1 PUSH0 MSTORE PUSH1 0x20 PUSH0 KECCAK256 SWAP1 DUP2 ADD SWAP1 PUSH2 0x2391 SWAP2 SWAP1 PUSH2 0x23C2 JUMP JUMPDEST POP JUMP JUMPDEST PUSH1 0x40 MLOAD DUP1 PUSH1 0x40 ADD PUSH1 0x40 MSTORE DUP1 PUSH0 PUSH20 0xFFFFFFFFFFFFFFFFFFFFFFFFFFFFFFFFFFFFFFFF AND DUP2 MSTORE PUSH1 0x20 ADD PUSH0 DUP2 MSTORE POP SWAP1 JUMP JUMPDEST JUMPDEST DUP1 DUP3 GT ISZERO PUSH2 0x2401 JUMPI PUSH0 PUSH0 DUP3 ADD PUSH0 PUSH2 0x100 EXP DUP2 SLOAD SWAP1 PUSH20 0xFFFFFFFFFFFFFFFFFFFFFFFFFFFFFFFFFFFFFFFF MUL NOT AND SWAP1 SSTORE PUSH1 0x1 DUP3 ADD PUSH0 SWAP1 SSTORE POP PUSH1 0x2 ADD PUSH2 0x23C3 JUMP JUMPDEST POP SWAP1 JUMP JUMPDEST PUSH0 PUSH1 0x40 MLOAD SWAP1 POP SWAP1 JUMP JUMPDEST PUSH0 PUSH0 REVERT JUMPDEST PUSH0 PUSH0 REVERT JUMPDEST PUSH0 PUSH20 0xFFFFFFFFFFFFFFFFFFFFFFFFFFFFFFFFFFFFFFFF DUP3 AND SWAP1 POP SWAP2 SWAP1 POP JUMP JUMPDEST PUSH0 PUSH2 0x243F DUP3 PUSH2 0x2416 JUMP JUMPDEST SWAP1 POP SWAP2 SWAP1 POP JUMP JUMPDEST PUSH2 0x244F DUP2 PUSH2 0x2435 JUMP JUMPDEST DUP2 EQ PUSH2 0x2459 JUMPI PUSH0 PUSH0 REVERT JUMPDEST POP JUMP JUMPDEST PUSH0 DUP2 CALLDATALOAD SWAP1 POP PUSH2 0x246A DUP2 PUSH2 0x2446 JUMP JUMPDEST SWAP3 SWAP2 POP POP JUMP JUMPDEST PUSH0 PUSH1 0x20 DUP3 DUP5 SUB SLT ISZERO PUSH2 0x2485 JUMPI PUSH2 0x2484 PUSH2 0x240E JUMP JUMPDEST JUMPDEST PUSH0 PUSH2 0x2492 DUP5 DUP3 DUP6 ADD PUSH2 0x245C JUMP JUMPDEST SWAP2 POP POP SWAP3 SWAP2 POP POP JUMP JUMPDEST PUSH0 DUP2 SWAP1 POP SWAP2 SWAP1 POP JUMP JUMPDEST PUSH2 0x24AD DUP2 PUSH2 0x249B JUMP JUMPDEST DUP3 MSTORE POP POP JUMP JUMPDEST PUSH0 PUSH1 0x20 DUP3 ADD SWAP1 POP PUSH2 0x24C6 PUSH0 DUP4 ADD DUP5 PUSH2 0x24A4 JUMP JUMPDEST SWAP3 SWAP2 POP POP JUMP JUMPDEST PUSH2 0x24D5 DUP2 PUSH2 0x249B JUMP JUMPDEST DUP2 EQ PUSH2 0x24DF JUMPI PUSH0 PUSH0 REVERT JUMPDEST POP JUMP JUMPDEST PUSH0 DUP2 CALLDATALOAD SWAP1 POP PUSH2 0x24F0 DUP2 PUSH2 0x24CC JUMP JUMPDEST SWAP3 SWAP2 POP POP JUMP JUMPDEST PUSH0 PUSH1 0x20 DUP3 DUP5 SUB SLT ISZERO PUSH2 0x250B JUMPI PUSH2 0x250A PUSH2 0x240E JUMP JUMPDEST JUMPDEST PUSH0 PUSH2 0x2518 DUP5 DUP3 DUP6 ADD PUSH2 0x24E2 JUMP JUMPDEST SWAP2 POP POP SWAP3 SWAP2 POP POP JUMP JUMPDEST PUSH0 PUSH0 REVERT JUMPDEST PUSH0 PUSH0 REVERT JUMPDEST PUSH0 PUSH1 0x1F NOT PUSH1 0x1F DUP4 ADD AND SWAP1 POP SWAP2 SWAP1 POP JUMP JUMPDEST PUSH32 0x4E487B7100000000000000000000000000000000000000000000000000000000 PUSH0 MSTORE PUSH1 0x41 PUSH1 0x4 MSTORE PUSH1 0x24 PUSH0 REVERT JUMPDEST PUSH2 0x256F DUP3 PUSH2 0x2529 JUMP JUMPDEST DUP2 ADD DUP2 DUP2 LT PUSH8 0xFFFFFFFFFFFFFFFF DUP3 GT OR ISZERO PUSH2 0x258E JUMPI PUSH2 0x258D PUSH2 0x2539 JUMP JUMPDEST JUMPDEST DUP1 PUSH1 0x40 MSTORE POP POP POP JUMP JUMPDEST PUSH0 PUSH2 0x25A0 PUSH2 0x2405 JUMP JUMPDEST SWAP1 POP PUSH2 0x25AC DUP3 DUP3 PUSH2 0x2566 JUMP JUMPDEST SWAP2 SWAP1 POP JUMP JUMPDEST PUSH0 PUSH8 0xFFFFFFFFFFFFFFFF DUP3 GT ISZERO PUSH2 0x25CB JUMPI PUSH2 0x25CA PUSH2 0x2539 JUMP JUMPDEST JUMPDEST PUSH2 0x25D4 DUP3 PUSH2 0x2529 JUMP JUMPDEST SWAP1 POP PUSH1 0x20 DUP2 ADD SWAP1 POP SWAP2 SWAP1 POP JUMP JUMPDEST DUP3 DUP2 DUP4 CALLDATACOPY PUSH0 DUP4 DUP4 ADD MSTORE POP POP POP JUMP JUMPDEST PUSH0 PUSH2 0x2601 PUSH2 0x25FC DUP5 PUSH2 0x25B1 JUMP JUMPDEST PUSH2 0x2597 JUMP JUMPDEST SWAP1 POP DUP3 DUP2 MSTORE PUSH1 0x20 DUP2 ADD DUP5 DUP5 DUP5 ADD GT ISZERO PUSH2 0x261D JUMPI PUSH2 0x261C PUSH2 0x2525 JUMP JUMPDEST JUMPDEST PUSH2 0x2628 DUP5 DUP3 DUP6 PUSH2 0x25E1 JUMP JUMPDEST POP SWAP4 SWAP3 POP POP POP JUMP JUMPDEST PUSH0 DUP3 PUSH1 0x1F DUP4 ADD SLT PUSH2 0x2644 JUMPI PUSH2 0x2643 PUSH2 0x2521 JUMP JUMPDEST JUMPDEST DUP2 CALLDATALOAD PUSH2 0x2654 DUP5 DUP3 PUSH1 0x20 DUP7 ADD PUSH2 0x25EF JUMP JUMPDEST SWAP2 POP POP SWAP3 SWAP2 POP POP JUMP JUMPDEST PUSH0 PUSH0 PUSH1 0x40 DUP4 DUP6 SUB SLT ISZERO PUSH2 0x2673 JUMPI PUSH2 0x2672 PUSH2 0x240E JUMP JUMPDEST JUMPDEST PUSH0 PUSH2 0x2680 DUP6 DUP3 DUP7 ADD PUSH2 0x245C JUMP JUMPDEST SWAP3 POP POP PUSH1 0x20 DUP4 ADD CALLDATALOAD PUSH8 0xFFFFFFFFFFFFFFFF DUP2 GT ISZERO PUSH2 0x26A1 JUMPI PUSH2 0x26A0 PUSH2 0x2412 JUMP JUMPDEST JUMPDEST PUSH2 0x26AD DUP6 DUP3 DUP7 ADD PUSH2 0x2630 JUMP JUMPDEST SWAP2 POP POP SWAP3 POP SWAP3 SWAP1 POP JUMP JUMPDEST PUSH0 DUP2 SWAP1 POP SWAP2 SWAP1 POP JUMP JUMPDEST PUSH2 0x26C9 DUP2 PUSH2 0x26B7 JUMP JUMPDEST DUP3 MSTORE POP POP JUMP JUMPDEST PUSH0 PUSH1 0x20 DUP3 ADD SWAP1 POP PUSH2 0x26E2 PUSH0 DUP4 ADD DUP5 PUSH2 0x26C0 JUMP JUMPDEST SWAP3 SWAP2 POP POP JUMP JUMPDEST PUSH0 DUP2 ISZERO ISZERO SWAP1 POP SWAP2 SWAP1 POP JUMP JUMPDEST PUSH2 0x26FC DUP2 PUSH2 0x26E8 JUMP JUMPDEST DUP3 MSTORE POP POP JUMP JUMPDEST PUSH0 PUSH1 0x20 DUP3 ADD SWAP1 POP PUSH2 0x2715 PUSH0 DUP4 ADD DUP5 PUSH2 0x26F3 JUMP JUMPDEST SWAP3 SWAP2 POP POP JUMP JUMPDEST PUSH0 PUSH0 PUSH1 0x40 DUP4 DUP6 SUB SLT ISZERO PUSH2 0x2731 JUMPI PUSH2 0x2730 PUSH2 0x240E JUMP JUMPDEST JUMPDEST PUSH0 PUSH2 0x273E DUP6 DUP3 DUP7 ADD PUSH2 0x245C JUMP JUMPDEST SWAP3 POP POP PUSH1 0x20 PUSH2 0x274F DUP6 DUP3 DUP7 ADD PUSH2 0x24E2 JUMP JUMPDEST SWAP2 POP POP SWAP3 POP SWAP3 SWAP1 POP JUMP JUMPDEST PUSH2 0x2762 DUP2 PUSH2 0x2435 JUMP JUMPDEST DUP3 MSTORE POP POP JUMP JUMPDEST PUSH0 PUSH1 0x20 DUP3 ADD SWAP1 POP PUSH2 0x277B PUSH0 DUP4 ADD DUP5 PUSH2 0x2759 JUMP JUMPDEST SWAP3 SWAP2 POP POP JUMP JUMPDEST PUSH2 0x278A DUP2 PUSH2 0x26E8 JUMP JUMPDEST DUP2 EQ PUSH2 0x2794 JUMPI PUSH0 PUSH0 REVERT JUMPDEST POP JUMP JUMPDEST PUSH0 DUP2 CALLDATALOAD SWAP1 POP PUSH2 0x27A5 DUP2 PUSH2 0x2781 JUMP JUMPDEST SWAP3 SWAP2 POP POP JUMP JUMPDEST PUSH0 PUSH0 PUSH1 0x40 DUP4 DUP6 SUB SLT ISZERO PUSH2 0x27C1 JUMPI PUSH2 0x27C0 PUSH2 0x240E JUMP JUMPDEST JUMPDEST PUSH0 PUSH2 0x27CE DUP6 DUP3 DUP7 ADD PUSH2 0x245C JUMP JUMPDEST SWAP3 POP POP PUSH1 0x20 PUSH2 0x27DF DUP6 DUP3 DUP7 ADD PUSH2 0x2797 JUMP JUMPDEST SWAP2 POP POP SWAP3 POP SWAP3 SWAP1 POP JUMP JUMPDEST PUSH0 PUSH1 0x40 DUP3 ADD SWAP1 POP PUSH2 0x27FC PUSH0 DUP4 ADD DUP6 PUSH2 0x24A4 JUMP JUMPDEST PUSH2 0x2809 PUSH1 0x20 DUP4 ADD DUP5 PUSH2 0x24A4 JUMP JUMPDEST SWAP4 SWAP3 POP POP POP JUMP JUMPDEST PUSH0 DUP2 MLOAD SWAP1 POP SWAP2 SWAP1 POP JUMP JUMPDEST PUSH0 DUP3 DUP3 MSTORE PUSH1 0x20 DUP3 ADD SWAP1 POP SWAP3 SWAP2 POP POP JUMP JUMPDEST DUP3 DUP2 DUP4 MCOPY PUSH0 DUP4 DUP4 ADD MSTORE POP POP POP JUMP JUMPDEST PUSH0 PUSH2 0x2842 DUP3 PUSH2 0x2810 JUMP JUMPDEST PUSH2 0x284C DUP2 DUP6 PUSH2 0x281A JUMP JUMPDEST SWAP4 POP PUSH2 0x285C DUP2 DUP6 PUSH1 0x20 DUP7 ADD PUSH2 0x282A JUMP JUMPDEST PUSH2 0x2865 DUP2 PUSH2 0x2529 JUMP JUMPDEST DUP5 ADD SWAP2 POP POP SWAP3 SWAP2 POP POP JUMP JUMPDEST PUSH0 PUSH1 0x20 DUP3 ADD SWAP1 POP DUP2 DUP2 SUB PUSH0 DUP4 ADD MSTORE PUSH2 0x2888 DUP2 DUP5 PUSH2 0x2838 JUMP JUMPDEST SWAP1 POP SWAP3 SWAP2 POP POP JUMP JUMPDEST PUSH0 DUP2 MLOAD SWAP1 POP SWAP2 SWAP1 POP JUMP JUMPDEST PUSH0 DUP3 DUP3 MSTORE PUSH1 0x20 DUP3 ADD SWAP1 POP SWAP3 SWAP2 POP POP JUMP JUMPDEST PUSH0 DUP2 SWAP1 POP PUSH1 0x20 DUP3 ADD SWAP1 POP SWAP2 SWAP1 POP JUMP JUMPDEST PUSH2 0x28C2 DUP2 PUSH2 0x2435 JUMP JUMPDEST DUP3 MSTORE POP POP JUMP JUMPDEST PUSH2 0x28D1 DUP2 PUSH2 0x249B JUMP JUMPDEST DUP3 MSTORE POP POP JUMP JUMPDEST PUSH1 0x40 DUP3 ADD PUSH0 DUP3 ADD MLOAD PUSH2 0x28EB PUSH0 DUP6 ADD DUP3 PUSH2 0x28B9 JUMP JUMPDEST POP PUSH1 0x20 DUP3 ADD MLOAD PUSH2 0x28FE PUSH1 0x20 DUP6 ADD DUP3 PUSH2 0x28C8 JUMP JUMPDEST POP POP POP POP JUMP JUMPDEST PUSH0 PUSH2 0x290F DUP4 DUP4 PUSH2 0x28D7 JUMP JUMPDEST PUSH1 0x40 DUP4 ADD SWAP1 POP SWAP3 SWAP2 POP POP JUMP JUMPDEST PUSH0 PUSH1 0x20 DUP3 ADD SWAP1 POP SWAP2 SWAP1 POP JUMP JUMPDEST PUSH0 PUSH2 0x2931 DUP3 PUSH2 0x2890 JUMP JUMPDEST PUSH2 0x293B DUP2 DUP6 PUSH2 0x289A JUMP JUMPDEST SWAP4 POP PUSH2 0x2946 DUP4 PUSH2 0x28AA JUMP JUMPDEST DUP1 PUSH0 JUMPDEST DUP4 DUP2 LT ISZERO PUSH2 0x2976 JUMPI DUP2 MLOAD PUSH2 0x295D DUP9 DUP3 PUSH2 0x2904 JUMP JUMPDEST SWAP8 POP PUSH2 0x2968 DUP4 PUSH2 0x291B JUMP JUMPDEST SWAP3 POP POP PUSH1 0x1 DUP2 ADD SWAP1 POP PUSH2 0x2949 JUMP JUMPDEST POP DUP6 SWAP4 POP POP POP POP SWAP3 SWAP2 POP POP JUMP JUMPDEST PUSH0 PUSH1 0x20 DUP3 ADD SWAP1 POP DUP2 DUP2 SUB PUSH0 DUP4 ADD MSTORE PUSH2 0x299B DUP2 DUP5 PUSH2 0x2927 JUMP JUMPDEST SWAP1 POP SWAP3 SWAP2 POP POP JUMP JUMPDEST PUSH32 0x696E76616C6964206D617820656E747269657300000000000000000000000000 PUSH0 DUP3 ADD MSTORE POP JUMP JUMPDEST PUSH0 PUSH2 0x29D7 PUSH1 0x13 DUP4 PUSH2 0x281A JUMP JUMPDEST SWAP2 POP PUSH2 0x29E2 DUP3 PUSH2 0x29A3 JUMP JUMPDEST PUSH1 0x20 DUP3 ADD SWAP1 POP SWAP2 SWAP1 POP JUMP JUMPDEST PUSH0 PUSH1 0x20 DUP3 ADD SWAP1 POP DUP2 DUP2 SUB PUSH0 DUP4 ADD MSTORE PUSH2 0x2A04 DUP2 PUSH2 0x29CB JUMP JUMPDEST SWAP1 POP SWAP2 SWAP1 POP JUMP JUMPDEST PUSH32 0x4E487B7100000000000000000000000000000000000000000000000000000000 PUSH0 MSTORE PUSH1 0x11 PUSH1 0x4 MSTORE PUSH1 0x24 PUSH0 REVERT JUMPDEST PUSH0 PUSH2 0x2A42 DUP3 PUSH2 0x249B JUMP JUMPDEST SWAP2 POP PUSH2 0x2A4D DUP4 PUSH2 0x249B JUMP JUMPDEST SWAP3 POP DUP3 DUP3 SUB SWAP1 POP DUP2 DUP2 GT ISZERO PUSH2 0x2A65 JUMPI PUSH2 0x2A64 PUSH2 0x2A0B JUMP JUMPDEST JUMPDEST SWAP3 SWAP2 POP POP JUMP JUMPDEST PUSH32 0x4E487B7100000000000000000000000000000000000000000000000000000000 PUSH0 MSTORE PUSH1 0x32 PUSH1 0x4 MSTORE PUSH1 0x24 PUSH0 REVERT JUMPDEST PUSH32 0x4E487B7100000000000000000000000000000000000000000000000000000000 PUSH0 MSTORE PUSH1 0x31 PUSH1 0x4 MSTORE PUSH1 0x24 PUSH0 REVERT JUMPDEST PUSH32 0x6E6F7420617574686F72697A6564000000000000000000000000000000000000 PUSH0 DUP3 ADD MSTORE POP JUMP JUMPDEST PUSH0 PUSH2 0x2AF9 PUSH1 0xE DUP4 PUSH2 0x281A JUMP JUMPDEST SWAP2 POP PUSH2 0x2B04 DUP3 PUSH2 0x2AC5 JUMP JUMPDEST PUSH1 0x20 DUP3 ADD SWAP1 POP SWAP2 SWAP1 POP JUMP JUMPDEST PUSH0 PUSH1 0x20 DUP3 ADD SWAP1 POP DUP2 DUP2 SUB PUSH0 DUP4 ADD MSTORE PUSH2 0x2B26 DUP2 PUSH2 0x2AED JUMP JUMPDEST SWAP1 POP SWAP2 SWAP1 POP JUMP JUMPDEST PUSH32 0x696E76616C696420706C61796572000000000000000000000000000000000000 PUSH0 DUP3 ADD MSTORE POP JUMP JUMPDEST PUSH0 PUSH2 0x2B61 PUSH1 0xE DUP4 PUSH2 0x281A JUMP JUMPDEST SWAP2 POP PUSH2 0x2B6C DUP3 PUSH2 0x2B2D JUMP JUMPDEST PUSH1 0x20 DUP3 ADD SWAP1 POP SWAP2 SWAP1 POP JUMP JUMPDEST PUSH0 PUSH1 0x20 DUP3 ADD SWAP1 POP DUP2 DUP2 SUB PUSH0 DUP4 ADD MSTORE PUSH2 0x2B8E DUP2 PUSH2 0x2B55 JUMP JUMPDEST SWAP1 POP SWAP2 SWAP1 POP JUMP JUMPDEST PUSH32 0x696E76616C696420757064617465720000000000000000000000000000000000 PUSH0 DUP3 ADD MSTORE POP JUMP JUMPDEST PUSH0 PUSH2 0x2BC9 PUSH1 0xF DUP4 PUSH2 0x281A JUMP JUMPDEST SWAP2 POP PUSH2 0x2BD4 DUP3 PUSH2 0x2B95 JUMP JUMPDEST PUSH1 0x20 DUP3 ADD SWAP1 POP SWAP2 SWAP1 POP JUMP JUMPDEST PUSH0 PUSH1 0x20 DUP3 ADD SWAP1 POP DUP2 DUP2 SUB PUSH0 DUP4 ADD MSTORE PUSH2 0x2BF6 DUP2 PUSH2 0x2BBD JUMP JUMPDEST SWAP1 POP SWAP2 SWAP1 POP JUMP JUMPDEST PUSH32 0x696E76616C6964206D617820656E74726965732C206D61782032303000000000 PUSH0 DUP3 ADD MSTORE POP JUMP JUMPDEST PUSH0 PUSH2 0x2C31 PUSH1 0x1C DUP4 PUSH2 0x281A JUMP JUMPDEST SWAP2 POP PUSH2 0x2C3C DUP3 PUSH2 0x2BFD JUMP JUMPDEST PUSH1 0x20 DUP3 ADD SWAP1 POP SWAP2 SWAP1 POP JUMP JUMPDEST PUSH0 PUSH1 0x20 DUP3 ADD SWAP1 POP DUP2 DUP2 SUB PUSH0 DUP4 ADD MSTORE PUSH2 0x2C5E DUP2 PUSH2 0x2C25 JUMP JUMPDEST SWAP1 POP SWAP2 SWAP1 POP JUMP JUMPDEST PUSH0 DUP2 SWAP1 POP SWAP2 SWAP1 POP JUMP JUMPDEST PUSH0 PUSH8 0xFFFFFFFFFFFFFFFF DUP3 AND SWAP1 POP SWAP2 SWAP1 POP JUMP JUMPDEST PUSH0 DUP2 SWAP1 POP SWAP2 SWAP1 POP JUMP JUMPDEST PUSH0 PUSH2 0x2CA4 PUSH2 0x2C9F PUSH2 0x2C9A DUP5 PUSH2 0x2C65 JUMP JUMPDEST PUSH2 0x2C81 JUMP JUMPDEST PUSH2 0x2C6E JUMP JUMPDEST SWAP1 POP SWAP2 SWAP1 POP JUMP JUMPDEST PUSH2 0x2CB4 DUP2 PUSH2 0x2C8A JUMP JUMPDEST DUP3 MSTORE POP POP JUMP JUMPDEST PUSH0 PUSH1 0x20 DUP3 ADD SWAP1 POP PUSH2 0x2CCD PUSH0 DUP4 ADD DUP5 PUSH2 0x2CAB JUMP JUMPDEST SWAP3 SWAP2 POP POP JUMP JUMPDEST PUSH2 0x2CDC DUP2 PUSH2 0x26B7 JUMP JUMPDEST DUP2 EQ PUSH2 0x2CE6 JUMPI PUSH0 PUSH0 REVERT JUMPDEST POP JUMP JUMPDEST PUSH0 DUP2 MLOAD SWAP1 POP PUSH2 0x2CF7 DUP2 PUSH2 0x2CD3 JUMP JUMPDEST SWAP3 SWAP2 POP POP JUMP JUMPDEST PUSH0 PUSH1 0x20 DUP3 DUP5 SUB SLT ISZERO PUSH2 0x2D12 JUMPI PUSH2 0x2D11 PUSH2 0x240E JUMP JUMPDEST JUMPDEST PUSH0 PUSH2 0x2D1F DUP5 DUP3 DUP6 ADD PUSH2 0x2CE9 JUMP JUMPDEST SWAP2 POP POP SWAP3 SWAP2 POP POP JUMP JUMPDEST PUSH32 0x5061757361626C653A2070617573656400000000000000000000000000000000 PUSH0 DUP3 ADD MSTORE POP JUMP JUMPDEST PUSH0 PUSH2 0x2D5C PUSH1 0x10 DUP4 PUSH2 0x281A JUMP JUMPDEST SWAP2 POP PUSH2 0x2D67 DUP3 PUSH2 0x2D28 JUMP JUMPDEST PUSH1 0x20 DUP3 ADD SWAP1 POP SWAP2 SWAP1 POP JUMP JUMPDEST PUSH0 PUSH1 0x20 DUP3 ADD SWAP1 POP DUP2 DUP2 SUB PUSH0 DUP4 ADD MSTORE PUSH2 0x2D89 DUP2 PUSH2 0x2D50 JUMP JUMPDEST SWAP1 POP SWAP2 SWAP1 POP JUMP JUMPDEST PUSH32 0x5265656E7472616E637947756172643A207265656E7472616E742063616C6C00 PUSH0 DUP3 ADD MSTORE POP JUMP JUMPDEST PUSH0 PUSH2 0x2DC4 PUSH1 0x1F DUP4 PUSH2 0x281A JUMP JUMPDEST SWAP2 POP PUSH2 0x2DCF DUP3 PUSH2 0x2D90 JUMP JUMPDEST PUSH1 0x20 DUP3 ADD SWAP1 POP SWAP2 SWAP1 POP JUMP JUMPDEST PUSH0 PUSH1 0x20 DUP3 ADD SWAP1 POP DUP2 DUP2 SUB PUSH0 DUP4 ADD MSTORE PUSH2 0x2DF1 DUP2 PUSH2 0x2DB8 JUMP JUMPDEST SWAP1 POP SWAP2 SWAP1 POP JUMP JUMPDEST PUSH0 PUSH2 0x2E02 DUP3 PUSH2 0x249B JUMP JUMPDEST SWAP2 POP PUSH2 0x2E0D DUP4 PUSH2 0x249B JUMP JUMPDEST SWAP3 POP DUP3 DUP3 ADD SWAP1 POP DUP1 DUP3 GT ISZERO PUSH2 0x2E25 JUMPI PUSH2 0x2E24 PUSH2 0x2A0B JUMP JUMPDEST JUMPDEST SWAP3 SWAP2 POP POP JUMP JUMPDEST PUSH0 DUP2 MLOAD SWAP1 POP SWAP2 SWAP1 POP JUMP JUMPDEST PUSH0 DUP2 SWAP1 POP SWAP3 SWAP2 POP POP JUMP JUMPDEST PUSH0 PUSH2 0x2E49 DUP3 PUSH2 0x2E2B JUMP JUMPDEST PUSH2 0x2E53 DUP2 DUP6 PUSH2 0x2E35 JUMP JUMPDEST SWAP4 POP PUSH2 0x2E63 DUP2 DUP6 PUSH1 0x20 DUP7 ADD PUSH2 0x282A JUMP JUMPDEST DUP1 DUP5 ADD SWAP2 POP POP SWAP3 SWAP2 POP POP JUMP JUMPDEST PUSH0 PUSH2 0x2E7A DUP3 DUP5 PUSH2 0x2E3F JUMP JUMPDEST SWAP2 POP DUP2 SWAP1 POP SWAP3 SWAP2 POP POP JUMP INVALID LOG2 PUSH5 0x6970667358 0x22 SLT KECCAK256 EOFCREATE 0x3D PUSH0 0x26 DUP15 MCOPY 0xC 0xDF RJUMP 0xFCF8 RETURNDATASIZE 0xC2 DUP11 RETURNDATASIZE MSIZE SWAP15 CALLF 0x9A57 CREATE2 PUSH7 0x3F9463453DFAEC DIV 0x4D GAS PUSH5 0x736F6C6343 STOP ADDMOD 0x1E STOP CALLER "
				},
				"gasEstimates": {
					"creation": {
						"codeDepositCost": "2392600",
						"executionCost": "infinite",
						"totalCost": "infinite"
					},
					"external": {
						"UPGRADE_INTERFACE_VERSION()": "infinite",
						"authorizedUpdaters(address)": "2878",
						"getPlayerRank(address)": "infinite",
						"getTopPlayers(uint256)": "infinite",
						"initialize(uint256)": "infinite",
						"maxEntries()": "2491",
						"owner()": "2589",
						"paused()": "2495",
						"proxiableUUID()": "infinite",
						"renounceOwnership()": "infinite",
						"resetSeason()": "infinite",
						"scores(address)": "2913",
						"setAuthorizedUpdater(address,bool)": "infinite",
						"setMaxEntries(uint256)": "infinite",
						"topIndex(address)": "2826",
						"transferOwnership(address)": "infinite",
						"updateScore(address,uint256)": "infinite",
						"upgradeToAndCall(address,bytes)": "infinite"
					},
					"internal": {
						"_authorizeUpgrade(address)": "infinite",
						"_bubbleDown(uint256)": "infinite",
						"_bubbleUp(uint256)": "infinite",
						"_insertOrUpdateTop(address,uint256)": "infinite"
					}
				},
				"methodIdentifiers": {
					"UPGRADE_INTERFACE_VERSION()": "ad3cb1cc",
					"authorizedUpdaters(address)": "8ff29cfe",
					"getPlayerRank(address)": "a697cb0e",
					"getTopPlayers(uint256)": "ba3c0067",
					"initialize(uint256)": "fe4b84df",
					"maxEntries()": "f23f3ba5",
					"owner()": "8da5cb5b",
					"paused()": "5c975abb",
					"proxiableUUID()": "52d1902d",
					"renounceOwnership()": "715018a6",
					"resetSeason()": "6eef5220",
					"scores(address)": "76dd110f",
					"setAuthorizedUpdater(address,bool)": "99fc65d4",
					"setMaxEntries(uint256)": "45a587ae",
					"topIndex(address)": "0a9b337f",
					"transferOwnership(address)": "f2fde38b",
					"updateScore(address,uint256)": "65d97724",
					"upgradeToAndCall(address,bytes)": "4f1ef286"
				}
			},
			"storageLayout": {
				"storage": [
					{
						"astId": 666,
						"contract": "leaderboard.sol:LeaderboardUpgradeable",
						"label": "_paused",
						"offset": 0,
						"slot": "0",
						"type": "t_bool"
					},
					{
						"astId": 771,
						"contract": "leaderboard.sol:LeaderboardUpgradeable",
						"label": "__gap",
						"offset": 0,
						"slot": "1",
						"type": "t_array(t_uint256)49_storage"
					},
					{
						"astId": 787,
						"contract": "leaderboard.sol:LeaderboardUpgradeable",
						"label": "_status",
						"offset": 0,
						"slot": "50",
						"type": "t_uint256"
					},
					{
						"astId": 856,
						"contract": "leaderboard.sol:LeaderboardUpgradeable",
						"label": "__gap",
						"offset": 0,
						"slot": "51",
						"type": "t_array(t_uint256)49_storage"
					},
					{
						"astId": 1670,
						"contract": "leaderboard.sol:LeaderboardUpgradeable",
						"label": "scores",
						"offset": 0,
						"slot": "100",
						"type": "t_mapping(t_address,t_uint256)"
					},
					{
						"astId": 1674,
						"contract": "leaderboard.sol:LeaderboardUpgradeable",
						"label": "topPlayers",
						"offset": 0,
						"slot": "101",
						"type": "t_array(t_struct(Entry)1666_storage)dyn_storage"
					},
					{
						"astId": 1676,
						"contract": "leaderboard.sol:LeaderboardUpgradeable",
						"label": "maxEntries",
						"offset": 0,
						"slot": "102",
						"type": "t_uint256"
					},
					{
						"astId": 1680,
						"contract": "leaderboard.sol:LeaderboardUpgradeable",
						"label": "topIndex",
						"offset": 0,
						"slot": "103",
						"type": "t_mapping(t_address,t_uint256)"
					},
					{
						"astId": 1684,
						"contract": "leaderboard.sol:LeaderboardUpgradeable",
						"label": "authorizedUpdaters",
						"offset": 0,
						"slot": "104",
						"type": "t_mapping(t_address,t_bool)"
					}
				],
				"types": {
					"t_address": {
						"encoding": "inplace",
						"label": "address",
						"numberOfBytes": "20"
					},
					"t_array(t_struct(Entry)1666_storage)dyn_storage": {
						"base": "t_struct(Entry)1666_storage",
						"encoding": "dynamic_array",
						"label": "struct LeaderboardUpgradeable.Entry[]",
						"numberOfBytes": "32"
					},
					"t_array(t_uint256)49_storage": {
						"base": "t_uint256",
						"encoding": "inplace",
						"label": "uint256[49]",
						"numberOfBytes": "1568"
					},
					"t_bool": {
						"encoding": "inplace",
						"label": "bool",
						"numberOfBytes": "1"
					},
					"t_mapping(t_address,t_bool)": {
						"encoding": "mapping",
						"key": "t_address",
						"label": "mapping(address => bool)",
						"numberOfBytes": "32",
						"value": "t_bool"
					},
					"t_mapping(t_address,t_uint256)": {
						"encoding": "mapping",
						"key": "t_address",
						"label": "mapping(address => uint256)",
						"numberOfBytes": "32",
						"value": "t_uint256"
					},
					"t_struct(Entry)1666_storage": {
						"encoding": "inplace",
						"label": "struct LeaderboardUpgradeable.Entry",
						"members": [
							{
								"astId": 1663,
								"contract": "leaderboard.sol:LeaderboardUpgradeable",
								"label": "player",
								"offset": 0,
								"slot": "0",
								"type": "t_address"
							},
							{
								"astId": 1665,
								"contract": "leaderboard.sol:LeaderboardUpgradeable",
								"label": "score",
								"offset": 0,
								"slot": "1",
								"type": "t_uint256"
							}
						],
						"numberOfBytes": "64"
					},
					"t_uint256": {
						"encoding": "inplace",
						"label": "uint256",
						"numberOfBytes": "32"
					}
				}
			},
			"userdoc": {
				"kind": "user",
				"methods": {
					"getPlayerRank(address)": {
						"notice": "Get rank and score of a player. Rank is 1-based. Returns (rank, score). If not in top list, rank = 0."
					},
					"getTopPlayers(uint256)": {
						"notice": "Get top N players (N capped by maxEntries)"
					},
					"resetSeason()": {
						"notice": "Reset leaderboard (season reset) — only clears top list and indices to avoid iterating over massive score map"
					},
					"setAuthorizedUpdater(address,bool)": {
						"notice": "Authorize or revoke an updater (game contract)"
					},
					"setMaxEntries(uint256)": {
						"notice": "Adjust maximum leaderboard size (owner only)"
					},
					"updateScore(address,uint256)": {
						"notice": "Update player's score. Can be called by authorized updaters only."
					}
				},
				"version": 1
			}
		}
	}
}