{
	"Marketplace_NFT.sol": {
		"SavePointMarketplace": {
			"abi": [
				{
					"inputs": [
						{
							"internalType": "address",
							"name": "initialOwner",
							"type": "address"
						},
						{
							"internalType": "address",
							"name": "_paymentToken",
							"type": "address"
						},
						{
							"internalType": "address",
							"name": "_feeCollector",
							"type": "address"
						},
						{
							"internalType": "uint256",
							"name": "_feePercent",
							"type": "uint256"
						}
					],
					"stateMutability": "nonpayable",
					"type": "constructor"
				},
				{
					"inputs": [
						{
							"internalType": "address",
							"name": "owner",
							"type": "address"
						}
					],
					"name": "OwnableInvalidOwner",
					"type": "error"
				},
				{
					"inputs": [
						{
							"internalType": "address",
							"name": "account",
							"type": "address"
						}
					],
					"name": "OwnableUnauthorizedAccount",
					"type": "error"
				},
				{
					"inputs": [
						{
							"internalType": "address",
							"name": "token",
							"type": "address"
						}
					],
					"name": "SafeERC20FailedOperation",
					"type": "error"
				},
				{
					"anonymous": false,
					"inputs": [
						{
							"indexed": true,
							"internalType": "uint256",
							"name": "listingId",
							"type": "uint256"
						}
					],
					"name": "NFTDelisted",
					"type": "event"
				},
				{
					"anonymous": false,
					"inputs": [
						{
							"indexed": true,
							"internalType": "uint256",
							"name": "listingId",
							"type": "uint256"
						},
						{
							"indexed": true,
							"internalType": "address",
							"name": "seller",
							"type": "address"
						},
						{
							"indexed": true,
							"internalType": "address",
							"name": "nftContract",
							"type": "address"
						},
						{
							"indexed": false,
							"internalType": "uint256",
							"name": "tokenId",
							"type": "uint256"
						},
						{
							"indexed": false,
							"internalType": "uint256",
							"name": "amount",
							"type": "uint256"
						},
						{
							"indexed": false,
							"internalType": "uint256",
							"name": "price",
							"type": "uint256"
						},
						{
							"indexed": false,
							"internalType": "bool",
							"name": "isERC1155",
							"type": "bool"
						}
					],
					"name": "NFTListed",
					"type": "event"
				},
				{
					"anonymous": false,
					"inputs": [
						{
							"indexed": true,
							"internalType": "uint256",
							"name": "listingId",
							"type": "uint256"
						},
						{
							"indexed": true,
							"internalType": "address",
							"name": "buyer",
							"type": "address"
						},
						{
							"indexed": false,
							"internalType": "uint256",
							"name": "price",
							"type": "uint256"
						},
						{
							"indexed": false,
							"internalType": "uint256",
							"name": "fee",
							"type": "uint256"
						}
					],
					"name": "NFTSale",
					"type": "event"
				},
				{
					"anonymous": false,
					"inputs": [
						{
							"indexed": true,
							"internalType": "address",
							"name": "previousOwner",
							"type": "address"
						},
						{
							"indexed": true,
							"internalType": "address",
							"name": "newOwner",
							"type": "address"
						}
					],
					"name": "OwnershipTransferred",
					"type": "event"
				},
				{
					"inputs": [
						{
							"internalType": "address",
							"name": "",
							"type": "address"
						}
					],
					"name": "allowedNFTContracts",
					"outputs": [
						{
							"internalType": "bool",
							"name": "",
							"type": "bool"
						}
					],
					"stateMutability": "view",
					"type": "function"
				},
				{
					"inputs": [
						{
							"internalType": "uint256",
							"name": "listingId",
							"type": "uint256"
						}
					],
					"name": "buyNFT",
					"outputs": [],
					"stateMutability": "nonpayable",
					"type": "function"
				},
				{
					"inputs": [
						{
							"internalType": "uint256",
							"name": "listingId",
							"type": "uint256"
						}
					],
					"name": "delistNFT",
					"outputs": [],
					"stateMutability": "nonpayable",
					"type": "function"
				},
				{
					"inputs": [],
					"name": "feeCollector",
					"outputs": [
						{
							"internalType": "address",
							"name": "",
							"type": "address"
						}
					],
					"stateMutability": "view",
					"type": "function"
				},
				{
					"inputs": [],
					"name": "feePercent",
					"outputs": [
						{
							"internalType": "uint256",
							"name": "",
							"type": "uint256"
						}
					],
					"stateMutability": "view",
					"type": "function"
				},
				{
					"inputs": [
						{
							"internalType": "address",
							"name": "nftContract",
							"type": "address"
						}
					],
					"name": "isAllowedNFT",
					"outputs": [
						{
							"internalType": "bool",
							"name": "",
							"type": "bool"
						}
					],
					"stateMutability": "view",
					"type": "function"
				},
				{
					"inputs": [
						{
							"internalType": "address",
							"name": "nftContract",
							"type": "address"
						},
						{
							"internalType": "uint256",
							"name": "tokenId",
							"type": "uint256"
						},
						{
							"internalType": "uint256",
							"name": "amount",
							"type": "uint256"
						},
						{
							"internalType": "uint256",
							"name": "price",
							"type": "uint256"
						},
						{
							"internalType": "bool",
							"name": "isERC1155",
							"type": "bool"
						}
					],
					"name": "listNFT",
					"outputs": [],
					"stateMutability": "nonpayable",
					"type": "function"
				},
				{
					"inputs": [
						{
							"internalType": "uint256",
							"name": "",
							"type": "uint256"
						}
					],
					"name": "listings",
					"outputs": [
						{
							"internalType": "address",
							"name": "seller",
							"type": "address"
						},
						{
							"internalType": "address",
							"name": "nftContract",
							"type": "address"
						},
						{
							"internalType": "uint256",
							"name": "tokenId",
							"type": "uint256"
						},
						{
							"internalType": "uint256",
							"name": "amount",
							"type": "uint256"
						},
						{
							"internalType": "uint256",
							"name": "price",
							"type": "uint256"
						},
						{
							"internalType": "bool",
							"name": "isERC1155",
							"type": "bool"
						},
						{
							"internalType": "bool",
							"name": "active",
							"type": "bool"
						}
					],
					"stateMutability": "view",
					"type": "function"
				},
				{
					"inputs": [],
					"name": "owner",
					"outputs": [
						{
							"internalType": "address",
							"name": "",
							"type": "address"
						}
					],
					"stateMutability": "view",
					"type": "function"
				},
				{
					"inputs": [],
					"name": "paymentToken",
					"outputs": [
						{
							"internalType": "contract IERC20",
							"name": "",
							"type": "address"
						}
					],
					"stateMutability": "view",
					"type": "function"
				},
				{
					"inputs": [],
					"name": "renounceOwnership",
					"outputs": [],
					"stateMutability": "nonpayable",
					"type": "function"
				},
				{
					"inputs": [
						{
							"internalType": "address",
							"name": "nftContract",
							"type": "address"
						},
						{
							"internalType": "bool",
							"name": "allowed",
							"type": "bool"
						}
					],
					"name": "setAllowedNFTContract",
					"outputs": [],
					"stateMutability": "nonpayable",
					"type": "function"
				},
				{
					"inputs": [
						{
							"internalType": "address",
							"name": "_feeCollector",
							"type": "address"
						}
					],
					"name": "setFeeCollector",
					"outputs": [],
					"stateMutability": "nonpayable",
					"type": "function"
				},
				{
					"inputs": [
						{
							"internalType": "uint256",
							"name": "_feePercent",
							"type": "uint256"
						}
					],
					"name": "setFeePercent",
					"outputs": [],
					"stateMutability": "nonpayable",
					"type": "function"
				},
				{
					"inputs": [
						{
							"internalType": "address",
							"name": "_paymentToken",
							"type": "address"
						}
					],
					"name": "setPaymentToken",
					"outputs": [],
					"stateMutability": "nonpayable",
					"type": "function"
				},
				{
					"inputs": [
						{
							"internalType": "address",
							"name": "newOwner",
							"type": "address"
						}
					],
					"name": "transferOwnership",
					"outputs": [],
					"stateMutability": "nonpayable",
					"type": "function"
				}
			],
			"devdoc": {
				"errors": {
					"OwnableInvalidOwner(address)": [
						{
							"details": "The owner is not a valid owner account. (eg. `address(0)`)"
						}
					],
					"OwnableUnauthorizedAccount(address)": [
						{
							"details": "The caller account is not authorized to perform an operation."
						}
					],
					"SafeERC20FailedOperation(address)": [
						{
							"details": "An operation with an ERC-20 token failed."
						}
					]
				},
				"kind": "dev",
				"methods": {
					"owner()": {
						"details": "Returns the address of the current owner."
					},
					"renounceOwnership()": {
						"details": "Leaves the contract without owner. It will not be possible to call `onlyOwner` functions. Can only be called by the current owner. NOTE: Renouncing ownership will leave the contract without an owner, thereby disabling any functionality that is only available to the owner."
					},
					"transferOwnership(address)": {
						"details": "Transfers ownership of the contract to a new account (`newOwner`). Can only be called by the current owner."
					}
				},
				"version": 1
			},
			"evm": {
				"assembly": "    /* \"Marketplace_NFT.sol\":420:5720  contract SavePointMarketplace is Ownable, ReentrancyGuard {... */\n  mstore(0x40, 0x80)\n    /* \"Marketplace_NFT.sol\":1614:2202  constructor(address initialOwner, address _paymentToken, address _feeCollector, uint256 _feePercent) ... */\n  callvalue\n  dup1\n  iszero\n  tag_1\n  jumpi\n  revert(0x00, 0x00)\ntag_1:\n  pop\n  mload(0x40)\n  sub(codesize, bytecodeSize)\n  dup1\n  bytecodeSize\n  dup4\n  codecopy\n  dup2\n  dup2\n  add\n  0x40\n  mstore\n  dup2\n  add\n  swap1\n  tag_2\n  swap2\n  swap1\n  tag_3\n  jump\t// in\ntag_2:\n    /* \"Marketplace_NFT.sol\":1732:1744  initialOwner */\n  dup4\n    /* \"@openzeppelin/contracts/access/Ownable.sol\":1297:1298  0 */\n  0x00\n    /* \"@openzeppelin/contracts/access/Ownable.sol\":1273:1299  initialOwner == address(0) */\n  0xffffffffffffffffffffffffffffffffffffffff\n  and\n    /* \"@openzeppelin/contracts/access/Ownable.sol\":1273:1285  initialOwner */\n  dup2\n    /* \"@openzeppelin/contracts/access/Ownable.sol\":1273:1299  initialOwner == address(0) */\n  0xffffffffffffffffffffffffffffffffffffffff\n  and\n  sub\n    /* \"@openzeppelin/contracts/access/Ownable.sol\":1269:1364  if (initialOwner == address(0)) {... */\n  tag_8\n  jumpi\n    /* \"@openzeppelin/contracts/access/Ownable.sol\":1350:1351  0 */\n  0x00\n    /* \"@openzeppelin/contracts/access/Ownable.sol\":1322:1353  OwnableInvalidOwner(address(0)) */\n  mload(0x40)\n  0x1e4fbdf700000000000000000000000000000000000000000000000000000000\n  dup2\n  mstore\n  0x04\n  add\n  tag_9\n  swap2\n  swap1\n  tag_10\n  jump\t// in\ntag_9:\n  mload(0x40)\n  dup1\n  swap2\n  sub\n  swap1\n  revert\n    /* \"@openzeppelin/contracts/access/Ownable.sol\":1269:1364  if (initialOwner == address(0)) {... */\ntag_8:\n    /* \"@openzeppelin/contracts/access/Ownable.sol\":1373:1405  _transferOwnership(initialOwner) */\n  tag_11\n    /* \"@openzeppelin/contracts/access/Ownable.sol\":1392:1404  initialOwner */\n  dup2\n    /* \"@openzeppelin/contracts/access/Ownable.sol\":1373:1391  _transferOwnership */\n  shl(0x20, tag_12)\n    /* \"@openzeppelin/contracts/access/Ownable.sol\":1373:1405  _transferOwnership(initialOwner) */\n  0x20\n  shr\n  jump\t// in\ntag_11:\n    /* \"@openzeppelin/contracts/access/Ownable.sol\":1225:1412  constructor(address initialOwner) {... */\n  pop\n    /* \"@openzeppelin/contracts/security/ReentrancyGuard.sol\":1716:1717  1 */\n  0x01\n    /* \"@openzeppelin/contracts/security/ReentrancyGuard.sol\":1821:1828  _status */\n  dup1\n    /* \"@openzeppelin/contracts/security/ReentrancyGuard.sol\":1821:1843  _status = _NOT_ENTERED */\n  dup2\n  swap1\n  sstore\n  pop\n    /* \"Marketplace_NFT.sol\":1793:1794  0 */\n  0x00\n    /* \"Marketplace_NFT.sol\":1769:1795  initialOwner != address(0) */\n  0xffffffffffffffffffffffffffffffffffffffff\n  and\n    /* \"Marketplace_NFT.sol\":1769:1781  initialOwner */\n  dup5\n    /* \"Marketplace_NFT.sol\":1769:1795  initialOwner != address(0) */\n  0xffffffffffffffffffffffffffffffffffffffff\n  and\n  sub\n    /* \"Marketplace_NFT.sol\":1761:1810  require(initialOwner != address(0), \"owner zero\") */\n  tag_15\n  jumpi\n  mload(0x40)\n  0x08c379a000000000000000000000000000000000000000000000000000000000\n  dup2\n  mstore\n  0x04\n  add\n  tag_16\n  swap1\n  tag_17\n  jump\t// in\ntag_16:\n  mload(0x40)\n  dup1\n  swap2\n  sub\n  swap1\n  revert\ntag_15:\n    /* \"Marketplace_NFT.sol\":1853:1854  0 */\n  0x00\n    /* \"Marketplace_NFT.sol\":1828:1855  _paymentToken != address(0) */\n  0xffffffffffffffffffffffffffffffffffffffff\n  and\n    /* \"Marketplace_NFT.sol\":1828:1841  _paymentToken */\n  dup4\n    /* \"Marketplace_NFT.sol\":1828:1855  _paymentToken != address(0) */\n  0xffffffffffffffffffffffffffffffffffffffff\n  and\n  sub\n    /* \"Marketplace_NFT.sol\":1820:1877  require(_paymentToken != address(0), \"paymentToken zero\") */\n  tag_18\n  jumpi\n  mload(0x40)\n  0x08c379a000000000000000000000000000000000000000000000000000000000\n  dup2\n  mstore\n  0x04\n  add\n  tag_19\n  swap1\n  tag_20\n  jump\t// in\ntag_19:\n  mload(0x40)\n  dup1\n  swap2\n  sub\n  swap1\n  revert\ntag_18:\n    /* \"Marketplace_NFT.sol\":1920:1921  0 */\n  0x00\n    /* \"Marketplace_NFT.sol\":1895:1922  _feeCollector != address(0) */\n  0xffffffffffffffffffffffffffffffffffffffff\n  and\n    /* \"Marketplace_NFT.sol\":1895:1908  _feeCollector */\n  dup3\n    /* \"Marketplace_NFT.sol\":1895:1922  _feeCollector != address(0) */\n  0xffffffffffffffffffffffffffffffffffffffff\n  and\n  sub\n    /* \"Marketplace_NFT.sol\":1887:1944  require(_feeCollector != address(0), \"feeCollector zero\") */\n  tag_21\n  jumpi\n  mload(0x40)\n  0x08c379a000000000000000000000000000000000000000000000000000000000\n  dup2\n  mstore\n  0x04\n  add\n  tag_22\n  swap1\n  tag_23\n  jump\t// in\ntag_22:\n  mload(0x40)\n  dup1\n  swap2\n  sub\n  swap1\n  revert\ntag_21:\n    /* \"Marketplace_NFT.sol\":1977:1982  10000 */\n  0x2710\n    /* \"Marketplace_NFT.sol\":1962:1973  _feePercent */\n  dup2\n    /* \"Marketplace_NFT.sol\":1962:1982  _feePercent <= 10000 */\n  gt\n  iszero\n    /* \"Marketplace_NFT.sol\":1954:2007  require(_feePercent <= 10000, \"feePercent max 10000\") */\n  tag_24\n  jumpi\n  mload(0x40)\n  0x08c379a000000000000000000000000000000000000000000000000000000000\n  dup2\n  mstore\n  0x04\n  add\n  tag_25\n  swap1\n  tag_26\n  jump\t// in\ntag_25:\n  mload(0x40)\n  dup1\n  swap2\n  sub\n  swap1\n  revert\ntag_24:\n    /* \"Marketplace_NFT.sol\":2040:2053  _paymentToken */\n  dup3\n    /* \"Marketplace_NFT.sol\":2018:2030  paymentToken */\n  0x02\n  0x00\n    /* \"Marketplace_NFT.sol\":2018:2054  paymentToken = IERC20(_paymentToken) */\n  0x0100\n  exp\n  dup2\n  sload\n  dup2\n  0xffffffffffffffffffffffffffffffffffffffff\n  mul\n  not\n  and\n  swap1\n  dup4\n  0xffffffffffffffffffffffffffffffffffffffff\n  and\n  mul\n  or\n  swap1\n  sstore\n  pop\n    /* \"Marketplace_NFT.sol\":2079:2092  _feeCollector */\n  dup2\n    /* \"Marketplace_NFT.sol\":2064:2076  feeCollector */\n  0x03\n  0x00\n    /* \"Marketplace_NFT.sol\":2064:2092  feeCollector = _feeCollector */\n  0x0100\n  exp\n  dup2\n  sload\n  dup2\n  0xffffffffffffffffffffffffffffffffffffffff\n  mul\n  not\n  and\n  swap1\n  dup4\n  0xffffffffffffffffffffffffffffffffffffffff\n  and\n  mul\n  or\n  swap1\n  sstore\n  pop\n    /* \"Marketplace_NFT.sol\":2115:2126  _feePercent */\n  dup1\n    /* \"Marketplace_NFT.sol\":2102:2112  feePercent */\n  0x04\n    /* \"Marketplace_NFT.sol\":2102:2126  feePercent = _feePercent */\n  dup2\n  swap1\n  sstore\n  pop\n    /* \"Marketplace_NFT.sol\":2178:2179  1 */\n  0x01\n    /* \"Marketplace_NFT.sol\":2158:2175  _listingIdCounter */\n  0x06\n    /* \"Marketplace_NFT.sol\":2158:2179  _listingIdCounter = 1 */\n  dup2\n  swap1\n  sstore\n  pop\n    /* \"Marketplace_NFT.sol\":1614:2202  constructor(address initialOwner, address _paymentToken, address _feeCollector, uint256 _feePercent) ... */\n  pop\n  pop\n  pop\n  pop\n    /* \"Marketplace_NFT.sol\":420:5720  contract SavePointMarketplace is Ownable, ReentrancyGuard {... */\n  jump(tag_27)\n    /* \"@openzeppelin/contracts/access/Ownable.sol\":2912:3099  function _transferOwnership(address newOwner) internal virtual {... */\ntag_12:\n    /* \"@openzeppelin/contracts/access/Ownable.sol\":2985:3001  address oldOwner */\n  0x00\n    /* \"@openzeppelin/contracts/access/Ownable.sol\":3004:3010  _owner */\n  0x00\n  0x00\n  swap1\n  sload\n  swap1\n  0x0100\n  exp\n  swap1\n  div\n  0xffffffffffffffffffffffffffffffffffffffff\n  and\n    /* \"@openzeppelin/contracts/access/Ownable.sol\":2985:3010  address oldOwner = _owner */\n  swap1\n  pop\n    /* \"@openzeppelin/contracts/access/Ownable.sol\":3029:3037  newOwner */\n  dup2\n    /* \"@openzeppelin/contracts/access/Ownable.sol\":3020:3026  _owner */\n  0x00\n  0x00\n    /* \"@openzeppelin/contracts/access/Ownable.sol\":3020:3037  _owner = newOwner */\n  0x0100\n  exp\n  dup2\n  sload\n  dup2\n  0xffffffffffffffffffffffffffffffffffffffff\n  mul\n  not\n  and\n  swap1\n  dup4\n  0xffffffffffffffffffffffffffffffffffffffff\n  and\n  mul\n  or\n  swap1\n  sstore\n  pop\n    /* \"@openzeppelin/contracts/access/Ownable.sol\":3083:3091  newOwner */\n  dup2\n    /* \"@openzeppelin/contracts/access/Ownable.sol\":3052:3092  OwnershipTransferred(oldOwner, newOwner) */\n  0xffffffffffffffffffffffffffffffffffffffff\n  and\n    /* \"@openzeppelin/contracts/access/Ownable.sol\":3073:3081  oldOwner */\n  dup2\n    /* \"@openzeppelin/contracts/access/Ownable.sol\":3052:3092  OwnershipTransferred(oldOwner, newOwner) */\n  0xffffffffffffffffffffffffffffffffffffffff\n  and\n  0x8be0079c531659141344cd1fd0a4f28419497f9722a3daafe3b4186f6b6457e0\n  mload(0x40)\n  mload(0x40)\n  dup1\n  swap2\n  sub\n  swap1\n  log3\n    /* \"@openzeppelin/contracts/access/Ownable.sol\":2975:3099  {... */\n  pop\n    /* \"@openzeppelin/contracts/access/Ownable.sol\":2912:3099  function _transferOwnership(address newOwner) internal virtual {... */\n  pop\n  jump\t// out\n    /* \"#utility.yul\":88:205   */\ntag_30:\n    /* \"#utility.yul\":197:198   */\n  0x00\n    /* \"#utility.yul\":194:195   */\n  0x00\n    /* \"#utility.yul\":187:199   */\n  revert\n    /* \"#utility.yul\":334:460   */\ntag_32:\n    /* \"#utility.yul\":371:378   */\n  0x00\n    /* \"#utility.yul\":411:453   */\n  0xffffffffffffffffffffffffffffffffffffffff\n    /* \"#utility.yul\":404:409   */\n  dup3\n    /* \"#utility.yul\":400:454   */\n  and\n    /* \"#utility.yul\":389:454   */\n  swap1\n  pop\n    /* \"#utility.yul\":334:460   */\n  swap2\n  swap1\n  pop\n  jump\t// out\n    /* \"#utility.yul\":466:562   */\ntag_33:\n    /* \"#utility.yul\":503:510   */\n  0x00\n    /* \"#utility.yul\":532:556   */\n  tag_55\n    /* \"#utility.yul\":550:555   */\n  dup3\n    /* \"#utility.yul\":532:556   */\n  tag_32\n  jump\t// in\ntag_55:\n    /* \"#utility.yul\":521:556   */\n  swap1\n  pop\n    /* \"#utility.yul\":466:562   */\n  swap2\n  swap1\n  pop\n  jump\t// out\n    /* \"#utility.yul\":568:690   */\ntag_34:\n    /* \"#utility.yul\":641:665   */\n  tag_57\n    /* \"#utility.yul\":659:664   */\n  dup2\n    /* \"#utility.yul\":641:665   */\n  tag_33\n  jump\t// in\ntag_57:\n    /* \"#utility.yul\":634:639   */\n  dup2\n    /* \"#utility.yul\":631:666   */\n  eq\n    /* \"#utility.yul\":621:684   */\n  tag_58\n  jumpi\n    /* \"#utility.yul\":680:681   */\n  0x00\n    /* \"#utility.yul\":677:678   */\n  0x00\n    /* \"#utility.yul\":670:682   */\n  revert\n    /* \"#utility.yul\":621:684   */\ntag_58:\n    /* \"#utility.yul\":568:690   */\n  pop\n  jump\t// out\n    /* \"#utility.yul\":696:839   */\ntag_35:\n    /* \"#utility.yul\":753:758   */\n  0x00\n    /* \"#utility.yul\":784:790   */\n  dup2\n    /* \"#utility.yul\":778:791   */\n  mload\n    /* \"#utility.yul\":769:791   */\n  swap1\n  pop\n    /* \"#utility.yul\":800:833   */\n  tag_60\n    /* \"#utility.yul\":827:832   */\n  dup2\n    /* \"#utility.yul\":800:833   */\n  tag_34\n  jump\t// in\ntag_60:\n    /* \"#utility.yul\":696:839   */\n  swap3\n  swap2\n  pop\n  pop\n  jump\t// out\n    /* \"#utility.yul\":845:922   */\ntag_36:\n    /* \"#utility.yul\":882:889   */\n  0x00\n    /* \"#utility.yul\":911:916   */\n  dup2\n    /* \"#utility.yul\":900:916   */\n  swap1\n  pop\n    /* \"#utility.yul\":845:922   */\n  swap2\n  swap1\n  pop\n  jump\t// out\n    /* \"#utility.yul\":928:1050   */\ntag_37:\n    /* \"#utility.yul\":1001:1025   */\n  tag_63\n    /* \"#utility.yul\":1019:1024   */\n  dup2\n    /* \"#utility.yul\":1001:1025   */\n  tag_36\n  jump\t// in\ntag_63:\n    /* \"#utility.yul\":994:999   */\n  dup2\n    /* \"#utility.yul\":991:1026   */\n  eq\n    /* \"#utility.yul\":981:1044   */\n  tag_64\n  jumpi\n    /* \"#utility.yul\":1040:1041   */\n  0x00\n    /* \"#utility.yul\":1037:1038   */\n  0x00\n    /* \"#utility.yul\":1030:1042   */\n  revert\n    /* \"#utility.yul\":981:1044   */\ntag_64:\n    /* \"#utility.yul\":928:1050   */\n  pop\n  jump\t// out\n    /* \"#utility.yul\":1056:1199   */\ntag_38:\n    /* \"#utility.yul\":1113:1118   */\n  0x00\n    /* \"#utility.yul\":1144:1150   */\n  dup2\n    /* \"#utility.yul\":1138:1151   */\n  mload\n    /* \"#utility.yul\":1129:1151   */\n  swap1\n  pop\n    /* \"#utility.yul\":1160:1193   */\n  tag_66\n    /* \"#utility.yul\":1187:1192   */\n  dup2\n    /* \"#utility.yul\":1160:1193   */\n  tag_37\n  jump\t// in\ntag_66:\n    /* \"#utility.yul\":1056:1199   */\n  swap3\n  swap2\n  pop\n  pop\n  jump\t// out\n    /* \"#utility.yul\":1205:2025   */\ntag_3:\n    /* \"#utility.yul\":1302:1308   */\n  0x00\n    /* \"#utility.yul\":1310:1316   */\n  0x00\n    /* \"#utility.yul\":1318:1324   */\n  0x00\n    /* \"#utility.yul\":1326:1332   */\n  0x00\n    /* \"#utility.yul\":1375:1378   */\n  0x80\n    /* \"#utility.yul\":1363:1372   */\n  dup6\n    /* \"#utility.yul\":1354:1361   */\n  dup8\n    /* \"#utility.yul\":1350:1373   */\n  sub\n    /* \"#utility.yul\":1346:1379   */\n  slt\n    /* \"#utility.yul\":1343:1463   */\n  iszero\n  tag_68\n  jumpi\n    /* \"#utility.yul\":1382:1461   */\n  tag_69\n  tag_30\n  jump\t// in\ntag_69:\n    /* \"#utility.yul\":1343:1463   */\ntag_68:\n    /* \"#utility.yul\":1502:1503   */\n  0x00\n    /* \"#utility.yul\":1527:1591   */\n  tag_70\n    /* \"#utility.yul\":1583:1590   */\n  dup8\n    /* \"#utility.yul\":1574:1580   */\n  dup3\n    /* \"#utility.yul\":1563:1572   */\n  dup9\n    /* \"#utility.yul\":1559:1581   */\n  add\n    /* \"#utility.yul\":1527:1591   */\n  tag_35\n  jump\t// in\ntag_70:\n    /* \"#utility.yul\":1517:1591   */\n  swap5\n  pop\n    /* \"#utility.yul\":1473:1601   */\n  pop\n    /* \"#utility.yul\":1640:1642   */\n  0x20\n    /* \"#utility.yul\":1666:1730   */\n  tag_71\n    /* \"#utility.yul\":1722:1729   */\n  dup8\n    /* \"#utility.yul\":1713:1719   */\n  dup3\n    /* \"#utility.yul\":1702:1711   */\n  dup9\n    /* \"#utility.yul\":1698:1720   */\n  add\n    /* \"#utility.yul\":1666:1730   */\n  tag_35\n  jump\t// in\ntag_71:\n    /* \"#utility.yul\":1656:1730   */\n  swap4\n  pop\n    /* \"#utility.yul\":1611:1740   */\n  pop\n    /* \"#utility.yul\":1779:1781   */\n  0x40\n    /* \"#utility.yul\":1805:1869   */\n  tag_72\n    /* \"#utility.yul\":1861:1868   */\n  dup8\n    /* \"#utility.yul\":1852:1858   */\n  dup3\n    /* \"#utility.yul\":1841:1850   */\n  dup9\n    /* \"#utility.yul\":1837:1859   */\n  add\n    /* \"#utility.yul\":1805:1869   */\n  tag_35\n  jump\t// in\ntag_72:\n    /* \"#utility.yul\":1795:1869   */\n  swap3\n  pop\n    /* \"#utility.yul\":1750:1879   */\n  pop\n    /* \"#utility.yul\":1918:1920   */\n  0x60\n    /* \"#utility.yul\":1944:2008   */\n  tag_73\n    /* \"#utility.yul\":2000:2007   */\n  dup8\n    /* \"#utility.yul\":1991:1997   */\n  dup3\n    /* \"#utility.yul\":1980:1989   */\n  dup9\n    /* \"#utility.yul\":1976:1998   */\n  add\n    /* \"#utility.yul\":1944:2008   */\n  tag_38\n  jump\t// in\ntag_73:\n    /* \"#utility.yul\":1934:2008   */\n  swap2\n  pop\n    /* \"#utility.yul\":1889:2018   */\n  pop\n    /* \"#utility.yul\":1205:2025   */\n  swap3\n  swap6\n  swap2\n  swap5\n  pop\n  swap3\n  pop\n  jump\t// out\n    /* \"#utility.yul\":2031:2149   */\ntag_39:\n    /* \"#utility.yul\":2118:2142   */\n  tag_75\n    /* \"#utility.yul\":2136:2141   */\n  dup2\n    /* \"#utility.yul\":2118:2142   */\n  tag_33\n  jump\t// in\ntag_75:\n    /* \"#utility.yul\":2113:2116   */\n  dup3\n    /* \"#utility.yul\":2106:2143   */\n  mstore\n    /* \"#utility.yul\":2031:2149   */\n  pop\n  pop\n  jump\t// out\n    /* \"#utility.yul\":2155:2377   */\ntag_10:\n    /* \"#utility.yul\":2248:2252   */\n  0x00\n    /* \"#utility.yul\":2286:2288   */\n  0x20\n    /* \"#utility.yul\":2275:2284   */\n  dup3\n    /* \"#utility.yul\":2271:2289   */\n  add\n    /* \"#utility.yul\":2263:2289   */\n  swap1\n  pop\n    /* \"#utility.yul\":2299:2370   */\n  tag_77\n    /* \"#utility.yul\":2367:2368   */\n  0x00\n    /* \"#utility.yul\":2356:2365   */\n  dup4\n    /* \"#utility.yul\":2352:2369   */\n  add\n    /* \"#utility.yul\":2343:2349   */\n  dup5\n    /* \"#utility.yul\":2299:2370   */\n  tag_39\n  jump\t// in\ntag_77:\n    /* \"#utility.yul\":2155:2377   */\n  swap3\n  swap2\n  pop\n  pop\n  jump\t// out\n    /* \"#utility.yul\":2383:2552   */\ntag_40:\n    /* \"#utility.yul\":2467:2478   */\n  0x00\n    /* \"#utility.yul\":2501:2507   */\n  dup3\n    /* \"#utility.yul\":2496:2499   */\n  dup3\n    /* \"#utility.yul\":2489:2508   */\n  mstore\n    /* \"#utility.yul\":2541:2545   */\n  0x20\n    /* \"#utility.yul\":2536:2539   */\n  dup3\n    /* \"#utility.yul\":2532:2546   */\n  add\n    /* \"#utility.yul\":2517:2546   */\n  swap1\n  pop\n    /* \"#utility.yul\":2383:2552   */\n  swap3\n  swap2\n  pop\n  pop\n  jump\t// out\n    /* \"#utility.yul\":2558:2718   */\ntag_41:\n    /* \"#utility.yul\":2698:2710   */\n  0x6f776e6572207a65726f00000000000000000000000000000000000000000000\n    /* \"#utility.yul\":2694:2695   */\n  0x00\n    /* \"#utility.yul\":2686:2692   */\n  dup3\n    /* \"#utility.yul\":2682:2696   */\n  add\n    /* \"#utility.yul\":2675:2711   */\n  mstore\n    /* \"#utility.yul\":2558:2718   */\n  pop\n  jump\t// out\n    /* \"#utility.yul\":2724:3090   */\ntag_42:\n    /* \"#utility.yul\":2866:2869   */\n  0x00\n    /* \"#utility.yul\":2887:2954   */\n  tag_81\n    /* \"#utility.yul\":2951:2953   */\n  0x0a\n    /* \"#utility.yul\":2946:2949   */\n  dup4\n    /* \"#utility.yul\":2887:2954   */\n  tag_40\n  jump\t// in\ntag_81:\n    /* \"#utility.yul\":2880:2954   */\n  swap2\n  pop\n    /* \"#utility.yul\":2963:3056   */\n  tag_82\n    /* \"#utility.yul\":3052:3055   */\n  dup3\n    /* \"#utility.yul\":2963:3056   */\n  tag_41\n  jump\t// in\ntag_82:\n    /* \"#utility.yul\":3081:3083   */\n  0x20\n    /* \"#utility.yul\":3076:3079   */\n  dup3\n    /* \"#utility.yul\":3072:3084   */\n  add\n    /* \"#utility.yul\":3065:3084   */\n  swap1\n  pop\n    /* \"#utility.yul\":2724:3090   */\n  swap2\n  swap1\n  pop\n  jump\t// out\n    /* \"#utility.yul\":3096:3515   */\ntag_17:\n    /* \"#utility.yul\":3262:3266   */\n  0x00\n    /* \"#utility.yul\":3300:3302   */\n  0x20\n    /* \"#utility.yul\":3289:3298   */\n  dup3\n    /* \"#utility.yul\":3285:3303   */\n  add\n    /* \"#utility.yul\":3277:3303   */\n  swap1\n  pop\n    /* \"#utility.yul\":3349:3358   */\n  dup2\n    /* \"#utility.yul\":3343:3347   */\n  dup2\n    /* \"#utility.yul\":3339:3359   */\n  sub\n    /* \"#utility.yul\":3335:3336   */\n  0x00\n    /* \"#utility.yul\":3324:3333   */\n  dup4\n    /* \"#utility.yul\":3320:3337   */\n  add\n    /* \"#utility.yul\":3313:3360   */\n  mstore\n    /* \"#utility.yul\":3377:3508   */\n  tag_84\n    /* \"#utility.yul\":3503:3507   */\n  dup2\n    /* \"#utility.yul\":3377:3508   */\n  tag_42\n  jump\t// in\ntag_84:\n    /* \"#utility.yul\":3369:3508   */\n  swap1\n  pop\n    /* \"#utility.yul\":3096:3515   */\n  swap2\n  swap1\n  pop\n  jump\t// out\n    /* \"#utility.yul\":3521:3688   */\ntag_43:\n    /* \"#utility.yul\":3661:3680   */\n  0x7061796d656e74546f6b656e207a65726f000000000000000000000000000000\n    /* \"#utility.yul\":3657:3658   */\n  0x00\n    /* \"#utility.yul\":3649:3655   */\n  dup3\n    /* \"#utility.yul\":3645:3659   */\n  add\n    /* \"#utility.yul\":3638:3681   */\n  mstore\n    /* \"#utility.yul\":3521:3688   */\n  pop\n  jump\t// out\n    /* \"#utility.yul\":3694:4060   */\ntag_44:\n    /* \"#utility.yul\":3836:3839   */\n  0x00\n    /* \"#utility.yul\":3857:3924   */\n  tag_87\n    /* \"#utility.yul\":3921:3923   */\n  0x11\n    /* \"#utility.yul\":3916:3919   */\n  dup4\n    /* \"#utility.yul\":3857:3924   */\n  tag_40\n  jump\t// in\ntag_87:\n    /* \"#utility.yul\":3850:3924   */\n  swap2\n  pop\n    /* \"#utility.yul\":3933:4026   */\n  tag_88\n    /* \"#utility.yul\":4022:4025   */\n  dup3\n    /* \"#utility.yul\":3933:4026   */\n  tag_43\n  jump\t// in\ntag_88:\n    /* \"#utility.yul\":4051:4053   */\n  0x20\n    /* \"#utility.yul\":4046:4049   */\n  dup3\n    /* \"#utility.yul\":4042:4054   */\n  add\n    /* \"#utility.yul\":4035:4054   */\n  swap1\n  pop\n    /* \"#utility.yul\":3694:4060   */\n  swap2\n  swap1\n  pop\n  jump\t// out\n    /* \"#utility.yul\":4066:4485   */\ntag_20:\n    /* \"#utility.yul\":4232:4236   */\n  0x00\n    /* \"#utility.yul\":4270:4272   */\n  0x20\n    /* \"#utility.yul\":4259:4268   */\n  dup3\n    /* \"#utility.yul\":4255:4273   */\n  add\n    /* \"#utility.yul\":4247:4273   */\n  swap1\n  pop\n    /* \"#utility.yul\":4319:4328   */\n  dup2\n    /* \"#utility.yul\":4313:4317   */\n  dup2\n    /* \"#utility.yul\":4309:4329   */\n  sub\n    /* \"#utility.yul\":4305:4306   */\n  0x00\n    /* \"#utility.yul\":4294:4303   */\n  dup4\n    /* \"#utility.yul\":4290:4307   */\n  add\n    /* \"#utility.yul\":4283:4330   */\n  mstore\n    /* \"#utility.yul\":4347:4478   */\n  tag_90\n    /* \"#utility.yul\":4473:4477   */\n  dup2\n    /* \"#utility.yul\":4347:4478   */\n  tag_44\n  jump\t// in\ntag_90:\n    /* \"#utility.yul\":4339:4478   */\n  swap1\n  pop\n    /* \"#utility.yul\":4066:4485   */\n  swap2\n  swap1\n  pop\n  jump\t// out\n    /* \"#utility.yul\":4491:4658   */\ntag_45:\n    /* \"#utility.yul\":4631:4650   */\n  0x666565436f6c6c6563746f72207a65726f000000000000000000000000000000\n    /* \"#utility.yul\":4627:4628   */\n  0x00\n    /* \"#utility.yul\":4619:4625   */\n  dup3\n    /* \"#utility.yul\":4615:4629   */\n  add\n    /* \"#utility.yul\":4608:4651   */\n  mstore\n    /* \"#utility.yul\":4491:4658   */\n  pop\n  jump\t// out\n    /* \"#utility.yul\":4664:5030   */\ntag_46:\n    /* \"#utility.yul\":4806:4809   */\n  0x00\n    /* \"#utility.yul\":4827:4894   */\n  tag_93\n    /* \"#utility.yul\":4891:4893   */\n  0x11\n    /* \"#utility.yul\":4886:4889   */\n  dup4\n    /* \"#utility.yul\":4827:4894   */\n  tag_40\n  jump\t// in\ntag_93:\n    /* \"#utility.yul\":4820:4894   */\n  swap2\n  pop\n    /* \"#utility.yul\":4903:4996   */\n  tag_94\n    /* \"#utility.yul\":4992:4995   */\n  dup3\n    /* \"#utility.yul\":4903:4996   */\n  tag_45\n  jump\t// in\ntag_94:\n    /* \"#utility.yul\":5021:5023   */\n  0x20\n    /* \"#utility.yul\":5016:5019   */\n  dup3\n    /* \"#utility.yul\":5012:5024   */\n  add\n    /* \"#utility.yul\":5005:5024   */\n  swap1\n  pop\n    /* \"#utility.yul\":4664:5030   */\n  swap2\n  swap1\n  pop\n  jump\t// out\n    /* \"#utility.yul\":5036:5455   */\ntag_23:\n    /* \"#utility.yul\":5202:5206   */\n  0x00\n    /* \"#utility.yul\":5240:5242   */\n  0x20\n    /* \"#utility.yul\":5229:5238   */\n  dup3\n    /* \"#utility.yul\":5225:5243   */\n  add\n    /* \"#utility.yul\":5217:5243   */\n  swap1\n  pop\n    /* \"#utility.yul\":5289:5298   */\n  dup2\n    /* \"#utility.yul\":5283:5287   */\n  dup2\n    /* \"#utility.yul\":5279:5299   */\n  sub\n    /* \"#utility.yul\":5275:5276   */\n  0x00\n    /* \"#utility.yul\":5264:5273   */\n  dup4\n    /* \"#utility.yul\":5260:5277   */\n  add\n    /* \"#utility.yul\":5253:5300   */\n  mstore\n    /* \"#utility.yul\":5317:5448   */\n  tag_96\n    /* \"#utility.yul\":5443:5447   */\n  dup2\n    /* \"#utility.yul\":5317:5448   */\n  tag_46\n  jump\t// in\ntag_96:\n    /* \"#utility.yul\":5309:5448   */\n  swap1\n  pop\n    /* \"#utility.yul\":5036:5455   */\n  swap2\n  swap1\n  pop\n  jump\t// out\n    /* \"#utility.yul\":5461:5631   */\ntag_47:\n    /* \"#utility.yul\":5601:5623   */\n  0x66656550657263656e74206d6178203130303030000000000000000000000000\n    /* \"#utility.yul\":5597:5598   */\n  0x00\n    /* \"#utility.yul\":5589:5595   */\n  dup3\n    /* \"#utility.yul\":5585:5599   */\n  add\n    /* \"#utility.yul\":5578:5624   */\n  mstore\n    /* \"#utility.yul\":5461:5631   */\n  pop\n  jump\t// out\n    /* \"#utility.yul\":5637:6003   */\ntag_48:\n    /* \"#utility.yul\":5779:5782   */\n  0x00\n    /* \"#utility.yul\":5800:5867   */\n  tag_99\n    /* \"#utility.yul\":5864:5866   */\n  0x14\n    /* \"#utility.yul\":5859:5862   */\n  dup4\n    /* \"#utility.yul\":5800:5867   */\n  tag_40\n  jump\t// in\ntag_99:\n    /* \"#utility.yul\":5793:5867   */\n  swap2\n  pop\n    /* \"#utility.yul\":5876:5969   */\n  tag_100\n    /* \"#utility.yul\":5965:5968   */\n  dup3\n    /* \"#utility.yul\":5876:5969   */\n  tag_47\n  jump\t// in\ntag_100:\n    /* \"#utility.yul\":5994:5996   */\n  0x20\n    /* \"#utility.yul\":5989:5992   */\n  dup3\n    /* \"#utility.yul\":5985:5997   */\n  add\n    /* \"#utility.yul\":5978:5997   */\n  swap1\n  pop\n    /* \"#utility.yul\":5637:6003   */\n  swap2\n  swap1\n  pop\n  jump\t// out\n    /* \"#utility.yul\":6009:6428   */\ntag_26:\n    /* \"#utility.yul\":6175:6179   */\n  0x00\n    /* \"#utility.yul\":6213:6215   */\n  0x20\n    /* \"#utility.yul\":6202:6211   */\n  dup3\n    /* \"#utility.yul\":6198:6216   */\n  add\n    /* \"#utility.yul\":6190:6216   */\n  swap1\n  pop\n    /* \"#utility.yul\":6262:6271   */\n  dup2\n    /* \"#utility.yul\":6256:6260   */\n  dup2\n    /* \"#utility.yul\":6252:6272   */\n  sub\n    /* \"#utility.yul\":6248:6249   */\n  0x00\n    /* \"#utility.yul\":6237:6246   */\n  dup4\n    /* \"#utility.yul\":6233:6250   */\n  add\n    /* \"#utility.yul\":6226:6273   */\n  mstore\n    /* \"#utility.yul\":6290:6421   */\n  tag_102\n    /* \"#utility.yul\":6416:6420   */\n  dup2\n    /* \"#utility.yul\":6290:6421   */\n  tag_48\n  jump\t// in\ntag_102:\n    /* \"#utility.yul\":6282:6421   */\n  swap1\n  pop\n    /* \"#utility.yul\":6009:6428   */\n  swap2\n  swap1\n  pop\n  jump\t// out\n    /* \"Marketplace_NFT.sol\":420:5720  contract SavePointMarketplace is Ownable, ReentrancyGuard {... */\ntag_27:\n  dataSize(sub_0)\n  dup1\n  dataOffset(sub_0)\n  0x00\n  codecopy\n  0x00\n  return\nstop\n\nsub_0: assembly {\n        /* \"Marketplace_NFT.sol\":420:5720  contract SavePointMarketplace is Ownable, ReentrancyGuard {... */\n      mstore(0x40, 0x80)\n      callvalue\n      dup1\n      iszero\n      tag_1\n      jumpi\n      revert(0x00, 0x00)\n    tag_1:\n      pop\n      jumpi(tag_2, lt(calldatasize, 0x04))\n      shr(0xe0, calldataload(0x00))\n      dup1\n      0x80df50a8\n      gt\n      tag_19\n      jumpi\n      dup1\n      0xc415b95c\n      gt\n      tag_20\n      jumpi\n      dup1\n      0xc415b95c\n      eq\n      tag_15\n      jumpi\n      dup1\n      0xcb917b9c\n      eq\n      tag_16\n      jumpi\n      dup1\n      0xde74e57b\n      eq\n      tag_17\n      jumpi\n      dup1\n      0xf2fde38b\n      eq\n      tag_18\n      jumpi\n      jump(tag_2)\n    tag_20:\n      dup1\n      0x80df50a8\n      eq\n      tag_11\n      jumpi\n      dup1\n      0x8da5cb5b\n      eq\n      tag_12\n      jumpi\n      dup1\n      0xa42dce80\n      eq\n      tag_13\n      jumpi\n      dup1\n      0xc0f6ae97\n      eq\n      tag_14\n      jumpi\n      jump(tag_2)\n    tag_19:\n      dup1\n      0x6a326ab1\n      gt\n      tag_21\n      jumpi\n      dup1\n      0x6a326ab1\n      eq\n      tag_7\n      jumpi\n      dup1\n      0x715018a6\n      eq\n      tag_8\n      jumpi\n      dup1\n      0x7ce3489b\n      eq\n      tag_9\n      jumpi\n      dup1\n      0x7fd6f15c\n      eq\n      tag_10\n      jumpi\n      jump(tag_2)\n    tag_21:\n      dup1\n      0x3013ce29\n      eq\n      tag_3\n      jumpi\n      dup1\n      0x3ae6064b\n      eq\n      tag_4\n      jumpi\n      dup1\n      0x4e9b8c5d\n      eq\n      tag_5\n      jumpi\n      dup1\n      0x51ed8288\n      eq\n      tag_6\n      jumpi\n    tag_2:\n      revert(0x00, 0x00)\n        /* \"Marketplace_NFT.sol\":517:543  IERC20 public paymentToken */\n    tag_3:\n      tag_22\n      tag_23\n      jump\t// in\n    tag_22:\n      mload(0x40)\n      tag_24\n      swap2\n      swap1\n      tag_25\n      jump\t// in\n    tag_24:\n      mload(0x40)\n      dup1\n      swap2\n      sub\n      swap1\n      return\n        /* \"Marketplace_NFT.sol\":2930:4303  function listNFT(address nftContract, uint256 tokenId, uint256 amount, uint256 price, bool isERC1155) external nonReentrant {... */\n    tag_4:\n      tag_26\n      0x04\n      dup1\n      calldatasize\n      sub\n      dup2\n      add\n      swap1\n      tag_27\n      swap2\n      swap1\n      tag_28\n      jump\t// in\n    tag_27:\n      tag_29\n      jump\t// in\n    tag_26:\n      stop\n        /* \"Marketplace_NFT.sol\":5590:5718  function isAllowedNFT(address nftContract) external view returns (bool) {... */\n    tag_5:\n      tag_30\n      0x04\n      dup1\n      calldatasize\n      sub\n      dup2\n      add\n      swap1\n      tag_31\n      swap2\n      swap1\n      tag_32\n      jump\t// in\n    tag_31:\n      tag_33\n      jump\t// in\n    tag_30:\n      mload(0x40)\n      tag_34\n      swap2\n      swap1\n      tag_35\n      jump\t// in\n    tag_34:\n      mload(0x40)\n      dup1\n      swap2\n      sub\n      swap1\n      return\n        /* \"Marketplace_NFT.sol\":4652:5532  function buyNFT(uint256 listingId) external nonReentrant {... */\n    tag_6:\n      tag_36\n      0x04\n      dup1\n      calldatasize\n      sub\n      dup2\n      add\n      swap1\n      tag_37\n      swap2\n      swap1\n      tag_38\n      jump\t// in\n    tag_37:\n      tag_39\n      jump\t// in\n    tag_36:\n      stop\n        /* \"Marketplace_NFT.sol\":2231:2410  function setPaymentToken(address _paymentToken) external onlyOwner {... */\n    tag_7:\n      tag_40\n      0x04\n      dup1\n      calldatasize\n      sub\n      dup2\n      add\n      swap1\n      tag_41\n      swap2\n      swap1\n      tag_32\n      jump\t// in\n    tag_41:\n      tag_42\n      jump\t// in\n    tag_40:\n      stop\n        /* \"@openzeppelin/contracts/access/Ownable.sol\":2293:2394  function renounceOwnership() public virtual onlyOwner {... */\n    tag_8:\n      tag_43\n      tag_44\n      jump\t// in\n    tag_43:\n      stop\n        /* \"Marketplace_NFT.sol\":2593:2749  function setFeePercent(uint256 _feePercent) external onlyOwner {... */\n    tag_9:\n      tag_45\n      0x04\n      dup1\n      calldatasize\n      sub\n      dup2\n      add\n      swap1\n      tag_46\n      swap2\n      swap1\n      tag_38\n      jump\t// in\n    tag_46:\n      tag_47\n      jump\t// in\n    tag_45:\n      stop\n        /* \"Marketplace_NFT.sol\":624:649  uint256 public feePercent */\n    tag_10:\n      tag_48\n      tag_49\n      jump\t// in\n    tag_48:\n      mload(0x40)\n      tag_50\n      swap2\n      swap1\n      tag_51\n      jump\t// in\n    tag_50:\n      mload(0x40)\n      dup1\n      swap2\n      sub\n      swap1\n      return\n        /* \"Marketplace_NFT.sol\":2755:2899  function setAllowedNFTContract(address nftContract, bool allowed) external onlyOwner {... */\n    tag_11:\n      tag_52\n      0x04\n      dup1\n      calldatasize\n      sub\n      dup2\n      add\n      swap1\n      tag_53\n      swap2\n      swap1\n      tag_54\n      jump\t// in\n    tag_53:\n      tag_55\n      jump\t// in\n    tag_52:\n      stop\n        /* \"@openzeppelin/contracts/access/Ownable.sol\":1638:1723  function owner() public view virtual returns (address) {... */\n    tag_12:\n      tag_56\n      tag_57\n      jump\t// in\n    tag_56:\n      mload(0x40)\n      tag_58\n      swap2\n      swap1\n      tag_59\n      jump\t// in\n    tag_58:\n      mload(0x40)\n      dup1\n      swap2\n      sub\n      swap1\n      return\n        /* \"Marketplace_NFT.sol\":2416:2587  function setFeeCollector(address _feeCollector) external onlyOwner {... */\n    tag_13:\n      tag_60\n      0x04\n      dup1\n      calldatasize\n      sub\n      dup2\n      add\n      swap1\n      tag_61\n      swap2\n      swap1\n      tag_32\n      jump\t// in\n    tag_61:\n      tag_62\n      jump\t// in\n    tag_60:\n      stop\n        /* \"Marketplace_NFT.sol\":760:811  mapping(address => bool) public allowedNFTContracts */\n    tag_14:\n      tag_63\n      0x04\n      dup1\n      calldatasize\n      sub\n      dup2\n      add\n      swap1\n      tag_64\n      swap2\n      swap1\n      tag_32\n      jump\t// in\n    tag_64:\n      tag_65\n      jump\t// in\n    tag_63:\n      mload(0x40)\n      tag_66\n      swap2\n      swap1\n      tag_35\n      jump\t// in\n    tag_66:\n      mload(0x40)\n      dup1\n      swap2\n      sub\n      swap1\n      return\n        /* \"Marketplace_NFT.sol\":567:594  address public feeCollector */\n    tag_15:\n      tag_67\n      tag_68\n      jump\t// in\n    tag_67:\n      mload(0x40)\n      tag_69\n      swap2\n      swap1\n      tag_59\n      jump\t// in\n    tag_69:\n      mload(0x40)\n      dup1\n      swap2\n      sub\n      swap1\n      return\n        /* \"Marketplace_NFT.sol\":4331:4614  function delistNFT(uint256 listingId) external nonReentrant {... */\n    tag_16:\n      tag_70\n      0x04\n      dup1\n      calldatasize\n      sub\n      dup2\n      add\n      swap1\n      tag_71\n      swap2\n      swap1\n      tag_38\n      jump\t// in\n    tag_71:\n      tag_72\n      jump\t// in\n    tag_70:\n      stop\n        /* \"Marketplace_NFT.sol\":1237:1280  mapping(uint256 => Listing) public listings */\n    tag_17:\n      tag_73\n      0x04\n      dup1\n      calldatasize\n      sub\n      dup2\n      add\n      swap1\n      tag_74\n      swap2\n      swap1\n      tag_38\n      jump\t// in\n    tag_74:\n      tag_75\n      jump\t// in\n    tag_73:\n      mload(0x40)\n      tag_76\n      swap8\n      swap7\n      swap6\n      swap5\n      swap4\n      swap3\n      swap2\n      swap1\n      tag_77\n      jump\t// in\n    tag_76:\n      mload(0x40)\n      dup1\n      swap2\n      sub\n      swap1\n      return\n        /* \"@openzeppelin/contracts/access/Ownable.sol\":2543:2758  function transferOwnership(address newOwner) public virtual onlyOwner {... */\n    tag_18:\n      tag_78\n      0x04\n      dup1\n      calldatasize\n      sub\n      dup2\n      add\n      swap1\n      tag_79\n      swap2\n      swap1\n      tag_32\n      jump\t// in\n    tag_79:\n      tag_80\n      jump\t// in\n    tag_78:\n      stop\n        /* \"Marketplace_NFT.sol\":517:543  IERC20 public paymentToken */\n    tag_23:\n      0x02\n      0x00\n      swap1\n      sload\n      swap1\n      0x0100\n      exp\n      swap1\n      div\n      0xffffffffffffffffffffffffffffffffffffffff\n      and\n      dup2\n      jump\t// out\n        /* \"Marketplace_NFT.sol\":2930:4303  function listNFT(address nftContract, uint256 tokenId, uint256 amount, uint256 price, bool isERC1155) external nonReentrant {... */\n    tag_29:\n        /* \"@openzeppelin/contracts/security/ReentrancyGuard.sol\":2261:2282  _nonReentrantBefore() */\n      tag_82\n        /* \"@openzeppelin/contracts/security/ReentrancyGuard.sol\":2261:2280  _nonReentrantBefore */\n      tag_83\n        /* \"@openzeppelin/contracts/security/ReentrancyGuard.sol\":2261:2282  _nonReentrantBefore() */\n      jump\t// in\n    tag_82:\n        /* \"Marketplace_NFT.sol\":3072:3091  allowedNFTContracts */\n      0x05\n        /* \"Marketplace_NFT.sol\":3072:3104  allowedNFTContracts[nftContract] */\n      0x00\n        /* \"Marketplace_NFT.sol\":3092:3103  nftContract */\n      dup7\n        /* \"Marketplace_NFT.sol\":3072:3104  allowedNFTContracts[nftContract] */\n      0xffffffffffffffffffffffffffffffffffffffff\n      and\n      0xffffffffffffffffffffffffffffffffffffffff\n      and\n      dup2\n      mstore\n      0x20\n      add\n      swap1\n      dup2\n      mstore\n      0x20\n      add\n      0x00\n      keccak256\n      0x00\n      swap1\n      sload\n      swap1\n      0x0100\n      exp\n      swap1\n      div\n      0xff\n      and\n        /* \"Marketplace_NFT.sol\":3064:3133  require(allowedNFTContracts[nftContract], \"NFT contract not allowed\") */\n      tag_85\n      jumpi\n      mload(0x40)\n      0x08c379a000000000000000000000000000000000000000000000000000000000\n      dup2\n      mstore\n      0x04\n      add\n      tag_86\n      swap1\n      tag_87\n      jump\t// in\n    tag_86:\n      mload(0x40)\n      dup1\n      swap2\n      sub\n      swap1\n      revert\n    tag_85:\n        /* \"Marketplace_NFT.sol\":3159:3160  0 */\n      0x00\n        /* \"Marketplace_NFT.sol\":3151:3156  price */\n      dup3\n        /* \"Marketplace_NFT.sol\":3151:3160  price > 0 */\n      gt\n        /* \"Marketplace_NFT.sol\":3143:3175  require(price > 0, \"price zero\") */\n      tag_88\n      jumpi\n      mload(0x40)\n      0x08c379a000000000000000000000000000000000000000000000000000000000\n      dup2\n      mstore\n      0x04\n      add\n      tag_89\n      swap1\n      tag_90\n      jump\t// in\n    tag_89:\n      mload(0x40)\n      dup1\n      swap2\n      sub\n      swap1\n      revert\n    tag_88:\n        /* \"Marketplace_NFT.sol\":3190:3199  isERC1155 */\n      dup1\n        /* \"Marketplace_NFT.sol\":3186:3886  if (isERC1155) {... */\n      iszero\n      tag_91\n      jumpi\n        /* \"Marketplace_NFT.sol\":3232:3233  0 */\n      0x00\n        /* \"Marketplace_NFT.sol\":3223:3229  amount */\n      dup4\n        /* \"Marketplace_NFT.sol\":3223:3233  amount > 0 */\n      gt\n        /* \"Marketplace_NFT.sol\":3215:3249  require(amount > 0, \"amount zero\") */\n      tag_92\n      jumpi\n      mload(0x40)\n      0x08c379a000000000000000000000000000000000000000000000000000000000\n      dup2\n      mstore\n      0x04\n      add\n      tag_93\n      swap1\n      tag_94\n      jump\t// in\n    tag_93:\n      mload(0x40)\n      dup1\n      swap2\n      sub\n      swap1\n      revert\n    tag_92:\n        /* \"Marketplace_NFT.sol\":3307:3323  IERC1155 erc1155 */\n      0x00\n        /* \"Marketplace_NFT.sol\":3335:3346  nftContract */\n      dup6\n        /* \"Marketplace_NFT.sol\":3307:3347  IERC1155 erc1155 = IERC1155(nftContract) */\n      swap1\n      pop\n        /* \"Marketplace_NFT.sol\":3411:3417  amount */\n      dup4\n        /* \"Marketplace_NFT.sol\":3369:3376  erc1155 */\n      dup2\n        /* \"Marketplace_NFT.sol\":3369:3386  erc1155.balanceOf */\n      0xffffffffffffffffffffffffffffffffffffffff\n      and\n      0xfdd58e\n        /* \"Marketplace_NFT.sol\":3387:3397  msg.sender */\n      caller\n        /* \"Marketplace_NFT.sol\":3399:3406  tokenId */\n      dup9\n        /* \"Marketplace_NFT.sol\":3369:3407  erc1155.balanceOf(msg.sender, tokenId) */\n      mload(0x40)\n      dup4\n      0xffffffff\n      and\n      0xe0\n      shl\n      dup2\n      mstore\n      0x04\n      add\n      tag_95\n      swap3\n      swap2\n      swap1\n      tag_96\n      jump\t// in\n    tag_95:\n      0x20\n      mload(0x40)\n      dup1\n      dup4\n      sub\n      dup2\n      dup7\n      gas\n      staticcall\n      iszero\n      dup1\n      iszero\n      tag_98\n      jumpi\n      returndatacopy(0x00, 0x00, returndatasize)\n      revert(0x00, returndatasize)\n    tag_98:\n      pop\n      pop\n      pop\n      pop\n      mload(0x40)\n      returndatasize\n      not(0x1f)\n      0x1f\n      dup3\n      add\n      and\n      dup3\n      add\n      dup1\n      0x40\n      mstore\n      pop\n      dup2\n      add\n      swap1\n      tag_99\n      swap2\n      swap1\n      tag_100\n      jump\t// in\n    tag_99:\n        /* \"Marketplace_NFT.sol\":3369:3417  erc1155.balanceOf(msg.sender, tokenId) >= amount */\n      lt\n      iszero\n        /* \"Marketplace_NFT.sol\":3361:3442  require(erc1155.balanceOf(msg.sender, tokenId) >= amount, \"insufficient balance\") */\n      tag_101\n      jumpi\n      mload(0x40)\n      0x08c379a000000000000000000000000000000000000000000000000000000000\n      dup2\n      mstore\n      0x04\n      add\n      tag_102\n      swap1\n      tag_103\n      jump\t// in\n    tag_102:\n      mload(0x40)\n      dup1\n      swap2\n      sub\n      swap1\n      revert\n    tag_101:\n        /* \"Marketplace_NFT.sol\":3464:3471  erc1155 */\n      dup1\n        /* \"Marketplace_NFT.sol\":3464:3488  erc1155.isApprovedForAll */\n      0xffffffffffffffffffffffffffffffffffffffff\n      and\n      0xe985e9c5\n        /* \"Marketplace_NFT.sol\":3489:3499  msg.sender */\n      caller\n        /* \"Marketplace_NFT.sol\":3509:3513  this */\n      address\n        /* \"Marketplace_NFT.sol\":3464:3515  erc1155.isApprovedForAll(msg.sender, address(this)) */\n      mload(0x40)\n      dup4\n      0xffffffff\n      and\n      0xe0\n      shl\n      dup2\n      mstore\n      0x04\n      add\n      tag_104\n      swap3\n      swap2\n      swap1\n      tag_105\n      jump\t// in\n    tag_104:\n      0x20\n      mload(0x40)\n      dup1\n      dup4\n      sub\n      dup2\n      dup7\n      gas\n      staticcall\n      iszero\n      dup1\n      iszero\n      tag_107\n      jumpi\n      returndatacopy(0x00, 0x00, returndatasize)\n      revert(0x00, returndatasize)\n    tag_107:\n      pop\n      pop\n      pop\n      pop\n      mload(0x40)\n      returndatasize\n      not(0x1f)\n      0x1f\n      dup3\n      add\n      and\n      dup3\n      add\n      dup1\n      0x40\n      mstore\n      pop\n      dup2\n      add\n      swap1\n      tag_108\n      swap2\n      swap1\n      tag_109\n      jump\t// in\n    tag_108:\n        /* \"Marketplace_NFT.sol\":3456:3532  require(erc1155.isApprovedForAll(msg.sender, address(this)), \"not approved\") */\n      tag_110\n      jumpi\n      mload(0x40)\n      0x08c379a000000000000000000000000000000000000000000000000000000000\n      dup2\n      mstore\n      0x04\n      add\n      tag_111\n      swap1\n      tag_112\n      jump\t// in\n    tag_111:\n      mload(0x40)\n      dup1\n      swap2\n      sub\n      swap1\n      revert\n    tag_110:\n        /* \"Marketplace_NFT.sol\":3201:3543  {... */\n      pop\n        /* \"Marketplace_NFT.sol\":3186:3886  if (isERC1155) {... */\n      jump(tag_113)\n    tag_91:\n        /* \"Marketplace_NFT.sol\":3581:3582  1 */\n      0x01\n        /* \"Marketplace_NFT.sol\":3571:3577  amount */\n      dup4\n        /* \"Marketplace_NFT.sol\":3571:3582  amount == 1 */\n      eq\n        /* \"Marketplace_NFT.sol\":3563:3614  require(amount == 1, \"amount must be 1 for ERC721\") */\n      tag_114\n      jumpi\n      mload(0x40)\n      0x08c379a000000000000000000000000000000000000000000000000000000000\n      dup2\n      mstore\n      0x04\n      add\n      tag_115\n      swap1\n      tag_116\n      jump\t// in\n    tag_115:\n      mload(0x40)\n      dup1\n      swap2\n      sub\n      swap1\n      revert\n    tag_114:\n        /* \"Marketplace_NFT.sol\":3628:3642  IERC721 erc721 */\n      0x00\n        /* \"Marketplace_NFT.sol\":3653:3664  nftContract */\n      dup6\n        /* \"Marketplace_NFT.sol\":3628:3665  IERC721 erc721 = IERC721(nftContract) */\n      swap1\n      pop\n        /* \"Marketplace_NFT.sol\":3714:3724  msg.sender */\n      caller\n        /* \"Marketplace_NFT.sol\":3687:3724  erc721.ownerOf(tokenId) == msg.sender */\n      0xffffffffffffffffffffffffffffffffffffffff\n      and\n        /* \"Marketplace_NFT.sol\":3687:3693  erc721 */\n      dup2\n        /* \"Marketplace_NFT.sol\":3687:3701  erc721.ownerOf */\n      0xffffffffffffffffffffffffffffffffffffffff\n      and\n      0x6352211e\n        /* \"Marketplace_NFT.sol\":3702:3709  tokenId */\n      dup8\n        /* \"Marketplace_NFT.sol\":3687:3710  erc721.ownerOf(tokenId) */\n      mload(0x40)\n      dup3\n      0xffffffff\n      and\n      0xe0\n      shl\n      dup2\n      mstore\n      0x04\n      add\n      tag_117\n      swap2\n      swap1\n      tag_51\n      jump\t// in\n    tag_117:\n      0x20\n      mload(0x40)\n      dup1\n      dup4\n      sub\n      dup2\n      dup7\n      gas\n      staticcall\n      iszero\n      dup1\n      iszero\n      tag_119\n      jumpi\n      returndatacopy(0x00, 0x00, returndatasize)\n      revert(0x00, returndatasize)\n    tag_119:\n      pop\n      pop\n      pop\n      pop\n      mload(0x40)\n      returndatasize\n      not(0x1f)\n      0x1f\n      dup3\n      add\n      and\n      dup3\n      add\n      dup1\n      0x40\n      mstore\n      pop\n      dup2\n      add\n      swap1\n      tag_120\n      swap2\n      swap1\n      tag_121\n      jump\t// in\n    tag_120:\n        /* \"Marketplace_NFT.sol\":3687:3724  erc721.ownerOf(tokenId) == msg.sender */\n      0xffffffffffffffffffffffffffffffffffffffff\n      and\n      eq\n        /* \"Marketplace_NFT.sol\":3679:3738  require(erc721.ownerOf(tokenId) == msg.sender, \"not owner\") */\n      tag_122\n      jumpi\n      mload(0x40)\n      0x08c379a000000000000000000000000000000000000000000000000000000000\n      dup2\n      mstore\n      0x04\n      add\n      tag_123\n      swap1\n      tag_124\n      jump\t// in\n    tag_123:\n      mload(0x40)\n      dup1\n      swap2\n      sub\n      swap1\n      revert\n    tag_122:\n        /* \"Marketplace_NFT.sol\":3760:3766  erc721 */\n      dup1\n        /* \"Marketplace_NFT.sol\":3760:3783  erc721.isApprovedForAll */\n      0xffffffffffffffffffffffffffffffffffffffff\n      and\n      0xe985e9c5\n        /* \"Marketplace_NFT.sol\":3784:3794  msg.sender */\n      caller\n        /* \"Marketplace_NFT.sol\":3804:3808  this */\n      address\n        /* \"Marketplace_NFT.sol\":3760:3810  erc721.isApprovedForAll(msg.sender, address(this)) */\n      mload(0x40)\n      dup4\n      0xffffffff\n      and\n      0xe0\n      shl\n      dup2\n      mstore\n      0x04\n      add\n      tag_125\n      swap3\n      swap2\n      swap1\n      tag_105\n      jump\t// in\n    tag_125:\n      0x20\n      mload(0x40)\n      dup1\n      dup4\n      sub\n      dup2\n      dup7\n      gas\n      staticcall\n      iszero\n      dup1\n      iszero\n      tag_127\n      jumpi\n      returndatacopy(0x00, 0x00, returndatasize)\n      revert(0x00, returndatasize)\n    tag_127:\n      pop\n      pop\n      pop\n      pop\n      mload(0x40)\n      returndatasize\n      not(0x1f)\n      0x1f\n      dup3\n      add\n      and\n      dup3\n      add\n      dup1\n      0x40\n      mstore\n      pop\n      dup2\n      add\n      swap1\n      tag_128\n      swap2\n      swap1\n      tag_109\n      jump\t// in\n    tag_128:\n        /* \"Marketplace_NFT.sol\":3760:3858  erc721.isApprovedForAll(msg.sender, address(this)) || erc721.getApproved(tokenId) == address(this) */\n      dup1\n      tag_129\n      jumpi\n      pop\n        /* \"Marketplace_NFT.sol\":3853:3857  this */\n      address\n        /* \"Marketplace_NFT.sol\":3814:3858  erc721.getApproved(tokenId) == address(this) */\n      0xffffffffffffffffffffffffffffffffffffffff\n      and\n        /* \"Marketplace_NFT.sol\":3814:3820  erc721 */\n      dup2\n        /* \"Marketplace_NFT.sol\":3814:3832  erc721.getApproved */\n      0xffffffffffffffffffffffffffffffffffffffff\n      and\n      0x081812fc\n        /* \"Marketplace_NFT.sol\":3833:3840  tokenId */\n      dup8\n        /* \"Marketplace_NFT.sol\":3814:3841  erc721.getApproved(tokenId) */\n      mload(0x40)\n      dup3\n      0xffffffff\n      and\n      0xe0\n      shl\n      dup2\n      mstore\n      0x04\n      add\n      tag_130\n      swap2\n      swap1\n      tag_51\n      jump\t// in\n    tag_130:\n      0x20\n      mload(0x40)\n      dup1\n      dup4\n      sub\n      dup2\n      dup7\n      gas\n      staticcall\n      iszero\n      dup1\n      iszero\n      tag_132\n      jumpi\n      returndatacopy(0x00, 0x00, returndatasize)\n      revert(0x00, returndatasize)\n    tag_132:\n      pop\n      pop\n      pop\n      pop\n      mload(0x40)\n      returndatasize\n      not(0x1f)\n      0x1f\n      dup3\n      add\n      and\n      dup3\n      add\n      dup1\n      0x40\n      mstore\n      pop\n      dup2\n      add\n      swap1\n      tag_133\n      swap2\n      swap1\n      tag_121\n      jump\t// in\n    tag_133:\n        /* \"Marketplace_NFT.sol\":3814:3858  erc721.getApproved(tokenId) == address(this) */\n      0xffffffffffffffffffffffffffffffffffffffff\n      and\n      eq\n        /* \"Marketplace_NFT.sol\":3760:3858  erc721.isApprovedForAll(msg.sender, address(this)) || erc721.getApproved(tokenId) == address(this) */\n    tag_129:\n        /* \"Marketplace_NFT.sol\":3752:3875  require(erc721.isApprovedForAll(msg.sender, address(this)) || erc721.getApproved(tokenId) == address(this), \"not approved\") */\n      tag_134\n      jumpi\n      mload(0x40)\n      0x08c379a000000000000000000000000000000000000000000000000000000000\n      dup2\n      mstore\n      0x04\n      add\n      tag_135\n      swap1\n      tag_112\n      jump\t// in\n    tag_135:\n      mload(0x40)\n      dup1\n      swap2\n      sub\n      swap1\n      revert\n    tag_134:\n        /* \"Marketplace_NFT.sol\":3549:3886  {... */\n      pop\n        /* \"Marketplace_NFT.sol\":3186:3886  if (isERC1155) {... */\n    tag_113:\n        /* \"Marketplace_NFT.sol\":3896:3913  uint256 listingId */\n      0x00\n        /* \"Marketplace_NFT.sol\":3916:3933  _listingIdCounter */\n      0x06\n      0x00\n        /* \"Marketplace_NFT.sol\":3916:3935  _listingIdCounter++ */\n      dup2\n      sload\n      dup1\n      swap3\n      swap2\n      swap1\n      tag_136\n      swap1\n      tag_137\n      jump\t// in\n    tag_136:\n      swap2\n      swap1\n      pop\n      sstore\n        /* \"Marketplace_NFT.sol\":3896:3935  uint256 listingId = _listingIdCounter++ */\n      swap1\n      pop\n        /* \"Marketplace_NFT.sol\":3967:4200  Listing({... */\n      mload(0x40)\n      dup1\n      0xe0\n      add\n      0x40\n      mstore\n      dup1\n        /* \"Marketplace_NFT.sol\":3997:4007  msg.sender */\n      caller\n        /* \"Marketplace_NFT.sol\":3967:4200  Listing({... */\n      0xffffffffffffffffffffffffffffffffffffffff\n      and\n      dup2\n      mstore\n      0x20\n      add\n        /* \"Marketplace_NFT.sol\":4034:4045  nftContract */\n      dup8\n        /* \"Marketplace_NFT.sol\":3967:4200  Listing({... */\n      0xffffffffffffffffffffffffffffffffffffffff\n      and\n      dup2\n      mstore\n      0x20\n      add\n        /* \"Marketplace_NFT.sol\":4068:4075  tokenId */\n      dup7\n        /* \"Marketplace_NFT.sol\":3967:4200  Listing({... */\n      dup2\n      mstore\n      0x20\n      add\n        /* \"Marketplace_NFT.sol\":4097:4103  amount */\n      dup6\n        /* \"Marketplace_NFT.sol\":3967:4200  Listing({... */\n      dup2\n      mstore\n      0x20\n      add\n        /* \"Marketplace_NFT.sol\":4124:4129  price */\n      dup5\n        /* \"Marketplace_NFT.sol\":3967:4200  Listing({... */\n      dup2\n      mstore\n      0x20\n      add\n        /* \"Marketplace_NFT.sol\":4154:4163  isERC1155 */\n      dup4\n        /* \"Marketplace_NFT.sol\":3967:4200  Listing({... */\n      iszero\n      iszero\n      dup2\n      mstore\n      0x20\n      add\n        /* \"Marketplace_NFT.sol\":4185:4189  true */\n      0x01\n        /* \"Marketplace_NFT.sol\":3967:4200  Listing({... */\n      iszero\n      iszero\n      dup2\n      mstore\n      pop\n        /* \"Marketplace_NFT.sol\":3945:3953  listings */\n      0x07\n        /* \"Marketplace_NFT.sol\":3945:3964  listings[listingId] */\n      0x00\n        /* \"Marketplace_NFT.sol\":3954:3963  listingId */\n      dup4\n        /* \"Marketplace_NFT.sol\":3945:3964  listings[listingId] */\n      dup2\n      mstore\n      0x20\n      add\n      swap1\n      dup2\n      mstore\n      0x20\n      add\n      0x00\n      keccak256\n        /* \"Marketplace_NFT.sol\":3945:4200  listings[listingId] = Listing({... */\n      0x00\n      dup3\n      add\n      mload\n      dup2\n      0x00\n      add\n      exp(0x0100, 0x00)\n      dup2\n      sload\n      dup2\n      0xffffffffffffffffffffffffffffffffffffffff\n      mul\n      not\n      and\n      swap1\n      dup4\n      0xffffffffffffffffffffffffffffffffffffffff\n      and\n      mul\n      or\n      swap1\n      sstore\n      pop\n      0x20\n      dup3\n      add\n      mload\n      dup2\n      0x01\n      add\n      exp(0x0100, 0x00)\n      dup2\n      sload\n      dup2\n      0xffffffffffffffffffffffffffffffffffffffff\n      mul\n      not\n      and\n      swap1\n      dup4\n      0xffffffffffffffffffffffffffffffffffffffff\n      and\n      mul\n      or\n      swap1\n      sstore\n      pop\n      0x40\n      dup3\n      add\n      mload\n      dup2\n      0x02\n      add\n      sstore\n      0x60\n      dup3\n      add\n      mload\n      dup2\n      0x03\n      add\n      sstore\n      0x80\n      dup3\n      add\n      mload\n      dup2\n      0x04\n      add\n      sstore\n      0xa0\n      dup3\n      add\n      mload\n      dup2\n      0x05\n      add\n      exp(0x0100, 0x00)\n      dup2\n      sload\n      dup2\n      0xff\n      mul\n      not\n      and\n      swap1\n      dup4\n      iszero\n      iszero\n      mul\n      or\n      swap1\n      sstore\n      pop\n      0xc0\n      dup3\n      add\n      mload\n      dup2\n      0x05\n      add\n      exp(0x0100, 0x01)\n      dup2\n      sload\n      dup2\n      0xff\n      mul\n      not\n      and\n      swap1\n      dup4\n      iszero\n      iszero\n      mul\n      or\n      swap1\n      sstore\n      pop\n      swap1\n      pop\n      pop\n        /* \"Marketplace_NFT.sol\":4249:4260  nftContract */\n      dup6\n        /* \"Marketplace_NFT.sol\":4216:4296  NFTListed(listingId, msg.sender, nftContract, tokenId, amount, price, isERC1155) */\n      0xffffffffffffffffffffffffffffffffffffffff\n      and\n        /* \"Marketplace_NFT.sol\":4237:4247  msg.sender */\n      caller\n        /* \"Marketplace_NFT.sol\":4216:4296  NFTListed(listingId, msg.sender, nftContract, tokenId, amount, price, isERC1155) */\n      0xffffffffffffffffffffffffffffffffffffffff\n      and\n        /* \"Marketplace_NFT.sol\":4226:4235  listingId */\n      dup3\n        /* \"Marketplace_NFT.sol\":4216:4296  NFTListed(listingId, msg.sender, nftContract, tokenId, amount, price, isERC1155) */\n      0xd1ed8900afb99183d6684ef82e558ec94d3feba62cff25b765b503bd5505e09f\n        /* \"Marketplace_NFT.sol\":4262:4269  tokenId */\n      dup9\n        /* \"Marketplace_NFT.sol\":4271:4277  amount */\n      dup9\n        /* \"Marketplace_NFT.sol\":4279:4284  price */\n      dup9\n        /* \"Marketplace_NFT.sol\":4286:4295  isERC1155 */\n      dup9\n        /* \"Marketplace_NFT.sol\":4216:4296  NFTListed(listingId, msg.sender, nftContract, tokenId, amount, price, isERC1155) */\n      mload(0x40)\n      tag_138\n      swap5\n      swap4\n      swap3\n      swap2\n      swap1\n      tag_139\n      jump\t// in\n    tag_138:\n      mload(0x40)\n      dup1\n      swap2\n      sub\n      swap1\n      log4\n        /* \"Marketplace_NFT.sol\":3054:4303  {... */\n      pop\n        /* \"@openzeppelin/contracts/security/ReentrancyGuard.sol\":2303:2323  _nonReentrantAfter() */\n      tag_140\n        /* \"@openzeppelin/contracts/security/ReentrancyGuard.sol\":2303:2321  _nonReentrantAfter */\n      tag_141\n        /* \"@openzeppelin/contracts/security/ReentrancyGuard.sol\":2303:2323  _nonReentrantAfter() */\n      jump\t// in\n    tag_140:\n        /* \"Marketplace_NFT.sol\":2930:4303  function listNFT(address nftContract, uint256 tokenId, uint256 amount, uint256 price, bool isERC1155) external nonReentrant {... */\n      pop\n      pop\n      pop\n      pop\n      pop\n      jump\t// out\n        /* \"Marketplace_NFT.sol\":5590:5718  function isAllowedNFT(address nftContract) external view returns (bool) {... */\n    tag_33:\n        /* \"Marketplace_NFT.sol\":5656:5660  bool */\n      0x00\n        /* \"Marketplace_NFT.sol\":5679:5698  allowedNFTContracts */\n      0x05\n        /* \"Marketplace_NFT.sol\":5679:5711  allowedNFTContracts[nftContract] */\n      0x00\n        /* \"Marketplace_NFT.sol\":5699:5710  nftContract */\n      dup4\n        /* \"Marketplace_NFT.sol\":5679:5711  allowedNFTContracts[nftContract] */\n      0xffffffffffffffffffffffffffffffffffffffff\n      and\n      0xffffffffffffffffffffffffffffffffffffffff\n      and\n      dup2\n      mstore\n      0x20\n      add\n      swap1\n      dup2\n      mstore\n      0x20\n      add\n      0x00\n      keccak256\n      0x00\n      swap1\n      sload\n      swap1\n      0x0100\n      exp\n      swap1\n      div\n      0xff\n      and\n        /* \"Marketplace_NFT.sol\":5672:5711  return allowedNFTContracts[nftContract] */\n      swap1\n      pop\n        /* \"Marketplace_NFT.sol\":5590:5718  function isAllowedNFT(address nftContract) external view returns (bool) {... */\n      swap2\n      swap1\n      pop\n      jump\t// out\n        /* \"Marketplace_NFT.sol\":4652:5532  function buyNFT(uint256 listingId) external nonReentrant {... */\n    tag_39:\n        /* \"@openzeppelin/contracts/security/ReentrancyGuard.sol\":2261:2282  _nonReentrantBefore() */\n      tag_144\n        /* \"@openzeppelin/contracts/security/ReentrancyGuard.sol\":2261:2280  _nonReentrantBefore */\n      tag_83\n        /* \"@openzeppelin/contracts/security/ReentrancyGuard.sol\":2261:2282  _nonReentrantBefore() */\n      jump\t// in\n    tag_144:\n        /* \"Marketplace_NFT.sol\":4719:4736  Listing storage l */\n      0x00\n        /* \"Marketplace_NFT.sol\":4739:4747  listings */\n      0x07\n        /* \"Marketplace_NFT.sol\":4739:4758  listings[listingId] */\n      0x00\n        /* \"Marketplace_NFT.sol\":4748:4757  listingId */\n      dup4\n        /* \"Marketplace_NFT.sol\":4739:4758  listings[listingId] */\n      dup2\n      mstore\n      0x20\n      add\n      swap1\n      dup2\n      mstore\n      0x20\n      add\n      0x00\n      keccak256\n        /* \"Marketplace_NFT.sol\":4719:4758  Listing storage l = listings[listingId] */\n      swap1\n      pop\n        /* \"Marketplace_NFT.sol\":4776:4777  l */\n      dup1\n        /* \"Marketplace_NFT.sol\":4776:4784  l.active */\n      0x05\n      add\n      0x01\n      swap1\n      sload\n      swap1\n      0x0100\n      exp\n      swap1\n      div\n      0xff\n      and\n        /* \"Marketplace_NFT.sol\":4768:4805  require(l.active, \"listing inactive\") */\n      tag_146\n      jumpi\n      mload(0x40)\n      0x08c379a000000000000000000000000000000000000000000000000000000000\n      dup2\n      mstore\n      0x04\n      add\n      tag_147\n      swap1\n      tag_148\n      jump\t// in\n    tag_147:\n      mload(0x40)\n      dup1\n      swap2\n      sub\n      swap1\n      revert\n    tag_146:\n        /* \"Marketplace_NFT.sol\":4816:4829  uint256 price */\n      0x00\n        /* \"Marketplace_NFT.sol\":4832:4833  l */\n      dup2\n        /* \"Marketplace_NFT.sol\":4832:4839  l.price */\n      0x04\n      add\n      sload\n        /* \"Marketplace_NFT.sol\":4816:4839  uint256 price = l.price */\n      swap1\n      pop\n        /* \"Marketplace_NFT.sol\":4849:4860  uint256 fee */\n      0x00\n        /* \"Marketplace_NFT.sol\":4886:4891  10000 */\n      0x2710\n        /* \"Marketplace_NFT.sol\":4872:4882  feePercent */\n      sload(0x04)\n        /* \"Marketplace_NFT.sol\":4864:4869  price */\n      dup4\n        /* \"Marketplace_NFT.sol\":4864:4882  price * feePercent */\n      tag_149\n      swap2\n      swap1\n      tag_150\n      jump\t// in\n    tag_149:\n        /* \"Marketplace_NFT.sol\":4863:4891  (price * feePercent) / 10000 */\n      tag_151\n      swap2\n      swap1\n      tag_152\n      jump\t// in\n    tag_151:\n        /* \"Marketplace_NFT.sol\":4849:4891  uint256 fee = (price * feePercent) / 10000 */\n      swap1\n      pop\n        /* \"Marketplace_NFT.sol\":4901:4921  uint256 sellerAmount */\n      0x00\n        /* \"Marketplace_NFT.sol\":4932:4935  fee */\n      dup2\n        /* \"Marketplace_NFT.sol\":4924:4929  price */\n      dup4\n        /* \"Marketplace_NFT.sol\":4924:4935  price - fee */\n      tag_153\n      swap2\n      swap1\n      tag_154\n      jump\t// in\n    tag_153:\n        /* \"Marketplace_NFT.sol\":4901:4935  uint256 sellerAmount = price - fee */\n      swap1\n      pop\n        /* \"Marketplace_NFT.sol\":5018:5083  paymentToken.safeTransferFrom(msg.sender, l.seller, sellerAmount) */\n      tag_155\n        /* \"Marketplace_NFT.sol\":5048:5058  msg.sender */\n      caller\n        /* \"Marketplace_NFT.sol\":5060:5061  l */\n      dup6\n        /* \"Marketplace_NFT.sol\":5060:5068  l.seller */\n      0x00\n      add\n      0x00\n      swap1\n      sload\n      swap1\n      0x0100\n      exp\n      swap1\n      div\n      0xffffffffffffffffffffffffffffffffffffffff\n      and\n        /* \"Marketplace_NFT.sol\":5070:5082  sellerAmount */\n      dup4\n        /* \"Marketplace_NFT.sol\":5018:5030  paymentToken */\n      0x02\n      0x00\n      swap1\n      sload\n      swap1\n      0x0100\n      exp\n      swap1\n      div\n      0xffffffffffffffffffffffffffffffffffffffff\n      and\n        /* \"Marketplace_NFT.sol\":5018:5047  paymentToken.safeTransferFrom */\n      0xffffffffffffffffffffffffffffffffffffffff\n      and\n      tag_156\n      swap1\n        /* \"Marketplace_NFT.sol\":5018:5083  paymentToken.safeTransferFrom(msg.sender, l.seller, sellerAmount) */\n      swap4\n      swap3\n      swap2\n      swap1\n      0xffffffff\n      and\n      jump\t// in\n    tag_155:\n        /* \"Marketplace_NFT.sol\":5093:5153  paymentToken.safeTransferFrom(msg.sender, feeCollector, fee) */\n      tag_157\n        /* \"Marketplace_NFT.sol\":5123:5133  msg.sender */\n      caller\n        /* \"Marketplace_NFT.sol\":5135:5147  feeCollector */\n      0x03\n      0x00\n      swap1\n      sload\n      swap1\n      0x0100\n      exp\n      swap1\n      div\n      0xffffffffffffffffffffffffffffffffffffffff\n      and\n        /* \"Marketplace_NFT.sol\":5149:5152  fee */\n      dup5\n        /* \"Marketplace_NFT.sol\":5093:5105  paymentToken */\n      0x02\n      0x00\n      swap1\n      sload\n      swap1\n      0x0100\n      exp\n      swap1\n      div\n      0xffffffffffffffffffffffffffffffffffffffff\n      and\n        /* \"Marketplace_NFT.sol\":5093:5122  paymentToken.safeTransferFrom */\n      0xffffffffffffffffffffffffffffffffffffffff\n      and\n      tag_156\n      swap1\n        /* \"Marketplace_NFT.sol\":5093:5153  paymentToken.safeTransferFrom(msg.sender, feeCollector, fee) */\n      swap4\n      swap3\n      swap2\n      swap1\n      0xffffffff\n      and\n      jump\t// in\n    tag_157:\n        /* \"Marketplace_NFT.sol\":5213:5214  l */\n      dup4\n        /* \"Marketplace_NFT.sol\":5213:5224  l.isERC1155 */\n      0x05\n      add\n      0x00\n      swap1\n      sload\n      swap1\n      0x0100\n      exp\n      swap1\n      div\n      0xff\n      and\n        /* \"Marketplace_NFT.sol\":5209:5441  if (l.isERC1155) {... */\n      iszero\n      tag_158\n      jumpi\n        /* \"Marketplace_NFT.sol\":5249:5250  l */\n      dup4\n        /* \"Marketplace_NFT.sol\":5249:5262  l.nftContract */\n      0x01\n      add\n      0x00\n      swap1\n      sload\n      swap1\n      0x0100\n      exp\n      swap1\n      div\n      0xffffffffffffffffffffffffffffffffffffffff\n      and\n        /* \"Marketplace_NFT.sol\":5240:5280  IERC1155(l.nftContract).safeTransferFrom */\n      0xffffffffffffffffffffffffffffffffffffffff\n      and\n      0xf242432a\n        /* \"Marketplace_NFT.sol\":5281:5282  l */\n      dup6\n        /* \"Marketplace_NFT.sol\":5281:5289  l.seller */\n      0x00\n      add\n      0x00\n      swap1\n      sload\n      swap1\n      0x0100\n      exp\n      swap1\n      div\n      0xffffffffffffffffffffffffffffffffffffffff\n      and\n        /* \"Marketplace_NFT.sol\":5291:5301  msg.sender */\n      caller\n        /* \"Marketplace_NFT.sol\":5303:5304  l */\n      dup8\n        /* \"Marketplace_NFT.sol\":5303:5312  l.tokenId */\n      0x02\n      add\n      sload\n        /* \"Marketplace_NFT.sol\":5314:5315  l */\n      dup9\n        /* \"Marketplace_NFT.sol\":5314:5322  l.amount */\n      0x03\n      add\n      sload\n        /* \"Marketplace_NFT.sol\":5240:5327  IERC1155(l.nftContract).safeTransferFrom(l.seller, msg.sender, l.tokenId, l.amount, \"\") */\n      mload(0x40)\n      dup6\n      0xffffffff\n      and\n      0xe0\n      shl\n      dup2\n      mstore\n      0x04\n      add\n      tag_159\n      swap5\n      swap4\n      swap3\n      swap2\n      swap1\n      tag_160\n      jump\t// in\n    tag_159:\n      0x00\n      mload(0x40)\n      dup1\n      dup4\n      sub\n      dup2\n      0x00\n      dup8\n      dup1\n      extcodesize\n      iszero\n      dup1\n      iszero\n      tag_161\n      jumpi\n      revert(0x00, 0x00)\n    tag_161:\n      pop\n      gas\n      call\n      iszero\n      dup1\n      iszero\n      tag_163\n      jumpi\n      returndatacopy(0x00, 0x00, returndatasize)\n      revert(0x00, returndatasize)\n    tag_163:\n      pop\n      pop\n      pop\n      pop\n        /* \"Marketplace_NFT.sol\":5209:5441  if (l.isERC1155) {... */\n      jump(tag_164)\n    tag_158:\n        /* \"Marketplace_NFT.sol\":5366:5367  l */\n      dup4\n        /* \"Marketplace_NFT.sol\":5366:5379  l.nftContract */\n      0x01\n      add\n      0x00\n      swap1\n      sload\n      swap1\n      0x0100\n      exp\n      swap1\n      div\n      0xffffffffffffffffffffffffffffffffffffffff\n      and\n        /* \"Marketplace_NFT.sol\":5358:5397  IERC721(l.nftContract).safeTransferFrom */\n      0xffffffffffffffffffffffffffffffffffffffff\n      and\n      0x42842e0e\n        /* \"Marketplace_NFT.sol\":5398:5399  l */\n      dup6\n        /* \"Marketplace_NFT.sol\":5398:5406  l.seller */\n      0x00\n      add\n      0x00\n      swap1\n      sload\n      swap1\n      0x0100\n      exp\n      swap1\n      div\n      0xffffffffffffffffffffffffffffffffffffffff\n      and\n        /* \"Marketplace_NFT.sol\":5408:5418  msg.sender */\n      caller\n        /* \"Marketplace_NFT.sol\":5420:5421  l */\n      dup8\n        /* \"Marketplace_NFT.sol\":5420:5429  l.tokenId */\n      0x02\n      add\n      sload\n        /* \"Marketplace_NFT.sol\":5358:5430  IERC721(l.nftContract).safeTransferFrom(l.seller, msg.sender, l.tokenId) */\n      mload(0x40)\n      dup5\n      0xffffffff\n      and\n      0xe0\n      shl\n      dup2\n      mstore\n      0x04\n      add\n      tag_165\n      swap4\n      swap3\n      swap2\n      swap1\n      tag_166\n      jump\t// in\n    tag_165:\n      0x00\n      mload(0x40)\n      dup1\n      dup4\n      sub\n      dup2\n      0x00\n      dup8\n      dup1\n      extcodesize\n      iszero\n      dup1\n      iszero\n      tag_167\n      jumpi\n      revert(0x00, 0x00)\n    tag_167:\n      pop\n      gas\n      call\n      iszero\n      dup1\n      iszero\n      tag_169\n      jumpi\n      returndatacopy(0x00, 0x00, returndatasize)\n      revert(0x00, returndatasize)\n    tag_169:\n      pop\n      pop\n      pop\n      pop\n        /* \"Marketplace_NFT.sol\":5209:5441  if (l.isERC1155) {... */\n    tag_164:\n        /* \"Marketplace_NFT.sol\":5462:5467  false */\n      0x00\n        /* \"Marketplace_NFT.sol\":5451:5452  l */\n      dup5\n        /* \"Marketplace_NFT.sol\":5451:5459  l.active */\n      0x05\n      add\n      0x01\n        /* \"Marketplace_NFT.sol\":5451:5467  l.active = false */\n      0x0100\n      exp\n      dup2\n      sload\n      dup2\n      0xff\n      mul\n      not\n      and\n      swap1\n      dup4\n      iszero\n      iszero\n      mul\n      or\n      swap1\n      sstore\n      pop\n        /* \"Marketplace_NFT.sol\":5502:5512  msg.sender */\n      caller\n        /* \"Marketplace_NFT.sol\":5483:5525  NFTSale(listingId, msg.sender, price, fee) */\n      0xffffffffffffffffffffffffffffffffffffffff\n      and\n        /* \"Marketplace_NFT.sol\":5491:5500  listingId */\n      dup6\n        /* \"Marketplace_NFT.sol\":5483:5525  NFTSale(listingId, msg.sender, price, fee) */\n      0x041bfe3082d481c8f62f6ed145f1d8cbec0daebcb4d750ae5c42a51946551d13\n        /* \"Marketplace_NFT.sol\":5514:5519  price */\n      dup6\n        /* \"Marketplace_NFT.sol\":5521:5524  fee */\n      dup6\n        /* \"Marketplace_NFT.sol\":5483:5525  NFTSale(listingId, msg.sender, price, fee) */\n      mload(0x40)\n      tag_170\n      swap3\n      swap2\n      swap1\n      tag_171\n      jump\t// in\n    tag_170:\n      mload(0x40)\n      dup1\n      swap2\n      sub\n      swap1\n      log3\n        /* \"Marketplace_NFT.sol\":4709:5532  {... */\n      pop\n      pop\n      pop\n      pop\n        /* \"@openzeppelin/contracts/security/ReentrancyGuard.sol\":2303:2323  _nonReentrantAfter() */\n      tag_172\n        /* \"@openzeppelin/contracts/security/ReentrancyGuard.sol\":2303:2321  _nonReentrantAfter */\n      tag_141\n        /* \"@openzeppelin/contracts/security/ReentrancyGuard.sol\":2303:2323  _nonReentrantAfter() */\n      jump\t// in\n    tag_172:\n        /* \"Marketplace_NFT.sol\":4652:5532  function buyNFT(uint256 listingId) external nonReentrant {... */\n      pop\n      jump\t// out\n        /* \"Marketplace_NFT.sol\":2231:2410  function setPaymentToken(address _paymentToken) external onlyOwner {... */\n    tag_42:\n        /* \"@openzeppelin/contracts/access/Ownable.sol\":1531:1544  _checkOwner() */\n      tag_174\n        /* \"@openzeppelin/contracts/access/Ownable.sol\":1531:1542  _checkOwner */\n      tag_175\n        /* \"@openzeppelin/contracts/access/Ownable.sol\":1531:1544  _checkOwner() */\n      jump\t// in\n    tag_174:\n        /* \"Marketplace_NFT.sol\":2341:2342  0 */\n      0x00\n        /* \"Marketplace_NFT.sol\":2316:2343  _paymentToken != address(0) */\n      0xffffffffffffffffffffffffffffffffffffffff\n      and\n        /* \"Marketplace_NFT.sol\":2316:2329  _paymentToken */\n      dup2\n        /* \"Marketplace_NFT.sol\":2316:2343  _paymentToken != address(0) */\n      0xffffffffffffffffffffffffffffffffffffffff\n      and\n      sub\n        /* \"Marketplace_NFT.sol\":2308:2357  require(_paymentToken != address(0), \"zero addr\") */\n      tag_177\n      jumpi\n      mload(0x40)\n      0x08c379a000000000000000000000000000000000000000000000000000000000\n      dup2\n      mstore\n      0x04\n      add\n      tag_178\n      swap1\n      tag_179\n      jump\t// in\n    tag_178:\n      mload(0x40)\n      dup1\n      swap2\n      sub\n      swap1\n      revert\n    tag_177:\n        /* \"Marketplace_NFT.sol\":2389:2402  _paymentToken */\n      dup1\n        /* \"Marketplace_NFT.sol\":2367:2379  paymentToken */\n      0x02\n      0x00\n        /* \"Marketplace_NFT.sol\":2367:2403  paymentToken = IERC20(_paymentToken) */\n      0x0100\n      exp\n      dup2\n      sload\n      dup2\n      0xffffffffffffffffffffffffffffffffffffffff\n      mul\n      not\n      and\n      swap1\n      dup4\n      0xffffffffffffffffffffffffffffffffffffffff\n      and\n      mul\n      or\n      swap1\n      sstore\n      pop\n        /* \"Marketplace_NFT.sol\":2231:2410  function setPaymentToken(address _paymentToken) external onlyOwner {... */\n      pop\n      jump\t// out\n        /* \"@openzeppelin/contracts/access/Ownable.sol\":2293:2394  function renounceOwnership() public virtual onlyOwner {... */\n    tag_44:\n        /* \"@openzeppelin/contracts/access/Ownable.sol\":1531:1544  _checkOwner() */\n      tag_181\n        /* \"@openzeppelin/contracts/access/Ownable.sol\":1531:1542  _checkOwner */\n      tag_175\n        /* \"@openzeppelin/contracts/access/Ownable.sol\":1531:1544  _checkOwner() */\n      jump\t// in\n    tag_181:\n        /* \"@openzeppelin/contracts/access/Ownable.sol\":2357:2387  _transferOwnership(address(0)) */\n      tag_183\n        /* \"@openzeppelin/contracts/access/Ownable.sol\":2384:2385  0 */\n      0x00\n        /* \"@openzeppelin/contracts/access/Ownable.sol\":2357:2375  _transferOwnership */\n      tag_184\n        /* \"@openzeppelin/contracts/access/Ownable.sol\":2357:2387  _transferOwnership(address(0)) */\n      jump\t// in\n    tag_183:\n        /* \"@openzeppelin/contracts/access/Ownable.sol\":2293:2394  function renounceOwnership() public virtual onlyOwner {... */\n      jump\t// out\n        /* \"Marketplace_NFT.sol\":2593:2749  function setFeePercent(uint256 _feePercent) external onlyOwner {... */\n    tag_47:\n        /* \"@openzeppelin/contracts/access/Ownable.sol\":1531:1544  _checkOwner() */\n      tag_186\n        /* \"@openzeppelin/contracts/access/Ownable.sol\":1531:1542  _checkOwner */\n      tag_175\n        /* \"@openzeppelin/contracts/access/Ownable.sol\":1531:1544  _checkOwner() */\n      jump\t// in\n    tag_186:\n        /* \"Marketplace_NFT.sol\":2689:2694  10000 */\n      0x2710\n        /* \"Marketplace_NFT.sol\":2674:2685  _feePercent */\n      dup2\n        /* \"Marketplace_NFT.sol\":2674:2694  _feePercent <= 10000 */\n      gt\n      iszero\n        /* \"Marketplace_NFT.sol\":2666:2708  require(_feePercent <= 10000, \"max 10000\") */\n      tag_188\n      jumpi\n      mload(0x40)\n      0x08c379a000000000000000000000000000000000000000000000000000000000\n      dup2\n      mstore\n      0x04\n      add\n      tag_189\n      swap1\n      tag_190\n      jump\t// in\n    tag_189:\n      mload(0x40)\n      dup1\n      swap2\n      sub\n      swap1\n      revert\n    tag_188:\n        /* \"Marketplace_NFT.sol\":2731:2742  _feePercent */\n      dup1\n        /* \"Marketplace_NFT.sol\":2718:2728  feePercent */\n      0x04\n        /* \"Marketplace_NFT.sol\":2718:2742  feePercent = _feePercent */\n      dup2\n      swap1\n      sstore\n      pop\n        /* \"Marketplace_NFT.sol\":2593:2749  function setFeePercent(uint256 _feePercent) external onlyOwner {... */\n      pop\n      jump\t// out\n        /* \"Marketplace_NFT.sol\":624:649  uint256 public feePercent */\n    tag_49:\n      sload(0x04)\n      dup2\n      jump\t// out\n        /* \"Marketplace_NFT.sol\":2755:2899  function setAllowedNFTContract(address nftContract, bool allowed) external onlyOwner {... */\n    tag_55:\n        /* \"@openzeppelin/contracts/access/Ownable.sol\":1531:1544  _checkOwner() */\n      tag_192\n        /* \"@openzeppelin/contracts/access/Ownable.sol\":1531:1542  _checkOwner */\n      tag_175\n        /* \"@openzeppelin/contracts/access/Ownable.sol\":1531:1544  _checkOwner() */\n      jump\t// in\n    tag_192:\n        /* \"Marketplace_NFT.sol\":2885:2892  allowed */\n      dup1\n        /* \"Marketplace_NFT.sol\":2850:2869  allowedNFTContracts */\n      0x05\n        /* \"Marketplace_NFT.sol\":2850:2882  allowedNFTContracts[nftContract] */\n      0x00\n        /* \"Marketplace_NFT.sol\":2870:2881  nftContract */\n      dup5\n        /* \"Marketplace_NFT.sol\":2850:2882  allowedNFTContracts[nftContract] */\n      0xffffffffffffffffffffffffffffffffffffffff\n      and\n      0xffffffffffffffffffffffffffffffffffffffff\n      and\n      dup2\n      mstore\n      0x20\n      add\n      swap1\n      dup2\n      mstore\n      0x20\n      add\n      0x00\n      keccak256\n      0x00\n        /* \"Marketplace_NFT.sol\":2850:2892  allowedNFTContracts[nftContract] = allowed */\n      0x0100\n      exp\n      dup2\n      sload\n      dup2\n      0xff\n      mul\n      not\n      and\n      swap1\n      dup4\n      iszero\n      iszero\n      mul\n      or\n      swap1\n      sstore\n      pop\n        /* \"Marketplace_NFT.sol\":2755:2899  function setAllowedNFTContract(address nftContract, bool allowed) external onlyOwner {... */\n      pop\n      pop\n      jump\t// out\n        /* \"@openzeppelin/contracts/access/Ownable.sol\":1638:1723  function owner() public view virtual returns (address) {... */\n    tag_57:\n        /* \"@openzeppelin/contracts/access/Ownable.sol\":1684:1691  address */\n      0x00\n        /* \"@openzeppelin/contracts/access/Ownable.sol\":1710:1716  _owner */\n      0x00\n      0x00\n      swap1\n      sload\n      swap1\n      0x0100\n      exp\n      swap1\n      div\n      0xffffffffffffffffffffffffffffffffffffffff\n      and\n        /* \"@openzeppelin/contracts/access/Ownable.sol\":1703:1716  return _owner */\n      swap1\n      pop\n        /* \"@openzeppelin/contracts/access/Ownable.sol\":1638:1723  function owner() public view virtual returns (address) {... */\n      swap1\n      jump\t// out\n        /* \"Marketplace_NFT.sol\":2416:2587  function setFeeCollector(address _feeCollector) external onlyOwner {... */\n    tag_62:\n        /* \"@openzeppelin/contracts/access/Ownable.sol\":1531:1544  _checkOwner() */\n      tag_196\n        /* \"@openzeppelin/contracts/access/Ownable.sol\":1531:1542  _checkOwner */\n      tag_175\n        /* \"@openzeppelin/contracts/access/Ownable.sol\":1531:1544  _checkOwner() */\n      jump\t// in\n    tag_196:\n        /* \"Marketplace_NFT.sol\":2526:2527  0 */\n      0x00\n        /* \"Marketplace_NFT.sol\":2501:2528  _feeCollector != address(0) */\n      0xffffffffffffffffffffffffffffffffffffffff\n      and\n        /* \"Marketplace_NFT.sol\":2501:2514  _feeCollector */\n      dup2\n        /* \"Marketplace_NFT.sol\":2501:2528  _feeCollector != address(0) */\n      0xffffffffffffffffffffffffffffffffffffffff\n      and\n      sub\n        /* \"Marketplace_NFT.sol\":2493:2542  require(_feeCollector != address(0), \"zero addr\") */\n      tag_198\n      jumpi\n      mload(0x40)\n      0x08c379a000000000000000000000000000000000000000000000000000000000\n      dup2\n      mstore\n      0x04\n      add\n      tag_199\n      swap1\n      tag_179\n      jump\t// in\n    tag_199:\n      mload(0x40)\n      dup1\n      swap2\n      sub\n      swap1\n      revert\n    tag_198:\n        /* \"Marketplace_NFT.sol\":2567:2580  _feeCollector */\n      dup1\n        /* \"Marketplace_NFT.sol\":2552:2564  feeCollector */\n      0x03\n      0x00\n        /* \"Marketplace_NFT.sol\":2552:2580  feeCollector = _feeCollector */\n      0x0100\n      exp\n      dup2\n      sload\n      dup2\n      0xffffffffffffffffffffffffffffffffffffffff\n      mul\n      not\n      and\n      swap1\n      dup4\n      0xffffffffffffffffffffffffffffffffffffffff\n      and\n      mul\n      or\n      swap1\n      sstore\n      pop\n        /* \"Marketplace_NFT.sol\":2416:2587  function setFeeCollector(address _feeCollector) external onlyOwner {... */\n      pop\n      jump\t// out\n        /* \"Marketplace_NFT.sol\":760:811  mapping(address => bool) public allowedNFTContracts */\n    tag_65:\n      mstore(0x20, 0x05)\n      dup1\n      0x00\n      mstore\n      keccak256(0x00, 0x40)\n      0x00\n      swap2\n      pop\n      sload\n      swap1\n      0x0100\n      exp\n      swap1\n      div\n      0xff\n      and\n      dup2\n      jump\t// out\n        /* \"Marketplace_NFT.sol\":567:594  address public feeCollector */\n    tag_68:\n      0x03\n      0x00\n      swap1\n      sload\n      swap1\n      0x0100\n      exp\n      swap1\n      div\n      0xffffffffffffffffffffffffffffffffffffffff\n      and\n      dup2\n      jump\t// out\n        /* \"Marketplace_NFT.sol\":4331:4614  function delistNFT(uint256 listingId) external nonReentrant {... */\n    tag_72:\n        /* \"@openzeppelin/contracts/security/ReentrancyGuard.sol\":2261:2282  _nonReentrantBefore() */\n      tag_201\n        /* \"@openzeppelin/contracts/security/ReentrancyGuard.sol\":2261:2280  _nonReentrantBefore */\n      tag_83\n        /* \"@openzeppelin/contracts/security/ReentrancyGuard.sol\":2261:2282  _nonReentrantBefore() */\n      jump\t// in\n    tag_201:\n        /* \"Marketplace_NFT.sol\":4401:4418  Listing storage l */\n      0x00\n        /* \"Marketplace_NFT.sol\":4421:4429  listings */\n      0x07\n        /* \"Marketplace_NFT.sol\":4421:4440  listings[listingId] */\n      0x00\n        /* \"Marketplace_NFT.sol\":4430:4439  listingId */\n      dup4\n        /* \"Marketplace_NFT.sol\":4421:4440  listings[listingId] */\n      dup2\n      mstore\n      0x20\n      add\n      swap1\n      dup2\n      mstore\n      0x20\n      add\n      0x00\n      keccak256\n        /* \"Marketplace_NFT.sol\":4401:4440  Listing storage l = listings[listingId] */\n      swap1\n      pop\n        /* \"Marketplace_NFT.sol\":4458:4459  l */\n      dup1\n        /* \"Marketplace_NFT.sol\":4458:4466  l.active */\n      0x05\n      add\n      0x01\n      swap1\n      sload\n      swap1\n      0x0100\n      exp\n      swap1\n      div\n      0xff\n      and\n        /* \"Marketplace_NFT.sol\":4450:4487  require(l.active, \"listing inactive\") */\n      tag_203\n      jumpi\n      mload(0x40)\n      0x08c379a000000000000000000000000000000000000000000000000000000000\n      dup2\n      mstore\n      0x04\n      add\n      tag_204\n      swap1\n      tag_148\n      jump\t// in\n    tag_204:\n      mload(0x40)\n      dup1\n      swap2\n      sub\n      swap1\n      revert\n    tag_203:\n        /* \"Marketplace_NFT.sol\":4517:4527  msg.sender */\n      caller\n        /* \"Marketplace_NFT.sol\":4505:4527  l.seller == msg.sender */\n      0xffffffffffffffffffffffffffffffffffffffff\n      and\n        /* \"Marketplace_NFT.sol\":4505:4506  l */\n      dup2\n        /* \"Marketplace_NFT.sol\":4505:4513  l.seller */\n      0x00\n      add\n      0x00\n      swap1\n      sload\n      swap1\n      0x0100\n      exp\n      swap1\n      div\n      0xffffffffffffffffffffffffffffffffffffffff\n      and\n        /* \"Marketplace_NFT.sol\":4505:4527  l.seller == msg.sender */\n      0xffffffffffffffffffffffffffffffffffffffff\n      and\n      eq\n        /* \"Marketplace_NFT.sol\":4497:4542  require(l.seller == msg.sender, \"not seller\") */\n      tag_205\n      jumpi\n      mload(0x40)\n      0x08c379a000000000000000000000000000000000000000000000000000000000\n      dup2\n      mstore\n      0x04\n      add\n      tag_206\n      swap1\n      tag_207\n      jump\t// in\n    tag_206:\n      mload(0x40)\n      dup1\n      swap2\n      sub\n      swap1\n      revert\n    tag_205:\n        /* \"Marketplace_NFT.sol\":4564:4569  false */\n      0x00\n        /* \"Marketplace_NFT.sol\":4553:4554  l */\n      dup2\n        /* \"Marketplace_NFT.sol\":4553:4561  l.active */\n      0x05\n      add\n      0x01\n        /* \"Marketplace_NFT.sol\":4553:4569  l.active = false */\n      0x0100\n      exp\n      dup2\n      sload\n      dup2\n      0xff\n      mul\n      not\n      and\n      swap1\n      dup4\n      iszero\n      iszero\n      mul\n      or\n      swap1\n      sstore\n      pop\n        /* \"Marketplace_NFT.sol\":4597:4606  listingId */\n      dup2\n        /* \"Marketplace_NFT.sol\":4585:4607  NFTDelisted(listingId) */\n      0xc0c55a6edead4433d18cb1e287a0a20a2fa003a6f483bc9823d2e504d70d1c67\n      mload(0x40)\n      mload(0x40)\n      dup1\n      swap2\n      sub\n      swap1\n      log2\n        /* \"Marketplace_NFT.sol\":4391:4614  {... */\n      pop\n        /* \"@openzeppelin/contracts/security/ReentrancyGuard.sol\":2303:2323  _nonReentrantAfter() */\n      tag_208\n        /* \"@openzeppelin/contracts/security/ReentrancyGuard.sol\":2303:2321  _nonReentrantAfter */\n      tag_141\n        /* \"@openzeppelin/contracts/security/ReentrancyGuard.sol\":2303:2323  _nonReentrantAfter() */\n      jump\t// in\n    tag_208:\n        /* \"Marketplace_NFT.sol\":4331:4614  function delistNFT(uint256 listingId) external nonReentrant {... */\n      pop\n      jump\t// out\n        /* \"Marketplace_NFT.sol\":1237:1280  mapping(uint256 => Listing) public listings */\n    tag_75:\n      mstore(0x20, 0x07)\n      dup1\n      0x00\n      mstore\n      keccak256(0x00, 0x40)\n      0x00\n      swap2\n      pop\n      swap1\n      pop\n      dup1\n      0x00\n      add\n      0x00\n      swap1\n      sload\n      swap1\n      0x0100\n      exp\n      swap1\n      div\n      0xffffffffffffffffffffffffffffffffffffffff\n      and\n      swap1\n      dup1\n      0x01\n      add\n      0x00\n      swap1\n      sload\n      swap1\n      0x0100\n      exp\n      swap1\n      div\n      0xffffffffffffffffffffffffffffffffffffffff\n      and\n      swap1\n      dup1\n      0x02\n      add\n      sload\n      swap1\n      dup1\n      0x03\n      add\n      sload\n      swap1\n      dup1\n      0x04\n      add\n      sload\n      swap1\n      dup1\n      0x05\n      add\n      0x00\n      swap1\n      sload\n      swap1\n      0x0100\n      exp\n      swap1\n      div\n      0xff\n      and\n      swap1\n      dup1\n      0x05\n      add\n      0x01\n      swap1\n      sload\n      swap1\n      0x0100\n      exp\n      swap1\n      div\n      0xff\n      and\n      swap1\n      pop\n      dup8\n      jump\t// out\n        /* \"@openzeppelin/contracts/access/Ownable.sol\":2543:2758  function transferOwnership(address newOwner) public virtual onlyOwner {... */\n    tag_80:\n        /* \"@openzeppelin/contracts/access/Ownable.sol\":1531:1544  _checkOwner() */\n      tag_210\n        /* \"@openzeppelin/contracts/access/Ownable.sol\":1531:1542  _checkOwner */\n      tag_175\n        /* \"@openzeppelin/contracts/access/Ownable.sol\":1531:1544  _checkOwner() */\n      jump\t// in\n    tag_210:\n        /* \"@openzeppelin/contracts/access/Ownable.sol\":2647:2648  0 */\n      0x00\n        /* \"@openzeppelin/contracts/access/Ownable.sol\":2627:2649  newOwner == address(0) */\n      0xffffffffffffffffffffffffffffffffffffffff\n      and\n        /* \"@openzeppelin/contracts/access/Ownable.sol\":2627:2635  newOwner */\n      dup2\n        /* \"@openzeppelin/contracts/access/Ownable.sol\":2627:2649  newOwner == address(0) */\n      0xffffffffffffffffffffffffffffffffffffffff\n      and\n      sub\n        /* \"@openzeppelin/contracts/access/Ownable.sol\":2623:2714  if (newOwner == address(0)) {... */\n      tag_212\n      jumpi\n        /* \"@openzeppelin/contracts/access/Ownable.sol\":2700:2701  0 */\n      0x00\n        /* \"@openzeppelin/contracts/access/Ownable.sol\":2672:2703  OwnableInvalidOwner(address(0)) */\n      mload(0x40)\n      0x1e4fbdf700000000000000000000000000000000000000000000000000000000\n      dup2\n      mstore\n      0x04\n      add\n      tag_213\n      swap2\n      swap1\n      tag_59\n      jump\t// in\n    tag_213:\n      mload(0x40)\n      dup1\n      swap2\n      sub\n      swap1\n      revert\n        /* \"@openzeppelin/contracts/access/Ownable.sol\":2623:2714  if (newOwner == address(0)) {... */\n    tag_212:\n        /* \"@openzeppelin/contracts/access/Ownable.sol\":2723:2751  _transferOwnership(newOwner) */\n      tag_214\n        /* \"@openzeppelin/contracts/access/Ownable.sol\":2742:2750  newOwner */\n      dup2\n        /* \"@openzeppelin/contracts/access/Ownable.sol\":2723:2741  _transferOwnership */\n      tag_184\n        /* \"@openzeppelin/contracts/access/Ownable.sol\":2723:2751  _transferOwnership(newOwner) */\n      jump\t// in\n    tag_214:\n        /* \"@openzeppelin/contracts/access/Ownable.sol\":2543:2758  function transferOwnership(address newOwner) public virtual onlyOwner {... */\n      pop\n      jump\t// out\n        /* \"@openzeppelin/contracts/security/ReentrancyGuard.sol\":2336:2623  function _nonReentrantBefore() private {... */\n    tag_83:\n        /* \"@openzeppelin/contracts/security/ReentrancyGuard.sol\":1759:1760  2 */\n      0x02\n        /* \"@openzeppelin/contracts/security/ReentrancyGuard.sol\":2468:2475  _status */\n      sload(0x01)\n        /* \"@openzeppelin/contracts/security/ReentrancyGuard.sol\":2468:2487  _status != _ENTERED */\n      sub\n        /* \"@openzeppelin/contracts/security/ReentrancyGuard.sol\":2460:2523  require(_status != _ENTERED, \"ReentrancyGuard: reentrant call\") */\n      tag_216\n      jumpi\n      mload(0x40)\n      0x08c379a000000000000000000000000000000000000000000000000000000000\n      dup2\n      mstore\n      0x04\n      add\n      tag_217\n      swap1\n      tag_218\n      jump\t// in\n    tag_217:\n      mload(0x40)\n      dup1\n      swap2\n      sub\n      swap1\n      revert\n    tag_216:\n        /* \"@openzeppelin/contracts/security/ReentrancyGuard.sol\":1759:1760  2 */\n      0x02\n        /* \"@openzeppelin/contracts/security/ReentrancyGuard.sol\":2598:2605  _status */\n      0x01\n        /* \"@openzeppelin/contracts/security/ReentrancyGuard.sol\":2598:2616  _status = _ENTERED */\n      dup2\n      swap1\n      sstore\n      pop\n        /* \"@openzeppelin/contracts/security/ReentrancyGuard.sol\":2336:2623  function _nonReentrantBefore() private {... */\n      jump\t// out\n        /* \"@openzeppelin/contracts/security/ReentrancyGuard.sol\":2629:2838  function _nonReentrantAfter() private {... */\n    tag_141:\n        /* \"@openzeppelin/contracts/security/ReentrancyGuard.sol\":1716:1717  1 */\n      0x01\n        /* \"@openzeppelin/contracts/security/ReentrancyGuard.sol\":2809:2816  _status */\n      dup1\n        /* \"@openzeppelin/contracts/security/ReentrancyGuard.sol\":2809:2831  _status = _NOT_ENTERED */\n      dup2\n      swap1\n      sstore\n      pop\n        /* \"@openzeppelin/contracts/security/ReentrancyGuard.sol\":2629:2838  function _nonReentrantAfter() private {... */\n      jump\t// out\n        /* \"@openzeppelin/contracts/token/ERC20/utils/SafeERC20.sol\":1618:1806  function safeTransferFrom(IERC20 token, address from, address to, uint256 value) internal {... */\n    tag_156:\n        /* \"@openzeppelin/contracts/token/ERC20/utils/SafeERC20.sol\":1718:1799  _callOptionalReturn(token, abi.encodeCall(token.transferFrom, (from, to, value))) */\n      tag_221\n        /* \"@openzeppelin/contracts/token/ERC20/utils/SafeERC20.sol\":1738:1743  token */\n      dup5\n        /* \"@openzeppelin/contracts/token/ERC20/utils/SafeERC20.sol\":1760:1765  token */\n      dup6\n        /* \"@openzeppelin/contracts/token/ERC20/utils/SafeERC20.sol\":1760:1778  token.transferFrom */\n      0xffffffffffffffffffffffffffffffffffffffff\n      and\n      0x23b872dd\n        /* \"@openzeppelin/contracts/token/ERC20/utils/SafeERC20.sol\":1781:1785  from */\n      dup7\n        /* \"@openzeppelin/contracts/token/ERC20/utils/SafeERC20.sol\":1787:1789  to */\n      dup7\n        /* \"@openzeppelin/contracts/token/ERC20/utils/SafeERC20.sol\":1791:1796  value */\n      dup7\n        /* \"@openzeppelin/contracts/token/ERC20/utils/SafeERC20.sol\":1745:1798  abi.encodeCall(token.transferFrom, (from, to, value)) */\n      add(0x24, mload(0x40))\n      tag_222\n      swap4\n      swap3\n      swap2\n      swap1\n      tag_166\n      jump\t// in\n    tag_222:\n      mload(0x40)\n      0x20\n      dup2\n      dup4\n      sub\n      sub\n      dup2\n      mstore\n      swap1\n      0x40\n      mstore\n      swap2\n      pop\n      0xe0\n      shl\n      0x20\n      dup3\n      add\n      dup1\n      mload\n      0xffffffffffffffffffffffffffffffffffffffffffffffffffffffff\n      dup4\n      dup2\n      dup4\n      and\n      or\n      dup4\n      mstore\n      pop\n      pop\n      pop\n      pop\n        /* \"@openzeppelin/contracts/token/ERC20/utils/SafeERC20.sol\":1718:1737  _callOptionalReturn */\n      tag_223\n        /* \"@openzeppelin/contracts/token/ERC20/utils/SafeERC20.sol\":1718:1799  _callOptionalReturn(token, abi.encodeCall(token.transferFrom, (from, to, value))) */\n      jump\t// in\n    tag_221:\n        /* \"@openzeppelin/contracts/token/ERC20/utils/SafeERC20.sol\":1618:1806  function safeTransferFrom(IERC20 token, address from, address to, uint256 value) internal {... */\n      pop\n      pop\n      pop\n      pop\n      jump\t// out\n        /* \"@openzeppelin/contracts/access/Ownable.sol\":1796:1958  function _checkOwner() internal view virtual {... */\n    tag_175:\n        /* \"@openzeppelin/contracts/access/Ownable.sol\":1866:1878  _msgSender() */\n      tag_225\n        /* \"@openzeppelin/contracts/access/Ownable.sol\":1866:1876  _msgSender */\n      tag_226\n        /* \"@openzeppelin/contracts/access/Ownable.sol\":1866:1878  _msgSender() */\n      jump\t// in\n    tag_225:\n        /* \"@openzeppelin/contracts/access/Ownable.sol\":1855:1878  owner() != _msgSender() */\n      0xffffffffffffffffffffffffffffffffffffffff\n      and\n        /* \"@openzeppelin/contracts/access/Ownable.sol\":1855:1862  owner() */\n      tag_227\n        /* \"@openzeppelin/contracts/access/Ownable.sol\":1855:1860  owner */\n      tag_57\n        /* \"@openzeppelin/contracts/access/Ownable.sol\":1855:1862  owner() */\n      jump\t// in\n    tag_227:\n        /* \"@openzeppelin/contracts/access/Ownable.sol\":1855:1878  owner() != _msgSender() */\n      0xffffffffffffffffffffffffffffffffffffffff\n      and\n      eq\n        /* \"@openzeppelin/contracts/access/Ownable.sol\":1851:1952  if (owner() != _msgSender()) {... */\n      tag_228\n      jumpi\n        /* \"@openzeppelin/contracts/access/Ownable.sol\":1928:1940  _msgSender() */\n      tag_229\n        /* \"@openzeppelin/contracts/access/Ownable.sol\":1928:1938  _msgSender */\n      tag_226\n        /* \"@openzeppelin/contracts/access/Ownable.sol\":1928:1940  _msgSender() */\n      jump\t// in\n    tag_229:\n        /* \"@openzeppelin/contracts/access/Ownable.sol\":1901:1941  OwnableUnauthorizedAccount(_msgSender()) */\n      mload(0x40)\n      0x118cdaa700000000000000000000000000000000000000000000000000000000\n      dup2\n      mstore\n      0x04\n      add\n      tag_230\n      swap2\n      swap1\n      tag_59\n      jump\t// in\n    tag_230:\n      mload(0x40)\n      dup1\n      swap2\n      sub\n      swap1\n      revert\n        /* \"@openzeppelin/contracts/access/Ownable.sol\":1851:1952  if (owner() != _msgSender()) {... */\n    tag_228:\n        /* \"@openzeppelin/contracts/access/Ownable.sol\":1796:1958  function _checkOwner() internal view virtual {... */\n      jump\t// out\n        /* \"@openzeppelin/contracts/access/Ownable.sol\":2912:3099  function _transferOwnership(address newOwner) internal virtual {... */\n    tag_184:\n        /* \"@openzeppelin/contracts/access/Ownable.sol\":2985:3001  address oldOwner */\n      0x00\n        /* \"@openzeppelin/contracts/access/Ownable.sol\":3004:3010  _owner */\n      0x00\n      0x00\n      swap1\n      sload\n      swap1\n      0x0100\n      exp\n      swap1\n      div\n      0xffffffffffffffffffffffffffffffffffffffff\n      and\n        /* \"@openzeppelin/contracts/access/Ownable.sol\":2985:3010  address oldOwner = _owner */\n      swap1\n      pop\n        /* \"@openzeppelin/contracts/access/Ownable.sol\":3029:3037  newOwner */\n      dup2\n        /* \"@openzeppelin/contracts/access/Ownable.sol\":3020:3026  _owner */\n      0x00\n      0x00\n        /* \"@openzeppelin/contracts/access/Ownable.sol\":3020:3037  _owner = newOwner */\n      0x0100\n      exp\n      dup2\n      sload\n      dup2\n      0xffffffffffffffffffffffffffffffffffffffff\n      mul\n      not\n      and\n      swap1\n      dup4\n      0xffffffffffffffffffffffffffffffffffffffff\n      and\n      mul\n      or\n      swap1\n      sstore\n      pop\n        /* \"@openzeppelin/contracts/access/Ownable.sol\":3083:3091  newOwner */\n      dup2\n        /* \"@openzeppelin/contracts/access/Ownable.sol\":3052:3092  OwnershipTransferred(oldOwner, newOwner) */\n      0xffffffffffffffffffffffffffffffffffffffff\n      and\n        /* \"@openzeppelin/contracts/access/Ownable.sol\":3073:3081  oldOwner */\n      dup2\n        /* \"@openzeppelin/contracts/access/Ownable.sol\":3052:3092  OwnershipTransferred(oldOwner, newOwner) */\n      0xffffffffffffffffffffffffffffffffffffffff\n      and\n      0x8be0079c531659141344cd1fd0a4f28419497f9722a3daafe3b4186f6b6457e0\n      mload(0x40)\n      mload(0x40)\n      dup1\n      swap2\n      sub\n      swap1\n      log3\n        /* \"@openzeppelin/contracts/access/Ownable.sol\":2975:3099  {... */\n      pop\n        /* \"@openzeppelin/contracts/access/Ownable.sol\":2912:3099  function _transferOwnership(address newOwner) internal virtual {... */\n      pop\n      jump\t// out\n        /* \"@openzeppelin/contracts/token/ERC20/utils/SafeERC20.sol\":8370:9090  function _callOptionalReturn(IERC20 token, bytes memory data) private {... */\n    tag_223:\n        /* \"@openzeppelin/contracts/token/ERC20/utils/SafeERC20.sol\":8450:8468  uint256 returnSize */\n      0x00\n        /* \"@openzeppelin/contracts/token/ERC20/utils/SafeERC20.sol\":8478:8497  uint256 returnValue */\n      0x00\n        /* \"@openzeppelin/contracts/token/ERC20/utils/SafeERC20.sol\":8616:8620  0x20 */\n      0x20\n        /* \"@openzeppelin/contracts/token/ERC20/utils/SafeERC20.sol\":8613:8614  0 */\n      0x00\n        /* \"@openzeppelin/contracts/token/ERC20/utils/SafeERC20.sol\":8606:8610  data */\n      dup5\n        /* \"@openzeppelin/contracts/token/ERC20/utils/SafeERC20.sol\":8600:8611  mload(data) */\n      mload\n        /* \"@openzeppelin/contracts/token/ERC20/utils/SafeERC20.sol\":8593:8597  0x20 */\n      0x20\n        /* \"@openzeppelin/contracts/token/ERC20/utils/SafeERC20.sol\":8587:8591  data */\n      dup7\n        /* \"@openzeppelin/contracts/token/ERC20/utils/SafeERC20.sol\":8583:8598  add(data, 0x20) */\n      add\n        /* \"@openzeppelin/contracts/token/ERC20/utils/SafeERC20.sol\":8580:8581  0 */\n      0x00\n        /* \"@openzeppelin/contracts/token/ERC20/utils/SafeERC20.sol\":8573:8578  token */\n      dup9\n        /* \"@openzeppelin/contracts/token/ERC20/utils/SafeERC20.sol\":8566:8571  gas() */\n      gas\n        /* \"@openzeppelin/contracts/token/ERC20/utils/SafeERC20.sol\":8561:8621  call(gas(), token, 0, add(data, 0x20), mload(data), 0, 0x20) */\n      call\n        /* \"@openzeppelin/contracts/token/ERC20/utils/SafeERC20.sol\":8673:8680  success */\n      dup1\n        /* \"@openzeppelin/contracts/token/ERC20/utils/SafeERC20.sol\":8663:8839  if iszero(success) {... */\n      tag_233\n      jumpi\n        /* \"@openzeppelin/contracts/token/ERC20/utils/SafeERC20.sol\":8717:8721  0x40 */\n      0x40\n        /* \"@openzeppelin/contracts/token/ERC20/utils/SafeERC20.sol\":8711:8722  mload(0x40) */\n      mload\n        /* \"@openzeppelin/contracts/token/ERC20/utils/SafeERC20.sol\":8762:8778  returndatasize() */\n      returndatasize\n        /* \"@openzeppelin/contracts/token/ERC20/utils/SafeERC20.sol\":8759:8760  0 */\n      0x00\n        /* \"@openzeppelin/contracts/token/ERC20/utils/SafeERC20.sol\":8754:8757  ptr */\n      dup3\n        /* \"@openzeppelin/contracts/token/ERC20/utils/SafeERC20.sol\":8739:8779  returndatacopy(ptr, 0, returndatasize()) */\n      returndatacopy\n        /* \"@openzeppelin/contracts/token/ERC20/utils/SafeERC20.sol\":8808:8824  returndatasize() */\n      returndatasize\n        /* \"@openzeppelin/contracts/token/ERC20/utils/SafeERC20.sol\":8803:8806  ptr */\n      dup2\n        /* \"@openzeppelin/contracts/token/ERC20/utils/SafeERC20.sol\":8796:8825  revert(ptr, returndatasize()) */\n      revert\n        /* \"@openzeppelin/contracts/token/ERC20/utils/SafeERC20.sol\":8663:8839  if iszero(success) {... */\n    tag_233:\n        /* \"@openzeppelin/contracts/token/ERC20/utils/SafeERC20.sol\":8866:8882  returndatasize() */\n      returndatasize\n        /* \"@openzeppelin/contracts/token/ERC20/utils/SafeERC20.sol\":8852:8882  returnSize := returndatasize() */\n      swap3\n      pop\n        /* \"@openzeppelin/contracts/token/ERC20/utils/SafeERC20.sol\":8916:8917  0 */\n      0x00\n        /* \"@openzeppelin/contracts/token/ERC20/utils/SafeERC20.sol\":8910:8918  mload(0) */\n      mload\n        /* \"@openzeppelin/contracts/token/ERC20/utils/SafeERC20.sol\":8895:8918  returnValue := mload(0) */\n      swap2\n      pop\n        /* \"@openzeppelin/contracts/token/ERC20/utils/SafeERC20.sol\":8532:8928  {... */\n      pop\n        /* \"@openzeppelin/contracts/token/ERC20/utils/SafeERC20.sol\":8956:8957  0 */\n      0x00\n        /* \"@openzeppelin/contracts/token/ERC20/utils/SafeERC20.sol\":8942:8952  returnSize */\n      dup3\n        /* \"@openzeppelin/contracts/token/ERC20/utils/SafeERC20.sol\":8942:8957  returnSize == 0 */\n      eq\n        /* \"@openzeppelin/contracts/token/ERC20/utils/SafeERC20.sol\":8942:9010  returnSize == 0 ? address(token).code.length == 0 : returnValue != 1 */\n      tag_234\n      jumpi\n        /* \"@openzeppelin/contracts/token/ERC20/utils/SafeERC20.sol\":9009:9010  1 */\n      0x01\n        /* \"@openzeppelin/contracts/token/ERC20/utils/SafeERC20.sol\":8994:9005  returnValue */\n      dup2\n        /* \"@openzeppelin/contracts/token/ERC20/utils/SafeERC20.sol\":8994:9010  returnValue != 1 */\n      eq\n      iszero\n        /* \"@openzeppelin/contracts/token/ERC20/utils/SafeERC20.sol\":8942:9010  returnSize == 0 ? address(token).code.length == 0 : returnValue != 1 */\n      jump(tag_235)\n    tag_234:\n        /* \"@openzeppelin/contracts/token/ERC20/utils/SafeERC20.sol\":8990:8991  0 */\n      0x00\n        /* \"@openzeppelin/contracts/token/ERC20/utils/SafeERC20.sol\":8968:8973  token */\n      dup5\n        /* \"@openzeppelin/contracts/token/ERC20/utils/SafeERC20.sol\":8960:8986  address(token).code.length */\n      0xffffffffffffffffffffffffffffffffffffffff\n      and\n      extcodesize\n        /* \"@openzeppelin/contracts/token/ERC20/utils/SafeERC20.sol\":8960:8991  address(token).code.length == 0 */\n      eq\n        /* \"@openzeppelin/contracts/token/ERC20/utils/SafeERC20.sol\":8942:9010  returnSize == 0 ? address(token).code.length == 0 : returnValue != 1 */\n    tag_235:\n        /* \"@openzeppelin/contracts/token/ERC20/utils/SafeERC20.sol\":8938:9084  if (returnSize == 0 ? address(token).code.length == 0 : returnValue != 1) {... */\n      iszero\n      tag_236\n      jumpi\n        /* \"@openzeppelin/contracts/token/ERC20/utils/SafeERC20.sol\":9066:9071  token */\n      dup4\n        /* \"@openzeppelin/contracts/token/ERC20/utils/SafeERC20.sol\":9033:9073  SafeERC20FailedOperation(address(token)) */\n      mload(0x40)\n      0x5274afe700000000000000000000000000000000000000000000000000000000\n      dup2\n      mstore\n      0x04\n      add\n      tag_237\n      swap2\n      swap1\n      tag_59\n      jump\t// in\n    tag_237:\n      mload(0x40)\n      dup1\n      swap2\n      sub\n      swap1\n      revert\n        /* \"@openzeppelin/contracts/token/ERC20/utils/SafeERC20.sol\":8938:9084  if (returnSize == 0 ? address(token).code.length == 0 : returnValue != 1) {... */\n    tag_236:\n        /* \"@openzeppelin/contracts/token/ERC20/utils/SafeERC20.sol\":8440:9090  {... */\n      pop\n      pop\n        /* \"@openzeppelin/contracts/token/ERC20/utils/SafeERC20.sol\":8370:9090  function _callOptionalReturn(IERC20 token, bytes memory data) private {... */\n      pop\n      pop\n      jump\t// out\n        /* \"@openzeppelin/contracts/utils/Context.sol\":656:752  function _msgSender() internal view virtual returns (address) {... */\n    tag_226:\n        /* \"@openzeppelin/contracts/utils/Context.sol\":709:716  address */\n      0x00\n        /* \"@openzeppelin/contracts/utils/Context.sol\":735:745  msg.sender */\n      caller\n        /* \"@openzeppelin/contracts/utils/Context.sol\":728:745  return msg.sender */\n      swap1\n      pop\n        /* \"@openzeppelin/contracts/utils/Context.sol\":656:752  function _msgSender() internal view virtual returns (address) {... */\n      swap1\n      jump\t// out\n        /* \"#utility.yul\":7:133   */\n    tag_239:\n        /* \"#utility.yul\":44:51   */\n      0x00\n        /* \"#utility.yul\":84:126   */\n      0xffffffffffffffffffffffffffffffffffffffff\n        /* \"#utility.yul\":77:82   */\n      dup3\n        /* \"#utility.yul\":73:127   */\n      and\n        /* \"#utility.yul\":62:127   */\n      swap1\n      pop\n        /* \"#utility.yul\":7:133   */\n      swap2\n      swap1\n      pop\n      jump\t// out\n        /* \"#utility.yul\":139:199   */\n    tag_240:\n        /* \"#utility.yul\":167:170   */\n      0x00\n        /* \"#utility.yul\":188:193   */\n      dup2\n        /* \"#utility.yul\":181:193   */\n      swap1\n      pop\n        /* \"#utility.yul\":139:199   */\n      swap2\n      swap1\n      pop\n      jump\t// out\n        /* \"#utility.yul\":205:347   */\n    tag_241:\n        /* \"#utility.yul\":255:264   */\n      0x00\n        /* \"#utility.yul\":288:341   */\n      tag_297\n        /* \"#utility.yul\":306:340   */\n      tag_298\n        /* \"#utility.yul\":315:339   */\n      tag_299\n        /* \"#utility.yul\":333:338   */\n      dup5\n        /* \"#utility.yul\":315:339   */\n      tag_239\n      jump\t// in\n    tag_299:\n        /* \"#utility.yul\":306:340   */\n      tag_240\n      jump\t// in\n    tag_298:\n        /* \"#utility.yul\":288:341   */\n      tag_239\n      jump\t// in\n    tag_297:\n        /* \"#utility.yul\":275:341   */\n      swap1\n      pop\n        /* \"#utility.yul\":205:347   */\n      swap2\n      swap1\n      pop\n      jump\t// out\n        /* \"#utility.yul\":353:479   */\n    tag_242:\n        /* \"#utility.yul\":403:412   */\n      0x00\n        /* \"#utility.yul\":436:473   */\n      tag_301\n        /* \"#utility.yul\":467:472   */\n      dup3\n        /* \"#utility.yul\":436:473   */\n      tag_241\n      jump\t// in\n    tag_301:\n        /* \"#utility.yul\":423:473   */\n      swap1\n      pop\n        /* \"#utility.yul\":353:479   */\n      swap2\n      swap1\n      pop\n      jump\t// out\n        /* \"#utility.yul\":485:625   */\n    tag_243:\n        /* \"#utility.yul\":549:558   */\n      0x00\n        /* \"#utility.yul\":582:619   */\n      tag_303\n        /* \"#utility.yul\":613:618   */\n      dup3\n        /* \"#utility.yul\":582:619   */\n      tag_242\n      jump\t// in\n    tag_303:\n        /* \"#utility.yul\":569:619   */\n      swap1\n      pop\n        /* \"#utility.yul\":485:625   */\n      swap2\n      swap1\n      pop\n      jump\t// out\n        /* \"#utility.yul\":631:790   */\n    tag_244:\n        /* \"#utility.yul\":732:783   */\n      tag_305\n        /* \"#utility.yul\":777:782   */\n      dup2\n        /* \"#utility.yul\":732:783   */\n      tag_243\n      jump\t// in\n    tag_305:\n        /* \"#utility.yul\":727:730   */\n      dup3\n        /* \"#utility.yul\":720:784   */\n      mstore\n        /* \"#utility.yul\":631:790   */\n      pop\n      pop\n      jump\t// out\n        /* \"#utility.yul\":796:1046   */\n    tag_25:\n        /* \"#utility.yul\":903:907   */\n      0x00\n        /* \"#utility.yul\":941:943   */\n      0x20\n        /* \"#utility.yul\":930:939   */\n      dup3\n        /* \"#utility.yul\":926:944   */\n      add\n        /* \"#utility.yul\":918:944   */\n      swap1\n      pop\n        /* \"#utility.yul\":954:1039   */\n      tag_307\n        /* \"#utility.yul\":1036:1037   */\n      0x00\n        /* \"#utility.yul\":1025:1034   */\n      dup4\n        /* \"#utility.yul\":1021:1038   */\n      add\n        /* \"#utility.yul\":1012:1018   */\n      dup5\n        /* \"#utility.yul\":954:1039   */\n      tag_244\n      jump\t// in\n    tag_307:\n        /* \"#utility.yul\":796:1046   */\n      swap3\n      swap2\n      pop\n      pop\n      jump\t// out\n        /* \"#utility.yul\":1133:1250   */\n    tag_246:\n        /* \"#utility.yul\":1242:1243   */\n      0x00\n        /* \"#utility.yul\":1239:1240   */\n      0x00\n        /* \"#utility.yul\":1232:1244   */\n      revert\n        /* \"#utility.yul\":1379:1475   */\n    tag_248:\n        /* \"#utility.yul\":1416:1423   */\n      0x00\n        /* \"#utility.yul\":1445:1469   */\n      tag_312\n        /* \"#utility.yul\":1463:1468   */\n      dup3\n        /* \"#utility.yul\":1445:1469   */\n      tag_239\n      jump\t// in\n    tag_312:\n        /* \"#utility.yul\":1434:1469   */\n      swap1\n      pop\n        /* \"#utility.yul\":1379:1475   */\n      swap2\n      swap1\n      pop\n      jump\t// out\n        /* \"#utility.yul\":1481:1603   */\n    tag_249:\n        /* \"#utility.yul\":1554:1578   */\n      tag_314\n        /* \"#utility.yul\":1572:1577   */\n      dup2\n        /* \"#utility.yul\":1554:1578   */\n      tag_248\n      jump\t// in\n    tag_314:\n        /* \"#utility.yul\":1547:1552   */\n      dup2\n        /* \"#utility.yul\":1544:1579   */\n      eq\n        /* \"#utility.yul\":1534:1597   */\n      tag_315\n      jumpi\n        /* \"#utility.yul\":1593:1594   */\n      0x00\n        /* \"#utility.yul\":1590:1591   */\n      0x00\n        /* \"#utility.yul\":1583:1595   */\n      revert\n        /* \"#utility.yul\":1534:1597   */\n    tag_315:\n        /* \"#utility.yul\":1481:1603   */\n      pop\n      jump\t// out\n        /* \"#utility.yul\":1609:1748   */\n    tag_250:\n        /* \"#utility.yul\":1655:1660   */\n      0x00\n        /* \"#utility.yul\":1693:1699   */\n      dup2\n        /* \"#utility.yul\":1680:1700   */\n      calldataload\n        /* \"#utility.yul\":1671:1700   */\n      swap1\n      pop\n        /* \"#utility.yul\":1709:1742   */\n      tag_317\n        /* \"#utility.yul\":1736:1741   */\n      dup2\n        /* \"#utility.yul\":1709:1742   */\n      tag_249\n      jump\t// in\n    tag_317:\n        /* \"#utility.yul\":1609:1748   */\n      swap3\n      swap2\n      pop\n      pop\n      jump\t// out\n        /* \"#utility.yul\":1754:1831   */\n    tag_251:\n        /* \"#utility.yul\":1791:1798   */\n      0x00\n        /* \"#utility.yul\":1820:1825   */\n      dup2\n        /* \"#utility.yul\":1809:1825   */\n      swap1\n      pop\n        /* \"#utility.yul\":1754:1831   */\n      swap2\n      swap1\n      pop\n      jump\t// out\n        /* \"#utility.yul\":1837:1959   */\n    tag_252:\n        /* \"#utility.yul\":1910:1934   */\n      tag_320\n        /* \"#utility.yul\":1928:1933   */\n      dup2\n        /* \"#utility.yul\":1910:1934   */\n      tag_251\n      jump\t// in\n    tag_320:\n        /* \"#utility.yul\":1903:1908   */\n      dup2\n        /* \"#utility.yul\":1900:1935   */\n      eq\n        /* \"#utility.yul\":1890:1953   */\n      tag_321\n      jumpi\n        /* \"#utility.yul\":1949:1950   */\n      0x00\n        /* \"#utility.yul\":1946:1947   */\n      0x00\n        /* \"#utility.yul\":1939:1951   */\n      revert\n        /* \"#utility.yul\":1890:1953   */\n    tag_321:\n        /* \"#utility.yul\":1837:1959   */\n      pop\n      jump\t// out\n        /* \"#utility.yul\":1965:2104   */\n    tag_253:\n        /* \"#utility.yul\":2011:2016   */\n      0x00\n        /* \"#utility.yul\":2049:2055   */\n      dup2\n        /* \"#utility.yul\":2036:2056   */\n      calldataload\n        /* \"#utility.yul\":2027:2056   */\n      swap1\n      pop\n        /* \"#utility.yul\":2065:2098   */\n      tag_323\n        /* \"#utility.yul\":2092:2097   */\n      dup2\n        /* \"#utility.yul\":2065:2098   */\n      tag_252\n      jump\t// in\n    tag_323:\n        /* \"#utility.yul\":1965:2104   */\n      swap3\n      swap2\n      pop\n      pop\n      jump\t// out\n        /* \"#utility.yul\":2110:2200   */\n    tag_254:\n        /* \"#utility.yul\":2144:2151   */\n      0x00\n        /* \"#utility.yul\":2187:2192   */\n      dup2\n        /* \"#utility.yul\":2180:2193   */\n      iszero\n        /* \"#utility.yul\":2173:2194   */\n      iszero\n        /* \"#utility.yul\":2162:2194   */\n      swap1\n      pop\n        /* \"#utility.yul\":2110:2200   */\n      swap2\n      swap1\n      pop\n      jump\t// out\n        /* \"#utility.yul\":2206:2322   */\n    tag_255:\n        /* \"#utility.yul\":2276:2297   */\n      tag_326\n        /* \"#utility.yul\":2291:2296   */\n      dup2\n        /* \"#utility.yul\":2276:2297   */\n      tag_254\n      jump\t// in\n    tag_326:\n        /* \"#utility.yul\":2269:2274   */\n      dup2\n        /* \"#utility.yul\":2266:2298   */\n      eq\n        /* \"#utility.yul\":2256:2316   */\n      tag_327\n      jumpi\n        /* \"#utility.yul\":2312:2313   */\n      0x00\n        /* \"#utility.yul\":2309:2310   */\n      0x00\n        /* \"#utility.yul\":2302:2314   */\n      revert\n        /* \"#utility.yul\":2256:2316   */\n    tag_327:\n        /* \"#utility.yul\":2206:2322   */\n      pop\n      jump\t// out\n        /* \"#utility.yul\":2328:2461   */\n    tag_256:\n        /* \"#utility.yul\":2371:2376   */\n      0x00\n        /* \"#utility.yul\":2409:2415   */\n      dup2\n        /* \"#utility.yul\":2396:2416   */\n      calldataload\n        /* \"#utility.yul\":2387:2416   */\n      swap1\n      pop\n        /* \"#utility.yul\":2425:2455   */\n      tag_329\n        /* \"#utility.yul\":2449:2454   */\n      dup2\n        /* \"#utility.yul\":2425:2455   */\n      tag_255\n      jump\t// in\n    tag_329:\n        /* \"#utility.yul\":2328:2461   */\n      swap3\n      swap2\n      pop\n      pop\n      jump\t// out\n        /* \"#utility.yul\":2467:3372   */\n    tag_28:\n        /* \"#utility.yul\":2559:2565   */\n      0x00\n        /* \"#utility.yul\":2567:2573   */\n      0x00\n        /* \"#utility.yul\":2575:2581   */\n      0x00\n        /* \"#utility.yul\":2583:2589   */\n      0x00\n        /* \"#utility.yul\":2591:2597   */\n      0x00\n        /* \"#utility.yul\":2640:2643   */\n      0xa0\n        /* \"#utility.yul\":2628:2637   */\n      dup7\n        /* \"#utility.yul\":2619:2626   */\n      dup9\n        /* \"#utility.yul\":2615:2638   */\n      sub\n        /* \"#utility.yul\":2611:2644   */\n      slt\n        /* \"#utility.yul\":2608:2728   */\n      iszero\n      tag_331\n      jumpi\n        /* \"#utility.yul\":2647:2726   */\n      tag_332\n      tag_246\n      jump\t// in\n    tag_332:\n        /* \"#utility.yul\":2608:2728   */\n    tag_331:\n        /* \"#utility.yul\":2767:2768   */\n      0x00\n        /* \"#utility.yul\":2792:2845   */\n      tag_333\n        /* \"#utility.yul\":2837:2844   */\n      dup9\n        /* \"#utility.yul\":2828:2834   */\n      dup3\n        /* \"#utility.yul\":2817:2826   */\n      dup10\n        /* \"#utility.yul\":2813:2835   */\n      add\n        /* \"#utility.yul\":2792:2845   */\n      tag_250\n      jump\t// in\n    tag_333:\n        /* \"#utility.yul\":2782:2845   */\n      swap6\n      pop\n        /* \"#utility.yul\":2738:2855   */\n      pop\n        /* \"#utility.yul\":2894:2896   */\n      0x20\n        /* \"#utility.yul\":2920:2973   */\n      tag_334\n        /* \"#utility.yul\":2965:2972   */\n      dup9\n        /* \"#utility.yul\":2956:2962   */\n      dup3\n        /* \"#utility.yul\":2945:2954   */\n      dup10\n        /* \"#utility.yul\":2941:2963   */\n      add\n        /* \"#utility.yul\":2920:2973   */\n      tag_253\n      jump\t// in\n    tag_334:\n        /* \"#utility.yul\":2910:2973   */\n      swap5\n      pop\n        /* \"#utility.yul\":2865:2983   */\n      pop\n        /* \"#utility.yul\":3022:3024   */\n      0x40\n        /* \"#utility.yul\":3048:3101   */\n      tag_335\n        /* \"#utility.yul\":3093:3100   */\n      dup9\n        /* \"#utility.yul\":3084:3090   */\n      dup3\n        /* \"#utility.yul\":3073:3082   */\n      dup10\n        /* \"#utility.yul\":3069:3091   */\n      add\n        /* \"#utility.yul\":3048:3101   */\n      tag_253\n      jump\t// in\n    tag_335:\n        /* \"#utility.yul\":3038:3101   */\n      swap4\n      pop\n        /* \"#utility.yul\":2993:3111   */\n      pop\n        /* \"#utility.yul\":3150:3152   */\n      0x60\n        /* \"#utility.yul\":3176:3229   */\n      tag_336\n        /* \"#utility.yul\":3221:3228   */\n      dup9\n        /* \"#utility.yul\":3212:3218   */\n      dup3\n        /* \"#utility.yul\":3201:3210   */\n      dup10\n        /* \"#utility.yul\":3197:3219   */\n      add\n        /* \"#utility.yul\":3176:3229   */\n      tag_253\n      jump\t// in\n    tag_336:\n        /* \"#utility.yul\":3166:3229   */\n      swap3\n      pop\n        /* \"#utility.yul\":3121:3239   */\n      pop\n        /* \"#utility.yul\":3278:3281   */\n      0x80\n        /* \"#utility.yul\":3305:3355   */\n      tag_337\n        /* \"#utility.yul\":3347:3354   */\n      dup9\n        /* \"#utility.yul\":3338:3344   */\n      dup3\n        /* \"#utility.yul\":3327:3336   */\n      dup10\n        /* \"#utility.yul\":3323:3345   */\n      add\n        /* \"#utility.yul\":3305:3355   */\n      tag_256\n      jump\t// in\n    tag_337:\n        /* \"#utility.yul\":3295:3355   */\n      swap2\n      pop\n        /* \"#utility.yul\":3249:3365   */\n      pop\n        /* \"#utility.yul\":2467:3372   */\n      swap3\n      swap6\n      pop\n      swap3\n      swap6\n      swap1\n      swap4\n      pop\n      jump\t// out\n        /* \"#utility.yul\":3378:3707   */\n    tag_32:\n        /* \"#utility.yul\":3437:3443   */\n      0x00\n        /* \"#utility.yul\":3486:3488   */\n      0x20\n        /* \"#utility.yul\":3474:3483   */\n      dup3\n        /* \"#utility.yul\":3465:3472   */\n      dup5\n        /* \"#utility.yul\":3461:3484   */\n      sub\n        /* \"#utility.yul\":3457:3489   */\n      slt\n        /* \"#utility.yul\":3454:3573   */\n      iszero\n      tag_339\n      jumpi\n        /* \"#utility.yul\":3492:3571   */\n      tag_340\n      tag_246\n      jump\t// in\n    tag_340:\n        /* \"#utility.yul\":3454:3573   */\n    tag_339:\n        /* \"#utility.yul\":3612:3613   */\n      0x00\n        /* \"#utility.yul\":3637:3690   */\n      tag_341\n        /* \"#utility.yul\":3682:3689   */\n      dup5\n        /* \"#utility.yul\":3673:3679   */\n      dup3\n        /* \"#utility.yul\":3662:3671   */\n      dup6\n        /* \"#utility.yul\":3658:3680   */\n      add\n        /* \"#utility.yul\":3637:3690   */\n      tag_250\n      jump\t// in\n    tag_341:\n        /* \"#utility.yul\":3627:3690   */\n      swap2\n      pop\n        /* \"#utility.yul\":3583:3700   */\n      pop\n        /* \"#utility.yul\":3378:3707   */\n      swap3\n      swap2\n      pop\n      pop\n      jump\t// out\n        /* \"#utility.yul\":3713:3822   */\n    tag_257:\n        /* \"#utility.yul\":3794:3815   */\n      tag_343\n        /* \"#utility.yul\":3809:3814   */\n      dup2\n        /* \"#utility.yul\":3794:3815   */\n      tag_254\n      jump\t// in\n    tag_343:\n        /* \"#utility.yul\":3789:3792   */\n      dup3\n        /* \"#utility.yul\":3782:3816   */\n      mstore\n        /* \"#utility.yul\":3713:3822   */\n      pop\n      pop\n      jump\t// out\n        /* \"#utility.yul\":3828:4038   */\n    tag_35:\n        /* \"#utility.yul\":3915:3919   */\n      0x00\n        /* \"#utility.yul\":3953:3955   */\n      0x20\n        /* \"#utility.yul\":3942:3951   */\n      dup3\n        /* \"#utility.yul\":3938:3956   */\n      add\n        /* \"#utility.yul\":3930:3956   */\n      swap1\n      pop\n        /* \"#utility.yul\":3966:4031   */\n      tag_345\n        /* \"#utility.yul\":4028:4029   */\n      0x00\n        /* \"#utility.yul\":4017:4026   */\n      dup4\n        /* \"#utility.yul\":4013:4030   */\n      add\n        /* \"#utility.yul\":4004:4010   */\n      dup5\n        /* \"#utility.yul\":3966:4031   */\n      tag_257\n      jump\t// in\n    tag_345:\n        /* \"#utility.yul\":3828:4038   */\n      swap3\n      swap2\n      pop\n      pop\n      jump\t// out\n        /* \"#utility.yul\":4044:4373   */\n    tag_38:\n        /* \"#utility.yul\":4103:4109   */\n      0x00\n        /* \"#utility.yul\":4152:4154   */\n      0x20\n        /* \"#utility.yul\":4140:4149   */\n      dup3\n        /* \"#utility.yul\":4131:4138   */\n      dup5\n        /* \"#utility.yul\":4127:4150   */\n      sub\n        /* \"#utility.yul\":4123:4155   */\n      slt\n        /* \"#utility.yul\":4120:4239   */\n      iszero\n      tag_347\n      jumpi\n        /* \"#utility.yul\":4158:4237   */\n      tag_348\n      tag_246\n      jump\t// in\n    tag_348:\n        /* \"#utility.yul\":4120:4239   */\n    tag_347:\n        /* \"#utility.yul\":4278:4279   */\n      0x00\n        /* \"#utility.yul\":4303:4356   */\n      tag_349\n        /* \"#utility.yul\":4348:4355   */\n      dup5\n        /* \"#utility.yul\":4339:4345   */\n      dup3\n        /* \"#utility.yul\":4328:4337   */\n      dup6\n        /* \"#utility.yul\":4324:4346   */\n      add\n        /* \"#utility.yul\":4303:4356   */\n      tag_253\n      jump\t// in\n    tag_349:\n        /* \"#utility.yul\":4293:4356   */\n      swap2\n      pop\n        /* \"#utility.yul\":4249:4366   */\n      pop\n        /* \"#utility.yul\":4044:4373   */\n      swap3\n      swap2\n      pop\n      pop\n      jump\t// out\n        /* \"#utility.yul\":4379:4497   */\n    tag_258:\n        /* \"#utility.yul\":4466:4490   */\n      tag_351\n        /* \"#utility.yul\":4484:4489   */\n      dup2\n        /* \"#utility.yul\":4466:4490   */\n      tag_251\n      jump\t// in\n    tag_351:\n        /* \"#utility.yul\":4461:4464   */\n      dup3\n        /* \"#utility.yul\":4454:4491   */\n      mstore\n        /* \"#utility.yul\":4379:4497   */\n      pop\n      pop\n      jump\t// out\n        /* \"#utility.yul\":4503:4725   */\n    tag_51:\n        /* \"#utility.yul\":4596:4600   */\n      0x00\n        /* \"#utility.yul\":4634:4636   */\n      0x20\n        /* \"#utility.yul\":4623:4632   */\n      dup3\n        /* \"#utility.yul\":4619:4637   */\n      add\n        /* \"#utility.yul\":4611:4637   */\n      swap1\n      pop\n        /* \"#utility.yul\":4647:4718   */\n      tag_353\n        /* \"#utility.yul\":4715:4716   */\n      0x00\n        /* \"#utility.yul\":4704:4713   */\n      dup4\n        /* \"#utility.yul\":4700:4717   */\n      add\n        /* \"#utility.yul\":4691:4697   */\n      dup5\n        /* \"#utility.yul\":4647:4718   */\n      tag_258\n      jump\t// in\n    tag_353:\n        /* \"#utility.yul\":4503:4725   */\n      swap3\n      swap2\n      pop\n      pop\n      jump\t// out\n        /* \"#utility.yul\":4731:5199   */\n    tag_54:\n        /* \"#utility.yul\":4796:4802   */\n      0x00\n        /* \"#utility.yul\":4804:4810   */\n      0x00\n        /* \"#utility.yul\":4853:4855   */\n      0x40\n        /* \"#utility.yul\":4841:4850   */\n      dup4\n        /* \"#utility.yul\":4832:4839   */\n      dup6\n        /* \"#utility.yul\":4828:4851   */\n      sub\n        /* \"#utility.yul\":4824:4856   */\n      slt\n        /* \"#utility.yul\":4821:4940   */\n      iszero\n      tag_355\n      jumpi\n        /* \"#utility.yul\":4859:4938   */\n      tag_356\n      tag_246\n      jump\t// in\n    tag_356:\n        /* \"#utility.yul\":4821:4940   */\n    tag_355:\n        /* \"#utility.yul\":4979:4980   */\n      0x00\n        /* \"#utility.yul\":5004:5057   */\n      tag_357\n        /* \"#utility.yul\":5049:5056   */\n      dup6\n        /* \"#utility.yul\":5040:5046   */\n      dup3\n        /* \"#utility.yul\":5029:5038   */\n      dup7\n        /* \"#utility.yul\":5025:5047   */\n      add\n        /* \"#utility.yul\":5004:5057   */\n      tag_250\n      jump\t// in\n    tag_357:\n        /* \"#utility.yul\":4994:5057   */\n      swap3\n      pop\n        /* \"#utility.yul\":4950:5067   */\n      pop\n        /* \"#utility.yul\":5106:5108   */\n      0x20\n        /* \"#utility.yul\":5132:5182   */\n      tag_358\n        /* \"#utility.yul\":5174:5181   */\n      dup6\n        /* \"#utility.yul\":5165:5171   */\n      dup3\n        /* \"#utility.yul\":5154:5163   */\n      dup7\n        /* \"#utility.yul\":5150:5172   */\n      add\n        /* \"#utility.yul\":5132:5182   */\n      tag_256\n      jump\t// in\n    tag_358:\n        /* \"#utility.yul\":5122:5182   */\n      swap2\n      pop\n        /* \"#utility.yul\":5077:5192   */\n      pop\n        /* \"#utility.yul\":4731:5199   */\n      swap3\n      pop\n      swap3\n      swap1\n      pop\n      jump\t// out\n        /* \"#utility.yul\":5205:5323   */\n    tag_259:\n        /* \"#utility.yul\":5292:5316   */\n      tag_360\n        /* \"#utility.yul\":5310:5315   */\n      dup2\n        /* \"#utility.yul\":5292:5316   */\n      tag_248\n      jump\t// in\n    tag_360:\n        /* \"#utility.yul\":5287:5290   */\n      dup3\n        /* \"#utility.yul\":5280:5317   */\n      mstore\n        /* \"#utility.yul\":5205:5323   */\n      pop\n      pop\n      jump\t// out\n        /* \"#utility.yul\":5329:5551   */\n    tag_59:\n        /* \"#utility.yul\":5422:5426   */\n      0x00\n        /* \"#utility.yul\":5460:5462   */\n      0x20\n        /* \"#utility.yul\":5449:5458   */\n      dup3\n        /* \"#utility.yul\":5445:5463   */\n      add\n        /* \"#utility.yul\":5437:5463   */\n      swap1\n      pop\n        /* \"#utility.yul\":5473:5544   */\n      tag_362\n        /* \"#utility.yul\":5541:5542   */\n      0x00\n        /* \"#utility.yul\":5530:5539   */\n      dup4\n        /* \"#utility.yul\":5526:5543   */\n      add\n        /* \"#utility.yul\":5517:5523   */\n      dup5\n        /* \"#utility.yul\":5473:5544   */\n      tag_259\n      jump\t// in\n    tag_362:\n        /* \"#utility.yul\":5329:5551   */\n      swap3\n      swap2\n      pop\n      pop\n      jump\t// out\n        /* \"#utility.yul\":5557:6419   */\n    tag_77:\n        /* \"#utility.yul\":5806:5810   */\n      0x00\n        /* \"#utility.yul\":5844:5847   */\n      0xe0\n        /* \"#utility.yul\":5833:5842   */\n      dup3\n        /* \"#utility.yul\":5829:5848   */\n      add\n        /* \"#utility.yul\":5821:5848   */\n      swap1\n      pop\n        /* \"#utility.yul\":5858:5929   */\n      tag_364\n        /* \"#utility.yul\":5926:5927   */\n      0x00\n        /* \"#utility.yul\":5915:5924   */\n      dup4\n        /* \"#utility.yul\":5911:5928   */\n      add\n        /* \"#utility.yul\":5902:5908   */\n      dup11\n        /* \"#utility.yul\":5858:5929   */\n      tag_259\n      jump\t// in\n    tag_364:\n        /* \"#utility.yul\":5939:6011   */\n      tag_365\n        /* \"#utility.yul\":6007:6009   */\n      0x20\n        /* \"#utility.yul\":5996:6005   */\n      dup4\n        /* \"#utility.yul\":5992:6010   */\n      add\n        /* \"#utility.yul\":5983:5989   */\n      dup10\n        /* \"#utility.yul\":5939:6011   */\n      tag_259\n      jump\t// in\n    tag_365:\n        /* \"#utility.yul\":6021:6093   */\n      tag_366\n        /* \"#utility.yul\":6089:6091   */\n      0x40\n        /* \"#utility.yul\":6078:6087   */\n      dup4\n        /* \"#utility.yul\":6074:6092   */\n      add\n        /* \"#utility.yul\":6065:6071   */\n      dup9\n        /* \"#utility.yul\":6021:6093   */\n      tag_258\n      jump\t// in\n    tag_366:\n        /* \"#utility.yul\":6103:6175   */\n      tag_367\n        /* \"#utility.yul\":6171:6173   */\n      0x60\n        /* \"#utility.yul\":6160:6169   */\n      dup4\n        /* \"#utility.yul\":6156:6174   */\n      add\n        /* \"#utility.yul\":6147:6153   */\n      dup8\n        /* \"#utility.yul\":6103:6175   */\n      tag_258\n      jump\t// in\n    tag_367:\n        /* \"#utility.yul\":6185:6258   */\n      tag_368\n        /* \"#utility.yul\":6253:6256   */\n      0x80\n        /* \"#utility.yul\":6242:6251   */\n      dup4\n        /* \"#utility.yul\":6238:6257   */\n      add\n        /* \"#utility.yul\":6229:6235   */\n      dup7\n        /* \"#utility.yul\":6185:6258   */\n      tag_258\n      jump\t// in\n    tag_368:\n        /* \"#utility.yul\":6268:6335   */\n      tag_369\n        /* \"#utility.yul\":6330:6333   */\n      0xa0\n        /* \"#utility.yul\":6319:6328   */\n      dup4\n        /* \"#utility.yul\":6315:6334   */\n      add\n        /* \"#utility.yul\":6306:6312   */\n      dup6\n        /* \"#utility.yul\":6268:6335   */\n      tag_257\n      jump\t// in\n    tag_369:\n        /* \"#utility.yul\":6345:6412   */\n      tag_370\n        /* \"#utility.yul\":6407:6410   */\n      0xc0\n        /* \"#utility.yul\":6396:6405   */\n      dup4\n        /* \"#utility.yul\":6392:6411   */\n      add\n        /* \"#utility.yul\":6383:6389   */\n      dup5\n        /* \"#utility.yul\":6345:6412   */\n      tag_257\n      jump\t// in\n    tag_370:\n        /* \"#utility.yul\":5557:6419   */\n      swap9\n      swap8\n      pop\n      pop\n      pop\n      pop\n      pop\n      pop\n      pop\n      pop\n      jump\t// out\n        /* \"#utility.yul\":6425:6594   */\n    tag_260:\n        /* \"#utility.yul\":6509:6520   */\n      0x00\n        /* \"#utility.yul\":6543:6549   */\n      dup3\n        /* \"#utility.yul\":6538:6541   */\n      dup3\n        /* \"#utility.yul\":6531:6550   */\n      mstore\n        /* \"#utility.yul\":6583:6587   */\n      0x20\n        /* \"#utility.yul\":6578:6581   */\n      dup3\n        /* \"#utility.yul\":6574:6588   */\n      add\n        /* \"#utility.yul\":6559:6588   */\n      swap1\n      pop\n        /* \"#utility.yul\":6425:6594   */\n      swap3\n      swap2\n      pop\n      pop\n      jump\t// out\n        /* \"#utility.yul\":6600:6774   */\n    tag_261:\n        /* \"#utility.yul\":6740:6766   */\n      0x4e465420636f6e7472616374206e6f7420616c6c6f7765640000000000000000\n        /* \"#utility.yul\":6736:6737   */\n      0x00\n        /* \"#utility.yul\":6728:6734   */\n      dup3\n        /* \"#utility.yul\":6724:6738   */\n      add\n        /* \"#utility.yul\":6717:6767   */\n      mstore\n        /* \"#utility.yul\":6600:6774   */\n      pop\n      jump\t// out\n        /* \"#utility.yul\":6780:7146   */\n    tag_262:\n        /* \"#utility.yul\":6922:6925   */\n      0x00\n        /* \"#utility.yul\":6943:7010   */\n      tag_374\n        /* \"#utility.yul\":7007:7009   */\n      0x18\n        /* \"#utility.yul\":7002:7005   */\n      dup4\n        /* \"#utility.yul\":6943:7010   */\n      tag_260\n      jump\t// in\n    tag_374:\n        /* \"#utility.yul\":6936:7010   */\n      swap2\n      pop\n        /* \"#utility.yul\":7019:7112   */\n      tag_375\n        /* \"#utility.yul\":7108:7111   */\n      dup3\n        /* \"#utility.yul\":7019:7112   */\n      tag_261\n      jump\t// in\n    tag_375:\n        /* \"#utility.yul\":7137:7139   */\n      0x20\n        /* \"#utility.yul\":7132:7135   */\n      dup3\n        /* \"#utility.yul\":7128:7140   */\n      add\n        /* \"#utility.yul\":7121:7140   */\n      swap1\n      pop\n        /* \"#utility.yul\":6780:7146   */\n      swap2\n      swap1\n      pop\n      jump\t// out\n        /* \"#utility.yul\":7152:7571   */\n    tag_87:\n        /* \"#utility.yul\":7318:7322   */\n      0x00\n        /* \"#utility.yul\":7356:7358   */\n      0x20\n        /* \"#utility.yul\":7345:7354   */\n      dup3\n        /* \"#utility.yul\":7341:7359   */\n      add\n        /* \"#utility.yul\":7333:7359   */\n      swap1\n      pop\n        /* \"#utility.yul\":7405:7414   */\n      dup2\n        /* \"#utility.yul\":7399:7403   */\n      dup2\n        /* \"#utility.yul\":7395:7415   */\n      sub\n        /* \"#utility.yul\":7391:7392   */\n      0x00\n        /* \"#utility.yul\":7380:7389   */\n      dup4\n        /* \"#utility.yul\":7376:7393   */\n      add\n        /* \"#utility.yul\":7369:7416   */\n      mstore\n        /* \"#utility.yul\":7433:7564   */\n      tag_377\n        /* \"#utility.yul\":7559:7563   */\n      dup2\n        /* \"#utility.yul\":7433:7564   */\n      tag_262\n      jump\t// in\n    tag_377:\n        /* \"#utility.yul\":7425:7564   */\n      swap1\n      pop\n        /* \"#utility.yul\":7152:7571   */\n      swap2\n      swap1\n      pop\n      jump\t// out\n        /* \"#utility.yul\":7577:7737   */\n    tag_263:\n        /* \"#utility.yul\":7717:7729   */\n      0x7072696365207a65726f00000000000000000000000000000000000000000000\n        /* \"#utility.yul\":7713:7714   */\n      0x00\n        /* \"#utility.yul\":7705:7711   */\n      dup3\n        /* \"#utility.yul\":7701:7715   */\n      add\n        /* \"#utility.yul\":7694:7730   */\n      mstore\n        /* \"#utility.yul\":7577:7737   */\n      pop\n      jump\t// out\n        /* \"#utility.yul\":7743:8109   */\n    tag_264:\n        /* \"#utility.yul\":7885:7888   */\n      0x00\n        /* \"#utility.yul\":7906:7973   */\n      tag_380\n        /* \"#utility.yul\":7970:7972   */\n      0x0a\n        /* \"#utility.yul\":7965:7968   */\n      dup4\n        /* \"#utility.yul\":7906:7973   */\n      tag_260\n      jump\t// in\n    tag_380:\n        /* \"#utility.yul\":7899:7973   */\n      swap2\n      pop\n        /* \"#utility.yul\":7982:8075   */\n      tag_381\n        /* \"#utility.yul\":8071:8074   */\n      dup3\n        /* \"#utility.yul\":7982:8075   */\n      tag_263\n      jump\t// in\n    tag_381:\n        /* \"#utility.yul\":8100:8102   */\n      0x20\n        /* \"#utility.yul\":8095:8098   */\n      dup3\n        /* \"#utility.yul\":8091:8103   */\n      add\n        /* \"#utility.yul\":8084:8103   */\n      swap1\n      pop\n        /* \"#utility.yul\":7743:8109   */\n      swap2\n      swap1\n      pop\n      jump\t// out\n        /* \"#utility.yul\":8115:8534   */\n    tag_90:\n        /* \"#utility.yul\":8281:8285   */\n      0x00\n        /* \"#utility.yul\":8319:8321   */\n      0x20\n        /* \"#utility.yul\":8308:8317   */\n      dup3\n        /* \"#utility.yul\":8304:8322   */\n      add\n        /* \"#utility.yul\":8296:8322   */\n      swap1\n      pop\n        /* \"#utility.yul\":8368:8377   */\n      dup2\n        /* \"#utility.yul\":8362:8366   */\n      dup2\n        /* \"#utility.yul\":8358:8378   */\n      sub\n        /* \"#utility.yul\":8354:8355   */\n      0x00\n        /* \"#utility.yul\":8343:8352   */\n      dup4\n        /* \"#utility.yul\":8339:8356   */\n      add\n        /* \"#utility.yul\":8332:8379   */\n      mstore\n        /* \"#utility.yul\":8396:8527   */\n      tag_383\n        /* \"#utility.yul\":8522:8526   */\n      dup2\n        /* \"#utility.yul\":8396:8527   */\n      tag_264\n      jump\t// in\n    tag_383:\n        /* \"#utility.yul\":8388:8527   */\n      swap1\n      pop\n        /* \"#utility.yul\":8115:8534   */\n      swap2\n      swap1\n      pop\n      jump\t// out\n        /* \"#utility.yul\":8540:8701   */\n    tag_265:\n        /* \"#utility.yul\":8680:8693   */\n      0x616d6f756e74207a65726f000000000000000000000000000000000000000000\n        /* \"#utility.yul\":8676:8677   */\n      0x00\n        /* \"#utility.yul\":8668:8674   */\n      dup3\n        /* \"#utility.yul\":8664:8678   */\n      add\n        /* \"#utility.yul\":8657:8694   */\n      mstore\n        /* \"#utility.yul\":8540:8701   */\n      pop\n      jump\t// out\n        /* \"#utility.yul\":8707:9073   */\n    tag_266:\n        /* \"#utility.yul\":8849:8852   */\n      0x00\n        /* \"#utility.yul\":8870:8937   */\n      tag_386\n        /* \"#utility.yul\":8934:8936   */\n      0x0b\n        /* \"#utility.yul\":8929:8932   */\n      dup4\n        /* \"#utility.yul\":8870:8937   */\n      tag_260\n      jump\t// in\n    tag_386:\n        /* \"#utility.yul\":8863:8937   */\n      swap2\n      pop\n        /* \"#utility.yul\":8946:9039   */\n      tag_387\n        /* \"#utility.yul\":9035:9038   */\n      dup3\n        /* \"#utility.yul\":8946:9039   */\n      tag_265\n      jump\t// in\n    tag_387:\n        /* \"#utility.yul\":9064:9066   */\n      0x20\n        /* \"#utility.yul\":9059:9062   */\n      dup3\n        /* \"#utility.yul\":9055:9067   */\n      add\n        /* \"#utility.yul\":9048:9067   */\n      swap1\n      pop\n        /* \"#utility.yul\":8707:9073   */\n      swap2\n      swap1\n      pop\n      jump\t// out\n        /* \"#utility.yul\":9079:9498   */\n    tag_94:\n        /* \"#utility.yul\":9245:9249   */\n      0x00\n        /* \"#utility.yul\":9283:9285   */\n      0x20\n        /* \"#utility.yul\":9272:9281   */\n      dup3\n        /* \"#utility.yul\":9268:9286   */\n      add\n        /* \"#utility.yul\":9260:9286   */\n      swap1\n      pop\n        /* \"#utility.yul\":9332:9341   */\n      dup2\n        /* \"#utility.yul\":9326:9330   */\n      dup2\n        /* \"#utility.yul\":9322:9342   */\n      sub\n        /* \"#utility.yul\":9318:9319   */\n      0x00\n        /* \"#utility.yul\":9307:9316   */\n      dup4\n        /* \"#utility.yul\":9303:9320   */\n      add\n        /* \"#utility.yul\":9296:9343   */\n      mstore\n        /* \"#utility.yul\":9360:9491   */\n      tag_389\n        /* \"#utility.yul\":9486:9490   */\n      dup2\n        /* \"#utility.yul\":9360:9491   */\n      tag_266\n      jump\t// in\n    tag_389:\n        /* \"#utility.yul\":9352:9491   */\n      swap1\n      pop\n        /* \"#utility.yul\":9079:9498   */\n      swap2\n      swap1\n      pop\n      jump\t// out\n        /* \"#utility.yul\":9504:9836   */\n    tag_96:\n        /* \"#utility.yul\":9625:9629   */\n      0x00\n        /* \"#utility.yul\":9663:9665   */\n      0x40\n        /* \"#utility.yul\":9652:9661   */\n      dup3\n        /* \"#utility.yul\":9648:9666   */\n      add\n        /* \"#utility.yul\":9640:9666   */\n      swap1\n      pop\n        /* \"#utility.yul\":9676:9747   */\n      tag_391\n        /* \"#utility.yul\":9744:9745   */\n      0x00\n        /* \"#utility.yul\":9733:9742   */\n      dup4\n        /* \"#utility.yul\":9729:9746   */\n      add\n        /* \"#utility.yul\":9720:9726   */\n      dup6\n        /* \"#utility.yul\":9676:9747   */\n      tag_259\n      jump\t// in\n    tag_391:\n        /* \"#utility.yul\":9757:9829   */\n      tag_392\n        /* \"#utility.yul\":9825:9827   */\n      0x20\n        /* \"#utility.yul\":9814:9823   */\n      dup4\n        /* \"#utility.yul\":9810:9828   */\n      add\n        /* \"#utility.yul\":9801:9807   */\n      dup5\n        /* \"#utility.yul\":9757:9829   */\n      tag_258\n      jump\t// in\n    tag_392:\n        /* \"#utility.yul\":9504:9836   */\n      swap4\n      swap3\n      pop\n      pop\n      pop\n      jump\t// out\n        /* \"#utility.yul\":9842:9985   */\n    tag_267:\n        /* \"#utility.yul\":9899:9904   */\n      0x00\n        /* \"#utility.yul\":9930:9936   */\n      dup2\n        /* \"#utility.yul\":9924:9937   */\n      mload\n        /* \"#utility.yul\":9915:9937   */\n      swap1\n      pop\n        /* \"#utility.yul\":9946:9979   */\n      tag_394\n        /* \"#utility.yul\":9973:9978   */\n      dup2\n        /* \"#utility.yul\":9946:9979   */\n      tag_252\n      jump\t// in\n    tag_394:\n        /* \"#utility.yul\":9842:9985   */\n      swap3\n      swap2\n      pop\n      pop\n      jump\t// out\n        /* \"#utility.yul\":9991:10342   */\n    tag_100:\n        /* \"#utility.yul\":10061:10067   */\n      0x00\n        /* \"#utility.yul\":10110:10112   */\n      0x20\n        /* \"#utility.yul\":10098:10107   */\n      dup3\n        /* \"#utility.yul\":10089:10096   */\n      dup5\n        /* \"#utility.yul\":10085:10108   */\n      sub\n        /* \"#utility.yul\":10081:10113   */\n      slt\n        /* \"#utility.yul\":10078:10197   */\n      iszero\n      tag_396\n      jumpi\n        /* \"#utility.yul\":10116:10195   */\n      tag_397\n      tag_246\n      jump\t// in\n    tag_397:\n        /* \"#utility.yul\":10078:10197   */\n    tag_396:\n        /* \"#utility.yul\":10236:10237   */\n      0x00\n        /* \"#utility.yul\":10261:10325   */\n      tag_398\n        /* \"#utility.yul\":10317:10324   */\n      dup5\n        /* \"#utility.yul\":10308:10314   */\n      dup3\n        /* \"#utility.yul\":10297:10306   */\n      dup6\n        /* \"#utility.yul\":10293:10315   */\n      add\n        /* \"#utility.yul\":10261:10325   */\n      tag_267\n      jump\t// in\n    tag_398:\n        /* \"#utility.yul\":10251:10325   */\n      swap2\n      pop\n        /* \"#utility.yul\":10207:10335   */\n      pop\n        /* \"#utility.yul\":9991:10342   */\n      swap3\n      swap2\n      pop\n      pop\n      jump\t// out\n        /* \"#utility.yul\":10348:10518   */\n    tag_268:\n        /* \"#utility.yul\":10488:10510   */\n      0x696e73756666696369656e742062616c616e6365000000000000000000000000\n        /* \"#utility.yul\":10484:10485   */\n      0x00\n        /* \"#utility.yul\":10476:10482   */\n      dup3\n        /* \"#utility.yul\":10472:10486   */\n      add\n        /* \"#utility.yul\":10465:10511   */\n      mstore\n        /* \"#utility.yul\":10348:10518   */\n      pop\n      jump\t// out\n        /* \"#utility.yul\":10524:10890   */\n    tag_269:\n        /* \"#utility.yul\":10666:10669   */\n      0x00\n        /* \"#utility.yul\":10687:10754   */\n      tag_401\n        /* \"#utility.yul\":10751:10753   */\n      0x14\n        /* \"#utility.yul\":10746:10749   */\n      dup4\n        /* \"#utility.yul\":10687:10754   */\n      tag_260\n      jump\t// in\n    tag_401:\n        /* \"#utility.yul\":10680:10754   */\n      swap2\n      pop\n        /* \"#utility.yul\":10763:10856   */\n      tag_402\n        /* \"#utility.yul\":10852:10855   */\n      dup3\n        /* \"#utility.yul\":10763:10856   */\n      tag_268\n      jump\t// in\n    tag_402:\n        /* \"#utility.yul\":10881:10883   */\n      0x20\n        /* \"#utility.yul\":10876:10879   */\n      dup3\n        /* \"#utility.yul\":10872:10884   */\n      add\n        /* \"#utility.yul\":10865:10884   */\n      swap1\n      pop\n        /* \"#utility.yul\":10524:10890   */\n      swap2\n      swap1\n      pop\n      jump\t// out\n        /* \"#utility.yul\":10896:11315   */\n    tag_103:\n        /* \"#utility.yul\":11062:11066   */\n      0x00\n        /* \"#utility.yul\":11100:11102   */\n      0x20\n        /* \"#utility.yul\":11089:11098   */\n      dup3\n        /* \"#utility.yul\":11085:11103   */\n      add\n        /* \"#utility.yul\":11077:11103   */\n      swap1\n      pop\n        /* \"#utility.yul\":11149:11158   */\n      dup2\n        /* \"#utility.yul\":11143:11147   */\n      dup2\n        /* \"#utility.yul\":11139:11159   */\n      sub\n        /* \"#utility.yul\":11135:11136   */\n      0x00\n        /* \"#utility.yul\":11124:11133   */\n      dup4\n        /* \"#utility.yul\":11120:11137   */\n      add\n        /* \"#utility.yul\":11113:11160   */\n      mstore\n        /* \"#utility.yul\":11177:11308   */\n      tag_404\n        /* \"#utility.yul\":11303:11307   */\n      dup2\n        /* \"#utility.yul\":11177:11308   */\n      tag_269\n      jump\t// in\n    tag_404:\n        /* \"#utility.yul\":11169:11308   */\n      swap1\n      pop\n        /* \"#utility.yul\":10896:11315   */\n      swap2\n      swap1\n      pop\n      jump\t// out\n        /* \"#utility.yul\":11321:11653   */\n    tag_105:\n        /* \"#utility.yul\":11442:11446   */\n      0x00\n        /* \"#utility.yul\":11480:11482   */\n      0x40\n        /* \"#utility.yul\":11469:11478   */\n      dup3\n        /* \"#utility.yul\":11465:11483   */\n      add\n        /* \"#utility.yul\":11457:11483   */\n      swap1\n      pop\n        /* \"#utility.yul\":11493:11564   */\n      tag_406\n        /* \"#utility.yul\":11561:11562   */\n      0x00\n        /* \"#utility.yul\":11550:11559   */\n      dup4\n        /* \"#utility.yul\":11546:11563   */\n      add\n        /* \"#utility.yul\":11537:11543   */\n      dup6\n        /* \"#utility.yul\":11493:11564   */\n      tag_259\n      jump\t// in\n    tag_406:\n        /* \"#utility.yul\":11574:11646   */\n      tag_407\n        /* \"#utility.yul\":11642:11644   */\n      0x20\n        /* \"#utility.yul\":11631:11640   */\n      dup4\n        /* \"#utility.yul\":11627:11645   */\n      add\n        /* \"#utility.yul\":11618:11624   */\n      dup5\n        /* \"#utility.yul\":11574:11646   */\n      tag_259\n      jump\t// in\n    tag_407:\n        /* \"#utility.yul\":11321:11653   */\n      swap4\n      swap3\n      pop\n      pop\n      pop\n      jump\t// out\n        /* \"#utility.yul\":11659:11796   */\n    tag_270:\n        /* \"#utility.yul\":11713:11718   */\n      0x00\n        /* \"#utility.yul\":11744:11750   */\n      dup2\n        /* \"#utility.yul\":11738:11751   */\n      mload\n        /* \"#utility.yul\":11729:11751   */\n      swap1\n      pop\n        /* \"#utility.yul\":11760:11790   */\n      tag_409\n        /* \"#utility.yul\":11784:11789   */\n      dup2\n        /* \"#utility.yul\":11760:11790   */\n      tag_255\n      jump\t// in\n    tag_409:\n        /* \"#utility.yul\":11659:11796   */\n      swap3\n      swap2\n      pop\n      pop\n      jump\t// out\n        /* \"#utility.yul\":11802:12147   */\n    tag_109:\n        /* \"#utility.yul\":11869:11875   */\n      0x00\n        /* \"#utility.yul\":11918:11920   */\n      0x20\n        /* \"#utility.yul\":11906:11915   */\n      dup3\n        /* \"#utility.yul\":11897:11904   */\n      dup5\n        /* \"#utility.yul\":11893:11916   */\n      sub\n        /* \"#utility.yul\":11889:11921   */\n      slt\n        /* \"#utility.yul\":11886:12005   */\n      iszero\n      tag_411\n      jumpi\n        /* \"#utility.yul\":11924:12003   */\n      tag_412\n      tag_246\n      jump\t// in\n    tag_412:\n        /* \"#utility.yul\":11886:12005   */\n    tag_411:\n        /* \"#utility.yul\":12044:12045   */\n      0x00\n        /* \"#utility.yul\":12069:12130   */\n      tag_413\n        /* \"#utility.yul\":12122:12129   */\n      dup5\n        /* \"#utility.yul\":12113:12119   */\n      dup3\n        /* \"#utility.yul\":12102:12111   */\n      dup6\n        /* \"#utility.yul\":12098:12120   */\n      add\n        /* \"#utility.yul\":12069:12130   */\n      tag_270\n      jump\t// in\n    tag_413:\n        /* \"#utility.yul\":12059:12130   */\n      swap2\n      pop\n        /* \"#utility.yul\":12015:12140   */\n      pop\n        /* \"#utility.yul\":11802:12147   */\n      swap3\n      swap2\n      pop\n      pop\n      jump\t// out\n        /* \"#utility.yul\":12153:12315   */\n    tag_271:\n        /* \"#utility.yul\":12293:12307   */\n      0x6e6f7420617070726f7665640000000000000000000000000000000000000000\n        /* \"#utility.yul\":12289:12290   */\n      0x00\n        /* \"#utility.yul\":12281:12287   */\n      dup3\n        /* \"#utility.yul\":12277:12291   */\n      add\n        /* \"#utility.yul\":12270:12308   */\n      mstore\n        /* \"#utility.yul\":12153:12315   */\n      pop\n      jump\t// out\n        /* \"#utility.yul\":12321:12687   */\n    tag_272:\n        /* \"#utility.yul\":12463:12466   */\n      0x00\n        /* \"#utility.yul\":12484:12551   */\n      tag_416\n        /* \"#utility.yul\":12548:12550   */\n      0x0c\n        /* \"#utility.yul\":12543:12546   */\n      dup4\n        /* \"#utility.yul\":12484:12551   */\n      tag_260\n      jump\t// in\n    tag_416:\n        /* \"#utility.yul\":12477:12551   */\n      swap2\n      pop\n        /* \"#utility.yul\":12560:12653   */\n      tag_417\n        /* \"#utility.yul\":12649:12652   */\n      dup3\n        /* \"#utility.yul\":12560:12653   */\n      tag_271\n      jump\t// in\n    tag_417:\n        /* \"#utility.yul\":12678:12680   */\n      0x20\n        /* \"#utility.yul\":12673:12676   */\n      dup3\n        /* \"#utility.yul\":12669:12681   */\n      add\n        /* \"#utility.yul\":12662:12681   */\n      swap1\n      pop\n        /* \"#utility.yul\":12321:12687   */\n      swap2\n      swap1\n      pop\n      jump\t// out\n        /* \"#utility.yul\":12693:13112   */\n    tag_112:\n        /* \"#utility.yul\":12859:12863   */\n      0x00\n        /* \"#utility.yul\":12897:12899   */\n      0x20\n        /* \"#utility.yul\":12886:12895   */\n      dup3\n        /* \"#utility.yul\":12882:12900   */\n      add\n        /* \"#utility.yul\":12874:12900   */\n      swap1\n      pop\n        /* \"#utility.yul\":12946:12955   */\n      dup2\n        /* \"#utility.yul\":12940:12944   */\n      dup2\n        /* \"#utility.yul\":12936:12956   */\n      sub\n        /* \"#utility.yul\":12932:12933   */\n      0x00\n        /* \"#utility.yul\":12921:12930   */\n      dup4\n        /* \"#utility.yul\":12917:12934   */\n      add\n        /* \"#utility.yul\":12910:12957   */\n      mstore\n        /* \"#utility.yul\":12974:13105   */\n      tag_419\n        /* \"#utility.yul\":13100:13104   */\n      dup2\n        /* \"#utility.yul\":12974:13105   */\n      tag_272\n      jump\t// in\n    tag_419:\n        /* \"#utility.yul\":12966:13105   */\n      swap1\n      pop\n        /* \"#utility.yul\":12693:13112   */\n      swap2\n      swap1\n      pop\n      jump\t// out\n        /* \"#utility.yul\":13118:13295   */\n    tag_273:\n        /* \"#utility.yul\":13258:13287   */\n      0x616d6f756e74206d757374206265203120666f72204552433732310000000000\n        /* \"#utility.yul\":13254:13255   */\n      0x00\n        /* \"#utility.yul\":13246:13252   */\n      dup3\n        /* \"#utility.yul\":13242:13256   */\n      add\n        /* \"#utility.yul\":13235:13288   */\n      mstore\n        /* \"#utility.yul\":13118:13295   */\n      pop\n      jump\t// out\n        /* \"#utility.yul\":13301:13667   */\n    tag_274:\n        /* \"#utility.yul\":13443:13446   */\n      0x00\n        /* \"#utility.yul\":13464:13531   */\n      tag_422\n        /* \"#utility.yul\":13528:13530   */\n      0x1b\n        /* \"#utility.yul\":13523:13526   */\n      dup4\n        /* \"#utility.yul\":13464:13531   */\n      tag_260\n      jump\t// in\n    tag_422:\n        /* \"#utility.yul\":13457:13531   */\n      swap2\n      pop\n        /* \"#utility.yul\":13540:13633   */\n      tag_423\n        /* \"#utility.yul\":13629:13632   */\n      dup3\n        /* \"#utility.yul\":13540:13633   */\n      tag_273\n      jump\t// in\n    tag_423:\n        /* \"#utility.yul\":13658:13660   */\n      0x20\n        /* \"#utility.yul\":13653:13656   */\n      dup3\n        /* \"#utility.yul\":13649:13661   */\n      add\n        /* \"#utility.yul\":13642:13661   */\n      swap1\n      pop\n        /* \"#utility.yul\":13301:13667   */\n      swap2\n      swap1\n      pop\n      jump\t// out\n        /* \"#utility.yul\":13673:14092   */\n    tag_116:\n        /* \"#utility.yul\":13839:13843   */\n      0x00\n        /* \"#utility.yul\":13877:13879   */\n      0x20\n        /* \"#utility.yul\":13866:13875   */\n      dup3\n        /* \"#utility.yul\":13862:13880   */\n      add\n        /* \"#utility.yul\":13854:13880   */\n      swap1\n      pop\n        /* \"#utility.yul\":13926:13935   */\n      dup2\n        /* \"#utility.yul\":13920:13924   */\n      dup2\n        /* \"#utility.yul\":13916:13936   */\n      sub\n        /* \"#utility.yul\":13912:13913   */\n      0x00\n        /* \"#utility.yul\":13901:13910   */\n      dup4\n        /* \"#utility.yul\":13897:13914   */\n      add\n        /* \"#utility.yul\":13890:13937   */\n      mstore\n        /* \"#utility.yul\":13954:14085   */\n      tag_425\n        /* \"#utility.yul\":14080:14084   */\n      dup2\n        /* \"#utility.yul\":13954:14085   */\n      tag_274\n      jump\t// in\n    tag_425:\n        /* \"#utility.yul\":13946:14085   */\n      swap1\n      pop\n        /* \"#utility.yul\":13673:14092   */\n      swap2\n      swap1\n      pop\n      jump\t// out\n        /* \"#utility.yul\":14098:14241   */\n    tag_275:\n        /* \"#utility.yul\":14155:14160   */\n      0x00\n        /* \"#utility.yul\":14186:14192   */\n      dup2\n        /* \"#utility.yul\":14180:14193   */\n      mload\n        /* \"#utility.yul\":14171:14193   */\n      swap1\n      pop\n        /* \"#utility.yul\":14202:14235   */\n      tag_427\n        /* \"#utility.yul\":14229:14234   */\n      dup2\n        /* \"#utility.yul\":14202:14235   */\n      tag_249\n      jump\t// in\n    tag_427:\n        /* \"#utility.yul\":14098:14241   */\n      swap3\n      swap2\n      pop\n      pop\n      jump\t// out\n        /* \"#utility.yul\":14247:14598   */\n    tag_121:\n        /* \"#utility.yul\":14317:14323   */\n      0x00\n        /* \"#utility.yul\":14366:14368   */\n      0x20\n        /* \"#utility.yul\":14354:14363   */\n      dup3\n        /* \"#utility.yul\":14345:14352   */\n      dup5\n        /* \"#utility.yul\":14341:14364   */\n      sub\n        /* \"#utility.yul\":14337:14369   */\n      slt\n        /* \"#utility.yul\":14334:14453   */\n      iszero\n      tag_429\n      jumpi\n        /* \"#utility.yul\":14372:14451   */\n      tag_430\n      tag_246\n      jump\t// in\n    tag_430:\n        /* \"#utility.yul\":14334:14453   */\n    tag_429:\n        /* \"#utility.yul\":14492:14493   */\n      0x00\n        /* \"#utility.yul\":14517:14581   */\n      tag_431\n        /* \"#utility.yul\":14573:14580   */\n      dup5\n        /* \"#utility.yul\":14564:14570   */\n      dup3\n        /* \"#utility.yul\":14553:14562   */\n      dup6\n        /* \"#utility.yul\":14549:14571   */\n      add\n        /* \"#utility.yul\":14517:14581   */\n      tag_275\n      jump\t// in\n    tag_431:\n        /* \"#utility.yul\":14507:14581   */\n      swap2\n      pop\n        /* \"#utility.yul\":14463:14591   */\n      pop\n        /* \"#utility.yul\":14247:14598   */\n      swap3\n      swap2\n      pop\n      pop\n      jump\t// out\n        /* \"#utility.yul\":14604:14763   */\n    tag_276:\n        /* \"#utility.yul\":14744:14755   */\n      0x6e6f74206f776e65720000000000000000000000000000000000000000000000\n        /* \"#utility.yul\":14740:14741   */\n      0x00\n        /* \"#utility.yul\":14732:14738   */\n      dup3\n        /* \"#utility.yul\":14728:14742   */\n      add\n        /* \"#utility.yul\":14721:14756   */\n      mstore\n        /* \"#utility.yul\":14604:14763   */\n      pop\n      jump\t// out\n        /* \"#utility.yul\":14769:15134   */\n    tag_277:\n        /* \"#utility.yul\":14911:14914   */\n      0x00\n        /* \"#utility.yul\":14932:14998   */\n      tag_434\n        /* \"#utility.yul\":14996:14997   */\n      0x09\n        /* \"#utility.yul\":14991:14994   */\n      dup4\n        /* \"#utility.yul\":14932:14998   */\n      tag_260\n      jump\t// in\n    tag_434:\n        /* \"#utility.yul\":14925:14998   */\n      swap2\n      pop\n        /* \"#utility.yul\":15007:15100   */\n      tag_435\n        /* \"#utility.yul\":15096:15099   */\n      dup3\n        /* \"#utility.yul\":15007:15100   */\n      tag_276\n      jump\t// in\n    tag_435:\n        /* \"#utility.yul\":15125:15127   */\n      0x20\n        /* \"#utility.yul\":15120:15123   */\n      dup3\n        /* \"#utility.yul\":15116:15128   */\n      add\n        /* \"#utility.yul\":15109:15128   */\n      swap1\n      pop\n        /* \"#utility.yul\":14769:15134   */\n      swap2\n      swap1\n      pop\n      jump\t// out\n        /* \"#utility.yul\":15140:15559   */\n    tag_124:\n        /* \"#utility.yul\":15306:15310   */\n      0x00\n        /* \"#utility.yul\":15344:15346   */\n      0x20\n        /* \"#utility.yul\":15333:15342   */\n      dup3\n        /* \"#utility.yul\":15329:15347   */\n      add\n        /* \"#utility.yul\":15321:15347   */\n      swap1\n      pop\n        /* \"#utility.yul\":15393:15402   */\n      dup2\n        /* \"#utility.yul\":15387:15391   */\n      dup2\n        /* \"#utility.yul\":15383:15403   */\n      sub\n        /* \"#utility.yul\":15379:15380   */\n      0x00\n        /* \"#utility.yul\":15368:15377   */\n      dup4\n        /* \"#utility.yul\":15364:15381   */\n      add\n        /* \"#utility.yul\":15357:15404   */\n      mstore\n        /* \"#utility.yul\":15421:15552   */\n      tag_437\n        /* \"#utility.yul\":15547:15551   */\n      dup2\n        /* \"#utility.yul\":15421:15552   */\n      tag_277\n      jump\t// in\n    tag_437:\n        /* \"#utility.yul\":15413:15552   */\n      swap1\n      pop\n        /* \"#utility.yul\":15140:15559   */\n      swap2\n      swap1\n      pop\n      jump\t// out\n        /* \"#utility.yul\":15565:15745   */\n    tag_278:\n        /* \"#utility.yul\":15613:15690   */\n      0x4e487b7100000000000000000000000000000000000000000000000000000000\n        /* \"#utility.yul\":15610:15611   */\n      0x00\n        /* \"#utility.yul\":15603:15691   */\n      mstore\n        /* \"#utility.yul\":15710:15714   */\n      0x11\n        /* \"#utility.yul\":15707:15708   */\n      0x04\n        /* \"#utility.yul\":15700:15715   */\n      mstore\n        /* \"#utility.yul\":15734:15738   */\n      0x24\n        /* \"#utility.yul\":15731:15732   */\n      0x00\n        /* \"#utility.yul\":15724:15739   */\n      revert\n        /* \"#utility.yul\":15751:15984   */\n    tag_137:\n        /* \"#utility.yul\":15790:15793   */\n      0x00\n        /* \"#utility.yul\":15813:15837   */\n      tag_440\n        /* \"#utility.yul\":15831:15836   */\n      dup3\n        /* \"#utility.yul\":15813:15837   */\n      tag_251\n      jump\t// in\n    tag_440:\n        /* \"#utility.yul\":15804:15837   */\n      swap2\n      pop\n        /* \"#utility.yul\":15859:15925   */\n      0xffffffffffffffffffffffffffffffffffffffffffffffffffffffffffffffff\n        /* \"#utility.yul\":15852:15857   */\n      dup3\n        /* \"#utility.yul\":15849:15926   */\n      sub\n        /* \"#utility.yul\":15846:15949   */\n      tag_441\n      jumpi\n        /* \"#utility.yul\":15929:15947   */\n      tag_442\n      tag_278\n      jump\t// in\n    tag_442:\n        /* \"#utility.yul\":15846:15949   */\n    tag_441:\n        /* \"#utility.yul\":15976:15977   */\n      0x01\n        /* \"#utility.yul\":15969:15974   */\n      dup3\n        /* \"#utility.yul\":15965:15978   */\n      add\n        /* \"#utility.yul\":15958:15978   */\n      swap1\n      pop\n        /* \"#utility.yul\":15751:15984   */\n      swap2\n      swap1\n      pop\n      jump\t// out\n        /* \"#utility.yul\":15990:16531   */\n    tag_139:\n        /* \"#utility.yul\":16161:16165   */\n      0x00\n        /* \"#utility.yul\":16199:16202   */\n      0x80\n        /* \"#utility.yul\":16188:16197   */\n      dup3\n        /* \"#utility.yul\":16184:16203   */\n      add\n        /* \"#utility.yul\":16176:16203   */\n      swap1\n      pop\n        /* \"#utility.yul\":16213:16284   */\n      tag_444\n        /* \"#utility.yul\":16281:16282   */\n      0x00\n        /* \"#utility.yul\":16270:16279   */\n      dup4\n        /* \"#utility.yul\":16266:16283   */\n      add\n        /* \"#utility.yul\":16257:16263   */\n      dup8\n        /* \"#utility.yul\":16213:16284   */\n      tag_258\n      jump\t// in\n    tag_444:\n        /* \"#utility.yul\":16294:16366   */\n      tag_445\n        /* \"#utility.yul\":16362:16364   */\n      0x20\n        /* \"#utility.yul\":16351:16360   */\n      dup4\n        /* \"#utility.yul\":16347:16365   */\n      add\n        /* \"#utility.yul\":16338:16344   */\n      dup7\n        /* \"#utility.yul\":16294:16366   */\n      tag_258\n      jump\t// in\n    tag_445:\n        /* \"#utility.yul\":16376:16448   */\n      tag_446\n        /* \"#utility.yul\":16444:16446   */\n      0x40\n        /* \"#utility.yul\":16433:16442   */\n      dup4\n        /* \"#utility.yul\":16429:16447   */\n      add\n        /* \"#utility.yul\":16420:16426   */\n      dup6\n        /* \"#utility.yul\":16376:16448   */\n      tag_258\n      jump\t// in\n    tag_446:\n        /* \"#utility.yul\":16458:16524   */\n      tag_447\n        /* \"#utility.yul\":16520:16522   */\n      0x60\n        /* \"#utility.yul\":16509:16518   */\n      dup4\n        /* \"#utility.yul\":16505:16523   */\n      add\n        /* \"#utility.yul\":16496:16502   */\n      dup5\n        /* \"#utility.yul\":16458:16524   */\n      tag_257\n      jump\t// in\n    tag_447:\n        /* \"#utility.yul\":15990:16531   */\n      swap6\n      swap5\n      pop\n      pop\n      pop\n      pop\n      pop\n      jump\t// out\n        /* \"#utility.yul\":16537:16703   */\n    tag_279:\n        /* \"#utility.yul\":16677:16695   */\n      0x6c697374696e6720696e61637469766500000000000000000000000000000000\n        /* \"#utility.yul\":16673:16674   */\n      0x00\n        /* \"#utility.yul\":16665:16671   */\n      dup3\n        /* \"#utility.yul\":16661:16675   */\n      add\n        /* \"#utility.yul\":16654:16696   */\n      mstore\n        /* \"#utility.yul\":16537:16703   */\n      pop\n      jump\t// out\n        /* \"#utility.yul\":16709:17075   */\n    tag_280:\n        /* \"#utility.yul\":16851:16854   */\n      0x00\n        /* \"#utility.yul\":16872:16939   */\n      tag_450\n        /* \"#utility.yul\":16936:16938   */\n      0x10\n        /* \"#utility.yul\":16931:16934   */\n      dup4\n        /* \"#utility.yul\":16872:16939   */\n      tag_260\n      jump\t// in\n    tag_450:\n        /* \"#utility.yul\":16865:16939   */\n      swap2\n      pop\n        /* \"#utility.yul\":16948:17041   */\n      tag_451\n        /* \"#utility.yul\":17037:17040   */\n      dup3\n        /* \"#utility.yul\":16948:17041   */\n      tag_279\n      jump\t// in\n    tag_451:\n        /* \"#utility.yul\":17066:17068   */\n      0x20\n        /* \"#utility.yul\":17061:17064   */\n      dup3\n        /* \"#utility.yul\":17057:17069   */\n      add\n        /* \"#utility.yul\":17050:17069   */\n      swap1\n      pop\n        /* \"#utility.yul\":16709:17075   */\n      swap2\n      swap1\n      pop\n      jump\t// out\n        /* \"#utility.yul\":17081:17500   */\n    tag_148:\n        /* \"#utility.yul\":17247:17251   */\n      0x00\n        /* \"#utility.yul\":17285:17287   */\n      0x20\n        /* \"#utility.yul\":17274:17283   */\n      dup3\n        /* \"#utility.yul\":17270:17288   */\n      add\n        /* \"#utility.yul\":17262:17288   */\n      swap1\n      pop\n        /* \"#utility.yul\":17334:17343   */\n      dup2\n        /* \"#utility.yul\":17328:17332   */\n      dup2\n        /* \"#utility.yul\":17324:17344   */\n      sub\n        /* \"#utility.yul\":17320:17321   */\n      0x00\n        /* \"#utility.yul\":17309:17318   */\n      dup4\n        /* \"#utility.yul\":17305:17322   */\n      add\n        /* \"#utility.yul\":17298:17345   */\n      mstore\n        /* \"#utility.yul\":17362:17493   */\n      tag_453\n        /* \"#utility.yul\":17488:17492   */\n      dup2\n        /* \"#utility.yul\":17362:17493   */\n      tag_280\n      jump\t// in\n    tag_453:\n        /* \"#utility.yul\":17354:17493   */\n      swap1\n      pop\n        /* \"#utility.yul\":17081:17500   */\n      swap2\n      swap1\n      pop\n      jump\t// out\n        /* \"#utility.yul\":17506:17916   */\n    tag_150:\n        /* \"#utility.yul\":17546:17553   */\n      0x00\n        /* \"#utility.yul\":17569:17589   */\n      tag_455\n        /* \"#utility.yul\":17587:17588   */\n      dup3\n        /* \"#utility.yul\":17569:17589   */\n      tag_251\n      jump\t// in\n    tag_455:\n        /* \"#utility.yul\":17564:17589   */\n      swap2\n      pop\n        /* \"#utility.yul\":17603:17623   */\n      tag_456\n        /* \"#utility.yul\":17621:17622   */\n      dup4\n        /* \"#utility.yul\":17603:17623   */\n      tag_251\n      jump\t// in\n    tag_456:\n        /* \"#utility.yul\":17598:17623   */\n      swap3\n      pop\n        /* \"#utility.yul\":17658:17659   */\n      dup3\n        /* \"#utility.yul\":17655:17656   */\n      dup3\n        /* \"#utility.yul\":17651:17660   */\n      mul\n        /* \"#utility.yul\":17680:17710   */\n      tag_457\n        /* \"#utility.yul\":17698:17709   */\n      dup2\n        /* \"#utility.yul\":17680:17710   */\n      tag_251\n      jump\t// in\n    tag_457:\n        /* \"#utility.yul\":17669:17710   */\n      swap2\n      pop\n        /* \"#utility.yul\":17859:17860   */\n      dup3\n        /* \"#utility.yul\":17850:17857   */\n      dup3\n        /* \"#utility.yul\":17846:17861   */\n      div\n        /* \"#utility.yul\":17843:17844   */\n      dup5\n        /* \"#utility.yul\":17840:17862   */\n      eq\n        /* \"#utility.yul\":17820:17821   */\n      dup4\n        /* \"#utility.yul\":17813:17822   */\n      iszero\n        /* \"#utility.yul\":17793:17876   */\n      or\n        /* \"#utility.yul\":17770:17909   */\n      tag_458\n      jumpi\n        /* \"#utility.yul\":17889:17907   */\n      tag_459\n      tag_278\n      jump\t// in\n    tag_459:\n        /* \"#utility.yul\":17770:17909   */\n    tag_458:\n        /* \"#utility.yul\":17554:17916   */\n      pop\n        /* \"#utility.yul\":17506:17916   */\n      swap3\n      swap2\n      pop\n      pop\n      jump\t// out\n        /* \"#utility.yul\":17922:18102   */\n    tag_281:\n        /* \"#utility.yul\":17970:18047   */\n      0x4e487b7100000000000000000000000000000000000000000000000000000000\n        /* \"#utility.yul\":17967:17968   */\n      0x00\n        /* \"#utility.yul\":17960:18048   */\n      mstore\n        /* \"#utility.yul\":18067:18071   */\n      0x12\n        /* \"#utility.yul\":18064:18065   */\n      0x04\n        /* \"#utility.yul\":18057:18072   */\n      mstore\n        /* \"#utility.yul\":18091:18095   */\n      0x24\n        /* \"#utility.yul\":18088:18089   */\n      0x00\n        /* \"#utility.yul\":18081:18096   */\n      revert\n        /* \"#utility.yul\":18108:18293   */\n    tag_152:\n        /* \"#utility.yul\":18148:18149   */\n      0x00\n        /* \"#utility.yul\":18165:18185   */\n      tag_462\n        /* \"#utility.yul\":18183:18184   */\n      dup3\n        /* \"#utility.yul\":18165:18185   */\n      tag_251\n      jump\t// in\n    tag_462:\n        /* \"#utility.yul\":18160:18185   */\n      swap2\n      pop\n        /* \"#utility.yul\":18199:18219   */\n      tag_463\n        /* \"#utility.yul\":18217:18218   */\n      dup4\n        /* \"#utility.yul\":18199:18219   */\n      tag_251\n      jump\t// in\n    tag_463:\n        /* \"#utility.yul\":18194:18219   */\n      swap3\n      pop\n        /* \"#utility.yul\":18238:18239   */\n      dup3\n        /* \"#utility.yul\":18228:18263   */\n      tag_464\n      jumpi\n        /* \"#utility.yul\":18243:18261   */\n      tag_465\n      tag_281\n      jump\t// in\n    tag_465:\n        /* \"#utility.yul\":18228:18263   */\n    tag_464:\n        /* \"#utility.yul\":18285:18286   */\n      dup3\n        /* \"#utility.yul\":18282:18283   */\n      dup3\n        /* \"#utility.yul\":18278:18287   */\n      div\n        /* \"#utility.yul\":18273:18287   */\n      swap1\n      pop\n        /* \"#utility.yul\":18108:18293   */\n      swap3\n      swap2\n      pop\n      pop\n      jump\t// out\n        /* \"#utility.yul\":18299:18493   */\n    tag_154:\n        /* \"#utility.yul\":18339:18343   */\n      0x00\n        /* \"#utility.yul\":18359:18379   */\n      tag_467\n        /* \"#utility.yul\":18377:18378   */\n      dup3\n        /* \"#utility.yul\":18359:18379   */\n      tag_251\n      jump\t// in\n    tag_467:\n        /* \"#utility.yul\":18354:18379   */\n      swap2\n      pop\n        /* \"#utility.yul\":18393:18413   */\n      tag_468\n        /* \"#utility.yul\":18411:18412   */\n      dup4\n        /* \"#utility.yul\":18393:18413   */\n      tag_251\n      jump\t// in\n    tag_468:\n        /* \"#utility.yul\":18388:18413   */\n      swap3\n      pop\n        /* \"#utility.yul\":18437:18438   */\n      dup3\n        /* \"#utility.yul\":18434:18435   */\n      dup3\n        /* \"#utility.yul\":18430:18439   */\n      sub\n        /* \"#utility.yul\":18422:18439   */\n      swap1\n      pop\n        /* \"#utility.yul\":18461:18462   */\n      dup2\n        /* \"#utility.yul\":18455:18459   */\n      dup2\n        /* \"#utility.yul\":18452:18463   */\n      gt\n        /* \"#utility.yul\":18449:18486   */\n      iszero\n      tag_469\n      jumpi\n        /* \"#utility.yul\":18466:18484   */\n      tag_470\n      tag_278\n      jump\t// in\n    tag_470:\n        /* \"#utility.yul\":18449:18486   */\n    tag_469:\n        /* \"#utility.yul\":18299:18493   */\n      swap3\n      swap2\n      pop\n      pop\n      jump\t// out\n        /* \"#utility.yul\":18499:18667   */\n    tag_282:\n        /* \"#utility.yul\":18582:18593   */\n      0x00\n        /* \"#utility.yul\":18616:18622   */\n      dup3\n        /* \"#utility.yul\":18611:18614   */\n      dup3\n        /* \"#utility.yul\":18604:18623   */\n      mstore\n        /* \"#utility.yul\":18656:18660   */\n      0x20\n        /* \"#utility.yul\":18651:18654   */\n      dup3\n        /* \"#utility.yul\":18647:18661   */\n      add\n        /* \"#utility.yul\":18632:18661   */\n      swap1\n      pop\n        /* \"#utility.yul\":18499:18667   */\n      swap3\n      swap2\n      pop\n      pop\n      jump\t// out\n        /* \"#utility.yul\":18673:18787   */\n    tag_283:\n      pop\n      jump\t// out\n        /* \"#utility.yul\":18793:19155   */\n    tag_284:\n        /* \"#utility.yul\":18934:18937   */\n      0x00\n        /* \"#utility.yul\":18955:19020   */\n      tag_474\n        /* \"#utility.yul\":19018:19019   */\n      0x00\n        /* \"#utility.yul\":19013:19016   */\n      dup4\n        /* \"#utility.yul\":18955:19020   */\n      tag_282\n      jump\t// in\n    tag_474:\n        /* \"#utility.yul\":18948:19020   */\n      swap2\n      pop\n        /* \"#utility.yul\":19029:19122   */\n      tag_475\n        /* \"#utility.yul\":19118:19121   */\n      dup3\n        /* \"#utility.yul\":19029:19122   */\n      tag_283\n      jump\t// in\n    tag_475:\n        /* \"#utility.yul\":19147:19148   */\n      0x00\n        /* \"#utility.yul\":19142:19145   */\n      dup3\n        /* \"#utility.yul\":19138:19149   */\n      add\n        /* \"#utility.yul\":19131:19149   */\n      swap1\n      pop\n        /* \"#utility.yul\":18793:19155   */\n      swap2\n      swap1\n      pop\n      jump\t// out\n        /* \"#utility.yul\":19161:20020   */\n    tag_160:\n        /* \"#utility.yul\":19438:19442   */\n      0x00\n        /* \"#utility.yul\":19476:19479   */\n      0xa0\n        /* \"#utility.yul\":19465:19474   */\n      dup3\n        /* \"#utility.yul\":19461:19480   */\n      add\n        /* \"#utility.yul\":19453:19480   */\n      swap1\n      pop\n        /* \"#utility.yul\":19490:19561   */\n      tag_477\n        /* \"#utility.yul\":19558:19559   */\n      0x00\n        /* \"#utility.yul\":19547:19556   */\n      dup4\n        /* \"#utility.yul\":19543:19560   */\n      add\n        /* \"#utility.yul\":19534:19540   */\n      dup8\n        /* \"#utility.yul\":19490:19561   */\n      tag_259\n      jump\t// in\n    tag_477:\n        /* \"#utility.yul\":19571:19643   */\n      tag_478\n        /* \"#utility.yul\":19639:19641   */\n      0x20\n        /* \"#utility.yul\":19628:19637   */\n      dup4\n        /* \"#utility.yul\":19624:19642   */\n      add\n        /* \"#utility.yul\":19615:19621   */\n      dup7\n        /* \"#utility.yul\":19571:19643   */\n      tag_259\n      jump\t// in\n    tag_478:\n        /* \"#utility.yul\":19653:19725   */\n      tag_479\n        /* \"#utility.yul\":19721:19723   */\n      0x40\n        /* \"#utility.yul\":19710:19719   */\n      dup4\n        /* \"#utility.yul\":19706:19724   */\n      add\n        /* \"#utility.yul\":19697:19703   */\n      dup6\n        /* \"#utility.yul\":19653:19725   */\n      tag_258\n      jump\t// in\n    tag_479:\n        /* \"#utility.yul\":19735:19807   */\n      tag_480\n        /* \"#utility.yul\":19803:19805   */\n      0x60\n        /* \"#utility.yul\":19792:19801   */\n      dup4\n        /* \"#utility.yul\":19788:19806   */\n      add\n        /* \"#utility.yul\":19779:19785   */\n      dup5\n        /* \"#utility.yul\":19735:19807   */\n      tag_258\n      jump\t// in\n    tag_480:\n        /* \"#utility.yul\":19855:19864   */\n      dup2\n        /* \"#utility.yul\":19849:19853   */\n      dup2\n        /* \"#utility.yul\":19845:19865   */\n      sub\n        /* \"#utility.yul\":19839:19842   */\n      0x80\n        /* \"#utility.yul\":19828:19837   */\n      dup4\n        /* \"#utility.yul\":19824:19843   */\n      add\n        /* \"#utility.yul\":19817:19866   */\n      mstore\n        /* \"#utility.yul\":19883:20013   */\n      tag_481\n        /* \"#utility.yul\":20008:20012   */\n      dup2\n        /* \"#utility.yul\":19883:20013   */\n      tag_284\n      jump\t// in\n    tag_481:\n        /* \"#utility.yul\":19875:20013   */\n      swap1\n      pop\n        /* \"#utility.yul\":19161:20020   */\n      swap6\n      swap5\n      pop\n      pop\n      pop\n      pop\n      pop\n      jump\t// out\n        /* \"#utility.yul\":20026:20468   */\n    tag_166:\n        /* \"#utility.yul\":20175:20179   */\n      0x00\n        /* \"#utility.yul\":20213:20215   */\n      0x60\n        /* \"#utility.yul\":20202:20211   */\n      dup3\n        /* \"#utility.yul\":20198:20216   */\n      add\n        /* \"#utility.yul\":20190:20216   */\n      swap1\n      pop\n        /* \"#utility.yul\":20226:20297   */\n      tag_483\n        /* \"#utility.yul\":20294:20295   */\n      0x00\n        /* \"#utility.yul\":20283:20292   */\n      dup4\n        /* \"#utility.yul\":20279:20296   */\n      add\n        /* \"#utility.yul\":20270:20276   */\n      dup7\n        /* \"#utility.yul\":20226:20297   */\n      tag_259\n      jump\t// in\n    tag_483:\n        /* \"#utility.yul\":20307:20379   */\n      tag_484\n        /* \"#utility.yul\":20375:20377   */\n      0x20\n        /* \"#utility.yul\":20364:20373   */\n      dup4\n        /* \"#utility.yul\":20360:20378   */\n      add\n        /* \"#utility.yul\":20351:20357   */\n      dup6\n        /* \"#utility.yul\":20307:20379   */\n      tag_259\n      jump\t// in\n    tag_484:\n        /* \"#utility.yul\":20389:20461   */\n      tag_485\n        /* \"#utility.yul\":20457:20459   */\n      0x40\n        /* \"#utility.yul\":20446:20455   */\n      dup4\n        /* \"#utility.yul\":20442:20460   */\n      add\n        /* \"#utility.yul\":20433:20439   */\n      dup5\n        /* \"#utility.yul\":20389:20461   */\n      tag_258\n      jump\t// in\n    tag_485:\n        /* \"#utility.yul\":20026:20468   */\n      swap5\n      swap4\n      pop\n      pop\n      pop\n      pop\n      jump\t// out\n        /* \"#utility.yul\":20474:20806   */\n    tag_171:\n        /* \"#utility.yul\":20595:20599   */\n      0x00\n        /* \"#utility.yul\":20633:20635   */\n      0x40\n        /* \"#utility.yul\":20622:20631   */\n      dup3\n        /* \"#utility.yul\":20618:20636   */\n      add\n        /* \"#utility.yul\":20610:20636   */\n      swap1\n      pop\n        /* \"#utility.yul\":20646:20717   */\n      tag_487\n        /* \"#utility.yul\":20714:20715   */\n      0x00\n        /* \"#utility.yul\":20703:20712   */\n      dup4\n        /* \"#utility.yul\":20699:20716   */\n      add\n        /* \"#utility.yul\":20690:20696   */\n      dup6\n        /* \"#utility.yul\":20646:20717   */\n      tag_258\n      jump\t// in\n    tag_487:\n        /* \"#utility.yul\":20727:20799   */\n      tag_488\n        /* \"#utility.yul\":20795:20797   */\n      0x20\n        /* \"#utility.yul\":20784:20793   */\n      dup4\n        /* \"#utility.yul\":20780:20798   */\n      add\n        /* \"#utility.yul\":20771:20777   */\n      dup5\n        /* \"#utility.yul\":20727:20799   */\n      tag_258\n      jump\t// in\n    tag_488:\n        /* \"#utility.yul\":20474:20806   */\n      swap4\n      swap3\n      pop\n      pop\n      pop\n      jump\t// out\n        /* \"#utility.yul\":20812:20971   */\n    tag_285:\n        /* \"#utility.yul\":20952:20963   */\n      0x7a65726f20616464720000000000000000000000000000000000000000000000\n        /* \"#utility.yul\":20948:20949   */\n      0x00\n        /* \"#utility.yul\":20940:20946   */\n      dup3\n        /* \"#utility.yul\":20936:20950   */\n      add\n        /* \"#utility.yul\":20929:20964   */\n      mstore\n        /* \"#utility.yul\":20812:20971   */\n      pop\n      jump\t// out\n        /* \"#utility.yul\":20977:21342   */\n    tag_286:\n        /* \"#utility.yul\":21119:21122   */\n      0x00\n        /* \"#utility.yul\":21140:21206   */\n      tag_491\n        /* \"#utility.yul\":21204:21205   */\n      0x09\n        /* \"#utility.yul\":21199:21202   */\n      dup4\n        /* \"#utility.yul\":21140:21206   */\n      tag_260\n      jump\t// in\n    tag_491:\n        /* \"#utility.yul\":21133:21206   */\n      swap2\n      pop\n        /* \"#utility.yul\":21215:21308   */\n      tag_492\n        /* \"#utility.yul\":21304:21307   */\n      dup3\n        /* \"#utility.yul\":21215:21308   */\n      tag_285\n      jump\t// in\n    tag_492:\n        /* \"#utility.yul\":21333:21335   */\n      0x20\n        /* \"#utility.yul\":21328:21331   */\n      dup3\n        /* \"#utility.yul\":21324:21336   */\n      add\n        /* \"#utility.yul\":21317:21336   */\n      swap1\n      pop\n        /* \"#utility.yul\":20977:21342   */\n      swap2\n      swap1\n      pop\n      jump\t// out\n        /* \"#utility.yul\":21348:21767   */\n    tag_179:\n        /* \"#utility.yul\":21514:21518   */\n      0x00\n        /* \"#utility.yul\":21552:21554   */\n      0x20\n        /* \"#utility.yul\":21541:21550   */\n      dup3\n        /* \"#utility.yul\":21537:21555   */\n      add\n        /* \"#utility.yul\":21529:21555   */\n      swap1\n      pop\n        /* \"#utility.yul\":21601:21610   */\n      dup2\n        /* \"#utility.yul\":21595:21599   */\n      dup2\n        /* \"#utility.yul\":21591:21611   */\n      sub\n        /* \"#utility.yul\":21587:21588   */\n      0x00\n        /* \"#utility.yul\":21576:21585   */\n      dup4\n        /* \"#utility.yul\":21572:21589   */\n      add\n        /* \"#utility.yul\":21565:21612   */\n      mstore\n        /* \"#utility.yul\":21629:21760   */\n      tag_494\n        /* \"#utility.yul\":21755:21759   */\n      dup2\n        /* \"#utility.yul\":21629:21760   */\n      tag_286\n      jump\t// in\n    tag_494:\n        /* \"#utility.yul\":21621:21760   */\n      swap1\n      pop\n        /* \"#utility.yul\":21348:21767   */\n      swap2\n      swap1\n      pop\n      jump\t// out\n        /* \"#utility.yul\":21773:21932   */\n    tag_287:\n        /* \"#utility.yul\":21913:21924   */\n      0x6d61782031303030300000000000000000000000000000000000000000000000\n        /* \"#utility.yul\":21909:21910   */\n      0x00\n        /* \"#utility.yul\":21901:21907   */\n      dup3\n        /* \"#utility.yul\":21897:21911   */\n      add\n        /* \"#utility.yul\":21890:21925   */\n      mstore\n        /* \"#utility.yul\":21773:21932   */\n      pop\n      jump\t// out\n        /* \"#utility.yul\":21938:22303   */\n    tag_288:\n        /* \"#utility.yul\":22080:22083   */\n      0x00\n        /* \"#utility.yul\":22101:22167   */\n      tag_497\n        /* \"#utility.yul\":22165:22166   */\n      0x09\n        /* \"#utility.yul\":22160:22163   */\n      dup4\n        /* \"#utility.yul\":22101:22167   */\n      tag_260\n      jump\t// in\n    tag_497:\n        /* \"#utility.yul\":22094:22167   */\n      swap2\n      pop\n        /* \"#utility.yul\":22176:22269   */\n      tag_498\n        /* \"#utility.yul\":22265:22268   */\n      dup3\n        /* \"#utility.yul\":22176:22269   */\n      tag_287\n      jump\t// in\n    tag_498:\n        /* \"#utility.yul\":22294:22296   */\n      0x20\n        /* \"#utility.yul\":22289:22292   */\n      dup3\n        /* \"#utility.yul\":22285:22297   */\n      add\n        /* \"#utility.yul\":22278:22297   */\n      swap1\n      pop\n        /* \"#utility.yul\":21938:22303   */\n      swap2\n      swap1\n      pop\n      jump\t// out\n        /* \"#utility.yul\":22309:22728   */\n    tag_190:\n        /* \"#utility.yul\":22475:22479   */\n      0x00\n        /* \"#utility.yul\":22513:22515   */\n      0x20\n        /* \"#utility.yul\":22502:22511   */\n      dup3\n        /* \"#utility.yul\":22498:22516   */\n      add\n        /* \"#utility.yul\":22490:22516   */\n      swap1\n      pop\n        /* \"#utility.yul\":22562:22571   */\n      dup2\n        /* \"#utility.yul\":22556:22560   */\n      dup2\n        /* \"#utility.yul\":22552:22572   */\n      sub\n        /* \"#utility.yul\":22548:22549   */\n      0x00\n        /* \"#utility.yul\":22537:22546   */\n      dup4\n        /* \"#utility.yul\":22533:22550   */\n      add\n        /* \"#utility.yul\":22526:22573   */\n      mstore\n        /* \"#utility.yul\":22590:22721   */\n      tag_500\n        /* \"#utility.yul\":22716:22720   */\n      dup2\n        /* \"#utility.yul\":22590:22721   */\n      tag_288\n      jump\t// in\n    tag_500:\n        /* \"#utility.yul\":22582:22721   */\n      swap1\n      pop\n        /* \"#utility.yul\":22309:22728   */\n      swap2\n      swap1\n      pop\n      jump\t// out\n        /* \"#utility.yul\":22734:22894   */\n    tag_289:\n        /* \"#utility.yul\":22874:22886   */\n      0x6e6f742073656c6c657200000000000000000000000000000000000000000000\n        /* \"#utility.yul\":22870:22871   */\n      0x00\n        /* \"#utility.yul\":22862:22868   */\n      dup3\n        /* \"#utility.yul\":22858:22872   */\n      add\n        /* \"#utility.yul\":22851:22887   */\n      mstore\n        /* \"#utility.yul\":22734:22894   */\n      pop\n      jump\t// out\n        /* \"#utility.yul\":22900:23266   */\n    tag_290:\n        /* \"#utility.yul\":23042:23045   */\n      0x00\n        /* \"#utility.yul\":23063:23130   */\n      tag_503\n        /* \"#utility.yul\":23127:23129   */\n      0x0a\n        /* \"#utility.yul\":23122:23125   */\n      dup4\n        /* \"#utility.yul\":23063:23130   */\n      tag_260\n      jump\t// in\n    tag_503:\n        /* \"#utility.yul\":23056:23130   */\n      swap2\n      pop\n        /* \"#utility.yul\":23139:23232   */\n      tag_504\n        /* \"#utility.yul\":23228:23231   */\n      dup3\n        /* \"#utility.yul\":23139:23232   */\n      tag_289\n      jump\t// in\n    tag_504:\n        /* \"#utility.yul\":23257:23259   */\n      0x20\n        /* \"#utility.yul\":23252:23255   */\n      dup3\n        /* \"#utility.yul\":23248:23260   */\n      add\n        /* \"#utility.yul\":23241:23260   */\n      swap1\n      pop\n        /* \"#utility.yul\":22900:23266   */\n      swap2\n      swap1\n      pop\n      jump\t// out\n        /* \"#utility.yul\":23272:23691   */\n    tag_207:\n        /* \"#utility.yul\":23438:23442   */\n      0x00\n        /* \"#utility.yul\":23476:23478   */\n      0x20\n        /* \"#utility.yul\":23465:23474   */\n      dup3\n        /* \"#utility.yul\":23461:23479   */\n      add\n        /* \"#utility.yul\":23453:23479   */\n      swap1\n      pop\n        /* \"#utility.yul\":23525:23534   */\n      dup2\n        /* \"#utility.yul\":23519:23523   */\n      dup2\n        /* \"#utility.yul\":23515:23535   */\n      sub\n        /* \"#utility.yul\":23511:23512   */\n      0x00\n        /* \"#utility.yul\":23500:23509   */\n      dup4\n        /* \"#utility.yul\":23496:23513   */\n      add\n        /* \"#utility.yul\":23489:23536   */\n      mstore\n        /* \"#utility.yul\":23553:23684   */\n      tag_506\n        /* \"#utility.yul\":23679:23683   */\n      dup2\n        /* \"#utility.yul\":23553:23684   */\n      tag_290\n      jump\t// in\n    tag_506:\n        /* \"#utility.yul\":23545:23684   */\n      swap1\n      pop\n        /* \"#utility.yul\":23272:23691   */\n      swap2\n      swap1\n      pop\n      jump\t// out\n        /* \"#utility.yul\":23697:23878   */\n    tag_291:\n        /* \"#utility.yul\":23837:23870   */\n      0x5265656e7472616e637947756172643a207265656e7472616e742063616c6c00\n        /* \"#utility.yul\":23833:23834   */\n      0x00\n        /* \"#utility.yul\":23825:23831   */\n      dup3\n        /* \"#utility.yul\":23821:23835   */\n      add\n        /* \"#utility.yul\":23814:23871   */\n      mstore\n        /* \"#utility.yul\":23697:23878   */\n      pop\n      jump\t// out\n        /* \"#utility.yul\":23884:24250   */\n    tag_292:\n        /* \"#utility.yul\":24026:24029   */\n      0x00\n        /* \"#utility.yul\":24047:24114   */\n      tag_509\n        /* \"#utility.yul\":24111:24113   */\n      0x1f\n        /* \"#utility.yul\":24106:24109   */\n      dup4\n        /* \"#utility.yul\":24047:24114   */\n      tag_260\n      jump\t// in\n    tag_509:\n        /* \"#utility.yul\":24040:24114   */\n      swap2\n      pop\n        /* \"#utility.yul\":24123:24216   */\n      tag_510\n        /* \"#utility.yul\":24212:24215   */\n      dup3\n        /* \"#utility.yul\":24123:24216   */\n      tag_291\n      jump\t// in\n    tag_510:\n        /* \"#utility.yul\":24241:24243   */\n      0x20\n        /* \"#utility.yul\":24236:24239   */\n      dup3\n        /* \"#utility.yul\":24232:24244   */\n      add\n        /* \"#utility.yul\":24225:24244   */\n      swap1\n      pop\n        /* \"#utility.yul\":23884:24250   */\n      swap2\n      swap1\n      pop\n      jump\t// out\n        /* \"#utility.yul\":24256:24675   */\n    tag_218:\n        /* \"#utility.yul\":24422:24426   */\n      0x00\n        /* \"#utility.yul\":24460:24462   */\n      0x20\n        /* \"#utility.yul\":24449:24458   */\n      dup3\n        /* \"#utility.yul\":24445:24463   */\n      add\n        /* \"#utility.yul\":24437:24463   */\n      swap1\n      pop\n        /* \"#utility.yul\":24509:24518   */\n      dup2\n        /* \"#utility.yul\":24503:24507   */\n      dup2\n        /* \"#utility.yul\":24499:24519   */\n      sub\n        /* \"#utility.yul\":24495:24496   */\n      0x00\n        /* \"#utility.yul\":24484:24493   */\n      dup4\n        /* \"#utility.yul\":24480:24497   */\n      add\n        /* \"#utility.yul\":24473:24520   */\n      mstore\n        /* \"#utility.yul\":24537:24668   */\n      tag_512\n        /* \"#utility.yul\":24663:24667   */\n      dup2\n        /* \"#utility.yul\":24537:24668   */\n      tag_292\n      jump\t// in\n    tag_512:\n        /* \"#utility.yul\":24529:24668   */\n      swap1\n      pop\n        /* \"#utility.yul\":24256:24675   */\n      swap2\n      swap1\n      pop\n      jump\t// out\n\n    auxdata: 0xa2646970667358221220eb62d52665b095edbbfe67be3ca40b7a67d8fb9f44cfcc207bf226e7787f3d2864736f6c634300081e0033\n}\n",
				"bytecode": {
					"linkReferences": {},
					"object": "608060405234801561000f575f5ffd5b5060405161283438038061283483398181016040528101906100319190610432565b835f73ffffffffffffffffffffffffffffffffffffffff168173ffffffffffffffffffffffffffffffffffffffff16036100a2575f6040517f1e4fbdf700000000000000000000000000000000000000000000000000000000815260040161009991906104a5565b60405180910390fd5b6100b1816102e060201b60201c565b50600180819055505f73ffffffffffffffffffffffffffffffffffffffff168473ffffffffffffffffffffffffffffffffffffffff1603610127576040517f08c379a000000000000000000000000000000000000000000000000000000000815260040161011e90610518565b60405180910390fd5b5f73ffffffffffffffffffffffffffffffffffffffff168373ffffffffffffffffffffffffffffffffffffffff1603610195576040517f08c379a000000000000000000000000000000000000000000000000000000000815260040161018c90610580565b60405180910390fd5b5f73ffffffffffffffffffffffffffffffffffffffff168273ffffffffffffffffffffffffffffffffffffffff1603610203576040517f08c379a00000000000000000000000000000000000000000000000000000000081526004016101fa906105e8565b60405180910390fd5b612710811115610248576040517f08c379a000000000000000000000000000000000000000000000000000000000815260040161023f90610650565b60405180910390fd5b8260025f6101000a81548173ffffffffffffffffffffffffffffffffffffffff021916908373ffffffffffffffffffffffffffffffffffffffff1602179055508160035f6101000a81548173ffffffffffffffffffffffffffffffffffffffff021916908373ffffffffffffffffffffffffffffffffffffffff1602179055508060048190555060016006819055505050505061066e565b5f5f5f9054906101000a900473ffffffffffffffffffffffffffffffffffffffff169050815f5f6101000a81548173ffffffffffffffffffffffffffffffffffffffff021916908373ffffffffffffffffffffffffffffffffffffffff1602179055508173ffffffffffffffffffffffffffffffffffffffff168173ffffffffffffffffffffffffffffffffffffffff167f8be0079c531659141344cd1fd0a4f28419497f9722a3daafe3b4186f6b6457e060405160405180910390a35050565b5f5ffd5b5f73ffffffffffffffffffffffffffffffffffffffff82169050919050565b5f6103ce826103a5565b9050919050565b6103de816103c4565b81146103e8575f5ffd5b50565b5f815190506103f9816103d5565b92915050565b5f819050919050565b610411816103ff565b811461041b575f5ffd5b50565b5f8151905061042c81610408565b92915050565b5f5f5f5f6080858703121561044a576104496103a1565b5b5f610457878288016103eb565b9450506020610468878288016103eb565b9350506040610479878288016103eb565b925050606061048a8782880161041e565b91505092959194509250565b61049f816103c4565b82525050565b5f6020820190506104b85f830184610496565b92915050565b5f82825260208201905092915050565b7f6f776e6572207a65726f000000000000000000000000000000000000000000005f82015250565b5f610502600a836104be565b915061050d826104ce565b602082019050919050565b5f6020820190508181035f83015261052f816104f6565b9050919050565b7f7061796d656e74546f6b656e207a65726f0000000000000000000000000000005f82015250565b5f61056a6011836104be565b915061057582610536565b602082019050919050565b5f6020820190508181035f8301526105978161055e565b9050919050565b7f666565436f6c6c6563746f72207a65726f0000000000000000000000000000005f82015250565b5f6105d26011836104be565b91506105dd8261059e565b602082019050919050565b5f6020820190508181035f8301526105ff816105c6565b9050919050565b7f66656550657263656e74206d61782031303030300000000000000000000000005f82015250565b5f61063a6014836104be565b915061064582610606565b602082019050919050565b5f6020820190508181035f8301526106678161062e565b9050919050565b6121b98061067b5f395ff3fe608060405234801561000f575f5ffd5b50600436106100fe575f3560e01c806380df50a811610095578063c415b95c11610064578063c415b95c1461026e578063cb917b9c1461028c578063de74e57b146102a8578063f2fde38b146102de576100fe565b806380df50a8146101e85780638da5cb5b14610204578063a42dce8014610222578063c0f6ae971461023e576100fe565b80636a326ab1116100d15780636a326ab114610188578063715018a6146101a45780637ce3489b146101ae5780637fd6f15c146101ca576100fe565b80633013ce29146101025780633ae6064b146101205780634e9b8c5d1461013c57806351ed82881461016c575b5f5ffd5b61010a6102fa565b604051610117919061166b565b60405180910390f35b61013a6004803603810190610135919061172b565b61031f565b005b610156600480360381019061015191906117a2565b610a40565b60405161016391906117dc565b60405180910390f35b610186600480360381019061018191906117f5565b610a92565b005b6101a2600480360381019061019d91906117a2565b610e17565b005b6101ac610ed0565b005b6101c860048036038101906101c391906117f5565b610ee3565b005b6101d2610f3a565b6040516101df919061182f565b60405180910390f35b61020260048036038101906101fd9190611848565b610f40565b005b61020c610fa0565b6040516102199190611895565b60405180910390f35b61023c600480360381019061023791906117a2565b610fc7565b005b610258600480360381019061025391906117a2565b611080565b60405161026591906117dc565b60405180910390f35b61027661109d565b6040516102839190611895565b60405180910390f35b6102a660048036038101906102a191906117f5565b6110c2565b005b6102c260048036038101906102bd91906117f5565b611214565b6040516102d597969594939291906118ae565b60405180910390f35b6102f860048036038101906102f391906117a2565b6112a9565b005b60025f9054906101000a900473ffffffffffffffffffffffffffffffffffffffff1681565b61032761132d565b60055f8673ffffffffffffffffffffffffffffffffffffffff1673ffffffffffffffffffffffffffffffffffffffff1681526020019081526020015f205f9054906101000a900460ff166103b0576040517f08c379a00000000000000000000000000000000000000000000000000000000081526004016103a790611975565b60405180910390fd5b5f82116103f2576040517f08c379a00000000000000000000000000000000000000000000000000000000081526004016103e9906119dd565b60405180910390fd5b80156105b8575f831161043a576040517f08c379a000000000000000000000000000000000000000000000000000000000815260040161043190611a45565b60405180910390fd5b5f859050838173ffffffffffffffffffffffffffffffffffffffff1662fdd58e33886040518363ffffffff1660e01b8152600401610479929190611a63565b602060405180830381865afa158015610494573d5f5f3e3d5ffd5b505050506040513d601f19601f820116820180604052508101906104b89190611a9e565b10156104f9576040517f08c379a00000000000000000000000000000000000000000000000000000000081526004016104f090611b13565b60405180910390fd5b8073ffffffffffffffffffffffffffffffffffffffff1663e985e9c533306040518363ffffffff1660e01b8152600401610534929190611b31565b602060405180830381865afa15801561054f573d5f5f3e3d5ffd5b505050506040513d601f19601f820116820180604052508101906105739190611b6c565b6105b2576040517f08c379a00000000000000000000000000000000000000000000000000000000081526004016105a990611be1565b60405180910390fd5b5061084c565b600183146105fb576040517f08c379a00000000000000000000000000000000000000000000000000000000081526004016105f290611c49565b60405180910390fd5b5f8590503373ffffffffffffffffffffffffffffffffffffffff168173ffffffffffffffffffffffffffffffffffffffff16636352211e876040518263ffffffff1660e01b815260040161064f919061182f565b602060405180830381865afa15801561066a573d5f5f3e3d5ffd5b505050506040513d601f19601f8201168201806040525081019061068e9190611c7b565b73ffffffffffffffffffffffffffffffffffffffff16146106e4576040517f08c379a00000000000000000000000000000000000000000000000000000000081526004016106db90611cf0565b60405180910390fd5b8073ffffffffffffffffffffffffffffffffffffffff1663e985e9c533306040518363ffffffff1660e01b815260040161071f929190611b31565b602060405180830381865afa15801561073a573d5f5f3e3d5ffd5b505050506040513d601f19601f8201168201806040525081019061075e9190611b6c565b8061080b57503073ffffffffffffffffffffffffffffffffffffffff168173ffffffffffffffffffffffffffffffffffffffff1663081812fc876040518263ffffffff1660e01b81526004016107b4919061182f565b602060405180830381865afa1580156107cf573d5f5f3e3d5ffd5b505050506040513d601f19601f820116820180604052508101906107f39190611c7b565b73ffffffffffffffffffffffffffffffffffffffff16145b61084a576040517f08c379a000000000000000000000000000000000000000000000000000000000815260040161084190611be1565b60405180910390fd5b505b5f60065f81548092919061085f90611d3b565b9190505590506040518060e001604052803373ffffffffffffffffffffffffffffffffffffffff1681526020018773ffffffffffffffffffffffffffffffffffffffff16815260200186815260200185815260200184815260200183151581526020016001151581525060075f8381526020019081526020015f205f820151815f015f6101000a81548173ffffffffffffffffffffffffffffffffffffffff021916908373ffffffffffffffffffffffffffffffffffffffff1602179055506020820151816001015f6101000a81548173ffffffffffffffffffffffffffffffffffffffff021916908373ffffffffffffffffffffffffffffffffffffffff16021790555060408201518160020155606082015181600301556080820151816004015560a0820151816005015f6101000a81548160ff02191690831515021790555060c08201518160050160016101000a81548160ff0219169083151502179055509050508573ffffffffffffffffffffffffffffffffffffffff163373ffffffffffffffffffffffffffffffffffffffff16827fd1ed8900afb99183d6684ef82e558ec94d3feba62cff25b765b503bd5505e09f88888888604051610a289493929190611d82565b60405180910390a450610a3961137c565b5050505050565b5f60055f8373ffffffffffffffffffffffffffffffffffffffff1673ffffffffffffffffffffffffffffffffffffffff1681526020019081526020015f205f9054906101000a900460ff169050919050565b610a9a61132d565b5f60075f8381526020019081526020015f2090508060050160019054906101000a900460ff16610aff576040517f08c379a0000000000000000000000000000000000000000000000000000000008152600401610af690611e0f565b60405180910390fd5b5f816004015490505f61271060045483610b199190611e2d565b610b239190611e9b565b90505f8183610b329190611ecb565b9050610ba433855f015f9054906101000a900473ffffffffffffffffffffffffffffffffffffffff168360025f9054906101000a900473ffffffffffffffffffffffffffffffffffffffff1673ffffffffffffffffffffffffffffffffffffffff16611385909392919063ffffffff16565b610c133360035f9054906101000a900473ffffffffffffffffffffffffffffffffffffffff168460025f9054906101000a900473ffffffffffffffffffffffffffffffffffffffff1673ffffffffffffffffffffffffffffffffffffffff16611385909392919063ffffffff16565b836005015f9054906101000a900460ff1615610ce757836001015f9054906101000a900473ffffffffffffffffffffffffffffffffffffffff1673ffffffffffffffffffffffffffffffffffffffff1663f242432a855f015f9054906101000a900473ffffffffffffffffffffffffffffffffffffffff1633876002015488600301546040518563ffffffff1660e01b8152600401610cb59493929190611f31565b5f604051808303815f87803b158015610ccc575f5ffd5b505af1158015610cde573d5f5f3e3d5ffd5b50505050610d9b565b836001015f9054906101000a900473ffffffffffffffffffffffffffffffffffffffff1673ffffffffffffffffffffffffffffffffffffffff166342842e0e855f015f9054906101000a900473ffffffffffffffffffffffffffffffffffffffff163387600201546040518463ffffffff1660e01b8152600401610d6d93929190611f87565b5f604051808303815f87803b158015610d84575f5ffd5b505af1158015610d96573d5f5f3e3d5ffd5b505050505b5f8460050160016101000a81548160ff0219169083151502179055503373ffffffffffffffffffffffffffffffffffffffff16857f041bfe3082d481c8f62f6ed145f1d8cbec0daebcb4d750ae5c42a51946551d138585604051610e00929190611fbc565b60405180910390a350505050610e1461137c565b50565b610e1f611407565b5f73ffffffffffffffffffffffffffffffffffffffff168173ffffffffffffffffffffffffffffffffffffffff1603610e8d576040517f08c379a0000000000000000000000000000000000000000000000000000000008152600401610e849061202d565b60405180910390fd5b8060025f6101000a81548173ffffffffffffffffffffffffffffffffffffffff021916908373ffffffffffffffffffffffffffffffffffffffff16021790555050565b610ed8611407565b610ee15f61148e565b565b610eeb611407565b612710811115610f30576040517f08c379a0000000000000000000000000000000000000000000000000000000008152600401610f2790612095565b60405180910390fd5b8060048190555050565b60045481565b610f48611407565b8060055f8473ffffffffffffffffffffffffffffffffffffffff1673ffffffffffffffffffffffffffffffffffffffff1681526020019081526020015f205f6101000a81548160ff0219169083151502179055505050565b5f5f5f9054906101000a900473ffffffffffffffffffffffffffffffffffffffff16905090565b610fcf611407565b5f73ffffffffffffffffffffffffffffffffffffffff168173ffffffffffffffffffffffffffffffffffffffff160361103d576040517f08c379a00000000000000000000000000000000000000000000000000000000081526004016110349061202d565b60405180910390fd5b8060035f6101000a81548173ffffffffffffffffffffffffffffffffffffffff021916908373ffffffffffffffffffffffffffffffffffffffff16021790555050565b6005602052805f5260405f205f915054906101000a900460ff1681565b60035f9054906101000a900473ffffffffffffffffffffffffffffffffffffffff1681565b6110ca61132d565b5f60075f8381526020019081526020015f2090508060050160019054906101000a900460ff1661112f576040517f08c379a000000000000000000000000000000000000000000000000000000000815260040161112690611e0f565b60405180910390fd5b3373ffffffffffffffffffffffffffffffffffffffff16815f015f9054906101000a900473ffffffffffffffffffffffffffffffffffffffff1673ffffffffffffffffffffffffffffffffffffffff16146111bf576040517f08c379a00000000000000000000000000000000000000000000000000000000081526004016111b6906120fd565b60405180910390fd5b5f8160050160016101000a81548160ff021916908315150217905550817fc0c55a6edead4433d18cb1e287a0a20a2fa003a6f483bc9823d2e504d70d1c6760405160405180910390a25061121161137c565b50565b6007602052805f5260405f205f91509050805f015f9054906101000a900473ffffffffffffffffffffffffffffffffffffffff1690806001015f9054906101000a900473ffffffffffffffffffffffffffffffffffffffff1690806002015490806003015490806004015490806005015f9054906101000a900460ff16908060050160019054906101000a900460ff16905087565b6112b1611407565b5f73ffffffffffffffffffffffffffffffffffffffff168173ffffffffffffffffffffffffffffffffffffffff1603611321575f6040517f1e4fbdf70000000000000000000000000000000000000000000000000000000081526004016113189190611895565b60405180910390fd5b61132a8161148e565b50565b600260015403611372576040517f08c379a000000000000000000000000000000000000000000000000000000000815260040161136990612165565b60405180910390fd5b6002600181905550565b60018081905550565b611401848573ffffffffffffffffffffffffffffffffffffffff166323b872dd8686866040516024016113ba93929190611f87565b604051602081830303815290604052915060e01b6020820180517bffffffffffffffffffffffffffffffffffffffffffffffffffffffff838183161783525050505061154f565b50505050565b61140f6115ea565b73ffffffffffffffffffffffffffffffffffffffff1661142d610fa0565b73ffffffffffffffffffffffffffffffffffffffff161461148c576114506115ea565b6040517f118cdaa70000000000000000000000000000000000000000000000000000000081526004016114839190611895565b60405180910390fd5b565b5f5f5f9054906101000a900473ffffffffffffffffffffffffffffffffffffffff169050815f5f6101000a81548173ffffffffffffffffffffffffffffffffffffffff021916908373ffffffffffffffffffffffffffffffffffffffff1602179055508173ffffffffffffffffffffffffffffffffffffffff168173ffffffffffffffffffffffffffffffffffffffff167f8be0079c531659141344cd1fd0a4f28419497f9722a3daafe3b4186f6b6457e060405160405180910390a35050565b5f5f60205f8451602086015f885af18061156e576040513d5f823e3d81fd5b3d92505f519150505f82146115875760018114156115a2565b5f8473ffffffffffffffffffffffffffffffffffffffff163b145b156115e457836040517f5274afe70000000000000000000000000000000000000000000000000000000081526004016115db9190611895565b60405180910390fd5b50505050565b5f33905090565b5f73ffffffffffffffffffffffffffffffffffffffff82169050919050565b5f819050919050565b5f61163361162e611629846115f1565b611610565b6115f1565b9050919050565b5f61164482611619565b9050919050565b5f6116558261163a565b9050919050565b6116658161164b565b82525050565b5f60208201905061167e5f83018461165c565b92915050565b5f5ffd5b5f611692826115f1565b9050919050565b6116a281611688565b81146116ac575f5ffd5b50565b5f813590506116bd81611699565b92915050565b5f819050919050565b6116d5816116c3565b81146116df575f5ffd5b50565b5f813590506116f0816116cc565b92915050565b5f8115159050919050565b61170a816116f6565b8114611714575f5ffd5b50565b5f8135905061172581611701565b92915050565b5f5f5f5f5f60a0868803121561174457611743611684565b5b5f611751888289016116af565b9550506020611762888289016116e2565b9450506040611773888289016116e2565b9350506060611784888289016116e2565b925050608061179588828901611717565b9150509295509295909350565b5f602082840312156117b7576117b6611684565b5b5f6117c4848285016116af565b91505092915050565b6117d6816116f6565b82525050565b5f6020820190506117ef5f8301846117cd565b92915050565b5f6020828403121561180a57611809611684565b5b5f611817848285016116e2565b91505092915050565b611829816116c3565b82525050565b5f6020820190506118425f830184611820565b92915050565b5f5f6040838503121561185e5761185d611684565b5b5f61186b858286016116af565b925050602061187c85828601611717565b9150509250929050565b61188f81611688565b82525050565b5f6020820190506118a85f830184611886565b92915050565b5f60e0820190506118c15f83018a611886565b6118ce6020830189611886565b6118db6040830188611820565b6118e86060830187611820565b6118f56080830186611820565b61190260a08301856117cd565b61190f60c08301846117cd565b98975050505050505050565b5f82825260208201905092915050565b7f4e465420636f6e7472616374206e6f7420616c6c6f77656400000000000000005f82015250565b5f61195f60188361191b565b915061196a8261192b565b602082019050919050565b5f6020820190508181035f83015261198c81611953565b9050919050565b7f7072696365207a65726f000000000000000000000000000000000000000000005f82015250565b5f6119c7600a8361191b565b91506119d282611993565b602082019050919050565b5f6020820190508181035f8301526119f4816119bb565b9050919050565b7f616d6f756e74207a65726f0000000000000000000000000000000000000000005f82015250565b5f611a2f600b8361191b565b9150611a3a826119fb565b602082019050919050565b5f6020820190508181035f830152611a5c81611a23565b9050919050565b5f604082019050611a765f830185611886565b611a836020830184611820565b9392505050565b5f81519050611a98816116cc565b92915050565b5f60208284031215611ab357611ab2611684565b5b5f611ac084828501611a8a565b91505092915050565b7f696e73756666696369656e742062616c616e63650000000000000000000000005f82015250565b5f611afd60148361191b565b9150611b0882611ac9565b602082019050919050565b5f6020820190508181035f830152611b2a81611af1565b9050919050565b5f604082019050611b445f830185611886565b611b516020830184611886565b9392505050565b5f81519050611b6681611701565b92915050565b5f60208284031215611b8157611b80611684565b5b5f611b8e84828501611b58565b91505092915050565b7f6e6f7420617070726f76656400000000000000000000000000000000000000005f82015250565b5f611bcb600c8361191b565b9150611bd682611b97565b602082019050919050565b5f6020820190508181035f830152611bf881611bbf565b9050919050565b7f616d6f756e74206d757374206265203120666f722045524337323100000000005f82015250565b5f611c33601b8361191b565b9150611c3e82611bff565b602082019050919050565b5f6020820190508181035f830152611c6081611c27565b9050919050565b5f81519050611c7581611699565b92915050565b5f60208284031215611c9057611c8f611684565b5b5f611c9d84828501611c67565b91505092915050565b7f6e6f74206f776e657200000000000000000000000000000000000000000000005f82015250565b5f611cda60098361191b565b9150611ce582611ca6565b602082019050919050565b5f6020820190508181035f830152611d0781611cce565b9050919050565b7f4e487b71000000000000000000000000000000000000000000000000000000005f52601160045260245ffd5b5f611d45826116c3565b91507fffffffffffffffffffffffffffffffffffffffffffffffffffffffffffffffff8203611d7757611d76611d0e565b5b600182019050919050565b5f608082019050611d955f830187611820565b611da26020830186611820565b611daf6040830185611820565b611dbc60608301846117cd565b95945050505050565b7f6c697374696e6720696e616374697665000000000000000000000000000000005f82015250565b5f611df960108361191b565b9150611e0482611dc5565b602082019050919050565b5f6020820190508181035f830152611e2681611ded565b9050919050565b5f611e37826116c3565b9150611e42836116c3565b9250828202611e50816116c3565b91508282048414831517611e6757611e66611d0e565b5b5092915050565b7f4e487b71000000000000000000000000000000000000000000000000000000005f52601260045260245ffd5b5f611ea5826116c3565b9150611eb0836116c3565b925082611ec057611ebf611e6e565b5b828204905092915050565b5f611ed5826116c3565b9150611ee0836116c3565b9250828203905081811115611ef857611ef7611d0e565b5b92915050565b5f82825260208201905092915050565b50565b5f611f1c5f83611efe565b9150611f2782611f0e565b5f82019050919050565b5f60a082019050611f445f830187611886565b611f516020830186611886565b611f5e6040830185611820565b611f6b6060830184611820565b8181036080830152611f7c81611f11565b905095945050505050565b5f606082019050611f9a5f830186611886565b611fa76020830185611886565b611fb46040830184611820565b949350505050565b5f604082019050611fcf5f830185611820565b611fdc6020830184611820565b9392505050565b7f7a65726f206164647200000000000000000000000000000000000000000000005f82015250565b5f61201760098361191b565b915061202282611fe3565b602082019050919050565b5f6020820190508181035f8301526120448161200b565b9050919050565b7f6d617820313030303000000000000000000000000000000000000000000000005f82015250565b5f61207f60098361191b565b915061208a8261204b565b602082019050919050565b5f6020820190508181035f8301526120ac81612073565b9050919050565b7f6e6f742073656c6c6572000000000000000000000000000000000000000000005f82015250565b5f6120e7600a8361191b565b91506120f2826120b3565b602082019050919050565b5f6020820190508181035f830152612114816120db565b9050919050565b7f5265656e7472616e637947756172643a207265656e7472616e742063616c6c005f82015250565b5f61214f601f8361191b565b915061215a8261211b565b602082019050919050565b5f6020820190508181035f83015261217c81612143565b905091905056fea2646970667358221220eb62d52665b095edbbfe67be3ca40b7a67d8fb9f44cfcc207bf226e7787f3d2864736f6c634300081e0033",
					"opcodes": "PUSH1 0x80 PUSH1 0x40 MSTORE CALLVALUE DUP1 ISZERO PUSH2 0xF JUMPI PUSH0 PUSH0 REVERT JUMPDEST POP PUSH1 0x40 MLOAD PUSH2 0x2834 CODESIZE SUB DUP1 PUSH2 0x2834 DUP4 CODECOPY DUP2 DUP2 ADD PUSH1 0x40 MSTORE DUP2 ADD SWAP1 PUSH2 0x31 SWAP2 SWAP1 PUSH2 0x432 JUMP JUMPDEST DUP4 PUSH0 PUSH20 0xFFFFFFFFFFFFFFFFFFFFFFFFFFFFFFFFFFFFFFFF AND DUP2 PUSH20 0xFFFFFFFFFFFFFFFFFFFFFFFFFFFFFFFFFFFFFFFF AND SUB PUSH2 0xA2 JUMPI PUSH0 PUSH1 0x40 MLOAD PUSH32 0x1E4FBDF700000000000000000000000000000000000000000000000000000000 DUP2 MSTORE PUSH1 0x4 ADD PUSH2 0x99 SWAP2 SWAP1 PUSH2 0x4A5 JUMP JUMPDEST PUSH1 0x40 MLOAD DUP1 SWAP2 SUB SWAP1 REVERT JUMPDEST PUSH2 0xB1 DUP2 PUSH2 0x2E0 PUSH1 0x20 SHL PUSH1 0x20 SHR JUMP JUMPDEST POP PUSH1 0x1 DUP1 DUP2 SWAP1 SSTORE POP PUSH0 PUSH20 0xFFFFFFFFFFFFFFFFFFFFFFFFFFFFFFFFFFFFFFFF AND DUP5 PUSH20 0xFFFFFFFFFFFFFFFFFFFFFFFFFFFFFFFFFFFFFFFF AND SUB PUSH2 0x127 JUMPI PUSH1 0x40 MLOAD PUSH32 0x8C379A000000000000000000000000000000000000000000000000000000000 DUP2 MSTORE PUSH1 0x4 ADD PUSH2 0x11E SWAP1 PUSH2 0x518 JUMP JUMPDEST PUSH1 0x40 MLOAD DUP1 SWAP2 SUB SWAP1 REVERT JUMPDEST PUSH0 PUSH20 0xFFFFFFFFFFFFFFFFFFFFFFFFFFFFFFFFFFFFFFFF AND DUP4 PUSH20 0xFFFFFFFFFFFFFFFFFFFFFFFFFFFFFFFFFFFFFFFF AND SUB PUSH2 0x195 JUMPI PUSH1 0x40 MLOAD PUSH32 0x8C379A000000000000000000000000000000000000000000000000000000000 DUP2 MSTORE PUSH1 0x4 ADD PUSH2 0x18C SWAP1 PUSH2 0x580 JUMP JUMPDEST PUSH1 0x40 MLOAD DUP1 SWAP2 SUB SWAP1 REVERT JUMPDEST PUSH0 PUSH20 0xFFFFFFFFFFFFFFFFFFFFFFFFFFFFFFFFFFFFFFFF AND DUP3 PUSH20 0xFFFFFFFFFFFFFFFFFFFFFFFFFFFFFFFFFFFFFFFF AND SUB PUSH2 0x203 JUMPI PUSH1 0x40 MLOAD PUSH32 0x8C379A000000000000000000000000000000000000000000000000000000000 DUP2 MSTORE PUSH1 0x4 ADD PUSH2 0x1FA SWAP1 PUSH2 0x5E8 JUMP JUMPDEST PUSH1 0x40 MLOAD DUP1 SWAP2 SUB SWAP1 REVERT JUMPDEST PUSH2 0x2710 DUP2 GT ISZERO PUSH2 0x248 JUMPI PUSH1 0x40 MLOAD PUSH32 0x8C379A000000000000000000000000000000000000000000000000000000000 DUP2 MSTORE PUSH1 0x4 ADD PUSH2 0x23F SWAP1 PUSH2 0x650 JUMP JUMPDEST PUSH1 0x40 MLOAD DUP1 SWAP2 SUB SWAP1 REVERT JUMPDEST DUP3 PUSH1 0x2 PUSH0 PUSH2 0x100 EXP DUP2 SLOAD DUP2 PUSH20 0xFFFFFFFFFFFFFFFFFFFFFFFFFFFFFFFFFFFFFFFF MUL NOT AND SWAP1 DUP4 PUSH20 0xFFFFFFFFFFFFFFFFFFFFFFFFFFFFFFFFFFFFFFFF AND MUL OR SWAP1 SSTORE POP DUP2 PUSH1 0x3 PUSH0 PUSH2 0x100 EXP DUP2 SLOAD DUP2 PUSH20 0xFFFFFFFFFFFFFFFFFFFFFFFFFFFFFFFFFFFFFFFF MUL NOT AND SWAP1 DUP4 PUSH20 0xFFFFFFFFFFFFFFFFFFFFFFFFFFFFFFFFFFFFFFFF AND MUL OR SWAP1 SSTORE POP DUP1 PUSH1 0x4 DUP2 SWAP1 SSTORE POP PUSH1 0x1 PUSH1 0x6 DUP2 SWAP1 SSTORE POP POP POP POP POP PUSH2 0x66E JUMP JUMPDEST PUSH0 PUSH0 PUSH0 SWAP1 SLOAD SWAP1 PUSH2 0x100 EXP SWAP1 DIV PUSH20 0xFFFFFFFFFFFFFFFFFFFFFFFFFFFFFFFFFFFFFFFF AND SWAP1 POP DUP2 PUSH0 PUSH0 PUSH2 0x100 EXP DUP2 SLOAD DUP2 PUSH20 0xFFFFFFFFFFFFFFFFFFFFFFFFFFFFFFFFFFFFFFFF MUL NOT AND SWAP1 DUP4 PUSH20 0xFFFFFFFFFFFFFFFFFFFFFFFFFFFFFFFFFFFFFFFF AND MUL OR SWAP1 SSTORE POP DUP2 PUSH20 0xFFFFFFFFFFFFFFFFFFFFFFFFFFFFFFFFFFFFFFFF AND DUP2 PUSH20 0xFFFFFFFFFFFFFFFFFFFFFFFFFFFFFFFFFFFFFFFF AND PUSH32 0x8BE0079C531659141344CD1FD0A4F28419497F9722A3DAAFE3B4186F6B6457E0 PUSH1 0x40 MLOAD PUSH1 0x40 MLOAD DUP1 SWAP2 SUB SWAP1 LOG3 POP POP JUMP JUMPDEST PUSH0 PUSH0 REVERT JUMPDEST PUSH0 PUSH20 0xFFFFFFFFFFFFFFFFFFFFFFFFFFFFFFFFFFFFFFFF DUP3 AND SWAP1 POP SWAP2 SWAP1 POP JUMP JUMPDEST PUSH0 PUSH2 0x3CE DUP3 PUSH2 0x3A5 JUMP JUMPDEST SWAP1 POP SWAP2 SWAP1 POP JUMP JUMPDEST PUSH2 0x3DE DUP2 PUSH2 0x3C4 JUMP JUMPDEST DUP2 EQ PUSH2 0x3E8 JUMPI PUSH0 PUSH0 REVERT JUMPDEST POP JUMP JUMPDEST PUSH0 DUP2 MLOAD SWAP1 POP PUSH2 0x3F9 DUP2 PUSH2 0x3D5 JUMP JUMPDEST SWAP3 SWAP2 POP POP JUMP JUMPDEST PUSH0 DUP2 SWAP1 POP SWAP2 SWAP1 POP JUMP JUMPDEST PUSH2 0x411 DUP2 PUSH2 0x3FF JUMP JUMPDEST DUP2 EQ PUSH2 0x41B JUMPI PUSH0 PUSH0 REVERT JUMPDEST POP JUMP JUMPDEST PUSH0 DUP2 MLOAD SWAP1 POP PUSH2 0x42C DUP2 PUSH2 0x408 JUMP JUMPDEST SWAP3 SWAP2 POP POP JUMP JUMPDEST PUSH0 PUSH0 PUSH0 PUSH0 PUSH1 0x80 DUP6 DUP8 SUB SLT ISZERO PUSH2 0x44A JUMPI PUSH2 0x449 PUSH2 0x3A1 JUMP JUMPDEST JUMPDEST PUSH0 PUSH2 0x457 DUP8 DUP3 DUP9 ADD PUSH2 0x3EB JUMP JUMPDEST SWAP5 POP POP PUSH1 0x20 PUSH2 0x468 DUP8 DUP3 DUP9 ADD PUSH2 0x3EB JUMP JUMPDEST SWAP4 POP POP PUSH1 0x40 PUSH2 0x479 DUP8 DUP3 DUP9 ADD PUSH2 0x3EB JUMP JUMPDEST SWAP3 POP POP PUSH1 0x60 PUSH2 0x48A DUP8 DUP3 DUP9 ADD PUSH2 0x41E JUMP JUMPDEST SWAP2 POP POP SWAP3 SWAP6 SWAP2 SWAP5 POP SWAP3 POP JUMP JUMPDEST PUSH2 0x49F DUP2 PUSH2 0x3C4 JUMP JUMPDEST DUP3 MSTORE POP POP JUMP JUMPDEST PUSH0 PUSH1 0x20 DUP3 ADD SWAP1 POP PUSH2 0x4B8 PUSH0 DUP4 ADD DUP5 PUSH2 0x496 JUMP JUMPDEST SWAP3 SWAP2 POP POP JUMP JUMPDEST PUSH0 DUP3 DUP3 MSTORE PUSH1 0x20 DUP3 ADD SWAP1 POP SWAP3 SWAP2 POP POP JUMP JUMPDEST PUSH32 0x6F776E6572207A65726F00000000000000000000000000000000000000000000 PUSH0 DUP3 ADD MSTORE POP JUMP JUMPDEST PUSH0 PUSH2 0x502 PUSH1 0xA DUP4 PUSH2 0x4BE JUMP JUMPDEST SWAP2 POP PUSH2 0x50D DUP3 PUSH2 0x4CE JUMP JUMPDEST PUSH1 0x20 DUP3 ADD SWAP1 POP SWAP2 SWAP1 POP JUMP JUMPDEST PUSH0 PUSH1 0x20 DUP3 ADD SWAP1 POP DUP2 DUP2 SUB PUSH0 DUP4 ADD MSTORE PUSH2 0x52F DUP2 PUSH2 0x4F6 JUMP JUMPDEST SWAP1 POP SWAP2 SWAP1 POP JUMP JUMPDEST PUSH32 0x7061796D656E74546F6B656E207A65726F000000000000000000000000000000 PUSH0 DUP3 ADD MSTORE POP JUMP JUMPDEST PUSH0 PUSH2 0x56A PUSH1 0x11 DUP4 PUSH2 0x4BE JUMP JUMPDEST SWAP2 POP PUSH2 0x575 DUP3 PUSH2 0x536 JUMP JUMPDEST PUSH1 0x20 DUP3 ADD SWAP1 POP SWAP2 SWAP1 POP JUMP JUMPDEST PUSH0 PUSH1 0x20 DUP3 ADD SWAP1 POP DUP2 DUP2 SUB PUSH0 DUP4 ADD MSTORE PUSH2 0x597 DUP2 PUSH2 0x55E JUMP JUMPDEST SWAP1 POP SWAP2 SWAP1 POP JUMP JUMPDEST PUSH32 0x666565436F6C6C6563746F72207A65726F000000000000000000000000000000 PUSH0 DUP3 ADD MSTORE POP JUMP JUMPDEST PUSH0 PUSH2 0x5D2 PUSH1 0x11 DUP4 PUSH2 0x4BE JUMP JUMPDEST SWAP2 POP PUSH2 0x5DD DUP3 PUSH2 0x59E JUMP JUMPDEST PUSH1 0x20 DUP3 ADD SWAP1 POP SWAP2 SWAP1 POP JUMP JUMPDEST PUSH0 PUSH1 0x20 DUP3 ADD SWAP1 POP DUP2 DUP2 SUB PUSH0 DUP4 ADD MSTORE PUSH2 0x5FF DUP2 PUSH2 0x5C6 JUMP JUMPDEST SWAP1 POP SWAP2 SWAP1 POP JUMP JUMPDEST PUSH32 0x66656550657263656E74206D6178203130303030000000000000000000000000 PUSH0 DUP3 ADD MSTORE POP JUMP JUMPDEST PUSH0 PUSH2 0x63A PUSH1 0x14 DUP4 PUSH2 0x4BE JUMP JUMPDEST SWAP2 POP PUSH2 0x645 DUP3 PUSH2 0x606 JUMP JUMPDEST PUSH1 0x20 DUP3 ADD SWAP1 POP SWAP2 SWAP1 POP JUMP JUMPDEST PUSH0 PUSH1 0x20 DUP3 ADD SWAP1 POP DUP2 DUP2 SUB PUSH0 DUP4 ADD MSTORE PUSH2 0x667 DUP2 PUSH2 0x62E JUMP JUMPDEST SWAP1 POP SWAP2 SWAP1 POP JUMP JUMPDEST PUSH2 0x21B9 DUP1 PUSH2 0x67B PUSH0 CODECOPY PUSH0 RETURN INVALID PUSH1 0x80 PUSH1 0x40 MSTORE CALLVALUE DUP1 ISZERO PUSH2 0xF JUMPI PUSH0 PUSH0 REVERT JUMPDEST POP PUSH1 0x4 CALLDATASIZE LT PUSH2 0xFE JUMPI PUSH0 CALLDATALOAD PUSH1 0xE0 SHR DUP1 PUSH4 0x80DF50A8 GT PUSH2 0x95 JUMPI DUP1 PUSH4 0xC415B95C GT PUSH2 0x64 JUMPI DUP1 PUSH4 0xC415B95C EQ PUSH2 0x26E JUMPI DUP1 PUSH4 0xCB917B9C EQ PUSH2 0x28C JUMPI DUP1 PUSH4 0xDE74E57B EQ PUSH2 0x2A8 JUMPI DUP1 PUSH4 0xF2FDE38B EQ PUSH2 0x2DE JUMPI PUSH2 0xFE JUMP JUMPDEST DUP1 PUSH4 0x80DF50A8 EQ PUSH2 0x1E8 JUMPI DUP1 PUSH4 0x8DA5CB5B EQ PUSH2 0x204 JUMPI DUP1 PUSH4 0xA42DCE80 EQ PUSH2 0x222 JUMPI DUP1 PUSH4 0xC0F6AE97 EQ PUSH2 0x23E JUMPI PUSH2 0xFE JUMP JUMPDEST DUP1 PUSH4 0x6A326AB1 GT PUSH2 0xD1 JUMPI DUP1 PUSH4 0x6A326AB1 EQ PUSH2 0x188 JUMPI DUP1 PUSH4 0x715018A6 EQ PUSH2 0x1A4 JUMPI DUP1 PUSH4 0x7CE3489B EQ PUSH2 0x1AE JUMPI DUP1 PUSH4 0x7FD6F15C EQ PUSH2 0x1CA JUMPI PUSH2 0xFE JUMP JUMPDEST DUP1 PUSH4 0x3013CE29 EQ PUSH2 0x102 JUMPI DUP1 PUSH4 0x3AE6064B EQ PUSH2 0x120 JUMPI DUP1 PUSH4 0x4E9B8C5D EQ PUSH2 0x13C JUMPI DUP1 PUSH4 0x51ED8288 EQ PUSH2 0x16C JUMPI JUMPDEST PUSH0 PUSH0 REVERT JUMPDEST PUSH2 0x10A PUSH2 0x2FA JUMP JUMPDEST PUSH1 0x40 MLOAD PUSH2 0x117 SWAP2 SWAP1 PUSH2 0x166B JUMP JUMPDEST PUSH1 0x40 MLOAD DUP1 SWAP2 SUB SWAP1 RETURN JUMPDEST PUSH2 0x13A PUSH1 0x4 DUP1 CALLDATASIZE SUB DUP2 ADD SWAP1 PUSH2 0x135 SWAP2 SWAP1 PUSH2 0x172B JUMP JUMPDEST PUSH2 0x31F JUMP JUMPDEST STOP JUMPDEST PUSH2 0x156 PUSH1 0x4 DUP1 CALLDATASIZE SUB DUP2 ADD SWAP1 PUSH2 0x151 SWAP2 SWAP1 PUSH2 0x17A2 JUMP JUMPDEST PUSH2 0xA40 JUMP JUMPDEST PUSH1 0x40 MLOAD PUSH2 0x163 SWAP2 SWAP1 PUSH2 0x17DC JUMP JUMPDEST PUSH1 0x40 MLOAD DUP1 SWAP2 SUB SWAP1 RETURN JUMPDEST PUSH2 0x186 PUSH1 0x4 DUP1 CALLDATASIZE SUB DUP2 ADD SWAP1 PUSH2 0x181 SWAP2 SWAP1 PUSH2 0x17F5 JUMP JUMPDEST PUSH2 0xA92 JUMP JUMPDEST STOP JUMPDEST PUSH2 0x1A2 PUSH1 0x4 DUP1 CALLDATASIZE SUB DUP2 ADD SWAP1 PUSH2 0x19D SWAP2 SWAP1 PUSH2 0x17A2 JUMP JUMPDEST PUSH2 0xE17 JUMP JUMPDEST STOP JUMPDEST PUSH2 0x1AC PUSH2 0xED0 JUMP JUMPDEST STOP JUMPDEST PUSH2 0x1C8 PUSH1 0x4 DUP1 CALLDATASIZE SUB DUP2 ADD SWAP1 PUSH2 0x1C3 SWAP2 SWAP1 PUSH2 0x17F5 JUMP JUMPDEST PUSH2 0xEE3 JUMP JUMPDEST STOP JUMPDEST PUSH2 0x1D2 PUSH2 0xF3A JUMP JUMPDEST PUSH1 0x40 MLOAD PUSH2 0x1DF SWAP2 SWAP1 PUSH2 0x182F JUMP JUMPDEST PUSH1 0x40 MLOAD DUP1 SWAP2 SUB SWAP1 RETURN JUMPDEST PUSH2 0x202 PUSH1 0x4 DUP1 CALLDATASIZE SUB DUP2 ADD SWAP1 PUSH2 0x1FD SWAP2 SWAP1 PUSH2 0x1848 JUMP JUMPDEST PUSH2 0xF40 JUMP JUMPDEST STOP JUMPDEST PUSH2 0x20C PUSH2 0xFA0 JUMP JUMPDEST PUSH1 0x40 MLOAD PUSH2 0x219 SWAP2 SWAP1 PUSH2 0x1895 JUMP JUMPDEST PUSH1 0x40 MLOAD DUP1 SWAP2 SUB SWAP1 RETURN JUMPDEST PUSH2 0x23C PUSH1 0x4 DUP1 CALLDATASIZE SUB DUP2 ADD SWAP1 PUSH2 0x237 SWAP2 SWAP1 PUSH2 0x17A2 JUMP JUMPDEST PUSH2 0xFC7 JUMP JUMPDEST STOP JUMPDEST PUSH2 0x258 PUSH1 0x4 DUP1 CALLDATASIZE SUB DUP2 ADD SWAP1 PUSH2 0x253 SWAP2 SWAP1 PUSH2 0x17A2 JUMP JUMPDEST PUSH2 0x1080 JUMP JUMPDEST PUSH1 0x40 MLOAD PUSH2 0x265 SWAP2 SWAP1 PUSH2 0x17DC JUMP JUMPDEST PUSH1 0x40 MLOAD DUP1 SWAP2 SUB SWAP1 RETURN JUMPDEST PUSH2 0x276 PUSH2 0x109D JUMP JUMPDEST PUSH1 0x40 MLOAD PUSH2 0x283 SWAP2 SWAP1 PUSH2 0x1895 JUMP JUMPDEST PUSH1 0x40 MLOAD DUP1 SWAP2 SUB SWAP1 RETURN JUMPDEST PUSH2 0x2A6 PUSH1 0x4 DUP1 CALLDATASIZE SUB DUP2 ADD SWAP1 PUSH2 0x2A1 SWAP2 SWAP1 PUSH2 0x17F5 JUMP JUMPDEST PUSH2 0x10C2 JUMP JUMPDEST STOP JUMPDEST PUSH2 0x2C2 PUSH1 0x4 DUP1 CALLDATASIZE SUB DUP2 ADD SWAP1 PUSH2 0x2BD SWAP2 SWAP1 PUSH2 0x17F5 JUMP JUMPDEST PUSH2 0x1214 JUMP JUMPDEST PUSH1 0x40 MLOAD PUSH2 0x2D5 SWAP8 SWAP7 SWAP6 SWAP5 SWAP4 SWAP3 SWAP2 SWAP1 PUSH2 0x18AE JUMP JUMPDEST PUSH1 0x40 MLOAD DUP1 SWAP2 SUB SWAP1 RETURN JUMPDEST PUSH2 0x2F8 PUSH1 0x4 DUP1 CALLDATASIZE SUB DUP2 ADD SWAP1 PUSH2 0x2F3 SWAP2 SWAP1 PUSH2 0x17A2 JUMP JUMPDEST PUSH2 0x12A9 JUMP JUMPDEST STOP JUMPDEST PUSH1 0x2 PUSH0 SWAP1 SLOAD SWAP1 PUSH2 0x100 EXP SWAP1 DIV PUSH20 0xFFFFFFFFFFFFFFFFFFFFFFFFFFFFFFFFFFFFFFFF AND DUP2 JUMP JUMPDEST PUSH2 0x327 PUSH2 0x132D JUMP JUMPDEST PUSH1 0x5 PUSH0 DUP7 PUSH20 0xFFFFFFFFFFFFFFFFFFFFFFFFFFFFFFFFFFFFFFFF AND PUSH20 0xFFFFFFFFFFFFFFFFFFFFFFFFFFFFFFFFFFFFFFFF AND DUP2 MSTORE PUSH1 0x20 ADD SWAP1 DUP2 MSTORE PUSH1 0x20 ADD PUSH0 KECCAK256 PUSH0 SWAP1 SLOAD SWAP1 PUSH2 0x100 EXP SWAP1 DIV PUSH1 0xFF AND PUSH2 0x3B0 JUMPI PUSH1 0x40 MLOAD PUSH32 0x8C379A000000000000000000000000000000000000000000000000000000000 DUP2 MSTORE PUSH1 0x4 ADD PUSH2 0x3A7 SWAP1 PUSH2 0x1975 JUMP JUMPDEST PUSH1 0x40 MLOAD DUP1 SWAP2 SUB SWAP1 REVERT JUMPDEST PUSH0 DUP3 GT PUSH2 0x3F2 JUMPI PUSH1 0x40 MLOAD PUSH32 0x8C379A000000000000000000000000000000000000000000000000000000000 DUP2 MSTORE PUSH1 0x4 ADD PUSH2 0x3E9 SWAP1 PUSH2 0x19DD JUMP JUMPDEST PUSH1 0x40 MLOAD DUP1 SWAP2 SUB SWAP1 REVERT JUMPDEST DUP1 ISZERO PUSH2 0x5B8 JUMPI PUSH0 DUP4 GT PUSH2 0x43A JUMPI PUSH1 0x40 MLOAD PUSH32 0x8C379A000000000000000000000000000000000000000000000000000000000 DUP2 MSTORE PUSH1 0x4 ADD PUSH2 0x431 SWAP1 PUSH2 0x1A45 JUMP JUMPDEST PUSH1 0x40 MLOAD DUP1 SWAP2 SUB SWAP1 REVERT JUMPDEST PUSH0 DUP6 SWAP1 POP DUP4 DUP2 PUSH20 0xFFFFFFFFFFFFFFFFFFFFFFFFFFFFFFFFFFFFFFFF AND PUSH3 0xFDD58E CALLER DUP9 PUSH1 0x40 MLOAD DUP4 PUSH4 0xFFFFFFFF AND PUSH1 0xE0 SHL DUP2 MSTORE PUSH1 0x4 ADD PUSH2 0x479 SWAP3 SWAP2 SWAP1 PUSH2 0x1A63 JUMP JUMPDEST PUSH1 0x20 PUSH1 0x40 MLOAD DUP1 DUP4 SUB DUP2 DUP7 GAS STATICCALL ISZERO DUP1 ISZERO PUSH2 0x494 JUMPI RETURNDATASIZE PUSH0 PUSH0 RETURNDATACOPY RETURNDATASIZE PUSH0 REVERT JUMPDEST POP POP POP POP PUSH1 0x40 MLOAD RETURNDATASIZE PUSH1 0x1F NOT PUSH1 0x1F DUP3 ADD AND DUP3 ADD DUP1 PUSH1 0x40 MSTORE POP DUP2 ADD SWAP1 PUSH2 0x4B8 SWAP2 SWAP1 PUSH2 0x1A9E JUMP JUMPDEST LT ISZERO PUSH2 0x4F9 JUMPI PUSH1 0x40 MLOAD PUSH32 0x8C379A000000000000000000000000000000000000000000000000000000000 DUP2 MSTORE PUSH1 0x4 ADD PUSH2 0x4F0 SWAP1 PUSH2 0x1B13 JUMP JUMPDEST PUSH1 0x40 MLOAD DUP1 SWAP2 SUB SWAP1 REVERT JUMPDEST DUP1 PUSH20 0xFFFFFFFFFFFFFFFFFFFFFFFFFFFFFFFFFFFFFFFF AND PUSH4 0xE985E9C5 CALLER ADDRESS PUSH1 0x40 MLOAD DUP4 PUSH4 0xFFFFFFFF AND PUSH1 0xE0 SHL DUP2 MSTORE PUSH1 0x4 ADD PUSH2 0x534 SWAP3 SWAP2 SWAP1 PUSH2 0x1B31 JUMP JUMPDEST PUSH1 0x20 PUSH1 0x40 MLOAD DUP1 DUP4 SUB DUP2 DUP7 GAS STATICCALL ISZERO DUP1 ISZERO PUSH2 0x54F JUMPI RETURNDATASIZE PUSH0 PUSH0 RETURNDATACOPY RETURNDATASIZE PUSH0 REVERT JUMPDEST POP POP POP POP PUSH1 0x40 MLOAD RETURNDATASIZE PUSH1 0x1F NOT PUSH1 0x1F DUP3 ADD AND DUP3 ADD DUP1 PUSH1 0x40 MSTORE POP DUP2 ADD SWAP1 PUSH2 0x573 SWAP2 SWAP1 PUSH2 0x1B6C JUMP JUMPDEST PUSH2 0x5B2 JUMPI PUSH1 0x40 MLOAD PUSH32 0x8C379A000000000000000000000000000000000000000000000000000000000 DUP2 MSTORE PUSH1 0x4 ADD PUSH2 0x5A9 SWAP1 PUSH2 0x1BE1 JUMP JUMPDEST PUSH1 0x40 MLOAD DUP1 SWAP2 SUB SWAP1 REVERT JUMPDEST POP PUSH2 0x84C JUMP JUMPDEST PUSH1 0x1 DUP4 EQ PUSH2 0x5FB JUMPI PUSH1 0x40 MLOAD PUSH32 0x8C379A000000000000000000000000000000000000000000000000000000000 DUP2 MSTORE PUSH1 0x4 ADD PUSH2 0x5F2 SWAP1 PUSH2 0x1C49 JUMP JUMPDEST PUSH1 0x40 MLOAD DUP1 SWAP2 SUB SWAP1 REVERT JUMPDEST PUSH0 DUP6 SWAP1 POP CALLER PUSH20 0xFFFFFFFFFFFFFFFFFFFFFFFFFFFFFFFFFFFFFFFF AND DUP2 PUSH20 0xFFFFFFFFFFFFFFFFFFFFFFFFFFFFFFFFFFFFFFFF AND PUSH4 0x6352211E DUP8 PUSH1 0x40 MLOAD DUP3 PUSH4 0xFFFFFFFF AND PUSH1 0xE0 SHL DUP2 MSTORE PUSH1 0x4 ADD PUSH2 0x64F SWAP2 SWAP1 PUSH2 0x182F JUMP JUMPDEST PUSH1 0x20 PUSH1 0x40 MLOAD DUP1 DUP4 SUB DUP2 DUP7 GAS STATICCALL ISZERO DUP1 ISZERO PUSH2 0x66A JUMPI RETURNDATASIZE PUSH0 PUSH0 RETURNDATACOPY RETURNDATASIZE PUSH0 REVERT JUMPDEST POP POP POP POP PUSH1 0x40 MLOAD RETURNDATASIZE PUSH1 0x1F NOT PUSH1 0x1F DUP3 ADD AND DUP3 ADD DUP1 PUSH1 0x40 MSTORE POP DUP2 ADD SWAP1 PUSH2 0x68E SWAP2 SWAP1 PUSH2 0x1C7B JUMP JUMPDEST PUSH20 0xFFFFFFFFFFFFFFFFFFFFFFFFFFFFFFFFFFFFFFFF AND EQ PUSH2 0x6E4 JUMPI PUSH1 0x40 MLOAD PUSH32 0x8C379A000000000000000000000000000000000000000000000000000000000 DUP2 MSTORE PUSH1 0x4 ADD PUSH2 0x6DB SWAP1 PUSH2 0x1CF0 JUMP JUMPDEST PUSH1 0x40 MLOAD DUP1 SWAP2 SUB SWAP1 REVERT JUMPDEST DUP1 PUSH20 0xFFFFFFFFFFFFFFFFFFFFFFFFFFFFFFFFFFFFFFFF AND PUSH4 0xE985E9C5 CALLER ADDRESS PUSH1 0x40 MLOAD DUP4 PUSH4 0xFFFFFFFF AND PUSH1 0xE0 SHL DUP2 MSTORE PUSH1 0x4 ADD PUSH2 0x71F SWAP3 SWAP2 SWAP1 PUSH2 0x1B31 JUMP JUMPDEST PUSH1 0x20 PUSH1 0x40 MLOAD DUP1 DUP4 SUB DUP2 DUP7 GAS STATICCALL ISZERO DUP1 ISZERO PUSH2 0x73A JUMPI RETURNDATASIZE PUSH0 PUSH0 RETURNDATACOPY RETURNDATASIZE PUSH0 REVERT JUMPDEST POP POP POP POP PUSH1 0x40 MLOAD RETURNDATASIZE PUSH1 0x1F NOT PUSH1 0x1F DUP3 ADD AND DUP3 ADD DUP1 PUSH1 0x40 MSTORE POP DUP2 ADD SWAP1 PUSH2 0x75E SWAP2 SWAP1 PUSH2 0x1B6C JUMP JUMPDEST DUP1 PUSH2 0x80B JUMPI POP ADDRESS PUSH20 0xFFFFFFFFFFFFFFFFFFFFFFFFFFFFFFFFFFFFFFFF AND DUP2 PUSH20 0xFFFFFFFFFFFFFFFFFFFFFFFFFFFFFFFFFFFFFFFF AND PUSH4 0x81812FC DUP8 PUSH1 0x40 MLOAD DUP3 PUSH4 0xFFFFFFFF AND PUSH1 0xE0 SHL DUP2 MSTORE PUSH1 0x4 ADD PUSH2 0x7B4 SWAP2 SWAP1 PUSH2 0x182F JUMP JUMPDEST PUSH1 0x20 PUSH1 0x40 MLOAD DUP1 DUP4 SUB DUP2 DUP7 GAS STATICCALL ISZERO DUP1 ISZERO PUSH2 0x7CF JUMPI RETURNDATASIZE PUSH0 PUSH0 RETURNDATACOPY RETURNDATASIZE PUSH0 REVERT JUMPDEST POP POP POP POP PUSH1 0x40 MLOAD RETURNDATASIZE PUSH1 0x1F NOT PUSH1 0x1F DUP3 ADD AND DUP3 ADD DUP1 PUSH1 0x40 MSTORE POP DUP2 ADD SWAP1 PUSH2 0x7F3 SWAP2 SWAP1 PUSH2 0x1C7B JUMP JUMPDEST PUSH20 0xFFFFFFFFFFFFFFFFFFFFFFFFFFFFFFFFFFFFFFFF AND EQ JUMPDEST PUSH2 0x84A JUMPI PUSH1 0x40 MLOAD PUSH32 0x8C379A000000000000000000000000000000000000000000000000000000000 DUP2 MSTORE PUSH1 0x4 ADD PUSH2 0x841 SWAP1 PUSH2 0x1BE1 JUMP JUMPDEST PUSH1 0x40 MLOAD DUP1 SWAP2 SUB SWAP1 REVERT JUMPDEST POP JUMPDEST PUSH0 PUSH1 0x6 PUSH0 DUP2 SLOAD DUP1 SWAP3 SWAP2 SWAP1 PUSH2 0x85F SWAP1 PUSH2 0x1D3B JUMP JUMPDEST SWAP2 SWAP1 POP SSTORE SWAP1 POP PUSH1 0x40 MLOAD DUP1 PUSH1 0xE0 ADD PUSH1 0x40 MSTORE DUP1 CALLER PUSH20 0xFFFFFFFFFFFFFFFFFFFFFFFFFFFFFFFFFFFFFFFF AND DUP2 MSTORE PUSH1 0x20 ADD DUP8 PUSH20 0xFFFFFFFFFFFFFFFFFFFFFFFFFFFFFFFFFFFFFFFF AND DUP2 MSTORE PUSH1 0x20 ADD DUP7 DUP2 MSTORE PUSH1 0x20 ADD DUP6 DUP2 MSTORE PUSH1 0x20 ADD DUP5 DUP2 MSTORE PUSH1 0x20 ADD DUP4 ISZERO ISZERO DUP2 MSTORE PUSH1 0x20 ADD PUSH1 0x1 ISZERO ISZERO DUP2 MSTORE POP PUSH1 0x7 PUSH0 DUP4 DUP2 MSTORE PUSH1 0x20 ADD SWAP1 DUP2 MSTORE PUSH1 0x20 ADD PUSH0 KECCAK256 PUSH0 DUP3 ADD MLOAD DUP2 PUSH0 ADD PUSH0 PUSH2 0x100 EXP DUP2 SLOAD DUP2 PUSH20 0xFFFFFFFFFFFFFFFFFFFFFFFFFFFFFFFFFFFFFFFF MUL NOT AND SWAP1 DUP4 PUSH20 0xFFFFFFFFFFFFFFFFFFFFFFFFFFFFFFFFFFFFFFFF AND MUL OR SWAP1 SSTORE POP PUSH1 0x20 DUP3 ADD MLOAD DUP2 PUSH1 0x1 ADD PUSH0 PUSH2 0x100 EXP DUP2 SLOAD DUP2 PUSH20 0xFFFFFFFFFFFFFFFFFFFFFFFFFFFFFFFFFFFFFFFF MUL NOT AND SWAP1 DUP4 PUSH20 0xFFFFFFFFFFFFFFFFFFFFFFFFFFFFFFFFFFFFFFFF AND MUL OR SWAP1 SSTORE POP PUSH1 0x40 DUP3 ADD MLOAD DUP2 PUSH1 0x2 ADD SSTORE PUSH1 0x60 DUP3 ADD MLOAD DUP2 PUSH1 0x3 ADD SSTORE PUSH1 0x80 DUP3 ADD MLOAD DUP2 PUSH1 0x4 ADD SSTORE PUSH1 0xA0 DUP3 ADD MLOAD DUP2 PUSH1 0x5 ADD PUSH0 PUSH2 0x100 EXP DUP2 SLOAD DUP2 PUSH1 0xFF MUL NOT AND SWAP1 DUP4 ISZERO ISZERO MUL OR SWAP1 SSTORE POP PUSH1 0xC0 DUP3 ADD MLOAD DUP2 PUSH1 0x5 ADD PUSH1 0x1 PUSH2 0x100 EXP DUP2 SLOAD DUP2 PUSH1 0xFF MUL NOT AND SWAP1 DUP4 ISZERO ISZERO MUL OR SWAP1 SSTORE POP SWAP1 POP POP DUP6 PUSH20 0xFFFFFFFFFFFFFFFFFFFFFFFFFFFFFFFFFFFFFFFF AND CALLER PUSH20 0xFFFFFFFFFFFFFFFFFFFFFFFFFFFFFFFFFFFFFFFF AND DUP3 PUSH32 0xD1ED8900AFB99183D6684EF82E558EC94D3FEBA62CFF25B765B503BD5505E09F DUP9 DUP9 DUP9 DUP9 PUSH1 0x40 MLOAD PUSH2 0xA28 SWAP5 SWAP4 SWAP3 SWAP2 SWAP1 PUSH2 0x1D82 JUMP JUMPDEST PUSH1 0x40 MLOAD DUP1 SWAP2 SUB SWAP1 LOG4 POP PUSH2 0xA39 PUSH2 0x137C JUMP JUMPDEST POP POP POP POP POP JUMP JUMPDEST PUSH0 PUSH1 0x5 PUSH0 DUP4 PUSH20 0xFFFFFFFFFFFFFFFFFFFFFFFFFFFFFFFFFFFFFFFF AND PUSH20 0xFFFFFFFFFFFFFFFFFFFFFFFFFFFFFFFFFFFFFFFF AND DUP2 MSTORE PUSH1 0x20 ADD SWAP1 DUP2 MSTORE PUSH1 0x20 ADD PUSH0 KECCAK256 PUSH0 SWAP1 SLOAD SWAP1 PUSH2 0x100 EXP SWAP1 DIV PUSH1 0xFF AND SWAP1 POP SWAP2 SWAP1 POP JUMP JUMPDEST PUSH2 0xA9A PUSH2 0x132D JUMP JUMPDEST PUSH0 PUSH1 0x7 PUSH0 DUP4 DUP2 MSTORE PUSH1 0x20 ADD SWAP1 DUP2 MSTORE PUSH1 0x20 ADD PUSH0 KECCAK256 SWAP1 POP DUP1 PUSH1 0x5 ADD PUSH1 0x1 SWAP1 SLOAD SWAP1 PUSH2 0x100 EXP SWAP1 DIV PUSH1 0xFF AND PUSH2 0xAFF JUMPI PUSH1 0x40 MLOAD PUSH32 0x8C379A000000000000000000000000000000000000000000000000000000000 DUP2 MSTORE PUSH1 0x4 ADD PUSH2 0xAF6 SWAP1 PUSH2 0x1E0F JUMP JUMPDEST PUSH1 0x40 MLOAD DUP1 SWAP2 SUB SWAP1 REVERT JUMPDEST PUSH0 DUP2 PUSH1 0x4 ADD SLOAD SWAP1 POP PUSH0 PUSH2 0x2710 PUSH1 0x4 SLOAD DUP4 PUSH2 0xB19 SWAP2 SWAP1 PUSH2 0x1E2D JUMP JUMPDEST PUSH2 0xB23 SWAP2 SWAP1 PUSH2 0x1E9B JUMP JUMPDEST SWAP1 POP PUSH0 DUP2 DUP4 PUSH2 0xB32 SWAP2 SWAP1 PUSH2 0x1ECB JUMP JUMPDEST SWAP1 POP PUSH2 0xBA4 CALLER DUP6 PUSH0 ADD PUSH0 SWAP1 SLOAD SWAP1 PUSH2 0x100 EXP SWAP1 DIV PUSH20 0xFFFFFFFFFFFFFFFFFFFFFFFFFFFFFFFFFFFFFFFF AND DUP4 PUSH1 0x2 PUSH0 SWAP1 SLOAD SWAP1 PUSH2 0x100 EXP SWAP1 DIV PUSH20 0xFFFFFFFFFFFFFFFFFFFFFFFFFFFFFFFFFFFFFFFF AND PUSH20 0xFFFFFFFFFFFFFFFFFFFFFFFFFFFFFFFFFFFFFFFF AND PUSH2 0x1385 SWAP1 SWAP4 SWAP3 SWAP2 SWAP1 PUSH4 0xFFFFFFFF AND JUMP JUMPDEST PUSH2 0xC13 CALLER PUSH1 0x3 PUSH0 SWAP1 SLOAD SWAP1 PUSH2 0x100 EXP SWAP1 DIV PUSH20 0xFFFFFFFFFFFFFFFFFFFFFFFFFFFFFFFFFFFFFFFF AND DUP5 PUSH1 0x2 PUSH0 SWAP1 SLOAD SWAP1 PUSH2 0x100 EXP SWAP1 DIV PUSH20 0xFFFFFFFFFFFFFFFFFFFFFFFFFFFFFFFFFFFFFFFF AND PUSH20 0xFFFFFFFFFFFFFFFFFFFFFFFFFFFFFFFFFFFFFFFF AND PUSH2 0x1385 SWAP1 SWAP4 SWAP3 SWAP2 SWAP1 PUSH4 0xFFFFFFFF AND JUMP JUMPDEST DUP4 PUSH1 0x5 ADD PUSH0 SWAP1 SLOAD SWAP1 PUSH2 0x100 EXP SWAP1 DIV PUSH1 0xFF AND ISZERO PUSH2 0xCE7 JUMPI DUP4 PUSH1 0x1 ADD PUSH0 SWAP1 SLOAD SWAP1 PUSH2 0x100 EXP SWAP1 DIV PUSH20 0xFFFFFFFFFFFFFFFFFFFFFFFFFFFFFFFFFFFFFFFF AND PUSH20 0xFFFFFFFFFFFFFFFFFFFFFFFFFFFFFFFFFFFFFFFF AND PUSH4 0xF242432A DUP6 PUSH0 ADD PUSH0 SWAP1 SLOAD SWAP1 PUSH2 0x100 EXP SWAP1 DIV PUSH20 0xFFFFFFFFFFFFFFFFFFFFFFFFFFFFFFFFFFFFFFFF AND CALLER DUP8 PUSH1 0x2 ADD SLOAD DUP9 PUSH1 0x3 ADD SLOAD PUSH1 0x40 MLOAD DUP6 PUSH4 0xFFFFFFFF AND PUSH1 0xE0 SHL DUP2 MSTORE PUSH1 0x4 ADD PUSH2 0xCB5 SWAP5 SWAP4 SWAP3 SWAP2 SWAP1 PUSH2 0x1F31 JUMP JUMPDEST PUSH0 PUSH1 0x40 MLOAD DUP1 DUP4 SUB DUP2 PUSH0 DUP8 DUP1 EXTCODESIZE ISZERO DUP1 ISZERO PUSH2 0xCCC JUMPI PUSH0 PUSH0 REVERT JUMPDEST POP GAS CALL ISZERO DUP1 ISZERO PUSH2 0xCDE JUMPI RETURNDATASIZE PUSH0 PUSH0 RETURNDATACOPY RETURNDATASIZE PUSH0 REVERT JUMPDEST POP POP POP POP PUSH2 0xD9B JUMP JUMPDEST DUP4 PUSH1 0x1 ADD PUSH0 SWAP1 SLOAD SWAP1 PUSH2 0x100 EXP SWAP1 DIV PUSH20 0xFFFFFFFFFFFFFFFFFFFFFFFFFFFFFFFFFFFFFFFF AND PUSH20 0xFFFFFFFFFFFFFFFFFFFFFFFFFFFFFFFFFFFFFFFF AND PUSH4 0x42842E0E DUP6 PUSH0 ADD PUSH0 SWAP1 SLOAD SWAP1 PUSH2 0x100 EXP SWAP1 DIV PUSH20 0xFFFFFFFFFFFFFFFFFFFFFFFFFFFFFFFFFFFFFFFF AND CALLER DUP8 PUSH1 0x2 ADD SLOAD PUSH1 0x40 MLOAD DUP5 PUSH4 0xFFFFFFFF AND PUSH1 0xE0 SHL DUP2 MSTORE PUSH1 0x4 ADD PUSH2 0xD6D SWAP4 SWAP3 SWAP2 SWAP1 PUSH2 0x1F87 JUMP JUMPDEST PUSH0 PUSH1 0x40 MLOAD DUP1 DUP4 SUB DUP2 PUSH0 DUP8 DUP1 EXTCODESIZE ISZERO DUP1 ISZERO PUSH2 0xD84 JUMPI PUSH0 PUSH0 REVERT JUMPDEST POP GAS CALL ISZERO DUP1 ISZERO PUSH2 0xD96 JUMPI RETURNDATASIZE PUSH0 PUSH0 RETURNDATACOPY RETURNDATASIZE PUSH0 REVERT JUMPDEST POP POP POP POP JUMPDEST PUSH0 DUP5 PUSH1 0x5 ADD PUSH1 0x1 PUSH2 0x100 EXP DUP2 SLOAD DUP2 PUSH1 0xFF MUL NOT AND SWAP1 DUP4 ISZERO ISZERO MUL OR SWAP1 SSTORE POP CALLER PUSH20 0xFFFFFFFFFFFFFFFFFFFFFFFFFFFFFFFFFFFFFFFF AND DUP6 PUSH32 0x41BFE3082D481C8F62F6ED145F1D8CBEC0DAEBCB4D750AE5C42A51946551D13 DUP6 DUP6 PUSH1 0x40 MLOAD PUSH2 0xE00 SWAP3 SWAP2 SWAP1 PUSH2 0x1FBC JUMP JUMPDEST PUSH1 0x40 MLOAD DUP1 SWAP2 SUB SWAP1 LOG3 POP POP POP POP PUSH2 0xE14 PUSH2 0x137C JUMP JUMPDEST POP JUMP JUMPDEST PUSH2 0xE1F PUSH2 0x1407 JUMP JUMPDEST PUSH0 PUSH20 0xFFFFFFFFFFFFFFFFFFFFFFFFFFFFFFFFFFFFFFFF AND DUP2 PUSH20 0xFFFFFFFFFFFFFFFFFFFFFFFFFFFFFFFFFFFFFFFF AND SUB PUSH2 0xE8D JUMPI PUSH1 0x40 MLOAD PUSH32 0x8C379A000000000000000000000000000000000000000000000000000000000 DUP2 MSTORE PUSH1 0x4 ADD PUSH2 0xE84 SWAP1 PUSH2 0x202D JUMP JUMPDEST PUSH1 0x40 MLOAD DUP1 SWAP2 SUB SWAP1 REVERT JUMPDEST DUP1 PUSH1 0x2 PUSH0 PUSH2 0x100 EXP DUP2 SLOAD DUP2 PUSH20 0xFFFFFFFFFFFFFFFFFFFFFFFFFFFFFFFFFFFFFFFF MUL NOT AND SWAP1 DUP4 PUSH20 0xFFFFFFFFFFFFFFFFFFFFFFFFFFFFFFFFFFFFFFFF AND MUL OR SWAP1 SSTORE POP POP JUMP JUMPDEST PUSH2 0xED8 PUSH2 0x1407 JUMP JUMPDEST PUSH2 0xEE1 PUSH0 PUSH2 0x148E JUMP JUMPDEST JUMP JUMPDEST PUSH2 0xEEB PUSH2 0x1407 JUMP JUMPDEST PUSH2 0x2710 DUP2 GT ISZERO PUSH2 0xF30 JUMPI PUSH1 0x40 MLOAD PUSH32 0x8C379A000000000000000000000000000000000000000000000000000000000 DUP2 MSTORE PUSH1 0x4 ADD PUSH2 0xF27 SWAP1 PUSH2 0x2095 JUMP JUMPDEST PUSH1 0x40 MLOAD DUP1 SWAP2 SUB SWAP1 REVERT JUMPDEST DUP1 PUSH1 0x4 DUP2 SWAP1 SSTORE POP POP JUMP JUMPDEST PUSH1 0x4 SLOAD DUP2 JUMP JUMPDEST PUSH2 0xF48 PUSH2 0x1407 JUMP JUMPDEST DUP1 PUSH1 0x5 PUSH0 DUP5 PUSH20 0xFFFFFFFFFFFFFFFFFFFFFFFFFFFFFFFFFFFFFFFF AND PUSH20 0xFFFFFFFFFFFFFFFFFFFFFFFFFFFFFFFFFFFFFFFF AND DUP2 MSTORE PUSH1 0x20 ADD SWAP1 DUP2 MSTORE PUSH1 0x20 ADD PUSH0 KECCAK256 PUSH0 PUSH2 0x100 EXP DUP2 SLOAD DUP2 PUSH1 0xFF MUL NOT AND SWAP1 DUP4 ISZERO ISZERO MUL OR SWAP1 SSTORE POP POP POP JUMP JUMPDEST PUSH0 PUSH0 PUSH0 SWAP1 SLOAD SWAP1 PUSH2 0x100 EXP SWAP1 DIV PUSH20 0xFFFFFFFFFFFFFFFFFFFFFFFFFFFFFFFFFFFFFFFF AND SWAP1 POP SWAP1 JUMP JUMPDEST PUSH2 0xFCF PUSH2 0x1407 JUMP JUMPDEST PUSH0 PUSH20 0xFFFFFFFFFFFFFFFFFFFFFFFFFFFFFFFFFFFFFFFF AND DUP2 PUSH20 0xFFFFFFFFFFFFFFFFFFFFFFFFFFFFFFFFFFFFFFFF AND SUB PUSH2 0x103D JUMPI PUSH1 0x40 MLOAD PUSH32 0x8C379A000000000000000000000000000000000000000000000000000000000 DUP2 MSTORE PUSH1 0x4 ADD PUSH2 0x1034 SWAP1 PUSH2 0x202D JUMP JUMPDEST PUSH1 0x40 MLOAD DUP1 SWAP2 SUB SWAP1 REVERT JUMPDEST DUP1 PUSH1 0x3 PUSH0 PUSH2 0x100 EXP DUP2 SLOAD DUP2 PUSH20 0xFFFFFFFFFFFFFFFFFFFFFFFFFFFFFFFFFFFFFFFF MUL NOT AND SWAP1 DUP4 PUSH20 0xFFFFFFFFFFFFFFFFFFFFFFFFFFFFFFFFFFFFFFFF AND MUL OR SWAP1 SSTORE POP POP JUMP JUMPDEST PUSH1 0x5 PUSH1 0x20 MSTORE DUP1 PUSH0 MSTORE PUSH1 0x40 PUSH0 KECCAK256 PUSH0 SWAP2 POP SLOAD SWAP1 PUSH2 0x100 EXP SWAP1 DIV PUSH1 0xFF AND DUP2 JUMP JUMPDEST PUSH1 0x3 PUSH0 SWAP1 SLOAD SWAP1 PUSH2 0x100 EXP SWAP1 DIV PUSH20 0xFFFFFFFFFFFFFFFFFFFFFFFFFFFFFFFFFFFFFFFF AND DUP2 JUMP JUMPDEST PUSH2 0x10CA PUSH2 0x132D JUMP JUMPDEST PUSH0 PUSH1 0x7 PUSH0 DUP4 DUP2 MSTORE PUSH1 0x20 ADD SWAP1 DUP2 MSTORE PUSH1 0x20 ADD PUSH0 KECCAK256 SWAP1 POP DUP1 PUSH1 0x5 ADD PUSH1 0x1 SWAP1 SLOAD SWAP1 PUSH2 0x100 EXP SWAP1 DIV PUSH1 0xFF AND PUSH2 0x112F JUMPI PUSH1 0x40 MLOAD PUSH32 0x8C379A000000000000000000000000000000000000000000000000000000000 DUP2 MSTORE PUSH1 0x4 ADD PUSH2 0x1126 SWAP1 PUSH2 0x1E0F JUMP JUMPDEST PUSH1 0x40 MLOAD DUP1 SWAP2 SUB SWAP1 REVERT JUMPDEST CALLER PUSH20 0xFFFFFFFFFFFFFFFFFFFFFFFFFFFFFFFFFFFFFFFF AND DUP2 PUSH0 ADD PUSH0 SWAP1 SLOAD SWAP1 PUSH2 0x100 EXP SWAP1 DIV PUSH20 0xFFFFFFFFFFFFFFFFFFFFFFFFFFFFFFFFFFFFFFFF AND PUSH20 0xFFFFFFFFFFFFFFFFFFFFFFFFFFFFFFFFFFFFFFFF AND EQ PUSH2 0x11BF JUMPI PUSH1 0x40 MLOAD PUSH32 0x8C379A000000000000000000000000000000000000000000000000000000000 DUP2 MSTORE PUSH1 0x4 ADD PUSH2 0x11B6 SWAP1 PUSH2 0x20FD JUMP JUMPDEST PUSH1 0x40 MLOAD DUP1 SWAP2 SUB SWAP1 REVERT JUMPDEST PUSH0 DUP2 PUSH1 0x5 ADD PUSH1 0x1 PUSH2 0x100 EXP DUP2 SLOAD DUP2 PUSH1 0xFF MUL NOT AND SWAP1 DUP4 ISZERO ISZERO MUL OR SWAP1 SSTORE POP DUP2 PUSH32 0xC0C55A6EDEAD4433D18CB1E287A0A20A2FA003A6F483BC9823D2E504D70D1C67 PUSH1 0x40 MLOAD PUSH1 0x40 MLOAD DUP1 SWAP2 SUB SWAP1 LOG2 POP PUSH2 0x1211 PUSH2 0x137C JUMP JUMPDEST POP JUMP JUMPDEST PUSH1 0x7 PUSH1 0x20 MSTORE DUP1 PUSH0 MSTORE PUSH1 0x40 PUSH0 KECCAK256 PUSH0 SWAP2 POP SWAP1 POP DUP1 PUSH0 ADD PUSH0 SWAP1 SLOAD SWAP1 PUSH2 0x100 EXP SWAP1 DIV PUSH20 0xFFFFFFFFFFFFFFFFFFFFFFFFFFFFFFFFFFFFFFFF AND SWAP1 DUP1 PUSH1 0x1 ADD PUSH0 SWAP1 SLOAD SWAP1 PUSH2 0x100 EXP SWAP1 DIV PUSH20 0xFFFFFFFFFFFFFFFFFFFFFFFFFFFFFFFFFFFFFFFF AND SWAP1 DUP1 PUSH1 0x2 ADD SLOAD SWAP1 DUP1 PUSH1 0x3 ADD SLOAD SWAP1 DUP1 PUSH1 0x4 ADD SLOAD SWAP1 DUP1 PUSH1 0x5 ADD PUSH0 SWAP1 SLOAD SWAP1 PUSH2 0x100 EXP SWAP1 DIV PUSH1 0xFF AND SWAP1 DUP1 PUSH1 0x5 ADD PUSH1 0x1 SWAP1 SLOAD SWAP1 PUSH2 0x100 EXP SWAP1 DIV PUSH1 0xFF AND SWAP1 POP DUP8 JUMP JUMPDEST PUSH2 0x12B1 PUSH2 0x1407 JUMP JUMPDEST PUSH0 PUSH20 0xFFFFFFFFFFFFFFFFFFFFFFFFFFFFFFFFFFFFFFFF AND DUP2 PUSH20 0xFFFFFFFFFFFFFFFFFFFFFFFFFFFFFFFFFFFFFFFF AND SUB PUSH2 0x1321 JUMPI PUSH0 PUSH1 0x40 MLOAD PUSH32 0x1E4FBDF700000000000000000000000000000000000000000000000000000000 DUP2 MSTORE PUSH1 0x4 ADD PUSH2 0x1318 SWAP2 SWAP1 PUSH2 0x1895 JUMP JUMPDEST PUSH1 0x40 MLOAD DUP1 SWAP2 SUB SWAP1 REVERT JUMPDEST PUSH2 0x132A DUP2 PUSH2 0x148E JUMP JUMPDEST POP JUMP JUMPDEST PUSH1 0x2 PUSH1 0x1 SLOAD SUB PUSH2 0x1372 JUMPI PUSH1 0x40 MLOAD PUSH32 0x8C379A000000000000000000000000000000000000000000000000000000000 DUP2 MSTORE PUSH1 0x4 ADD PUSH2 0x1369 SWAP1 PUSH2 0x2165 JUMP JUMPDEST PUSH1 0x40 MLOAD DUP1 SWAP2 SUB SWAP1 REVERT JUMPDEST PUSH1 0x2 PUSH1 0x1 DUP2 SWAP1 SSTORE POP JUMP JUMPDEST PUSH1 0x1 DUP1 DUP2 SWAP1 SSTORE POP JUMP JUMPDEST PUSH2 0x1401 DUP5 DUP6 PUSH20 0xFFFFFFFFFFFFFFFFFFFFFFFFFFFFFFFFFFFFFFFF AND PUSH4 0x23B872DD DUP7 DUP7 DUP7 PUSH1 0x40 MLOAD PUSH1 0x24 ADD PUSH2 0x13BA SWAP4 SWAP3 SWAP2 SWAP1 PUSH2 0x1F87 JUMP JUMPDEST PUSH1 0x40 MLOAD PUSH1 0x20 DUP2 DUP4 SUB SUB DUP2 MSTORE SWAP1 PUSH1 0x40 MSTORE SWAP2 POP PUSH1 0xE0 SHL PUSH1 0x20 DUP3 ADD DUP1 MLOAD PUSH28 0xFFFFFFFFFFFFFFFFFFFFFFFFFFFFFFFFFFFFFFFFFFFFFFFFFFFFFFFF DUP4 DUP2 DUP4 AND OR DUP4 MSTORE POP POP POP POP PUSH2 0x154F JUMP JUMPDEST POP POP POP POP JUMP JUMPDEST PUSH2 0x140F PUSH2 0x15EA JUMP JUMPDEST PUSH20 0xFFFFFFFFFFFFFFFFFFFFFFFFFFFFFFFFFFFFFFFF AND PUSH2 0x142D PUSH2 0xFA0 JUMP JUMPDEST PUSH20 0xFFFFFFFFFFFFFFFFFFFFFFFFFFFFFFFFFFFFFFFF AND EQ PUSH2 0x148C JUMPI PUSH2 0x1450 PUSH2 0x15EA JUMP JUMPDEST PUSH1 0x40 MLOAD PUSH32 0x118CDAA700000000000000000000000000000000000000000000000000000000 DUP2 MSTORE PUSH1 0x4 ADD PUSH2 0x1483 SWAP2 SWAP1 PUSH2 0x1895 JUMP JUMPDEST PUSH1 0x40 MLOAD DUP1 SWAP2 SUB SWAP1 REVERT JUMPDEST JUMP JUMPDEST PUSH0 PUSH0 PUSH0 SWAP1 SLOAD SWAP1 PUSH2 0x100 EXP SWAP1 DIV PUSH20 0xFFFFFFFFFFFFFFFFFFFFFFFFFFFFFFFFFFFFFFFF AND SWAP1 POP DUP2 PUSH0 PUSH0 PUSH2 0x100 EXP DUP2 SLOAD DUP2 PUSH20 0xFFFFFFFFFFFFFFFFFFFFFFFFFFFFFFFFFFFFFFFF MUL NOT AND SWAP1 DUP4 PUSH20 0xFFFFFFFFFFFFFFFFFFFFFFFFFFFFFFFFFFFFFFFF AND MUL OR SWAP1 SSTORE POP DUP2 PUSH20 0xFFFFFFFFFFFFFFFFFFFFFFFFFFFFFFFFFFFFFFFF AND DUP2 PUSH20 0xFFFFFFFFFFFFFFFFFFFFFFFFFFFFFFFFFFFFFFFF AND PUSH32 0x8BE0079C531659141344CD1FD0A4F28419497F9722A3DAAFE3B4186F6B6457E0 PUSH1 0x40 MLOAD PUSH1 0x40 MLOAD DUP1 SWAP2 SUB SWAP1 LOG3 POP POP JUMP JUMPDEST PUSH0 PUSH0 PUSH1 0x20 PUSH0 DUP5 MLOAD PUSH1 0x20 DUP7 ADD PUSH0 DUP9 GAS CALL DUP1 PUSH2 0x156E JUMPI PUSH1 0x40 MLOAD RETURNDATASIZE PUSH0 DUP3 RETURNDATACOPY RETURNDATASIZE DUP2 REVERT JUMPDEST RETURNDATASIZE SWAP3 POP PUSH0 MLOAD SWAP2 POP POP PUSH0 DUP3 EQ PUSH2 0x1587 JUMPI PUSH1 0x1 DUP2 EQ ISZERO PUSH2 0x15A2 JUMP JUMPDEST PUSH0 DUP5 PUSH20 0xFFFFFFFFFFFFFFFFFFFFFFFFFFFFFFFFFFFFFFFF AND EXTCODESIZE EQ JUMPDEST ISZERO PUSH2 0x15E4 JUMPI DUP4 PUSH1 0x40 MLOAD PUSH32 0x5274AFE700000000000000000000000000000000000000000000000000000000 DUP2 MSTORE PUSH1 0x4 ADD PUSH2 0x15DB SWAP2 SWAP1 PUSH2 0x1895 JUMP JUMPDEST PUSH1 0x40 MLOAD DUP1 SWAP2 SUB SWAP1 REVERT JUMPDEST POP POP POP POP JUMP JUMPDEST PUSH0 CALLER SWAP1 POP SWAP1 JUMP JUMPDEST PUSH0 PUSH20 0xFFFFFFFFFFFFFFFFFFFFFFFFFFFFFFFFFFFFFFFF DUP3 AND SWAP1 POP SWAP2 SWAP1 POP JUMP JUMPDEST PUSH0 DUP2 SWAP1 POP SWAP2 SWAP1 POP JUMP JUMPDEST PUSH0 PUSH2 0x1633 PUSH2 0x162E PUSH2 0x1629 DUP5 PUSH2 0x15F1 JUMP JUMPDEST PUSH2 0x1610 JUMP JUMPDEST PUSH2 0x15F1 JUMP JUMPDEST SWAP1 POP SWAP2 SWAP1 POP JUMP JUMPDEST PUSH0 PUSH2 0x1644 DUP3 PUSH2 0x1619 JUMP JUMPDEST SWAP1 POP SWAP2 SWAP1 POP JUMP JUMPDEST PUSH0 PUSH2 0x1655 DUP3 PUSH2 0x163A JUMP JUMPDEST SWAP1 POP SWAP2 SWAP1 POP JUMP JUMPDEST PUSH2 0x1665 DUP2 PUSH2 0x164B JUMP JUMPDEST DUP3 MSTORE POP POP JUMP JUMPDEST PUSH0 PUSH1 0x20 DUP3 ADD SWAP1 POP PUSH2 0x167E PUSH0 DUP4 ADD DUP5 PUSH2 0x165C JUMP JUMPDEST SWAP3 SWAP2 POP POP JUMP JUMPDEST PUSH0 PUSH0 REVERT JUMPDEST PUSH0 PUSH2 0x1692 DUP3 PUSH2 0x15F1 JUMP JUMPDEST SWAP1 POP SWAP2 SWAP1 POP JUMP JUMPDEST PUSH2 0x16A2 DUP2 PUSH2 0x1688 JUMP JUMPDEST DUP2 EQ PUSH2 0x16AC JUMPI PUSH0 PUSH0 REVERT JUMPDEST POP JUMP JUMPDEST PUSH0 DUP2 CALLDATALOAD SWAP1 POP PUSH2 0x16BD DUP2 PUSH2 0x1699 JUMP JUMPDEST SWAP3 SWAP2 POP POP JUMP JUMPDEST PUSH0 DUP2 SWAP1 POP SWAP2 SWAP1 POP JUMP JUMPDEST PUSH2 0x16D5 DUP2 PUSH2 0x16C3 JUMP JUMPDEST DUP2 EQ PUSH2 0x16DF JUMPI PUSH0 PUSH0 REVERT JUMPDEST POP JUMP JUMPDEST PUSH0 DUP2 CALLDATALOAD SWAP1 POP PUSH2 0x16F0 DUP2 PUSH2 0x16CC JUMP JUMPDEST SWAP3 SWAP2 POP POP JUMP JUMPDEST PUSH0 DUP2 ISZERO ISZERO SWAP1 POP SWAP2 SWAP1 POP JUMP JUMPDEST PUSH2 0x170A DUP2 PUSH2 0x16F6 JUMP JUMPDEST DUP2 EQ PUSH2 0x1714 JUMPI PUSH0 PUSH0 REVERT JUMPDEST POP JUMP JUMPDEST PUSH0 DUP2 CALLDATALOAD SWAP1 POP PUSH2 0x1725 DUP2 PUSH2 0x1701 JUMP JUMPDEST SWAP3 SWAP2 POP POP JUMP JUMPDEST PUSH0 PUSH0 PUSH0 PUSH0 PUSH0 PUSH1 0xA0 DUP7 DUP9 SUB SLT ISZERO PUSH2 0x1744 JUMPI PUSH2 0x1743 PUSH2 0x1684 JUMP JUMPDEST JUMPDEST PUSH0 PUSH2 0x1751 DUP9 DUP3 DUP10 ADD PUSH2 0x16AF JUMP JUMPDEST SWAP6 POP POP PUSH1 0x20 PUSH2 0x1762 DUP9 DUP3 DUP10 ADD PUSH2 0x16E2 JUMP JUMPDEST SWAP5 POP POP PUSH1 0x40 PUSH2 0x1773 DUP9 DUP3 DUP10 ADD PUSH2 0x16E2 JUMP JUMPDEST SWAP4 POP POP PUSH1 0x60 PUSH2 0x1784 DUP9 DUP3 DUP10 ADD PUSH2 0x16E2 JUMP JUMPDEST SWAP3 POP POP PUSH1 0x80 PUSH2 0x1795 DUP9 DUP3 DUP10 ADD PUSH2 0x1717 JUMP JUMPDEST SWAP2 POP POP SWAP3 SWAP6 POP SWAP3 SWAP6 SWAP1 SWAP4 POP JUMP JUMPDEST PUSH0 PUSH1 0x20 DUP3 DUP5 SUB SLT ISZERO PUSH2 0x17B7 JUMPI PUSH2 0x17B6 PUSH2 0x1684 JUMP JUMPDEST JUMPDEST PUSH0 PUSH2 0x17C4 DUP5 DUP3 DUP6 ADD PUSH2 0x16AF JUMP JUMPDEST SWAP2 POP POP SWAP3 SWAP2 POP POP JUMP JUMPDEST PUSH2 0x17D6 DUP2 PUSH2 0x16F6 JUMP JUMPDEST DUP3 MSTORE POP POP JUMP JUMPDEST PUSH0 PUSH1 0x20 DUP3 ADD SWAP1 POP PUSH2 0x17EF PUSH0 DUP4 ADD DUP5 PUSH2 0x17CD JUMP JUMPDEST SWAP3 SWAP2 POP POP JUMP JUMPDEST PUSH0 PUSH1 0x20 DUP3 DUP5 SUB SLT ISZERO PUSH2 0x180A JUMPI PUSH2 0x1809 PUSH2 0x1684 JUMP JUMPDEST JUMPDEST PUSH0 PUSH2 0x1817 DUP5 DUP3 DUP6 ADD PUSH2 0x16E2 JUMP JUMPDEST SWAP2 POP POP SWAP3 SWAP2 POP POP JUMP JUMPDEST PUSH2 0x1829 DUP2 PUSH2 0x16C3 JUMP JUMPDEST DUP3 MSTORE POP POP JUMP JUMPDEST PUSH0 PUSH1 0x20 DUP3 ADD SWAP1 POP PUSH2 0x1842 PUSH0 DUP4 ADD DUP5 PUSH2 0x1820 JUMP JUMPDEST SWAP3 SWAP2 POP POP JUMP JUMPDEST PUSH0 PUSH0 PUSH1 0x40 DUP4 DUP6 SUB SLT ISZERO PUSH2 0x185E JUMPI PUSH2 0x185D PUSH2 0x1684 JUMP JUMPDEST JUMPDEST PUSH0 PUSH2 0x186B DUP6 DUP3 DUP7 ADD PUSH2 0x16AF JUMP JUMPDEST SWAP3 POP POP PUSH1 0x20 PUSH2 0x187C DUP6 DUP3 DUP7 ADD PUSH2 0x1717 JUMP JUMPDEST SWAP2 POP POP SWAP3 POP SWAP3 SWAP1 POP JUMP JUMPDEST PUSH2 0x188F DUP2 PUSH2 0x1688 JUMP JUMPDEST DUP3 MSTORE POP POP JUMP JUMPDEST PUSH0 PUSH1 0x20 DUP3 ADD SWAP1 POP PUSH2 0x18A8 PUSH0 DUP4 ADD DUP5 PUSH2 0x1886 JUMP JUMPDEST SWAP3 SWAP2 POP POP JUMP JUMPDEST PUSH0 PUSH1 0xE0 DUP3 ADD SWAP1 POP PUSH2 0x18C1 PUSH0 DUP4 ADD DUP11 PUSH2 0x1886 JUMP JUMPDEST PUSH2 0x18CE PUSH1 0x20 DUP4 ADD DUP10 PUSH2 0x1886 JUMP JUMPDEST PUSH2 0x18DB PUSH1 0x40 DUP4 ADD DUP9 PUSH2 0x1820 JUMP JUMPDEST PUSH2 0x18E8 PUSH1 0x60 DUP4 ADD DUP8 PUSH2 0x1820 JUMP JUMPDEST PUSH2 0x18F5 PUSH1 0x80 DUP4 ADD DUP7 PUSH2 0x1820 JUMP JUMPDEST PUSH2 0x1902 PUSH1 0xA0 DUP4 ADD DUP6 PUSH2 0x17CD JUMP JUMPDEST PUSH2 0x190F PUSH1 0xC0 DUP4 ADD DUP5 PUSH2 0x17CD JUMP JUMPDEST SWAP9 SWAP8 POP POP POP POP POP POP POP POP JUMP JUMPDEST PUSH0 DUP3 DUP3 MSTORE PUSH1 0x20 DUP3 ADD SWAP1 POP SWAP3 SWAP2 POP POP JUMP JUMPDEST PUSH32 0x4E465420636F6E7472616374206E6F7420616C6C6F7765640000000000000000 PUSH0 DUP3 ADD MSTORE POP JUMP JUMPDEST PUSH0 PUSH2 0x195F PUSH1 0x18 DUP4 PUSH2 0x191B JUMP JUMPDEST SWAP2 POP PUSH2 0x196A DUP3 PUSH2 0x192B JUMP JUMPDEST PUSH1 0x20 DUP3 ADD SWAP1 POP SWAP2 SWAP1 POP JUMP JUMPDEST PUSH0 PUSH1 0x20 DUP3 ADD SWAP1 POP DUP2 DUP2 SUB PUSH0 DUP4 ADD MSTORE PUSH2 0x198C DUP2 PUSH2 0x1953 JUMP JUMPDEST SWAP1 POP SWAP2 SWAP1 POP JUMP JUMPDEST PUSH32 0x7072696365207A65726F00000000000000000000000000000000000000000000 PUSH0 DUP3 ADD MSTORE POP JUMP JUMPDEST PUSH0 PUSH2 0x19C7 PUSH1 0xA DUP4 PUSH2 0x191B JUMP JUMPDEST SWAP2 POP PUSH2 0x19D2 DUP3 PUSH2 0x1993 JUMP JUMPDEST PUSH1 0x20 DUP3 ADD SWAP1 POP SWAP2 SWAP1 POP JUMP JUMPDEST PUSH0 PUSH1 0x20 DUP3 ADD SWAP1 POP DUP2 DUP2 SUB PUSH0 DUP4 ADD MSTORE PUSH2 0x19F4 DUP2 PUSH2 0x19BB JUMP JUMPDEST SWAP1 POP SWAP2 SWAP1 POP JUMP JUMPDEST PUSH32 0x616D6F756E74207A65726F000000000000000000000000000000000000000000 PUSH0 DUP3 ADD MSTORE POP JUMP JUMPDEST PUSH0 PUSH2 0x1A2F PUSH1 0xB DUP4 PUSH2 0x191B JUMP JUMPDEST SWAP2 POP PUSH2 0x1A3A DUP3 PUSH2 0x19FB JUMP JUMPDEST PUSH1 0x20 DUP3 ADD SWAP1 POP SWAP2 SWAP1 POP JUMP JUMPDEST PUSH0 PUSH1 0x20 DUP3 ADD SWAP1 POP DUP2 DUP2 SUB PUSH0 DUP4 ADD MSTORE PUSH2 0x1A5C DUP2 PUSH2 0x1A23 JUMP JUMPDEST SWAP1 POP SWAP2 SWAP1 POP JUMP JUMPDEST PUSH0 PUSH1 0x40 DUP3 ADD SWAP1 POP PUSH2 0x1A76 PUSH0 DUP4 ADD DUP6 PUSH2 0x1886 JUMP JUMPDEST PUSH2 0x1A83 PUSH1 0x20 DUP4 ADD DUP5 PUSH2 0x1820 JUMP JUMPDEST SWAP4 SWAP3 POP POP POP JUMP JUMPDEST PUSH0 DUP2 MLOAD SWAP1 POP PUSH2 0x1A98 DUP2 PUSH2 0x16CC JUMP JUMPDEST SWAP3 SWAP2 POP POP JUMP JUMPDEST PUSH0 PUSH1 0x20 DUP3 DUP5 SUB SLT ISZERO PUSH2 0x1AB3 JUMPI PUSH2 0x1AB2 PUSH2 0x1684 JUMP JUMPDEST JUMPDEST PUSH0 PUSH2 0x1AC0 DUP5 DUP3 DUP6 ADD PUSH2 0x1A8A JUMP JUMPDEST SWAP2 POP POP SWAP3 SWAP2 POP POP JUMP JUMPDEST PUSH32 0x696E73756666696369656E742062616C616E6365000000000000000000000000 PUSH0 DUP3 ADD MSTORE POP JUMP JUMPDEST PUSH0 PUSH2 0x1AFD PUSH1 0x14 DUP4 PUSH2 0x191B JUMP JUMPDEST SWAP2 POP PUSH2 0x1B08 DUP3 PUSH2 0x1AC9 JUMP JUMPDEST PUSH1 0x20 DUP3 ADD SWAP1 POP SWAP2 SWAP1 POP JUMP JUMPDEST PUSH0 PUSH1 0x20 DUP3 ADD SWAP1 POP DUP2 DUP2 SUB PUSH0 DUP4 ADD MSTORE PUSH2 0x1B2A DUP2 PUSH2 0x1AF1 JUMP JUMPDEST SWAP1 POP SWAP2 SWAP1 POP JUMP JUMPDEST PUSH0 PUSH1 0x40 DUP3 ADD SWAP1 POP PUSH2 0x1B44 PUSH0 DUP4 ADD DUP6 PUSH2 0x1886 JUMP JUMPDEST PUSH2 0x1B51 PUSH1 0x20 DUP4 ADD DUP5 PUSH2 0x1886 JUMP JUMPDEST SWAP4 SWAP3 POP POP POP JUMP JUMPDEST PUSH0 DUP2 MLOAD SWAP1 POP PUSH2 0x1B66 DUP2 PUSH2 0x1701 JUMP JUMPDEST SWAP3 SWAP2 POP POP JUMP JUMPDEST PUSH0 PUSH1 0x20 DUP3 DUP5 SUB SLT ISZERO PUSH2 0x1B81 JUMPI PUSH2 0x1B80 PUSH2 0x1684 JUMP JUMPDEST JUMPDEST PUSH0 PUSH2 0x1B8E DUP5 DUP3 DUP6 ADD PUSH2 0x1B58 JUMP JUMPDEST SWAP2 POP POP SWAP3 SWAP2 POP POP JUMP JUMPDEST PUSH32 0x6E6F7420617070726F7665640000000000000000000000000000000000000000 PUSH0 DUP3 ADD MSTORE POP JUMP JUMPDEST PUSH0 PUSH2 0x1BCB PUSH1 0xC DUP4 PUSH2 0x191B JUMP JUMPDEST SWAP2 POP PUSH2 0x1BD6 DUP3 PUSH2 0x1B97 JUMP JUMPDEST PUSH1 0x20 DUP3 ADD SWAP1 POP SWAP2 SWAP1 POP JUMP JUMPDEST PUSH0 PUSH1 0x20 DUP3 ADD SWAP1 POP DUP2 DUP2 SUB PUSH0 DUP4 ADD MSTORE PUSH2 0x1BF8 DUP2 PUSH2 0x1BBF JUMP JUMPDEST SWAP1 POP SWAP2 SWAP1 POP JUMP JUMPDEST PUSH32 0x616D6F756E74206D757374206265203120666F72204552433732310000000000 PUSH0 DUP3 ADD MSTORE POP JUMP JUMPDEST PUSH0 PUSH2 0x1C33 PUSH1 0x1B DUP4 PUSH2 0x191B JUMP JUMPDEST SWAP2 POP PUSH2 0x1C3E DUP3 PUSH2 0x1BFF JUMP JUMPDEST PUSH1 0x20 DUP3 ADD SWAP1 POP SWAP2 SWAP1 POP JUMP JUMPDEST PUSH0 PUSH1 0x20 DUP3 ADD SWAP1 POP DUP2 DUP2 SUB PUSH0 DUP4 ADD MSTORE PUSH2 0x1C60 DUP2 PUSH2 0x1C27 JUMP JUMPDEST SWAP1 POP SWAP2 SWAP1 POP JUMP JUMPDEST PUSH0 DUP2 MLOAD SWAP1 POP PUSH2 0x1C75 DUP2 PUSH2 0x1699 JUMP JUMPDEST SWAP3 SWAP2 POP POP JUMP JUMPDEST PUSH0 PUSH1 0x20 DUP3 DUP5 SUB SLT ISZERO PUSH2 0x1C90 JUMPI PUSH2 0x1C8F PUSH2 0x1684 JUMP JUMPDEST JUMPDEST PUSH0 PUSH2 0x1C9D DUP5 DUP3 DUP6 ADD PUSH2 0x1C67 JUMP JUMPDEST SWAP2 POP POP SWAP3 SWAP2 POP POP JUMP JUMPDEST PUSH32 0x6E6F74206F776E65720000000000000000000000000000000000000000000000 PUSH0 DUP3 ADD MSTORE POP JUMP JUMPDEST PUSH0 PUSH2 0x1CDA PUSH1 0x9 DUP4 PUSH2 0x191B JUMP JUMPDEST SWAP2 POP PUSH2 0x1CE5 DUP3 PUSH2 0x1CA6 JUMP JUMPDEST PUSH1 0x20 DUP3 ADD SWAP1 POP SWAP2 SWAP1 POP JUMP JUMPDEST PUSH0 PUSH1 0x20 DUP3 ADD SWAP1 POP DUP2 DUP2 SUB PUSH0 DUP4 ADD MSTORE PUSH2 0x1D07 DUP2 PUSH2 0x1CCE JUMP JUMPDEST SWAP1 POP SWAP2 SWAP1 POP JUMP JUMPDEST PUSH32 0x4E487B7100000000000000000000000000000000000000000000000000000000 PUSH0 MSTORE PUSH1 0x11 PUSH1 0x4 MSTORE PUSH1 0x24 PUSH0 REVERT JUMPDEST PUSH0 PUSH2 0x1D45 DUP3 PUSH2 0x16C3 JUMP JUMPDEST SWAP2 POP PUSH32 0xFFFFFFFFFFFFFFFFFFFFFFFFFFFFFFFFFFFFFFFFFFFFFFFFFFFFFFFFFFFFFFFF DUP3 SUB PUSH2 0x1D77 JUMPI PUSH2 0x1D76 PUSH2 0x1D0E JUMP JUMPDEST JUMPDEST PUSH1 0x1 DUP3 ADD SWAP1 POP SWAP2 SWAP1 POP JUMP JUMPDEST PUSH0 PUSH1 0x80 DUP3 ADD SWAP1 POP PUSH2 0x1D95 PUSH0 DUP4 ADD DUP8 PUSH2 0x1820 JUMP JUMPDEST PUSH2 0x1DA2 PUSH1 0x20 DUP4 ADD DUP7 PUSH2 0x1820 JUMP JUMPDEST PUSH2 0x1DAF PUSH1 0x40 DUP4 ADD DUP6 PUSH2 0x1820 JUMP JUMPDEST PUSH2 0x1DBC PUSH1 0x60 DUP4 ADD DUP5 PUSH2 0x17CD JUMP JUMPDEST SWAP6 SWAP5 POP POP POP POP POP JUMP JUMPDEST PUSH32 0x6C697374696E6720696E61637469766500000000000000000000000000000000 PUSH0 DUP3 ADD MSTORE POP JUMP JUMPDEST PUSH0 PUSH2 0x1DF9 PUSH1 0x10 DUP4 PUSH2 0x191B JUMP JUMPDEST SWAP2 POP PUSH2 0x1E04 DUP3 PUSH2 0x1DC5 JUMP JUMPDEST PUSH1 0x20 DUP3 ADD SWAP1 POP SWAP2 SWAP1 POP JUMP JUMPDEST PUSH0 PUSH1 0x20 DUP3 ADD SWAP1 POP DUP2 DUP2 SUB PUSH0 DUP4 ADD MSTORE PUSH2 0x1E26 DUP2 PUSH2 0x1DED JUMP JUMPDEST SWAP1 POP SWAP2 SWAP1 POP JUMP JUMPDEST PUSH0 PUSH2 0x1E37 DUP3 PUSH2 0x16C3 JUMP JUMPDEST SWAP2 POP PUSH2 0x1E42 DUP4 PUSH2 0x16C3 JUMP JUMPDEST SWAP3 POP DUP3 DUP3 MUL PUSH2 0x1E50 DUP2 PUSH2 0x16C3 JUMP JUMPDEST SWAP2 POP DUP3 DUP3 DIV DUP5 EQ DUP4 ISZERO OR PUSH2 0x1E67 JUMPI PUSH2 0x1E66 PUSH2 0x1D0E JUMP JUMPDEST JUMPDEST POP SWAP3 SWAP2 POP POP JUMP JUMPDEST PUSH32 0x4E487B7100000000000000000000000000000000000000000000000000000000 PUSH0 MSTORE PUSH1 0x12 PUSH1 0x4 MSTORE PUSH1 0x24 PUSH0 REVERT JUMPDEST PUSH0 PUSH2 0x1EA5 DUP3 PUSH2 0x16C3 JUMP JUMPDEST SWAP2 POP PUSH2 0x1EB0 DUP4 PUSH2 0x16C3 JUMP JUMPDEST SWAP3 POP DUP3 PUSH2 0x1EC0 JUMPI PUSH2 0x1EBF PUSH2 0x1E6E JUMP JUMPDEST JUMPDEST DUP3 DUP3 DIV SWAP1 POP SWAP3 SWAP2 POP POP JUMP JUMPDEST PUSH0 PUSH2 0x1ED5 DUP3 PUSH2 0x16C3 JUMP JUMPDEST SWAP2 POP PUSH2 0x1EE0 DUP4 PUSH2 0x16C3 JUMP JUMPDEST SWAP3 POP DUP3 DUP3 SUB SWAP1 POP DUP2 DUP2 GT ISZERO PUSH2 0x1EF8 JUMPI PUSH2 0x1EF7 PUSH2 0x1D0E JUMP JUMPDEST JUMPDEST SWAP3 SWAP2 POP POP JUMP JUMPDEST PUSH0 DUP3 DUP3 MSTORE PUSH1 0x20 DUP3 ADD SWAP1 POP SWAP3 SWAP2 POP POP JUMP JUMPDEST POP JUMP JUMPDEST PUSH0 PUSH2 0x1F1C PUSH0 DUP4 PUSH2 0x1EFE JUMP JUMPDEST SWAP2 POP PUSH2 0x1F27 DUP3 PUSH2 0x1F0E JUMP JUMPDEST PUSH0 DUP3 ADD SWAP1 POP SWAP2 SWAP1 POP JUMP JUMPDEST PUSH0 PUSH1 0xA0 DUP3 ADD SWAP1 POP PUSH2 0x1F44 PUSH0 DUP4 ADD DUP8 PUSH2 0x1886 JUMP JUMPDEST PUSH2 0x1F51 PUSH1 0x20 DUP4 ADD DUP7 PUSH2 0x1886 JUMP JUMPDEST PUSH2 0x1F5E PUSH1 0x40 DUP4 ADD DUP6 PUSH2 0x1820 JUMP JUMPDEST PUSH2 0x1F6B PUSH1 0x60 DUP4 ADD DUP5 PUSH2 0x1820 JUMP JUMPDEST DUP2 DUP2 SUB PUSH1 0x80 DUP4 ADD MSTORE PUSH2 0x1F7C DUP2 PUSH2 0x1F11 JUMP JUMPDEST SWAP1 POP SWAP6 SWAP5 POP POP POP POP POP JUMP JUMPDEST PUSH0 PUSH1 0x60 DUP3 ADD SWAP1 POP PUSH2 0x1F9A PUSH0 DUP4 ADD DUP7 PUSH2 0x1886 JUMP JUMPDEST PUSH2 0x1FA7 PUSH1 0x20 DUP4 ADD DUP6 PUSH2 0x1886 JUMP JUMPDEST PUSH2 0x1FB4 PUSH1 0x40 DUP4 ADD DUP5 PUSH2 0x1820 JUMP JUMPDEST SWAP5 SWAP4 POP POP POP POP JUMP JUMPDEST PUSH0 PUSH1 0x40 DUP3 ADD SWAP1 POP PUSH2 0x1FCF PUSH0 DUP4 ADD DUP6 PUSH2 0x1820 JUMP JUMPDEST PUSH2 0x1FDC PUSH1 0x20 DUP4 ADD DUP5 PUSH2 0x1820 JUMP JUMPDEST SWAP4 SWAP3 POP POP POP JUMP JUMPDEST PUSH32 0x7A65726F20616464720000000000000000000000000000000000000000000000 PUSH0 DUP3 ADD MSTORE POP JUMP JUMPDEST PUSH0 PUSH2 0x2017 PUSH1 0x9 DUP4 PUSH2 0x191B JUMP JUMPDEST SWAP2 POP PUSH2 0x2022 DUP3 PUSH2 0x1FE3 JUMP JUMPDEST PUSH1 0x20 DUP3 ADD SWAP1 POP SWAP2 SWAP1 POP JUMP JUMPDEST PUSH0 PUSH1 0x20 DUP3 ADD SWAP1 POP DUP2 DUP2 SUB PUSH0 DUP4 ADD MSTORE PUSH2 0x2044 DUP2 PUSH2 0x200B JUMP JUMPDEST SWAP1 POP SWAP2 SWAP1 POP JUMP JUMPDEST PUSH32 0x6D61782031303030300000000000000000000000000000000000000000000000 PUSH0 DUP3 ADD MSTORE POP JUMP JUMPDEST PUSH0 PUSH2 0x207F PUSH1 0x9 DUP4 PUSH2 0x191B JUMP JUMPDEST SWAP2 POP PUSH2 0x208A DUP3 PUSH2 0x204B JUMP JUMPDEST PUSH1 0x20 DUP3 ADD SWAP1 POP SWAP2 SWAP1 POP JUMP JUMPDEST PUSH0 PUSH1 0x20 DUP3 ADD SWAP1 POP DUP2 DUP2 SUB PUSH0 DUP4 ADD MSTORE PUSH2 0x20AC DUP2 PUSH2 0x2073 JUMP JUMPDEST SWAP1 POP SWAP2 SWAP1 POP JUMP JUMPDEST PUSH32 0x6E6F742073656C6C657200000000000000000000000000000000000000000000 PUSH0 DUP3 ADD MSTORE POP JUMP JUMPDEST PUSH0 PUSH2 0x20E7 PUSH1 0xA DUP4 PUSH2 0x191B JUMP JUMPDEST SWAP2 POP PUSH2 0x20F2 DUP3 PUSH2 0x20B3 JUMP JUMPDEST PUSH1 0x20 DUP3 ADD SWAP1 POP SWAP2 SWAP1 POP JUMP JUMPDEST PUSH0 PUSH1 0x20 DUP3 ADD SWAP1 POP DUP2 DUP2 SUB PUSH0 DUP4 ADD MSTORE PUSH2 0x2114 DUP2 PUSH2 0x20DB JUMP JUMPDEST SWAP1 POP SWAP2 SWAP1 POP JUMP JUMPDEST PUSH32 0x5265656E7472616E637947756172643A207265656E7472616E742063616C6C00 PUSH0 DUP3 ADD MSTORE POP JUMP JUMPDEST PUSH0 PUSH2 0x214F PUSH1 0x1F DUP4 PUSH2 0x191B JUMP JUMPDEST SWAP2 POP PUSH2 0x215A DUP3 PUSH2 0x211B JUMP JUMPDEST PUSH1 0x20 DUP3 ADD SWAP1 POP SWAP2 SWAP1 POP JUMP JUMPDEST PUSH0 PUSH1 0x20 DUP3 ADD SWAP1 POP DUP2 DUP2 SUB PUSH0 DUP4 ADD MSTORE PUSH2 0x217C DUP2 PUSH2 0x2143 JUMP JUMPDEST SWAP1 POP SWAP2 SWAP1 POP JUMP INVALID LOG2 PUSH5 0x6970667358 0x22 SLT KECCAK256 0xEB PUSH3 0xD52665 0xB0 SWAP6 0xED 0xBB INVALID PUSH8 0xBE3CA40B7A67D8FB SWAP16 PREVRANDAO 0xCF 0xCC KECCAK256 PUSH28 0xF226E7787F3D2864736F6C634300081E003300000000000000000000 "
				},
				"gasEstimates": {
					"creation": {
						"codeDepositCost": "1726600",
						"executionCost": "infinite",
						"totalCost": "infinite"
					},
					"external": {
						"allowedNFTContracts(address)": "2922",
						"buyNFT(uint256)": "infinite",
						"delistNFT(uint256)": "76792",
						"feeCollector()": "2530",
						"feePercent()": "2514",
						"isAllowedNFT(address)": "2938",
						"listNFT(address,uint256,uint256,uint256,bool)": "infinite",
						"listings(uint256)": "infinite",
						"owner()": "2559",
						"paymentToken()": "infinite",
						"renounceOwnership()": "infinite",
						"setAllowedNFTContract(address,bool)": "infinite",
						"setFeeCollector(address)": "infinite",
						"setFeePercent(uint256)": "infinite",
						"setPaymentToken(address)": "infinite",
						"transferOwnership(address)": "infinite"
					}
				},
				"methodIdentifiers": {
					"allowedNFTContracts(address)": "c0f6ae97",
					"buyNFT(uint256)": "51ed8288",
					"delistNFT(uint256)": "cb917b9c",
					"feeCollector()": "c415b95c",
					"feePercent()": "7fd6f15c",
					"isAllowedNFT(address)": "4e9b8c5d",
					"listNFT(address,uint256,uint256,uint256,bool)": "3ae6064b",
					"listings(uint256)": "de74e57b",
					"owner()": "8da5cb5b",
					"paymentToken()": "3013ce29",
					"renounceOwnership()": "715018a6",
					"setAllowedNFTContract(address,bool)": "80df50a8",
					"setFeeCollector(address)": "a42dce80",
					"setFeePercent(uint256)": "7ce3489b",
					"setPaymentToken(address)": "6a326ab1",
					"transferOwnership(address)": "f2fde38b"
				}
			},
			"storageLayout": {
				"storage": [
					{
						"astId": 8,
						"contract": "Marketplace_NFT.sol:SavePointMarketplace",
						"label": "_owner",
						"offset": 0,
						"slot": "0",
						"type": "t_address"
					},
					{
						"astId": 248,
						"contract": "Marketplace_NFT.sol:SavePointMarketplace",
						"label": "_status",
						"offset": 0,
						"slot": "1",
						"type": "t_uint256"
					},
					{
						"astId": 1145,
						"contract": "Marketplace_NFT.sol:SavePointMarketplace",
						"label": "paymentToken",
						"offset": 0,
						"slot": "2",
						"type": "t_contract(IERC20)503"
					},
					{
						"astId": 1147,
						"contract": "Marketplace_NFT.sol:SavePointMarketplace",
						"label": "feeCollector",
						"offset": 0,
						"slot": "3",
						"type": "t_address"
					},
					{
						"astId": 1149,
						"contract": "Marketplace_NFT.sol:SavePointMarketplace",
						"label": "feePercent",
						"offset": 0,
						"slot": "4",
						"type": "t_uint256"
					},
					{
						"astId": 1153,
						"contract": "Marketplace_NFT.sol:SavePointMarketplace",
						"label": "allowedNFTContracts",
						"offset": 0,
						"slot": "5",
						"type": "t_mapping(t_address,t_bool)"
					},
					{
						"astId": 1170,
						"contract": "Marketplace_NFT.sol:SavePointMarketplace",
						"label": "_listingIdCounter",
						"offset": 0,
						"slot": "6",
						"type": "t_uint256"
					},
					{
						"astId": 1175,
						"contract": "Marketplace_NFT.sol:SavePointMarketplace",
						"label": "listings",
						"offset": 0,
						"slot": "7",
						"type": "t_mapping(t_uint256,t_struct(Listing)1168_storage)"
					}
				],
				"types": {
					"t_address": {
						"encoding": "inplace",
						"label": "address",
						"numberOfBytes": "20"
					},
					"t_bool": {
						"encoding": "inplace",
						"label": "bool",
						"numberOfBytes": "1"
					},
					"t_contract(IERC20)503": {
						"encoding": "inplace",
						"label": "contract IERC20",
						"numberOfBytes": "20"
					},
					"t_mapping(t_address,t_bool)": {
						"encoding": "mapping",
						"key": "t_address",
						"label": "mapping(address => bool)",
						"numberOfBytes": "32",
						"value": "t_bool"
					},
					"t_mapping(t_uint256,t_struct(Listing)1168_storage)": {
						"encoding": "mapping",
						"key": "t_uint256",
						"label": "mapping(uint256 => struct SavePointMarketplace.Listing)",
						"numberOfBytes": "32",
						"value": "t_struct(Listing)1168_storage"
					},
					"t_struct(Listing)1168_storage": {
						"encoding": "inplace",
						"label": "struct SavePointMarketplace.Listing",
						"members": [
							{
								"astId": 1155,
								"contract": "Marketplace_NFT.sol:SavePointMarketplace",
								"label": "seller",
								"offset": 0,
								"slot": "0",
								"type": "t_address"
							},
							{
								"astId": 1157,
								"contract": "Marketplace_NFT.sol:SavePointMarketplace",
								"label": "nftContract",
								"offset": 0,
								"slot": "1",
								"type": "t_address"
							},
							{
								"astId": 1159,
								"contract": "Marketplace_NFT.sol:SavePointMarketplace",
								"label": "tokenId",
								"offset": 0,
								"slot": "2",
								"type": "t_uint256"
							},
							{
								"astId": 1161,
								"contract": "Marketplace_NFT.sol:SavePointMarketplace",
								"label": "amount",
								"offset": 0,
								"slot": "3",
								"type": "t_uint256"
							},
							{
								"astId": 1163,
								"contract": "Marketplace_NFT.sol:SavePointMarketplace",
								"label": "price",
								"offset": 0,
								"slot": "4",
								"type": "t_uint256"
							},
							{
								"astId": 1165,
								"contract": "Marketplace_NFT.sol:SavePointMarketplace",
								"label": "isERC1155",
								"offset": 0,
								"slot": "5",
								"type": "t_bool"
							},
							{
								"astId": 1167,
								"contract": "Marketplace_NFT.sol:SavePointMarketplace",
								"label": "active",
								"offset": 1,
								"slot": "5",
								"type": "t_bool"
							}
						],
						"numberOfBytes": "192"
					},
					"t_uint256": {
						"encoding": "inplace",
						"label": "uint256",
						"numberOfBytes": "32"
					}
				}
			},
			"userdoc": {
				"kind": "user",
				"methods": {},
				"version": 1
			}
		}
	}
}