{
	"Game_Logic.sol": {
		"SavePointGameLogic": {
			"abi": [
				{
					"inputs": [
						{
							"internalType": "address",
							"name": "initialOwner",
							"type": "address"
						},
						{
							"internalType": "address",
							"name": "_avatarNFT",
							"type": "address"
						},
						{
							"internalType": "address",
							"name": "_itemNFT",
							"type": "address"
						},
						{
							"internalType": "address",
							"name": "_treasuryWallet",
							"type": "address"
						},
						{
							"internalType": "address",
							"name": "_rewardSigner",
							"type": "address"
						}
					],
					"stateMutability": "nonpayable",
					"type": "constructor"
				},
				{
					"inputs": [],
					"name": "ECDSAInvalidSignature",
					"type": "error"
				},
				{
					"inputs": [
						{
							"internalType": "uint256",
							"name": "length",
							"type": "uint256"
						}
					],
					"name": "ECDSAInvalidSignatureLength",
					"type": "error"
				},
				{
					"inputs": [
						{
							"internalType": "bytes32",
							"name": "s",
							"type": "bytes32"
						}
					],
					"name": "ECDSAInvalidSignatureS",
					"type": "error"
				},
				{
					"inputs": [
						{
							"internalType": "address",
							"name": "owner",
							"type": "address"
						}
					],
					"name": "OwnableInvalidOwner",
					"type": "error"
				},
				{
					"inputs": [
						{
							"internalType": "address",
							"name": "account",
							"type": "address"
						}
					],
					"name": "OwnableUnauthorizedAccount",
					"type": "error"
				},
				{
					"anonymous": false,
					"inputs": [
						{
							"indexed": true,
							"internalType": "address",
							"name": "user",
							"type": "address"
						},
						{
							"indexed": false,
							"internalType": "uint256",
							"name": "newLevel",
							"type": "uint256"
						}
					],
					"name": "LevelUpdated",
					"type": "event"
				},
				{
					"anonymous": false,
					"inputs": [
						{
							"indexed": true,
							"internalType": "address",
							"name": "previousOwner",
							"type": "address"
						},
						{
							"indexed": true,
							"internalType": "address",
							"name": "newOwner",
							"type": "address"
						}
					],
					"name": "OwnershipTransferred",
					"type": "event"
				},
				{
					"anonymous": false,
					"inputs": [
						{
							"indexed": false,
							"internalType": "address",
							"name": "account",
							"type": "address"
						}
					],
					"name": "Paused",
					"type": "event"
				},
				{
					"anonymous": false,
					"inputs": [
						{
							"indexed": true,
							"internalType": "address",
							"name": "user",
							"type": "address"
						},
						{
							"indexed": false,
							"internalType": "uint256",
							"name": "questId",
							"type": "uint256"
						},
						{
							"indexed": false,
							"internalType": "uint256",
							"name": "progress",
							"type": "uint256"
						}
					],
					"name": "QuestProgressUpdated",
					"type": "event"
				},
				{
					"anonymous": false,
					"inputs": [
						{
							"indexed": true,
							"internalType": "address",
							"name": "user",
							"type": "address"
						},
						{
							"indexed": false,
							"internalType": "uint256",
							"name": "rewardId",
							"type": "uint256"
						}
					],
					"name": "RewardClaimed",
					"type": "event"
				},
				{
					"anonymous": false,
					"inputs": [
						{
							"indexed": false,
							"internalType": "address",
							"name": "account",
							"type": "address"
						}
					],
					"name": "Unpaused",
					"type": "event"
				},
				{
					"inputs": [],
					"name": "avatarNFT",
					"outputs": [
						{
							"internalType": "contract IERC721",
							"name": "",
							"type": "address"
						}
					],
					"stateMutability": "view",
					"type": "function"
				},
				{
					"inputs": [
						{
							"internalType": "uint256",
							"name": "rewardId",
							"type": "uint256"
						},
						{
							"internalType": "uint256",
							"name": "amount",
							"type": "uint256"
						},
						{
							"internalType": "bytes",
							"name": "signature",
							"type": "bytes"
						}
					],
					"name": "claimReward",
					"outputs": [],
					"stateMutability": "nonpayable",
					"type": "function"
				},
				{
					"inputs": [],
					"name": "itemNFT",
					"outputs": [
						{
							"internalType": "contract IERC1155",
							"name": "",
							"type": "address"
						}
					],
					"stateMutability": "view",
					"type": "function"
				},
				{
					"inputs": [],
					"name": "owner",
					"outputs": [
						{
							"internalType": "address",
							"name": "",
							"type": "address"
						}
					],
					"stateMutability": "view",
					"type": "function"
				},
				{
					"inputs": [],
					"name": "pause",
					"outputs": [],
					"stateMutability": "nonpayable",
					"type": "function"
				},
				{
					"inputs": [],
					"name": "paused",
					"outputs": [
						{
							"internalType": "bool",
							"name": "",
							"type": "bool"
						}
					],
					"stateMutability": "view",
					"type": "function"
				},
				{
					"inputs": [
						{
							"internalType": "address",
							"name": "",
							"type": "address"
						},
						{
							"internalType": "uint256",
							"name": "",
							"type": "uint256"
						}
					],
					"name": "questProgress",
					"outputs": [
						{
							"internalType": "uint256",
							"name": "",
							"type": "uint256"
						}
					],
					"stateMutability": "view",
					"type": "function"
				},
				{
					"inputs": [],
					"name": "renounceOwnership",
					"outputs": [],
					"stateMutability": "nonpayable",
					"type": "function"
				},
				{
					"inputs": [
						{
							"internalType": "address",
							"name": "",
							"type": "address"
						},
						{
							"internalType": "uint256",
							"name": "",
							"type": "uint256"
						}
					],
					"name": "rewardClaimed",
					"outputs": [
						{
							"internalType": "bool",
							"name": "",
							"type": "bool"
						}
					],
					"stateMutability": "view",
					"type": "function"
				},
				{
					"inputs": [],
					"name": "rewardSigner",
					"outputs": [
						{
							"internalType": "address",
							"name": "",
							"type": "address"
						}
					],
					"stateMutability": "view",
					"type": "function"
				},
				{
					"inputs": [
						{
							"internalType": "address",
							"name": "_avatarNFT",
							"type": "address"
						}
					],
					"name": "setAvatarNFT",
					"outputs": [],
					"stateMutability": "nonpayable",
					"type": "function"
				},
				{
					"inputs": [
						{
							"internalType": "address",
							"name": "_itemNFT",
							"type": "address"
						}
					],
					"name": "setItemNFT",
					"outputs": [],
					"stateMutability": "nonpayable",
					"type": "function"
				},
				{
					"inputs": [
						{
							"internalType": "address",
							"name": "_signer",
							"type": "address"
						}
					],
					"name": "setRewardSigner",
					"outputs": [],
					"stateMutability": "nonpayable",
					"type": "function"
				},
				{
					"inputs": [
						{
							"internalType": "address",
							"name": "_wallet",
							"type": "address"
						}
					],
					"name": "setTreasuryWallet",
					"outputs": [],
					"stateMutability": "nonpayable",
					"type": "function"
				},
				{
					"inputs": [
						{
							"internalType": "address",
							"name": "newOwner",
							"type": "address"
						}
					],
					"name": "transferOwnership",
					"outputs": [],
					"stateMutability": "nonpayable",
					"type": "function"
				},
				{
					"inputs": [],
					"name": "treasuryWallet",
					"outputs": [
						{
							"internalType": "address",
							"name": "",
							"type": "address"
						}
					],
					"stateMutability": "view",
					"type": "function"
				},
				{
					"inputs": [],
					"name": "unpause",
					"outputs": [],
					"stateMutability": "nonpayable",
					"type": "function"
				},
				{
					"inputs": [
						{
							"internalType": "address",
							"name": "user",
							"type": "address"
						},
						{
							"internalType": "uint256",
							"name": "newLevel",
							"type": "uint256"
						}
					],
					"name": "updateLevel",
					"outputs": [],
					"stateMutability": "nonpayable",
					"type": "function"
				},
				{
					"inputs": [
						{
							"internalType": "address",
							"name": "user",
							"type": "address"
						},
						{
							"internalType": "uint256",
							"name": "questId",
							"type": "uint256"
						},
						{
							"internalType": "uint256",
							"name": "progress",
							"type": "uint256"
						}
					],
					"name": "updateQuestProgress",
					"outputs": [],
					"stateMutability": "nonpayable",
					"type": "function"
				},
				{
					"inputs": [
						{
							"internalType": "address",
							"name": "",
							"type": "address"
						}
					],
					"name": "userLevel",
					"outputs": [
						{
							"internalType": "uint256",
							"name": "",
							"type": "uint256"
						}
					],
					"stateMutability": "view",
					"type": "function"
				}
			],
			"devdoc": {
				"errors": {
					"ECDSAInvalidSignature()": [
						{
							"details": "The signature derives the `address(0)`."
						}
					],
					"ECDSAInvalidSignatureLength(uint256)": [
						{
							"details": "The signature has an invalid length."
						}
					],
					"ECDSAInvalidSignatureS(bytes32)": [
						{
							"details": "The signature has an S value that is in the upper half order."
						}
					],
					"OwnableInvalidOwner(address)": [
						{
							"details": "The owner is not a valid owner account. (eg. `address(0)`)"
						}
					],
					"OwnableUnauthorizedAccount(address)": [
						{
							"details": "The caller account is not authorized to perform an operation."
						}
					]
				},
				"events": {
					"Paused(address)": {
						"details": "Emitted when the pause is triggered by `account`."
					},
					"Unpaused(address)": {
						"details": "Emitted when the pause is lifted by `account`."
					}
				},
				"kind": "dev",
				"methods": {
					"owner()": {
						"details": "Returns the address of the current owner."
					},
					"paused()": {
						"details": "Returns true if the contract is paused, and false otherwise."
					},
					"renounceOwnership()": {
						"details": "Leaves the contract without owner. It will not be possible to call `onlyOwner` functions. Can only be called by the current owner. NOTE: Renouncing ownership will leave the contract without an owner, thereby disabling any functionality that is only available to the owner."
					},
					"transferOwnership(address)": {
						"details": "Transfers ownership of the contract to a new account (`newOwner`). Can only be called by the current owner."
					}
				},
				"version": 1
			},
			"evm": {
				"assembly": "    /* \"Game_Logic.sol\":414:3929  contract SavePointGameLogic is Ownable, Pausable, ReentrancyGuard {... */\n  mstore(0x40, 0x80)\n    /* \"Game_Logic.sol\":1030:1629  constructor(... */\n  callvalue\n  dup1\n  iszero\n  tag_1\n  jumpi\n  revert(0x00, 0x00)\ntag_1:\n  pop\n  mload(0x40)\n  sub(codesize, bytecodeSize)\n  dup1\n  bytecodeSize\n  dup4\n  codecopy\n  dup2\n  dup2\n  add\n  0x40\n  mstore\n  dup2\n  add\n  swap1\n  tag_2\n  swap2\n  swap1\n  tag_3\n  jump\t// in\ntag_2:\n    /* \"Game_Logic.sol\":1204:1216  initialOwner */\n  dup5\n    /* \"@openzeppelin/contracts/access/Ownable.sol\":1297:1298  0 */\n  0x00\n    /* \"@openzeppelin/contracts/access/Ownable.sol\":1273:1299  initialOwner == address(0) */\n  0xffffffffffffffffffffffffffffffffffffffff\n  and\n    /* \"@openzeppelin/contracts/access/Ownable.sol\":1273:1285  initialOwner */\n  dup2\n    /* \"@openzeppelin/contracts/access/Ownable.sol\":1273:1299  initialOwner == address(0) */\n  0xffffffffffffffffffffffffffffffffffffffff\n  and\n  sub\n    /* \"@openzeppelin/contracts/access/Ownable.sol\":1269:1364  if (initialOwner == address(0)) {... */\n  tag_9\n  jumpi\n    /* \"@openzeppelin/contracts/access/Ownable.sol\":1350:1351  0 */\n  0x00\n    /* \"@openzeppelin/contracts/access/Ownable.sol\":1322:1353  OwnableInvalidOwner(address(0)) */\n  mload(0x40)\n  0x1e4fbdf700000000000000000000000000000000000000000000000000000000\n  dup2\n  mstore\n  0x04\n  add\n  tag_10\n  swap2\n  swap1\n  tag_11\n  jump\t// in\ntag_10:\n  mload(0x40)\n  dup1\n  swap2\n  sub\n  swap1\n  revert\n    /* \"@openzeppelin/contracts/access/Ownable.sol\":1269:1364  if (initialOwner == address(0)) {... */\ntag_9:\n    /* \"@openzeppelin/contracts/access/Ownable.sol\":1373:1405  _transferOwnership(initialOwner) */\n  tag_12\n    /* \"@openzeppelin/contracts/access/Ownable.sol\":1392:1404  initialOwner */\n  dup2\n    /* \"@openzeppelin/contracts/access/Ownable.sol\":1373:1391  _transferOwnership */\n  shl(0x20, tag_13)\n    /* \"@openzeppelin/contracts/access/Ownable.sol\":1373:1405  _transferOwnership(initialOwner) */\n  0x20\n  shr\n  jump\t// in\ntag_12:\n    /* \"@openzeppelin/contracts/access/Ownable.sol\":1225:1412  constructor(address initialOwner) {... */\n  pop\n    /* \"@openzeppelin/contracts/security/Pausable.sol\":1006:1011  false */\n  0x00\n    /* \"@openzeppelin/contracts/security/Pausable.sol\":996:1003  _paused */\n  0x00\n  0x14\n    /* \"@openzeppelin/contracts/security/Pausable.sol\":996:1011  _paused = false */\n  0x0100\n  exp\n  dup2\n  sload\n  dup2\n  0xff\n  mul\n  not\n  and\n  swap1\n  dup4\n  iszero\n  iszero\n  mul\n  or\n  swap1\n  sstore\n  pop\n    /* \"@openzeppelin/contracts/security/ReentrancyGuard.sol\":1716:1717  1 */\n  0x01\n    /* \"@openzeppelin/contracts/security/ReentrancyGuard.sol\":1821:1828  _status */\n  dup1\n    /* \"@openzeppelin/contracts/security/ReentrancyGuard.sol\":1821:1843  _status = _NOT_ENTERED */\n  dup2\n  swap1\n  sstore\n  pop\n    /* \"Game_Logic.sol\":1258:1259  0 */\n  0x00\n    /* \"Game_Logic.sol\":1236:1260  _avatarNFT != address(0) */\n  0xffffffffffffffffffffffffffffffffffffffff\n  and\n    /* \"Game_Logic.sol\":1236:1246  _avatarNFT */\n  dup5\n    /* \"Game_Logic.sol\":1236:1260  _avatarNFT != address(0) */\n  0xffffffffffffffffffffffffffffffffffffffff\n  and\n  sub\n    /* \"Game_Logic.sol\":1228:1279  require(_avatarNFT != address(0), \"avatarNFT zero\") */\n  tag_17\n  jumpi\n  mload(0x40)\n  0x08c379a000000000000000000000000000000000000000000000000000000000\n  dup2\n  mstore\n  0x04\n  add\n  tag_18\n  swap1\n  tag_19\n  jump\t// in\ntag_18:\n  mload(0x40)\n  dup1\n  swap2\n  sub\n  swap1\n  revert\ntag_17:\n    /* \"Game_Logic.sol\":1317:1318  0 */\n  0x00\n    /* \"Game_Logic.sol\":1297:1319  _itemNFT != address(0) */\n  0xffffffffffffffffffffffffffffffffffffffff\n  and\n    /* \"Game_Logic.sol\":1297:1305  _itemNFT */\n  dup4\n    /* \"Game_Logic.sol\":1297:1319  _itemNFT != address(0) */\n  0xffffffffffffffffffffffffffffffffffffffff\n  and\n  sub\n    /* \"Game_Logic.sol\":1289:1336  require(_itemNFT != address(0), \"itemNFT zero\") */\n  tag_20\n  jumpi\n  mload(0x40)\n  0x08c379a000000000000000000000000000000000000000000000000000000000\n  dup2\n  mstore\n  0x04\n  add\n  tag_21\n  swap1\n  tag_22\n  jump\t// in\ntag_21:\n  mload(0x40)\n  dup1\n  swap2\n  sub\n  swap1\n  revert\ntag_20:\n    /* \"Game_Logic.sol\":1381:1382  0 */\n  0x00\n    /* \"Game_Logic.sol\":1354:1383  _treasuryWallet != address(0) */\n  0xffffffffffffffffffffffffffffffffffffffff\n  and\n    /* \"Game_Logic.sol\":1354:1369  _treasuryWallet */\n  dup3\n    /* \"Game_Logic.sol\":1354:1383  _treasuryWallet != address(0) */\n  0xffffffffffffffffffffffffffffffffffffffff\n  and\n  sub\n    /* \"Game_Logic.sol\":1346:1401  require(_treasuryWallet != address(0), \"treasury zero\") */\n  tag_23\n  jumpi\n  mload(0x40)\n  0x08c379a000000000000000000000000000000000000000000000000000000000\n  dup2\n  mstore\n  0x04\n  add\n  tag_24\n  swap1\n  tag_25\n  jump\t// in\ntag_24:\n  mload(0x40)\n  dup1\n  swap2\n  sub\n  swap1\n  revert\ntag_23:\n    /* \"Game_Logic.sol\":1444:1445  0 */\n  0x00\n    /* \"Game_Logic.sol\":1419:1446  _rewardSigner != address(0) */\n  0xffffffffffffffffffffffffffffffffffffffff\n  and\n    /* \"Game_Logic.sol\":1419:1432  _rewardSigner */\n  dup2\n    /* \"Game_Logic.sol\":1419:1446  _rewardSigner != address(0) */\n  0xffffffffffffffffffffffffffffffffffffffff\n  and\n  sub\n    /* \"Game_Logic.sol\":1411:1462  require(_rewardSigner != address(0), \"signer zero\") */\n  tag_26\n  jumpi\n  mload(0x40)\n  0x08c379a000000000000000000000000000000000000000000000000000000000\n  dup2\n  mstore\n  0x04\n  add\n  tag_27\n  swap1\n  tag_28\n  jump\t// in\ntag_27:\n  mload(0x40)\n  dup1\n  swap2\n  sub\n  swap1\n  revert\ntag_26:\n    /* \"Game_Logic.sol\":1493:1503  _avatarNFT */\n  dup4\n    /* \"Game_Logic.sol\":1473:1482  avatarNFT */\n  0x02\n  0x00\n    /* \"Game_Logic.sol\":1473:1504  avatarNFT = IERC721(_avatarNFT) */\n  0x0100\n  exp\n  dup2\n  sload\n  dup2\n  0xffffffffffffffffffffffffffffffffffffffff\n  mul\n  not\n  and\n  swap1\n  dup4\n  0xffffffffffffffffffffffffffffffffffffffff\n  and\n  mul\n  or\n  swap1\n  sstore\n  pop\n    /* \"Game_Logic.sol\":1533:1541  _itemNFT */\n  dup3\n    /* \"Game_Logic.sol\":1514:1521  itemNFT */\n  0x03\n  0x00\n    /* \"Game_Logic.sol\":1514:1542  itemNFT = IERC1155(_itemNFT) */\n  0x0100\n  exp\n  dup2\n  sload\n  dup2\n  0xffffffffffffffffffffffffffffffffffffffff\n  mul\n  not\n  and\n  swap1\n  dup4\n  0xffffffffffffffffffffffffffffffffffffffff\n  and\n  mul\n  or\n  swap1\n  sstore\n  pop\n    /* \"Game_Logic.sol\":1569:1584  _treasuryWallet */\n  dup2\n    /* \"Game_Logic.sol\":1552:1566  treasuryWallet */\n  0x04\n  0x00\n    /* \"Game_Logic.sol\":1552:1584  treasuryWallet = _treasuryWallet */\n  0x0100\n  exp\n  dup2\n  sload\n  dup2\n  0xffffffffffffffffffffffffffffffffffffffff\n  mul\n  not\n  and\n  swap1\n  dup4\n  0xffffffffffffffffffffffffffffffffffffffff\n  and\n  mul\n  or\n  swap1\n  sstore\n  pop\n    /* \"Game_Logic.sol\":1609:1622  _rewardSigner */\n  dup1\n    /* \"Game_Logic.sol\":1594:1606  rewardSigner */\n  0x05\n  0x00\n    /* \"Game_Logic.sol\":1594:1622  rewardSigner = _rewardSigner */\n  0x0100\n  exp\n  dup2\n  sload\n  dup2\n  0xffffffffffffffffffffffffffffffffffffffff\n  mul\n  not\n  and\n  swap1\n  dup4\n  0xffffffffffffffffffffffffffffffffffffffff\n  and\n  mul\n  or\n  swap1\n  sstore\n  pop\n    /* \"Game_Logic.sol\":1030:1629  constructor(... */\n  pop\n  pop\n  pop\n  pop\n  pop\n    /* \"Game_Logic.sol\":414:3929  contract SavePointGameLogic is Ownable, Pausable, ReentrancyGuard {... */\n  jump(tag_29)\n    /* \"@openzeppelin/contracts/access/Ownable.sol\":2912:3099  function _transferOwnership(address newOwner) internal virtual {... */\ntag_13:\n    /* \"@openzeppelin/contracts/access/Ownable.sol\":2985:3001  address oldOwner */\n  0x00\n    /* \"@openzeppelin/contracts/access/Ownable.sol\":3004:3010  _owner */\n  0x00\n  0x00\n  swap1\n  sload\n  swap1\n  0x0100\n  exp\n  swap1\n  div\n  0xffffffffffffffffffffffffffffffffffffffff\n  and\n    /* \"@openzeppelin/contracts/access/Ownable.sol\":2985:3010  address oldOwner = _owner */\n  swap1\n  pop\n    /* \"@openzeppelin/contracts/access/Ownable.sol\":3029:3037  newOwner */\n  dup2\n    /* \"@openzeppelin/contracts/access/Ownable.sol\":3020:3026  _owner */\n  0x00\n  0x00\n    /* \"@openzeppelin/contracts/access/Ownable.sol\":3020:3037  _owner = newOwner */\n  0x0100\n  exp\n  dup2\n  sload\n  dup2\n  0xffffffffffffffffffffffffffffffffffffffff\n  mul\n  not\n  and\n  swap1\n  dup4\n  0xffffffffffffffffffffffffffffffffffffffff\n  and\n  mul\n  or\n  swap1\n  sstore\n  pop\n    /* \"@openzeppelin/contracts/access/Ownable.sol\":3083:3091  newOwner */\n  dup2\n    /* \"@openzeppelin/contracts/access/Ownable.sol\":3052:3092  OwnershipTransferred(oldOwner, newOwner) */\n  0xffffffffffffffffffffffffffffffffffffffff\n  and\n    /* \"@openzeppelin/contracts/access/Ownable.sol\":3073:3081  oldOwner */\n  dup2\n    /* \"@openzeppelin/contracts/access/Ownable.sol\":3052:3092  OwnershipTransferred(oldOwner, newOwner) */\n  0xffffffffffffffffffffffffffffffffffffffff\n  and\n  0x8be0079c531659141344cd1fd0a4f28419497f9722a3daafe3b4186f6b6457e0\n  mload(0x40)\n  mload(0x40)\n  dup1\n  swap2\n  sub\n  swap1\n  log3\n    /* \"@openzeppelin/contracts/access/Ownable.sol\":2975:3099  {... */\n  pop\n    /* \"@openzeppelin/contracts/access/Ownable.sol\":2912:3099  function _transferOwnership(address newOwner) internal virtual {... */\n  pop\n  jump\t// out\n    /* \"#utility.yul\":88:205   */\ntag_32:\n    /* \"#utility.yul\":197:198   */\n  0x00\n    /* \"#utility.yul\":194:195   */\n  0x00\n    /* \"#utility.yul\":187:199   */\n  revert\n    /* \"#utility.yul\":334:460   */\ntag_34:\n    /* \"#utility.yul\":371:378   */\n  0x00\n    /* \"#utility.yul\":411:453   */\n  0xffffffffffffffffffffffffffffffffffffffff\n    /* \"#utility.yul\":404:409   */\n  dup3\n    /* \"#utility.yul\":400:454   */\n  and\n    /* \"#utility.yul\":389:454   */\n  swap1\n  pop\n    /* \"#utility.yul\":334:460   */\n  swap2\n  swap1\n  pop\n  jump\t// out\n    /* \"#utility.yul\":466:562   */\ntag_35:\n    /* \"#utility.yul\":503:510   */\n  0x00\n    /* \"#utility.yul\":532:556   */\n  tag_54\n    /* \"#utility.yul\":550:555   */\n  dup3\n    /* \"#utility.yul\":532:556   */\n  tag_34\n  jump\t// in\ntag_54:\n    /* \"#utility.yul\":521:556   */\n  swap1\n  pop\n    /* \"#utility.yul\":466:562   */\n  swap2\n  swap1\n  pop\n  jump\t// out\n    /* \"#utility.yul\":568:690   */\ntag_36:\n    /* \"#utility.yul\":641:665   */\n  tag_56\n    /* \"#utility.yul\":659:664   */\n  dup2\n    /* \"#utility.yul\":641:665   */\n  tag_35\n  jump\t// in\ntag_56:\n    /* \"#utility.yul\":634:639   */\n  dup2\n    /* \"#utility.yul\":631:666   */\n  eq\n    /* \"#utility.yul\":621:684   */\n  tag_57\n  jumpi\n    /* \"#utility.yul\":680:681   */\n  0x00\n    /* \"#utility.yul\":677:678   */\n  0x00\n    /* \"#utility.yul\":670:682   */\n  revert\n    /* \"#utility.yul\":621:684   */\ntag_57:\n    /* \"#utility.yul\":568:690   */\n  pop\n  jump\t// out\n    /* \"#utility.yul\":696:839   */\ntag_37:\n    /* \"#utility.yul\":753:758   */\n  0x00\n    /* \"#utility.yul\":784:790   */\n  dup2\n    /* \"#utility.yul\":778:791   */\n  mload\n    /* \"#utility.yul\":769:791   */\n  swap1\n  pop\n    /* \"#utility.yul\":800:833   */\n  tag_59\n    /* \"#utility.yul\":827:832   */\n  dup2\n    /* \"#utility.yul\":800:833   */\n  tag_36\n  jump\t// in\ntag_59:\n    /* \"#utility.yul\":696:839   */\n  swap3\n  swap2\n  pop\n  pop\n  jump\t// out\n    /* \"#utility.yul\":845:1822   */\ntag_3:\n    /* \"#utility.yul\":951:957   */\n  0x00\n    /* \"#utility.yul\":959:965   */\n  0x00\n    /* \"#utility.yul\":967:973   */\n  0x00\n    /* \"#utility.yul\":975:981   */\n  0x00\n    /* \"#utility.yul\":983:989   */\n  0x00\n    /* \"#utility.yul\":1032:1035   */\n  0xa0\n    /* \"#utility.yul\":1020:1029   */\n  dup7\n    /* \"#utility.yul\":1011:1018   */\n  dup9\n    /* \"#utility.yul\":1007:1030   */\n  sub\n    /* \"#utility.yul\":1003:1036   */\n  slt\n    /* \"#utility.yul\":1000:1120   */\n  iszero\n  tag_61\n  jumpi\n    /* \"#utility.yul\":1039:1118   */\n  tag_62\n  tag_32\n  jump\t// in\ntag_62:\n    /* \"#utility.yul\":1000:1120   */\ntag_61:\n    /* \"#utility.yul\":1159:1160   */\n  0x00\n    /* \"#utility.yul\":1184:1248   */\n  tag_63\n    /* \"#utility.yul\":1240:1247   */\n  dup9\n    /* \"#utility.yul\":1231:1237   */\n  dup3\n    /* \"#utility.yul\":1220:1229   */\n  dup10\n    /* \"#utility.yul\":1216:1238   */\n  add\n    /* \"#utility.yul\":1184:1248   */\n  tag_37\n  jump\t// in\ntag_63:\n    /* \"#utility.yul\":1174:1248   */\n  swap6\n  pop\n    /* \"#utility.yul\":1130:1258   */\n  pop\n    /* \"#utility.yul\":1297:1299   */\n  0x20\n    /* \"#utility.yul\":1323:1387   */\n  tag_64\n    /* \"#utility.yul\":1379:1386   */\n  dup9\n    /* \"#utility.yul\":1370:1376   */\n  dup3\n    /* \"#utility.yul\":1359:1368   */\n  dup10\n    /* \"#utility.yul\":1355:1377   */\n  add\n    /* \"#utility.yul\":1323:1387   */\n  tag_37\n  jump\t// in\ntag_64:\n    /* \"#utility.yul\":1313:1387   */\n  swap5\n  pop\n    /* \"#utility.yul\":1268:1397   */\n  pop\n    /* \"#utility.yul\":1436:1438   */\n  0x40\n    /* \"#utility.yul\":1462:1526   */\n  tag_65\n    /* \"#utility.yul\":1518:1525   */\n  dup9\n    /* \"#utility.yul\":1509:1515   */\n  dup3\n    /* \"#utility.yul\":1498:1507   */\n  dup10\n    /* \"#utility.yul\":1494:1516   */\n  add\n    /* \"#utility.yul\":1462:1526   */\n  tag_37\n  jump\t// in\ntag_65:\n    /* \"#utility.yul\":1452:1526   */\n  swap4\n  pop\n    /* \"#utility.yul\":1407:1536   */\n  pop\n    /* \"#utility.yul\":1575:1577   */\n  0x60\n    /* \"#utility.yul\":1601:1665   */\n  tag_66\n    /* \"#utility.yul\":1657:1664   */\n  dup9\n    /* \"#utility.yul\":1648:1654   */\n  dup3\n    /* \"#utility.yul\":1637:1646   */\n  dup10\n    /* \"#utility.yul\":1633:1655   */\n  add\n    /* \"#utility.yul\":1601:1665   */\n  tag_37\n  jump\t// in\ntag_66:\n    /* \"#utility.yul\":1591:1665   */\n  swap3\n  pop\n    /* \"#utility.yul\":1546:1675   */\n  pop\n    /* \"#utility.yul\":1714:1717   */\n  0x80\n    /* \"#utility.yul\":1741:1805   */\n  tag_67\n    /* \"#utility.yul\":1797:1804   */\n  dup9\n    /* \"#utility.yul\":1788:1794   */\n  dup3\n    /* \"#utility.yul\":1777:1786   */\n  dup10\n    /* \"#utility.yul\":1773:1795   */\n  add\n    /* \"#utility.yul\":1741:1805   */\n  tag_37\n  jump\t// in\ntag_67:\n    /* \"#utility.yul\":1731:1805   */\n  swap2\n  pop\n    /* \"#utility.yul\":1685:1815   */\n  pop\n    /* \"#utility.yul\":845:1822   */\n  swap3\n  swap6\n  pop\n  swap3\n  swap6\n  swap1\n  swap4\n  pop\n  jump\t// out\n    /* \"#utility.yul\":1828:1946   */\ntag_38:\n    /* \"#utility.yul\":1915:1939   */\n  tag_69\n    /* \"#utility.yul\":1933:1938   */\n  dup2\n    /* \"#utility.yul\":1915:1939   */\n  tag_35\n  jump\t// in\ntag_69:\n    /* \"#utility.yul\":1910:1913   */\n  dup3\n    /* \"#utility.yul\":1903:1940   */\n  mstore\n    /* \"#utility.yul\":1828:1946   */\n  pop\n  pop\n  jump\t// out\n    /* \"#utility.yul\":1952:2174   */\ntag_11:\n    /* \"#utility.yul\":2045:2049   */\n  0x00\n    /* \"#utility.yul\":2083:2085   */\n  0x20\n    /* \"#utility.yul\":2072:2081   */\n  dup3\n    /* \"#utility.yul\":2068:2086   */\n  add\n    /* \"#utility.yul\":2060:2086   */\n  swap1\n  pop\n    /* \"#utility.yul\":2096:2167   */\n  tag_71\n    /* \"#utility.yul\":2164:2165   */\n  0x00\n    /* \"#utility.yul\":2153:2162   */\n  dup4\n    /* \"#utility.yul\":2149:2166   */\n  add\n    /* \"#utility.yul\":2140:2146   */\n  dup5\n    /* \"#utility.yul\":2096:2167   */\n  tag_38\n  jump\t// in\ntag_71:\n    /* \"#utility.yul\":1952:2174   */\n  swap3\n  swap2\n  pop\n  pop\n  jump\t// out\n    /* \"#utility.yul\":2180:2349   */\ntag_39:\n    /* \"#utility.yul\":2264:2275   */\n  0x00\n    /* \"#utility.yul\":2298:2304   */\n  dup3\n    /* \"#utility.yul\":2293:2296   */\n  dup3\n    /* \"#utility.yul\":2286:2305   */\n  mstore\n    /* \"#utility.yul\":2338:2342   */\n  0x20\n    /* \"#utility.yul\":2333:2336   */\n  dup3\n    /* \"#utility.yul\":2329:2343   */\n  add\n    /* \"#utility.yul\":2314:2343   */\n  swap1\n  pop\n    /* \"#utility.yul\":2180:2349   */\n  swap3\n  swap2\n  pop\n  pop\n  jump\t// out\n    /* \"#utility.yul\":2355:2519   */\ntag_40:\n    /* \"#utility.yul\":2495:2511   */\n  0x6176617461724e4654207a65726f000000000000000000000000000000000000\n    /* \"#utility.yul\":2491:2492   */\n  0x00\n    /* \"#utility.yul\":2483:2489   */\n  dup3\n    /* \"#utility.yul\":2479:2493   */\n  add\n    /* \"#utility.yul\":2472:2512   */\n  mstore\n    /* \"#utility.yul\":2355:2519   */\n  pop\n  jump\t// out\n    /* \"#utility.yul\":2525:2891   */\ntag_41:\n    /* \"#utility.yul\":2667:2670   */\n  0x00\n    /* \"#utility.yul\":2688:2755   */\n  tag_75\n    /* \"#utility.yul\":2752:2754   */\n  0x0e\n    /* \"#utility.yul\":2747:2750   */\n  dup4\n    /* \"#utility.yul\":2688:2755   */\n  tag_39\n  jump\t// in\ntag_75:\n    /* \"#utility.yul\":2681:2755   */\n  swap2\n  pop\n    /* \"#utility.yul\":2764:2857   */\n  tag_76\n    /* \"#utility.yul\":2853:2856   */\n  dup3\n    /* \"#utility.yul\":2764:2857   */\n  tag_40\n  jump\t// in\ntag_76:\n    /* \"#utility.yul\":2882:2884   */\n  0x20\n    /* \"#utility.yul\":2877:2880   */\n  dup3\n    /* \"#utility.yul\":2873:2885   */\n  add\n    /* \"#utility.yul\":2866:2885   */\n  swap1\n  pop\n    /* \"#utility.yul\":2525:2891   */\n  swap2\n  swap1\n  pop\n  jump\t// out\n    /* \"#utility.yul\":2897:3316   */\ntag_19:\n    /* \"#utility.yul\":3063:3067   */\n  0x00\n    /* \"#utility.yul\":3101:3103   */\n  0x20\n    /* \"#utility.yul\":3090:3099   */\n  dup3\n    /* \"#utility.yul\":3086:3104   */\n  add\n    /* \"#utility.yul\":3078:3104   */\n  swap1\n  pop\n    /* \"#utility.yul\":3150:3159   */\n  dup2\n    /* \"#utility.yul\":3144:3148   */\n  dup2\n    /* \"#utility.yul\":3140:3160   */\n  sub\n    /* \"#utility.yul\":3136:3137   */\n  0x00\n    /* \"#utility.yul\":3125:3134   */\n  dup4\n    /* \"#utility.yul\":3121:3138   */\n  add\n    /* \"#utility.yul\":3114:3161   */\n  mstore\n    /* \"#utility.yul\":3178:3309   */\n  tag_78\n    /* \"#utility.yul\":3304:3308   */\n  dup2\n    /* \"#utility.yul\":3178:3309   */\n  tag_41\n  jump\t// in\ntag_78:\n    /* \"#utility.yul\":3170:3309   */\n  swap1\n  pop\n    /* \"#utility.yul\":2897:3316   */\n  swap2\n  swap1\n  pop\n  jump\t// out\n    /* \"#utility.yul\":3322:3484   */\ntag_42:\n    /* \"#utility.yul\":3462:3476   */\n  0x6974656d4e4654207a65726f0000000000000000000000000000000000000000\n    /* \"#utility.yul\":3458:3459   */\n  0x00\n    /* \"#utility.yul\":3450:3456   */\n  dup3\n    /* \"#utility.yul\":3446:3460   */\n  add\n    /* \"#utility.yul\":3439:3477   */\n  mstore\n    /* \"#utility.yul\":3322:3484   */\n  pop\n  jump\t// out\n    /* \"#utility.yul\":3490:3856   */\ntag_43:\n    /* \"#utility.yul\":3632:3635   */\n  0x00\n    /* \"#utility.yul\":3653:3720   */\n  tag_81\n    /* \"#utility.yul\":3717:3719   */\n  0x0c\n    /* \"#utility.yul\":3712:3715   */\n  dup4\n    /* \"#utility.yul\":3653:3720   */\n  tag_39\n  jump\t// in\ntag_81:\n    /* \"#utility.yul\":3646:3720   */\n  swap2\n  pop\n    /* \"#utility.yul\":3729:3822   */\n  tag_82\n    /* \"#utility.yul\":3818:3821   */\n  dup3\n    /* \"#utility.yul\":3729:3822   */\n  tag_42\n  jump\t// in\ntag_82:\n    /* \"#utility.yul\":3847:3849   */\n  0x20\n    /* \"#utility.yul\":3842:3845   */\n  dup3\n    /* \"#utility.yul\":3838:3850   */\n  add\n    /* \"#utility.yul\":3831:3850   */\n  swap1\n  pop\n    /* \"#utility.yul\":3490:3856   */\n  swap2\n  swap1\n  pop\n  jump\t// out\n    /* \"#utility.yul\":3862:4281   */\ntag_22:\n    /* \"#utility.yul\":4028:4032   */\n  0x00\n    /* \"#utility.yul\":4066:4068   */\n  0x20\n    /* \"#utility.yul\":4055:4064   */\n  dup3\n    /* \"#utility.yul\":4051:4069   */\n  add\n    /* \"#utility.yul\":4043:4069   */\n  swap1\n  pop\n    /* \"#utility.yul\":4115:4124   */\n  dup2\n    /* \"#utility.yul\":4109:4113   */\n  dup2\n    /* \"#utility.yul\":4105:4125   */\n  sub\n    /* \"#utility.yul\":4101:4102   */\n  0x00\n    /* \"#utility.yul\":4090:4099   */\n  dup4\n    /* \"#utility.yul\":4086:4103   */\n  add\n    /* \"#utility.yul\":4079:4126   */\n  mstore\n    /* \"#utility.yul\":4143:4274   */\n  tag_84\n    /* \"#utility.yul\":4269:4273   */\n  dup2\n    /* \"#utility.yul\":4143:4274   */\n  tag_43\n  jump\t// in\ntag_84:\n    /* \"#utility.yul\":4135:4274   */\n  swap1\n  pop\n    /* \"#utility.yul\":3862:4281   */\n  swap2\n  swap1\n  pop\n  jump\t// out\n    /* \"#utility.yul\":4287:4450   */\ntag_44:\n    /* \"#utility.yul\":4427:4442   */\n  0x7472656173757279207a65726f00000000000000000000000000000000000000\n    /* \"#utility.yul\":4423:4424   */\n  0x00\n    /* \"#utility.yul\":4415:4421   */\n  dup3\n    /* \"#utility.yul\":4411:4425   */\n  add\n    /* \"#utility.yul\":4404:4443   */\n  mstore\n    /* \"#utility.yul\":4287:4450   */\n  pop\n  jump\t// out\n    /* \"#utility.yul\":4456:4822   */\ntag_45:\n    /* \"#utility.yul\":4598:4601   */\n  0x00\n    /* \"#utility.yul\":4619:4686   */\n  tag_87\n    /* \"#utility.yul\":4683:4685   */\n  0x0d\n    /* \"#utility.yul\":4678:4681   */\n  dup4\n    /* \"#utility.yul\":4619:4686   */\n  tag_39\n  jump\t// in\ntag_87:\n    /* \"#utility.yul\":4612:4686   */\n  swap2\n  pop\n    /* \"#utility.yul\":4695:4788   */\n  tag_88\n    /* \"#utility.yul\":4784:4787   */\n  dup3\n    /* \"#utility.yul\":4695:4788   */\n  tag_44\n  jump\t// in\ntag_88:\n    /* \"#utility.yul\":4813:4815   */\n  0x20\n    /* \"#utility.yul\":4808:4811   */\n  dup3\n    /* \"#utility.yul\":4804:4816   */\n  add\n    /* \"#utility.yul\":4797:4816   */\n  swap1\n  pop\n    /* \"#utility.yul\":4456:4822   */\n  swap2\n  swap1\n  pop\n  jump\t// out\n    /* \"#utility.yul\":4828:5247   */\ntag_25:\n    /* \"#utility.yul\":4994:4998   */\n  0x00\n    /* \"#utility.yul\":5032:5034   */\n  0x20\n    /* \"#utility.yul\":5021:5030   */\n  dup3\n    /* \"#utility.yul\":5017:5035   */\n  add\n    /* \"#utility.yul\":5009:5035   */\n  swap1\n  pop\n    /* \"#utility.yul\":5081:5090   */\n  dup2\n    /* \"#utility.yul\":5075:5079   */\n  dup2\n    /* \"#utility.yul\":5071:5091   */\n  sub\n    /* \"#utility.yul\":5067:5068   */\n  0x00\n    /* \"#utility.yul\":5056:5065   */\n  dup4\n    /* \"#utility.yul\":5052:5069   */\n  add\n    /* \"#utility.yul\":5045:5092   */\n  mstore\n    /* \"#utility.yul\":5109:5240   */\n  tag_90\n    /* \"#utility.yul\":5235:5239   */\n  dup2\n    /* \"#utility.yul\":5109:5240   */\n  tag_45\n  jump\t// in\ntag_90:\n    /* \"#utility.yul\":5101:5240   */\n  swap1\n  pop\n    /* \"#utility.yul\":4828:5247   */\n  swap2\n  swap1\n  pop\n  jump\t// out\n    /* \"#utility.yul\":5253:5414   */\ntag_46:\n    /* \"#utility.yul\":5393:5406   */\n  0x7369676e6572207a65726f000000000000000000000000000000000000000000\n    /* \"#utility.yul\":5389:5390   */\n  0x00\n    /* \"#utility.yul\":5381:5387   */\n  dup3\n    /* \"#utility.yul\":5377:5391   */\n  add\n    /* \"#utility.yul\":5370:5407   */\n  mstore\n    /* \"#utility.yul\":5253:5414   */\n  pop\n  jump\t// out\n    /* \"#utility.yul\":5420:5786   */\ntag_47:\n    /* \"#utility.yul\":5562:5565   */\n  0x00\n    /* \"#utility.yul\":5583:5650   */\n  tag_93\n    /* \"#utility.yul\":5647:5649   */\n  0x0b\n    /* \"#utility.yul\":5642:5645   */\n  dup4\n    /* \"#utility.yul\":5583:5650   */\n  tag_39\n  jump\t// in\ntag_93:\n    /* \"#utility.yul\":5576:5650   */\n  swap2\n  pop\n    /* \"#utility.yul\":5659:5752   */\n  tag_94\n    /* \"#utility.yul\":5748:5751   */\n  dup3\n    /* \"#utility.yul\":5659:5752   */\n  tag_46\n  jump\t// in\ntag_94:\n    /* \"#utility.yul\":5777:5779   */\n  0x20\n    /* \"#utility.yul\":5772:5775   */\n  dup3\n    /* \"#utility.yul\":5768:5780   */\n  add\n    /* \"#utility.yul\":5761:5780   */\n  swap1\n  pop\n    /* \"#utility.yul\":5420:5786   */\n  swap2\n  swap1\n  pop\n  jump\t// out\n    /* \"#utility.yul\":5792:6211   */\ntag_28:\n    /* \"#utility.yul\":5958:5962   */\n  0x00\n    /* \"#utility.yul\":5996:5998   */\n  0x20\n    /* \"#utility.yul\":5985:5994   */\n  dup3\n    /* \"#utility.yul\":5981:5999   */\n  add\n    /* \"#utility.yul\":5973:5999   */\n  swap1\n  pop\n    /* \"#utility.yul\":6045:6054   */\n  dup2\n    /* \"#utility.yul\":6039:6043   */\n  dup2\n    /* \"#utility.yul\":6035:6055   */\n  sub\n    /* \"#utility.yul\":6031:6032   */\n  0x00\n    /* \"#utility.yul\":6020:6029   */\n  dup4\n    /* \"#utility.yul\":6016:6033   */\n  add\n    /* \"#utility.yul\":6009:6056   */\n  mstore\n    /* \"#utility.yul\":6073:6204   */\n  tag_96\n    /* \"#utility.yul\":6199:6203   */\n  dup2\n    /* \"#utility.yul\":6073:6204   */\n  tag_47\n  jump\t// in\ntag_96:\n    /* \"#utility.yul\":6065:6204   */\n  swap1\n  pop\n    /* \"#utility.yul\":5792:6211   */\n  swap2\n  swap1\n  pop\n  jump\t// out\n    /* \"Game_Logic.sol\":414:3929  contract SavePointGameLogic is Ownable, Pausable, ReentrancyGuard {... */\ntag_29:\n  dataSize(sub_0)\n  dup1\n  dataOffset(sub_0)\n  0x00\n  codecopy\n  0x00\n  return\nstop\n\nsub_0: assembly {\n        /* \"Game_Logic.sol\":414:3929  contract SavePointGameLogic is Ownable, Pausable, ReentrancyGuard {... */\n      mstore(0x40, 0x80)\n      callvalue\n      dup1\n      iszero\n      tag_1\n      jumpi\n      revert(0x00, 0x00)\n    tag_1:\n      pop\n      jumpi(tag_2, lt(calldatasize, 0x04))\n      shr(0xe0, calldataload(0x00))\n      dup1\n      0x715018a6\n      gt\n      tag_23\n      jumpi\n      dup1\n      0xa8602fea\n      gt\n      tag_24\n      jumpi\n      dup1\n      0xa8602fea\n      eq\n      tag_18\n      jumpi\n      dup1\n      0xa87331e5\n      eq\n      tag_19\n      jumpi\n      dup1\n      0xc5fb50d5\n      eq\n      tag_20\n      jumpi\n      dup1\n      0xc69d65d1\n      eq\n      tag_21\n      jumpi\n      dup1\n      0xf2fde38b\n      eq\n      tag_22\n      jumpi\n      jump(tag_2)\n    tag_24:\n      dup1\n      0x715018a6\n      eq\n      tag_13\n      jumpi\n      dup1\n      0x76618f27\n      eq\n      tag_14\n      jumpi\n      dup1\n      0x83b78188\n      eq\n      tag_15\n      jumpi\n      dup1\n      0x8456cb59\n      eq\n      tag_16\n      jumpi\n      dup1\n      0x8da5cb5b\n      eq\n      tag_17\n      jumpi\n      jump(tag_2)\n    tag_23:\n      dup1\n      0x4626402b\n      gt\n      tag_25\n      jumpi\n      dup1\n      0x4626402b\n      eq\n      tag_8\n      jumpi\n      dup1\n      0x47e25eff\n      eq\n      tag_9\n      jumpi\n      dup1\n      0x57d1f910\n      eq\n      tag_10\n      jumpi\n      dup1\n      0x5c975abb\n      eq\n      tag_11\n      jumpi\n      dup1\n      0x5fb84d67\n      eq\n      tag_12\n      jumpi\n      jump(tag_2)\n    tag_25:\n      dup1\n      0x028be338\n      eq\n      tag_3\n      jumpi\n      dup1\n      0x280e31cc\n      eq\n      tag_4\n      jumpi\n      dup1\n      0x2f5e6a05\n      eq\n      tag_5\n      jumpi\n      dup1\n      0x323f24ab\n      eq\n      tag_6\n      jumpi\n      dup1\n      0x3f4ba83a\n      eq\n      tag_7\n      jumpi\n    tag_2:\n      revert(0x00, 0x00)\n        /* \"Game_Logic.sol\":665:733  mapping(address => mapping(uint256 => uint256)) public questProgress */\n    tag_3:\n      tag_26\n      0x04\n      dup1\n      calldatasize\n      sub\n      dup2\n      add\n      swap1\n      tag_27\n      swap2\n      swap1\n      tag_28\n      jump\t// in\n    tag_27:\n      tag_29\n      jump\t// in\n    tag_26:\n      mload(0x40)\n      tag_30\n      swap2\n      swap1\n      tag_31\n      jump\t// in\n    tag_30:\n      mload(0x40)\n      dup1\n      swap2\n      sub\n      swap1\n      return\n        /* \"Game_Logic.sol\":615:659  mapping(address => uint256) public userLevel */\n    tag_4:\n      tag_32\n      0x04\n      dup1\n      calldatasize\n      sub\n      dup2\n      add\n      swap1\n      tag_33\n      swap2\n      swap1\n      tag_34\n      jump\t// in\n    tag_33:\n      tag_35\n      jump\t// in\n    tag_32:\n      mload(0x40)\n      tag_36\n      swap2\n      swap1\n      tag_31\n      jump\t// in\n    tag_36:\n      mload(0x40)\n      dup1\n      swap2\n      sub\n      swap1\n      return\n        /* \"Game_Logic.sol\":486:510  IERC721 public avatarNFT */\n    tag_5:\n      tag_37\n      tag_38\n      jump\t// in\n    tag_37:\n      mload(0x40)\n      tag_39\n      swap2\n      swap1\n      tag_40\n      jump\t// in\n    tag_39:\n      mload(0x40)\n      dup1\n      swap2\n      sub\n      swap1\n      return\n        /* \"Game_Logic.sol\":581:608  address public rewardSigner */\n    tag_6:\n      tag_41\n      tag_42\n      jump\t// in\n    tag_41:\n      mload(0x40)\n      tag_43\n      swap2\n      swap1\n      tag_44\n      jump\t// in\n    tag_43:\n      mload(0x40)\n      dup1\n      swap2\n      sub\n      swap1\n      return\n        /* \"Game_Logic.sol\":2357:2422  function unpause() external onlyOwner {... */\n    tag_7:\n      tag_45\n      tag_46\n      jump\t// in\n    tag_45:\n      stop\n        /* \"Game_Logic.sol\":546:575  address public treasuryWallet */\n    tag_8:\n      tag_47\n      tag_48\n      jump\t// in\n    tag_47:\n      mload(0x40)\n      tag_49\n      swap2\n      swap1\n      tag_44\n      jump\t// in\n    tag_49:\n      mload(0x40)\n      dup1\n      swap2\n      sub\n      swap1\n      return\n        /* \"Game_Logic.sol\":1806:1962  function setItemNFT(address _itemNFT) external onlyOwner {... */\n    tag_9:\n      tag_50\n      0x04\n      dup1\n      calldatasize\n      sub\n      dup2\n      add\n      swap1\n      tag_51\n      swap2\n      swap1\n      tag_34\n      jump\t// in\n    tag_51:\n      tag_52\n      jump\t// in\n    tag_50:\n      stop\n        /* \"Game_Logic.sol\":516:539  IERC1155 public itemNFT */\n    tag_10:\n      tag_53\n      tag_54\n      jump\t// in\n    tag_53:\n      mload(0x40)\n      tag_55\n      swap2\n      swap1\n      tag_56\n      jump\t// in\n    tag_55:\n      mload(0x40)\n      dup1\n      swap2\n      sub\n      swap1\n      return\n        /* \"@openzeppelin/contracts/security/Pausable.sol\":1615:1699  function paused() public view virtual returns (bool) {... */\n    tag_11:\n      tag_57\n      tag_58\n      jump\t// in\n    tag_57:\n      mload(0x40)\n      tag_59\n      swap2\n      swap1\n      tag_60\n      jump\t// in\n    tag_59:\n      mload(0x40)\n      dup1\n      swap2\n      sub\n      swap1\n      return\n        /* \"Game_Logic.sol\":2428:2636  function updateLevel(address user, uint256 newLevel) external onlyOwner {... */\n    tag_12:\n      tag_61\n      0x04\n      dup1\n      calldatasize\n      sub\n      dup2\n      add\n      swap1\n      tag_62\n      swap2\n      swap1\n      tag_28\n      jump\t// in\n    tag_62:\n      tag_63\n      jump\t// in\n    tag_61:\n      stop\n        /* \"@openzeppelin/contracts/access/Ownable.sol\":2293:2394  function renounceOwnership() public virtual onlyOwner {... */\n    tag_13:\n      tag_64\n      tag_65\n      jump\t// in\n    tag_64:\n      stop\n        /* \"Game_Logic.sol\":3205:3927  function claimReward(... */\n    tag_14:\n      tag_66\n      0x04\n      dup1\n      calldatasize\n      sub\n      dup2\n      add\n      swap1\n      tag_67\n      swap2\n      swap1\n      tag_68\n      jump\t// in\n    tag_67:\n      tag_69\n      jump\t// in\n    tag_66:\n      stop\n        /* \"Game_Logic.sol\":739:804  mapping(address => mapping(uint256 => bool)) public rewardClaimed */\n    tag_15:\n      tag_70\n      0x04\n      dup1\n      calldatasize\n      sub\n      dup2\n      add\n      swap1\n      tag_71\n      swap2\n      swap1\n      tag_28\n      jump\t// in\n    tag_71:\n      tag_72\n      jump\t// in\n    tag_70:\n      mload(0x40)\n      tag_73\n      swap2\n      swap1\n      tag_60\n      jump\t// in\n    tag_73:\n      mload(0x40)\n      dup1\n      swap2\n      sub\n      swap1\n      return\n        /* \"Game_Logic.sol\":2290:2351  function pause() external onlyOwner {... */\n    tag_16:\n      tag_74\n      tag_75\n      jump\t// in\n    tag_74:\n      stop\n        /* \"@openzeppelin/contracts/access/Ownable.sol\":1638:1723  function owner() public view virtual returns (address) {... */\n    tag_17:\n      tag_76\n      tag_77\n      jump\t// in\n    tag_76:\n      mload(0x40)\n      tag_78\n      swap2\n      swap1\n      tag_44\n      jump\t// in\n    tag_78:\n      mload(0x40)\n      dup1\n      swap2\n      sub\n      swap1\n      return\n        /* \"Game_Logic.sol\":1968:2125  function setTreasuryWallet(address _wallet) external onlyOwner {... */\n    tag_18:\n      tag_79\n      0x04\n      dup1\n      calldatasize\n      sub\n      dup2\n      add\n      swap1\n      tag_80\n      swap2\n      swap1\n      tag_34\n      jump\t// in\n    tag_80:\n      tag_81\n      jump\t// in\n    tag_79:\n      stop\n        /* \"Game_Logic.sol\":1635:1800  function setAvatarNFT(address _avatarNFT) external onlyOwner {... */\n    tag_19:\n      tag_82\n      0x04\n      dup1\n      calldatasize\n      sub\n      dup2\n      add\n      swap1\n      tag_83\n      swap2\n      swap1\n      tag_34\n      jump\t// in\n    tag_83:\n      tag_84\n      jump\t// in\n    tag_82:\n      stop\n        /* \"Game_Logic.sol\":2642:2905  function updateQuestProgress(address user, uint256 questId, uint256 progress) external onlyOwner {... */\n    tag_20:\n      tag_85\n      0x04\n      dup1\n      calldatasize\n      sub\n      dup2\n      add\n      swap1\n      tag_86\n      swap2\n      swap1\n      tag_87\n      jump\t// in\n    tag_86:\n      tag_88\n      jump\t// in\n    tag_85:\n      stop\n        /* \"Game_Logic.sol\":2131:2284  function setRewardSigner(address _signer) external onlyOwner {... */\n    tag_21:\n      tag_89\n      0x04\n      dup1\n      calldatasize\n      sub\n      dup2\n      add\n      swap1\n      tag_90\n      swap2\n      swap1\n      tag_34\n      jump\t// in\n    tag_90:\n      tag_91\n      jump\t// in\n    tag_89:\n      stop\n        /* \"@openzeppelin/contracts/access/Ownable.sol\":2543:2758  function transferOwnership(address newOwner) public virtual onlyOwner {... */\n    tag_22:\n      tag_92\n      0x04\n      dup1\n      calldatasize\n      sub\n      dup2\n      add\n      swap1\n      tag_93\n      swap2\n      swap1\n      tag_34\n      jump\t// in\n    tag_93:\n      tag_94\n      jump\t// in\n    tag_92:\n      stop\n        /* \"Game_Logic.sol\":665:733  mapping(address => mapping(uint256 => uint256)) public questProgress */\n    tag_29:\n      mstore(0x20, 0x07)\n      dup2\n      0x00\n      mstore\n      mstore(0x20, keccak256(0x00, 0x40))\n      dup1\n      0x00\n      mstore\n      keccak256(0x00, 0x40)\n      0x00\n      swap2\n      pop\n      swap2\n      pop\n      pop\n      sload\n      dup2\n      jump\t// out\n        /* \"Game_Logic.sol\":615:659  mapping(address => uint256) public userLevel */\n    tag_35:\n      mstore(0x20, 0x06)\n      dup1\n      0x00\n      mstore\n      keccak256(0x00, 0x40)\n      0x00\n      swap2\n      pop\n      swap1\n      pop\n      sload\n      dup2\n      jump\t// out\n        /* \"Game_Logic.sol\":486:510  IERC721 public avatarNFT */\n    tag_38:\n      0x02\n      0x00\n      swap1\n      sload\n      swap1\n      0x0100\n      exp\n      swap1\n      div\n      0xffffffffffffffffffffffffffffffffffffffff\n      and\n      dup2\n      jump\t// out\n        /* \"Game_Logic.sol\":581:608  address public rewardSigner */\n    tag_42:\n      0x05\n      0x00\n      swap1\n      sload\n      swap1\n      0x0100\n      exp\n      swap1\n      div\n      0xffffffffffffffffffffffffffffffffffffffff\n      and\n      dup2\n      jump\t// out\n        /* \"Game_Logic.sol\":2357:2422  function unpause() external onlyOwner {... */\n    tag_46:\n        /* \"@openzeppelin/contracts/access/Ownable.sol\":1531:1544  _checkOwner() */\n      tag_96\n        /* \"@openzeppelin/contracts/access/Ownable.sol\":1531:1542  _checkOwner */\n      tag_97\n        /* \"@openzeppelin/contracts/access/Ownable.sol\":1531:1544  _checkOwner() */\n      jump\t// in\n    tag_96:\n        /* \"Game_Logic.sol\":2405:2415  _unpause() */\n      tag_99\n        /* \"Game_Logic.sol\":2405:2413  _unpause */\n      tag_100\n        /* \"Game_Logic.sol\":2405:2415  _unpause() */\n      jump\t// in\n    tag_99:\n        /* \"Game_Logic.sol\":2357:2422  function unpause() external onlyOwner {... */\n      jump\t// out\n        /* \"Game_Logic.sol\":546:575  address public treasuryWallet */\n    tag_48:\n      0x04\n      0x00\n      swap1\n      sload\n      swap1\n      0x0100\n      exp\n      swap1\n      div\n      0xffffffffffffffffffffffffffffffffffffffff\n      and\n      dup2\n      jump\t// out\n        /* \"Game_Logic.sol\":1806:1962  function setItemNFT(address _itemNFT) external onlyOwner {... */\n    tag_52:\n        /* \"@openzeppelin/contracts/access/Ownable.sol\":1531:1544  _checkOwner() */\n      tag_102\n        /* \"@openzeppelin/contracts/access/Ownable.sol\":1531:1542  _checkOwner */\n      tag_97\n        /* \"@openzeppelin/contracts/access/Ownable.sol\":1531:1544  _checkOwner() */\n      jump\t// in\n    tag_102:\n        /* \"Game_Logic.sol\":1901:1902  0 */\n      0x00\n        /* \"Game_Logic.sol\":1881:1903  _itemNFT != address(0) */\n      0xffffffffffffffffffffffffffffffffffffffff\n      and\n        /* \"Game_Logic.sol\":1881:1889  _itemNFT */\n      dup2\n        /* \"Game_Logic.sol\":1881:1903  _itemNFT != address(0) */\n      0xffffffffffffffffffffffffffffffffffffffff\n      and\n      sub\n        /* \"Game_Logic.sol\":1873:1917  require(_itemNFT != address(0), \"zero addr\") */\n      tag_104\n      jumpi\n      mload(0x40)\n      0x08c379a000000000000000000000000000000000000000000000000000000000\n      dup2\n      mstore\n      0x04\n      add\n      tag_105\n      swap1\n      tag_106\n      jump\t// in\n    tag_105:\n      mload(0x40)\n      dup1\n      swap2\n      sub\n      swap1\n      revert\n    tag_104:\n        /* \"Game_Logic.sol\":1946:1954  _itemNFT */\n      dup1\n        /* \"Game_Logic.sol\":1927:1934  itemNFT */\n      0x03\n      0x00\n        /* \"Game_Logic.sol\":1927:1955  itemNFT = IERC1155(_itemNFT) */\n      0x0100\n      exp\n      dup2\n      sload\n      dup2\n      0xffffffffffffffffffffffffffffffffffffffff\n      mul\n      not\n      and\n      swap1\n      dup4\n      0xffffffffffffffffffffffffffffffffffffffff\n      and\n      mul\n      or\n      swap1\n      sstore\n      pop\n        /* \"Game_Logic.sol\":1806:1962  function setItemNFT(address _itemNFT) external onlyOwner {... */\n      pop\n      jump\t// out\n        /* \"Game_Logic.sol\":516:539  IERC1155 public itemNFT */\n    tag_54:\n      0x03\n      0x00\n      swap1\n      sload\n      swap1\n      0x0100\n      exp\n      swap1\n      div\n      0xffffffffffffffffffffffffffffffffffffffff\n      and\n      dup2\n      jump\t// out\n        /* \"@openzeppelin/contracts/security/Pausable.sol\":1615:1699  function paused() public view virtual returns (bool) {... */\n    tag_58:\n        /* \"@openzeppelin/contracts/security/Pausable.sol\":1662:1666  bool */\n      0x00\n        /* \"@openzeppelin/contracts/security/Pausable.sol\":1685:1692  _paused */\n      0x00\n      0x14\n      swap1\n      sload\n      swap1\n      0x0100\n      exp\n      swap1\n      div\n      0xff\n      and\n        /* \"@openzeppelin/contracts/security/Pausable.sol\":1678:1692  return _paused */\n      swap1\n      pop\n        /* \"@openzeppelin/contracts/security/Pausable.sol\":1615:1699  function paused() public view virtual returns (bool) {... */\n      swap1\n      jump\t// out\n        /* \"Game_Logic.sol\":2428:2636  function updateLevel(address user, uint256 newLevel) external onlyOwner {... */\n    tag_63:\n        /* \"@openzeppelin/contracts/access/Ownable.sol\":1531:1544  _checkOwner() */\n      tag_109\n        /* \"@openzeppelin/contracts/access/Ownable.sol\":1531:1542  _checkOwner */\n      tag_97\n        /* \"@openzeppelin/contracts/access/Ownable.sol\":1531:1544  _checkOwner() */\n      jump\t// in\n    tag_109:\n        /* \"Game_Logic.sol\":2534:2535  0 */\n      0x00\n        /* \"Game_Logic.sol\":2518:2536  user != address(0) */\n      0xffffffffffffffffffffffffffffffffffffffff\n      and\n        /* \"Game_Logic.sol\":2518:2522  user */\n      dup3\n        /* \"Game_Logic.sol\":2518:2536  user != address(0) */\n      0xffffffffffffffffffffffffffffffffffffffff\n      and\n      sub\n        /* \"Game_Logic.sol\":2510:2550  require(user != address(0), \"zero user\") */\n      tag_111\n      jumpi\n      mload(0x40)\n      0x08c379a000000000000000000000000000000000000000000000000000000000\n      dup2\n      mstore\n      0x04\n      add\n      tag_112\n      swap1\n      tag_113\n      jump\t// in\n    tag_112:\n      mload(0x40)\n      dup1\n      swap2\n      sub\n      swap1\n      revert\n    tag_111:\n        /* \"Game_Logic.sol\":2578:2586  newLevel */\n      dup1\n        /* \"Game_Logic.sol\":2560:2569  userLevel */\n      0x06\n        /* \"Game_Logic.sol\":2560:2575  userLevel[user] */\n      0x00\n        /* \"Game_Logic.sol\":2570:2574  user */\n      dup5\n        /* \"Game_Logic.sol\":2560:2575  userLevel[user] */\n      0xffffffffffffffffffffffffffffffffffffffff\n      and\n      0xffffffffffffffffffffffffffffffffffffffff\n      and\n      dup2\n      mstore\n      0x20\n      add\n      swap1\n      dup2\n      mstore\n      0x20\n      add\n      0x00\n      keccak256\n        /* \"Game_Logic.sol\":2560:2586  userLevel[user] = newLevel */\n      dup2\n      swap1\n      sstore\n      pop\n        /* \"Game_Logic.sol\":2614:2618  user */\n      dup2\n        /* \"Game_Logic.sol\":2601:2629  LevelUpdated(user, newLevel) */\n      0xffffffffffffffffffffffffffffffffffffffff\n      and\n      0x4bd6aedf6fbd4e9cacaf319dc8d6906ff7f7fd2522898365f92afab9cb245444\n        /* \"Game_Logic.sol\":2620:2628  newLevel */\n      dup3\n        /* \"Game_Logic.sol\":2601:2629  LevelUpdated(user, newLevel) */\n      mload(0x40)\n      tag_114\n      swap2\n      swap1\n      tag_31\n      jump\t// in\n    tag_114:\n      mload(0x40)\n      dup1\n      swap2\n      sub\n      swap1\n      log2\n        /* \"Game_Logic.sol\":2428:2636  function updateLevel(address user, uint256 newLevel) external onlyOwner {... */\n      pop\n      pop\n      jump\t// out\n        /* \"@openzeppelin/contracts/access/Ownable.sol\":2293:2394  function renounceOwnership() public virtual onlyOwner {... */\n    tag_65:\n        /* \"@openzeppelin/contracts/access/Ownable.sol\":1531:1544  _checkOwner() */\n      tag_116\n        /* \"@openzeppelin/contracts/access/Ownable.sol\":1531:1542  _checkOwner */\n      tag_97\n        /* \"@openzeppelin/contracts/access/Ownable.sol\":1531:1544  _checkOwner() */\n      jump\t// in\n    tag_116:\n        /* \"@openzeppelin/contracts/access/Ownable.sol\":2357:2387  _transferOwnership(address(0)) */\n      tag_118\n        /* \"@openzeppelin/contracts/access/Ownable.sol\":2384:2385  0 */\n      0x00\n        /* \"@openzeppelin/contracts/access/Ownable.sol\":2357:2375  _transferOwnership */\n      tag_119\n        /* \"@openzeppelin/contracts/access/Ownable.sol\":2357:2387  _transferOwnership(address(0)) */\n      jump\t// in\n    tag_118:\n        /* \"@openzeppelin/contracts/access/Ownable.sol\":2293:2394  function renounceOwnership() public virtual onlyOwner {... */\n      jump\t// out\n        /* \"Game_Logic.sol\":3205:3927  function claimReward(... */\n    tag_69:\n        /* \"@openzeppelin/contracts/security/Pausable.sol\":1239:1258  _requireNotPaused() */\n      tag_121\n        /* \"@openzeppelin/contracts/security/Pausable.sol\":1239:1256  _requireNotPaused */\n      tag_122\n        /* \"@openzeppelin/contracts/security/Pausable.sol\":1239:1258  _requireNotPaused() */\n      jump\t// in\n    tag_121:\n        /* \"@openzeppelin/contracts/security/ReentrancyGuard.sol\":2261:2282  _nonReentrantBefore() */\n      tag_124\n        /* \"@openzeppelin/contracts/security/ReentrancyGuard.sol\":2261:2280  _nonReentrantBefore */\n      tag_125\n        /* \"@openzeppelin/contracts/security/ReentrancyGuard.sol\":2261:2282  _nonReentrantBefore() */\n      jump\t// in\n    tag_124:\n        /* \"Game_Logic.sol\":3371:3384  rewardClaimed */\n      0x08\n        /* \"Game_Logic.sol\":3371:3396  rewardClaimed[msg.sender] */\n      0x00\n        /* \"Game_Logic.sol\":3385:3395  msg.sender */\n      caller\n        /* \"Game_Logic.sol\":3371:3396  rewardClaimed[msg.sender] */\n      0xffffffffffffffffffffffffffffffffffffffff\n      and\n      0xffffffffffffffffffffffffffffffffffffffff\n      and\n      dup2\n      mstore\n      0x20\n      add\n      swap1\n      dup2\n      mstore\n      0x20\n      add\n      0x00\n      keccak256\n        /* \"Game_Logic.sol\":3371:3406  rewardClaimed[msg.sender][rewardId] */\n      0x00\n        /* \"Game_Logic.sol\":3397:3405  rewardId */\n      dup6\n        /* \"Game_Logic.sol\":3371:3406  rewardClaimed[msg.sender][rewardId] */\n      dup2\n      mstore\n      0x20\n      add\n      swap1\n      dup2\n      mstore\n      0x20\n      add\n      0x00\n      keccak256\n      0x00\n      swap1\n      sload\n      swap1\n      0x0100\n      exp\n      swap1\n      div\n      0xff\n      and\n        /* \"Game_Logic.sol\":3370:3406  !rewardClaimed[msg.sender][rewardId] */\n      iszero\n        /* \"Game_Logic.sol\":3362:3426  require(!rewardClaimed[msg.sender][rewardId], \"already claimed\") */\n      tag_127\n      jumpi\n      mload(0x40)\n      0x08c379a000000000000000000000000000000000000000000000000000000000\n      dup2\n      mstore\n      0x04\n      add\n      tag_128\n      swap1\n      tag_129\n      jump\t// in\n    tag_128:\n      mload(0x40)\n      dup1\n      swap2\n      sub\n      swap1\n      revert\n    tag_127:\n        /* \"Game_Logic.sol\":3437:3456  bytes32 messageHash */\n      0x00\n        /* \"Game_Logic.sol\":3486:3496  msg.sender */\n      caller\n        /* \"Game_Logic.sol\":3498:3506  rewardId */\n      dup6\n        /* \"Game_Logic.sol\":3508:3514  amount */\n      dup6\n        /* \"Game_Logic.sol\":3469:3515  abi.encodePacked(msg.sender, rewardId, amount) */\n      add(0x20, mload(0x40))\n      tag_130\n      swap4\n      swap3\n      swap2\n      swap1\n      tag_131\n      jump\t// in\n    tag_130:\n      mload(0x40)\n      0x20\n      dup2\n      dup4\n      sub\n      sub\n      dup2\n      mstore\n      swap1\n      0x40\n      mstore\n        /* \"Game_Logic.sol\":3459:3516  keccak256(abi.encodePacked(msg.sender, rewardId, amount)) */\n      dup1\n      mload\n      swap1\n      0x20\n      add\n      keccak256\n        /* \"Game_Logic.sol\":3437:3516  bytes32 messageHash = keccak256(abi.encodePacked(msg.sender, rewardId, amount)) */\n      swap1\n      pop\n        /* \"Game_Logic.sol\":3526:3554  bytes32 ethSignedMessageHash */\n      0x00\n        /* \"Game_Logic.sol\":3557:3592  toEthSignedMessageHash(messageHash) */\n      tag_132\n        /* \"Game_Logic.sol\":3580:3591  messageHash */\n      dup3\n        /* \"Game_Logic.sol\":3557:3579  toEthSignedMessageHash */\n      tag_133\n        /* \"Game_Logic.sol\":3557:3592  toEthSignedMessageHash(messageHash) */\n      jump\t// in\n    tag_132:\n        /* \"Game_Logic.sol\":3526:3592  bytes32 ethSignedMessageHash = toEthSignedMessageHash(messageHash) */\n      swap1\n      pop\n        /* \"Game_Logic.sol\":3603:3626  address recoveredSigner */\n      0x00\n        /* \"Game_Logic.sol\":3629:3675  ECDSA.recover(ethSignedMessageHash, signature) */\n      tag_134\n        /* \"Game_Logic.sol\":3643:3663  ethSignedMessageHash */\n      dup3\n        /* \"Game_Logic.sol\":3665:3674  signature */\n      dup7\n      dup7\n        /* \"Game_Logic.sol\":3629:3675  ECDSA.recover(ethSignedMessageHash, signature) */\n      dup1\n      dup1\n      0x1f\n      add\n      0x20\n      dup1\n      swap2\n      div\n      mul\n      0x20\n      add\n      mload(0x40)\n      swap1\n      dup2\n      add\n      0x40\n      mstore\n      dup1\n      swap4\n      swap3\n      swap2\n      swap1\n      dup2\n      dup2\n      mstore\n      0x20\n      add\n      dup4\n      dup4\n      dup1\n      dup3\n      dup5\n      calldatacopy\n      0x00\n      dup2\n      dup5\n      add\n      mstore\n      not(0x1f)\n      0x1f\n      dup3\n      add\n      and\n      swap1\n      pop\n      dup1\n      dup4\n      add\n      swap3\n      pop\n      pop\n      pop\n      pop\n      pop\n      pop\n      pop\n        /* \"Game_Logic.sol\":3629:3642  ECDSA.recover */\n      tag_135\n        /* \"Game_Logic.sol\":3629:3675  ECDSA.recover(ethSignedMessageHash, signature) */\n      jump\t// in\n    tag_134:\n        /* \"Game_Logic.sol\":3603:3675  address recoveredSigner = ECDSA.recover(ethSignedMessageHash, signature) */\n      swap1\n      pop\n        /* \"Game_Logic.sol\":3712:3724  rewardSigner */\n      0x05\n      0x00\n      swap1\n      sload\n      swap1\n      0x0100\n      exp\n      swap1\n      div\n      0xffffffffffffffffffffffffffffffffffffffff\n      and\n        /* \"Game_Logic.sol\":3693:3724  recoveredSigner == rewardSigner */\n      0xffffffffffffffffffffffffffffffffffffffff\n      and\n        /* \"Game_Logic.sol\":3693:3708  recoveredSigner */\n      dup2\n        /* \"Game_Logic.sol\":3693:3724  recoveredSigner == rewardSigner */\n      0xffffffffffffffffffffffffffffffffffffffff\n      and\n      eq\n        /* \"Game_Logic.sol\":3685:3746  require(recoveredSigner == rewardSigner, \"invalid signature\") */\n      tag_136\n      jumpi\n      mload(0x40)\n      0x08c379a000000000000000000000000000000000000000000000000000000000\n      dup2\n      mstore\n      0x04\n      add\n      tag_137\n      swap1\n      tag_138\n      jump\t// in\n    tag_137:\n      mload(0x40)\n      dup1\n      swap2\n      sub\n      swap1\n      revert\n    tag_136:\n        /* \"Game_Logic.sol\":3795:3799  true */\n      0x01\n        /* \"Game_Logic.sol\":3757:3770  rewardClaimed */\n      0x08\n        /* \"Game_Logic.sol\":3757:3782  rewardClaimed[msg.sender] */\n      0x00\n        /* \"Game_Logic.sol\":3771:3781  msg.sender */\n      caller\n        /* \"Game_Logic.sol\":3757:3782  rewardClaimed[msg.sender] */\n      0xffffffffffffffffffffffffffffffffffffffff\n      and\n      0xffffffffffffffffffffffffffffffffffffffff\n      and\n      dup2\n      mstore\n      0x20\n      add\n      swap1\n      dup2\n      mstore\n      0x20\n      add\n      0x00\n      keccak256\n        /* \"Game_Logic.sol\":3757:3792  rewardClaimed[msg.sender][rewardId] */\n      0x00\n        /* \"Game_Logic.sol\":3783:3791  rewardId */\n      dup10\n        /* \"Game_Logic.sol\":3757:3792  rewardClaimed[msg.sender][rewardId] */\n      dup2\n      mstore\n      0x20\n      add\n      swap1\n      dup2\n      mstore\n      0x20\n      add\n      0x00\n      keccak256\n      0x00\n        /* \"Game_Logic.sol\":3757:3799  rewardClaimed[msg.sender][rewardId] = true */\n      0x0100\n      exp\n      dup2\n      sload\n      dup2\n      0xff\n      mul\n      not\n      and\n      swap1\n      dup4\n      iszero\n      iszero\n      mul\n      or\n      swap1\n      sstore\n      pop\n        /* \"Game_Logic.sol\":3899:3909  msg.sender */\n      caller\n        /* \"Game_Logic.sol\":3885:3920  RewardClaimed(msg.sender, rewardId) */\n      0xffffffffffffffffffffffffffffffffffffffff\n      and\n      0x106f923f993c2149d49b4255ff723acafa1f2d94393f561d3eda32ae348f7241\n        /* \"Game_Logic.sol\":3911:3919  rewardId */\n      dup9\n        /* \"Game_Logic.sol\":3885:3920  RewardClaimed(msg.sender, rewardId) */\n      mload(0x40)\n      tag_139\n      swap2\n      swap1\n      tag_31\n      jump\t// in\n    tag_139:\n      mload(0x40)\n      dup1\n      swap2\n      sub\n      swap1\n      log2\n        /* \"Game_Logic.sol\":3352:3927  {... */\n      pop\n      pop\n      pop\n        /* \"@openzeppelin/contracts/security/ReentrancyGuard.sol\":2303:2323  _nonReentrantAfter() */\n      tag_140\n        /* \"@openzeppelin/contracts/security/ReentrancyGuard.sol\":2303:2321  _nonReentrantAfter */\n      tag_141\n        /* \"@openzeppelin/contracts/security/ReentrancyGuard.sol\":2303:2323  _nonReentrantAfter() */\n      jump\t// in\n    tag_140:\n        /* \"Game_Logic.sol\":3205:3927  function claimReward(... */\n      pop\n      pop\n      pop\n      pop\n      jump\t// out\n        /* \"Game_Logic.sol\":739:804  mapping(address => mapping(uint256 => bool)) public rewardClaimed */\n    tag_72:\n      mstore(0x20, 0x08)\n      dup2\n      0x00\n      mstore\n      mstore(0x20, keccak256(0x00, 0x40))\n      dup1\n      0x00\n      mstore\n      keccak256(0x00, 0x40)\n      0x00\n      swap2\n      pop\n      swap2\n      pop\n      swap1\n      sload\n      swap1\n      0x0100\n      exp\n      swap1\n      div\n      0xff\n      and\n      dup2\n      jump\t// out\n        /* \"Game_Logic.sol\":2290:2351  function pause() external onlyOwner {... */\n    tag_75:\n        /* \"@openzeppelin/contracts/access/Ownable.sol\":1531:1544  _checkOwner() */\n      tag_143\n        /* \"@openzeppelin/contracts/access/Ownable.sol\":1531:1542  _checkOwner */\n      tag_97\n        /* \"@openzeppelin/contracts/access/Ownable.sol\":1531:1544  _checkOwner() */\n      jump\t// in\n    tag_143:\n        /* \"Game_Logic.sol\":2336:2344  _pause() */\n      tag_145\n        /* \"Game_Logic.sol\":2336:2342  _pause */\n      tag_146\n        /* \"Game_Logic.sol\":2336:2344  _pause() */\n      jump\t// in\n    tag_145:\n        /* \"Game_Logic.sol\":2290:2351  function pause() external onlyOwner {... */\n      jump\t// out\n        /* \"@openzeppelin/contracts/access/Ownable.sol\":1638:1723  function owner() public view virtual returns (address) {... */\n    tag_77:\n        /* \"@openzeppelin/contracts/access/Ownable.sol\":1684:1691  address */\n      0x00\n        /* \"@openzeppelin/contracts/access/Ownable.sol\":1710:1716  _owner */\n      0x00\n      0x00\n      swap1\n      sload\n      swap1\n      0x0100\n      exp\n      swap1\n      div\n      0xffffffffffffffffffffffffffffffffffffffff\n      and\n        /* \"@openzeppelin/contracts/access/Ownable.sol\":1703:1716  return _owner */\n      swap1\n      pop\n        /* \"@openzeppelin/contracts/access/Ownable.sol\":1638:1723  function owner() public view virtual returns (address) {... */\n      swap1\n      jump\t// out\n        /* \"Game_Logic.sol\":1968:2125  function setTreasuryWallet(address _wallet) external onlyOwner {... */\n    tag_81:\n        /* \"@openzeppelin/contracts/access/Ownable.sol\":1531:1544  _checkOwner() */\n      tag_149\n        /* \"@openzeppelin/contracts/access/Ownable.sol\":1531:1542  _checkOwner */\n      tag_97\n        /* \"@openzeppelin/contracts/access/Ownable.sol\":1531:1544  _checkOwner() */\n      jump\t// in\n    tag_149:\n        /* \"Game_Logic.sol\":2068:2069  0 */\n      0x00\n        /* \"Game_Logic.sol\":2049:2070  _wallet != address(0) */\n      0xffffffffffffffffffffffffffffffffffffffff\n      and\n        /* \"Game_Logic.sol\":2049:2056  _wallet */\n      dup2\n        /* \"Game_Logic.sol\":2049:2070  _wallet != address(0) */\n      0xffffffffffffffffffffffffffffffffffffffff\n      and\n      sub\n        /* \"Game_Logic.sol\":2041:2084  require(_wallet != address(0), \"zero addr\") */\n      tag_151\n      jumpi\n      mload(0x40)\n      0x08c379a000000000000000000000000000000000000000000000000000000000\n      dup2\n      mstore\n      0x04\n      add\n      tag_152\n      swap1\n      tag_106\n      jump\t// in\n    tag_152:\n      mload(0x40)\n      dup1\n      swap2\n      sub\n      swap1\n      revert\n    tag_151:\n        /* \"Game_Logic.sol\":2111:2118  _wallet */\n      dup1\n        /* \"Game_Logic.sol\":2094:2108  treasuryWallet */\n      0x04\n      0x00\n        /* \"Game_Logic.sol\":2094:2118  treasuryWallet = _wallet */\n      0x0100\n      exp\n      dup2\n      sload\n      dup2\n      0xffffffffffffffffffffffffffffffffffffffff\n      mul\n      not\n      and\n      swap1\n      dup4\n      0xffffffffffffffffffffffffffffffffffffffff\n      and\n      mul\n      or\n      swap1\n      sstore\n      pop\n        /* \"Game_Logic.sol\":1968:2125  function setTreasuryWallet(address _wallet) external onlyOwner {... */\n      pop\n      jump\t// out\n        /* \"Game_Logic.sol\":1635:1800  function setAvatarNFT(address _avatarNFT) external onlyOwner {... */\n    tag_84:\n        /* \"@openzeppelin/contracts/access/Ownable.sol\":1531:1544  _checkOwner() */\n      tag_154\n        /* \"@openzeppelin/contracts/access/Ownable.sol\":1531:1542  _checkOwner */\n      tag_97\n        /* \"@openzeppelin/contracts/access/Ownable.sol\":1531:1544  _checkOwner() */\n      jump\t// in\n    tag_154:\n        /* \"Game_Logic.sol\":1736:1737  0 */\n      0x00\n        /* \"Game_Logic.sol\":1714:1738  _avatarNFT != address(0) */\n      0xffffffffffffffffffffffffffffffffffffffff\n      and\n        /* \"Game_Logic.sol\":1714:1724  _avatarNFT */\n      dup2\n        /* \"Game_Logic.sol\":1714:1738  _avatarNFT != address(0) */\n      0xffffffffffffffffffffffffffffffffffffffff\n      and\n      sub\n        /* \"Game_Logic.sol\":1706:1752  require(_avatarNFT != address(0), \"zero addr\") */\n      tag_156\n      jumpi\n      mload(0x40)\n      0x08c379a000000000000000000000000000000000000000000000000000000000\n      dup2\n      mstore\n      0x04\n      add\n      tag_157\n      swap1\n      tag_106\n      jump\t// in\n    tag_157:\n      mload(0x40)\n      dup1\n      swap2\n      sub\n      swap1\n      revert\n    tag_156:\n        /* \"Game_Logic.sol\":1782:1792  _avatarNFT */\n      dup1\n        /* \"Game_Logic.sol\":1762:1771  avatarNFT */\n      0x02\n      0x00\n        /* \"Game_Logic.sol\":1762:1793  avatarNFT = IERC721(_avatarNFT) */\n      0x0100\n      exp\n      dup2\n      sload\n      dup2\n      0xffffffffffffffffffffffffffffffffffffffff\n      mul\n      not\n      and\n      swap1\n      dup4\n      0xffffffffffffffffffffffffffffffffffffffff\n      and\n      mul\n      or\n      swap1\n      sstore\n      pop\n        /* \"Game_Logic.sol\":1635:1800  function setAvatarNFT(address _avatarNFT) external onlyOwner {... */\n      pop\n      jump\t// out\n        /* \"Game_Logic.sol\":2642:2905  function updateQuestProgress(address user, uint256 questId, uint256 progress) external onlyOwner {... */\n    tag_88:\n        /* \"@openzeppelin/contracts/access/Ownable.sol\":1531:1544  _checkOwner() */\n      tag_159\n        /* \"@openzeppelin/contracts/access/Ownable.sol\":1531:1542  _checkOwner */\n      tag_97\n        /* \"@openzeppelin/contracts/access/Ownable.sol\":1531:1544  _checkOwner() */\n      jump\t// in\n    tag_159:\n        /* \"Game_Logic.sol\":2773:2774  0 */\n      0x00\n        /* \"Game_Logic.sol\":2757:2775  user != address(0) */\n      0xffffffffffffffffffffffffffffffffffffffff\n      and\n        /* \"Game_Logic.sol\":2757:2761  user */\n      dup4\n        /* \"Game_Logic.sol\":2757:2775  user != address(0) */\n      0xffffffffffffffffffffffffffffffffffffffff\n      and\n      sub\n        /* \"Game_Logic.sol\":2749:2789  require(user != address(0), \"zero user\") */\n      tag_161\n      jumpi\n      mload(0x40)\n      0x08c379a000000000000000000000000000000000000000000000000000000000\n      dup2\n      mstore\n      0x04\n      add\n      tag_162\n      swap1\n      tag_113\n      jump\t// in\n    tag_162:\n      mload(0x40)\n      dup1\n      swap2\n      sub\n      swap1\n      revert\n    tag_161:\n        /* \"Game_Logic.sol\":2830:2838  progress */\n      dup1\n        /* \"Game_Logic.sol\":2799:2812  questProgress */\n      0x07\n        /* \"Game_Logic.sol\":2799:2818  questProgress[user] */\n      0x00\n        /* \"Game_Logic.sol\":2813:2817  user */\n      dup6\n        /* \"Game_Logic.sol\":2799:2818  questProgress[user] */\n      0xffffffffffffffffffffffffffffffffffffffff\n      and\n      0xffffffffffffffffffffffffffffffffffffffff\n      and\n      dup2\n      mstore\n      0x20\n      add\n      swap1\n      dup2\n      mstore\n      0x20\n      add\n      0x00\n      keccak256\n        /* \"Game_Logic.sol\":2799:2827  questProgress[user][questId] */\n      0x00\n        /* \"Game_Logic.sol\":2819:2826  questId */\n      dup5\n        /* \"Game_Logic.sol\":2799:2827  questProgress[user][questId] */\n      dup2\n      mstore\n      0x20\n      add\n      swap1\n      dup2\n      mstore\n      0x20\n      add\n      0x00\n      keccak256\n        /* \"Game_Logic.sol\":2799:2838  questProgress[user][questId] = progress */\n      dup2\n      swap1\n      sstore\n      pop\n        /* \"Game_Logic.sol\":2874:2878  user */\n      dup3\n        /* \"Game_Logic.sol\":2853:2898  QuestProgressUpdated(user, questId, progress) */\n      0xffffffffffffffffffffffffffffffffffffffff\n      and\n      0x95b529ceb2b4c5026133eafcb0f6e7e63f17c39398d1b67e14569272cf3c956b\n        /* \"Game_Logic.sol\":2880:2887  questId */\n      dup4\n        /* \"Game_Logic.sol\":2889:2897  progress */\n      dup4\n        /* \"Game_Logic.sol\":2853:2898  QuestProgressUpdated(user, questId, progress) */\n      mload(0x40)\n      tag_163\n      swap3\n      swap2\n      swap1\n      tag_164\n      jump\t// in\n    tag_163:\n      mload(0x40)\n      dup1\n      swap2\n      sub\n      swap1\n      log2\n        /* \"Game_Logic.sol\":2642:2905  function updateQuestProgress(address user, uint256 questId, uint256 progress) external onlyOwner {... */\n      pop\n      pop\n      pop\n      jump\t// out\n        /* \"Game_Logic.sol\":2131:2284  function setRewardSigner(address _signer) external onlyOwner {... */\n    tag_91:\n        /* \"@openzeppelin/contracts/access/Ownable.sol\":1531:1544  _checkOwner() */\n      tag_166\n        /* \"@openzeppelin/contracts/access/Ownable.sol\":1531:1542  _checkOwner */\n      tag_97\n        /* \"@openzeppelin/contracts/access/Ownable.sol\":1531:1544  _checkOwner() */\n      jump\t// in\n    tag_166:\n        /* \"Game_Logic.sol\":2229:2230  0 */\n      0x00\n        /* \"Game_Logic.sol\":2210:2231  _signer != address(0) */\n      0xffffffffffffffffffffffffffffffffffffffff\n      and\n        /* \"Game_Logic.sol\":2210:2217  _signer */\n      dup2\n        /* \"Game_Logic.sol\":2210:2231  _signer != address(0) */\n      0xffffffffffffffffffffffffffffffffffffffff\n      and\n      sub\n        /* \"Game_Logic.sol\":2202:2245  require(_signer != address(0), \"zero addr\") */\n      tag_168\n      jumpi\n      mload(0x40)\n      0x08c379a000000000000000000000000000000000000000000000000000000000\n      dup2\n      mstore\n      0x04\n      add\n      tag_169\n      swap1\n      tag_106\n      jump\t// in\n    tag_169:\n      mload(0x40)\n      dup1\n      swap2\n      sub\n      swap1\n      revert\n    tag_168:\n        /* \"Game_Logic.sol\":2270:2277  _signer */\n      dup1\n        /* \"Game_Logic.sol\":2255:2267  rewardSigner */\n      0x05\n      0x00\n        /* \"Game_Logic.sol\":2255:2277  rewardSigner = _signer */\n      0x0100\n      exp\n      dup2\n      sload\n      dup2\n      0xffffffffffffffffffffffffffffffffffffffff\n      mul\n      not\n      and\n      swap1\n      dup4\n      0xffffffffffffffffffffffffffffffffffffffff\n      and\n      mul\n      or\n      swap1\n      sstore\n      pop\n        /* \"Game_Logic.sol\":2131:2284  function setRewardSigner(address _signer) external onlyOwner {... */\n      pop\n      jump\t// out\n        /* \"@openzeppelin/contracts/access/Ownable.sol\":2543:2758  function transferOwnership(address newOwner) public virtual onlyOwner {... */\n    tag_94:\n        /* \"@openzeppelin/contracts/access/Ownable.sol\":1531:1544  _checkOwner() */\n      tag_171\n        /* \"@openzeppelin/contracts/access/Ownable.sol\":1531:1542  _checkOwner */\n      tag_97\n        /* \"@openzeppelin/contracts/access/Ownable.sol\":1531:1544  _checkOwner() */\n      jump\t// in\n    tag_171:\n        /* \"@openzeppelin/contracts/access/Ownable.sol\":2647:2648  0 */\n      0x00\n        /* \"@openzeppelin/contracts/access/Ownable.sol\":2627:2649  newOwner == address(0) */\n      0xffffffffffffffffffffffffffffffffffffffff\n      and\n        /* \"@openzeppelin/contracts/access/Ownable.sol\":2627:2635  newOwner */\n      dup2\n        /* \"@openzeppelin/contracts/access/Ownable.sol\":2627:2649  newOwner == address(0) */\n      0xffffffffffffffffffffffffffffffffffffffff\n      and\n      sub\n        /* \"@openzeppelin/contracts/access/Ownable.sol\":2623:2714  if (newOwner == address(0)) {... */\n      tag_173\n      jumpi\n        /* \"@openzeppelin/contracts/access/Ownable.sol\":2700:2701  0 */\n      0x00\n        /* \"@openzeppelin/contracts/access/Ownable.sol\":2672:2703  OwnableInvalidOwner(address(0)) */\n      mload(0x40)\n      0x1e4fbdf700000000000000000000000000000000000000000000000000000000\n      dup2\n      mstore\n      0x04\n      add\n      tag_174\n      swap2\n      swap1\n      tag_44\n      jump\t// in\n    tag_174:\n      mload(0x40)\n      dup1\n      swap2\n      sub\n      swap1\n      revert\n        /* \"@openzeppelin/contracts/access/Ownable.sol\":2623:2714  if (newOwner == address(0)) {... */\n    tag_173:\n        /* \"@openzeppelin/contracts/access/Ownable.sol\":2723:2751  _transferOwnership(newOwner) */\n      tag_175\n        /* \"@openzeppelin/contracts/access/Ownable.sol\":2742:2750  newOwner */\n      dup2\n        /* \"@openzeppelin/contracts/access/Ownable.sol\":2723:2741  _transferOwnership */\n      tag_119\n        /* \"@openzeppelin/contracts/access/Ownable.sol\":2723:2751  _transferOwnership(newOwner) */\n      jump\t// in\n    tag_175:\n        /* \"@openzeppelin/contracts/access/Ownable.sol\":2543:2758  function transferOwnership(address newOwner) public virtual onlyOwner {... */\n      pop\n      jump\t// out\n        /* \"@openzeppelin/contracts/access/Ownable.sol\":1796:1958  function _checkOwner() internal view virtual {... */\n    tag_97:\n        /* \"@openzeppelin/contracts/access/Ownable.sol\":1866:1878  _msgSender() */\n      tag_177\n        /* \"@openzeppelin/contracts/access/Ownable.sol\":1866:1876  _msgSender */\n      tag_178\n        /* \"@openzeppelin/contracts/access/Ownable.sol\":1866:1878  _msgSender() */\n      jump\t// in\n    tag_177:\n        /* \"@openzeppelin/contracts/access/Ownable.sol\":1855:1878  owner() != _msgSender() */\n      0xffffffffffffffffffffffffffffffffffffffff\n      and\n        /* \"@openzeppelin/contracts/access/Ownable.sol\":1855:1862  owner() */\n      tag_179\n        /* \"@openzeppelin/contracts/access/Ownable.sol\":1855:1860  owner */\n      tag_77\n        /* \"@openzeppelin/contracts/access/Ownable.sol\":1855:1862  owner() */\n      jump\t// in\n    tag_179:\n        /* \"@openzeppelin/contracts/access/Ownable.sol\":1855:1878  owner() != _msgSender() */\n      0xffffffffffffffffffffffffffffffffffffffff\n      and\n      eq\n        /* \"@openzeppelin/contracts/access/Ownable.sol\":1851:1952  if (owner() != _msgSender()) {... */\n      tag_180\n      jumpi\n        /* \"@openzeppelin/contracts/access/Ownable.sol\":1928:1940  _msgSender() */\n      tag_181\n        /* \"@openzeppelin/contracts/access/Ownable.sol\":1928:1938  _msgSender */\n      tag_178\n        /* \"@openzeppelin/contracts/access/Ownable.sol\":1928:1940  _msgSender() */\n      jump\t// in\n    tag_181:\n        /* \"@openzeppelin/contracts/access/Ownable.sol\":1901:1941  OwnableUnauthorizedAccount(_msgSender()) */\n      mload(0x40)\n      0x118cdaa700000000000000000000000000000000000000000000000000000000\n      dup2\n      mstore\n      0x04\n      add\n      tag_182\n      swap2\n      swap1\n      tag_44\n      jump\t// in\n    tag_182:\n      mload(0x40)\n      dup1\n      swap2\n      sub\n      swap1\n      revert\n        /* \"@openzeppelin/contracts/access/Ownable.sol\":1851:1952  if (owner() != _msgSender()) {... */\n    tag_180:\n        /* \"@openzeppelin/contracts/access/Ownable.sol\":1796:1958  function _checkOwner() internal view virtual {... */\n      jump\t// out\n        /* \"@openzeppelin/contracts/security/Pausable.sol\":2433:2550  function _unpause() internal virtual whenPaused {... */\n    tag_100:\n        /* \"@openzeppelin/contracts/security/Pausable.sol\":1486:1502  _requirePaused() */\n      tag_184\n        /* \"@openzeppelin/contracts/security/Pausable.sol\":1486:1500  _requirePaused */\n      tag_185\n        /* \"@openzeppelin/contracts/security/Pausable.sol\":1486:1502  _requirePaused() */\n      jump\t// in\n    tag_184:\n        /* \"@openzeppelin/contracts/security/Pausable.sol\":2501:2506  false */\n      0x00\n        /* \"@openzeppelin/contracts/security/Pausable.sol\":2491:2498  _paused */\n      0x00\n      0x14\n        /* \"@openzeppelin/contracts/security/Pausable.sol\":2491:2506  _paused = false */\n      0x0100\n      exp\n      dup2\n      sload\n      dup2\n      0xff\n      mul\n      not\n      and\n      swap1\n      dup4\n      iszero\n      iszero\n      mul\n      or\n      swap1\n      sstore\n      pop\n        /* \"@openzeppelin/contracts/security/Pausable.sol\":2521:2543  Unpaused(_msgSender()) */\n      0x5db9ee0a495bf2e6ff9c91a7834c1ba4fdd244a5e8aa4e537bd38aeae4b073aa\n        /* \"@openzeppelin/contracts/security/Pausable.sol\":2530:2542  _msgSender() */\n      tag_187\n        /* \"@openzeppelin/contracts/security/Pausable.sol\":2530:2540  _msgSender */\n      tag_178\n        /* \"@openzeppelin/contracts/security/Pausable.sol\":2530:2542  _msgSender() */\n      jump\t// in\n    tag_187:\n        /* \"@openzeppelin/contracts/security/Pausable.sol\":2521:2543  Unpaused(_msgSender()) */\n      mload(0x40)\n      tag_188\n      swap2\n      swap1\n      tag_44\n      jump\t// in\n    tag_188:\n      mload(0x40)\n      dup1\n      swap2\n      sub\n      swap1\n      log1\n        /* \"@openzeppelin/contracts/security/Pausable.sol\":2433:2550  function _unpause() internal virtual whenPaused {... */\n      jump\t// out\n        /* \"@openzeppelin/contracts/access/Ownable.sol\":2912:3099  function _transferOwnership(address newOwner) internal virtual {... */\n    tag_119:\n        /* \"@openzeppelin/contracts/access/Ownable.sol\":2985:3001  address oldOwner */\n      0x00\n        /* \"@openzeppelin/contracts/access/Ownable.sol\":3004:3010  _owner */\n      0x00\n      0x00\n      swap1\n      sload\n      swap1\n      0x0100\n      exp\n      swap1\n      div\n      0xffffffffffffffffffffffffffffffffffffffff\n      and\n        /* \"@openzeppelin/contracts/access/Ownable.sol\":2985:3010  address oldOwner = _owner */\n      swap1\n      pop\n        /* \"@openzeppelin/contracts/access/Ownable.sol\":3029:3037  newOwner */\n      dup2\n        /* \"@openzeppelin/contracts/access/Ownable.sol\":3020:3026  _owner */\n      0x00\n      0x00\n        /* \"@openzeppelin/contracts/access/Ownable.sol\":3020:3037  _owner = newOwner */\n      0x0100\n      exp\n      dup2\n      sload\n      dup2\n      0xffffffffffffffffffffffffffffffffffffffff\n      mul\n      not\n      and\n      swap1\n      dup4\n      0xffffffffffffffffffffffffffffffffffffffff\n      and\n      mul\n      or\n      swap1\n      sstore\n      pop\n        /* \"@openzeppelin/contracts/access/Ownable.sol\":3083:3091  newOwner */\n      dup2\n        /* \"@openzeppelin/contracts/access/Ownable.sol\":3052:3092  OwnershipTransferred(oldOwner, newOwner) */\n      0xffffffffffffffffffffffffffffffffffffffff\n      and\n        /* \"@openzeppelin/contracts/access/Ownable.sol\":3073:3081  oldOwner */\n      dup2\n        /* \"@openzeppelin/contracts/access/Ownable.sol\":3052:3092  OwnershipTransferred(oldOwner, newOwner) */\n      0xffffffffffffffffffffffffffffffffffffffff\n      and\n      0x8be0079c531659141344cd1fd0a4f28419497f9722a3daafe3b4186f6b6457e0\n      mload(0x40)\n      mload(0x40)\n      dup1\n      swap2\n      sub\n      swap1\n      log3\n        /* \"@openzeppelin/contracts/access/Ownable.sol\":2975:3099  {... */\n      pop\n        /* \"@openzeppelin/contracts/access/Ownable.sol\":2912:3099  function _transferOwnership(address newOwner) internal virtual {... */\n      pop\n      jump\t// out\n        /* \"@openzeppelin/contracts/security/Pausable.sol\":1767:1873  function _requireNotPaused() internal view virtual {... */\n    tag_122:\n        /* \"@openzeppelin/contracts/security/Pausable.sol\":1837:1845  paused() */\n      tag_191\n        /* \"@openzeppelin/contracts/security/Pausable.sol\":1837:1843  paused */\n      tag_58\n        /* \"@openzeppelin/contracts/security/Pausable.sol\":1837:1845  paused() */\n      jump\t// in\n    tag_191:\n        /* \"@openzeppelin/contracts/security/Pausable.sol\":1836:1845  !paused() */\n      iszero\n        /* \"@openzeppelin/contracts/security/Pausable.sol\":1828:1866  require(!paused(), \"Pausable: paused\") */\n      tag_192\n      jumpi\n      mload(0x40)\n      0x08c379a000000000000000000000000000000000000000000000000000000000\n      dup2\n      mstore\n      0x04\n      add\n      tag_193\n      swap1\n      tag_194\n      jump\t// in\n    tag_193:\n      mload(0x40)\n      dup1\n      swap2\n      sub\n      swap1\n      revert\n    tag_192:\n        /* \"@openzeppelin/contracts/security/Pausable.sol\":1767:1873  function _requireNotPaused() internal view virtual {... */\n      jump\t// out\n        /* \"@openzeppelin/contracts/security/ReentrancyGuard.sol\":2336:2623  function _nonReentrantBefore() private {... */\n    tag_125:\n        /* \"@openzeppelin/contracts/security/ReentrancyGuard.sol\":1759:1760  2 */\n      0x02\n        /* \"@openzeppelin/contracts/security/ReentrancyGuard.sol\":2468:2475  _status */\n      sload(0x01)\n        /* \"@openzeppelin/contracts/security/ReentrancyGuard.sol\":2468:2487  _status != _ENTERED */\n      sub\n        /* \"@openzeppelin/contracts/security/ReentrancyGuard.sol\":2460:2523  require(_status != _ENTERED, \"ReentrancyGuard: reentrant call\") */\n      tag_196\n      jumpi\n      mload(0x40)\n      0x08c379a000000000000000000000000000000000000000000000000000000000\n      dup2\n      mstore\n      0x04\n      add\n      tag_197\n      swap1\n      tag_198\n      jump\t// in\n    tag_197:\n      mload(0x40)\n      dup1\n      swap2\n      sub\n      swap1\n      revert\n    tag_196:\n        /* \"@openzeppelin/contracts/security/ReentrancyGuard.sol\":1759:1760  2 */\n      0x02\n        /* \"@openzeppelin/contracts/security/ReentrancyGuard.sol\":2598:2605  _status */\n      0x01\n        /* \"@openzeppelin/contracts/security/ReentrancyGuard.sol\":2598:2616  _status = _ENTERED */\n      dup2\n      swap1\n      sstore\n      pop\n        /* \"@openzeppelin/contracts/security/ReentrancyGuard.sol\":2336:2623  function _nonReentrantBefore() private {... */\n      jump\t// out\n        /* \"Game_Logic.sol\":2987:3199  function toEthSignedMessageHash(bytes32 hash) internal pure returns (bytes32) {... */\n    tag_133:\n        /* \"Game_Logic.sol\":3056:3063  bytes32 */\n      0x00\n        /* \"Game_Logic.sol\":3186:3190  hash */\n      dup2\n        /* \"Game_Logic.sol\":3133:3191  abi.encodePacked(\"\\x19Ethereum Signed Message:\\n32\", hash) */\n      add(0x20, mload(0x40))\n      tag_200\n      swap2\n      swap1\n      tag_201\n      jump\t// in\n    tag_200:\n      mload(0x40)\n      0x20\n      dup2\n      dup4\n      sub\n      sub\n      dup2\n      mstore\n      swap1\n      0x40\n      mstore\n        /* \"Game_Logic.sol\":3123:3192  keccak256(abi.encodePacked(\"\\x19Ethereum Signed Message:\\n32\", hash)) */\n      dup1\n      mload\n      swap1\n      0x20\n      add\n      keccak256\n        /* \"Game_Logic.sol\":3116:3192  return keccak256(abi.encodePacked(\"\\x19Ethereum Signed Message:\\n32\", hash)) */\n      swap1\n      pop\n        /* \"Game_Logic.sol\":2987:3199  function toEthSignedMessageHash(bytes32 hash) internal pure returns (bytes32) {... */\n      swap2\n      swap1\n      pop\n      jump\t// out\n        /* \"@openzeppelin/contracts/utils/cryptography/ECDSA.sol\":3714:3969  function recover(bytes32 hash, bytes memory signature) internal pure returns (address) {... */\n    tag_135:\n        /* \"@openzeppelin/contracts/utils/cryptography/ECDSA.sol\":3792:3799  address */\n      0x00\n        /* \"@openzeppelin/contracts/utils/cryptography/ECDSA.sol\":3812:3829  address recovered */\n      0x00\n        /* \"@openzeppelin/contracts/utils/cryptography/ECDSA.sol\":3831:3849  RecoverError error */\n      0x00\n        /* \"@openzeppelin/contracts/utils/cryptography/ECDSA.sol\":3851:3867  bytes32 errorArg */\n      0x00\n        /* \"@openzeppelin/contracts/utils/cryptography/ECDSA.sol\":3871:3898  tryRecover(hash, signature) */\n      tag_203\n        /* \"@openzeppelin/contracts/utils/cryptography/ECDSA.sol\":3882:3886  hash */\n      dup7\n        /* \"@openzeppelin/contracts/utils/cryptography/ECDSA.sol\":3888:3897  signature */\n      dup7\n        /* \"@openzeppelin/contracts/utils/cryptography/ECDSA.sol\":3871:3881  tryRecover */\n      tag_204\n        /* \"@openzeppelin/contracts/utils/cryptography/ECDSA.sol\":3871:3898  tryRecover(hash, signature) */\n      jump\t// in\n    tag_203:\n        /* \"@openzeppelin/contracts/utils/cryptography/ECDSA.sol\":3811:3898  (address recovered, RecoverError error, bytes32 errorArg) = tryRecover(hash, signature) */\n      swap3\n      pop\n      swap3\n      pop\n      swap3\n      pop\n        /* \"@openzeppelin/contracts/utils/cryptography/ECDSA.sol\":3908:3936  _throwError(error, errorArg) */\n      tag_205\n        /* \"@openzeppelin/contracts/utils/cryptography/ECDSA.sol\":3920:3925  error */\n      dup3\n        /* \"@openzeppelin/contracts/utils/cryptography/ECDSA.sol\":3927:3935  errorArg */\n      dup3\n        /* \"@openzeppelin/contracts/utils/cryptography/ECDSA.sol\":3908:3919  _throwError */\n      tag_206\n        /* \"@openzeppelin/contracts/utils/cryptography/ECDSA.sol\":3908:3936  _throwError(error, errorArg) */\n      jump\t// in\n    tag_205:\n        /* \"@openzeppelin/contracts/utils/cryptography/ECDSA.sol\":3953:3962  recovered */\n      dup3\n        /* \"@openzeppelin/contracts/utils/cryptography/ECDSA.sol\":3946:3962  return recovered */\n      swap4\n      pop\n      pop\n      pop\n      pop\n        /* \"@openzeppelin/contracts/utils/cryptography/ECDSA.sol\":3714:3969  function recover(bytes32 hash, bytes memory signature) internal pure returns (address) {... */\n      swap3\n      swap2\n      pop\n      pop\n      jump\t// out\n        /* \"@openzeppelin/contracts/security/ReentrancyGuard.sol\":2629:2838  function _nonReentrantAfter() private {... */\n    tag_141:\n        /* \"@openzeppelin/contracts/security/ReentrancyGuard.sol\":1716:1717  1 */\n      0x01\n        /* \"@openzeppelin/contracts/security/ReentrancyGuard.sol\":2809:2816  _status */\n      dup1\n        /* \"@openzeppelin/contracts/security/ReentrancyGuard.sol\":2809:2831  _status = _NOT_ENTERED */\n      dup2\n      swap1\n      sstore\n      pop\n        /* \"@openzeppelin/contracts/security/ReentrancyGuard.sol\":2629:2838  function _nonReentrantAfter() private {... */\n      jump\t// out\n        /* \"@openzeppelin/contracts/security/Pausable.sol\":2186:2301  function _pause() internal virtual whenNotPaused {... */\n    tag_146:\n        /* \"@openzeppelin/contracts/security/Pausable.sol\":1239:1258  _requireNotPaused() */\n      tag_209\n        /* \"@openzeppelin/contracts/security/Pausable.sol\":1239:1256  _requireNotPaused */\n      tag_122\n        /* \"@openzeppelin/contracts/security/Pausable.sol\":1239:1258  _requireNotPaused() */\n      jump\t// in\n    tag_209:\n        /* \"@openzeppelin/contracts/security/Pausable.sol\":2255:2259  true */\n      0x01\n        /* \"@openzeppelin/contracts/security/Pausable.sol\":2245:2252  _paused */\n      0x00\n      0x14\n        /* \"@openzeppelin/contracts/security/Pausable.sol\":2245:2259  _paused = true */\n      0x0100\n      exp\n      dup2\n      sload\n      dup2\n      0xff\n      mul\n      not\n      and\n      swap1\n      dup4\n      iszero\n      iszero\n      mul\n      or\n      swap1\n      sstore\n      pop\n        /* \"@openzeppelin/contracts/security/Pausable.sol\":2274:2294  Paused(_msgSender()) */\n      0x62e78cea01bee320cd4e420270b5ea74000d11b0c9f74754ebdbfc544b05a258\n        /* \"@openzeppelin/contracts/security/Pausable.sol\":2281:2293  _msgSender() */\n      tag_211\n        /* \"@openzeppelin/contracts/security/Pausable.sol\":2281:2291  _msgSender */\n      tag_178\n        /* \"@openzeppelin/contracts/security/Pausable.sol\":2281:2293  _msgSender() */\n      jump\t// in\n    tag_211:\n        /* \"@openzeppelin/contracts/security/Pausable.sol\":2274:2294  Paused(_msgSender()) */\n      mload(0x40)\n      tag_212\n      swap2\n      swap1\n      tag_44\n      jump\t// in\n    tag_212:\n      mload(0x40)\n      dup1\n      swap2\n      sub\n      swap1\n      log1\n        /* \"@openzeppelin/contracts/security/Pausable.sol\":2186:2301  function _pause() internal virtual whenNotPaused {... */\n      jump\t// out\n        /* \"@openzeppelin/contracts/utils/Context.sol\":656:752  function _msgSender() internal view virtual returns (address) {... */\n    tag_178:\n        /* \"@openzeppelin/contracts/utils/Context.sol\":709:716  address */\n      0x00\n        /* \"@openzeppelin/contracts/utils/Context.sol\":735:745  msg.sender */\n      caller\n        /* \"@openzeppelin/contracts/utils/Context.sol\":728:745  return msg.sender */\n      swap1\n      pop\n        /* \"@openzeppelin/contracts/utils/Context.sol\":656:752  function _msgSender() internal view virtual returns (address) {... */\n      swap1\n      jump\t// out\n        /* \"@openzeppelin/contracts/security/Pausable.sol\":1945:2051  function _requirePaused() internal view virtual {... */\n    tag_185:\n        /* \"@openzeppelin/contracts/security/Pausable.sol\":2011:2019  paused() */\n      tag_215\n        /* \"@openzeppelin/contracts/security/Pausable.sol\":2011:2017  paused */\n      tag_58\n        /* \"@openzeppelin/contracts/security/Pausable.sol\":2011:2019  paused() */\n      jump\t// in\n    tag_215:\n        /* \"@openzeppelin/contracts/security/Pausable.sol\":2003:2044  require(paused(), \"Pausable: not paused\") */\n      tag_216\n      jumpi\n      mload(0x40)\n      0x08c379a000000000000000000000000000000000000000000000000000000000\n      dup2\n      mstore\n      0x04\n      add\n      tag_217\n      swap1\n      tag_218\n      jump\t// in\n    tag_217:\n      mload(0x40)\n      dup1\n      swap2\n      sub\n      swap1\n      revert\n    tag_216:\n        /* \"@openzeppelin/contracts/security/Pausable.sol\":1945:2051  function _requirePaused() internal view virtual {... */\n      jump\t// out\n        /* \"@openzeppelin/contracts/utils/cryptography/ECDSA.sol\":2129:2907  function tryRecover(... */\n    tag_204:\n        /* \"@openzeppelin/contracts/utils/cryptography/ECDSA.sol\":2232:2249  address recovered */\n      0x00\n        /* \"@openzeppelin/contracts/utils/cryptography/ECDSA.sol\":2251:2267  RecoverError err */\n      0x00\n        /* \"@openzeppelin/contracts/utils/cryptography/ECDSA.sol\":2269:2283  bytes32 errArg */\n      0x00\n        /* \"@openzeppelin/contracts/utils/cryptography/ECDSA.sol\":2319:2321  65 */\n      0x41\n        /* \"@openzeppelin/contracts/utils/cryptography/ECDSA.sol\":2299:2308  signature */\n      dup5\n        /* \"@openzeppelin/contracts/utils/cryptography/ECDSA.sol\":2299:2315  signature.length */\n      mload\n        /* \"@openzeppelin/contracts/utils/cryptography/ECDSA.sol\":2299:2321  signature.length == 65 */\n      sub\n        /* \"@openzeppelin/contracts/utils/cryptography/ECDSA.sol\":2295:2901  if (signature.length == 65) {... */\n      tag_220\n      jumpi\n        /* \"@openzeppelin/contracts/utils/cryptography/ECDSA.sol\":2337:2346  bytes32 r */\n      0x00\n        /* \"@openzeppelin/contracts/utils/cryptography/ECDSA.sol\":2360:2369  bytes32 s */\n      0x00\n        /* \"@openzeppelin/contracts/utils/cryptography/ECDSA.sol\":2383:2390  uint8 v */\n      0x00\n        /* \"@openzeppelin/contracts/utils/cryptography/ECDSA.sol\":2604:2608  0x20 */\n      0x20\n        /* \"@openzeppelin/contracts/utils/cryptography/ECDSA.sol\":2593:2602  signature */\n      dup8\n        /* \"@openzeppelin/contracts/utils/cryptography/ECDSA.sol\":2589:2609  add(signature, 0x20) */\n      add\n        /* \"@openzeppelin/contracts/utils/cryptography/ECDSA.sol\":2583:2610  mload(add(signature, 0x20)) */\n      mload\n        /* \"@openzeppelin/contracts/utils/cryptography/ECDSA.sol\":2578:2610  r := mload(add(signature, 0x20)) */\n      swap3\n      pop\n        /* \"@openzeppelin/contracts/utils/cryptography/ECDSA.sol\":2653:2657  0x40 */\n      0x40\n        /* \"@openzeppelin/contracts/utils/cryptography/ECDSA.sol\":2642:2651  signature */\n      dup8\n        /* \"@openzeppelin/contracts/utils/cryptography/ECDSA.sol\":2638:2658  add(signature, 0x40) */\n      add\n        /* \"@openzeppelin/contracts/utils/cryptography/ECDSA.sol\":2632:2659  mload(add(signature, 0x40)) */\n      mload\n        /* \"@openzeppelin/contracts/utils/cryptography/ECDSA.sol\":2627:2659  s := mload(add(signature, 0x40)) */\n      swap2\n      pop\n        /* \"@openzeppelin/contracts/utils/cryptography/ECDSA.sol\":2710:2714  0x60 */\n      0x60\n        /* \"@openzeppelin/contracts/utils/cryptography/ECDSA.sol\":2699:2708  signature */\n      dup8\n        /* \"@openzeppelin/contracts/utils/cryptography/ECDSA.sol\":2695:2715  add(signature, 0x60) */\n      add\n        /* \"@openzeppelin/contracts/utils/cryptography/ECDSA.sol\":2689:2716  mload(add(signature, 0x60)) */\n      mload\n        /* \"@openzeppelin/contracts/utils/cryptography/ECDSA.sol\":2686:2687  0 */\n      0x00\n        /* \"@openzeppelin/contracts/utils/cryptography/ECDSA.sol\":2681:2717  byte(0, mload(add(signature, 0x60))) */\n      byte\n        /* \"@openzeppelin/contracts/utils/cryptography/ECDSA.sol\":2676:2717  v := byte(0, mload(add(signature, 0x60))) */\n      swap1\n      pop\n        /* \"@openzeppelin/contracts/utils/cryptography/ECDSA.sol\":2751:2776  tryRecover(hash, v, r, s) */\n      tag_221\n        /* \"@openzeppelin/contracts/utils/cryptography/ECDSA.sol\":2762:2766  hash */\n      dup9\n        /* \"@openzeppelin/contracts/utils/cryptography/ECDSA.sol\":2768:2769  v */\n      dup3\n        /* \"@openzeppelin/contracts/utils/cryptography/ECDSA.sol\":2771:2772  r */\n      dup6\n        /* \"@openzeppelin/contracts/utils/cryptography/ECDSA.sol\":2774:2775  s */\n      dup6\n        /* \"@openzeppelin/contracts/utils/cryptography/ECDSA.sol\":2751:2761  tryRecover */\n      tag_222\n        /* \"@openzeppelin/contracts/utils/cryptography/ECDSA.sol\":2751:2776  tryRecover(hash, v, r, s) */\n      jump\t// in\n    tag_221:\n        /* \"@openzeppelin/contracts/utils/cryptography/ECDSA.sol\":2744:2776  return tryRecover(hash, v, r, s) */\n      swap6\n      pop\n      swap6\n      pop\n      swap6\n      pop\n      pop\n      pop\n      pop\n      jump(tag_219)\n        /* \"@openzeppelin/contracts/utils/cryptography/ECDSA.sol\":2295:2901  if (signature.length == 65) {... */\n    tag_220:\n        /* \"@openzeppelin/contracts/utils/cryptography/ECDSA.sol\":2823:2824  0 */\n      0x00\n        /* \"@openzeppelin/contracts/utils/cryptography/ECDSA.sol\":2827:2862  RecoverError.InvalidSignatureLength */\n      0x02\n        /* \"@openzeppelin/contracts/utils/cryptography/ECDSA.sol\":2872:2881  signature */\n      dup6\n        /* \"@openzeppelin/contracts/utils/cryptography/ECDSA.sol\":2872:2888  signature.length */\n      mload\n        /* \"@openzeppelin/contracts/utils/cryptography/ECDSA.sol\":2864:2889  bytes32(signature.length) */\n      0x00\n      shl\n        /* \"@openzeppelin/contracts/utils/cryptography/ECDSA.sol\":2807:2890  return (address(0), RecoverError.InvalidSignatureLength, bytes32(signature.length)) */\n      swap3\n      pop\n      swap3\n      pop\n      swap3\n      pop\n        /* \"@openzeppelin/contracts/utils/cryptography/ECDSA.sol\":2129:2907  function tryRecover(... */\n    tag_219:\n      swap3\n      pop\n      swap3\n      pop\n      swap3\n      jump\t// out\n        /* \"@openzeppelin/contracts/utils/cryptography/ECDSA.sol\":7280:7812  function _throwError(RecoverError error, bytes32 errorArg) private pure {... */\n    tag_206:\n        /* \"@openzeppelin/contracts/utils/cryptography/ECDSA.sol\":7375:7395  RecoverError.NoError */\n      0x00\n        /* \"@openzeppelin/contracts/utils/cryptography/ECDSA.sol\":7366:7395  error == RecoverError.NoError */\n      0x03\n      dup2\n      gt\n      iszero\n      tag_225\n      jumpi\n      tag_226\n      tag_227\n      jump\t// in\n    tag_226:\n    tag_225:\n        /* \"@openzeppelin/contracts/utils/cryptography/ECDSA.sol\":7366:7371  error */\n      dup3\n        /* \"@openzeppelin/contracts/utils/cryptography/ECDSA.sol\":7366:7395  error == RecoverError.NoError */\n      0x03\n      dup2\n      gt\n      iszero\n      tag_228\n      jumpi\n      tag_229\n      tag_227\n      jump\t// in\n    tag_229:\n    tag_228:\n      sub\n        /* \"@openzeppelin/contracts/utils/cryptography/ECDSA.sol\":7362:7806  if (error == RecoverError.NoError) {... */\n      iszero\n        /* \"@openzeppelin/contracts/utils/cryptography/ECDSA.sol\":7411:7418  return; */\n      tag_224\n        /* \"@openzeppelin/contracts/utils/cryptography/ECDSA.sol\":7362:7806  if (error == RecoverError.NoError) {... */\n      jumpi\n        /* \"@openzeppelin/contracts/utils/cryptography/ECDSA.sol\":7471:7500  RecoverError.InvalidSignature */\n      0x01\n        /* \"@openzeppelin/contracts/utils/cryptography/ECDSA.sol\":7462:7500  error == RecoverError.InvalidSignature */\n      0x03\n      dup2\n      gt\n      iszero\n      tag_232\n      jumpi\n      tag_233\n      tag_227\n      jump\t// in\n    tag_233:\n    tag_232:\n        /* \"@openzeppelin/contracts/utils/cryptography/ECDSA.sol\":7462:7467  error */\n      dup3\n        /* \"@openzeppelin/contracts/utils/cryptography/ECDSA.sol\":7462:7500  error == RecoverError.InvalidSignature */\n      0x03\n      dup2\n      gt\n      iszero\n      tag_234\n      jumpi\n      tag_235\n      tag_227\n      jump\t// in\n    tag_235:\n    tag_234:\n      sub\n        /* \"@openzeppelin/contracts/utils/cryptography/ECDSA.sol\":7458:7806  if (error == RecoverError.InvalidSignature) {... */\n      tag_236\n      jumpi\n        /* \"@openzeppelin/contracts/utils/cryptography/ECDSA.sol\":7523:7546  ECDSAInvalidSignature() */\n      mload(0x40)\n      0xf645eedf00000000000000000000000000000000000000000000000000000000\n      dup2\n      mstore\n      0x04\n      add\n      mload(0x40)\n      dup1\n      swap2\n      sub\n      swap1\n      revert\n        /* \"@openzeppelin/contracts/utils/cryptography/ECDSA.sol\":7458:7806  if (error == RecoverError.InvalidSignature) {... */\n    tag_236:\n        /* \"@openzeppelin/contracts/utils/cryptography/ECDSA.sol\":7576:7611  RecoverError.InvalidSignatureLength */\n      0x02\n        /* \"@openzeppelin/contracts/utils/cryptography/ECDSA.sol\":7567:7611  error == RecoverError.InvalidSignatureLength */\n      0x03\n      dup2\n      gt\n      iszero\n      tag_238\n      jumpi\n      tag_239\n      tag_227\n      jump\t// in\n    tag_239:\n    tag_238:\n        /* \"@openzeppelin/contracts/utils/cryptography/ECDSA.sol\":7567:7572  error */\n      dup3\n        /* \"@openzeppelin/contracts/utils/cryptography/ECDSA.sol\":7567:7611  error == RecoverError.InvalidSignatureLength */\n      0x03\n      dup2\n      gt\n      iszero\n      tag_240\n      jumpi\n      tag_241\n      tag_227\n      jump\t// in\n    tag_241:\n    tag_240:\n      sub\n        /* \"@openzeppelin/contracts/utils/cryptography/ECDSA.sol\":7563:7806  if (error == RecoverError.InvalidSignatureLength) {... */\n      tag_242\n      jumpi\n        /* \"@openzeppelin/contracts/utils/cryptography/ECDSA.sol\":7670:7678  errorArg */\n      dup1\n        /* \"@openzeppelin/contracts/utils/cryptography/ECDSA.sol\":7662:7679  uint256(errorArg) */\n      0x00\n      shr\n        /* \"@openzeppelin/contracts/utils/cryptography/ECDSA.sol\":7634:7680  ECDSAInvalidSignatureLength(uint256(errorArg)) */\n      mload(0x40)\n      0xfce698f700000000000000000000000000000000000000000000000000000000\n      dup2\n      mstore\n      0x04\n      add\n      tag_243\n      swap2\n      swap1\n      tag_31\n      jump\t// in\n    tag_243:\n      mload(0x40)\n      dup1\n      swap2\n      sub\n      swap1\n      revert\n        /* \"@openzeppelin/contracts/utils/cryptography/ECDSA.sol\":7563:7806  if (error == RecoverError.InvalidSignatureLength) {... */\n    tag_242:\n        /* \"@openzeppelin/contracts/utils/cryptography/ECDSA.sol\":7710:7740  RecoverError.InvalidSignatureS */\n      0x03\n        /* \"@openzeppelin/contracts/utils/cryptography/ECDSA.sol\":7701:7740  error == RecoverError.InvalidSignatureS */\n      dup1\n      dup2\n      gt\n      iszero\n      tag_245\n      jumpi\n      tag_246\n      tag_227\n      jump\t// in\n    tag_246:\n    tag_245:\n        /* \"@openzeppelin/contracts/utils/cryptography/ECDSA.sol\":7701:7706  error */\n      dup3\n        /* \"@openzeppelin/contracts/utils/cryptography/ECDSA.sol\":7701:7740  error == RecoverError.InvalidSignatureS */\n      0x03\n      dup2\n      gt\n      iszero\n      tag_247\n      jumpi\n      tag_248\n      tag_227\n      jump\t// in\n    tag_248:\n    tag_247:\n      sub\n        /* \"@openzeppelin/contracts/utils/cryptography/ECDSA.sol\":7697:7806  if (error == RecoverError.InvalidSignatureS) {... */\n      tag_249\n      jumpi\n        /* \"@openzeppelin/contracts/utils/cryptography/ECDSA.sol\":7786:7794  errorArg */\n      dup1\n        /* \"@openzeppelin/contracts/utils/cryptography/ECDSA.sol\":7763:7795  ECDSAInvalidSignatureS(errorArg) */\n      mload(0x40)\n      0xd78bce0c00000000000000000000000000000000000000000000000000000000\n      dup2\n      mstore\n      0x04\n      add\n      tag_250\n      swap2\n      swap1\n      tag_251\n      jump\t// in\n    tag_250:\n      mload(0x40)\n      dup1\n      swap2\n      sub\n      swap1\n      revert\n        /* \"@openzeppelin/contracts/utils/cryptography/ECDSA.sol\":7697:7806  if (error == RecoverError.InvalidSignatureS) {... */\n    tag_249:\n        /* \"@openzeppelin/contracts/utils/cryptography/ECDSA.sol\":7280:7812  function _throwError(RecoverError error, bytes32 errorArg) private pure {... */\n    tag_224:\n      pop\n      pop\n      jump\t// out\n        /* \"@openzeppelin/contracts/utils/cryptography/ECDSA.sol\":5203:6754  function tryRecover(... */\n    tag_222:\n        /* \"@openzeppelin/contracts/utils/cryptography/ECDSA.sol\":5329:5346  address recovered */\n      0x00\n        /* \"@openzeppelin/contracts/utils/cryptography/ECDSA.sol\":5348:5364  RecoverError err */\n      0x00\n        /* \"@openzeppelin/contracts/utils/cryptography/ECDSA.sol\":5366:5380  bytes32 errArg */\n      0x00\n        /* \"@openzeppelin/contracts/utils/cryptography/ECDSA.sol\":6283:6349  0x7FFFFFFFFFFFFFFFFFFFFFFFFFFFFFFF5D576E7357A4501DDFE92F46681B20A0 */\n      0x7fffffffffffffffffffffffffffffff5d576e7357a4501ddfe92f46681b20a0\n        /* \"@openzeppelin/contracts/utils/cryptography/ECDSA.sol\":6278:6279  s */\n      dup5\n        /* \"@openzeppelin/contracts/utils/cryptography/ECDSA.sol\":6270:6280  uint256(s) */\n      0x00\n      shr\n        /* \"@openzeppelin/contracts/utils/cryptography/ECDSA.sol\":6270:6349  uint256(s) > 0x7FFFFFFFFFFFFFFFFFFFFFFFFFFFFFFF5D576E7357A4501DDFE92F46681B20A0 */\n      gt\n        /* \"@openzeppelin/contracts/utils/cryptography/ECDSA.sol\":6266:6430  if (uint256(s) > 0x7FFFFFFFFFFFFFFFFFFFFFFFFFFFFFFF5D576E7357A4501DDFE92F46681B20A0) {... */\n      iszero\n      tag_253\n      jumpi\n        /* \"@openzeppelin/contracts/utils/cryptography/ECDSA.sol\":6381:6382  0 */\n      0x00\n        /* \"@openzeppelin/contracts/utils/cryptography/ECDSA.sol\":6385:6415  RecoverError.InvalidSignatureS */\n      0x03\n        /* \"@openzeppelin/contracts/utils/cryptography/ECDSA.sol\":6417:6418  s */\n      dup6\n        /* \"@openzeppelin/contracts/utils/cryptography/ECDSA.sol\":6365:6419  return (address(0), RecoverError.InvalidSignatureS, s) */\n      swap3\n      pop\n      swap3\n      pop\n      swap3\n      pop\n      jump(tag_252)\n        /* \"@openzeppelin/contracts/utils/cryptography/ECDSA.sol\":6266:6430  if (uint256(s) > 0x7FFFFFFFFFFFFFFFFFFFFFFFFFFFFFFF5D576E7357A4501DDFE92F46681B20A0) {... */\n    tag_253:\n        /* \"@openzeppelin/contracts/utils/cryptography/ECDSA.sol\":6524:6538  address signer */\n      0x00\n        /* \"@openzeppelin/contracts/utils/cryptography/ECDSA.sol\":6541:6565  ecrecover(hash, v, r, s) */\n      0x01\n        /* \"@openzeppelin/contracts/utils/cryptography/ECDSA.sol\":6551:6555  hash */\n      dup9\n        /* \"@openzeppelin/contracts/utils/cryptography/ECDSA.sol\":6557:6558  v */\n      dup9\n        /* \"@openzeppelin/contracts/utils/cryptography/ECDSA.sol\":6560:6561  r */\n      dup9\n        /* \"@openzeppelin/contracts/utils/cryptography/ECDSA.sol\":6563:6564  s */\n      dup9\n        /* \"@openzeppelin/contracts/utils/cryptography/ECDSA.sol\":6541:6565  ecrecover(hash, v, r, s) */\n      mload(0x40)\n      0x00\n      dup2\n      mstore\n      0x20\n      add\n      0x40\n      mstore\n      mload(0x40)\n      tag_254\n      swap5\n      swap4\n      swap3\n      swap2\n      swap1\n      tag_255\n      jump\t// in\n    tag_254:\n      0x20\n      mload(0x40)\n      0x20\n      dup2\n      sub\n      swap1\n      dup1\n      dup5\n      sub\n      swap1\n      dup6\n      gas\n      staticcall\n      iszero\n      dup1\n      iszero\n      tag_257\n      jumpi\n      returndatacopy(0x00, 0x00, returndatasize)\n      revert(0x00, returndatasize)\n    tag_257:\n      pop\n      pop\n      pop\n      mload(sub(mload(0x40), 0x20))\n        /* \"@openzeppelin/contracts/utils/cryptography/ECDSA.sol\":6524:6565  address signer = ecrecover(hash, v, r, s) */\n      swap1\n      pop\n        /* \"@openzeppelin/contracts/utils/cryptography/ECDSA.sol\":6597:6598  0 */\n      0x00\n        /* \"@openzeppelin/contracts/utils/cryptography/ECDSA.sol\":6579:6599  signer == address(0) */\n      0xffffffffffffffffffffffffffffffffffffffff\n      and\n        /* \"@openzeppelin/contracts/utils/cryptography/ECDSA.sol\":6579:6585  signer */\n      dup2\n        /* \"@openzeppelin/contracts/utils/cryptography/ECDSA.sol\":6579:6599  signer == address(0) */\n      0xffffffffffffffffffffffffffffffffffffffff\n      and\n      sub\n        /* \"@openzeppelin/contracts/utils/cryptography/ECDSA.sol\":6575:6688  if (signer == address(0)) {... */\n      tag_258\n      jumpi\n        /* \"@openzeppelin/contracts/utils/cryptography/ECDSA.sol\":6631:6632  0 */\n      0x00\n        /* \"@openzeppelin/contracts/utils/cryptography/ECDSA.sol\":6635:6664  RecoverError.InvalidSignature */\n      0x01\n        /* \"@openzeppelin/contracts/utils/cryptography/ECDSA.sol\":6674:6675  0 */\n      0x00\n        /* \"@openzeppelin/contracts/utils/cryptography/ECDSA.sol\":6666:6676  bytes32(0) */\n      0x00\n      shl\n        /* \"@openzeppelin/contracts/utils/cryptography/ECDSA.sol\":6615:6677  return (address(0), RecoverError.InvalidSignature, bytes32(0)) */\n      swap4\n      pop\n      swap4\n      pop\n      swap4\n      pop\n      pop\n      jump(tag_252)\n        /* \"@openzeppelin/contracts/utils/cryptography/ECDSA.sol\":6575:6688  if (signer == address(0)) {... */\n    tag_258:\n        /* \"@openzeppelin/contracts/utils/cryptography/ECDSA.sol\":6706:6712  signer */\n      dup1\n        /* \"@openzeppelin/contracts/utils/cryptography/ECDSA.sol\":6714:6734  RecoverError.NoError */\n      0x00\n        /* \"@openzeppelin/contracts/utils/cryptography/ECDSA.sol\":6744:6745  0 */\n      0x00\n        /* \"@openzeppelin/contracts/utils/cryptography/ECDSA.sol\":6736:6746  bytes32(0) */\n      0x00\n      shl\n        /* \"@openzeppelin/contracts/utils/cryptography/ECDSA.sol\":6698:6747  return (signer, RecoverError.NoError, bytes32(0)) */\n      swap4\n      pop\n      swap4\n      pop\n      swap4\n      pop\n      pop\n        /* \"@openzeppelin/contracts/utils/cryptography/ECDSA.sol\":5203:6754  function tryRecover(... */\n    tag_252:\n      swap5\n      pop\n      swap5\n      pop\n      swap5\n      swap2\n      pop\n      pop\n      jump\t// out\n        /* \"#utility.yul\":88:205   */\n    tag_260:\n        /* \"#utility.yul\":197:198   */\n      0x00\n        /* \"#utility.yul\":194:195   */\n      0x00\n        /* \"#utility.yul\":187:199   */\n      revert\n        /* \"#utility.yul\":211:328   */\n    tag_261:\n        /* \"#utility.yul\":320:321   */\n      0x00\n        /* \"#utility.yul\":317:318   */\n      0x00\n        /* \"#utility.yul\":310:322   */\n      revert\n        /* \"#utility.yul\":334:460   */\n    tag_262:\n        /* \"#utility.yul\":371:378   */\n      0x00\n        /* \"#utility.yul\":411:453   */\n      0xffffffffffffffffffffffffffffffffffffffff\n        /* \"#utility.yul\":404:409   */\n      dup3\n        /* \"#utility.yul\":400:454   */\n      and\n        /* \"#utility.yul\":389:454   */\n      swap1\n      pop\n        /* \"#utility.yul\":334:460   */\n      swap2\n      swap1\n      pop\n      jump\t// out\n        /* \"#utility.yul\":466:562   */\n    tag_263:\n        /* \"#utility.yul\":503:510   */\n      0x00\n        /* \"#utility.yul\":532:556   */\n      tag_320\n        /* \"#utility.yul\":550:555   */\n      dup3\n        /* \"#utility.yul\":532:556   */\n      tag_262\n      jump\t// in\n    tag_320:\n        /* \"#utility.yul\":521:556   */\n      swap1\n      pop\n        /* \"#utility.yul\":466:562   */\n      swap2\n      swap1\n      pop\n      jump\t// out\n        /* \"#utility.yul\":568:690   */\n    tag_264:\n        /* \"#utility.yul\":641:665   */\n      tag_322\n        /* \"#utility.yul\":659:664   */\n      dup2\n        /* \"#utility.yul\":641:665   */\n      tag_263\n      jump\t// in\n    tag_322:\n        /* \"#utility.yul\":634:639   */\n      dup2\n        /* \"#utility.yul\":631:666   */\n      eq\n        /* \"#utility.yul\":621:684   */\n      tag_323\n      jumpi\n        /* \"#utility.yul\":680:681   */\n      0x00\n        /* \"#utility.yul\":677:678   */\n      0x00\n        /* \"#utility.yul\":670:682   */\n      revert\n        /* \"#utility.yul\":621:684   */\n    tag_323:\n        /* \"#utility.yul\":568:690   */\n      pop\n      jump\t// out\n        /* \"#utility.yul\":696:835   */\n    tag_265:\n        /* \"#utility.yul\":742:747   */\n      0x00\n        /* \"#utility.yul\":780:786   */\n      dup2\n        /* \"#utility.yul\":767:787   */\n      calldataload\n        /* \"#utility.yul\":758:787   */\n      swap1\n      pop\n        /* \"#utility.yul\":796:829   */\n      tag_325\n        /* \"#utility.yul\":823:828   */\n      dup2\n        /* \"#utility.yul\":796:829   */\n      tag_264\n      jump\t// in\n    tag_325:\n        /* \"#utility.yul\":696:835   */\n      swap3\n      swap2\n      pop\n      pop\n      jump\t// out\n        /* \"#utility.yul\":841:918   */\n    tag_266:\n        /* \"#utility.yul\":878:885   */\n      0x00\n        /* \"#utility.yul\":907:912   */\n      dup2\n        /* \"#utility.yul\":896:912   */\n      swap1\n      pop\n        /* \"#utility.yul\":841:918   */\n      swap2\n      swap1\n      pop\n      jump\t// out\n        /* \"#utility.yul\":924:1046   */\n    tag_267:\n        /* \"#utility.yul\":997:1021   */\n      tag_328\n        /* \"#utility.yul\":1015:1020   */\n      dup2\n        /* \"#utility.yul\":997:1021   */\n      tag_266\n      jump\t// in\n    tag_328:\n        /* \"#utility.yul\":990:995   */\n      dup2\n        /* \"#utility.yul\":987:1022   */\n      eq\n        /* \"#utility.yul\":977:1040   */\n      tag_329\n      jumpi\n        /* \"#utility.yul\":1036:1037   */\n      0x00\n        /* \"#utility.yul\":1033:1034   */\n      0x00\n        /* \"#utility.yul\":1026:1038   */\n      revert\n        /* \"#utility.yul\":977:1040   */\n    tag_329:\n        /* \"#utility.yul\":924:1046   */\n      pop\n      jump\t// out\n        /* \"#utility.yul\":1052:1191   */\n    tag_268:\n        /* \"#utility.yul\":1098:1103   */\n      0x00\n        /* \"#utility.yul\":1136:1142   */\n      dup2\n        /* \"#utility.yul\":1123:1143   */\n      calldataload\n        /* \"#utility.yul\":1114:1143   */\n      swap1\n      pop\n        /* \"#utility.yul\":1152:1185   */\n      tag_331\n        /* \"#utility.yul\":1179:1184   */\n      dup2\n        /* \"#utility.yul\":1152:1185   */\n      tag_267\n      jump\t// in\n    tag_331:\n        /* \"#utility.yul\":1052:1191   */\n      swap3\n      swap2\n      pop\n      pop\n      jump\t// out\n        /* \"#utility.yul\":1197:1671   */\n    tag_28:\n        /* \"#utility.yul\":1265:1271   */\n      0x00\n        /* \"#utility.yul\":1273:1279   */\n      0x00\n        /* \"#utility.yul\":1322:1324   */\n      0x40\n        /* \"#utility.yul\":1310:1319   */\n      dup4\n        /* \"#utility.yul\":1301:1308   */\n      dup6\n        /* \"#utility.yul\":1297:1320   */\n      sub\n        /* \"#utility.yul\":1293:1325   */\n      slt\n        /* \"#utility.yul\":1290:1409   */\n      iszero\n      tag_333\n      jumpi\n        /* \"#utility.yul\":1328:1407   */\n      tag_334\n      tag_260\n      jump\t// in\n    tag_334:\n        /* \"#utility.yul\":1290:1409   */\n    tag_333:\n        /* \"#utility.yul\":1448:1449   */\n      0x00\n        /* \"#utility.yul\":1473:1526   */\n      tag_335\n        /* \"#utility.yul\":1518:1525   */\n      dup6\n        /* \"#utility.yul\":1509:1515   */\n      dup3\n        /* \"#utility.yul\":1498:1507   */\n      dup7\n        /* \"#utility.yul\":1494:1516   */\n      add\n        /* \"#utility.yul\":1473:1526   */\n      tag_265\n      jump\t// in\n    tag_335:\n        /* \"#utility.yul\":1463:1526   */\n      swap3\n      pop\n        /* \"#utility.yul\":1419:1536   */\n      pop\n        /* \"#utility.yul\":1575:1577   */\n      0x20\n        /* \"#utility.yul\":1601:1654   */\n      tag_336\n        /* \"#utility.yul\":1646:1653   */\n      dup6\n        /* \"#utility.yul\":1637:1643   */\n      dup3\n        /* \"#utility.yul\":1626:1635   */\n      dup7\n        /* \"#utility.yul\":1622:1644   */\n      add\n        /* \"#utility.yul\":1601:1654   */\n      tag_268\n      jump\t// in\n    tag_336:\n        /* \"#utility.yul\":1591:1654   */\n      swap2\n      pop\n        /* \"#utility.yul\":1546:1664   */\n      pop\n        /* \"#utility.yul\":1197:1671   */\n      swap3\n      pop\n      swap3\n      swap1\n      pop\n      jump\t// out\n        /* \"#utility.yul\":1677:1795   */\n    tag_269:\n        /* \"#utility.yul\":1764:1788   */\n      tag_338\n        /* \"#utility.yul\":1782:1787   */\n      dup2\n        /* \"#utility.yul\":1764:1788   */\n      tag_266\n      jump\t// in\n    tag_338:\n        /* \"#utility.yul\":1759:1762   */\n      dup3\n        /* \"#utility.yul\":1752:1789   */\n      mstore\n        /* \"#utility.yul\":1677:1795   */\n      pop\n      pop\n      jump\t// out\n        /* \"#utility.yul\":1801:2023   */\n    tag_31:\n        /* \"#utility.yul\":1894:1898   */\n      0x00\n        /* \"#utility.yul\":1932:1934   */\n      0x20\n        /* \"#utility.yul\":1921:1930   */\n      dup3\n        /* \"#utility.yul\":1917:1935   */\n      add\n        /* \"#utility.yul\":1909:1935   */\n      swap1\n      pop\n        /* \"#utility.yul\":1945:2016   */\n      tag_340\n        /* \"#utility.yul\":2013:2014   */\n      0x00\n        /* \"#utility.yul\":2002:2011   */\n      dup4\n        /* \"#utility.yul\":1998:2015   */\n      add\n        /* \"#utility.yul\":1989:1995   */\n      dup5\n        /* \"#utility.yul\":1945:2016   */\n      tag_269\n      jump\t// in\n    tag_340:\n        /* \"#utility.yul\":1801:2023   */\n      swap3\n      swap2\n      pop\n      pop\n      jump\t// out\n        /* \"#utility.yul\":2029:2358   */\n    tag_34:\n        /* \"#utility.yul\":2088:2094   */\n      0x00\n        /* \"#utility.yul\":2137:2139   */\n      0x20\n        /* \"#utility.yul\":2125:2134   */\n      dup3\n        /* \"#utility.yul\":2116:2123   */\n      dup5\n        /* \"#utility.yul\":2112:2135   */\n      sub\n        /* \"#utility.yul\":2108:2140   */\n      slt\n        /* \"#utility.yul\":2105:2224   */\n      iszero\n      tag_342\n      jumpi\n        /* \"#utility.yul\":2143:2222   */\n      tag_343\n      tag_260\n      jump\t// in\n    tag_343:\n        /* \"#utility.yul\":2105:2224   */\n    tag_342:\n        /* \"#utility.yul\":2263:2264   */\n      0x00\n        /* \"#utility.yul\":2288:2341   */\n      tag_344\n        /* \"#utility.yul\":2333:2340   */\n      dup5\n        /* \"#utility.yul\":2324:2330   */\n      dup3\n        /* \"#utility.yul\":2313:2322   */\n      dup6\n        /* \"#utility.yul\":2309:2331   */\n      add\n        /* \"#utility.yul\":2288:2341   */\n      tag_265\n      jump\t// in\n    tag_344:\n        /* \"#utility.yul\":2278:2341   */\n      swap2\n      pop\n        /* \"#utility.yul\":2234:2351   */\n      pop\n        /* \"#utility.yul\":2029:2358   */\n      swap3\n      swap2\n      pop\n      pop\n      jump\t// out\n        /* \"#utility.yul\":2364:2424   */\n    tag_270:\n        /* \"#utility.yul\":2392:2395   */\n      0x00\n        /* \"#utility.yul\":2413:2418   */\n      dup2\n        /* \"#utility.yul\":2406:2418   */\n      swap1\n      pop\n        /* \"#utility.yul\":2364:2424   */\n      swap2\n      swap1\n      pop\n      jump\t// out\n        /* \"#utility.yul\":2430:2572   */\n    tag_271:\n        /* \"#utility.yul\":2480:2489   */\n      0x00\n        /* \"#utility.yul\":2513:2566   */\n      tag_347\n        /* \"#utility.yul\":2531:2565   */\n      tag_348\n        /* \"#utility.yul\":2540:2564   */\n      tag_349\n        /* \"#utility.yul\":2558:2563   */\n      dup5\n        /* \"#utility.yul\":2540:2564   */\n      tag_262\n      jump\t// in\n    tag_349:\n        /* \"#utility.yul\":2531:2565   */\n      tag_270\n      jump\t// in\n    tag_348:\n        /* \"#utility.yul\":2513:2566   */\n      tag_262\n      jump\t// in\n    tag_347:\n        /* \"#utility.yul\":2500:2566   */\n      swap1\n      pop\n        /* \"#utility.yul\":2430:2572   */\n      swap2\n      swap1\n      pop\n      jump\t// out\n        /* \"#utility.yul\":2578:2704   */\n    tag_272:\n        /* \"#utility.yul\":2628:2637   */\n      0x00\n        /* \"#utility.yul\":2661:2698   */\n      tag_351\n        /* \"#utility.yul\":2692:2697   */\n      dup3\n        /* \"#utility.yul\":2661:2698   */\n      tag_271\n      jump\t// in\n    tag_351:\n        /* \"#utility.yul\":2648:2698   */\n      swap1\n      pop\n        /* \"#utility.yul\":2578:2704   */\n      swap2\n      swap1\n      pop\n      jump\t// out\n        /* \"#utility.yul\":2710:2851   */\n    tag_273:\n        /* \"#utility.yul\":2775:2784   */\n      0x00\n        /* \"#utility.yul\":2808:2845   */\n      tag_353\n        /* \"#utility.yul\":2839:2844   */\n      dup3\n        /* \"#utility.yul\":2808:2845   */\n      tag_272\n      jump\t// in\n    tag_353:\n        /* \"#utility.yul\":2795:2845   */\n      swap1\n      pop\n        /* \"#utility.yul\":2710:2851   */\n      swap2\n      swap1\n      pop\n      jump\t// out\n        /* \"#utility.yul\":2857:3018   */\n    tag_274:\n        /* \"#utility.yul\":2959:3011   */\n      tag_355\n        /* \"#utility.yul\":3005:3010   */\n      dup2\n        /* \"#utility.yul\":2959:3011   */\n      tag_273\n      jump\t// in\n    tag_355:\n        /* \"#utility.yul\":2954:2957   */\n      dup3\n        /* \"#utility.yul\":2947:3012   */\n      mstore\n        /* \"#utility.yul\":2857:3018   */\n      pop\n      pop\n      jump\t// out\n        /* \"#utility.yul\":3024:3276   */\n    tag_40:\n        /* \"#utility.yul\":3132:3136   */\n      0x00\n        /* \"#utility.yul\":3170:3172   */\n      0x20\n        /* \"#utility.yul\":3159:3168   */\n      dup3\n        /* \"#utility.yul\":3155:3173   */\n      add\n        /* \"#utility.yul\":3147:3173   */\n      swap1\n      pop\n        /* \"#utility.yul\":3183:3269   */\n      tag_357\n        /* \"#utility.yul\":3266:3267   */\n      0x00\n        /* \"#utility.yul\":3255:3264   */\n      dup4\n        /* \"#utility.yul\":3251:3268   */\n      add\n        /* \"#utility.yul\":3242:3248   */\n      dup5\n        /* \"#utility.yul\":3183:3269   */\n      tag_274\n      jump\t// in\n    tag_357:\n        /* \"#utility.yul\":3024:3276   */\n      swap3\n      swap2\n      pop\n      pop\n      jump\t// out\n        /* \"#utility.yul\":3282:3400   */\n    tag_275:\n        /* \"#utility.yul\":3369:3393   */\n      tag_359\n        /* \"#utility.yul\":3387:3392   */\n      dup2\n        /* \"#utility.yul\":3369:3393   */\n      tag_263\n      jump\t// in\n    tag_359:\n        /* \"#utility.yul\":3364:3367   */\n      dup3\n        /* \"#utility.yul\":3357:3394   */\n      mstore\n        /* \"#utility.yul\":3282:3400   */\n      pop\n      pop\n      jump\t// out\n        /* \"#utility.yul\":3406:3628   */\n    tag_44:\n        /* \"#utility.yul\":3499:3503   */\n      0x00\n        /* \"#utility.yul\":3537:3539   */\n      0x20\n        /* \"#utility.yul\":3526:3535   */\n      dup3\n        /* \"#utility.yul\":3522:3540   */\n      add\n        /* \"#utility.yul\":3514:3540   */\n      swap1\n      pop\n        /* \"#utility.yul\":3550:3621   */\n      tag_361\n        /* \"#utility.yul\":3618:3619   */\n      0x00\n        /* \"#utility.yul\":3607:3616   */\n      dup4\n        /* \"#utility.yul\":3603:3620   */\n      add\n        /* \"#utility.yul\":3594:3600   */\n      dup5\n        /* \"#utility.yul\":3550:3621   */\n      tag_275\n      jump\t// in\n    tag_361:\n        /* \"#utility.yul\":3406:3628   */\n      swap3\n      swap2\n      pop\n      pop\n      jump\t// out\n        /* \"#utility.yul\":3634:3776   */\n    tag_276:\n        /* \"#utility.yul\":3700:3709   */\n      0x00\n        /* \"#utility.yul\":3733:3770   */\n      tag_363\n        /* \"#utility.yul\":3764:3769   */\n      dup3\n        /* \"#utility.yul\":3733:3770   */\n      tag_272\n      jump\t// in\n    tag_363:\n        /* \"#utility.yul\":3720:3770   */\n      swap1\n      pop\n        /* \"#utility.yul\":3634:3776   */\n      swap2\n      swap1\n      pop\n      jump\t// out\n        /* \"#utility.yul\":3782:3945   */\n    tag_277:\n        /* \"#utility.yul\":3885:3938   */\n      tag_365\n        /* \"#utility.yul\":3932:3937   */\n      dup2\n        /* \"#utility.yul\":3885:3938   */\n      tag_276\n      jump\t// in\n    tag_365:\n        /* \"#utility.yul\":3880:3883   */\n      dup3\n        /* \"#utility.yul\":3873:3939   */\n      mstore\n        /* \"#utility.yul\":3782:3945   */\n      pop\n      pop\n      jump\t// out\n        /* \"#utility.yul\":3951:4205   */\n    tag_56:\n        /* \"#utility.yul\":4060:4064   */\n      0x00\n        /* \"#utility.yul\":4098:4100   */\n      0x20\n        /* \"#utility.yul\":4087:4096   */\n      dup3\n        /* \"#utility.yul\":4083:4101   */\n      add\n        /* \"#utility.yul\":4075:4101   */\n      swap1\n      pop\n        /* \"#utility.yul\":4111:4198   */\n      tag_367\n        /* \"#utility.yul\":4195:4196   */\n      0x00\n        /* \"#utility.yul\":4184:4193   */\n      dup4\n        /* \"#utility.yul\":4180:4197   */\n      add\n        /* \"#utility.yul\":4171:4177   */\n      dup5\n        /* \"#utility.yul\":4111:4198   */\n      tag_277\n      jump\t// in\n    tag_367:\n        /* \"#utility.yul\":3951:4205   */\n      swap3\n      swap2\n      pop\n      pop\n      jump\t// out\n        /* \"#utility.yul\":4211:4301   */\n    tag_278:\n        /* \"#utility.yul\":4245:4252   */\n      0x00\n        /* \"#utility.yul\":4288:4293   */\n      dup2\n        /* \"#utility.yul\":4281:4294   */\n      iszero\n        /* \"#utility.yul\":4274:4295   */\n      iszero\n        /* \"#utility.yul\":4263:4295   */\n      swap1\n      pop\n        /* \"#utility.yul\":4211:4301   */\n      swap2\n      swap1\n      pop\n      jump\t// out\n        /* \"#utility.yul\":4307:4416   */\n    tag_279:\n        /* \"#utility.yul\":4388:4409   */\n      tag_370\n        /* \"#utility.yul\":4403:4408   */\n      dup2\n        /* \"#utility.yul\":4388:4409   */\n      tag_278\n      jump\t// in\n    tag_370:\n        /* \"#utility.yul\":4383:4386   */\n      dup3\n        /* \"#utility.yul\":4376:4410   */\n      mstore\n        /* \"#utility.yul\":4307:4416   */\n      pop\n      pop\n      jump\t// out\n        /* \"#utility.yul\":4422:4632   */\n    tag_60:\n        /* \"#utility.yul\":4509:4513   */\n      0x00\n        /* \"#utility.yul\":4547:4549   */\n      0x20\n        /* \"#utility.yul\":4536:4545   */\n      dup3\n        /* \"#utility.yul\":4532:4550   */\n      add\n        /* \"#utility.yul\":4524:4550   */\n      swap1\n      pop\n        /* \"#utility.yul\":4560:4625   */\n      tag_372\n        /* \"#utility.yul\":4622:4623   */\n      0x00\n        /* \"#utility.yul\":4611:4620   */\n      dup4\n        /* \"#utility.yul\":4607:4624   */\n      add\n        /* \"#utility.yul\":4598:4604   */\n      dup5\n        /* \"#utility.yul\":4560:4625   */\n      tag_279\n      jump\t// in\n    tag_372:\n        /* \"#utility.yul\":4422:4632   */\n      swap3\n      swap2\n      pop\n      pop\n      jump\t// out\n        /* \"#utility.yul\":4638:4755   */\n    tag_280:\n        /* \"#utility.yul\":4747:4748   */\n      0x00\n        /* \"#utility.yul\":4744:4745   */\n      0x00\n        /* \"#utility.yul\":4737:4749   */\n      revert\n        /* \"#utility.yul\":4761:4878   */\n    tag_281:\n        /* \"#utility.yul\":4870:4871   */\n      0x00\n        /* \"#utility.yul\":4867:4868   */\n      0x00\n        /* \"#utility.yul\":4860:4872   */\n      revert\n        /* \"#utility.yul\":4884:5001   */\n    tag_282:\n        /* \"#utility.yul\":4993:4994   */\n      0x00\n        /* \"#utility.yul\":4990:4991   */\n      0x00\n        /* \"#utility.yul\":4983:4995   */\n      revert\n        /* \"#utility.yul\":5020:5572   */\n    tag_283:\n        /* \"#utility.yul\":5077:5085   */\n      0x00\n        /* \"#utility.yul\":5087:5093   */\n      0x00\n        /* \"#utility.yul\":5137:5140   */\n      dup4\n        /* \"#utility.yul\":5130:5134   */\n      0x1f\n        /* \"#utility.yul\":5122:5128   */\n      dup5\n        /* \"#utility.yul\":5118:5135   */\n      add\n        /* \"#utility.yul\":5114:5141   */\n      slt\n        /* \"#utility.yul\":5104:5226   */\n      tag_377\n      jumpi\n        /* \"#utility.yul\":5145:5224   */\n      tag_378\n      tag_280\n      jump\t// in\n    tag_378:\n        /* \"#utility.yul\":5104:5226   */\n    tag_377:\n        /* \"#utility.yul\":5258:5264   */\n      dup3\n        /* \"#utility.yul\":5245:5265   */\n      calldataload\n        /* \"#utility.yul\":5235:5265   */\n      swap1\n      pop\n        /* \"#utility.yul\":5288:5306   */\n      0xffffffffffffffff\n        /* \"#utility.yul\":5280:5286   */\n      dup2\n        /* \"#utility.yul\":5277:5307   */\n      gt\n        /* \"#utility.yul\":5274:5391   */\n      iszero\n      tag_379\n      jumpi\n        /* \"#utility.yul\":5310:5389   */\n      tag_380\n      tag_281\n      jump\t// in\n    tag_380:\n        /* \"#utility.yul\":5274:5391   */\n    tag_379:\n        /* \"#utility.yul\":5424:5428   */\n      0x20\n        /* \"#utility.yul\":5416:5422   */\n      dup4\n        /* \"#utility.yul\":5412:5429   */\n      add\n        /* \"#utility.yul\":5400:5429   */\n      swap2\n      pop\n        /* \"#utility.yul\":5478:5481   */\n      dup4\n        /* \"#utility.yul\":5470:5474   */\n      0x01\n        /* \"#utility.yul\":5462:5468   */\n      dup3\n        /* \"#utility.yul\":5458:5475   */\n      mul\n        /* \"#utility.yul\":5448:5456   */\n      dup4\n        /* \"#utility.yul\":5444:5476   */\n      add\n        /* \"#utility.yul\":5441:5482   */\n      gt\n        /* \"#utility.yul\":5438:5566   */\n      iszero\n      tag_381\n      jumpi\n        /* \"#utility.yul\":5485:5564   */\n      tag_382\n      tag_282\n      jump\t// in\n    tag_382:\n        /* \"#utility.yul\":5438:5566   */\n    tag_381:\n        /* \"#utility.yul\":5020:5572   */\n      swap3\n      pop\n      swap3\n      swap1\n      pop\n      jump\t// out\n        /* \"#utility.yul\":5578:6395   */\n    tag_68:\n        /* \"#utility.yul\":5666:5672   */\n      0x00\n        /* \"#utility.yul\":5674:5680   */\n      0x00\n        /* \"#utility.yul\":5682:5688   */\n      0x00\n        /* \"#utility.yul\":5690:5696   */\n      0x00\n        /* \"#utility.yul\":5739:5741   */\n      0x60\n        /* \"#utility.yul\":5727:5736   */\n      dup6\n        /* \"#utility.yul\":5718:5725   */\n      dup8\n        /* \"#utility.yul\":5714:5737   */\n      sub\n        /* \"#utility.yul\":5710:5742   */\n      slt\n        /* \"#utility.yul\":5707:5826   */\n      iszero\n      tag_384\n      jumpi\n        /* \"#utility.yul\":5745:5824   */\n      tag_385\n      tag_260\n      jump\t// in\n    tag_385:\n        /* \"#utility.yul\":5707:5826   */\n    tag_384:\n        /* \"#utility.yul\":5865:5866   */\n      0x00\n        /* \"#utility.yul\":5890:5943   */\n      tag_386\n        /* \"#utility.yul\":5935:5942   */\n      dup8\n        /* \"#utility.yul\":5926:5932   */\n      dup3\n        /* \"#utility.yul\":5915:5924   */\n      dup9\n        /* \"#utility.yul\":5911:5933   */\n      add\n        /* \"#utility.yul\":5890:5943   */\n      tag_268\n      jump\t// in\n    tag_386:\n        /* \"#utility.yul\":5880:5943   */\n      swap5\n      pop\n        /* \"#utility.yul\":5836:5953   */\n      pop\n        /* \"#utility.yul\":5992:5994   */\n      0x20\n        /* \"#utility.yul\":6018:6071   */\n      tag_387\n        /* \"#utility.yul\":6063:6070   */\n      dup8\n        /* \"#utility.yul\":6054:6060   */\n      dup3\n        /* \"#utility.yul\":6043:6052   */\n      dup9\n        /* \"#utility.yul\":6039:6061   */\n      add\n        /* \"#utility.yul\":6018:6071   */\n      tag_268\n      jump\t// in\n    tag_387:\n        /* \"#utility.yul\":6008:6071   */\n      swap4\n      pop\n        /* \"#utility.yul\":5963:6081   */\n      pop\n        /* \"#utility.yul\":6148:6150   */\n      0x40\n        /* \"#utility.yul\":6137:6146   */\n      dup6\n        /* \"#utility.yul\":6133:6151   */\n      add\n        /* \"#utility.yul\":6120:6152   */\n      calldataload\n        /* \"#utility.yul\":6179:6197   */\n      0xffffffffffffffff\n        /* \"#utility.yul\":6171:6177   */\n      dup2\n        /* \"#utility.yul\":6168:6198   */\n      gt\n        /* \"#utility.yul\":6165:6282   */\n      iszero\n      tag_388\n      jumpi\n        /* \"#utility.yul\":6201:6280   */\n      tag_389\n      tag_261\n      jump\t// in\n    tag_389:\n        /* \"#utility.yul\":6165:6282   */\n    tag_388:\n        /* \"#utility.yul\":6314:6378   */\n      tag_390\n        /* \"#utility.yul\":6370:6377   */\n      dup8\n        /* \"#utility.yul\":6361:6367   */\n      dup3\n        /* \"#utility.yul\":6350:6359   */\n      dup9\n        /* \"#utility.yul\":6346:6368   */\n      add\n        /* \"#utility.yul\":6314:6378   */\n      tag_283\n      jump\t// in\n    tag_390:\n        /* \"#utility.yul\":6296:6378   */\n      swap3\n      pop\n      swap3\n      pop\n        /* \"#utility.yul\":6091:6388   */\n      pop\n        /* \"#utility.yul\":5578:6395   */\n      swap3\n      swap6\n      swap2\n      swap5\n      pop\n      swap3\n      pop\n      jump\t// out\n        /* \"#utility.yul\":6401:7020   */\n    tag_87:\n        /* \"#utility.yul\":6478:6484   */\n      0x00\n        /* \"#utility.yul\":6486:6492   */\n      0x00\n        /* \"#utility.yul\":6494:6500   */\n      0x00\n        /* \"#utility.yul\":6543:6545   */\n      0x60\n        /* \"#utility.yul\":6531:6540   */\n      dup5\n        /* \"#utility.yul\":6522:6529   */\n      dup7\n        /* \"#utility.yul\":6518:6541   */\n      sub\n        /* \"#utility.yul\":6514:6546   */\n      slt\n        /* \"#utility.yul\":6511:6630   */\n      iszero\n      tag_392\n      jumpi\n        /* \"#utility.yul\":6549:6628   */\n      tag_393\n      tag_260\n      jump\t// in\n    tag_393:\n        /* \"#utility.yul\":6511:6630   */\n    tag_392:\n        /* \"#utility.yul\":6669:6670   */\n      0x00\n        /* \"#utility.yul\":6694:6747   */\n      tag_394\n        /* \"#utility.yul\":6739:6746   */\n      dup7\n        /* \"#utility.yul\":6730:6736   */\n      dup3\n        /* \"#utility.yul\":6719:6728   */\n      dup8\n        /* \"#utility.yul\":6715:6737   */\n      add\n        /* \"#utility.yul\":6694:6747   */\n      tag_265\n      jump\t// in\n    tag_394:\n        /* \"#utility.yul\":6684:6747   */\n      swap4\n      pop\n        /* \"#utility.yul\":6640:6757   */\n      pop\n        /* \"#utility.yul\":6796:6798   */\n      0x20\n        /* \"#utility.yul\":6822:6875   */\n      tag_395\n        /* \"#utility.yul\":6867:6874   */\n      dup7\n        /* \"#utility.yul\":6858:6864   */\n      dup3\n        /* \"#utility.yul\":6847:6856   */\n      dup8\n        /* \"#utility.yul\":6843:6865   */\n      add\n        /* \"#utility.yul\":6822:6875   */\n      tag_268\n      jump\t// in\n    tag_395:\n        /* \"#utility.yul\":6812:6875   */\n      swap3\n      pop\n        /* \"#utility.yul\":6767:6885   */\n      pop\n        /* \"#utility.yul\":6924:6926   */\n      0x40\n        /* \"#utility.yul\":6950:7003   */\n      tag_396\n        /* \"#utility.yul\":6995:7002   */\n      dup7\n        /* \"#utility.yul\":6986:6992   */\n      dup3\n        /* \"#utility.yul\":6975:6984   */\n      dup8\n        /* \"#utility.yul\":6971:6993   */\n      add\n        /* \"#utility.yul\":6950:7003   */\n      tag_268\n      jump\t// in\n    tag_396:\n        /* \"#utility.yul\":6940:7003   */\n      swap2\n      pop\n        /* \"#utility.yul\":6895:7013   */\n      pop\n        /* \"#utility.yul\":6401:7020   */\n      swap3\n      pop\n      swap3\n      pop\n      swap3\n      jump\t// out\n        /* \"#utility.yul\":7026:7195   */\n    tag_284:\n        /* \"#utility.yul\":7110:7121   */\n      0x00\n        /* \"#utility.yul\":7144:7150   */\n      dup3\n        /* \"#utility.yul\":7139:7142   */\n      dup3\n        /* \"#utility.yul\":7132:7151   */\n      mstore\n        /* \"#utility.yul\":7184:7188   */\n      0x20\n        /* \"#utility.yul\":7179:7182   */\n      dup3\n        /* \"#utility.yul\":7175:7189   */\n      add\n        /* \"#utility.yul\":7160:7189   */\n      swap1\n      pop\n        /* \"#utility.yul\":7026:7195   */\n      swap3\n      swap2\n      pop\n      pop\n      jump\t// out\n        /* \"#utility.yul\":7201:7360   */\n    tag_285:\n        /* \"#utility.yul\":7341:7352   */\n      0x7a65726f20616464720000000000000000000000000000000000000000000000\n        /* \"#utility.yul\":7337:7338   */\n      0x00\n        /* \"#utility.yul\":7329:7335   */\n      dup3\n        /* \"#utility.yul\":7325:7339   */\n      add\n        /* \"#utility.yul\":7318:7353   */\n      mstore\n        /* \"#utility.yul\":7201:7360   */\n      pop\n      jump\t// out\n        /* \"#utility.yul\":7366:7731   */\n    tag_286:\n        /* \"#utility.yul\":7508:7511   */\n      0x00\n        /* \"#utility.yul\":7529:7595   */\n      tag_400\n        /* \"#utility.yul\":7593:7594   */\n      0x09\n        /* \"#utility.yul\":7588:7591   */\n      dup4\n        /* \"#utility.yul\":7529:7595   */\n      tag_284\n      jump\t// in\n    tag_400:\n        /* \"#utility.yul\":7522:7595   */\n      swap2\n      pop\n        /* \"#utility.yul\":7604:7697   */\n      tag_401\n        /* \"#utility.yul\":7693:7696   */\n      dup3\n        /* \"#utility.yul\":7604:7697   */\n      tag_285\n      jump\t// in\n    tag_401:\n        /* \"#utility.yul\":7722:7724   */\n      0x20\n        /* \"#utility.yul\":7717:7720   */\n      dup3\n        /* \"#utility.yul\":7713:7725   */\n      add\n        /* \"#utility.yul\":7706:7725   */\n      swap1\n      pop\n        /* \"#utility.yul\":7366:7731   */\n      swap2\n      swap1\n      pop\n      jump\t// out\n        /* \"#utility.yul\":7737:8156   */\n    tag_106:\n        /* \"#utility.yul\":7903:7907   */\n      0x00\n        /* \"#utility.yul\":7941:7943   */\n      0x20\n        /* \"#utility.yul\":7930:7939   */\n      dup3\n        /* \"#utility.yul\":7926:7944   */\n      add\n        /* \"#utility.yul\":7918:7944   */\n      swap1\n      pop\n        /* \"#utility.yul\":7990:7999   */\n      dup2\n        /* \"#utility.yul\":7984:7988   */\n      dup2\n        /* \"#utility.yul\":7980:8000   */\n      sub\n        /* \"#utility.yul\":7976:7977   */\n      0x00\n        /* \"#utility.yul\":7965:7974   */\n      dup4\n        /* \"#utility.yul\":7961:7978   */\n      add\n        /* \"#utility.yul\":7954:8001   */\n      mstore\n        /* \"#utility.yul\":8018:8149   */\n      tag_403\n        /* \"#utility.yul\":8144:8148   */\n      dup2\n        /* \"#utility.yul\":8018:8149   */\n      tag_286\n      jump\t// in\n    tag_403:\n        /* \"#utility.yul\":8010:8149   */\n      swap1\n      pop\n        /* \"#utility.yul\":7737:8156   */\n      swap2\n      swap1\n      pop\n      jump\t// out\n        /* \"#utility.yul\":8162:8321   */\n    tag_287:\n        /* \"#utility.yul\":8302:8313   */\n      0x7a65726f20757365720000000000000000000000000000000000000000000000\n        /* \"#utility.yul\":8298:8299   */\n      0x00\n        /* \"#utility.yul\":8290:8296   */\n      dup3\n        /* \"#utility.yul\":8286:8300   */\n      add\n        /* \"#utility.yul\":8279:8314   */\n      mstore\n        /* \"#utility.yul\":8162:8321   */\n      pop\n      jump\t// out\n        /* \"#utility.yul\":8327:8692   */\n    tag_288:\n        /* \"#utility.yul\":8469:8472   */\n      0x00\n        /* \"#utility.yul\":8490:8556   */\n      tag_406\n        /* \"#utility.yul\":8554:8555   */\n      0x09\n        /* \"#utility.yul\":8549:8552   */\n      dup4\n        /* \"#utility.yul\":8490:8556   */\n      tag_284\n      jump\t// in\n    tag_406:\n        /* \"#utility.yul\":8483:8556   */\n      swap2\n      pop\n        /* \"#utility.yul\":8565:8658   */\n      tag_407\n        /* \"#utility.yul\":8654:8657   */\n      dup3\n        /* \"#utility.yul\":8565:8658   */\n      tag_287\n      jump\t// in\n    tag_407:\n        /* \"#utility.yul\":8683:8685   */\n      0x20\n        /* \"#utility.yul\":8678:8681   */\n      dup3\n        /* \"#utility.yul\":8674:8686   */\n      add\n        /* \"#utility.yul\":8667:8686   */\n      swap1\n      pop\n        /* \"#utility.yul\":8327:8692   */\n      swap2\n      swap1\n      pop\n      jump\t// out\n        /* \"#utility.yul\":8698:9117   */\n    tag_113:\n        /* \"#utility.yul\":8864:8868   */\n      0x00\n        /* \"#utility.yul\":8902:8904   */\n      0x20\n        /* \"#utility.yul\":8891:8900   */\n      dup3\n        /* \"#utility.yul\":8887:8905   */\n      add\n        /* \"#utility.yul\":8879:8905   */\n      swap1\n      pop\n        /* \"#utility.yul\":8951:8960   */\n      dup2\n        /* \"#utility.yul\":8945:8949   */\n      dup2\n        /* \"#utility.yul\":8941:8961   */\n      sub\n        /* \"#utility.yul\":8937:8938   */\n      0x00\n        /* \"#utility.yul\":8926:8935   */\n      dup4\n        /* \"#utility.yul\":8922:8939   */\n      add\n        /* \"#utility.yul\":8915:8962   */\n      mstore\n        /* \"#utility.yul\":8979:9110   */\n      tag_409\n        /* \"#utility.yul\":9105:9109   */\n      dup2\n        /* \"#utility.yul\":8979:9110   */\n      tag_288\n      jump\t// in\n    tag_409:\n        /* \"#utility.yul\":8971:9110   */\n      swap1\n      pop\n        /* \"#utility.yul\":8698:9117   */\n      swap2\n      swap1\n      pop\n      jump\t// out\n        /* \"#utility.yul\":9123:9288   */\n    tag_289:\n        /* \"#utility.yul\":9263:9280   */\n      0x616c726561647920636c61696d65640000000000000000000000000000000000\n        /* \"#utility.yul\":9259:9260   */\n      0x00\n        /* \"#utility.yul\":9251:9257   */\n      dup3\n        /* \"#utility.yul\":9247:9261   */\n      add\n        /* \"#utility.yul\":9240:9281   */\n      mstore\n        /* \"#utility.yul\":9123:9288   */\n      pop\n      jump\t// out\n        /* \"#utility.yul\":9294:9660   */\n    tag_290:\n        /* \"#utility.yul\":9436:9439   */\n      0x00\n        /* \"#utility.yul\":9457:9524   */\n      tag_412\n        /* \"#utility.yul\":9521:9523   */\n      0x0f\n        /* \"#utility.yul\":9516:9519   */\n      dup4\n        /* \"#utility.yul\":9457:9524   */\n      tag_284\n      jump\t// in\n    tag_412:\n        /* \"#utility.yul\":9450:9524   */\n      swap2\n      pop\n        /* \"#utility.yul\":9533:9626   */\n      tag_413\n        /* \"#utility.yul\":9622:9625   */\n      dup3\n        /* \"#utility.yul\":9533:9626   */\n      tag_289\n      jump\t// in\n    tag_413:\n        /* \"#utility.yul\":9651:9653   */\n      0x20\n        /* \"#utility.yul\":9646:9649   */\n      dup3\n        /* \"#utility.yul\":9642:9654   */\n      add\n        /* \"#utility.yul\":9635:9654   */\n      swap1\n      pop\n        /* \"#utility.yul\":9294:9660   */\n      swap2\n      swap1\n      pop\n      jump\t// out\n        /* \"#utility.yul\":9666:10085   */\n    tag_129:\n        /* \"#utility.yul\":9832:9836   */\n      0x00\n        /* \"#utility.yul\":9870:9872   */\n      0x20\n        /* \"#utility.yul\":9859:9868   */\n      dup3\n        /* \"#utility.yul\":9855:9873   */\n      add\n        /* \"#utility.yul\":9847:9873   */\n      swap1\n      pop\n        /* \"#utility.yul\":9919:9928   */\n      dup2\n        /* \"#utility.yul\":9913:9917   */\n      dup2\n        /* \"#utility.yul\":9909:9929   */\n      sub\n        /* \"#utility.yul\":9905:9906   */\n      0x00\n        /* \"#utility.yul\":9894:9903   */\n      dup4\n        /* \"#utility.yul\":9890:9907   */\n      add\n        /* \"#utility.yul\":9883:9930   */\n      mstore\n        /* \"#utility.yul\":9947:10078   */\n      tag_415\n        /* \"#utility.yul\":10073:10077   */\n      dup2\n        /* \"#utility.yul\":9947:10078   */\n      tag_290\n      jump\t// in\n    tag_415:\n        /* \"#utility.yul\":9939:10078   */\n      swap1\n      pop\n        /* \"#utility.yul\":9666:10085   */\n      swap2\n      swap1\n      pop\n      jump\t// out\n        /* \"#utility.yul\":10091:10185   */\n    tag_291:\n        /* \"#utility.yul\":10124:10132   */\n      0x00\n        /* \"#utility.yul\":10172:10177   */\n      dup2\n        /* \"#utility.yul\":10168:10170   */\n      0x60\n        /* \"#utility.yul\":10164:10178   */\n      shl\n        /* \"#utility.yul\":10143:10178   */\n      swap1\n      pop\n        /* \"#utility.yul\":10091:10185   */\n      swap2\n      swap1\n      pop\n      jump\t// out\n        /* \"#utility.yul\":10191:10285   */\n    tag_292:\n        /* \"#utility.yul\":10230:10237   */\n      0x00\n        /* \"#utility.yul\":10259:10279   */\n      tag_418\n        /* \"#utility.yul\":10273:10278   */\n      dup3\n        /* \"#utility.yul\":10259:10279   */\n      tag_291\n      jump\t// in\n    tag_418:\n        /* \"#utility.yul\":10248:10279   */\n      swap1\n      pop\n        /* \"#utility.yul\":10191:10285   */\n      swap2\n      swap1\n      pop\n      jump\t// out\n        /* \"#utility.yul\":10291:10391   */\n    tag_293:\n        /* \"#utility.yul\":10330:10337   */\n      0x00\n        /* \"#utility.yul\":10359:10385   */\n      tag_420\n        /* \"#utility.yul\":10379:10384   */\n      dup3\n        /* \"#utility.yul\":10359:10385   */\n      tag_292\n      jump\t// in\n    tag_420:\n        /* \"#utility.yul\":10348:10385   */\n      swap1\n      pop\n        /* \"#utility.yul\":10291:10391   */\n      swap2\n      swap1\n      pop\n      jump\t// out\n        /* \"#utility.yul\":10397:10554   */\n    tag_294:\n        /* \"#utility.yul\":10502:10547   */\n      tag_422\n        /* \"#utility.yul\":10522:10546   */\n      tag_423\n        /* \"#utility.yul\":10540:10545   */\n      dup3\n        /* \"#utility.yul\":10522:10546   */\n      tag_263\n      jump\t// in\n    tag_423:\n        /* \"#utility.yul\":10502:10547   */\n      tag_293\n      jump\t// in\n    tag_422:\n        /* \"#utility.yul\":10497:10500   */\n      dup3\n        /* \"#utility.yul\":10490:10548   */\n      mstore\n        /* \"#utility.yul\":10397:10554   */\n      pop\n      pop\n      jump\t// out\n        /* \"#utility.yul\":10560:10639   */\n    tag_295:\n        /* \"#utility.yul\":10599:10606   */\n      0x00\n        /* \"#utility.yul\":10628:10633   */\n      dup2\n        /* \"#utility.yul\":10617:10633   */\n      swap1\n      pop\n        /* \"#utility.yul\":10560:10639   */\n      swap2\n      swap1\n      pop\n      jump\t// out\n        /* \"#utility.yul\":10645:10802   */\n    tag_296:\n        /* \"#utility.yul\":10750:10795   */\n      tag_426\n        /* \"#utility.yul\":10770:10794   */\n      tag_427\n        /* \"#utility.yul\":10788:10793   */\n      dup3\n        /* \"#utility.yul\":10770:10794   */\n      tag_266\n      jump\t// in\n    tag_427:\n        /* \"#utility.yul\":10750:10795   */\n      tag_295\n      jump\t// in\n    tag_426:\n        /* \"#utility.yul\":10745:10748   */\n      dup3\n        /* \"#utility.yul\":10738:10796   */\n      mstore\n        /* \"#utility.yul\":10645:10802   */\n      pop\n      pop\n      jump\t// out\n        /* \"#utility.yul\":10808:11346   */\n    tag_131:\n        /* \"#utility.yul\":10976:10979   */\n      0x00\n        /* \"#utility.yul\":10991:11066   */\n      tag_429\n        /* \"#utility.yul\":11062:11065   */\n      dup3\n        /* \"#utility.yul\":11053:11059   */\n      dup7\n        /* \"#utility.yul\":10991:11066   */\n      tag_294\n      jump\t// in\n    tag_429:\n        /* \"#utility.yul\":11091:11093   */\n      0x14\n        /* \"#utility.yul\":11086:11089   */\n      dup3\n        /* \"#utility.yul\":11082:11094   */\n      add\n        /* \"#utility.yul\":11075:11094   */\n      swap2\n      pop\n        /* \"#utility.yul\":11104:11179   */\n      tag_430\n        /* \"#utility.yul\":11175:11178   */\n      dup3\n        /* \"#utility.yul\":11166:11172   */\n      dup6\n        /* \"#utility.yul\":11104:11179   */\n      tag_296\n      jump\t// in\n    tag_430:\n        /* \"#utility.yul\":11204:11206   */\n      0x20\n        /* \"#utility.yul\":11199:11202   */\n      dup3\n        /* \"#utility.yul\":11195:11207   */\n      add\n        /* \"#utility.yul\":11188:11207   */\n      swap2\n      pop\n        /* \"#utility.yul\":11217:11292   */\n      tag_431\n        /* \"#utility.yul\":11288:11291   */\n      dup3\n        /* \"#utility.yul\":11279:11285   */\n      dup5\n        /* \"#utility.yul\":11217:11292   */\n      tag_296\n      jump\t// in\n    tag_431:\n        /* \"#utility.yul\":11317:11319   */\n      0x20\n        /* \"#utility.yul\":11312:11315   */\n      dup3\n        /* \"#utility.yul\":11308:11320   */\n      add\n        /* \"#utility.yul\":11301:11320   */\n      swap2\n      pop\n        /* \"#utility.yul\":11337:11340   */\n      dup2\n        /* \"#utility.yul\":11330:11340   */\n      swap1\n      pop\n        /* \"#utility.yul\":10808:11346   */\n      swap5\n      swap4\n      pop\n      pop\n      pop\n      pop\n      jump\t// out\n        /* \"#utility.yul\":11352:11519   */\n    tag_297:\n        /* \"#utility.yul\":11492:11511   */\n      0x696e76616c6964207369676e6174757265000000000000000000000000000000\n        /* \"#utility.yul\":11488:11489   */\n      0x00\n        /* \"#utility.yul\":11480:11486   */\n      dup3\n        /* \"#utility.yul\":11476:11490   */\n      add\n        /* \"#utility.yul\":11469:11512   */\n      mstore\n        /* \"#utility.yul\":11352:11519   */\n      pop\n      jump\t// out\n        /* \"#utility.yul\":11525:11891   */\n    tag_298:\n        /* \"#utility.yul\":11667:11670   */\n      0x00\n        /* \"#utility.yul\":11688:11755   */\n      tag_434\n        /* \"#utility.yul\":11752:11754   */\n      0x11\n        /* \"#utility.yul\":11747:11750   */\n      dup4\n        /* \"#utility.yul\":11688:11755   */\n      tag_284\n      jump\t// in\n    tag_434:\n        /* \"#utility.yul\":11681:11755   */\n      swap2\n      pop\n        /* \"#utility.yul\":11764:11857   */\n      tag_435\n        /* \"#utility.yul\":11853:11856   */\n      dup3\n        /* \"#utility.yul\":11764:11857   */\n      tag_297\n      jump\t// in\n    tag_435:\n        /* \"#utility.yul\":11882:11884   */\n      0x20\n        /* \"#utility.yul\":11877:11880   */\n      dup3\n        /* \"#utility.yul\":11873:11885   */\n      add\n        /* \"#utility.yul\":11866:11885   */\n      swap1\n      pop\n        /* \"#utility.yul\":11525:11891   */\n      swap2\n      swap1\n      pop\n      jump\t// out\n        /* \"#utility.yul\":11897:12316   */\n    tag_138:\n        /* \"#utility.yul\":12063:12067   */\n      0x00\n        /* \"#utility.yul\":12101:12103   */\n      0x20\n        /* \"#utility.yul\":12090:12099   */\n      dup3\n        /* \"#utility.yul\":12086:12104   */\n      add\n        /* \"#utility.yul\":12078:12104   */\n      swap1\n      pop\n        /* \"#utility.yul\":12150:12159   */\n      dup2\n        /* \"#utility.yul\":12144:12148   */\n      dup2\n        /* \"#utility.yul\":12140:12160   */\n      sub\n        /* \"#utility.yul\":12136:12137   */\n      0x00\n        /* \"#utility.yul\":12125:12134   */\n      dup4\n        /* \"#utility.yul\":12121:12138   */\n      add\n        /* \"#utility.yul\":12114:12161   */\n      mstore\n        /* \"#utility.yul\":12178:12309   */\n      tag_437\n        /* \"#utility.yul\":12304:12308   */\n      dup2\n        /* \"#utility.yul\":12178:12309   */\n      tag_298\n      jump\t// in\n    tag_437:\n        /* \"#utility.yul\":12170:12309   */\n      swap1\n      pop\n        /* \"#utility.yul\":11897:12316   */\n      swap2\n      swap1\n      pop\n      jump\t// out\n        /* \"#utility.yul\":12322:12654   */\n    tag_164:\n        /* \"#utility.yul\":12443:12447   */\n      0x00\n        /* \"#utility.yul\":12481:12483   */\n      0x40\n        /* \"#utility.yul\":12470:12479   */\n      dup3\n        /* \"#utility.yul\":12466:12484   */\n      add\n        /* \"#utility.yul\":12458:12484   */\n      swap1\n      pop\n        /* \"#utility.yul\":12494:12565   */\n      tag_439\n        /* \"#utility.yul\":12562:12563   */\n      0x00\n        /* \"#utility.yul\":12551:12560   */\n      dup4\n        /* \"#utility.yul\":12547:12564   */\n      add\n        /* \"#utility.yul\":12538:12544   */\n      dup6\n        /* \"#utility.yul\":12494:12565   */\n      tag_269\n      jump\t// in\n    tag_439:\n        /* \"#utility.yul\":12575:12647   */\n      tag_440\n        /* \"#utility.yul\":12643:12645   */\n      0x20\n        /* \"#utility.yul\":12632:12641   */\n      dup4\n        /* \"#utility.yul\":12628:12646   */\n      add\n        /* \"#utility.yul\":12619:12625   */\n      dup5\n        /* \"#utility.yul\":12575:12647   */\n      tag_269\n      jump\t// in\n    tag_440:\n        /* \"#utility.yul\":12322:12654   */\n      swap4\n      swap3\n      pop\n      pop\n      pop\n      jump\t// out\n        /* \"#utility.yul\":12660:12826   */\n    tag_299:\n        /* \"#utility.yul\":12800:12818   */\n      0x5061757361626c653a2070617573656400000000000000000000000000000000\n        /* \"#utility.yul\":12796:12797   */\n      0x00\n        /* \"#utility.yul\":12788:12794   */\n      dup3\n        /* \"#utility.yul\":12784:12798   */\n      add\n        /* \"#utility.yul\":12777:12819   */\n      mstore\n        /* \"#utility.yul\":12660:12826   */\n      pop\n      jump\t// out\n        /* \"#utility.yul\":12832:13198   */\n    tag_300:\n        /* \"#utility.yul\":12974:12977   */\n      0x00\n        /* \"#utility.yul\":12995:13062   */\n      tag_443\n        /* \"#utility.yul\":13059:13061   */\n      0x10\n        /* \"#utility.yul\":13054:13057   */\n      dup4\n        /* \"#utility.yul\":12995:13062   */\n      tag_284\n      jump\t// in\n    tag_443:\n        /* \"#utility.yul\":12988:13062   */\n      swap2\n      pop\n        /* \"#utility.yul\":13071:13164   */\n      tag_444\n        /* \"#utility.yul\":13160:13163   */\n      dup3\n        /* \"#utility.yul\":13071:13164   */\n      tag_299\n      jump\t// in\n    tag_444:\n        /* \"#utility.yul\":13189:13191   */\n      0x20\n        /* \"#utility.yul\":13184:13187   */\n      dup3\n        /* \"#utility.yul\":13180:13192   */\n      add\n        /* \"#utility.yul\":13173:13192   */\n      swap1\n      pop\n        /* \"#utility.yul\":12832:13198   */\n      swap2\n      swap1\n      pop\n      jump\t// out\n        /* \"#utility.yul\":13204:13623   */\n    tag_194:\n        /* \"#utility.yul\":13370:13374   */\n      0x00\n        /* \"#utility.yul\":13408:13410   */\n      0x20\n        /* \"#utility.yul\":13397:13406   */\n      dup3\n        /* \"#utility.yul\":13393:13411   */\n      add\n        /* \"#utility.yul\":13385:13411   */\n      swap1\n      pop\n        /* \"#utility.yul\":13457:13466   */\n      dup2\n        /* \"#utility.yul\":13451:13455   */\n      dup2\n        /* \"#utility.yul\":13447:13467   */\n      sub\n        /* \"#utility.yul\":13443:13444   */\n      0x00\n        /* \"#utility.yul\":13432:13441   */\n      dup4\n        /* \"#utility.yul\":13428:13445   */\n      add\n        /* \"#utility.yul\":13421:13468   */\n      mstore\n        /* \"#utility.yul\":13485:13616   */\n      tag_446\n        /* \"#utility.yul\":13611:13615   */\n      dup2\n        /* \"#utility.yul\":13485:13616   */\n      tag_300\n      jump\t// in\n    tag_446:\n        /* \"#utility.yul\":13477:13616   */\n      swap1\n      pop\n        /* \"#utility.yul\":13204:13623   */\n      swap2\n      swap1\n      pop\n      jump\t// out\n        /* \"#utility.yul\":13629:13810   */\n    tag_301:\n        /* \"#utility.yul\":13769:13802   */\n      0x5265656e7472616e637947756172643a207265656e7472616e742063616c6c00\n        /* \"#utility.yul\":13765:13766   */\n      0x00\n        /* \"#utility.yul\":13757:13763   */\n      dup3\n        /* \"#utility.yul\":13753:13767   */\n      add\n        /* \"#utility.yul\":13746:13803   */\n      mstore\n        /* \"#utility.yul\":13629:13810   */\n      pop\n      jump\t// out\n        /* \"#utility.yul\":13816:14182   */\n    tag_302:\n        /* \"#utility.yul\":13958:13961   */\n      0x00\n        /* \"#utility.yul\":13979:14046   */\n      tag_449\n        /* \"#utility.yul\":14043:14045   */\n      0x1f\n        /* \"#utility.yul\":14038:14041   */\n      dup4\n        /* \"#utility.yul\":13979:14046   */\n      tag_284\n      jump\t// in\n    tag_449:\n        /* \"#utility.yul\":13972:14046   */\n      swap2\n      pop\n        /* \"#utility.yul\":14055:14148   */\n      tag_450\n        /* \"#utility.yul\":14144:14147   */\n      dup3\n        /* \"#utility.yul\":14055:14148   */\n      tag_301\n      jump\t// in\n    tag_450:\n        /* \"#utility.yul\":14173:14175   */\n      0x20\n        /* \"#utility.yul\":14168:14171   */\n      dup3\n        /* \"#utility.yul\":14164:14176   */\n      add\n        /* \"#utility.yul\":14157:14176   */\n      swap1\n      pop\n        /* \"#utility.yul\":13816:14182   */\n      swap2\n      swap1\n      pop\n      jump\t// out\n        /* \"#utility.yul\":14188:14607   */\n    tag_198:\n        /* \"#utility.yul\":14354:14358   */\n      0x00\n        /* \"#utility.yul\":14392:14394   */\n      0x20\n        /* \"#utility.yul\":14381:14390   */\n      dup3\n        /* \"#utility.yul\":14377:14395   */\n      add\n        /* \"#utility.yul\":14369:14395   */\n      swap1\n      pop\n        /* \"#utility.yul\":14441:14450   */\n      dup2\n        /* \"#utility.yul\":14435:14439   */\n      dup2\n        /* \"#utility.yul\":14431:14451   */\n      sub\n        /* \"#utility.yul\":14427:14428   */\n      0x00\n        /* \"#utility.yul\":14416:14425   */\n      dup4\n        /* \"#utility.yul\":14412:14429   */\n      add\n        /* \"#utility.yul\":14405:14452   */\n      mstore\n        /* \"#utility.yul\":14469:14600   */\n      tag_452\n        /* \"#utility.yul\":14595:14599   */\n      dup2\n        /* \"#utility.yul\":14469:14600   */\n      tag_302\n      jump\t// in\n    tag_452:\n        /* \"#utility.yul\":14461:14600   */\n      swap1\n      pop\n        /* \"#utility.yul\":14188:14607   */\n      swap2\n      swap1\n      pop\n      jump\t// out\n        /* \"#utility.yul\":14613:14761   */\n    tag_303:\n        /* \"#utility.yul\":14715:14726   */\n      0x00\n        /* \"#utility.yul\":14752:14755   */\n      dup2\n        /* \"#utility.yul\":14737:14755   */\n      swap1\n      pop\n        /* \"#utility.yul\":14613:14761   */\n      swap3\n      swap2\n      pop\n      pop\n      jump\t// out\n        /* \"#utility.yul\":14767:14981   */\n    tag_304:\n        /* \"#utility.yul\":14907:14973   */\n      0x19457468657265756d205369676e6564204d6573736167653a0a333200000000\n        /* \"#utility.yul\":14903:14904   */\n      0x00\n        /* \"#utility.yul\":14895:14901   */\n      dup3\n        /* \"#utility.yul\":14891:14905   */\n      add\n        /* \"#utility.yul\":14884:14974   */\n      mstore\n        /* \"#utility.yul\":14767:14981   */\n      pop\n      jump\t// out\n        /* \"#utility.yul\":14987:15389   */\n    tag_305:\n        /* \"#utility.yul\":15147:15150   */\n      0x00\n        /* \"#utility.yul\":15168:15253   */\n      tag_456\n        /* \"#utility.yul\":15250:15252   */\n      0x1c\n        /* \"#utility.yul\":15245:15248   */\n      dup4\n        /* \"#utility.yul\":15168:15253   */\n      tag_303\n      jump\t// in\n    tag_456:\n        /* \"#utility.yul\":15161:15253   */\n      swap2\n      pop\n        /* \"#utility.yul\":15262:15355   */\n      tag_457\n        /* \"#utility.yul\":15351:15354   */\n      dup3\n        /* \"#utility.yul\":15262:15355   */\n      tag_304\n      jump\t// in\n    tag_457:\n        /* \"#utility.yul\":15380:15382   */\n      0x1c\n        /* \"#utility.yul\":15375:15378   */\n      dup3\n        /* \"#utility.yul\":15371:15383   */\n      add\n        /* \"#utility.yul\":15364:15383   */\n      swap1\n      pop\n        /* \"#utility.yul\":14987:15389   */\n      swap2\n      swap1\n      pop\n      jump\t// out\n        /* \"#utility.yul\":15395:15472   */\n    tag_306:\n        /* \"#utility.yul\":15432:15439   */\n      0x00\n        /* \"#utility.yul\":15461:15466   */\n      dup2\n        /* \"#utility.yul\":15450:15466   */\n      swap1\n      pop\n        /* \"#utility.yul\":15395:15472   */\n      swap2\n      swap1\n      pop\n      jump\t// out\n        /* \"#utility.yul\":15478:15557   */\n    tag_307:\n        /* \"#utility.yul\":15517:15524   */\n      0x00\n        /* \"#utility.yul\":15546:15551   */\n      dup2\n        /* \"#utility.yul\":15535:15551   */\n      swap1\n      pop\n        /* \"#utility.yul\":15478:15557   */\n      swap2\n      swap1\n      pop\n      jump\t// out\n        /* \"#utility.yul\":15563:15720   */\n    tag_308:\n        /* \"#utility.yul\":15668:15713   */\n      tag_461\n        /* \"#utility.yul\":15688:15712   */\n      tag_462\n        /* \"#utility.yul\":15706:15711   */\n      dup3\n        /* \"#utility.yul\":15688:15712   */\n      tag_306\n      jump\t// in\n    tag_462:\n        /* \"#utility.yul\":15668:15713   */\n      tag_307\n      jump\t// in\n    tag_461:\n        /* \"#utility.yul\":15663:15666   */\n      dup3\n        /* \"#utility.yul\":15656:15714   */\n      mstore\n        /* \"#utility.yul\":15563:15720   */\n      pop\n      pop\n      jump\t// out\n        /* \"#utility.yul\":15726:16248   */\n    tag_201:\n        /* \"#utility.yul\":15939:15942   */\n      0x00\n        /* \"#utility.yul\":15961:16109   */\n      tag_464\n        /* \"#utility.yul\":16105:16108   */\n      dup3\n        /* \"#utility.yul\":15961:16109   */\n      tag_305\n      jump\t// in\n    tag_464:\n        /* \"#utility.yul\":15954:16109   */\n      swap2\n      pop\n        /* \"#utility.yul\":16119:16194   */\n      tag_465\n        /* \"#utility.yul\":16190:16193   */\n      dup3\n        /* \"#utility.yul\":16181:16187   */\n      dup5\n        /* \"#utility.yul\":16119:16194   */\n      tag_308\n      jump\t// in\n    tag_465:\n        /* \"#utility.yul\":16219:16221   */\n      0x20\n        /* \"#utility.yul\":16214:16217   */\n      dup3\n        /* \"#utility.yul\":16210:16222   */\n      add\n        /* \"#utility.yul\":16203:16222   */\n      swap2\n      pop\n        /* \"#utility.yul\":16239:16242   */\n      dup2\n        /* \"#utility.yul\":16232:16242   */\n      swap1\n      pop\n        /* \"#utility.yul\":15726:16248   */\n      swap3\n      swap2\n      pop\n      pop\n      jump\t// out\n        /* \"#utility.yul\":16254:16424   */\n    tag_309:\n        /* \"#utility.yul\":16394:16416   */\n      0x5061757361626c653a206e6f7420706175736564000000000000000000000000\n        /* \"#utility.yul\":16390:16391   */\n      0x00\n        /* \"#utility.yul\":16382:16388   */\n      dup3\n        /* \"#utility.yul\":16378:16392   */\n      add\n        /* \"#utility.yul\":16371:16417   */\n      mstore\n        /* \"#utility.yul\":16254:16424   */\n      pop\n      jump\t// out\n        /* \"#utility.yul\":16430:16796   */\n    tag_310:\n        /* \"#utility.yul\":16572:16575   */\n      0x00\n        /* \"#utility.yul\":16593:16660   */\n      tag_468\n        /* \"#utility.yul\":16657:16659   */\n      0x14\n        /* \"#utility.yul\":16652:16655   */\n      dup4\n        /* \"#utility.yul\":16593:16660   */\n      tag_284\n      jump\t// in\n    tag_468:\n        /* \"#utility.yul\":16586:16660   */\n      swap2\n      pop\n        /* \"#utility.yul\":16669:16762   */\n      tag_469\n        /* \"#utility.yul\":16758:16761   */\n      dup3\n        /* \"#utility.yul\":16669:16762   */\n      tag_309\n      jump\t// in\n    tag_469:\n        /* \"#utility.yul\":16787:16789   */\n      0x20\n        /* \"#utility.yul\":16782:16785   */\n      dup3\n        /* \"#utility.yul\":16778:16790   */\n      add\n        /* \"#utility.yul\":16771:16790   */\n      swap1\n      pop\n        /* \"#utility.yul\":16430:16796   */\n      swap2\n      swap1\n      pop\n      jump\t// out\n        /* \"#utility.yul\":16802:17221   */\n    tag_218:\n        /* \"#utility.yul\":16968:16972   */\n      0x00\n        /* \"#utility.yul\":17006:17008   */\n      0x20\n        /* \"#utility.yul\":16995:17004   */\n      dup3\n        /* \"#utility.yul\":16991:17009   */\n      add\n        /* \"#utility.yul\":16983:17009   */\n      swap1\n      pop\n        /* \"#utility.yul\":17055:17064   */\n      dup2\n        /* \"#utility.yul\":17049:17053   */\n      dup2\n        /* \"#utility.yul\":17045:17065   */\n      sub\n        /* \"#utility.yul\":17041:17042   */\n      0x00\n        /* \"#utility.yul\":17030:17039   */\n      dup4\n        /* \"#utility.yul\":17026:17043   */\n      add\n        /* \"#utility.yul\":17019:17066   */\n      mstore\n        /* \"#utility.yul\":17083:17214   */\n      tag_471\n        /* \"#utility.yul\":17209:17213   */\n      dup2\n        /* \"#utility.yul\":17083:17214   */\n      tag_310\n      jump\t// in\n    tag_471:\n        /* \"#utility.yul\":17075:17214   */\n      swap1\n      pop\n        /* \"#utility.yul\":16802:17221   */\n      swap2\n      swap1\n      pop\n      jump\t// out\n        /* \"#utility.yul\":17227:17407   */\n    tag_227:\n        /* \"#utility.yul\":17275:17352   */\n      0x4e487b7100000000000000000000000000000000000000000000000000000000\n        /* \"#utility.yul\":17272:17273   */\n      0x00\n        /* \"#utility.yul\":17265:17353   */\n      mstore\n        /* \"#utility.yul\":17372:17376   */\n      0x21\n        /* \"#utility.yul\":17369:17370   */\n      0x04\n        /* \"#utility.yul\":17362:17377   */\n      mstore\n        /* \"#utility.yul\":17396:17400   */\n      0x24\n        /* \"#utility.yul\":17393:17394   */\n      0x00\n        /* \"#utility.yul\":17386:17401   */\n      revert\n        /* \"#utility.yul\":17413:17531   */\n    tag_311:\n        /* \"#utility.yul\":17500:17524   */\n      tag_474\n        /* \"#utility.yul\":17518:17523   */\n      dup2\n        /* \"#utility.yul\":17500:17524   */\n      tag_306\n      jump\t// in\n    tag_474:\n        /* \"#utility.yul\":17495:17498   */\n      dup3\n        /* \"#utility.yul\":17488:17525   */\n      mstore\n        /* \"#utility.yul\":17413:17531   */\n      pop\n      pop\n      jump\t// out\n        /* \"#utility.yul\":17537:17759   */\n    tag_251:\n        /* \"#utility.yul\":17630:17634   */\n      0x00\n        /* \"#utility.yul\":17668:17670   */\n      0x20\n        /* \"#utility.yul\":17657:17666   */\n      dup3\n        /* \"#utility.yul\":17653:17671   */\n      add\n        /* \"#utility.yul\":17645:17671   */\n      swap1\n      pop\n        /* \"#utility.yul\":17681:17752   */\n      tag_476\n        /* \"#utility.yul\":17749:17750   */\n      0x00\n        /* \"#utility.yul\":17738:17747   */\n      dup4\n        /* \"#utility.yul\":17734:17751   */\n      add\n        /* \"#utility.yul\":17725:17731   */\n      dup5\n        /* \"#utility.yul\":17681:17752   */\n      tag_311\n      jump\t// in\n    tag_476:\n        /* \"#utility.yul\":17537:17759   */\n      swap3\n      swap2\n      pop\n      pop\n      jump\t// out\n        /* \"#utility.yul\":17765:17851   */\n    tag_312:\n        /* \"#utility.yul\":17800:17807   */\n      0x00\n        /* \"#utility.yul\":17840:17844   */\n      0xff\n        /* \"#utility.yul\":17833:17838   */\n      dup3\n        /* \"#utility.yul\":17829:17845   */\n      and\n        /* \"#utility.yul\":17818:17845   */\n      swap1\n      pop\n        /* \"#utility.yul\":17765:17851   */\n      swap2\n      swap1\n      pop\n      jump\t// out\n        /* \"#utility.yul\":17857:17969   */\n    tag_313:\n        /* \"#utility.yul\":17940:17962   */\n      tag_479\n        /* \"#utility.yul\":17956:17961   */\n      dup2\n        /* \"#utility.yul\":17940:17962   */\n      tag_312\n      jump\t// in\n    tag_479:\n        /* \"#utility.yul\":17935:17938   */\n      dup3\n        /* \"#utility.yul\":17928:17963   */\n      mstore\n        /* \"#utility.yul\":17857:17969   */\n      pop\n      pop\n      jump\t// out\n        /* \"#utility.yul\":17975:18520   */\n    tag_255:\n        /* \"#utility.yul\":18148:18152   */\n      0x00\n        /* \"#utility.yul\":18186:18189   */\n      0x80\n        /* \"#utility.yul\":18175:18184   */\n      dup3\n        /* \"#utility.yul\":18171:18190   */\n      add\n        /* \"#utility.yul\":18163:18190   */\n      swap1\n      pop\n        /* \"#utility.yul\":18200:18271   */\n      tag_481\n        /* \"#utility.yul\":18268:18269   */\n      0x00\n        /* \"#utility.yul\":18257:18266   */\n      dup4\n        /* \"#utility.yul\":18253:18270   */\n      add\n        /* \"#utility.yul\":18244:18250   */\n      dup8\n        /* \"#utility.yul\":18200:18271   */\n      tag_311\n      jump\t// in\n    tag_481:\n        /* \"#utility.yul\":18281:18349   */\n      tag_482\n        /* \"#utility.yul\":18345:18347   */\n      0x20\n        /* \"#utility.yul\":18334:18343   */\n      dup4\n        /* \"#utility.yul\":18330:18348   */\n      add\n        /* \"#utility.yul\":18321:18327   */\n      dup7\n        /* \"#utility.yul\":18281:18349   */\n      tag_313\n      jump\t// in\n    tag_482:\n        /* \"#utility.yul\":18359:18431   */\n      tag_483\n        /* \"#utility.yul\":18427:18429   */\n      0x40\n        /* \"#utility.yul\":18416:18425   */\n      dup4\n        /* \"#utility.yul\":18412:18430   */\n      add\n        /* \"#utility.yul\":18403:18409   */\n      dup6\n        /* \"#utility.yul\":18359:18431   */\n      tag_311\n      jump\t// in\n    tag_483:\n        /* \"#utility.yul\":18441:18513   */\n      tag_484\n        /* \"#utility.yul\":18509:18511   */\n      0x60\n        /* \"#utility.yul\":18498:18507   */\n      dup4\n        /* \"#utility.yul\":18494:18512   */\n      add\n        /* \"#utility.yul\":18485:18491   */\n      dup5\n        /* \"#utility.yul\":18441:18513   */\n      tag_311\n      jump\t// in\n    tag_484:\n        /* \"#utility.yul\":17975:18520   */\n      swap6\n      swap5\n      pop\n      pop\n      pop\n      pop\n      pop\n      jump\t// out\n\n    auxdata: 0xa2646970667358221220fc600af56c5a74beb46df9fe656e41bee2487b47ba647092225bdb7fa6d3b9bf64736f6c634300081e0033\n}\n",
				"bytecode": {
					"linkReferences": {},
					"object": "608060405234801561000f575f5ffd5b50604051612277380380612277833981810160405281019061003191906104b3565b845f73ffffffffffffffffffffffffffffffffffffffff168173ffffffffffffffffffffffffffffffffffffffff16036100a2575f6040517f1e4fbdf70000000000000000000000000000000000000000000000000000000081526004016100999190610539565b60405180910390fd5b6100b18161039460201b60201c565b505f5f60146101000a81548160ff021916908315150217905550600180819055505f73ffffffffffffffffffffffffffffffffffffffff168473ffffffffffffffffffffffffffffffffffffffff1603610140576040517f08c379a0000000000000000000000000000000000000000000000000000000008152600401610137906105ac565b60405180910390fd5b5f73ffffffffffffffffffffffffffffffffffffffff168373ffffffffffffffffffffffffffffffffffffffff16036101ae576040517f08c379a00000000000000000000000000000000000000000000000000000000081526004016101a590610614565b60405180910390fd5b5f73ffffffffffffffffffffffffffffffffffffffff168273ffffffffffffffffffffffffffffffffffffffff160361021c576040517f08c379a00000000000000000000000000000000000000000000000000000000081526004016102139061067c565b60405180910390fd5b5f73ffffffffffffffffffffffffffffffffffffffff168173ffffffffffffffffffffffffffffffffffffffff160361028a576040517f08c379a0000000000000000000000000000000000000000000000000000000008152600401610281906106e4565b60405180910390fd5b8360025f6101000a81548173ffffffffffffffffffffffffffffffffffffffff021916908373ffffffffffffffffffffffffffffffffffffffff1602179055508260035f6101000a81548173ffffffffffffffffffffffffffffffffffffffff021916908373ffffffffffffffffffffffffffffffffffffffff1602179055508160045f6101000a81548173ffffffffffffffffffffffffffffffffffffffff021916908373ffffffffffffffffffffffffffffffffffffffff1602179055508060055f6101000a81548173ffffffffffffffffffffffffffffffffffffffff021916908373ffffffffffffffffffffffffffffffffffffffff1602179055505050505050610702565b5f5f5f9054906101000a900473ffffffffffffffffffffffffffffffffffffffff169050815f5f6101000a81548173ffffffffffffffffffffffffffffffffffffffff021916908373ffffffffffffffffffffffffffffffffffffffff1602179055508173ffffffffffffffffffffffffffffffffffffffff168173ffffffffffffffffffffffffffffffffffffffff167f8be0079c531659141344cd1fd0a4f28419497f9722a3daafe3b4186f6b6457e060405160405180910390a35050565b5f5ffd5b5f73ffffffffffffffffffffffffffffffffffffffff82169050919050565b5f61048282610459565b9050919050565b61049281610478565b811461049c575f5ffd5b50565b5f815190506104ad81610489565b92915050565b5f5f5f5f5f60a086880312156104cc576104cb610455565b5b5f6104d98882890161049f565b95505060206104ea8882890161049f565b94505060406104fb8882890161049f565b935050606061050c8882890161049f565b925050608061051d8882890161049f565b9150509295509295909350565b61053381610478565b82525050565b5f60208201905061054c5f83018461052a565b92915050565b5f82825260208201905092915050565b7f6176617461724e4654207a65726f0000000000000000000000000000000000005f82015250565b5f610596600e83610552565b91506105a182610562565b602082019050919050565b5f6020820190508181035f8301526105c38161058a565b9050919050565b7f6974656d4e4654207a65726f00000000000000000000000000000000000000005f82015250565b5f6105fe600c83610552565b9150610609826105ca565b602082019050919050565b5f6020820190508181035f83015261062b816105f2565b9050919050565b7f7472656173757279207a65726f000000000000000000000000000000000000005f82015250565b5f610666600d83610552565b915061067182610632565b602082019050919050565b5f6020820190508181035f8301526106938161065a565b9050919050565b7f7369676e6572207a65726f0000000000000000000000000000000000000000005f82015250565b5f6106ce600b83610552565b91506106d98261069a565b602082019050919050565b5f6020820190508181035f8301526106fb816106c2565b9050919050565b611b688061070f5f395ff3fe608060405234801561000f575f5ffd5b506004361061012a575f3560e01c8063715018a6116100ab578063a8602fea1161006f578063a8602fea146102e4578063a87331e514610300578063c5fb50d51461031c578063c69d65d114610338578063f2fde38b146103545761012a565b8063715018a61461026657806376618f271461027057806383b781881461028c5780638456cb59146102bc5780638da5cb5b146102c65761012a565b80634626402b116100f25780634626402b146101d457806347e25eff146101f257806357d1f9101461020e5780635c975abb1461022c5780635fb84d671461024a5761012a565b8063028be3381461012e578063280e31cc1461015e5780632f5e6a051461018e578063323f24ab146101ac5780633f4ba83a146101ca575b5f5ffd5b61014860048036038101906101439190611372565b610370565b60405161015591906113bf565b60405180910390f35b610178600480360381019061017391906113d8565b610390565b60405161018591906113bf565b60405180910390f35b6101966103a5565b6040516101a3919061145e565b60405180910390f35b6101b46103ca565b6040516101c19190611486565b60405180910390f35b6101d26103ef565b005b6101dc610401565b6040516101e99190611486565b60405180910390f35b61020c600480360381019061020791906113d8565b610426565b005b6102166104df565b60405161022391906114bf565b60405180910390f35b610234610504565b60405161024191906114f2565b60405180910390f35b610264600480360381019061025f9190611372565b610519565b005b61026e610623565b005b61028a6004803603810190610285919061156c565b610636565b005b6102a660048036038101906102a19190611372565b6108bb565b6040516102b391906114f2565b60405180910390f35b6102c46108e5565b005b6102ce6108f7565b6040516102db9190611486565b60405180910390f35b6102fe60048036038101906102f991906113d8565b61091e565b005b61031a600480360381019061031591906113d8565b6109d7565b005b610336600480360381019061033191906115dd565b610a90565b005b610352600480360381019061034d91906113d8565b610bac565b005b61036e600480360381019061036991906113d8565b610c65565b005b6007602052815f5260405f20602052805f5260405f205f91509150505481565b6006602052805f5260405f205f915090505481565b60025f9054906101000a900473ffffffffffffffffffffffffffffffffffffffff1681565b60055f9054906101000a900473ffffffffffffffffffffffffffffffffffffffff1681565b6103f7610ce9565b6103ff610d70565b565b60045f9054906101000a900473ffffffffffffffffffffffffffffffffffffffff1681565b61042e610ce9565b5f73ffffffffffffffffffffffffffffffffffffffff168173ffffffffffffffffffffffffffffffffffffffff160361049c576040517f08c379a000000000000000000000000000000000000000000000000000000000815260040161049390611687565b60405180910390fd5b8060035f6101000a81548173ffffffffffffffffffffffffffffffffffffffff021916908373ffffffffffffffffffffffffffffffffffffffff16021790555050565b60035f9054906101000a900473ffffffffffffffffffffffffffffffffffffffff1681565b5f5f60149054906101000a900460ff16905090565b610521610ce9565b5f73ffffffffffffffffffffffffffffffffffffffff168273ffffffffffffffffffffffffffffffffffffffff160361058f576040517f08c379a0000000000000000000000000000000000000000000000000000000008152600401610586906116ef565b60405180910390fd5b8060065f8473ffffffffffffffffffffffffffffffffffffffff1673ffffffffffffffffffffffffffffffffffffffff1681526020019081526020015f20819055508173ffffffffffffffffffffffffffffffffffffffff167f4bd6aedf6fbd4e9cacaf319dc8d6906ff7f7fd2522898365f92afab9cb2454448260405161061791906113bf565b60405180910390a25050565b61062b610ce9565b6106345f610dd1565b565b61063e610e92565b610646610edc565b60085f3373ffffffffffffffffffffffffffffffffffffffff1673ffffffffffffffffffffffffffffffffffffffff1681526020019081526020015f205f8581526020019081526020015f205f9054906101000a900460ff16156106df576040517f08c379a00000000000000000000000000000000000000000000000000000000081526004016106d690611757565b60405180910390fd5b5f3385856040516020016106f5939291906117da565b6040516020818303038152906040528051906020012090505f61071782610f2b565b90505f6107678286868080601f0160208091040260200160405190810160405280939291908181526020018383808284375f81840152601f19601f82011690508083019250505050505050610f5a565b905060055f9054906101000a900473ffffffffffffffffffffffffffffffffffffffff1673ffffffffffffffffffffffffffffffffffffffff168173ffffffffffffffffffffffffffffffffffffffff16146107f8576040517f08c379a00000000000000000000000000000000000000000000000000000000081526004016107ef90611860565b60405180910390fd5b600160085f3373ffffffffffffffffffffffffffffffffffffffff1673ffffffffffffffffffffffffffffffffffffffff1681526020019081526020015f205f8981526020019081526020015f205f6101000a81548160ff0219169083151502179055503373ffffffffffffffffffffffffffffffffffffffff167f106f923f993c2149d49b4255ff723acafa1f2d94393f561d3eda32ae348f7241886040516108a291906113bf565b60405180910390a25050506108b5610f84565b50505050565b6008602052815f5260405f20602052805f5260405f205f915091509054906101000a900460ff1681565b6108ed610ce9565b6108f5610f8d565b565b5f5f5f9054906101000a900473ffffffffffffffffffffffffffffffffffffffff16905090565b610926610ce9565b5f73ffffffffffffffffffffffffffffffffffffffff168173ffffffffffffffffffffffffffffffffffffffff1603610994576040517f08c379a000000000000000000000000000000000000000000000000000000000815260040161098b90611687565b60405180910390fd5b8060045f6101000a81548173ffffffffffffffffffffffffffffffffffffffff021916908373ffffffffffffffffffffffffffffffffffffffff16021790555050565b6109df610ce9565b5f73ffffffffffffffffffffffffffffffffffffffff168173ffffffffffffffffffffffffffffffffffffffff1603610a4d576040517f08c379a0000000000000000000000000000000000000000000000000000000008152600401610a4490611687565b60405180910390fd5b8060025f6101000a81548173ffffffffffffffffffffffffffffffffffffffff021916908373ffffffffffffffffffffffffffffffffffffffff16021790555050565b610a98610ce9565b5f73ffffffffffffffffffffffffffffffffffffffff168373ffffffffffffffffffffffffffffffffffffffff1603610b06576040517f08c379a0000000000000000000000000000000000000000000000000000000008152600401610afd906116ef565b60405180910390fd5b8060075f8573ffffffffffffffffffffffffffffffffffffffff1673ffffffffffffffffffffffffffffffffffffffff1681526020019081526020015f205f8481526020019081526020015f20819055508273ffffffffffffffffffffffffffffffffffffffff167f95b529ceb2b4c5026133eafcb0f6e7e63f17c39398d1b67e14569272cf3c956b8383604051610b9f92919061187e565b60405180910390a2505050565b610bb4610ce9565b5f73ffffffffffffffffffffffffffffffffffffffff168173ffffffffffffffffffffffffffffffffffffffff1603610c22576040517f08c379a0000000000000000000000000000000000000000000000000000000008152600401610c1990611687565b60405180910390fd5b8060055f6101000a81548173ffffffffffffffffffffffffffffffffffffffff021916908373ffffffffffffffffffffffffffffffffffffffff16021790555050565b610c6d610ce9565b5f73ffffffffffffffffffffffffffffffffffffffff168173ffffffffffffffffffffffffffffffffffffffff1603610cdd575f6040517f1e4fbdf7000000000000000000000000000000000000000000000000000000008152600401610cd49190611486565b60405180910390fd5b610ce681610dd1565b50565b610cf1610fef565b73ffffffffffffffffffffffffffffffffffffffff16610d0f6108f7565b73ffffffffffffffffffffffffffffffffffffffff1614610d6e57610d32610fef565b6040517f118cdaa7000000000000000000000000000000000000000000000000000000008152600401610d659190611486565b60405180910390fd5b565b610d78610ff6565b5f5f60146101000a81548160ff0219169083151502179055507f5db9ee0a495bf2e6ff9c91a7834c1ba4fdd244a5e8aa4e537bd38aeae4b073aa610dba610fef565b604051610dc79190611486565b60405180910390a1565b5f5f5f9054906101000a900473ffffffffffffffffffffffffffffffffffffffff169050815f5f6101000a81548173ffffffffffffffffffffffffffffffffffffffff021916908373ffffffffffffffffffffffffffffffffffffffff1602179055508173ffffffffffffffffffffffffffffffffffffffff168173ffffffffffffffffffffffffffffffffffffffff167f8be0079c531659141344cd1fd0a4f28419497f9722a3daafe3b4186f6b6457e060405160405180910390a35050565b610e9a610504565b15610eda576040517f08c379a0000000000000000000000000000000000000000000000000000000008152600401610ed1906118ef565b60405180910390fd5b565b600260015403610f21576040517f08c379a0000000000000000000000000000000000000000000000000000000008152600401610f1890611957565b60405180910390fd5b6002600181905550565b5f81604051602001610f3d91906119f2565b604051602081830303815290604052805190602001209050919050565b5f5f5f5f610f68868661103f565b925092509250610f788282611094565b82935050505092915050565b60018081905550565b610f95610e92565b60015f60146101000a81548160ff0219169083151502179055507f62e78cea01bee320cd4e420270b5ea74000d11b0c9f74754ebdbfc544b05a258610fd8610fef565b604051610fe59190611486565b60405180910390a1565b5f33905090565b610ffe610504565b61103d576040517f08c379a000000000000000000000000000000000000000000000000000000000815260040161103490611a61565b60405180910390fd5b565b5f5f5f604184510361107f575f5f5f602087015192506040870151915060608701515f1a9050611071888285856111f6565b95509550955050505061108d565b5f600285515f1b9250925092505b9250925092565b5f60038111156110a7576110a6611a7f565b5b8260038111156110ba576110b9611a7f565b5b03156111f257600160038111156110d4576110d3611a7f565b5b8260038111156110e7576110e6611a7f565b5b0361111e576040517ff645eedf00000000000000000000000000000000000000000000000000000000815260040160405180910390fd5b6002600381111561113257611131611a7f565b5b82600381111561114557611144611a7f565b5b0361118957805f1c6040517ffce698f700000000000000000000000000000000000000000000000000000000815260040161118091906113bf565b60405180910390fd5b60038081111561119c5761119b611a7f565b5b8260038111156111af576111ae611a7f565b5b036111f157806040517fd78bce0c0000000000000000000000000000000000000000000000000000000081526004016111e89190611abb565b60405180910390fd5b5b5050565b5f5f5f7f7fffffffffffffffffffffffffffffff5d576e7357a4501ddfe92f46681b20a0845f1c1115611232575f6003859250925092506112d3565b5f6001888888886040515f81526020016040526040516112559493929190611aef565b6020604051602081039080840390855afa158015611275573d5f5f3e3d5ffd5b5050506020604051035190505f73ffffffffffffffffffffffffffffffffffffffff168173ffffffffffffffffffffffffffffffffffffffff16036112c6575f60015f5f1b935093509350506112d3565b805f5f5f1b935093509350505b9450945094915050565b5f5ffd5b5f5ffd5b5f73ffffffffffffffffffffffffffffffffffffffff82169050919050565b5f61130e826112e5565b9050919050565b61131e81611304565b8114611328575f5ffd5b50565b5f8135905061133981611315565b92915050565b5f819050919050565b6113518161133f565b811461135b575f5ffd5b50565b5f8135905061136c81611348565b92915050565b5f5f60408385031215611388576113876112dd565b5b5f6113958582860161132b565b92505060206113a68582860161135e565b9150509250929050565b6113b98161133f565b82525050565b5f6020820190506113d25f8301846113b0565b92915050565b5f602082840312156113ed576113ec6112dd565b5b5f6113fa8482850161132b565b91505092915050565b5f819050919050565b5f61142661142161141c846112e5565b611403565b6112e5565b9050919050565b5f6114378261140c565b9050919050565b5f6114488261142d565b9050919050565b6114588161143e565b82525050565b5f6020820190506114715f83018461144f565b92915050565b61148081611304565b82525050565b5f6020820190506114995f830184611477565b92915050565b5f6114a98261142d565b9050919050565b6114b98161149f565b82525050565b5f6020820190506114d25f8301846114b0565b92915050565b5f8115159050919050565b6114ec816114d8565b82525050565b5f6020820190506115055f8301846114e3565b92915050565b5f5ffd5b5f5ffd5b5f5ffd5b5f5f83601f84011261152c5761152b61150b565b5b8235905067ffffffffffffffff8111156115495761154861150f565b5b60208301915083600182028301111561156557611564611513565b5b9250929050565b5f5f5f5f60608587031215611584576115836112dd565b5b5f6115918782880161135e565b94505060206115a28782880161135e565b935050604085013567ffffffffffffffff8111156115c3576115c26112e1565b5b6115cf87828801611517565b925092505092959194509250565b5f5f5f606084860312156115f4576115f36112dd565b5b5f6116018682870161132b565b93505060206116128682870161135e565b92505060406116238682870161135e565b9150509250925092565b5f82825260208201905092915050565b7f7a65726f206164647200000000000000000000000000000000000000000000005f82015250565b5f61167160098361162d565b915061167c8261163d565b602082019050919050565b5f6020820190508181035f83015261169e81611665565b9050919050565b7f7a65726f207573657200000000000000000000000000000000000000000000005f82015250565b5f6116d960098361162d565b91506116e4826116a5565b602082019050919050565b5f6020820190508181035f830152611706816116cd565b9050919050565b7f616c726561647920636c61696d656400000000000000000000000000000000005f82015250565b5f611741600f8361162d565b915061174c8261170d565b602082019050919050565b5f6020820190508181035f83015261176e81611735565b9050919050565b5f8160601b9050919050565b5f61178b82611775565b9050919050565b5f61179c82611781565b9050919050565b6117b46117af82611304565b611792565b82525050565b5f819050919050565b6117d46117cf8261133f565b6117ba565b82525050565b5f6117e582866117a3565b6014820191506117f582856117c3565b60208201915061180582846117c3565b602082019150819050949350505050565b7f696e76616c6964207369676e61747572650000000000000000000000000000005f82015250565b5f61184a60118361162d565b915061185582611816565b602082019050919050565b5f6020820190508181035f8301526118778161183e565b9050919050565b5f6040820190506118915f8301856113b0565b61189e60208301846113b0565b9392505050565b7f5061757361626c653a20706175736564000000000000000000000000000000005f82015250565b5f6118d960108361162d565b91506118e4826118a5565b602082019050919050565b5f6020820190508181035f830152611906816118cd565b9050919050565b7f5265656e7472616e637947756172643a207265656e7472616e742063616c6c005f82015250565b5f611941601f8361162d565b915061194c8261190d565b602082019050919050565b5f6020820190508181035f83015261196e81611935565b9050919050565b5f81905092915050565b7f19457468657265756d205369676e6564204d6573736167653a0a3332000000005f82015250565b5f6119b3601c83611975565b91506119be8261197f565b601c82019050919050565b5f819050919050565b5f819050919050565b6119ec6119e7826119c9565b6119d2565b82525050565b5f6119fc826119a7565b9150611a0882846119db565b60208201915081905092915050565b7f5061757361626c653a206e6f74207061757365640000000000000000000000005f82015250565b5f611a4b60148361162d565b9150611a5682611a17565b602082019050919050565b5f6020820190508181035f830152611a7881611a3f565b9050919050565b7f4e487b71000000000000000000000000000000000000000000000000000000005f52602160045260245ffd5b611ab5816119c9565b82525050565b5f602082019050611ace5f830184611aac565b92915050565b5f60ff82169050919050565b611ae981611ad4565b82525050565b5f608082019050611b025f830187611aac565b611b0f6020830186611ae0565b611b1c6040830185611aac565b611b296060830184611aac565b9594505050505056fea2646970667358221220fc600af56c5a74beb46df9fe656e41bee2487b47ba647092225bdb7fa6d3b9bf64736f6c634300081e0033",
					"opcodes": "PUSH1 0x80 PUSH1 0x40 MSTORE CALLVALUE DUP1 ISZERO PUSH2 0xF JUMPI PUSH0 PUSH0 REVERT JUMPDEST POP PUSH1 0x40 MLOAD PUSH2 0x2277 CODESIZE SUB DUP1 PUSH2 0x2277 DUP4 CODECOPY DUP2 DUP2 ADD PUSH1 0x40 MSTORE DUP2 ADD SWAP1 PUSH2 0x31 SWAP2 SWAP1 PUSH2 0x4B3 JUMP JUMPDEST DUP5 PUSH0 PUSH20 0xFFFFFFFFFFFFFFFFFFFFFFFFFFFFFFFFFFFFFFFF AND DUP2 PUSH20 0xFFFFFFFFFFFFFFFFFFFFFFFFFFFFFFFFFFFFFFFF AND SUB PUSH2 0xA2 JUMPI PUSH0 PUSH1 0x40 MLOAD PUSH32 0x1E4FBDF700000000000000000000000000000000000000000000000000000000 DUP2 MSTORE PUSH1 0x4 ADD PUSH2 0x99 SWAP2 SWAP1 PUSH2 0x539 JUMP JUMPDEST PUSH1 0x40 MLOAD DUP1 SWAP2 SUB SWAP1 REVERT JUMPDEST PUSH2 0xB1 DUP2 PUSH2 0x394 PUSH1 0x20 SHL PUSH1 0x20 SHR JUMP JUMPDEST POP PUSH0 PUSH0 PUSH1 0x14 PUSH2 0x100 EXP DUP2 SLOAD DUP2 PUSH1 0xFF MUL NOT AND SWAP1 DUP4 ISZERO ISZERO MUL OR SWAP1 SSTORE POP PUSH1 0x1 DUP1 DUP2 SWAP1 SSTORE POP PUSH0 PUSH20 0xFFFFFFFFFFFFFFFFFFFFFFFFFFFFFFFFFFFFFFFF AND DUP5 PUSH20 0xFFFFFFFFFFFFFFFFFFFFFFFFFFFFFFFFFFFFFFFF AND SUB PUSH2 0x140 JUMPI PUSH1 0x40 MLOAD PUSH32 0x8C379A000000000000000000000000000000000000000000000000000000000 DUP2 MSTORE PUSH1 0x4 ADD PUSH2 0x137 SWAP1 PUSH2 0x5AC JUMP JUMPDEST PUSH1 0x40 MLOAD DUP1 SWAP2 SUB SWAP1 REVERT JUMPDEST PUSH0 PUSH20 0xFFFFFFFFFFFFFFFFFFFFFFFFFFFFFFFFFFFFFFFF AND DUP4 PUSH20 0xFFFFFFFFFFFFFFFFFFFFFFFFFFFFFFFFFFFFFFFF AND SUB PUSH2 0x1AE JUMPI PUSH1 0x40 MLOAD PUSH32 0x8C379A000000000000000000000000000000000000000000000000000000000 DUP2 MSTORE PUSH1 0x4 ADD PUSH2 0x1A5 SWAP1 PUSH2 0x614 JUMP JUMPDEST PUSH1 0x40 MLOAD DUP1 SWAP2 SUB SWAP1 REVERT JUMPDEST PUSH0 PUSH20 0xFFFFFFFFFFFFFFFFFFFFFFFFFFFFFFFFFFFFFFFF AND DUP3 PUSH20 0xFFFFFFFFFFFFFFFFFFFFFFFFFFFFFFFFFFFFFFFF AND SUB PUSH2 0x21C JUMPI PUSH1 0x40 MLOAD PUSH32 0x8C379A000000000000000000000000000000000000000000000000000000000 DUP2 MSTORE PUSH1 0x4 ADD PUSH2 0x213 SWAP1 PUSH2 0x67C JUMP JUMPDEST PUSH1 0x40 MLOAD DUP1 SWAP2 SUB SWAP1 REVERT JUMPDEST PUSH0 PUSH20 0xFFFFFFFFFFFFFFFFFFFFFFFFFFFFFFFFFFFFFFFF AND DUP2 PUSH20 0xFFFFFFFFFFFFFFFFFFFFFFFFFFFFFFFFFFFFFFFF AND SUB PUSH2 0x28A JUMPI PUSH1 0x40 MLOAD PUSH32 0x8C379A000000000000000000000000000000000000000000000000000000000 DUP2 MSTORE PUSH1 0x4 ADD PUSH2 0x281 SWAP1 PUSH2 0x6E4 JUMP JUMPDEST PUSH1 0x40 MLOAD DUP1 SWAP2 SUB SWAP1 REVERT JUMPDEST DUP4 PUSH1 0x2 PUSH0 PUSH2 0x100 EXP DUP2 SLOAD DUP2 PUSH20 0xFFFFFFFFFFFFFFFFFFFFFFFFFFFFFFFFFFFFFFFF MUL NOT AND SWAP1 DUP4 PUSH20 0xFFFFFFFFFFFFFFFFFFFFFFFFFFFFFFFFFFFFFFFF AND MUL OR SWAP1 SSTORE POP DUP3 PUSH1 0x3 PUSH0 PUSH2 0x100 EXP DUP2 SLOAD DUP2 PUSH20 0xFFFFFFFFFFFFFFFFFFFFFFFFFFFFFFFFFFFFFFFF MUL NOT AND SWAP1 DUP4 PUSH20 0xFFFFFFFFFFFFFFFFFFFFFFFFFFFFFFFFFFFFFFFF AND MUL OR SWAP1 SSTORE POP DUP2 PUSH1 0x4 PUSH0 PUSH2 0x100 EXP DUP2 SLOAD DUP2 PUSH20 0xFFFFFFFFFFFFFFFFFFFFFFFFFFFFFFFFFFFFFFFF MUL NOT AND SWAP1 DUP4 PUSH20 0xFFFFFFFFFFFFFFFFFFFFFFFFFFFFFFFFFFFFFFFF AND MUL OR SWAP1 SSTORE POP DUP1 PUSH1 0x5 PUSH0 PUSH2 0x100 EXP DUP2 SLOAD DUP2 PUSH20 0xFFFFFFFFFFFFFFFFFFFFFFFFFFFFFFFFFFFFFFFF MUL NOT AND SWAP1 DUP4 PUSH20 0xFFFFFFFFFFFFFFFFFFFFFFFFFFFFFFFFFFFFFFFF AND MUL OR SWAP1 SSTORE POP POP POP POP POP POP PUSH2 0x702 JUMP JUMPDEST PUSH0 PUSH0 PUSH0 SWAP1 SLOAD SWAP1 PUSH2 0x100 EXP SWAP1 DIV PUSH20 0xFFFFFFFFFFFFFFFFFFFFFFFFFFFFFFFFFFFFFFFF AND SWAP1 POP DUP2 PUSH0 PUSH0 PUSH2 0x100 EXP DUP2 SLOAD DUP2 PUSH20 0xFFFFFFFFFFFFFFFFFFFFFFFFFFFFFFFFFFFFFFFF MUL NOT AND SWAP1 DUP4 PUSH20 0xFFFFFFFFFFFFFFFFFFFFFFFFFFFFFFFFFFFFFFFF AND MUL OR SWAP1 SSTORE POP DUP2 PUSH20 0xFFFFFFFFFFFFFFFFFFFFFFFFFFFFFFFFFFFFFFFF AND DUP2 PUSH20 0xFFFFFFFFFFFFFFFFFFFFFFFFFFFFFFFFFFFFFFFF AND PUSH32 0x8BE0079C531659141344CD1FD0A4F28419497F9722A3DAAFE3B4186F6B6457E0 PUSH1 0x40 MLOAD PUSH1 0x40 MLOAD DUP1 SWAP2 SUB SWAP1 LOG3 POP POP JUMP JUMPDEST PUSH0 PUSH0 REVERT JUMPDEST PUSH0 PUSH20 0xFFFFFFFFFFFFFFFFFFFFFFFFFFFFFFFFFFFFFFFF DUP3 AND SWAP1 POP SWAP2 SWAP1 POP JUMP JUMPDEST PUSH0 PUSH2 0x482 DUP3 PUSH2 0x459 JUMP JUMPDEST SWAP1 POP SWAP2 SWAP1 POP JUMP JUMPDEST PUSH2 0x492 DUP2 PUSH2 0x478 JUMP JUMPDEST DUP2 EQ PUSH2 0x49C JUMPI PUSH0 PUSH0 REVERT JUMPDEST POP JUMP JUMPDEST PUSH0 DUP2 MLOAD SWAP1 POP PUSH2 0x4AD DUP2 PUSH2 0x489 JUMP JUMPDEST SWAP3 SWAP2 POP POP JUMP JUMPDEST PUSH0 PUSH0 PUSH0 PUSH0 PUSH0 PUSH1 0xA0 DUP7 DUP9 SUB SLT ISZERO PUSH2 0x4CC JUMPI PUSH2 0x4CB PUSH2 0x455 JUMP JUMPDEST JUMPDEST PUSH0 PUSH2 0x4D9 DUP9 DUP3 DUP10 ADD PUSH2 0x49F JUMP JUMPDEST SWAP6 POP POP PUSH1 0x20 PUSH2 0x4EA DUP9 DUP3 DUP10 ADD PUSH2 0x49F JUMP JUMPDEST SWAP5 POP POP PUSH1 0x40 PUSH2 0x4FB DUP9 DUP3 DUP10 ADD PUSH2 0x49F JUMP JUMPDEST SWAP4 POP POP PUSH1 0x60 PUSH2 0x50C DUP9 DUP3 DUP10 ADD PUSH2 0x49F JUMP JUMPDEST SWAP3 POP POP PUSH1 0x80 PUSH2 0x51D DUP9 DUP3 DUP10 ADD PUSH2 0x49F JUMP JUMPDEST SWAP2 POP POP SWAP3 SWAP6 POP SWAP3 SWAP6 SWAP1 SWAP4 POP JUMP JUMPDEST PUSH2 0x533 DUP2 PUSH2 0x478 JUMP JUMPDEST DUP3 MSTORE POP POP JUMP JUMPDEST PUSH0 PUSH1 0x20 DUP3 ADD SWAP1 POP PUSH2 0x54C PUSH0 DUP4 ADD DUP5 PUSH2 0x52A JUMP JUMPDEST SWAP3 SWAP2 POP POP JUMP JUMPDEST PUSH0 DUP3 DUP3 MSTORE PUSH1 0x20 DUP3 ADD SWAP1 POP SWAP3 SWAP2 POP POP JUMP JUMPDEST PUSH32 0x6176617461724E4654207A65726F000000000000000000000000000000000000 PUSH0 DUP3 ADD MSTORE POP JUMP JUMPDEST PUSH0 PUSH2 0x596 PUSH1 0xE DUP4 PUSH2 0x552 JUMP JUMPDEST SWAP2 POP PUSH2 0x5A1 DUP3 PUSH2 0x562 JUMP JUMPDEST PUSH1 0x20 DUP3 ADD SWAP1 POP SWAP2 SWAP1 POP JUMP JUMPDEST PUSH0 PUSH1 0x20 DUP3 ADD SWAP1 POP DUP2 DUP2 SUB PUSH0 DUP4 ADD MSTORE PUSH2 0x5C3 DUP2 PUSH2 0x58A JUMP JUMPDEST SWAP1 POP SWAP2 SWAP1 POP JUMP JUMPDEST PUSH32 0x6974656D4E4654207A65726F0000000000000000000000000000000000000000 PUSH0 DUP3 ADD MSTORE POP JUMP JUMPDEST PUSH0 PUSH2 0x5FE PUSH1 0xC DUP4 PUSH2 0x552 JUMP JUMPDEST SWAP2 POP PUSH2 0x609 DUP3 PUSH2 0x5CA JUMP JUMPDEST PUSH1 0x20 DUP3 ADD SWAP1 POP SWAP2 SWAP1 POP JUMP JUMPDEST PUSH0 PUSH1 0x20 DUP3 ADD SWAP1 POP DUP2 DUP2 SUB PUSH0 DUP4 ADD MSTORE PUSH2 0x62B DUP2 PUSH2 0x5F2 JUMP JUMPDEST SWAP1 POP SWAP2 SWAP1 POP JUMP JUMPDEST PUSH32 0x7472656173757279207A65726F00000000000000000000000000000000000000 PUSH0 DUP3 ADD MSTORE POP JUMP JUMPDEST PUSH0 PUSH2 0x666 PUSH1 0xD DUP4 PUSH2 0x552 JUMP JUMPDEST SWAP2 POP PUSH2 0x671 DUP3 PUSH2 0x632 JUMP JUMPDEST PUSH1 0x20 DUP3 ADD SWAP1 POP SWAP2 SWAP1 POP JUMP JUMPDEST PUSH0 PUSH1 0x20 DUP3 ADD SWAP1 POP DUP2 DUP2 SUB PUSH0 DUP4 ADD MSTORE PUSH2 0x693 DUP2 PUSH2 0x65A JUMP JUMPDEST SWAP1 POP SWAP2 SWAP1 POP JUMP JUMPDEST PUSH32 0x7369676E6572207A65726F000000000000000000000000000000000000000000 PUSH0 DUP3 ADD MSTORE POP JUMP JUMPDEST PUSH0 PUSH2 0x6CE PUSH1 0xB DUP4 PUSH2 0x552 JUMP JUMPDEST SWAP2 POP PUSH2 0x6D9 DUP3 PUSH2 0x69A JUMP JUMPDEST PUSH1 0x20 DUP3 ADD SWAP1 POP SWAP2 SWAP1 POP JUMP JUMPDEST PUSH0 PUSH1 0x20 DUP3 ADD SWAP1 POP DUP2 DUP2 SUB PUSH0 DUP4 ADD MSTORE PUSH2 0x6FB DUP2 PUSH2 0x6C2 JUMP JUMPDEST SWAP1 POP SWAP2 SWAP1 POP JUMP JUMPDEST PUSH2 0x1B68 DUP1 PUSH2 0x70F PUSH0 CODECOPY PUSH0 RETURN INVALID PUSH1 0x80 PUSH1 0x40 MSTORE CALLVALUE DUP1 ISZERO PUSH2 0xF JUMPI PUSH0 PUSH0 REVERT JUMPDEST POP PUSH1 0x4 CALLDATASIZE LT PUSH2 0x12A JUMPI PUSH0 CALLDATALOAD PUSH1 0xE0 SHR DUP1 PUSH4 0x715018A6 GT PUSH2 0xAB JUMPI DUP1 PUSH4 0xA8602FEA GT PUSH2 0x6F JUMPI DUP1 PUSH4 0xA8602FEA EQ PUSH2 0x2E4 JUMPI DUP1 PUSH4 0xA87331E5 EQ PUSH2 0x300 JUMPI DUP1 PUSH4 0xC5FB50D5 EQ PUSH2 0x31C JUMPI DUP1 PUSH4 0xC69D65D1 EQ PUSH2 0x338 JUMPI DUP1 PUSH4 0xF2FDE38B EQ PUSH2 0x354 JUMPI PUSH2 0x12A JUMP JUMPDEST DUP1 PUSH4 0x715018A6 EQ PUSH2 0x266 JUMPI DUP1 PUSH4 0x76618F27 EQ PUSH2 0x270 JUMPI DUP1 PUSH4 0x83B78188 EQ PUSH2 0x28C JUMPI DUP1 PUSH4 0x8456CB59 EQ PUSH2 0x2BC JUMPI DUP1 PUSH4 0x8DA5CB5B EQ PUSH2 0x2C6 JUMPI PUSH2 0x12A JUMP JUMPDEST DUP1 PUSH4 0x4626402B GT PUSH2 0xF2 JUMPI DUP1 PUSH4 0x4626402B EQ PUSH2 0x1D4 JUMPI DUP1 PUSH4 0x47E25EFF EQ PUSH2 0x1F2 JUMPI DUP1 PUSH4 0x57D1F910 EQ PUSH2 0x20E JUMPI DUP1 PUSH4 0x5C975ABB EQ PUSH2 0x22C JUMPI DUP1 PUSH4 0x5FB84D67 EQ PUSH2 0x24A JUMPI PUSH2 0x12A JUMP JUMPDEST DUP1 PUSH4 0x28BE338 EQ PUSH2 0x12E JUMPI DUP1 PUSH4 0x280E31CC EQ PUSH2 0x15E JUMPI DUP1 PUSH4 0x2F5E6A05 EQ PUSH2 0x18E JUMPI DUP1 PUSH4 0x323F24AB EQ PUSH2 0x1AC JUMPI DUP1 PUSH4 0x3F4BA83A EQ PUSH2 0x1CA JUMPI JUMPDEST PUSH0 PUSH0 REVERT JUMPDEST PUSH2 0x148 PUSH1 0x4 DUP1 CALLDATASIZE SUB DUP2 ADD SWAP1 PUSH2 0x143 SWAP2 SWAP1 PUSH2 0x1372 JUMP JUMPDEST PUSH2 0x370 JUMP JUMPDEST PUSH1 0x40 MLOAD PUSH2 0x155 SWAP2 SWAP1 PUSH2 0x13BF JUMP JUMPDEST PUSH1 0x40 MLOAD DUP1 SWAP2 SUB SWAP1 RETURN JUMPDEST PUSH2 0x178 PUSH1 0x4 DUP1 CALLDATASIZE SUB DUP2 ADD SWAP1 PUSH2 0x173 SWAP2 SWAP1 PUSH2 0x13D8 JUMP JUMPDEST PUSH2 0x390 JUMP JUMPDEST PUSH1 0x40 MLOAD PUSH2 0x185 SWAP2 SWAP1 PUSH2 0x13BF JUMP JUMPDEST PUSH1 0x40 MLOAD DUP1 SWAP2 SUB SWAP1 RETURN JUMPDEST PUSH2 0x196 PUSH2 0x3A5 JUMP JUMPDEST PUSH1 0x40 MLOAD PUSH2 0x1A3 SWAP2 SWAP1 PUSH2 0x145E JUMP JUMPDEST PUSH1 0x40 MLOAD DUP1 SWAP2 SUB SWAP1 RETURN JUMPDEST PUSH2 0x1B4 PUSH2 0x3CA JUMP JUMPDEST PUSH1 0x40 MLOAD PUSH2 0x1C1 SWAP2 SWAP1 PUSH2 0x1486 JUMP JUMPDEST PUSH1 0x40 MLOAD DUP1 SWAP2 SUB SWAP1 RETURN JUMPDEST PUSH2 0x1D2 PUSH2 0x3EF JUMP JUMPDEST STOP JUMPDEST PUSH2 0x1DC PUSH2 0x401 JUMP JUMPDEST PUSH1 0x40 MLOAD PUSH2 0x1E9 SWAP2 SWAP1 PUSH2 0x1486 JUMP JUMPDEST PUSH1 0x40 MLOAD DUP1 SWAP2 SUB SWAP1 RETURN JUMPDEST PUSH2 0x20C PUSH1 0x4 DUP1 CALLDATASIZE SUB DUP2 ADD SWAP1 PUSH2 0x207 SWAP2 SWAP1 PUSH2 0x13D8 JUMP JUMPDEST PUSH2 0x426 JUMP JUMPDEST STOP JUMPDEST PUSH2 0x216 PUSH2 0x4DF JUMP JUMPDEST PUSH1 0x40 MLOAD PUSH2 0x223 SWAP2 SWAP1 PUSH2 0x14BF JUMP JUMPDEST PUSH1 0x40 MLOAD DUP1 SWAP2 SUB SWAP1 RETURN JUMPDEST PUSH2 0x234 PUSH2 0x504 JUMP JUMPDEST PUSH1 0x40 MLOAD PUSH2 0x241 SWAP2 SWAP1 PUSH2 0x14F2 JUMP JUMPDEST PUSH1 0x40 MLOAD DUP1 SWAP2 SUB SWAP1 RETURN JUMPDEST PUSH2 0x264 PUSH1 0x4 DUP1 CALLDATASIZE SUB DUP2 ADD SWAP1 PUSH2 0x25F SWAP2 SWAP1 PUSH2 0x1372 JUMP JUMPDEST PUSH2 0x519 JUMP JUMPDEST STOP JUMPDEST PUSH2 0x26E PUSH2 0x623 JUMP JUMPDEST STOP JUMPDEST PUSH2 0x28A PUSH1 0x4 DUP1 CALLDATASIZE SUB DUP2 ADD SWAP1 PUSH2 0x285 SWAP2 SWAP1 PUSH2 0x156C JUMP JUMPDEST PUSH2 0x636 JUMP JUMPDEST STOP JUMPDEST PUSH2 0x2A6 PUSH1 0x4 DUP1 CALLDATASIZE SUB DUP2 ADD SWAP1 PUSH2 0x2A1 SWAP2 SWAP1 PUSH2 0x1372 JUMP JUMPDEST PUSH2 0x8BB JUMP JUMPDEST PUSH1 0x40 MLOAD PUSH2 0x2B3 SWAP2 SWAP1 PUSH2 0x14F2 JUMP JUMPDEST PUSH1 0x40 MLOAD DUP1 SWAP2 SUB SWAP1 RETURN JUMPDEST PUSH2 0x2C4 PUSH2 0x8E5 JUMP JUMPDEST STOP JUMPDEST PUSH2 0x2CE PUSH2 0x8F7 JUMP JUMPDEST PUSH1 0x40 MLOAD PUSH2 0x2DB SWAP2 SWAP1 PUSH2 0x1486 JUMP JUMPDEST PUSH1 0x40 MLOAD DUP1 SWAP2 SUB SWAP1 RETURN JUMPDEST PUSH2 0x2FE PUSH1 0x4 DUP1 CALLDATASIZE SUB DUP2 ADD SWAP1 PUSH2 0x2F9 SWAP2 SWAP1 PUSH2 0x13D8 JUMP JUMPDEST PUSH2 0x91E JUMP JUMPDEST STOP JUMPDEST PUSH2 0x31A PUSH1 0x4 DUP1 CALLDATASIZE SUB DUP2 ADD SWAP1 PUSH2 0x315 SWAP2 SWAP1 PUSH2 0x13D8 JUMP JUMPDEST PUSH2 0x9D7 JUMP JUMPDEST STOP JUMPDEST PUSH2 0x336 PUSH1 0x4 DUP1 CALLDATASIZE SUB DUP2 ADD SWAP1 PUSH2 0x331 SWAP2 SWAP1 PUSH2 0x15DD JUMP JUMPDEST PUSH2 0xA90 JUMP JUMPDEST STOP JUMPDEST PUSH2 0x352 PUSH1 0x4 DUP1 CALLDATASIZE SUB DUP2 ADD SWAP1 PUSH2 0x34D SWAP2 SWAP1 PUSH2 0x13D8 JUMP JUMPDEST PUSH2 0xBAC JUMP JUMPDEST STOP JUMPDEST PUSH2 0x36E PUSH1 0x4 DUP1 CALLDATASIZE SUB DUP2 ADD SWAP1 PUSH2 0x369 SWAP2 SWAP1 PUSH2 0x13D8 JUMP JUMPDEST PUSH2 0xC65 JUMP JUMPDEST STOP JUMPDEST PUSH1 0x7 PUSH1 0x20 MSTORE DUP2 PUSH0 MSTORE PUSH1 0x40 PUSH0 KECCAK256 PUSH1 0x20 MSTORE DUP1 PUSH0 MSTORE PUSH1 0x40 PUSH0 KECCAK256 PUSH0 SWAP2 POP SWAP2 POP POP SLOAD DUP2 JUMP JUMPDEST PUSH1 0x6 PUSH1 0x20 MSTORE DUP1 PUSH0 MSTORE PUSH1 0x40 PUSH0 KECCAK256 PUSH0 SWAP2 POP SWAP1 POP SLOAD DUP2 JUMP JUMPDEST PUSH1 0x2 PUSH0 SWAP1 SLOAD SWAP1 PUSH2 0x100 EXP SWAP1 DIV PUSH20 0xFFFFFFFFFFFFFFFFFFFFFFFFFFFFFFFFFFFFFFFF AND DUP2 JUMP JUMPDEST PUSH1 0x5 PUSH0 SWAP1 SLOAD SWAP1 PUSH2 0x100 EXP SWAP1 DIV PUSH20 0xFFFFFFFFFFFFFFFFFFFFFFFFFFFFFFFFFFFFFFFF AND DUP2 JUMP JUMPDEST PUSH2 0x3F7 PUSH2 0xCE9 JUMP JUMPDEST PUSH2 0x3FF PUSH2 0xD70 JUMP JUMPDEST JUMP JUMPDEST PUSH1 0x4 PUSH0 SWAP1 SLOAD SWAP1 PUSH2 0x100 EXP SWAP1 DIV PUSH20 0xFFFFFFFFFFFFFFFFFFFFFFFFFFFFFFFFFFFFFFFF AND DUP2 JUMP JUMPDEST PUSH2 0x42E PUSH2 0xCE9 JUMP JUMPDEST PUSH0 PUSH20 0xFFFFFFFFFFFFFFFFFFFFFFFFFFFFFFFFFFFFFFFF AND DUP2 PUSH20 0xFFFFFFFFFFFFFFFFFFFFFFFFFFFFFFFFFFFFFFFF AND SUB PUSH2 0x49C JUMPI PUSH1 0x40 MLOAD PUSH32 0x8C379A000000000000000000000000000000000000000000000000000000000 DUP2 MSTORE PUSH1 0x4 ADD PUSH2 0x493 SWAP1 PUSH2 0x1687 JUMP JUMPDEST PUSH1 0x40 MLOAD DUP1 SWAP2 SUB SWAP1 REVERT JUMPDEST DUP1 PUSH1 0x3 PUSH0 PUSH2 0x100 EXP DUP2 SLOAD DUP2 PUSH20 0xFFFFFFFFFFFFFFFFFFFFFFFFFFFFFFFFFFFFFFFF MUL NOT AND SWAP1 DUP4 PUSH20 0xFFFFFFFFFFFFFFFFFFFFFFFFFFFFFFFFFFFFFFFF AND MUL OR SWAP1 SSTORE POP POP JUMP JUMPDEST PUSH1 0x3 PUSH0 SWAP1 SLOAD SWAP1 PUSH2 0x100 EXP SWAP1 DIV PUSH20 0xFFFFFFFFFFFFFFFFFFFFFFFFFFFFFFFFFFFFFFFF AND DUP2 JUMP JUMPDEST PUSH0 PUSH0 PUSH1 0x14 SWAP1 SLOAD SWAP1 PUSH2 0x100 EXP SWAP1 DIV PUSH1 0xFF AND SWAP1 POP SWAP1 JUMP JUMPDEST PUSH2 0x521 PUSH2 0xCE9 JUMP JUMPDEST PUSH0 PUSH20 0xFFFFFFFFFFFFFFFFFFFFFFFFFFFFFFFFFFFFFFFF AND DUP3 PUSH20 0xFFFFFFFFFFFFFFFFFFFFFFFFFFFFFFFFFFFFFFFF AND SUB PUSH2 0x58F JUMPI PUSH1 0x40 MLOAD PUSH32 0x8C379A000000000000000000000000000000000000000000000000000000000 DUP2 MSTORE PUSH1 0x4 ADD PUSH2 0x586 SWAP1 PUSH2 0x16EF JUMP JUMPDEST PUSH1 0x40 MLOAD DUP1 SWAP2 SUB SWAP1 REVERT JUMPDEST DUP1 PUSH1 0x6 PUSH0 DUP5 PUSH20 0xFFFFFFFFFFFFFFFFFFFFFFFFFFFFFFFFFFFFFFFF AND PUSH20 0xFFFFFFFFFFFFFFFFFFFFFFFFFFFFFFFFFFFFFFFF AND DUP2 MSTORE PUSH1 0x20 ADD SWAP1 DUP2 MSTORE PUSH1 0x20 ADD PUSH0 KECCAK256 DUP2 SWAP1 SSTORE POP DUP2 PUSH20 0xFFFFFFFFFFFFFFFFFFFFFFFFFFFFFFFFFFFFFFFF AND PUSH32 0x4BD6AEDF6FBD4E9CACAF319DC8D6906FF7F7FD2522898365F92AFAB9CB245444 DUP3 PUSH1 0x40 MLOAD PUSH2 0x617 SWAP2 SWAP1 PUSH2 0x13BF JUMP JUMPDEST PUSH1 0x40 MLOAD DUP1 SWAP2 SUB SWAP1 LOG2 POP POP JUMP JUMPDEST PUSH2 0x62B PUSH2 0xCE9 JUMP JUMPDEST PUSH2 0x634 PUSH0 PUSH2 0xDD1 JUMP JUMPDEST JUMP JUMPDEST PUSH2 0x63E PUSH2 0xE92 JUMP JUMPDEST PUSH2 0x646 PUSH2 0xEDC JUMP JUMPDEST PUSH1 0x8 PUSH0 CALLER PUSH20 0xFFFFFFFFFFFFFFFFFFFFFFFFFFFFFFFFFFFFFFFF AND PUSH20 0xFFFFFFFFFFFFFFFFFFFFFFFFFFFFFFFFFFFFFFFF AND DUP2 MSTORE PUSH1 0x20 ADD SWAP1 DUP2 MSTORE PUSH1 0x20 ADD PUSH0 KECCAK256 PUSH0 DUP6 DUP2 MSTORE PUSH1 0x20 ADD SWAP1 DUP2 MSTORE PUSH1 0x20 ADD PUSH0 KECCAK256 PUSH0 SWAP1 SLOAD SWAP1 PUSH2 0x100 EXP SWAP1 DIV PUSH1 0xFF AND ISZERO PUSH2 0x6DF JUMPI PUSH1 0x40 MLOAD PUSH32 0x8C379A000000000000000000000000000000000000000000000000000000000 DUP2 MSTORE PUSH1 0x4 ADD PUSH2 0x6D6 SWAP1 PUSH2 0x1757 JUMP JUMPDEST PUSH1 0x40 MLOAD DUP1 SWAP2 SUB SWAP1 REVERT JUMPDEST PUSH0 CALLER DUP6 DUP6 PUSH1 0x40 MLOAD PUSH1 0x20 ADD PUSH2 0x6F5 SWAP4 SWAP3 SWAP2 SWAP1 PUSH2 0x17DA JUMP JUMPDEST PUSH1 0x40 MLOAD PUSH1 0x20 DUP2 DUP4 SUB SUB DUP2 MSTORE SWAP1 PUSH1 0x40 MSTORE DUP1 MLOAD SWAP1 PUSH1 0x20 ADD KECCAK256 SWAP1 POP PUSH0 PUSH2 0x717 DUP3 PUSH2 0xF2B JUMP JUMPDEST SWAP1 POP PUSH0 PUSH2 0x767 DUP3 DUP7 DUP7 DUP1 DUP1 PUSH1 0x1F ADD PUSH1 0x20 DUP1 SWAP2 DIV MUL PUSH1 0x20 ADD PUSH1 0x40 MLOAD SWAP1 DUP2 ADD PUSH1 0x40 MSTORE DUP1 SWAP4 SWAP3 SWAP2 SWAP1 DUP2 DUP2 MSTORE PUSH1 0x20 ADD DUP4 DUP4 DUP1 DUP3 DUP5 CALLDATACOPY PUSH0 DUP2 DUP5 ADD MSTORE PUSH1 0x1F NOT PUSH1 0x1F DUP3 ADD AND SWAP1 POP DUP1 DUP4 ADD SWAP3 POP POP POP POP POP POP POP PUSH2 0xF5A JUMP JUMPDEST SWAP1 POP PUSH1 0x5 PUSH0 SWAP1 SLOAD SWAP1 PUSH2 0x100 EXP SWAP1 DIV PUSH20 0xFFFFFFFFFFFFFFFFFFFFFFFFFFFFFFFFFFFFFFFF AND PUSH20 0xFFFFFFFFFFFFFFFFFFFFFFFFFFFFFFFFFFFFFFFF AND DUP2 PUSH20 0xFFFFFFFFFFFFFFFFFFFFFFFFFFFFFFFFFFFFFFFF AND EQ PUSH2 0x7F8 JUMPI PUSH1 0x40 MLOAD PUSH32 0x8C379A000000000000000000000000000000000000000000000000000000000 DUP2 MSTORE PUSH1 0x4 ADD PUSH2 0x7EF SWAP1 PUSH2 0x1860 JUMP JUMPDEST PUSH1 0x40 MLOAD DUP1 SWAP2 SUB SWAP1 REVERT JUMPDEST PUSH1 0x1 PUSH1 0x8 PUSH0 CALLER PUSH20 0xFFFFFFFFFFFFFFFFFFFFFFFFFFFFFFFFFFFFFFFF AND PUSH20 0xFFFFFFFFFFFFFFFFFFFFFFFFFFFFFFFFFFFFFFFF AND DUP2 MSTORE PUSH1 0x20 ADD SWAP1 DUP2 MSTORE PUSH1 0x20 ADD PUSH0 KECCAK256 PUSH0 DUP10 DUP2 MSTORE PUSH1 0x20 ADD SWAP1 DUP2 MSTORE PUSH1 0x20 ADD PUSH0 KECCAK256 PUSH0 PUSH2 0x100 EXP DUP2 SLOAD DUP2 PUSH1 0xFF MUL NOT AND SWAP1 DUP4 ISZERO ISZERO MUL OR SWAP1 SSTORE POP CALLER PUSH20 0xFFFFFFFFFFFFFFFFFFFFFFFFFFFFFFFFFFFFFFFF AND PUSH32 0x106F923F993C2149D49B4255FF723ACAFA1F2D94393F561D3EDA32AE348F7241 DUP9 PUSH1 0x40 MLOAD PUSH2 0x8A2 SWAP2 SWAP1 PUSH2 0x13BF JUMP JUMPDEST PUSH1 0x40 MLOAD DUP1 SWAP2 SUB SWAP1 LOG2 POP POP POP PUSH2 0x8B5 PUSH2 0xF84 JUMP JUMPDEST POP POP POP POP JUMP JUMPDEST PUSH1 0x8 PUSH1 0x20 MSTORE DUP2 PUSH0 MSTORE PUSH1 0x40 PUSH0 KECCAK256 PUSH1 0x20 MSTORE DUP1 PUSH0 MSTORE PUSH1 0x40 PUSH0 KECCAK256 PUSH0 SWAP2 POP SWAP2 POP SWAP1 SLOAD SWAP1 PUSH2 0x100 EXP SWAP1 DIV PUSH1 0xFF AND DUP2 JUMP JUMPDEST PUSH2 0x8ED PUSH2 0xCE9 JUMP JUMPDEST PUSH2 0x8F5 PUSH2 0xF8D JUMP JUMPDEST JUMP JUMPDEST PUSH0 PUSH0 PUSH0 SWAP1 SLOAD SWAP1 PUSH2 0x100 EXP SWAP1 DIV PUSH20 0xFFFFFFFFFFFFFFFFFFFFFFFFFFFFFFFFFFFFFFFF AND SWAP1 POP SWAP1 JUMP JUMPDEST PUSH2 0x926 PUSH2 0xCE9 JUMP JUMPDEST PUSH0 PUSH20 0xFFFFFFFFFFFFFFFFFFFFFFFFFFFFFFFFFFFFFFFF AND DUP2 PUSH20 0xFFFFFFFFFFFFFFFFFFFFFFFFFFFFFFFFFFFFFFFF AND SUB PUSH2 0x994 JUMPI PUSH1 0x40 MLOAD PUSH32 0x8C379A000000000000000000000000000000000000000000000000000000000 DUP2 MSTORE PUSH1 0x4 ADD PUSH2 0x98B SWAP1 PUSH2 0x1687 JUMP JUMPDEST PUSH1 0x40 MLOAD DUP1 SWAP2 SUB SWAP1 REVERT JUMPDEST DUP1 PUSH1 0x4 PUSH0 PUSH2 0x100 EXP DUP2 SLOAD DUP2 PUSH20 0xFFFFFFFFFFFFFFFFFFFFFFFFFFFFFFFFFFFFFFFF MUL NOT AND SWAP1 DUP4 PUSH20 0xFFFFFFFFFFFFFFFFFFFFFFFFFFFFFFFFFFFFFFFF AND MUL OR SWAP1 SSTORE POP POP JUMP JUMPDEST PUSH2 0x9DF PUSH2 0xCE9 JUMP JUMPDEST PUSH0 PUSH20 0xFFFFFFFFFFFFFFFFFFFFFFFFFFFFFFFFFFFFFFFF AND DUP2 PUSH20 0xFFFFFFFFFFFFFFFFFFFFFFFFFFFFFFFFFFFFFFFF AND SUB PUSH2 0xA4D JUMPI PUSH1 0x40 MLOAD PUSH32 0x8C379A000000000000000000000000000000000000000000000000000000000 DUP2 MSTORE PUSH1 0x4 ADD PUSH2 0xA44 SWAP1 PUSH2 0x1687 JUMP JUMPDEST PUSH1 0x40 MLOAD DUP1 SWAP2 SUB SWAP1 REVERT JUMPDEST DUP1 PUSH1 0x2 PUSH0 PUSH2 0x100 EXP DUP2 SLOAD DUP2 PUSH20 0xFFFFFFFFFFFFFFFFFFFFFFFFFFFFFFFFFFFFFFFF MUL NOT AND SWAP1 DUP4 PUSH20 0xFFFFFFFFFFFFFFFFFFFFFFFFFFFFFFFFFFFFFFFF AND MUL OR SWAP1 SSTORE POP POP JUMP JUMPDEST PUSH2 0xA98 PUSH2 0xCE9 JUMP JUMPDEST PUSH0 PUSH20 0xFFFFFFFFFFFFFFFFFFFFFFFFFFFFFFFFFFFFFFFF AND DUP4 PUSH20 0xFFFFFFFFFFFFFFFFFFFFFFFFFFFFFFFFFFFFFFFF AND SUB PUSH2 0xB06 JUMPI PUSH1 0x40 MLOAD PUSH32 0x8C379A000000000000000000000000000000000000000000000000000000000 DUP2 MSTORE PUSH1 0x4 ADD PUSH2 0xAFD SWAP1 PUSH2 0x16EF JUMP JUMPDEST PUSH1 0x40 MLOAD DUP1 SWAP2 SUB SWAP1 REVERT JUMPDEST DUP1 PUSH1 0x7 PUSH0 DUP6 PUSH20 0xFFFFFFFFFFFFFFFFFFFFFFFFFFFFFFFFFFFFFFFF AND PUSH20 0xFFFFFFFFFFFFFFFFFFFFFFFFFFFFFFFFFFFFFFFF AND DUP2 MSTORE PUSH1 0x20 ADD SWAP1 DUP2 MSTORE PUSH1 0x20 ADD PUSH0 KECCAK256 PUSH0 DUP5 DUP2 MSTORE PUSH1 0x20 ADD SWAP1 DUP2 MSTORE PUSH1 0x20 ADD PUSH0 KECCAK256 DUP2 SWAP1 SSTORE POP DUP3 PUSH20 0xFFFFFFFFFFFFFFFFFFFFFFFFFFFFFFFFFFFFFFFF AND PUSH32 0x95B529CEB2B4C5026133EAFCB0F6E7E63F17C39398D1B67E14569272CF3C956B DUP4 DUP4 PUSH1 0x40 MLOAD PUSH2 0xB9F SWAP3 SWAP2 SWAP1 PUSH2 0x187E JUMP JUMPDEST PUSH1 0x40 MLOAD DUP1 SWAP2 SUB SWAP1 LOG2 POP POP POP JUMP JUMPDEST PUSH2 0xBB4 PUSH2 0xCE9 JUMP JUMPDEST PUSH0 PUSH20 0xFFFFFFFFFFFFFFFFFFFFFFFFFFFFFFFFFFFFFFFF AND DUP2 PUSH20 0xFFFFFFFFFFFFFFFFFFFFFFFFFFFFFFFFFFFFFFFF AND SUB PUSH2 0xC22 JUMPI PUSH1 0x40 MLOAD PUSH32 0x8C379A000000000000000000000000000000000000000000000000000000000 DUP2 MSTORE PUSH1 0x4 ADD PUSH2 0xC19 SWAP1 PUSH2 0x1687 JUMP JUMPDEST PUSH1 0x40 MLOAD DUP1 SWAP2 SUB SWAP1 REVERT JUMPDEST DUP1 PUSH1 0x5 PUSH0 PUSH2 0x100 EXP DUP2 SLOAD DUP2 PUSH20 0xFFFFFFFFFFFFFFFFFFFFFFFFFFFFFFFFFFFFFFFF MUL NOT AND SWAP1 DUP4 PUSH20 0xFFFFFFFFFFFFFFFFFFFFFFFFFFFFFFFFFFFFFFFF AND MUL OR SWAP1 SSTORE POP POP JUMP JUMPDEST PUSH2 0xC6D PUSH2 0xCE9 JUMP JUMPDEST PUSH0 PUSH20 0xFFFFFFFFFFFFFFFFFFFFFFFFFFFFFFFFFFFFFFFF AND DUP2 PUSH20 0xFFFFFFFFFFFFFFFFFFFFFFFFFFFFFFFFFFFFFFFF AND SUB PUSH2 0xCDD JUMPI PUSH0 PUSH1 0x40 MLOAD PUSH32 0x1E4FBDF700000000000000000000000000000000000000000000000000000000 DUP2 MSTORE PUSH1 0x4 ADD PUSH2 0xCD4 SWAP2 SWAP1 PUSH2 0x1486 JUMP JUMPDEST PUSH1 0x40 MLOAD DUP1 SWAP2 SUB SWAP1 REVERT JUMPDEST PUSH2 0xCE6 DUP2 PUSH2 0xDD1 JUMP JUMPDEST POP JUMP JUMPDEST PUSH2 0xCF1 PUSH2 0xFEF JUMP JUMPDEST PUSH20 0xFFFFFFFFFFFFFFFFFFFFFFFFFFFFFFFFFFFFFFFF AND PUSH2 0xD0F PUSH2 0x8F7 JUMP JUMPDEST PUSH20 0xFFFFFFFFFFFFFFFFFFFFFFFFFFFFFFFFFFFFFFFF AND EQ PUSH2 0xD6E JUMPI PUSH2 0xD32 PUSH2 0xFEF JUMP JUMPDEST PUSH1 0x40 MLOAD PUSH32 0x118CDAA700000000000000000000000000000000000000000000000000000000 DUP2 MSTORE PUSH1 0x4 ADD PUSH2 0xD65 SWAP2 SWAP1 PUSH2 0x1486 JUMP JUMPDEST PUSH1 0x40 MLOAD DUP1 SWAP2 SUB SWAP1 REVERT JUMPDEST JUMP JUMPDEST PUSH2 0xD78 PUSH2 0xFF6 JUMP JUMPDEST PUSH0 PUSH0 PUSH1 0x14 PUSH2 0x100 EXP DUP2 SLOAD DUP2 PUSH1 0xFF MUL NOT AND SWAP1 DUP4 ISZERO ISZERO MUL OR SWAP1 SSTORE POP PUSH32 0x5DB9EE0A495BF2E6FF9C91A7834C1BA4FDD244A5E8AA4E537BD38AEAE4B073AA PUSH2 0xDBA PUSH2 0xFEF JUMP JUMPDEST PUSH1 0x40 MLOAD PUSH2 0xDC7 SWAP2 SWAP1 PUSH2 0x1486 JUMP JUMPDEST PUSH1 0x40 MLOAD DUP1 SWAP2 SUB SWAP1 LOG1 JUMP JUMPDEST PUSH0 PUSH0 PUSH0 SWAP1 SLOAD SWAP1 PUSH2 0x100 EXP SWAP1 DIV PUSH20 0xFFFFFFFFFFFFFFFFFFFFFFFFFFFFFFFFFFFFFFFF AND SWAP1 POP DUP2 PUSH0 PUSH0 PUSH2 0x100 EXP DUP2 SLOAD DUP2 PUSH20 0xFFFFFFFFFFFFFFFFFFFFFFFFFFFFFFFFFFFFFFFF MUL NOT AND SWAP1 DUP4 PUSH20 0xFFFFFFFFFFFFFFFFFFFFFFFFFFFFFFFFFFFFFFFF AND MUL OR SWAP1 SSTORE POP DUP2 PUSH20 0xFFFFFFFFFFFFFFFFFFFFFFFFFFFFFFFFFFFFFFFF AND DUP2 PUSH20 0xFFFFFFFFFFFFFFFFFFFFFFFFFFFFFFFFFFFFFFFF AND PUSH32 0x8BE0079C531659141344CD1FD0A4F28419497F9722A3DAAFE3B4186F6B6457E0 PUSH1 0x40 MLOAD PUSH1 0x40 MLOAD DUP1 SWAP2 SUB SWAP1 LOG3 POP POP JUMP JUMPDEST PUSH2 0xE9A PUSH2 0x504 JUMP JUMPDEST ISZERO PUSH2 0xEDA JUMPI PUSH1 0x40 MLOAD PUSH32 0x8C379A000000000000000000000000000000000000000000000000000000000 DUP2 MSTORE PUSH1 0x4 ADD PUSH2 0xED1 SWAP1 PUSH2 0x18EF JUMP JUMPDEST PUSH1 0x40 MLOAD DUP1 SWAP2 SUB SWAP1 REVERT JUMPDEST JUMP JUMPDEST PUSH1 0x2 PUSH1 0x1 SLOAD SUB PUSH2 0xF21 JUMPI PUSH1 0x40 MLOAD PUSH32 0x8C379A000000000000000000000000000000000000000000000000000000000 DUP2 MSTORE PUSH1 0x4 ADD PUSH2 0xF18 SWAP1 PUSH2 0x1957 JUMP JUMPDEST PUSH1 0x40 MLOAD DUP1 SWAP2 SUB SWAP1 REVERT JUMPDEST PUSH1 0x2 PUSH1 0x1 DUP2 SWAP1 SSTORE POP JUMP JUMPDEST PUSH0 DUP2 PUSH1 0x40 MLOAD PUSH1 0x20 ADD PUSH2 0xF3D SWAP2 SWAP1 PUSH2 0x19F2 JUMP JUMPDEST PUSH1 0x40 MLOAD PUSH1 0x20 DUP2 DUP4 SUB SUB DUP2 MSTORE SWAP1 PUSH1 0x40 MSTORE DUP1 MLOAD SWAP1 PUSH1 0x20 ADD KECCAK256 SWAP1 POP SWAP2 SWAP1 POP JUMP JUMPDEST PUSH0 PUSH0 PUSH0 PUSH0 PUSH2 0xF68 DUP7 DUP7 PUSH2 0x103F JUMP JUMPDEST SWAP3 POP SWAP3 POP SWAP3 POP PUSH2 0xF78 DUP3 DUP3 PUSH2 0x1094 JUMP JUMPDEST DUP3 SWAP4 POP POP POP POP SWAP3 SWAP2 POP POP JUMP JUMPDEST PUSH1 0x1 DUP1 DUP2 SWAP1 SSTORE POP JUMP JUMPDEST PUSH2 0xF95 PUSH2 0xE92 JUMP JUMPDEST PUSH1 0x1 PUSH0 PUSH1 0x14 PUSH2 0x100 EXP DUP2 SLOAD DUP2 PUSH1 0xFF MUL NOT AND SWAP1 DUP4 ISZERO ISZERO MUL OR SWAP1 SSTORE POP PUSH32 0x62E78CEA01BEE320CD4E420270B5EA74000D11B0C9F74754EBDBFC544B05A258 PUSH2 0xFD8 PUSH2 0xFEF JUMP JUMPDEST PUSH1 0x40 MLOAD PUSH2 0xFE5 SWAP2 SWAP1 PUSH2 0x1486 JUMP JUMPDEST PUSH1 0x40 MLOAD DUP1 SWAP2 SUB SWAP1 LOG1 JUMP JUMPDEST PUSH0 CALLER SWAP1 POP SWAP1 JUMP JUMPDEST PUSH2 0xFFE PUSH2 0x504 JUMP JUMPDEST PUSH2 0x103D JUMPI PUSH1 0x40 MLOAD PUSH32 0x8C379A000000000000000000000000000000000000000000000000000000000 DUP2 MSTORE PUSH1 0x4 ADD PUSH2 0x1034 SWAP1 PUSH2 0x1A61 JUMP JUMPDEST PUSH1 0x40 MLOAD DUP1 SWAP2 SUB SWAP1 REVERT JUMPDEST JUMP JUMPDEST PUSH0 PUSH0 PUSH0 PUSH1 0x41 DUP5 MLOAD SUB PUSH2 0x107F JUMPI PUSH0 PUSH0 PUSH0 PUSH1 0x20 DUP8 ADD MLOAD SWAP3 POP PUSH1 0x40 DUP8 ADD MLOAD SWAP2 POP PUSH1 0x60 DUP8 ADD MLOAD PUSH0 BYTE SWAP1 POP PUSH2 0x1071 DUP9 DUP3 DUP6 DUP6 PUSH2 0x11F6 JUMP JUMPDEST SWAP6 POP SWAP6 POP SWAP6 POP POP POP POP PUSH2 0x108D JUMP JUMPDEST PUSH0 PUSH1 0x2 DUP6 MLOAD PUSH0 SHL SWAP3 POP SWAP3 POP SWAP3 POP JUMPDEST SWAP3 POP SWAP3 POP SWAP3 JUMP JUMPDEST PUSH0 PUSH1 0x3 DUP2 GT ISZERO PUSH2 0x10A7 JUMPI PUSH2 0x10A6 PUSH2 0x1A7F JUMP JUMPDEST JUMPDEST DUP3 PUSH1 0x3 DUP2 GT ISZERO PUSH2 0x10BA JUMPI PUSH2 0x10B9 PUSH2 0x1A7F JUMP JUMPDEST JUMPDEST SUB ISZERO PUSH2 0x11F2 JUMPI PUSH1 0x1 PUSH1 0x3 DUP2 GT ISZERO PUSH2 0x10D4 JUMPI PUSH2 0x10D3 PUSH2 0x1A7F JUMP JUMPDEST JUMPDEST DUP3 PUSH1 0x3 DUP2 GT ISZERO PUSH2 0x10E7 JUMPI PUSH2 0x10E6 PUSH2 0x1A7F JUMP JUMPDEST JUMPDEST SUB PUSH2 0x111E JUMPI PUSH1 0x40 MLOAD PUSH32 0xF645EEDF00000000000000000000000000000000000000000000000000000000 DUP2 MSTORE PUSH1 0x4 ADD PUSH1 0x40 MLOAD DUP1 SWAP2 SUB SWAP1 REVERT JUMPDEST PUSH1 0x2 PUSH1 0x3 DUP2 GT ISZERO PUSH2 0x1132 JUMPI PUSH2 0x1131 PUSH2 0x1A7F JUMP JUMPDEST JUMPDEST DUP3 PUSH1 0x3 DUP2 GT ISZERO PUSH2 0x1145 JUMPI PUSH2 0x1144 PUSH2 0x1A7F JUMP JUMPDEST JUMPDEST SUB PUSH2 0x1189 JUMPI DUP1 PUSH0 SHR PUSH1 0x40 MLOAD PUSH32 0xFCE698F700000000000000000000000000000000000000000000000000000000 DUP2 MSTORE PUSH1 0x4 ADD PUSH2 0x1180 SWAP2 SWAP1 PUSH2 0x13BF JUMP JUMPDEST PUSH1 0x40 MLOAD DUP1 SWAP2 SUB SWAP1 REVERT JUMPDEST PUSH1 0x3 DUP1 DUP2 GT ISZERO PUSH2 0x119C JUMPI PUSH2 0x119B PUSH2 0x1A7F JUMP JUMPDEST JUMPDEST DUP3 PUSH1 0x3 DUP2 GT ISZERO PUSH2 0x11AF JUMPI PUSH2 0x11AE PUSH2 0x1A7F JUMP JUMPDEST JUMPDEST SUB PUSH2 0x11F1 JUMPI DUP1 PUSH1 0x40 MLOAD PUSH32 0xD78BCE0C00000000000000000000000000000000000000000000000000000000 DUP2 MSTORE PUSH1 0x4 ADD PUSH2 0x11E8 SWAP2 SWAP1 PUSH2 0x1ABB JUMP JUMPDEST PUSH1 0x40 MLOAD DUP1 SWAP2 SUB SWAP1 REVERT JUMPDEST JUMPDEST POP POP JUMP JUMPDEST PUSH0 PUSH0 PUSH0 PUSH32 0x7FFFFFFFFFFFFFFFFFFFFFFFFFFFFFFF5D576E7357A4501DDFE92F46681B20A0 DUP5 PUSH0 SHR GT ISZERO PUSH2 0x1232 JUMPI PUSH0 PUSH1 0x3 DUP6 SWAP3 POP SWAP3 POP SWAP3 POP PUSH2 0x12D3 JUMP JUMPDEST PUSH0 PUSH1 0x1 DUP9 DUP9 DUP9 DUP9 PUSH1 0x40 MLOAD PUSH0 DUP2 MSTORE PUSH1 0x20 ADD PUSH1 0x40 MSTORE PUSH1 0x40 MLOAD PUSH2 0x1255 SWAP5 SWAP4 SWAP3 SWAP2 SWAP1 PUSH2 0x1AEF JUMP JUMPDEST PUSH1 0x20 PUSH1 0x40 MLOAD PUSH1 0x20 DUP2 SUB SWAP1 DUP1 DUP5 SUB SWAP1 DUP6 GAS STATICCALL ISZERO DUP1 ISZERO PUSH2 0x1275 JUMPI RETURNDATASIZE PUSH0 PUSH0 RETURNDATACOPY RETURNDATASIZE PUSH0 REVERT JUMPDEST POP POP POP PUSH1 0x20 PUSH1 0x40 MLOAD SUB MLOAD SWAP1 POP PUSH0 PUSH20 0xFFFFFFFFFFFFFFFFFFFFFFFFFFFFFFFFFFFFFFFF AND DUP2 PUSH20 0xFFFFFFFFFFFFFFFFFFFFFFFFFFFFFFFFFFFFFFFF AND SUB PUSH2 0x12C6 JUMPI PUSH0 PUSH1 0x1 PUSH0 PUSH0 SHL SWAP4 POP SWAP4 POP SWAP4 POP POP PUSH2 0x12D3 JUMP JUMPDEST DUP1 PUSH0 PUSH0 PUSH0 SHL SWAP4 POP SWAP4 POP SWAP4 POP POP JUMPDEST SWAP5 POP SWAP5 POP SWAP5 SWAP2 POP POP JUMP JUMPDEST PUSH0 PUSH0 REVERT JUMPDEST PUSH0 PUSH0 REVERT JUMPDEST PUSH0 PUSH20 0xFFFFFFFFFFFFFFFFFFFFFFFFFFFFFFFFFFFFFFFF DUP3 AND SWAP1 POP SWAP2 SWAP1 POP JUMP JUMPDEST PUSH0 PUSH2 0x130E DUP3 PUSH2 0x12E5 JUMP JUMPDEST SWAP1 POP SWAP2 SWAP1 POP JUMP JUMPDEST PUSH2 0x131E DUP2 PUSH2 0x1304 JUMP JUMPDEST DUP2 EQ PUSH2 0x1328 JUMPI PUSH0 PUSH0 REVERT JUMPDEST POP JUMP JUMPDEST PUSH0 DUP2 CALLDATALOAD SWAP1 POP PUSH2 0x1339 DUP2 PUSH2 0x1315 JUMP JUMPDEST SWAP3 SWAP2 POP POP JUMP JUMPDEST PUSH0 DUP2 SWAP1 POP SWAP2 SWAP1 POP JUMP JUMPDEST PUSH2 0x1351 DUP2 PUSH2 0x133F JUMP JUMPDEST DUP2 EQ PUSH2 0x135B JUMPI PUSH0 PUSH0 REVERT JUMPDEST POP JUMP JUMPDEST PUSH0 DUP2 CALLDATALOAD SWAP1 POP PUSH2 0x136C DUP2 PUSH2 0x1348 JUMP JUMPDEST SWAP3 SWAP2 POP POP JUMP JUMPDEST PUSH0 PUSH0 PUSH1 0x40 DUP4 DUP6 SUB SLT ISZERO PUSH2 0x1388 JUMPI PUSH2 0x1387 PUSH2 0x12DD JUMP JUMPDEST JUMPDEST PUSH0 PUSH2 0x1395 DUP6 DUP3 DUP7 ADD PUSH2 0x132B JUMP JUMPDEST SWAP3 POP POP PUSH1 0x20 PUSH2 0x13A6 DUP6 DUP3 DUP7 ADD PUSH2 0x135E JUMP JUMPDEST SWAP2 POP POP SWAP3 POP SWAP3 SWAP1 POP JUMP JUMPDEST PUSH2 0x13B9 DUP2 PUSH2 0x133F JUMP JUMPDEST DUP3 MSTORE POP POP JUMP JUMPDEST PUSH0 PUSH1 0x20 DUP3 ADD SWAP1 POP PUSH2 0x13D2 PUSH0 DUP4 ADD DUP5 PUSH2 0x13B0 JUMP JUMPDEST SWAP3 SWAP2 POP POP JUMP JUMPDEST PUSH0 PUSH1 0x20 DUP3 DUP5 SUB SLT ISZERO PUSH2 0x13ED JUMPI PUSH2 0x13EC PUSH2 0x12DD JUMP JUMPDEST JUMPDEST PUSH0 PUSH2 0x13FA DUP5 DUP3 DUP6 ADD PUSH2 0x132B JUMP JUMPDEST SWAP2 POP POP SWAP3 SWAP2 POP POP JUMP JUMPDEST PUSH0 DUP2 SWAP1 POP SWAP2 SWAP1 POP JUMP JUMPDEST PUSH0 PUSH2 0x1426 PUSH2 0x1421 PUSH2 0x141C DUP5 PUSH2 0x12E5 JUMP JUMPDEST PUSH2 0x1403 JUMP JUMPDEST PUSH2 0x12E5 JUMP JUMPDEST SWAP1 POP SWAP2 SWAP1 POP JUMP JUMPDEST PUSH0 PUSH2 0x1437 DUP3 PUSH2 0x140C JUMP JUMPDEST SWAP1 POP SWAP2 SWAP1 POP JUMP JUMPDEST PUSH0 PUSH2 0x1448 DUP3 PUSH2 0x142D JUMP JUMPDEST SWAP1 POP SWAP2 SWAP1 POP JUMP JUMPDEST PUSH2 0x1458 DUP2 PUSH2 0x143E JUMP JUMPDEST DUP3 MSTORE POP POP JUMP JUMPDEST PUSH0 PUSH1 0x20 DUP3 ADD SWAP1 POP PUSH2 0x1471 PUSH0 DUP4 ADD DUP5 PUSH2 0x144F JUMP JUMPDEST SWAP3 SWAP2 POP POP JUMP JUMPDEST PUSH2 0x1480 DUP2 PUSH2 0x1304 JUMP JUMPDEST DUP3 MSTORE POP POP JUMP JUMPDEST PUSH0 PUSH1 0x20 DUP3 ADD SWAP1 POP PUSH2 0x1499 PUSH0 DUP4 ADD DUP5 PUSH2 0x1477 JUMP JUMPDEST SWAP3 SWAP2 POP POP JUMP JUMPDEST PUSH0 PUSH2 0x14A9 DUP3 PUSH2 0x142D JUMP JUMPDEST SWAP1 POP SWAP2 SWAP1 POP JUMP JUMPDEST PUSH2 0x14B9 DUP2 PUSH2 0x149F JUMP JUMPDEST DUP3 MSTORE POP POP JUMP JUMPDEST PUSH0 PUSH1 0x20 DUP3 ADD SWAP1 POP PUSH2 0x14D2 PUSH0 DUP4 ADD DUP5 PUSH2 0x14B0 JUMP JUMPDEST SWAP3 SWAP2 POP POP JUMP JUMPDEST PUSH0 DUP2 ISZERO ISZERO SWAP1 POP SWAP2 SWAP1 POP JUMP JUMPDEST PUSH2 0x14EC DUP2 PUSH2 0x14D8 JUMP JUMPDEST DUP3 MSTORE POP POP JUMP JUMPDEST PUSH0 PUSH1 0x20 DUP3 ADD SWAP1 POP PUSH2 0x1505 PUSH0 DUP4 ADD DUP5 PUSH2 0x14E3 JUMP JUMPDEST SWAP3 SWAP2 POP POP JUMP JUMPDEST PUSH0 PUSH0 REVERT JUMPDEST PUSH0 PUSH0 REVERT JUMPDEST PUSH0 PUSH0 REVERT JUMPDEST PUSH0 PUSH0 DUP4 PUSH1 0x1F DUP5 ADD SLT PUSH2 0x152C JUMPI PUSH2 0x152B PUSH2 0x150B JUMP JUMPDEST JUMPDEST DUP3 CALLDATALOAD SWAP1 POP PUSH8 0xFFFFFFFFFFFFFFFF DUP2 GT ISZERO PUSH2 0x1549 JUMPI PUSH2 0x1548 PUSH2 0x150F JUMP JUMPDEST JUMPDEST PUSH1 0x20 DUP4 ADD SWAP2 POP DUP4 PUSH1 0x1 DUP3 MUL DUP4 ADD GT ISZERO PUSH2 0x1565 JUMPI PUSH2 0x1564 PUSH2 0x1513 JUMP JUMPDEST JUMPDEST SWAP3 POP SWAP3 SWAP1 POP JUMP JUMPDEST PUSH0 PUSH0 PUSH0 PUSH0 PUSH1 0x60 DUP6 DUP8 SUB SLT ISZERO PUSH2 0x1584 JUMPI PUSH2 0x1583 PUSH2 0x12DD JUMP JUMPDEST JUMPDEST PUSH0 PUSH2 0x1591 DUP8 DUP3 DUP9 ADD PUSH2 0x135E JUMP JUMPDEST SWAP5 POP POP PUSH1 0x20 PUSH2 0x15A2 DUP8 DUP3 DUP9 ADD PUSH2 0x135E JUMP JUMPDEST SWAP4 POP POP PUSH1 0x40 DUP6 ADD CALLDATALOAD PUSH8 0xFFFFFFFFFFFFFFFF DUP2 GT ISZERO PUSH2 0x15C3 JUMPI PUSH2 0x15C2 PUSH2 0x12E1 JUMP JUMPDEST JUMPDEST PUSH2 0x15CF DUP8 DUP3 DUP9 ADD PUSH2 0x1517 JUMP JUMPDEST SWAP3 POP SWAP3 POP POP SWAP3 SWAP6 SWAP2 SWAP5 POP SWAP3 POP JUMP JUMPDEST PUSH0 PUSH0 PUSH0 PUSH1 0x60 DUP5 DUP7 SUB SLT ISZERO PUSH2 0x15F4 JUMPI PUSH2 0x15F3 PUSH2 0x12DD JUMP JUMPDEST JUMPDEST PUSH0 PUSH2 0x1601 DUP7 DUP3 DUP8 ADD PUSH2 0x132B JUMP JUMPDEST SWAP4 POP POP PUSH1 0x20 PUSH2 0x1612 DUP7 DUP3 DUP8 ADD PUSH2 0x135E JUMP JUMPDEST SWAP3 POP POP PUSH1 0x40 PUSH2 0x1623 DUP7 DUP3 DUP8 ADD PUSH2 0x135E JUMP JUMPDEST SWAP2 POP POP SWAP3 POP SWAP3 POP SWAP3 JUMP JUMPDEST PUSH0 DUP3 DUP3 MSTORE PUSH1 0x20 DUP3 ADD SWAP1 POP SWAP3 SWAP2 POP POP JUMP JUMPDEST PUSH32 0x7A65726F20616464720000000000000000000000000000000000000000000000 PUSH0 DUP3 ADD MSTORE POP JUMP JUMPDEST PUSH0 PUSH2 0x1671 PUSH1 0x9 DUP4 PUSH2 0x162D JUMP JUMPDEST SWAP2 POP PUSH2 0x167C DUP3 PUSH2 0x163D JUMP JUMPDEST PUSH1 0x20 DUP3 ADD SWAP1 POP SWAP2 SWAP1 POP JUMP JUMPDEST PUSH0 PUSH1 0x20 DUP3 ADD SWAP1 POP DUP2 DUP2 SUB PUSH0 DUP4 ADD MSTORE PUSH2 0x169E DUP2 PUSH2 0x1665 JUMP JUMPDEST SWAP1 POP SWAP2 SWAP1 POP JUMP JUMPDEST PUSH32 0x7A65726F20757365720000000000000000000000000000000000000000000000 PUSH0 DUP3 ADD MSTORE POP JUMP JUMPDEST PUSH0 PUSH2 0x16D9 PUSH1 0x9 DUP4 PUSH2 0x162D JUMP JUMPDEST SWAP2 POP PUSH2 0x16E4 DUP3 PUSH2 0x16A5 JUMP JUMPDEST PUSH1 0x20 DUP3 ADD SWAP1 POP SWAP2 SWAP1 POP JUMP JUMPDEST PUSH0 PUSH1 0x20 DUP3 ADD SWAP1 POP DUP2 DUP2 SUB PUSH0 DUP4 ADD MSTORE PUSH2 0x1706 DUP2 PUSH2 0x16CD JUMP JUMPDEST SWAP1 POP SWAP2 SWAP1 POP JUMP JUMPDEST PUSH32 0x616C726561647920636C61696D65640000000000000000000000000000000000 PUSH0 DUP3 ADD MSTORE POP JUMP JUMPDEST PUSH0 PUSH2 0x1741 PUSH1 0xF DUP4 PUSH2 0x162D JUMP JUMPDEST SWAP2 POP PUSH2 0x174C DUP3 PUSH2 0x170D JUMP JUMPDEST PUSH1 0x20 DUP3 ADD SWAP1 POP SWAP2 SWAP1 POP JUMP JUMPDEST PUSH0 PUSH1 0x20 DUP3 ADD SWAP1 POP DUP2 DUP2 SUB PUSH0 DUP4 ADD MSTORE PUSH2 0x176E DUP2 PUSH2 0x1735 JUMP JUMPDEST SWAP1 POP SWAP2 SWAP1 POP JUMP JUMPDEST PUSH0 DUP2 PUSH1 0x60 SHL SWAP1 POP SWAP2 SWAP1 POP JUMP JUMPDEST PUSH0 PUSH2 0x178B DUP3 PUSH2 0x1775 JUMP JUMPDEST SWAP1 POP SWAP2 SWAP1 POP JUMP JUMPDEST PUSH0 PUSH2 0x179C DUP3 PUSH2 0x1781 JUMP JUMPDEST SWAP1 POP SWAP2 SWAP1 POP JUMP JUMPDEST PUSH2 0x17B4 PUSH2 0x17AF DUP3 PUSH2 0x1304 JUMP JUMPDEST PUSH2 0x1792 JUMP JUMPDEST DUP3 MSTORE POP POP JUMP JUMPDEST PUSH0 DUP2 SWAP1 POP SWAP2 SWAP1 POP JUMP JUMPDEST PUSH2 0x17D4 PUSH2 0x17CF DUP3 PUSH2 0x133F JUMP JUMPDEST PUSH2 0x17BA JUMP JUMPDEST DUP3 MSTORE POP POP JUMP JUMPDEST PUSH0 PUSH2 0x17E5 DUP3 DUP7 PUSH2 0x17A3 JUMP JUMPDEST PUSH1 0x14 DUP3 ADD SWAP2 POP PUSH2 0x17F5 DUP3 DUP6 PUSH2 0x17C3 JUMP JUMPDEST PUSH1 0x20 DUP3 ADD SWAP2 POP PUSH2 0x1805 DUP3 DUP5 PUSH2 0x17C3 JUMP JUMPDEST PUSH1 0x20 DUP3 ADD SWAP2 POP DUP2 SWAP1 POP SWAP5 SWAP4 POP POP POP POP JUMP JUMPDEST PUSH32 0x696E76616C6964207369676E6174757265000000000000000000000000000000 PUSH0 DUP3 ADD MSTORE POP JUMP JUMPDEST PUSH0 PUSH2 0x184A PUSH1 0x11 DUP4 PUSH2 0x162D JUMP JUMPDEST SWAP2 POP PUSH2 0x1855 DUP3 PUSH2 0x1816 JUMP JUMPDEST PUSH1 0x20 DUP3 ADD SWAP1 POP SWAP2 SWAP1 POP JUMP JUMPDEST PUSH0 PUSH1 0x20 DUP3 ADD SWAP1 POP DUP2 DUP2 SUB PUSH0 DUP4 ADD MSTORE PUSH2 0x1877 DUP2 PUSH2 0x183E JUMP JUMPDEST SWAP1 POP SWAP2 SWAP1 POP JUMP JUMPDEST PUSH0 PUSH1 0x40 DUP3 ADD SWAP1 POP PUSH2 0x1891 PUSH0 DUP4 ADD DUP6 PUSH2 0x13B0 JUMP JUMPDEST PUSH2 0x189E PUSH1 0x20 DUP4 ADD DUP5 PUSH2 0x13B0 JUMP JUMPDEST SWAP4 SWAP3 POP POP POP JUMP JUMPDEST PUSH32 0x5061757361626C653A2070617573656400000000000000000000000000000000 PUSH0 DUP3 ADD MSTORE POP JUMP JUMPDEST PUSH0 PUSH2 0x18D9 PUSH1 0x10 DUP4 PUSH2 0x162D JUMP JUMPDEST SWAP2 POP PUSH2 0x18E4 DUP3 PUSH2 0x18A5 JUMP JUMPDEST PUSH1 0x20 DUP3 ADD SWAP1 POP SWAP2 SWAP1 POP JUMP JUMPDEST PUSH0 PUSH1 0x20 DUP3 ADD SWAP1 POP DUP2 DUP2 SUB PUSH0 DUP4 ADD MSTORE PUSH2 0x1906 DUP2 PUSH2 0x18CD JUMP JUMPDEST SWAP1 POP SWAP2 SWAP1 POP JUMP JUMPDEST PUSH32 0x5265656E7472616E637947756172643A207265656E7472616E742063616C6C00 PUSH0 DUP3 ADD MSTORE POP JUMP JUMPDEST PUSH0 PUSH2 0x1941 PUSH1 0x1F DUP4 PUSH2 0x162D JUMP JUMPDEST SWAP2 POP PUSH2 0x194C DUP3 PUSH2 0x190D JUMP JUMPDEST PUSH1 0x20 DUP3 ADD SWAP1 POP SWAP2 SWAP1 POP JUMP JUMPDEST PUSH0 PUSH1 0x20 DUP3 ADD SWAP1 POP DUP2 DUP2 SUB PUSH0 DUP4 ADD MSTORE PUSH2 0x196E DUP2 PUSH2 0x1935 JUMP JUMPDEST SWAP1 POP SWAP2 SWAP1 POP JUMP JUMPDEST PUSH0 DUP2 SWAP1 POP SWAP3 SWAP2 POP POP JUMP JUMPDEST PUSH32 0x19457468657265756D205369676E6564204D6573736167653A0A333200000000 PUSH0 DUP3 ADD MSTORE POP JUMP JUMPDEST PUSH0 PUSH2 0x19B3 PUSH1 0x1C DUP4 PUSH2 0x1975 JUMP JUMPDEST SWAP2 POP PUSH2 0x19BE DUP3 PUSH2 0x197F JUMP JUMPDEST PUSH1 0x1C DUP3 ADD SWAP1 POP SWAP2 SWAP1 POP JUMP JUMPDEST PUSH0 DUP2 SWAP1 POP SWAP2 SWAP1 POP JUMP JUMPDEST PUSH0 DUP2 SWAP1 POP SWAP2 SWAP1 POP JUMP JUMPDEST PUSH2 0x19EC PUSH2 0x19E7 DUP3 PUSH2 0x19C9 JUMP JUMPDEST PUSH2 0x19D2 JUMP JUMPDEST DUP3 MSTORE POP POP JUMP JUMPDEST PUSH0 PUSH2 0x19FC DUP3 PUSH2 0x19A7 JUMP JUMPDEST SWAP2 POP PUSH2 0x1A08 DUP3 DUP5 PUSH2 0x19DB JUMP JUMPDEST PUSH1 0x20 DUP3 ADD SWAP2 POP DUP2 SWAP1 POP SWAP3 SWAP2 POP POP JUMP JUMPDEST PUSH32 0x5061757361626C653A206E6F7420706175736564000000000000000000000000 PUSH0 DUP3 ADD MSTORE POP JUMP JUMPDEST PUSH0 PUSH2 0x1A4B PUSH1 0x14 DUP4 PUSH2 0x162D JUMP JUMPDEST SWAP2 POP PUSH2 0x1A56 DUP3 PUSH2 0x1A17 JUMP JUMPDEST PUSH1 0x20 DUP3 ADD SWAP1 POP SWAP2 SWAP1 POP JUMP JUMPDEST PUSH0 PUSH1 0x20 DUP3 ADD SWAP1 POP DUP2 DUP2 SUB PUSH0 DUP4 ADD MSTORE PUSH2 0x1A78 DUP2 PUSH2 0x1A3F JUMP JUMPDEST SWAP1 POP SWAP2 SWAP1 POP JUMP JUMPDEST PUSH32 0x4E487B7100000000000000000000000000000000000000000000000000000000 PUSH0 MSTORE PUSH1 0x21 PUSH1 0x4 MSTORE PUSH1 0x24 PUSH0 REVERT JUMPDEST PUSH2 0x1AB5 DUP2 PUSH2 0x19C9 JUMP JUMPDEST DUP3 MSTORE POP POP JUMP JUMPDEST PUSH0 PUSH1 0x20 DUP3 ADD SWAP1 POP PUSH2 0x1ACE PUSH0 DUP4 ADD DUP5 PUSH2 0x1AAC JUMP JUMPDEST SWAP3 SWAP2 POP POP JUMP JUMPDEST PUSH0 PUSH1 0xFF DUP3 AND SWAP1 POP SWAP2 SWAP1 POP JUMP JUMPDEST PUSH2 0x1AE9 DUP2 PUSH2 0x1AD4 JUMP JUMPDEST DUP3 MSTORE POP POP JUMP JUMPDEST PUSH0 PUSH1 0x80 DUP3 ADD SWAP1 POP PUSH2 0x1B02 PUSH0 DUP4 ADD DUP8 PUSH2 0x1AAC JUMP JUMPDEST PUSH2 0x1B0F PUSH1 0x20 DUP4 ADD DUP7 PUSH2 0x1AE0 JUMP JUMPDEST PUSH2 0x1B1C PUSH1 0x40 DUP4 ADD DUP6 PUSH2 0x1AAC JUMP JUMPDEST PUSH2 0x1B29 PUSH1 0x60 DUP4 ADD DUP5 PUSH2 0x1AAC JUMP JUMPDEST SWAP6 SWAP5 POP POP POP POP POP JUMP INVALID LOG2 PUSH5 0x6970667358 0x22 SLT KECCAK256 0xFC PUSH1 0xA CREATE2 PUSH13 0x5A74BEB46DF9FE656E41BEE248 PUSH28 0x47BA647092225BDB7FA6D3B9BF64736F6C634300081E003300000000 "
				},
				"gasEstimates": {
					"creation": {
						"codeDepositCost": "1403200",
						"executionCost": "infinite",
						"totalCost": "infinite"
					},
					"external": {
						"avatarNFT()": "infinite",
						"claimReward(uint256,uint256,bytes)": "infinite",
						"itemNFT()": "infinite",
						"owner()": "2625",
						"pause()": "infinite",
						"paused()": "2612",
						"questProgress(address,uint256)": "infinite",
						"renounceOwnership()": "infinite",
						"rewardClaimed(address,uint256)": "3137",
						"rewardSigner()": "2598",
						"setAvatarNFT(address)": "infinite",
						"setItemNFT(address)": "infinite",
						"setRewardSigner(address)": "infinite",
						"setTreasuryWallet(address)": "infinite",
						"transferOwnership(address)": "infinite",
						"treasuryWallet()": "2531",
						"unpause()": "infinite",
						"updateLevel(address,uint256)": "infinite",
						"updateQuestProgress(address,uint256,uint256)": "infinite",
						"userLevel(address)": "2848"
					},
					"internal": {
						"toEthSignedMessageHash(bytes32)": "infinite"
					}
				},
				"methodIdentifiers": {
					"avatarNFT()": "2f5e6a05",
					"claimReward(uint256,uint256,bytes)": "76618f27",
					"itemNFT()": "57d1f910",
					"owner()": "8da5cb5b",
					"pause()": "8456cb59",
					"paused()": "5c975abb",
					"questProgress(address,uint256)": "028be338",
					"renounceOwnership()": "715018a6",
					"rewardClaimed(address,uint256)": "83b78188",
					"rewardSigner()": "323f24ab",
					"setAvatarNFT(address)": "a87331e5",
					"setItemNFT(address)": "47e25eff",
					"setRewardSigner(address)": "c69d65d1",
					"setTreasuryWallet(address)": "a8602fea",
					"transferOwnership(address)": "f2fde38b",
					"treasuryWallet()": "4626402b",
					"unpause()": "3f4ba83a",
					"updateLevel(address,uint256)": "5fb84d67",
					"updateQuestProgress(address,uint256,uint256)": "c5fb50d5",
					"userLevel(address)": "280e31cc"
				}
			},
			"storageLayout": {
				"storage": [
					{
						"astId": 8,
						"contract": "Game_Logic.sol:SavePointGameLogic",
						"label": "_owner",
						"offset": 0,
						"slot": "0",
						"type": "t_address"
					},
					{
						"astId": 165,
						"contract": "Game_Logic.sol:SavePointGameLogic",
						"label": "_paused",
						"offset": 20,
						"slot": "0",
						"type": "t_bool"
					},
					{
						"astId": 266,
						"contract": "Game_Logic.sol:SavePointGameLogic",
						"label": "_status",
						"offset": 0,
						"slot": "1",
						"type": "t_uint256"
					},
					{
						"astId": 967,
						"contract": "Game_Logic.sol:SavePointGameLogic",
						"label": "avatarNFT",
						"offset": 0,
						"slot": "2",
						"type": "t_contract(IERC721)560"
					},
					{
						"astId": 970,
						"contract": "Game_Logic.sol:SavePointGameLogic",
						"label": "itemNFT",
						"offset": 0,
						"slot": "3",
						"type": "t_contract(IERC1155)443"
					},
					{
						"astId": 972,
						"contract": "Game_Logic.sol:SavePointGameLogic",
						"label": "treasuryWallet",
						"offset": 0,
						"slot": "4",
						"type": "t_address"
					},
					{
						"astId": 974,
						"contract": "Game_Logic.sol:SavePointGameLogic",
						"label": "rewardSigner",
						"offset": 0,
						"slot": "5",
						"type": "t_address"
					},
					{
						"astId": 978,
						"contract": "Game_Logic.sol:SavePointGameLogic",
						"label": "userLevel",
						"offset": 0,
						"slot": "6",
						"type": "t_mapping(t_address,t_uint256)"
					},
					{
						"astId": 984,
						"contract": "Game_Logic.sol:SavePointGameLogic",
						"label": "questProgress",
						"offset": 0,
						"slot": "7",
						"type": "t_mapping(t_address,t_mapping(t_uint256,t_uint256))"
					},
					{
						"astId": 990,
						"contract": "Game_Logic.sol:SavePointGameLogic",
						"label": "rewardClaimed",
						"offset": 0,
						"slot": "8",
						"type": "t_mapping(t_address,t_mapping(t_uint256,t_bool))"
					}
				],
				"types": {
					"t_address": {
						"encoding": "inplace",
						"label": "address",
						"numberOfBytes": "20"
					},
					"t_bool": {
						"encoding": "inplace",
						"label": "bool",
						"numberOfBytes": "1"
					},
					"t_contract(IERC1155)443": {
						"encoding": "inplace",
						"label": "contract IERC1155",
						"numberOfBytes": "20"
					},
					"t_contract(IERC721)560": {
						"encoding": "inplace",
						"label": "contract IERC721",
						"numberOfBytes": "20"
					},
					"t_mapping(t_address,t_mapping(t_uint256,t_bool))": {
						"encoding": "mapping",
						"key": "t_address",
						"label": "mapping(address => mapping(uint256 => bool))",
						"numberOfBytes": "32",
						"value": "t_mapping(t_uint256,t_bool)"
					},
					"t_mapping(t_address,t_mapping(t_uint256,t_uint256))": {
						"encoding": "mapping",
						"key": "t_address",
						"label": "mapping(address => mapping(uint256 => uint256))",
						"numberOfBytes": "32",
						"value": "t_mapping(t_uint256,t_uint256)"
					},
					"t_mapping(t_address,t_uint256)": {
						"encoding": "mapping",
						"key": "t_address",
						"label": "mapping(address => uint256)",
						"numberOfBytes": "32",
						"value": "t_uint256"
					},
					"t_mapping(t_uint256,t_bool)": {
						"encoding": "mapping",
						"key": "t_uint256",
						"label": "mapping(uint256 => bool)",
						"numberOfBytes": "32",
						"value": "t_bool"
					},
					"t_mapping(t_uint256,t_uint256)": {
						"encoding": "mapping",
						"key": "t_uint256",
						"label": "mapping(uint256 => uint256)",
						"numberOfBytes": "32",
						"value": "t_uint256"
					},
					"t_uint256": {
						"encoding": "inplace",
						"label": "uint256",
						"numberOfBytes": "32"
					}
				}
			},
			"userdoc": {
				"kind": "user",
				"methods": {},
				"version": 1
			}
		}
	}
}