{
	"data": {
		"bytecode": {
			"linkReferences": {},
			"object": "608060405234801561000f575f5ffd5b505f600190505b60c881116100d757604051806080016040528082815260200161003e836100e560201b60201c565b60405160200161004e91906102df565b6040516020818303038152906040528152602001828152602001678ac7230489e800008361007c9190610336565b8152505f5f8381526020019081526020015f205f820151815f015560208201518160010190816100ac91906105a1565b50604082015181600201556060820151816003015590505080806100cf90610670565b915050610016565b5060c86001819055506107cb565b60605f820361012b576040518060400160405280600181526020017f3000000000000000000000000000000000000000000000000000000000000000815250905061023e565b5f8290505f5b5f821461015a57808061014390610670565b915050600a8261015391906106e4565b9150610131565b5f8167ffffffffffffffff81111561017557610174610377565b5b6040519080825280601f01601f1916602001820160405280156101a75781602001600182028036833780820191505090505b5090505f8290508593505b5f841461023657600a846101c69190610714565b60306101d29190610744565b60f81b82826101e090610777565b925082815181106101f4576101f361079e565b5b60200101907effffffffffffffffffffffffffffffffffffffffffffffffffffffffffffff191690815f1a905350600a8461022f91906106e4565b93506101b2565b819450505050505b919050565b5f81905092915050565b7f5175657374204c6576656c2000000000000000000000000000000000000000005f82015250565b5f610281600c83610243565b915061028c8261024d565b600c82019050919050565b5f81519050919050565b8281835e5f83830152505050565b5f6102b982610297565b6102c38185610243565b93506102d38185602086016102a1565b80840191505092915050565b5f6102e982610275565b91506102f582846102af565b915081905092915050565b5f819050919050565b7f4e487b71000000000000000000000000000000000000000000000000000000005f52601160045260245ffd5b5f61034082610300565b915061034b83610300565b925082820261035981610300565b915082820484148315176103705761036f610309565b5b5092915050565b7f4e487b71000000000000000000000000000000000000000000000000000000005f52604160045260245ffd5b7f4e487b71000000000000000000000000000000000000000000000000000000005f52602260045260245ffd5b5f60028204905060018216806103e857607f821691505b6020821081036103fb576103fa6103a4565b5b50919050565b5f819050815f5260205f209050919050565b5f6020601f8301049050919050565b5f82821b905092915050565b5f6008830261045d7fffffffffffffffffffffffffffffffffffffffffffffffffffffffffffffffff82610422565b6104678683610422565b95508019841693508086168417925050509392505050565b5f819050919050565b5f6104a261049d61049884610300565b61047f565b610300565b9050919050565b5f819050919050565b6104bb83610488565b6104cf6104c7826104a9565b84845461042e565b825550505050565b5f5f905090565b6104e66104d7565b6104f18184846104b2565b505050565b5b81811015610514576105095f826104de565b6001810190506104f7565b5050565b601f8211156105595761052a81610401565b61053384610413565b81016020851015610542578190505b61055661054e85610413565b8301826104f6565b50505b505050565b5f82821c905092915050565b5f6105795f198460080261055e565b1980831691505092915050565b5f610591838361056a565b9150826002028217905092915050565b6105aa82610297565b67ffffffffffffffff8111156105c3576105c2610377565b5b6105cd82546103d1565b6105d8828285610518565b5f60209050601f831160018114610609575f84156105f7578287015190505b6106018582610586565b865550610668565b601f19841661061786610401565b5f5b8281101561063e57848901518255600182019150602085019450602081019050610619565b8683101561065b5784890151610657601f89168261056a565b8355505b6001600288020188555050505b505050505050565b5f61067a82610300565b91507fffffffffffffffffffffffffffffffffffffffffffffffffffffffffffffffff82036106ac576106ab610309565b5b600182019050919050565b7f4e487b71000000000000000000000000000000000000000000000000000000005f52601260045260245ffd5b5f6106ee82610300565b91506106f983610300565b925082610709576107086106b7565b5b828204905092915050565b5f61071e82610300565b915061072983610300565b925082610739576107386106b7565b5b828206905092915050565b5f61074e82610300565b915061075983610300565b925082820190508082111561077157610770610309565b5b92915050565b5f61078182610300565b91505f820361079357610792610309565b5b600182039050919050565b7f4e487b71000000000000000000000000000000000000000000000000000000005f52603260045260245ffd5b610bcd806107d85f395ff3fe608060405234801561000f575f5ffd5b5060043610610060575f3560e01c8063528be0a91461006457806354fcf2e0146100805780639e5635441461009e578063ae169a50146100ba578063e085f980146100d6578063f7dc47b114610109575b5f5ffd5b61007e600480360381019061007991906106af565b61013b565b005b610088610298565b60405161009591906106e9565b60405180910390f35b6100b860048036038101906100b391906106af565b61029e565b005b6100d460048036038101906100cf91906106af565b6103fa565b005b6100f060048036038101906100eb91906106af565b610572565b6040516101009493929190610772565b60405180910390f35b610123600480360381019061011e9190610816565b610623565b6040516101329392919061086e565b60405180910390f35b5f60025f3373ffffffffffffffffffffffffffffffffffffffff1673ffffffffffffffffffffffffffffffffffffffff1681526020019081526020015f205f8381526020019081526020015f209050805f015f9054906101000a900460ff166101d9576040517f08c379a00000000000000000000000000000000000000000000000000000000081526004016101d0906108ed565b60405180910390fd5b805f0160019054906101000a900460ff161561022a576040517f08c379a000000000000000000000000000000000000000000000000000000000815260040161022190610955565b60405180910390fd5b6001815f0160016101000a81548160ff0219169083151502179055503373ffffffffffffffffffffffffffffffffffffffff167f6618f11353f68847dc28cc4b36a04270fab5e356fa35386e6315ba7ff205a6338360405161028c91906106e9565b60405180910390a25050565b60015481565b5f811180156102af57506001548111155b6102ee576040517f08c379a00000000000000000000000000000000000000000000000000000000081526004016102e5906109bd565b60405180910390fd5b5f60025f3373ffffffffffffffffffffffffffffffffffffffff1673ffffffffffffffffffffffffffffffffffffffff1681526020019081526020015f205f8381526020019081526020015f209050805f015f9054906101000a900460ff161561038d576040517f08c379a000000000000000000000000000000000000000000000000000000000815260040161038490610a25565b60405180910390fd5b6001815f015f6101000a81548160ff0219169083151502179055503373ffffffffffffffffffffffffffffffffffffffff167f0b1ebca8107db7f3829b308174db3933bf3c473e5519b403c0701033e0643137836040516103ee91906106e9565b60405180910390a25050565b5f60025f3373ffffffffffffffffffffffffffffffffffffffff1673ffffffffffffffffffffffffffffffffffffffff1681526020019081526020015f205f8381526020019081526020015f2090505f5f5f8481526020019081526020015f209050815f0160019054906101000a900460ff166104ac576040517f08c379a00000000000000000000000000000000000000000000000000000000081526004016104a390610a8d565b60405180910390fd5b815f0160029054906101000a900460ff16156104fd576040517f08c379a00000000000000000000000000000000000000000000000000000000081526004016104f490610af5565b60405180910390fd5b6001825f0160026101000a81548160ff0219169083151502179055503373ffffffffffffffffffffffffffffffffffffffff167ff01da32686223933d8a18a391060918c7f11a3648639edd87ae013e2e2731743848360030154604051610565929190610b13565b60405180910390a2505050565b5f602052805f5260405f205f91509050805f01549080600101805461059690610b67565b80601f01602080910402602001604051908101604052809291908181526020018280546105c290610b67565b801561060d5780601f106105e45761010080835404028352916020019161060d565b820191905f5260205f20905b8154815290600101906020018083116105f057829003601f168201915b5050505050908060020154908060030154905084565b6002602052815f5260405f20602052805f5260405f205f9150915050805f015f9054906101000a900460ff1690805f0160019054906101000a900460ff1690805f0160029054906101000a900460ff16905083565b5f5ffd5b5f819050919050565b61068e8161067c565b8114610698575f5ffd5b50565b5f813590506106a981610685565b92915050565b5f602082840312156106c4576106c3610678565b5b5f6106d18482850161069b565b91505092915050565b6106e38161067c565b82525050565b5f6020820190506106fc5f8301846106da565b92915050565b5f81519050919050565b5f82825260208201905092915050565b8281835e5f83830152505050565b5f601f19601f8301169050919050565b5f61074482610702565b61074e818561070c565b935061075e81856020860161071c565b6107678161072a565b840191505092915050565b5f6080820190506107855f8301876106da565b8181036020830152610797818661073a565b90506107a660408301856106da565b6107b360608301846106da565b95945050505050565b5f73ffffffffffffffffffffffffffffffffffffffff82169050919050565b5f6107e5826107bc565b9050919050565b6107f5816107db565b81146107ff575f5ffd5b50565b5f81359050610810816107ec565b92915050565b5f5f6040838503121561082c5761082b610678565b5b5f61083985828601610802565b925050602061084a8582860161069b565b9150509250929050565b5f8115159050919050565b61086881610854565b82525050565b5f6060820190506108815f83018661085f565b61088e602083018561085f565b61089b604083018461085f565b949350505050565b7f51756573742062656c756d2064696d756c6169000000000000000000000000005f82015250565b5f6108d760138361070c565b91506108e2826108a3565b602082019050919050565b5f6020820190508181035f830152610904816108cb565b9050919050565b7f51756573742073756461682073656c65736169000000000000000000000000005f82015250565b5f61093f60138361070c565b915061094a8261090b565b602082019050919050565b5f6020820190508181035f83015261096c81610933565b9050919050565b7f517565737420746964616b2076616c69640000000000000000000000000000005f82015250565b5f6109a760118361070c565b91506109b282610973565b602082019050919050565b5f6020820190508181035f8301526109d48161099b565b9050919050565b7f51756573742073756461682064696d756c6169000000000000000000000000005f82015250565b5f610a0f60138361070c565b9150610a1a826109db565b602082019050919050565b5f6020820190508181035f830152610a3c81610a03565b9050919050565b7f51756573742062656c756d2073656c65736169000000000000000000000000005f82015250565b5f610a7760138361070c565b9150610a8282610a43565b602082019050919050565b5f6020820190508181035f830152610aa481610a6b565b9050919050565b7f526577617264207375646168206469616d62696c0000000000000000000000005f82015250565b5f610adf60148361070c565b9150610aea82610aab565b602082019050919050565b5f6020820190508181035f830152610b0c81610ad3565b9050919050565b5f604082019050610b265f8301856106da565b610b3360208301846106da565b9392505050565b7f4e487b71000000000000000000000000000000000000000000000000000000005f52602260045260245ffd5b5f6002820490506001821680610b7e57607f821691505b602082108103610b9157610b90610b3a565b5b5091905056fea264697066735822122049ccac597ee94d9c3e9471ece6512df5561b248c1efb5255678d265ad0a5b9c464736f6c634300081e0033",
			"opcodes": "PUSH1 0x80 PUSH1 0x40 MSTORE CALLVALUE DUP1 ISZERO PUSH2 0xF JUMPI PUSH0 PUSH0 REVERT JUMPDEST POP PUSH0 PUSH1 0x1 SWAP1 POP JUMPDEST PUSH1 0xC8 DUP2 GT PUSH2 0xD7 JUMPI PUSH1 0x40 MLOAD DUP1 PUSH1 0x80 ADD PUSH1 0x40 MSTORE DUP1 DUP3 DUP2 MSTORE PUSH1 0x20 ADD PUSH2 0x3E DUP4 PUSH2 0xE5 PUSH1 0x20 SHL PUSH1 0x20 SHR JUMP JUMPDEST PUSH1 0x40 MLOAD PUSH1 0x20 ADD PUSH2 0x4E SWAP2 SWAP1 PUSH2 0x2DF JUMP JUMPDEST PUSH1 0x40 MLOAD PUSH1 0x20 DUP2 DUP4 SUB SUB DUP2 MSTORE SWAP1 PUSH1 0x40 MSTORE DUP2 MSTORE PUSH1 0x20 ADD DUP3 DUP2 MSTORE PUSH1 0x20 ADD PUSH8 0x8AC7230489E80000 DUP4 PUSH2 0x7C SWAP2 SWAP1 PUSH2 0x336 JUMP JUMPDEST DUP2 MSTORE POP PUSH0 PUSH0 DUP4 DUP2 MSTORE PUSH1 0x20 ADD SWAP1 DUP2 MSTORE PUSH1 0x20 ADD PUSH0 KECCAK256 PUSH0 DUP3 ADD MLOAD DUP2 PUSH0 ADD SSTORE PUSH1 0x20 DUP3 ADD MLOAD DUP2 PUSH1 0x1 ADD SWAP1 DUP2 PUSH2 0xAC SWAP2 SWAP1 PUSH2 0x5A1 JUMP JUMPDEST POP PUSH1 0x40 DUP3 ADD MLOAD DUP2 PUSH1 0x2 ADD SSTORE PUSH1 0x60 DUP3 ADD MLOAD DUP2 PUSH1 0x3 ADD SSTORE SWAP1 POP POP DUP1 DUP1 PUSH2 0xCF SWAP1 PUSH2 0x670 JUMP JUMPDEST SWAP2 POP POP PUSH2 0x16 JUMP JUMPDEST POP PUSH1 0xC8 PUSH1 0x1 DUP2 SWAP1 SSTORE POP PUSH2 0x7CB JUMP JUMPDEST PUSH1 0x60 PUSH0 DUP3 SUB PUSH2 0x12B JUMPI PUSH1 0x40 MLOAD DUP1 PUSH1 0x40 ADD PUSH1 0x40 MSTORE DUP1 PUSH1 0x1 DUP2 MSTORE PUSH1 0x20 ADD PUSH32 0x3000000000000000000000000000000000000000000000000000000000000000 DUP2 MSTORE POP SWAP1 POP PUSH2 0x23E JUMP JUMPDEST PUSH0 DUP3 SWAP1 POP PUSH0 JUMPDEST PUSH0 DUP3 EQ PUSH2 0x15A JUMPI DUP1 DUP1 PUSH2 0x143 SWAP1 PUSH2 0x670 JUMP JUMPDEST SWAP2 POP POP PUSH1 0xA DUP3 PUSH2 0x153 SWAP2 SWAP1 PUSH2 0x6E4 JUMP JUMPDEST SWAP2 POP PUSH2 0x131 JUMP JUMPDEST PUSH0 DUP2 PUSH8 0xFFFFFFFFFFFFFFFF DUP2 GT ISZERO PUSH2 0x175 JUMPI PUSH2 0x174 PUSH2 0x377 JUMP JUMPDEST JUMPDEST PUSH1 0x40 MLOAD SWAP1 DUP1 DUP3 MSTORE DUP1 PUSH1 0x1F ADD PUSH1 0x1F NOT AND PUSH1 0x20 ADD DUP3 ADD PUSH1 0x40 MSTORE DUP1 ISZERO PUSH2 0x1A7 JUMPI DUP2 PUSH1 0x20 ADD PUSH1 0x1 DUP3 MUL DUP1 CALLDATASIZE DUP4 CALLDATACOPY DUP1 DUP3 ADD SWAP2 POP POP SWAP1 POP JUMPDEST POP SWAP1 POP PUSH0 DUP3 SWAP1 POP DUP6 SWAP4 POP JUMPDEST PUSH0 DUP5 EQ PUSH2 0x236 JUMPI PUSH1 0xA DUP5 PUSH2 0x1C6 SWAP2 SWAP1 PUSH2 0x714 JUMP JUMPDEST PUSH1 0x30 PUSH2 0x1D2 SWAP2 SWAP1 PUSH2 0x744 JUMP JUMPDEST PUSH1 0xF8 SHL DUP3 DUP3 PUSH2 0x1E0 SWAP1 PUSH2 0x777 JUMP JUMPDEST SWAP3 POP DUP3 DUP2 MLOAD DUP2 LT PUSH2 0x1F4 JUMPI PUSH2 0x1F3 PUSH2 0x79E JUMP JUMPDEST JUMPDEST PUSH1 0x20 ADD ADD SWAP1 PUSH31 0xFFFFFFFFFFFFFFFFFFFFFFFFFFFFFFFFFFFFFFFFFFFFFFFFFFFFFFFFFFFFFF NOT AND SWAP1 DUP2 PUSH0 BYTE SWAP1 MSTORE8 POP PUSH1 0xA DUP5 PUSH2 0x22F SWAP2 SWAP1 PUSH2 0x6E4 JUMP JUMPDEST SWAP4 POP PUSH2 0x1B2 JUMP JUMPDEST DUP2 SWAP5 POP POP POP POP POP JUMPDEST SWAP2 SWAP1 POP JUMP JUMPDEST PUSH0 DUP2 SWAP1 POP SWAP3 SWAP2 POP POP JUMP JUMPDEST PUSH32 0x5175657374204C6576656C200000000000000000000000000000000000000000 PUSH0 DUP3 ADD MSTORE POP JUMP JUMPDEST PUSH0 PUSH2 0x281 PUSH1 0xC DUP4 PUSH2 0x243 JUMP JUMPDEST SWAP2 POP PUSH2 0x28C DUP3 PUSH2 0x24D JUMP JUMPDEST PUSH1 0xC DUP3 ADD SWAP1 POP SWAP2 SWAP1 POP JUMP JUMPDEST PUSH0 DUP2 MLOAD SWAP1 POP SWAP2 SWAP1 POP JUMP JUMPDEST DUP3 DUP2 DUP4 MCOPY PUSH0 DUP4 DUP4 ADD MSTORE POP POP POP JUMP JUMPDEST PUSH0 PUSH2 0x2B9 DUP3 PUSH2 0x297 JUMP JUMPDEST PUSH2 0x2C3 DUP2 DUP6 PUSH2 0x243 JUMP JUMPDEST SWAP4 POP PUSH2 0x2D3 DUP2 DUP6 PUSH1 0x20 DUP7 ADD PUSH2 0x2A1 JUMP JUMPDEST DUP1 DUP5 ADD SWAP2 POP POP SWAP3 SWAP2 POP POP JUMP JUMPDEST PUSH0 PUSH2 0x2E9 DUP3 PUSH2 0x275 JUMP JUMPDEST SWAP2 POP PUSH2 0x2F5 DUP3 DUP5 PUSH2 0x2AF JUMP JUMPDEST SWAP2 POP DUP2 SWAP1 POP SWAP3 SWAP2 POP POP JUMP JUMPDEST PUSH0 DUP2 SWAP1 POP SWAP2 SWAP1 POP JUMP JUMPDEST PUSH32 0x4E487B7100000000000000000000000000000000000000000000000000000000 PUSH0 MSTORE PUSH1 0x11 PUSH1 0x4 MSTORE PUSH1 0x24 PUSH0 REVERT JUMPDEST PUSH0 PUSH2 0x340 DUP3 PUSH2 0x300 JUMP JUMPDEST SWAP2 POP PUSH2 0x34B DUP4 PUSH2 0x300 JUMP JUMPDEST SWAP3 POP DUP3 DUP3 MUL PUSH2 0x359 DUP2 PUSH2 0x300 JUMP JUMPDEST SWAP2 POP DUP3 DUP3 DIV DUP5 EQ DUP4 ISZERO OR PUSH2 0x370 JUMPI PUSH2 0x36F PUSH2 0x309 JUMP JUMPDEST JUMPDEST POP SWAP3 SWAP2 POP POP JUMP JUMPDEST PUSH32 0x4E487B7100000000000000000000000000000000000000000000000000000000 PUSH0 MSTORE PUSH1 0x41 PUSH1 0x4 MSTORE PUSH1 0x24 PUSH0 REVERT JUMPDEST PUSH32 0x4E487B7100000000000000000000000000000000000000000000000000000000 PUSH0 MSTORE PUSH1 0x22 PUSH1 0x4 MSTORE PUSH1 0x24 PUSH0 REVERT JUMPDEST PUSH0 PUSH1 0x2 DUP3 DIV SWAP1 POP PUSH1 0x1 DUP3 AND DUP1 PUSH2 0x3E8 JUMPI PUSH1 0x7F DUP3 AND SWAP2 POP JUMPDEST PUSH1 0x20 DUP3 LT DUP2 SUB PUSH2 0x3FB JUMPI PUSH2 0x3FA PUSH2 0x3A4 JUMP JUMPDEST JUMPDEST POP SWAP2 SWAP1 POP JUMP JUMPDEST PUSH0 DUP2 SWAP1 POP DUP2 PUSH0 MSTORE PUSH1 0x20 PUSH0 KECCAK256 SWAP1 POP SWAP2 SWAP1 POP JUMP JUMPDEST PUSH0 PUSH1 0x20 PUSH1 0x1F DUP4 ADD DIV SWAP1 POP SWAP2 SWAP1 POP JUMP JUMPDEST PUSH0 DUP3 DUP3 SHL SWAP1 POP SWAP3 SWAP2 POP POP JUMP JUMPDEST PUSH0 PUSH1 0x8 DUP4 MUL PUSH2 0x45D PUSH32 0xFFFFFFFFFFFFFFFFFFFFFFFFFFFFFFFFFFFFFFFFFFFFFFFFFFFFFFFFFFFFFFFF DUP3 PUSH2 0x422 JUMP JUMPDEST PUSH2 0x467 DUP7 DUP4 PUSH2 0x422 JUMP JUMPDEST SWAP6 POP DUP1 NOT DUP5 AND SWAP4 POP DUP1 DUP7 AND DUP5 OR SWAP3 POP POP POP SWAP4 SWAP3 POP POP POP JUMP JUMPDEST PUSH0 DUP2 SWAP1 POP SWAP2 SWAP1 POP JUMP JUMPDEST PUSH0 PUSH2 0x4A2 PUSH2 0x49D PUSH2 0x498 DUP5 PUSH2 0x300 JUMP JUMPDEST PUSH2 0x47F JUMP JUMPDEST PUSH2 0x300 JUMP JUMPDEST SWAP1 POP SWAP2 SWAP1 POP JUMP JUMPDEST PUSH0 DUP2 SWAP1 POP SWAP2 SWAP1 POP JUMP JUMPDEST PUSH2 0x4BB DUP4 PUSH2 0x488 JUMP JUMPDEST PUSH2 0x4CF PUSH2 0x4C7 DUP3 PUSH2 0x4A9 JUMP JUMPDEST DUP5 DUP5 SLOAD PUSH2 0x42E JUMP JUMPDEST DUP3 SSTORE POP POP POP POP JUMP JUMPDEST PUSH0 PUSH0 SWAP1 POP SWAP1 JUMP JUMPDEST PUSH2 0x4E6 PUSH2 0x4D7 JUMP JUMPDEST PUSH2 0x4F1 DUP2 DUP5 DUP5 PUSH2 0x4B2 JUMP JUMPDEST POP POP POP JUMP JUMPDEST JUMPDEST DUP2 DUP2 LT ISZERO PUSH2 0x514 JUMPI PUSH2 0x509 PUSH0 DUP3 PUSH2 0x4DE JUMP JUMPDEST PUSH1 0x1 DUP2 ADD SWAP1 POP PUSH2 0x4F7 JUMP JUMPDEST POP POP JUMP JUMPDEST PUSH1 0x1F DUP3 GT ISZERO PUSH2 0x559 JUMPI PUSH2 0x52A DUP2 PUSH2 0x401 JUMP JUMPDEST PUSH2 0x533 DUP5 PUSH2 0x413 JUMP JUMPDEST DUP2 ADD PUSH1 0x20 DUP6 LT ISZERO PUSH2 0x542 JUMPI DUP2 SWAP1 POP JUMPDEST PUSH2 0x556 PUSH2 0x54E DUP6 PUSH2 0x413 JUMP JUMPDEST DUP4 ADD DUP3 PUSH2 0x4F6 JUMP JUMPDEST POP POP JUMPDEST POP POP POP JUMP JUMPDEST PUSH0 DUP3 DUP3 SHR SWAP1 POP SWAP3 SWAP2 POP POP JUMP JUMPDEST PUSH0 PUSH2 0x579 PUSH0 NOT DUP5 PUSH1 0x8 MUL PUSH2 0x55E JUMP JUMPDEST NOT DUP1 DUP4 AND SWAP2 POP POP SWAP3 SWAP2 POP POP JUMP JUMPDEST PUSH0 PUSH2 0x591 DUP4 DUP4 PUSH2 0x56A JUMP JUMPDEST SWAP2 POP DUP3 PUSH1 0x2 MUL DUP3 OR SWAP1 POP SWAP3 SWAP2 POP POP JUMP JUMPDEST PUSH2 0x5AA DUP3 PUSH2 0x297 JUMP JUMPDEST PUSH8 0xFFFFFFFFFFFFFFFF DUP2 GT ISZERO PUSH2 0x5C3 JUMPI PUSH2 0x5C2 PUSH2 0x377 JUMP JUMPDEST JUMPDEST PUSH2 0x5CD DUP3 SLOAD PUSH2 0x3D1 JUMP JUMPDEST PUSH2 0x5D8 DUP3 DUP3 DUP6 PUSH2 0x518 JUMP JUMPDEST PUSH0 PUSH1 0x20 SWAP1 POP PUSH1 0x1F DUP4 GT PUSH1 0x1 DUP2 EQ PUSH2 0x609 JUMPI PUSH0 DUP5 ISZERO PUSH2 0x5F7 JUMPI DUP3 DUP8 ADD MLOAD SWAP1 POP JUMPDEST PUSH2 0x601 DUP6 DUP3 PUSH2 0x586 JUMP JUMPDEST DUP7 SSTORE POP PUSH2 0x668 JUMP JUMPDEST PUSH1 0x1F NOT DUP5 AND PUSH2 0x617 DUP7 PUSH2 0x401 JUMP JUMPDEST PUSH0 JUMPDEST DUP3 DUP2 LT ISZERO PUSH2 0x63E JUMPI DUP5 DUP10 ADD MLOAD DUP3 SSTORE PUSH1 0x1 DUP3 ADD SWAP2 POP PUSH1 0x20 DUP6 ADD SWAP5 POP PUSH1 0x20 DUP2 ADD SWAP1 POP PUSH2 0x619 JUMP JUMPDEST DUP7 DUP4 LT ISZERO PUSH2 0x65B JUMPI DUP5 DUP10 ADD MLOAD PUSH2 0x657 PUSH1 0x1F DUP10 AND DUP3 PUSH2 0x56A JUMP JUMPDEST DUP4 SSTORE POP JUMPDEST PUSH1 0x1 PUSH1 0x2 DUP9 MUL ADD DUP9 SSTORE POP POP POP JUMPDEST POP POP POP POP POP POP JUMP JUMPDEST PUSH0 PUSH2 0x67A DUP3 PUSH2 0x300 JUMP JUMPDEST SWAP2 POP PUSH32 0xFFFFFFFFFFFFFFFFFFFFFFFFFFFFFFFFFFFFFFFFFFFFFFFFFFFFFFFFFFFFFFFF DUP3 SUB PUSH2 0x6AC JUMPI PUSH2 0x6AB PUSH2 0x309 JUMP JUMPDEST JUMPDEST PUSH1 0x1 DUP3 ADD SWAP1 POP SWAP2 SWAP1 POP JUMP JUMPDEST PUSH32 0x4E487B7100000000000000000000000000000000000000000000000000000000 PUSH0 MSTORE PUSH1 0x12 PUSH1 0x4 MSTORE PUSH1 0x24 PUSH0 REVERT JUMPDEST PUSH0 PUSH2 0x6EE DUP3 PUSH2 0x300 JUMP JUMPDEST SWAP2 POP PUSH2 0x6F9 DUP4 PUSH2 0x300 JUMP JUMPDEST SWAP3 POP DUP3 PUSH2 0x709 JUMPI PUSH2 0x708 PUSH2 0x6B7 JUMP JUMPDEST JUMPDEST DUP3 DUP3 DIV SWAP1 POP SWAP3 SWAP2 POP POP JUMP JUMPDEST PUSH0 PUSH2 0x71E DUP3 PUSH2 0x300 JUMP JUMPDEST SWAP2 POP PUSH2 0x729 DUP4 PUSH2 0x300 JUMP JUMPDEST SWAP3 POP DUP3 PUSH2 0x739 JUMPI PUSH2 0x738 PUSH2 0x6B7 JUMP JUMPDEST JUMPDEST DUP3 DUP3 MOD SWAP1 POP SWAP3 SWAP2 POP POP JUMP JUMPDEST PUSH0 PUSH2 0x74E DUP3 PUSH2 0x300 JUMP JUMPDEST SWAP2 POP PUSH2 0x759 DUP4 PUSH2 0x300 JUMP JUMPDEST SWAP3 POP DUP3 DUP3 ADD SWAP1 POP DUP1 DUP3 GT ISZERO PUSH2 0x771 JUMPI PUSH2 0x770 PUSH2 0x309 JUMP JUMPDEST JUMPDEST SWAP3 SWAP2 POP POP JUMP JUMPDEST PUSH0 PUSH2 0x781 DUP3 PUSH2 0x300 JUMP JUMPDEST SWAP2 POP PUSH0 DUP3 SUB PUSH2 0x793 JUMPI PUSH2 0x792 PUSH2 0x309 JUMP JUMPDEST JUMPDEST PUSH1 0x1 DUP3 SUB SWAP1 POP SWAP2 SWAP1 POP JUMP JUMPDEST PUSH32 0x4E487B7100000000000000000000000000000000000000000000000000000000 PUSH0 MSTORE PUSH1 0x32 PUSH1 0x4 MSTORE PUSH1 0x24 PUSH0 REVERT JUMPDEST PUSH2 0xBCD DUP1 PUSH2 0x7D8 PUSH0 CODECOPY PUSH0 RETURN INVALID PUSH1 0x80 PUSH1 0x40 MSTORE CALLVALUE DUP1 ISZERO PUSH2 0xF JUMPI PUSH0 PUSH0 REVERT JUMPDEST POP PUSH1 0x4 CALLDATASIZE LT PUSH2 0x60 JUMPI PUSH0 CALLDATALOAD PUSH1 0xE0 SHR DUP1 PUSH4 0x528BE0A9 EQ PUSH2 0x64 JUMPI DUP1 PUSH4 0x54FCF2E0 EQ PUSH2 0x80 JUMPI DUP1 PUSH4 0x9E563544 EQ PUSH2 0x9E JUMPI DUP1 PUSH4 0xAE169A50 EQ PUSH2 0xBA JUMPI DUP1 PUSH4 0xE085F980 EQ PUSH2 0xD6 JUMPI DUP1 PUSH4 0xF7DC47B1 EQ PUSH2 0x109 JUMPI JUMPDEST PUSH0 PUSH0 REVERT JUMPDEST PUSH2 0x7E PUSH1 0x4 DUP1 CALLDATASIZE SUB DUP2 ADD SWAP1 PUSH2 0x79 SWAP2 SWAP1 PUSH2 0x6AF JUMP JUMPDEST PUSH2 0x13B JUMP JUMPDEST STOP JUMPDEST PUSH2 0x88 PUSH2 0x298 JUMP JUMPDEST PUSH1 0x40 MLOAD PUSH2 0x95 SWAP2 SWAP1 PUSH2 0x6E9 JUMP JUMPDEST PUSH1 0x40 MLOAD DUP1 SWAP2 SUB SWAP1 RETURN JUMPDEST PUSH2 0xB8 PUSH1 0x4 DUP1 CALLDATASIZE SUB DUP2 ADD SWAP1 PUSH2 0xB3 SWAP2 SWAP1 PUSH2 0x6AF JUMP JUMPDEST PUSH2 0x29E JUMP JUMPDEST STOP JUMPDEST PUSH2 0xD4 PUSH1 0x4 DUP1 CALLDATASIZE SUB DUP2 ADD SWAP1 PUSH2 0xCF SWAP2 SWAP1 PUSH2 0x6AF JUMP JUMPDEST PUSH2 0x3FA JUMP JUMPDEST STOP JUMPDEST PUSH2 0xF0 PUSH1 0x4 DUP1 CALLDATASIZE SUB DUP2 ADD SWAP1 PUSH2 0xEB SWAP2 SWAP1 PUSH2 0x6AF JUMP JUMPDEST PUSH2 0x572 JUMP JUMPDEST PUSH1 0x40 MLOAD PUSH2 0x100 SWAP5 SWAP4 SWAP3 SWAP2 SWAP1 PUSH2 0x772 JUMP JUMPDEST PUSH1 0x40 MLOAD DUP1 SWAP2 SUB SWAP1 RETURN JUMPDEST PUSH2 0x123 PUSH1 0x4 DUP1 CALLDATASIZE SUB DUP2 ADD SWAP1 PUSH2 0x11E SWAP2 SWAP1 PUSH2 0x816 JUMP JUMPDEST PUSH2 0x623 JUMP JUMPDEST PUSH1 0x40 MLOAD PUSH2 0x132 SWAP4 SWAP3 SWAP2 SWAP1 PUSH2 0x86E JUMP JUMPDEST PUSH1 0x40 MLOAD DUP1 SWAP2 SUB SWAP1 RETURN JUMPDEST PUSH0 PUSH1 0x2 PUSH0 CALLER PUSH20 0xFFFFFFFFFFFFFFFFFFFFFFFFFFFFFFFFFFFFFFFF AND PUSH20 0xFFFFFFFFFFFFFFFFFFFFFFFFFFFFFFFFFFFFFFFF AND DUP2 MSTORE PUSH1 0x20 ADD SWAP1 DUP2 MSTORE PUSH1 0x20 ADD PUSH0 KECCAK256 PUSH0 DUP4 DUP2 MSTORE PUSH1 0x20 ADD SWAP1 DUP2 MSTORE PUSH1 0x20 ADD PUSH0 KECCAK256 SWAP1 POP DUP1 PUSH0 ADD PUSH0 SWAP1 SLOAD SWAP1 PUSH2 0x100 EXP SWAP1 DIV PUSH1 0xFF AND PUSH2 0x1D9 JUMPI PUSH1 0x40 MLOAD PUSH32 0x8C379A000000000000000000000000000000000000000000000000000000000 DUP2 MSTORE PUSH1 0x4 ADD PUSH2 0x1D0 SWAP1 PUSH2 0x8ED JUMP JUMPDEST PUSH1 0x40 MLOAD DUP1 SWAP2 SUB SWAP1 REVERT JUMPDEST DUP1 PUSH0 ADD PUSH1 0x1 SWAP1 SLOAD SWAP1 PUSH2 0x100 EXP SWAP1 DIV PUSH1 0xFF AND ISZERO PUSH2 0x22A JUMPI PUSH1 0x40 MLOAD PUSH32 0x8C379A000000000000000000000000000000000000000000000000000000000 DUP2 MSTORE PUSH1 0x4 ADD PUSH2 0x221 SWAP1 PUSH2 0x955 JUMP JUMPDEST PUSH1 0x40 MLOAD DUP1 SWAP2 SUB SWAP1 REVERT JUMPDEST PUSH1 0x1 DUP2 PUSH0 ADD PUSH1 0x1 PUSH2 0x100 EXP DUP2 SLOAD DUP2 PUSH1 0xFF MUL NOT AND SWAP1 DUP4 ISZERO ISZERO MUL OR SWAP1 SSTORE POP CALLER PUSH20 0xFFFFFFFFFFFFFFFFFFFFFFFFFFFFFFFFFFFFFFFF AND PUSH32 0x6618F11353F68847DC28CC4B36A04270FAB5E356FA35386E6315BA7FF205A633 DUP4 PUSH1 0x40 MLOAD PUSH2 0x28C SWAP2 SWAP1 PUSH2 0x6E9 JUMP JUMPDEST PUSH1 0x40 MLOAD DUP1 SWAP2 SUB SWAP1 LOG2 POP POP JUMP JUMPDEST PUSH1 0x1 SLOAD DUP2 JUMP JUMPDEST PUSH0 DUP2 GT DUP1 ISZERO PUSH2 0x2AF JUMPI POP PUSH1 0x1 SLOAD DUP2 GT ISZERO JUMPDEST PUSH2 0x2EE JUMPI PUSH1 0x40 MLOAD PUSH32 0x8C379A000000000000000000000000000000000000000000000000000000000 DUP2 MSTORE PUSH1 0x4 ADD PUSH2 0x2E5 SWAP1 PUSH2 0x9BD JUMP JUMPDEST PUSH1 0x40 MLOAD DUP1 SWAP2 SUB SWAP1 REVERT JUMPDEST PUSH0 PUSH1 0x2 PUSH0 CALLER PUSH20 0xFFFFFFFFFFFFFFFFFFFFFFFFFFFFFFFFFFFFFFFF AND PUSH20 0xFFFFFFFFFFFFFFFFFFFFFFFFFFFFFFFFFFFFFFFF AND DUP2 MSTORE PUSH1 0x20 ADD SWAP1 DUP2 MSTORE PUSH1 0x20 ADD PUSH0 KECCAK256 PUSH0 DUP4 DUP2 MSTORE PUSH1 0x20 ADD SWAP1 DUP2 MSTORE PUSH1 0x20 ADD PUSH0 KECCAK256 SWAP1 POP DUP1 PUSH0 ADD PUSH0 SWAP1 SLOAD SWAP1 PUSH2 0x100 EXP SWAP1 DIV PUSH1 0xFF AND ISZERO PUSH2 0x38D JUMPI PUSH1 0x40 MLOAD PUSH32 0x8C379A000000000000000000000000000000000000000000000000000000000 DUP2 MSTORE PUSH1 0x4 ADD PUSH2 0x384 SWAP1 PUSH2 0xA25 JUMP JUMPDEST PUSH1 0x40 MLOAD DUP1 SWAP2 SUB SWAP1 REVERT JUMPDEST PUSH1 0x1 DUP2 PUSH0 ADD PUSH0 PUSH2 0x100 EXP DUP2 SLOAD DUP2 PUSH1 0xFF MUL NOT AND SWAP1 DUP4 ISZERO ISZERO MUL OR SWAP1 SSTORE POP CALLER PUSH20 0xFFFFFFFFFFFFFFFFFFFFFFFFFFFFFFFFFFFFFFFF AND PUSH32 0xB1EBCA8107DB7F3829B308174DB3933BF3C473E5519B403C0701033E0643137 DUP4 PUSH1 0x40 MLOAD PUSH2 0x3EE SWAP2 SWAP1 PUSH2 0x6E9 JUMP JUMPDEST PUSH1 0x40 MLOAD DUP1 SWAP2 SUB SWAP1 LOG2 POP POP JUMP JUMPDEST PUSH0 PUSH1 0x2 PUSH0 CALLER PUSH20 0xFFFFFFFFFFFFFFFFFFFFFFFFFFFFFFFFFFFFFFFF AND PUSH20 0xFFFFFFFFFFFFFFFFFFFFFFFFFFFFFFFFFFFFFFFF AND DUP2 MSTORE PUSH1 0x20 ADD SWAP1 DUP2 MSTORE PUSH1 0x20 ADD PUSH0 KECCAK256 PUSH0 DUP4 DUP2 MSTORE PUSH1 0x20 ADD SWAP1 DUP2 MSTORE PUSH1 0x20 ADD PUSH0 KECCAK256 SWAP1 POP PUSH0 PUSH0 PUSH0 DUP5 DUP2 MSTORE PUSH1 0x20 ADD SWAP1 DUP2 MSTORE PUSH1 0x20 ADD PUSH0 KECCAK256 SWAP1 POP DUP2 PUSH0 ADD PUSH1 0x1 SWAP1 SLOAD SWAP1 PUSH2 0x100 EXP SWAP1 DIV PUSH1 0xFF AND PUSH2 0x4AC JUMPI PUSH1 0x40 MLOAD PUSH32 0x8C379A000000000000000000000000000000000000000000000000000000000 DUP2 MSTORE PUSH1 0x4 ADD PUSH2 0x4A3 SWAP1 PUSH2 0xA8D JUMP JUMPDEST PUSH1 0x40 MLOAD DUP1 SWAP2 SUB SWAP1 REVERT JUMPDEST DUP2 PUSH0 ADD PUSH1 0x2 SWAP1 SLOAD SWAP1 PUSH2 0x100 EXP SWAP1 DIV PUSH1 0xFF AND ISZERO PUSH2 0x4FD JUMPI PUSH1 0x40 MLOAD PUSH32 0x8C379A000000000000000000000000000000000000000000000000000000000 DUP2 MSTORE PUSH1 0x4 ADD PUSH2 0x4F4 SWAP1 PUSH2 0xAF5 JUMP JUMPDEST PUSH1 0x40 MLOAD DUP1 SWAP2 SUB SWAP1 REVERT JUMPDEST PUSH1 0x1 DUP3 PUSH0 ADD PUSH1 0x2 PUSH2 0x100 EXP DUP2 SLOAD DUP2 PUSH1 0xFF MUL NOT AND SWAP1 DUP4 ISZERO ISZERO MUL OR SWAP1 SSTORE POP CALLER PUSH20 0xFFFFFFFFFFFFFFFFFFFFFFFFFFFFFFFFFFFFFFFF AND PUSH32 0xF01DA32686223933D8A18A391060918C7F11A3648639EDD87AE013E2E2731743 DUP5 DUP4 PUSH1 0x3 ADD SLOAD PUSH1 0x40 MLOAD PUSH2 0x565 SWAP3 SWAP2 SWAP1 PUSH2 0xB13 JUMP JUMPDEST PUSH1 0x40 MLOAD DUP1 SWAP2 SUB SWAP1 LOG2 POP POP POP JUMP JUMPDEST PUSH0 PUSH1 0x20 MSTORE DUP1 PUSH0 MSTORE PUSH1 0x40 PUSH0 KECCAK256 PUSH0 SWAP2 POP SWAP1 POP DUP1 PUSH0 ADD SLOAD SWAP1 DUP1 PUSH1 0x1 ADD DUP1 SLOAD PUSH2 0x596 SWAP1 PUSH2 0xB67 JUMP JUMPDEST DUP1 PUSH1 0x1F ADD PUSH1 0x20 DUP1 SWAP2 DIV MUL PUSH1 0x20 ADD PUSH1 0x40 MLOAD SWAP1 DUP2 ADD PUSH1 0x40 MSTORE DUP1 SWAP3 SWAP2 SWAP1 DUP2 DUP2 MSTORE PUSH1 0x20 ADD DUP3 DUP1 SLOAD PUSH2 0x5C2 SWAP1 PUSH2 0xB67 JUMP JUMPDEST DUP1 ISZERO PUSH2 0x60D JUMPI DUP1 PUSH1 0x1F LT PUSH2 0x5E4 JUMPI PUSH2 0x100 DUP1 DUP4 SLOAD DIV MUL DUP4 MSTORE SWAP2 PUSH1 0x20 ADD SWAP2 PUSH2 0x60D JUMP JUMPDEST DUP3 ADD SWAP2 SWAP1 PUSH0 MSTORE PUSH1 0x20 PUSH0 KECCAK256 SWAP1 JUMPDEST DUP2 SLOAD DUP2 MSTORE SWAP1 PUSH1 0x1 ADD SWAP1 PUSH1 0x20 ADD DUP1 DUP4 GT PUSH2 0x5F0 JUMPI DUP3 SWAP1 SUB PUSH1 0x1F AND DUP3 ADD SWAP2 JUMPDEST POP POP POP POP POP SWAP1 DUP1 PUSH1 0x2 ADD SLOAD SWAP1 DUP1 PUSH1 0x3 ADD SLOAD SWAP1 POP DUP5 JUMP JUMPDEST PUSH1 0x2 PUSH1 0x20 MSTORE DUP2 PUSH0 MSTORE PUSH1 0x40 PUSH0 KECCAK256 PUSH1 0x20 MSTORE DUP1 PUSH0 MSTORE PUSH1 0x40 PUSH0 KECCAK256 PUSH0 SWAP2 POP SWAP2 POP POP DUP1 PUSH0 ADD PUSH0 SWAP1 SLOAD SWAP1 PUSH2 0x100 EXP SWAP1 DIV PUSH1 0xFF AND SWAP1 DUP1 PUSH0 ADD PUSH1 0x1 SWAP1 SLOAD SWAP1 PUSH2 0x100 EXP SWAP1 DIV PUSH1 0xFF AND SWAP1 DUP1 PUSH0 ADD PUSH1 0x2 SWAP1 SLOAD SWAP1 PUSH2 0x100 EXP SWAP1 DIV PUSH1 0xFF AND SWAP1 POP DUP4 JUMP JUMPDEST PUSH0 PUSH0 REVERT JUMPDEST PUSH0 DUP2 SWAP1 POP SWAP2 SWAP1 POP JUMP JUMPDEST PUSH2 0x68E DUP2 PUSH2 0x67C JUMP JUMPDEST DUP2 EQ PUSH2 0x698 JUMPI PUSH0 PUSH0 REVERT JUMPDEST POP JUMP JUMPDEST PUSH0 DUP2 CALLDATALOAD SWAP1 POP PUSH2 0x6A9 DUP2 PUSH2 0x685 JUMP JUMPDEST SWAP3 SWAP2 POP POP JUMP JUMPDEST PUSH0 PUSH1 0x20 DUP3 DUP5 SUB SLT ISZERO PUSH2 0x6C4 JUMPI PUSH2 0x6C3 PUSH2 0x678 JUMP JUMPDEST JUMPDEST PUSH0 PUSH2 0x6D1 DUP5 DUP3 DUP6 ADD PUSH2 0x69B JUMP JUMPDEST SWAP2 POP POP SWAP3 SWAP2 POP POP JUMP JUMPDEST PUSH2 0x6E3 DUP2 PUSH2 0x67C JUMP JUMPDEST DUP3 MSTORE POP POP JUMP JUMPDEST PUSH0 PUSH1 0x20 DUP3 ADD SWAP1 POP PUSH2 0x6FC PUSH0 DUP4 ADD DUP5 PUSH2 0x6DA JUMP JUMPDEST SWAP3 SWAP2 POP POP JUMP JUMPDEST PUSH0 DUP2 MLOAD SWAP1 POP SWAP2 SWAP1 POP JUMP JUMPDEST PUSH0 DUP3 DUP3 MSTORE PUSH1 0x20 DUP3 ADD SWAP1 POP SWAP3 SWAP2 POP POP JUMP JUMPDEST DUP3 DUP2 DUP4 MCOPY PUSH0 DUP4 DUP4 ADD MSTORE POP POP POP JUMP JUMPDEST PUSH0 PUSH1 0x1F NOT PUSH1 0x1F DUP4 ADD AND SWAP1 POP SWAP2 SWAP1 POP JUMP JUMPDEST PUSH0 PUSH2 0x744 DUP3 PUSH2 0x702 JUMP JUMPDEST PUSH2 0x74E DUP2 DUP6 PUSH2 0x70C JUMP JUMPDEST SWAP4 POP PUSH2 0x75E DUP2 DUP6 PUSH1 0x20 DUP7 ADD PUSH2 0x71C JUMP JUMPDEST PUSH2 0x767 DUP2 PUSH2 0x72A JUMP JUMPDEST DUP5 ADD SWAP2 POP POP SWAP3 SWAP2 POP POP JUMP JUMPDEST PUSH0 PUSH1 0x80 DUP3 ADD SWAP1 POP PUSH2 0x785 PUSH0 DUP4 ADD DUP8 PUSH2 0x6DA JUMP JUMPDEST DUP2 DUP2 SUB PUSH1 0x20 DUP4 ADD MSTORE PUSH2 0x797 DUP2 DUP7 PUSH2 0x73A JUMP JUMPDEST SWAP1 POP PUSH2 0x7A6 PUSH1 0x40 DUP4 ADD DUP6 PUSH2 0x6DA JUMP JUMPDEST PUSH2 0x7B3 PUSH1 0x60 DUP4 ADD DUP5 PUSH2 0x6DA JUMP JUMPDEST SWAP6 SWAP5 POP POP POP POP POP JUMP JUMPDEST PUSH0 PUSH20 0xFFFFFFFFFFFFFFFFFFFFFFFFFFFFFFFFFFFFFFFF DUP3 AND SWAP1 POP SWAP2 SWAP1 POP JUMP JUMPDEST PUSH0 PUSH2 0x7E5 DUP3 PUSH2 0x7BC JUMP JUMPDEST SWAP1 POP SWAP2 SWAP1 POP JUMP JUMPDEST PUSH2 0x7F5 DUP2 PUSH2 0x7DB JUMP JUMPDEST DUP2 EQ PUSH2 0x7FF JUMPI PUSH0 PUSH0 REVERT JUMPDEST POP JUMP JUMPDEST PUSH0 DUP2 CALLDATALOAD SWAP1 POP PUSH2 0x810 DUP2 PUSH2 0x7EC JUMP JUMPDEST SWAP3 SWAP2 POP POP JUMP JUMPDEST PUSH0 PUSH0 PUSH1 0x40 DUP4 DUP6 SUB SLT ISZERO PUSH2 0x82C JUMPI PUSH2 0x82B PUSH2 0x678 JUMP JUMPDEST JUMPDEST PUSH0 PUSH2 0x839 DUP6 DUP3 DUP7 ADD PUSH2 0x802 JUMP JUMPDEST SWAP3 POP POP PUSH1 0x20 PUSH2 0x84A DUP6 DUP3 DUP7 ADD PUSH2 0x69B JUMP JUMPDEST SWAP2 POP POP SWAP3 POP SWAP3 SWAP1 POP JUMP JUMPDEST PUSH0 DUP2 ISZERO ISZERO SWAP1 POP SWAP2 SWAP1 POP JUMP JUMPDEST PUSH2 0x868 DUP2 PUSH2 0x854 JUMP JUMPDEST DUP3 MSTORE POP POP JUMP JUMPDEST PUSH0 PUSH1 0x60 DUP3 ADD SWAP1 POP PUSH2 0x881 PUSH0 DUP4 ADD DUP7 PUSH2 0x85F JUMP JUMPDEST PUSH2 0x88E PUSH1 0x20 DUP4 ADD DUP6 PUSH2 0x85F JUMP JUMPDEST PUSH2 0x89B PUSH1 0x40 DUP4 ADD DUP5 PUSH2 0x85F JUMP JUMPDEST SWAP5 SWAP4 POP POP POP POP JUMP JUMPDEST PUSH32 0x51756573742062656C756D2064696D756C616900000000000000000000000000 PUSH0 DUP3 ADD MSTORE POP JUMP JUMPDEST PUSH0 PUSH2 0x8D7 PUSH1 0x13 DUP4 PUSH2 0x70C JUMP JUMPDEST SWAP2 POP PUSH2 0x8E2 DUP3 PUSH2 0x8A3 JUMP JUMPDEST PUSH1 0x20 DUP3 ADD SWAP1 POP SWAP2 SWAP1 POP JUMP JUMPDEST PUSH0 PUSH1 0x20 DUP3 ADD SWAP1 POP DUP2 DUP2 SUB PUSH0 DUP4 ADD MSTORE PUSH2 0x904 DUP2 PUSH2 0x8CB JUMP JUMPDEST SWAP1 POP SWAP2 SWAP1 POP JUMP JUMPDEST PUSH32 0x51756573742073756461682073656C6573616900000000000000000000000000 PUSH0 DUP3 ADD MSTORE POP JUMP JUMPDEST PUSH0 PUSH2 0x93F PUSH1 0x13 DUP4 PUSH2 0x70C JUMP JUMPDEST SWAP2 POP PUSH2 0x94A DUP3 PUSH2 0x90B JUMP JUMPDEST PUSH1 0x20 DUP3 ADD SWAP1 POP SWAP2 SWAP1 POP JUMP JUMPDEST PUSH0 PUSH1 0x20 DUP3 ADD SWAP1 POP DUP2 DUP2 SUB PUSH0 DUP4 ADD MSTORE PUSH2 0x96C DUP2 PUSH2 0x933 JUMP JUMPDEST SWAP1 POP SWAP2 SWAP1 POP JUMP JUMPDEST PUSH32 0x517565737420746964616B2076616C6964000000000000000000000000000000 PUSH0 DUP3 ADD MSTORE POP JUMP JUMPDEST PUSH0 PUSH2 0x9A7 PUSH1 0x11 DUP4 PUSH2 0x70C JUMP JUMPDEST SWAP2 POP PUSH2 0x9B2 DUP3 PUSH2 0x973 JUMP JUMPDEST PUSH1 0x20 DUP3 ADD SWAP1 POP SWAP2 SWAP1 POP JUMP JUMPDEST PUSH0 PUSH1 0x20 DUP3 ADD SWAP1 POP DUP2 DUP2 SUB PUSH0 DUP4 ADD MSTORE PUSH2 0x9D4 DUP2 PUSH2 0x99B JUMP JUMPDEST SWAP1 POP SWAP2 SWAP1 POP JUMP JUMPDEST PUSH32 0x51756573742073756461682064696D756C616900000000000000000000000000 PUSH0 DUP3 ADD MSTORE POP JUMP JUMPDEST PUSH0 PUSH2 0xA0F PUSH1 0x13 DUP4 PUSH2 0x70C JUMP JUMPDEST SWAP2 POP PUSH2 0xA1A DUP3 PUSH2 0x9DB JUMP JUMPDEST PUSH1 0x20 DUP3 ADD SWAP1 POP SWAP2 SWAP1 POP JUMP JUMPDEST PUSH0 PUSH1 0x20 DUP3 ADD SWAP1 POP DUP2 DUP2 SUB PUSH0 DUP4 ADD MSTORE PUSH2 0xA3C DUP2 PUSH2 0xA03 JUMP JUMPDEST SWAP1 POP SWAP2 SWAP1 POP JUMP JUMPDEST PUSH32 0x51756573742062656C756D2073656C6573616900000000000000000000000000 PUSH0 DUP3 ADD MSTORE POP JUMP JUMPDEST PUSH0 PUSH2 0xA77 PUSH1 0x13 DUP4 PUSH2 0x70C JUMP JUMPDEST SWAP2 POP PUSH2 0xA82 DUP3 PUSH2 0xA43 JUMP JUMPDEST PUSH1 0x20 DUP3 ADD SWAP1 POP SWAP2 SWAP1 POP JUMP JUMPDEST PUSH0 PUSH1 0x20 DUP3 ADD SWAP1 POP DUP2 DUP2 SUB PUSH0 DUP4 ADD MSTORE PUSH2 0xAA4 DUP2 PUSH2 0xA6B JUMP JUMPDEST SWAP1 POP SWAP2 SWAP1 POP JUMP JUMPDEST PUSH32 0x526577617264207375646168206469616D62696C000000000000000000000000 PUSH0 DUP3 ADD MSTORE POP JUMP JUMPDEST PUSH0 PUSH2 0xADF PUSH1 0x14 DUP4 PUSH2 0x70C JUMP JUMPDEST SWAP2 POP PUSH2 0xAEA DUP3 PUSH2 0xAAB JUMP JUMPDEST PUSH1 0x20 DUP3 ADD SWAP1 POP SWAP2 SWAP1 POP JUMP JUMPDEST PUSH0 PUSH1 0x20 DUP3 ADD SWAP1 POP DUP2 DUP2 SUB PUSH0 DUP4 ADD MSTORE PUSH2 0xB0C DUP2 PUSH2 0xAD3 JUMP JUMPDEST SWAP1 POP SWAP2 SWAP1 POP JUMP JUMPDEST PUSH0 PUSH1 0x40 DUP3 ADD SWAP1 POP PUSH2 0xB26 PUSH0 DUP4 ADD DUP6 PUSH2 0x6DA JUMP JUMPDEST PUSH2 0xB33 PUSH1 0x20 DUP4 ADD DUP5 PUSH2 0x6DA JUMP JUMPDEST SWAP4 SWAP3 POP POP POP JUMP JUMPDEST PUSH32 0x4E487B7100000000000000000000000000000000000000000000000000000000 PUSH0 MSTORE PUSH1 0x22 PUSH1 0x4 MSTORE PUSH1 0x24 PUSH0 REVERT JUMPDEST PUSH0 PUSH1 0x2 DUP3 DIV SWAP1 POP PUSH1 0x1 DUP3 AND DUP1 PUSH2 0xB7E JUMPI PUSH1 0x7F DUP3 AND SWAP2 POP JUMPDEST PUSH1 0x20 DUP3 LT DUP2 SUB PUSH2 0xB91 JUMPI PUSH2 0xB90 PUSH2 0xB3A JUMP JUMPDEST JUMPDEST POP SWAP2 SWAP1 POP JUMP INVALID LOG2 PUSH5 0x6970667358 0x22 SLT KECCAK256 BLOBHASH 0xCC 0xAC MSIZE PUSH31 0xE94D9C3E9471ECE6512DF5561B248C1EFB5255678D265AD0A5B9C464736F6C PUSH4 0x4300081E STOP CALLER "
		},
		"gasEstimates": {
			"creation": {
				"codeDepositCost": "604200",
				"executionCost": "infinite",
				"totalCost": "infinite"
			},
			"external": {
				"claimReward(uint256)": "infinite",
				"completeQuest(uint256)": "infinite",
				"playerProgress(address,uint256)": "infinite",
				"quests(uint256)": "infinite",
				"startQuest(uint256)": "infinite",
				"totalQuests()": "2425"
			},
			"internal": {
				"uint2str(uint256)": "infinite"
			}
		},
		"methodIdentifiers": {
			"claimReward(uint256)": "ae169a50",
			"completeQuest(uint256)": "528be0a9",
			"playerProgress(address,uint256)": "f7dc47b1",
			"quests(uint256)": "e085f980",
			"startQuest(uint256)": "9e563544",
			"totalQuests()": "54fcf2e0"
		}
	},
	"abi": [
		{
			"inputs": [],
			"stateMutability": "nonpayable",
			"type": "constructor"
		},
		{
			"anonymous": false,
			"inputs": [
				{
					"indexed": true,
					"internalType": "address",
					"name": "player",
					"type": "address"
				},
				{
					"indexed": false,
					"internalType": "uint256",
					"name": "questId",
					"type": "uint256"
				}
			],
			"name": "QuestCompleted",
			"type": "event"
		},
		{
			"anonymous": false,
			"inputs": [
				{
					"indexed": true,
					"internalType": "address",
					"name": "player",
					"type": "address"
				},
				{
					"indexed": false,
					"internalType": "uint256",
					"name": "questId",
					"type": "uint256"
				}
			],
			"name": "QuestStarted",
			"type": "event"
		},
		{
			"anonymous": false,
			"inputs": [
				{
					"indexed": true,
					"internalType": "address",
					"name": "player",
					"type": "address"
				},
				{
					"indexed": false,
					"internalType": "uint256",
					"name": "questId",
					"type": "uint256"
				},
				{
					"indexed": false,
					"internalType": "uint256",
					"name": "reward",
					"type": "uint256"
				}
			],
			"name": "RewardClaimed",
			"type": "event"
		},
		{
			"inputs": [
				{
					"internalType": "uint256",
					"name": "questId",
					"type": "uint256"
				}
			],
			"name": "claimReward",
			"outputs": [],
			"stateMutability": "nonpayable",
			"type": "function"
		},
		{
			"inputs": [
				{
					"internalType": "uint256",
					"name": "questId",
					"type": "uint256"
				}
			],
			"name": "completeQuest",
			"outputs": [],
			"stateMutability": "nonpayable",
			"type": "function"
		},
		{
			"inputs": [
				{
					"internalType": "address",
					"name": "",
					"type": "address"
				},
				{
					"internalType": "uint256",
					"name": "",
					"type": "uint256"
				}
			],
			"name": "playerProgress",
			"outputs": [
				{
					"internalType": "bool",
					"name": "started",
					"type": "bool"
				},
				{
					"internalType": "bool",
					"name": "completed",
					"type": "bool"
				},
				{
					"internalType": "bool",
					"name": "rewardClaimed",
					"type": "bool"
				}
			],
			"stateMutability": "view",
			"type": "function"
		},
		{
			"inputs": [
				{
					"internalType": "uint256",
					"name": "",
					"type": "uint256"
				}
			],
			"name": "quests",
			"outputs": [
				{
					"internalType": "uint256",
					"name": "id",
					"type": "uint256"
				},
				{
					"internalType": "string",
					"name": "name",
					"type": "string"
				},
				{
					"internalType": "uint256",
					"name": "difficulty",
					"type": "uint256"
				},
				{
					"internalType": "uint256",
					"name": "reward",
					"type": "uint256"
				}
			],
			"stateMutability": "view",
			"type": "function"
		},
		{
			"inputs": [
				{
					"internalType": "uint256",
					"name": "questId",
					"type": "uint256"
				}
			],
			"name": "startQuest",
			"outputs": [],
			"stateMutability": "nonpayable",
			"type": "function"
		},
		{
			"inputs": [],
			"name": "totalQuests",
			"outputs": [
				{
					"internalType": "uint256",
					"name": "",
					"type": "uint256"
				}
			],
			"stateMutability": "view",
			"type": "function"
		}
	]
}