{
	"data": {
		"bytecode": {
			"linkReferences": {},
			"object": "608060405234801561000f575f5ffd5b5060405161631438038061631483398181016040528101906100319190610562565b8383610042816102d160201b60201c565b505f73ffffffffffffffffffffffffffffffffffffffff168173ffffffffffffffffffffffffffffffffffffffff16036100b3575f6040517f1e4fbdf70000000000000000000000000000000000000000000000000000000081526004016100aa91906105f1565b60405180910390fd5b6100c2816102e460201b60201c565b505f600360146101000a81548160ff02191690831515021790555060016004819055505f73ffffffffffffffffffffffffffffffffffffffff168473ffffffffffffffffffffffffffffffffffffffff1603610153576040517f08c379a000000000000000000000000000000000000000000000000000000000815260040161014a90610664565b60405180910390fd5b5f73ffffffffffffffffffffffffffffffffffffffff168273ffffffffffffffffffffffffffffffffffffffff16036101c1576040517f08c379a00000000000000000000000000000000000000000000000000000000081526004016101b8906106cc565b60405180910390fd5b5f73ffffffffffffffffffffffffffffffffffffffff168173ffffffffffffffffffffffffffffffffffffffff160361022f576040517f08c379a000000000000000000000000000000000000000000000000000000000815260040161022690610734565b60405180910390fd5b81600b5f6101000a81548173ffffffffffffffffffffffffffffffffffffffff021916908373ffffffffffffffffffffffffffffffffffffffff16021790555080600c5f6101000a81548173ffffffffffffffffffffffffffffffffffffffff021916908373ffffffffffffffffffffffffffffffffffffffff160217905550611388600d819055506102c860056103a760201b60201c565b50505050610a31565b80600290816102e09190610962565b5050565b5f60035f9054906101000a900473ffffffffffffffffffffffffffffffffffffffff1690508160035f6101000a81548173ffffffffffffffffffffffffffffffffffffffff021916908373ffffffffffffffffffffffffffffffffffffffff1602179055508173ffffffffffffffffffffffffffffffffffffffff168173ffffffffffffffffffffffffffffffffffffffff167f8be0079c531659141344cd1fd0a4f28419497f9722a3daafe3b4186f6b6457e060405160405180910390a35050565b6001815f015f828254019250508190555050565b5f604051905090565b5f5ffd5b5f5ffd5b5f73ffffffffffffffffffffffffffffffffffffffff82169050919050565b5f6103f5826103cc565b9050919050565b610405816103eb565b811461040f575f5ffd5b50565b5f81519050610420816103fc565b92915050565b5f5ffd5b5f5ffd5b5f601f19601f8301169050919050565b7f4e487b71000000000000000000000000000000000000000000000000000000005f52604160045260245ffd5b6104748261042e565b810181811067ffffffffffffffff821117156104935761049261043e565b5b80604052505050565b5f6104a56103bb565b90506104b1828261046b565b919050565b5f67ffffffffffffffff8211156104d0576104cf61043e565b5b6104d98261042e565b9050602081019050919050565b8281835e5f83830152505050565b5f610506610501846104b6565b61049c565b9050828152602081018484840111156105225761052161042a565b5b61052d8482856104e6565b509392505050565b5f82601f83011261054957610548610426565b5b81516105598482602086016104f4565b91505092915050565b5f5f5f5f6080858703121561057a576105796103c4565b5b5f61058787828801610412565b945050602085015167ffffffffffffffff8111156105a8576105a76103c8565b5b6105b487828801610535565b93505060406105c587828801610412565b92505060606105d687828801610412565b91505092959194509250565b6105eb816103eb565b82525050565b5f6020820190506106045f8301846105e2565b92915050565b5f82825260208201905092915050565b7f6f776e6572207a65726f000000000000000000000000000000000000000000005f82015250565b5f61064e600a8361060a565b91506106598261061a565b602082019050919050565b5f6020820190508181035f83015261067b81610642565b9050919050565b7f7061796d656e7420746f6b656e207a65726f00000000000000000000000000005f82015250565b5f6106b660128361060a565b91506106c182610682565b602082019050919050565b5f6020820190508181035f8301526106e3816106aa565b9050919050565b7f66656520636f6c6c6563746f72207a65726f00000000000000000000000000005f82015250565b5f61071e60128361060a565b9150610729826106ea565b602082019050919050565b5f6020820190508181035f83015261074b81610712565b9050919050565b5f81519050919050565b7f4e487b71000000000000000000000000000000000000000000000000000000005f52602260045260245ffd5b5f60028204905060018216806107a057607f821691505b6020821081036107b3576107b261075c565b5b50919050565b5f819050815f5260205f209050919050565b5f6020601f8301049050919050565b5f82821b905092915050565b5f600883026108157fffffffffffffffffffffffffffffffffffffffffffffffffffffffffffffffff826107da565b61081f86836107da565b95508019841693508086168417925050509392505050565b5f819050919050565b5f819050919050565b5f61086361085e61085984610837565b610840565b610837565b9050919050565b5f819050919050565b61087c83610849565b6108906108888261086a565b8484546107e6565b825550505050565b5f5f905090565b6108a7610898565b6108b2818484610873565b505050565b5b818110156108d5576108ca5f8261089f565b6001810190506108b8565b5050565b601f82111561091a576108eb816107b9565b6108f4846107cb565b81016020851015610903578190505b61091761090f856107cb565b8301826108b7565b50505b505050565b5f82821c905092915050565b5f61093a5f198460080261091f565b1980831691505092915050565b5f610952838361092b565b9150826002028217905092915050565b61096b82610752565b67ffffffffffffffff8111156109845761098361043e565b5b61098e8254610789565b6109998282856108d9565b5f60209050601f8311600181146109ca575f84156109b8578287015190505b6109c28582610947565b865550610a29565b601f1984166109d8866107b9565b5f5b828110156109ff578489015182556001820191506020850194506020810190506109da565b86831015610a1c5784890151610a18601f89168261092b565b8355505b6001600288020188555050505b505050505050565b6158d680610a3e5f395ff3fe608060405234801561000f575f5ffd5b506004361061022f575f3560e01c80638456cb591161012e578063b378e634116100b6578063e985e9c51161007a578063e985e9c51461066b578063eddd0d9c1461069b578063f242432a146106b7578063f2fde38b146106d3578063f5298aca146106ef5761022f565b8063b378e634146105b5578063bd85b039146105d1578063c415b95c14610601578063c4d77d501461061f578063d81d0a151461064f5761022f565b8063a22cb465116100fd578063a22cb46514610501578063a42dce801461051d578063ac5f906714610539578063b293109614610555578063b2c20e87146105855761022f565b80638456cb591461048d578063869f7594146104975780638da5cb5b146104c757806398ae99a8146104e55761022f565b8063379607f5116101bc57806355f804b31161018057806355f804b3146104115780635c975abb1461042d5780636a326ab11461044b5780636b20c45414610467578063715018a6146104835761022f565b8063379607f51461036f57806337da577c1461038b5780633f4ba83a146103a75780634e1273f4146103b15780634f558e79146103e15761022f565b8063156e29f611610203578063156e29f6146102e1578063162094c4146102fd5780631da62554146103195780632eb2c2d6146103355780633013ce29146103515761022f565b8062fdd58e1461023357806301ffc9a7146102635780630e89341c1461029357806313966db5146102c3575b5f5ffd5b61024d60048036038101906102489190613d5f565b61070b565b60405161025a9190613dac565b60405180910390f35b61027d60048036038101906102789190613e1a565b610760565b60405161028a9190613e5f565b60405180910390f35b6102ad60048036038101906102a89190613e78565b610841565b6040516102ba9190613f13565b60405180910390f35b6102cb610918565b6040516102d89190613dac565b60405180910390f35b6102fb60048036038101906102f69190613f33565b61091e565b005b61031760048036038101906103129190613fe4565b610b5f565b005b610333600480360381019061032e9190614041565b610c09565b005b61034f600480360381019061034a9190614267565b610cc2565b005b610359610d69565b604051610366919061438d565b60405180910390f35b61038960048036038101906103849190613e78565b610d8e565b005b6103a560048036038101906103a09190614041565b611085565b005b6103af611149565b005b6103cb60048036038101906103c69190614466565b61115b565b6040516103d89190614593565b60405180910390f35b6103fb60048036038101906103f69190613e78565b611265565b6040516104089190613e5f565b60405180910390f35b61042b600480360381019061042691906145b3565b6112a8565b005b610435611300565b6040516104429190613e5f565b60405180910390f35b610465600480360381019061046091906145fe565b611316565b005b610481600480360381019061047c919061467e565b61144f565b005b61048b6116e6565b005b6104956116f9565b005b6104b160048036038101906104ac9190613e78565b61170b565b6040516104be9190613dac565b60405180910390f35b6104cf611720565b6040516104dc919061471e565b60405180910390f35b6104ff60048036038101906104fa9190614041565b611748565b005b61051b60048036038101906105169190614761565b611993565b005b610537600480360381019061053291906145fe565b6119a9565b005b610553600480360381019061054e919061479f565b611ae2565b005b61056f600480360381019061056a9190613d5f565b611eb8565b60405161057c9190613e5f565b60405180910390f35b61059f600480360381019061059a9190613fe4565b611ee2565b6040516105ac9190613dac565b60405180910390f35b6105cf60048036038101906105ca9190614872565b611ffa565b005b6105eb60048036038101906105e69190613e78565b612292565b6040516105f89190613dac565b60405180910390f35b6106096122ac565b604051610616919061471e565b60405180910390f35b61063960048036038101906106349190613e78565b6122d1565b6040516106469190613dac565b60405180910390f35b6106696004803603810190610664919061467e565b6122e6565b005b610685600480360381019061068091906148e3565b612668565b6040516106929190613e5f565b60405180910390f35b6106b560048036038101906106b09190613e78565b6126f6565b005b6106d160048036038101906106cc9190614921565b612748565b005b6106ed60048036038101906106e891906145fe565b6127ef565b005b61070960048036038101906107049190613f33565b612873565b005b5f5f5f8381526020019081526020015f205f8473ffffffffffffffffffffffffffffffffffffffff1673ffffffffffffffffffffffffffffffffffffffff1681526020019081526020015f2054905092915050565b5f7fd9b67a26000000000000000000000000000000000000000000000000000000007bffffffffffffffffffffffffffffffffffffffffffffffffffffffff1916827bffffffffffffffffffffffffffffffffffffffffffffffffffffffff1916148061082a57507f0e89341c000000000000000000000000000000000000000000000000000000007bffffffffffffffffffffffffffffffffffffffffffffffffffffffff1916827bffffffffffffffffffffffffffffffffffffffffffffffffffffffff1916145b8061083a5750610839826129d4565b5b9050919050565b60605f60085f8481526020019081526020015f208054610860906149e1565b905011156109075760085f8381526020019081526020015f208054610884906149e1565b80601f01602080910402602001604051908101604052809291908181526020018280546108b0906149e1565b80156108fb5780601f106108d2576101008083540402835291602001916108fb565b820191905f5260205f20905b8154815290600101906020018083116108de57829003601f168201915b50505050509050610913565b61091082612a3d565b90505b919050565b600d5481565b610926612acf565b61092e612b56565b610936612ba0565b5f73ffffffffffffffffffffffffffffffffffffffff168373ffffffffffffffffffffffffffffffffffffffff16036109a4576040517f08c379a000000000000000000000000000000000000000000000000000000000815260040161099b90614a5b565b60405180910390fd5b5f81116109e6576040517f08c379a00000000000000000000000000000000000000000000000000000000081526004016109dd90614ac3565b60405180910390fd5b5f60085f8481526020019081526020015f208054610a03906149e1565b905011610a45576040517f08c379a0000000000000000000000000000000000000000000000000000000008152600401610a3c90614b2b565b60405180910390fd5b5f60075f8481526020019081526020015f205490505f8114610ac157808260065f8681526020019081526020015f2054610a7f9190614b76565b1115610ac0576040517f08c379a0000000000000000000000000000000000000000000000000000000008152600401610ab790614bf3565b60405180910390fd5b5b610adb84848460405180602001604052805f815250612bef565b8160065f8581526020019081526020015f205f828254610afb9190614b76565b92505081905550828473ffffffffffffffffffffffffffffffffffffffff167fd9be9c40c7e99dfc974fa3fe3b790af02afd2939b5dedfccb1ba12933eb27a8e84604051610b499190613dac565b60405180910390a350610b5a612c84565b505050565b610b67612acf565b5f8311610ba9576040517f08c379a0000000000000000000000000000000000000000000000000000000008152600401610ba090614c5b565b60405180910390fd5b818160085f8681526020019081526020015f209182610bc9929190614e1a565b50827fda84ca2183491f179a603e877b2cb058e42195041c2b9c53d746427e519a34df8383604051610bfc929190614f13565b60405180910390a2505050565b610c11612acf565b5f60085f8481526020019081526020015f208054610c2e906149e1565b905011610c70576040517f08c379a0000000000000000000000000000000000000000000000000000000008152600401610c6790614b2b565b60405180910390fd5b8060095f8481526020019081526020015f2081905550817ffaf4d1242dafd68c114dd26f4aae1be5548457f00d0b34f50f099be695a71b7b82604051610cb69190613dac565b60405180910390a25050565b5f610ccb612c8e565b90508073ffffffffffffffffffffffffffffffffffffffff168673ffffffffffffffffffffffffffffffffffffffff1614158015610d105750610d0e8682612668565b155b15610d545780866040517fe237d922000000000000000000000000000000000000000000000000000000008152600401610d4b929190614f35565b60405180910390fd5b610d618686868686612c95565b505050505050565b600b5f9054906101000a900473ffffffffffffffffffffffffffffffffffffffff1681565b610d96612b56565b610d9e612ba0565b5f60095f8381526020019081526020015f205411610df1576040517f08c379a0000000000000000000000000000000000000000000000000000000008152600401610de890614fa6565b60405180910390fd5b600a5f3373ffffffffffffffffffffffffffffffffffffffff1673ffffffffffffffffffffffffffffffffffffffff1681526020019081526020015f205f8281526020019081526020015f205f9054906101000a900460ff1615610e8a576040517f08c379a0000000000000000000000000000000000000000000000000000000008152600401610e819061500e565b60405180910390fd5b5f60085f8381526020019081526020015f208054610ea7906149e1565b905011610ee9576040517f08c379a0000000000000000000000000000000000000000000000000000000008152600401610ee090614b2b565b60405180910390fd5b5f60075f8381526020019081526020015f205490505f8114610f665780600160065f8581526020019081526020015f2054610f249190614b76565b1115610f65576040517f08c379a0000000000000000000000000000000000000000000000000000000008152600401610f5c90614bf3565b60405180910390fd5b5b600160095f8481526020019081526020015f205f828254610f87919061502c565b925050819055506001600a5f3373ffffffffffffffffffffffffffffffffffffffff1673ffffffffffffffffffffffffffffffffffffffff1681526020019081526020015f205f8481526020019081526020015f205f6101000a81548160ff02191690831515021790555061100d3383600160405180602001604052805f815250612bef565b600160065f8481526020019081526020015f205f82825461102e9190614b76565b92505081905550813373ffffffffffffffffffffffffffffffffffffffff167f6d19ff886809a18034b4a6eaa1a47897927295fbcb65b1951c8334d80e18413260405160405180910390a350611082612c84565b50565b61108d612acf565b5f821180156110b857505f60085f8481526020019081526020015f2080546110b4906149e1565b9050115b6110f7576040517f08c379a00000000000000000000000000000000000000000000000000000000081526004016110ee90614c5b565b60405180910390fd5b8060075f8481526020019081526020015f2081905550817f5af22a09e6677efe5d29d19bf6a17f71d28caad7707022d8eab337320df9f50d8260405161113d9190613dac565b60405180910390a25050565b611151612acf565b611159612d89565b565b606081518351146111a757815183516040517f5b05999100000000000000000000000000000000000000000000000000000000815260040161119e92919061505f565b60405180910390fd5b5f835167ffffffffffffffff8111156111c3576111c261407f565b5b6040519080825280602002602001820160405280156111f15781602001602082028036833780820191505090505b5090505f5f90505b845181101561125a576112306112188287612deb90919063ffffffff16565b61122b8387612dfe90919063ffffffff16565b61070b565b82828151811061124357611242615086565b5b6020026020010181815250508060010190506111f9565b508091505092915050565b5f5f60065f8481526020019081526020015f205411806112a157505f60085f8481526020019081526020015f20805461129d906149e1565b9050115b9050919050565b6112b0612acf565b6112fc82828080601f0160208091040260200160405190810160405280939291908181526020018383808284375f81840152601f19601f82011690508083019250505050505050612e11565b5050565b5f600360149054906101000a900460ff16905090565b61131e612acf565b5f73ffffffffffffffffffffffffffffffffffffffff168173ffffffffffffffffffffffffffffffffffffffff160361138c576040517f08c379a0000000000000000000000000000000000000000000000000000000008152600401611383906150fd565b60405180910390fd5b5f600b5f9054906101000a900473ffffffffffffffffffffffffffffffffffffffff16905081600b5f6101000a81548173ffffffffffffffffffffffffffffffffffffffff021916908373ffffffffffffffffffffffffffffffffffffffff1602179055508173ffffffffffffffffffffffffffffffffffffffff168173ffffffffffffffffffffffffffffffffffffffff167f5efdfedf5aef119c431263f0656093045dffdf44b3d8f1b0f158dc295c3a0f8e60405160405180910390a35050565b611457612b56565b3373ffffffffffffffffffffffffffffffffffffffff168573ffffffffffffffffffffffffffffffffffffffff16148061149757506114968533612668565b5b6114d6576040517f08c379a00000000000000000000000000000000000000000000000000000000081526004016114cd90615165565b60405180910390fd5b611561858585808060200260200160405190810160405280939291908181526020018383602002808284375f81840152601f19601f820116905080830192505050505050508484808060200260200160405190810160405280939291908181526020018383602002808284375f81840152601f19601f82011690508083019250505050505050612e24565b5f5f90505b848490508110156116de5782828281811061158457611583615086565b5b9050602002013560065f8787858181106115a1576115a0615086565b5b9050602002013581526020019081526020015f205410156115f7576040517f08c379a00000000000000000000000000000000000000000000000000000000081526004016115ee906151cd565b60405180910390fd5b82828281811061160a57611609615086565b5b9050602002013560065f87878581811061162757611626615086565b5b9050602002013581526020019081526020015f205f828254611649919061502c565b9250508190555084848281811061166357611662615086565b5b905060200201358673ffffffffffffffffffffffffffffffffffffffff167fca29b5193c49b3f0cb8da1e82b521db2857868fcd608682d536a6444a936460c8585858181106116b5576116b4615086565b5b905060200201356040516116c99190613dac565b60405180910390a38080600101915050611566565b505050505050565b6116ee612acf565b6116f75f612eb4565b565b611701612acf565b611709612f77565b565b6007602052805f5260405f205f915090505481565b5f60035f9054906101000a900473ffffffffffffffffffffffffffffffffffffffff16905090565b611750612b56565b611758612ba0565b5f811161179a576040517f08c379a000000000000000000000000000000000000000000000000000000000815260040161179190614ac3565b60405180910390fd5b5f60085f8481526020019081526020015f2080546117b7906149e1565b9050116117f9576040517f08c379a00000000000000000000000000000000000000000000000000000000081526004016117f090614b2b565b60405180910390fd5b5f60075f8481526020019081526020015f205490505f811461187557808260065f8681526020019081526020015f20546118339190614b76565b1115611874576040517f08c379a000000000000000000000000000000000000000000000000000000000815260040161186b90614bf3565b60405180910390fd5b5b5f82600d5461188491906151eb565b90506118f533600c5f9054906101000a900473ffffffffffffffffffffffffffffffffffffffff1683600b5f9054906101000a900473ffffffffffffffffffffffffffffffffffffffff1673ffffffffffffffffffffffffffffffffffffffff16612fda909392919063ffffffff16565b61190f33858560405180602001604052805f815250612bef565b8260065f8681526020019081526020015f205f82825461192f9190614b76565b92505081905550833373ffffffffffffffffffffffffffffffffffffffff167fd9be9c40c7e99dfc974fa3fe3b790af02afd2939b5dedfccb1ba12933eb27a8e8560405161197d9190613dac565b60405180910390a3505061198f612c84565b5050565b6119a561199e612c8e565b838361305c565b5050565b6119b1612acf565b5f73ffffffffffffffffffffffffffffffffffffffff168173ffffffffffffffffffffffffffffffffffffffff1603611a1f576040517f08c379a0000000000000000000000000000000000000000000000000000000008152600401611a1690615276565b60405180910390fd5b5f600c5f9054906101000a900473ffffffffffffffffffffffffffffffffffffffff16905081600c5f6101000a81548173ffffffffffffffffffffffffffffffffffffffff021916908373ffffffffffffffffffffffffffffffffffffffff1602179055508173ffffffffffffffffffffffffffffffffffffffff168173ffffffffffffffffffffffffffffffffffffffff167f5d16ad41baeb009cd23eb8f6c7cde5c2e0cd5acf4a33926ab488875c37c37f3860405160405180910390a35050565b611aea612b56565b611af2612ba0565b818190508484905014611b3a576040517f08c379a0000000000000000000000000000000000000000000000000000000008152600401611b31906152de565b60405180910390fd5b5f5f90505f5f90505b85859050811015611cc2575f60085f888885818110611b6557611b64615086565b5b9050602002013581526020019081526020015f208054611b84906149e1565b905011611bc6576040517f08c379a0000000000000000000000000000000000000000000000000000000008152600401611bbd90614b2b565b60405180910390fd5b5f60075f888885818110611bdd57611bdc615086565b5b9050602002013581526020019081526020015f205490505f8114611c8d5780858584818110611c0f57611c0e615086565b5b9050602002013560065f8a8a87818110611c2c57611c2b615086565b5b9050602002013581526020019081526020015f2054611c4b9190614b76565b1115611c8c576040517f08c379a0000000000000000000000000000000000000000000000000000000008152600401611c8390614bf3565b60405180910390fd5b5b848483818110611ca057611c9f615086565b5b9050602002013583611cb29190614b76565b9250508080600101915050611b43565b505f81600d54611cd291906151eb565b9050611d4333600c5f9054906101000a900473ffffffffffffffffffffffffffffffffffffffff1683600b5f9054906101000a900473ffffffffffffffffffffffffffffffffffffffff1673ffffffffffffffffffffffffffffffffffffffff16612fda909392919063ffffffff16565b611ddd338787808060200260200160405190810160405280939291908181526020018383602002808284375f81840152601f19601f820116905080830192505050505050508686808060200260200160405190810160405280939291908181526020018383602002808284375f81840152601f19601f8201169050808301925050505050505060405180602001604052805f8152506131c5565b5f5f90505b86869050811015611e5357848482818110611e0057611dff615086565b5b9050602002013560065f898985818110611e1d57611e1c615086565b5b9050602002013581526020019081526020015f205f828254611e3f9190614b76565b925050819055508080600101915050611de2565b503373ffffffffffffffffffffffffffffffffffffffff167f0d4c50e5ebf755bafd67af075e537a0bc038cfe574120f65de5bf7beb72bcb1b87878787604051611ea09493929190615364565b60405180910390a25050611eb2612c84565b50505050565b600a602052815f5260405f20602052805f5260405f205f915091509054906101000a900460ff1681565b5f611eeb612acf565b5f8383905011611f30576040517f08c379a0000000000000000000000000000000000000000000000000000000008152600401611f27906153e7565b60405180910390fd5b611f3a6005613248565b611f44600561325c565b90508360075f8381526020019081526020015f2081905550828260085f8481526020019081526020015f209182611f7c929190614e1a565b50807fb422b6a58f90b597556ad527264cd8162b14e403ea3a093c13197bd9e7227d95858585604051611fb193929190615405565b60405180910390a2807fda84ca2183491f179a603e877b2cb058e42195041c2b9c53d746427e519a34df8484604051611feb929190614f13565b60405180910390a29392505050565b612002612acf565b61200a612b56565b612012612ba0565b5f8484905011612057576040517f08c379a000000000000000000000000000000000000000000000000000000000815260040161204e9061547f565b60405180910390fd5b5f60085f8481526020019081526020015f208054612074906149e1565b9050116120b6576040517f08c379a00000000000000000000000000000000000000000000000000000000081526004016120ad90614b2b565b60405180910390fd5b5f81116120f8576040517f08c379a00000000000000000000000000000000000000000000000000000000081526004016120ef90614ac3565b60405180910390fd5b5f818585905061210891906151eb565b90505f60075f8581526020019081526020015f205490505f811461218657808260065f8781526020019081526020015f20546121449190614b76565b1115612185576040517f08c379a000000000000000000000000000000000000000000000000000000000815260040161217c90614bf3565b60405180910390fd5b5b5f5f90505b86869050811015612281576121d78787838181106121ac576121ab615086565b5b90506020020160208101906121c191906145fe565b868660405180602001604052805f815250612bef565b8360065f8781526020019081526020015f205f8282546121f79190614b76565b925050819055508487878381811061221257612211615086565b5b905060200201602081019061222791906145fe565b73ffffffffffffffffffffffffffffffffffffffff167fd9be9c40c7e99dfc974fa3fe3b790af02afd2939b5dedfccb1ba12933eb27a8e8660405161226c9190613dac565b60405180910390a3808060010191505061218b565b50505061228c612c84565b50505050565b5f60065f8381526020019081526020015f20549050919050565b600c5f9054906101000a900473ffffffffffffffffffffffffffffffffffffffff1681565b6009602052805f5260405f205f915090505481565b6122ee612acf565b6122f6612b56565b6122fe612ba0565b5f73ffffffffffffffffffffffffffffffffffffffff168573ffffffffffffffffffffffffffffffffffffffff160361236c576040517f08c379a000000000000000000000000000000000000000000000000000000000815260040161236390614a5b565b60405180910390fd5b8181905084849050146123b4576040517f08c379a00000000000000000000000000000000000000000000000000000000081526004016123ab906152de565b60405180910390fd5b5f5f90505b8484905081101561256a575f60085f8787858181106123db576123da615086565b5b9050602002013581526020019081526020015f2080546123fa906149e1565b90501161243c576040517f08c379a000000000000000000000000000000000000000000000000000000000815260040161243390614b2b565b60405180910390fd5b5f60075f87878581811061245357612452615086565b5b9050602002013581526020019081526020015f205490505f8114612503578084848481811061248557612484615086565b5b9050602002013560065f8989878181106124a2576124a1615086565b5b9050602002013581526020019081526020015f20546124c19190614b76565b1115612502576040517f08c379a00000000000000000000000000000000000000000000000000000000081526004016124f990614bf3565b60405180910390fd5b5b83838381811061251657612515615086565b5b9050602002013560065f88888681811061253357612532615086565b5b9050602002013581526020019081526020015f205f8282546125559190614b76565b925050819055505080806001019150506123b9565b50612605858585808060200260200160405190810160405280939291908181526020018383602002808284375f81840152601f19601f820116905080830192505050505050508484808060200260200160405190810160405280939291908181526020018383602002808284375f81840152601f19601f8201169050808301925050505050505060405180602001604052805f8152506131c5565b8473ffffffffffffffffffffffffffffffffffffffff167f0d4c50e5ebf755bafd67af075e537a0bc038cfe574120f65de5bf7beb72bcb1b858585856040516126519493929190615364565b60405180910390a2612661612c84565b5050505050565b5f60015f8473ffffffffffffffffffffffffffffffffffffffff1673ffffffffffffffffffffffffffffffffffffffff1681526020019081526020015f205f8373ffffffffffffffffffffffffffffffffffffffff1673ffffffffffffffffffffffffffffffffffffffff1681526020019081526020015f205f9054906101000a900460ff16905092915050565b6126fe612acf565b5f600d54905081600d819055507f7864bf708cae822050e5f50960a0de31bd6fe7620a8f67a48582fb95f29c114a818360405161273c92919061505f565b60405180910390a15050565b5f612751612c8e565b90508073ffffffffffffffffffffffffffffffffffffffff168673ffffffffffffffffffffffffffffffffffffffff161415801561279657506127948682612668565b155b156127da5780866040517fe237d9220000000000000000000000000000000000000000000000000000000081526004016127d1929190614f35565b60405180910390fd5b6127e78686868686613268565b505050505050565b6127f7612acf565b5f73ffffffffffffffffffffffffffffffffffffffff168173ffffffffffffffffffffffffffffffffffffffff1603612867575f6040517f1e4fbdf700000000000000000000000000000000000000000000000000000000815260040161285e919061471e565b60405180910390fd5b61287081612eb4565b50565b61287b612b56565b3373ffffffffffffffffffffffffffffffffffffffff168373ffffffffffffffffffffffffffffffffffffffff1614806128bb57506128ba8333612668565b5b6128fa576040517f08c379a00000000000000000000000000000000000000000000000000000000081526004016128f190615165565b60405180910390fd5b61290583838361336e565b8060065f8481526020019081526020015f20541015612959576040517f08c379a0000000000000000000000000000000000000000000000000000000008152600401612950906151cd565b60405180910390fd5b8060065f8481526020019081526020015f205f828254612979919061502c565b92505081905550818373ffffffffffffffffffffffffffffffffffffffff167fca29b5193c49b3f0cb8da1e82b521db2857868fcd608682d536a6444a936460c836040516129c79190613dac565b60405180910390a3505050565b5f7f01ffc9a7000000000000000000000000000000000000000000000000000000007bffffffffffffffffffffffffffffffffffffffffffffffffffffffff1916827bffffffffffffffffffffffffffffffffffffffffffffffffffffffff1916149050919050565b606060028054612a4c906149e1565b80601f0160208091040260200160405190810160405280929190818152602001828054612a78906149e1565b8015612ac35780601f10612a9a57610100808354040283529160200191612ac3565b820191905f5260205f20905b815481529060010190602001808311612aa657829003601f168201915b50505050509050919050565b612ad7612c8e565b73ffffffffffffffffffffffffffffffffffffffff16612af5611720565b73ffffffffffffffffffffffffffffffffffffffff1614612b5457612b18612c8e565b6040517f118cdaa7000000000000000000000000000000000000000000000000000000008152600401612b4b919061471e565b60405180910390fd5b565b612b5e611300565b15612b9e576040517f08c379a0000000000000000000000000000000000000000000000000000000008152600401612b95906154e7565b60405180910390fd5b565b600260045403612be5576040517f08c379a0000000000000000000000000000000000000000000000000000000008152600401612bdc9061554f565b60405180910390fd5b6002600481905550565b5f73ffffffffffffffffffffffffffffffffffffffff168473ffffffffffffffffffffffffffffffffffffffff1603612c5f575f6040517f57f447ce000000000000000000000000000000000000000000000000000000008152600401612c56919061471e565b60405180910390fd5b5f5f612c6b8585613410565b91509150612c7c5f87848487613440565b505050505050565b6001600481905550565b5f33905090565b5f73ffffffffffffffffffffffffffffffffffffffff168473ffffffffffffffffffffffffffffffffffffffff1603612d05575f6040517f57f447ce000000000000000000000000000000000000000000000000000000008152600401612cfc919061471e565b60405180910390fd5b5f73ffffffffffffffffffffffffffffffffffffffff168573ffffffffffffffffffffffffffffffffffffffff1603612d75575f6040517f01a83514000000000000000000000000000000000000000000000000000000008152600401612d6c919061471e565b60405180910390fd5b612d828585858585613440565b5050505050565b612d916134ec565b5f600360146101000a81548160ff0219169083151502179055507f5db9ee0a495bf2e6ff9c91a7834c1ba4fdd244a5e8aa4e537bd38aeae4b073aa612dd4612c8e565b604051612de1919061471e565b60405180910390a1565b5f60208202602084010151905092915050565b5f60208202602084010151905092915050565b8060029081612e20919061556d565b5050565b5f73ffffffffffffffffffffffffffffffffffffffff168373ffffffffffffffffffffffffffffffffffffffff1603612e94575f6040517f01a83514000000000000000000000000000000000000000000000000000000008152600401612e8b919061471e565b60405180910390fd5b612eaf835f848460405180602001604052805f815250613440565b505050565b5f60035f9054906101000a900473ffffffffffffffffffffffffffffffffffffffff1690508160035f6101000a81548173ffffffffffffffffffffffffffffffffffffffff021916908373ffffffffffffffffffffffffffffffffffffffff1602179055508173ffffffffffffffffffffffffffffffffffffffff168173ffffffffffffffffffffffffffffffffffffffff167f8be0079c531659141344cd1fd0a4f28419497f9722a3daafe3b4186f6b6457e060405160405180910390a35050565b612f7f612b56565b6001600360146101000a81548160ff0219169083151502179055507f62e78cea01bee320cd4e420270b5ea74000d11b0c9f74754ebdbfc544b05a258612fc3612c8e565b604051612fd0919061471e565b60405180910390a1565b613056848573ffffffffffffffffffffffffffffffffffffffff166323b872dd86868660405160240161300f9392919061563c565b604051602081830303815290604052915060e01b6020820180517bffffffffffffffffffffffffffffffffffffffffffffffffffffffff8381831617835250505050613535565b50505050565b5f73ffffffffffffffffffffffffffffffffffffffff168273ffffffffffffffffffffffffffffffffffffffff16036130cc575f6040517fced3e1000000000000000000000000000000000000000000000000000000000081526004016130c3919061471e565b60405180910390fd5b8060015f8573ffffffffffffffffffffffffffffffffffffffff1673ffffffffffffffffffffffffffffffffffffffff1681526020019081526020015f205f8473ffffffffffffffffffffffffffffffffffffffff1673ffffffffffffffffffffffffffffffffffffffff1681526020019081526020015f205f6101000a81548160ff0219169083151502179055508173ffffffffffffffffffffffffffffffffffffffff168373ffffffffffffffffffffffffffffffffffffffff167f17307eab39ab6107e8899845ad3d59bd9653f200f220920489ca2b5937696c31836040516131b89190613e5f565b60405180910390a3505050565b5f73ffffffffffffffffffffffffffffffffffffffff168473ffffffffffffffffffffffffffffffffffffffff1603613235575f6040517f57f447ce00000000000000000000000000000000000000000000000000000000815260040161322c919061471e565b60405180910390fd5b6132425f85858585613440565b50505050565b6001815f015f828254019250508190555050565b5f815f01549050919050565b5f73ffffffffffffffffffffffffffffffffffffffff168473ffffffffffffffffffffffffffffffffffffffff16036132d8575f6040517f57f447ce0000000000000000000000000000000000000000000000000000000081526004016132cf919061471e565b60405180910390fd5b5f73ffffffffffffffffffffffffffffffffffffffff168573ffffffffffffffffffffffffffffffffffffffff1603613348575f6040517f01a8351400000000000000000000000000000000000000000000000000000000815260040161333f919061471e565b60405180910390fd5b5f5f6133548585613410565b915091506133658787848487613440565b50505050505050565b5f73ffffffffffffffffffffffffffffffffffffffff168373ffffffffffffffffffffffffffffffffffffffff16036133de575f6040517f01a835140000000000000000000000000000000000000000000000000000000081526004016133d5919061471e565b60405180910390fd5b5f5f6133ea8484613410565b91509150613409855f848460405180602001604052805f815250613440565b5050505050565b60608060405191506001825283602083015260408201905060018152826020820152604081016040529250929050565b61344c858585856135d0565b5f73ffffffffffffffffffffffffffffffffffffffff168473ffffffffffffffffffffffffffffffffffffffff16146134e5575f613488612c8e565b905060018451036134d4575f6134a75f86612dfe90919063ffffffff16565b90505f6134bd5f86612dfe90919063ffffffff16565b90506134cd838989858589613963565b50506134e3565b6134e2818787878787613b12565b5b505b5050505050565b6134f4611300565b613533576040517f08c379a000000000000000000000000000000000000000000000000000000000815260040161352a906156bb565b60405180910390fd5b565b5f5f60205f8451602086015f885af180613554576040513d5f823e3d81fd5b3d92505f519150505f821461356d576001811415613588565b5f8473ffffffffffffffffffffffffffffffffffffffff163b145b156135ca57836040517f5274afe70000000000000000000000000000000000000000000000000000000081526004016135c1919061471e565b60405180910390fd5b50505050565b805182511461361a57815181516040517f5b05999100000000000000000000000000000000000000000000000000000000815260040161361192919061505f565b60405180910390fd5b5f613623612c8e565b90505f5f90505b8351811015613822575f6136478286612dfe90919063ffffffff16565b90505f61365d8386612dfe90919063ffffffff16565b90505f73ffffffffffffffffffffffffffffffffffffffff168873ffffffffffffffffffffffffffffffffffffffff1614613780575f5f5f8481526020019081526020015f205f8a73ffffffffffffffffffffffffffffffffffffffff1673ffffffffffffffffffffffffffffffffffffffff1681526020019081526020015f205490508181101561372c57888183856040517f03dee4c500000000000000000000000000000000000000000000000000000000815260040161372394939291906156d9565b60405180910390fd5b8181035f5f8581526020019081526020015f205f8b73ffffffffffffffffffffffffffffffffffffffff1673ffffffffffffffffffffffffffffffffffffffff1681526020019081526020015f2081905550505b5f73ffffffffffffffffffffffffffffffffffffffff168773ffffffffffffffffffffffffffffffffffffffff161461381557805f5f8481526020019081526020015f205f8973ffffffffffffffffffffffffffffffffffffffff1673ffffffffffffffffffffffffffffffffffffffff1681526020019081526020015f205f82825461380d9190614b76565b925050819055505b505080600101905061362a565b5060018351036138dd575f6138405f85612dfe90919063ffffffff16565b90505f6138565f85612dfe90919063ffffffff16565b90508573ffffffffffffffffffffffffffffffffffffffff168773ffffffffffffffffffffffffffffffffffffffff168473ffffffffffffffffffffffffffffffffffffffff167fc3d58168c5ae7397731d063d5bbf3d657854427343f4c083240f7aacaa2d0f6285856040516138ce92919061505f565b60405180910390a4505061395c565b8373ffffffffffffffffffffffffffffffffffffffff168573ffffffffffffffffffffffffffffffffffffffff168273ffffffffffffffffffffffffffffffffffffffff167f4a39dc06d4c0dbc64b70af90fd698a233a518aa5d07e595d983b8c0526c8f7fb868660405161395392919061571c565b60405180910390a45b5050505050565b5f8473ffffffffffffffffffffffffffffffffffffffff163b1115613b0a578373ffffffffffffffffffffffffffffffffffffffff1663f23a6e6187878686866040518663ffffffff1660e01b81526004016139c39594939291906157a3565b6020604051808303815f875af19250505080156139fe57506040513d601f19601f820116820180604052508101906139fb919061580f565b60015b613a7f573d805f8114613a2c576040519150601f19603f3d011682016040523d82523d5f602084013e613a31565b606091505b505f815103613a7757846040517f57f447ce000000000000000000000000000000000000000000000000000000008152600401613a6e919061471e565b60405180910390fd5b805160208201fd5b63f23a6e6160e01b7bffffffffffffffffffffffffffffffffffffffffffffffffffffffff1916817bffffffffffffffffffffffffffffffffffffffffffffffffffffffff191614613b0857846040517f57f447ce000000000000000000000000000000000000000000000000000000008152600401613aff919061471e565b60405180910390fd5b505b505050505050565b5f8473ffffffffffffffffffffffffffffffffffffffff163b1115613cb9578373ffffffffffffffffffffffffffffffffffffffff1663bc197c8187878686866040518663ffffffff1660e01b8152600401613b7295949392919061583a565b6020604051808303815f875af1925050508015613bad57506040513d601f19601f82011682018060405250810190613baa919061580f565b60015b613c2e573d805f8114613bdb576040519150601f19603f3d011682016040523d82523d5f602084013e613be0565b606091505b505f815103613c2657846040517f57f447ce000000000000000000000000000000000000000000000000000000008152600401613c1d919061471e565b60405180910390fd5b805160208201fd5b63bc197c8160e01b7bffffffffffffffffffffffffffffffffffffffffffffffffffffffff1916817bffffffffffffffffffffffffffffffffffffffffffffffffffffffff191614613cb757846040517f57f447ce000000000000000000000000000000000000000000000000000000008152600401613cae919061471e565b60405180910390fd5b505b505050505050565b5f604051905090565b5f5ffd5b5f5ffd5b5f73ffffffffffffffffffffffffffffffffffffffff82169050919050565b5f613cfb82613cd2565b9050919050565b613d0b81613cf1565b8114613d15575f5ffd5b50565b5f81359050613d2681613d02565b92915050565b5f819050919050565b613d3e81613d2c565b8114613d48575f5ffd5b50565b5f81359050613d5981613d35565b92915050565b5f5f60408385031215613d7557613d74613cca565b5b5f613d8285828601613d18565b9250506020613d9385828601613d4b565b9150509250929050565b613da681613d2c565b82525050565b5f602082019050613dbf5f830184613d9d565b92915050565b5f7fffffffff0000000000000000000000000000000000000000000000000000000082169050919050565b613df981613dc5565b8114613e03575f5ffd5b50565b5f81359050613e1481613df0565b92915050565b5f60208284031215613e2f57613e2e613cca565b5b5f613e3c84828501613e06565b91505092915050565b5f8115159050919050565b613e5981613e45565b82525050565b5f602082019050613e725f830184613e50565b92915050565b5f60208284031215613e8d57613e8c613cca565b5b5f613e9a84828501613d4b565b91505092915050565b5f81519050919050565b5f82825260208201905092915050565b8281835e5f83830152505050565b5f601f19601f8301169050919050565b5f613ee582613ea3565b613eef8185613ead565b9350613eff818560208601613ebd565b613f0881613ecb565b840191505092915050565b5f6020820190508181035f830152613f2b8184613edb565b905092915050565b5f5f5f60608486031215613f4a57613f49613cca565b5b5f613f5786828701613d18565b9350506020613f6886828701613d4b565b9250506040613f7986828701613d4b565b9150509250925092565b5f5ffd5b5f5ffd5b5f5ffd5b5f5f83601f840112613fa457613fa3613f83565b5b8235905067ffffffffffffffff811115613fc157613fc0613f87565b5b602083019150836001820283011115613fdd57613fdc613f8b565b5b9250929050565b5f5f5f60408486031215613ffb57613ffa613cca565b5b5f61400886828701613d4b565b935050602084013567ffffffffffffffff81111561402957614028613cce565b5b61403586828701613f8f565b92509250509250925092565b5f5f6040838503121561405757614056613cca565b5b5f61406485828601613d4b565b925050602061407585828601613d4b565b9150509250929050565b7f4e487b71000000000000000000000000000000000000000000000000000000005f52604160045260245ffd5b6140b582613ecb565b810181811067ffffffffffffffff821117156140d4576140d361407f565b5b80604052505050565b5f6140e6613cc1565b90506140f282826140ac565b919050565b5f67ffffffffffffffff8211156141115761411061407f565b5b602082029050602081019050919050565b5f61413461412f846140f7565b6140dd565b9050808382526020820190506020840283018581111561415757614156613f8b565b5b835b81811015614180578061416c8882613d4b565b845260208401935050602081019050614159565b5050509392505050565b5f82601f83011261419e5761419d613f83565b5b81356141ae848260208601614122565b91505092915050565b5f5ffd5b5f67ffffffffffffffff8211156141d5576141d461407f565b5b6141de82613ecb565b9050602081019050919050565b828183375f83830152505050565b5f61420b614206846141bb565b6140dd565b905082815260208101848484011115614227576142266141b7565b5b6142328482856141eb565b509392505050565b5f82601f83011261424e5761424d613f83565b5b813561425e8482602086016141f9565b91505092915050565b5f5f5f5f5f60a086880312156142805761427f613cca565b5b5f61428d88828901613d18565b955050602061429e88828901613d18565b945050604086013567ffffffffffffffff8111156142bf576142be613cce565b5b6142cb8882890161418a565b935050606086013567ffffffffffffffff8111156142ec576142eb613cce565b5b6142f88882890161418a565b925050608086013567ffffffffffffffff81111561431957614318613cce565b5b6143258882890161423a565b9150509295509295909350565b5f819050919050565b5f61435561435061434b84613cd2565b614332565b613cd2565b9050919050565b5f6143668261433b565b9050919050565b5f6143778261435c565b9050919050565b6143878161436d565b82525050565b5f6020820190506143a05f83018461437e565b92915050565b5f67ffffffffffffffff8211156143c0576143bf61407f565b5b602082029050602081019050919050565b5f6143e36143de846143a6565b6140dd565b9050808382526020820190506020840283018581111561440657614405613f8b565b5b835b8181101561442f578061441b8882613d18565b845260208401935050602081019050614408565b5050509392505050565b5f82601f83011261444d5761444c613f83565b5b813561445d8482602086016143d1565b91505092915050565b5f5f6040838503121561447c5761447b613cca565b5b5f83013567ffffffffffffffff81111561449957614498613cce565b5b6144a585828601614439565b925050602083013567ffffffffffffffff8111156144c6576144c5613cce565b5b6144d28582860161418a565b9150509250929050565b5f81519050919050565b5f82825260208201905092915050565b5f819050602082019050919050565b61450e81613d2c565b82525050565b5f61451f8383614505565b60208301905092915050565b5f602082019050919050565b5f614541826144dc565b61454b81856144e6565b9350614556836144f6565b805f5b8381101561458657815161456d8882614514565b97506145788361452b565b925050600181019050614559565b5085935050505092915050565b5f6020820190508181035f8301526145ab8184614537565b905092915050565b5f5f602083850312156145c9576145c8613cca565b5b5f83013567ffffffffffffffff8111156145e6576145e5613cce565b5b6145f285828601613f8f565b92509250509250929050565b5f6020828403121561461357614612613cca565b5b5f61462084828501613d18565b91505092915050565b5f5f83601f84011261463e5761463d613f83565b5b8235905067ffffffffffffffff81111561465b5761465a613f87565b5b60208301915083602082028301111561467757614676613f8b565b5b9250929050565b5f5f5f5f5f6060868803121561469757614696613cca565b5b5f6146a488828901613d18565b955050602086013567ffffffffffffffff8111156146c5576146c4613cce565b5b6146d188828901614629565b9450945050604086013567ffffffffffffffff8111156146f4576146f3613cce565b5b61470088828901614629565b92509250509295509295909350565b61471881613cf1565b82525050565b5f6020820190506147315f83018461470f565b92915050565b61474081613e45565b811461474a575f5ffd5b50565b5f8135905061475b81614737565b92915050565b5f5f6040838503121561477757614776613cca565b5b5f61478485828601613d18565b92505060206147958582860161474d565b9150509250929050565b5f5f5f5f604085870312156147b7576147b6613cca565b5b5f85013567ffffffffffffffff8111156147d4576147d3613cce565b5b6147e087828801614629565b9450945050602085013567ffffffffffffffff81111561480357614802613cce565b5b61480f87828801614629565b925092505092959194509250565b5f5f83601f84011261483257614831613f83565b5b8235905067ffffffffffffffff81111561484f5761484e613f87565b5b60208301915083602082028301111561486b5761486a613f8b565b5b9250929050565b5f5f5f5f6060858703121561488a57614889613cca565b5b5f85013567ffffffffffffffff8111156148a7576148a6613cce565b5b6148b38782880161481d565b945094505060206148c687828801613d4b565b92505060406148d787828801613d4b565b91505092959194509250565b5f5f604083850312156148f9576148f8613cca565b5b5f61490685828601613d18565b925050602061491785828601613d18565b9150509250929050565b5f5f5f5f5f60a0868803121561493a57614939613cca565b5b5f61494788828901613d18565b955050602061495888828901613d18565b945050604061496988828901613d4b565b935050606061497a88828901613d4b565b925050608086013567ffffffffffffffff81111561499b5761499a613cce565b5b6149a78882890161423a565b9150509295509295909350565b7f4e487b71000000000000000000000000000000000000000000000000000000005f52602260045260245ffd5b5f60028204905060018216806149f857607f821691505b602082108103614a0b57614a0a6149b4565b5b50919050565b7f746f207a65726f000000000000000000000000000000000000000000000000005f82015250565b5f614a45600783613ead565b9150614a5082614a11565b602082019050919050565b5f6020820190508181035f830152614a7281614a39565b9050919050565b7f616d6f756e74207a65726f0000000000000000000000000000000000000000005f82015250565b5f614aad600b83613ead565b9150614ab882614a79565b602082019050919050565b5f6020820190508181035f830152614ada81614aa1565b9050919050565b7f746f6b656e2074797065206e6f742065786973740000000000000000000000005f82015250565b5f614b15601483613ead565b9150614b2082614ae1565b602082019050919050565b5f6020820190508181035f830152614b4281614b09565b9050919050565b7f4e487b71000000000000000000000000000000000000000000000000000000005f52601160045260245ffd5b5f614b8082613d2c565b9150614b8b83613d2c565b9250828201905080821115614ba357614ba2614b49565b5b92915050565b7f65786365656473206d61780000000000000000000000000000000000000000005f82015250565b5f614bdd600b83613ead565b9150614be882614ba9565b602082019050919050565b5f6020820190508181035f830152614c0a81614bd1565b9050919050565b7f696e76616c6964206964000000000000000000000000000000000000000000005f82015250565b5f614c45600a83613ead565b9150614c5082614c11565b602082019050919050565b5f6020820190508181035f830152614c7281614c39565b9050919050565b5f82905092915050565b5f819050815f5260205f209050919050565b5f6020601f8301049050919050565b5f82821b905092915050565b5f60088302614cdf7fffffffffffffffffffffffffffffffffffffffffffffffffffffffffffffffff82614ca4565b614ce98683614ca4565b95508019841693508086168417925050509392505050565b5f614d1b614d16614d1184613d2c565b614332565b613d2c565b9050919050565b5f819050919050565b614d3483614d01565b614d48614d4082614d22565b848454614cb0565b825550505050565b5f5f905090565b614d5f614d50565b614d6a818484614d2b565b505050565b5b81811015614d8d57614d825f82614d57565b600181019050614d70565b5050565b601f821115614dd257614da381614c83565b614dac84614c95565b81016020851015614dbb578190505b614dcf614dc785614c95565b830182614d6f565b50505b505050565b5f82821c905092915050565b5f614df25f1984600802614dd7565b1980831691505092915050565b5f614e0a8383614de3565b9150826002028217905092915050565b614e248383614c79565b67ffffffffffffffff811115614e3d57614e3c61407f565b5b614e4782546149e1565b614e52828285614d91565b5f601f831160018114614e7f575f8415614e6d578287013590505b614e778582614dff565b865550614ede565b601f198416614e8d86614c83565b5f5b82811015614eb457848901358255600182019150602085019450602081019050614e8f565b86831015614ed15784890135614ecd601f891682614de3565b8355505b6001600288020188555050505b50505050505050565b5f614ef28385613ead565b9350614eff8385846141eb565b614f0883613ecb565b840190509392505050565b5f6020820190508181035f830152614f2c818486614ee7565b90509392505050565b5f604082019050614f485f83018561470f565b614f55602083018461470f565b9392505050565b7f6e6f20636c61696d20737570706c7900000000000000000000000000000000005f82015250565b5f614f90600f83613ead565b9150614f9b82614f5c565b602082019050919050565b5f6020820190508181035f830152614fbd81614f84565b9050919050565b7f616c726561647920636c61696d656400000000000000000000000000000000005f82015250565b5f614ff8600f83613ead565b915061500382614fc4565b602082019050919050565b5f6020820190508181035f83015261502581614fec565b9050919050565b5f61503682613d2c565b915061504183613d2c565b925082820390508181111561505957615058614b49565b5b92915050565b5f6040820190506150725f830185613d9d565b61507f6020830184613d9d565b9392505050565b7f4e487b71000000000000000000000000000000000000000000000000000000005f52603260045260245ffd5b7f7a65726f20746f6b656e000000000000000000000000000000000000000000005f82015250565b5f6150e7600a83613ead565b91506150f2826150b3565b602082019050919050565b5f6020820190508181035f830152615114816150db565b9050919050565b7f6e6f74206f776e6572206e6f7220617070726f766564000000000000000000005f82015250565b5f61514f601683613ead565b915061515a8261511b565b602082019050919050565b5f6020820190508181035f83015261517c81615143565b9050919050565b7f6275726e206578636565647320737570706c79000000000000000000000000005f82015250565b5f6151b7601383613ead565b91506151c282615183565b602082019050919050565b5f6020820190508181035f8301526151e4816151ab565b9050919050565b5f6151f582613d2c565b915061520083613d2c565b925082820261520e81613d2c565b9150828204841483151761522557615224614b49565b5b5092915050565b7f7a65726f20636f6c6c6563746f720000000000000000000000000000000000005f82015250565b5f615260600e83613ead565b915061526b8261522c565b602082019050919050565b5f6020820190508181035f83015261528d81615254565b9050919050565b7f6c656e206d69736d6174636800000000000000000000000000000000000000005f82015250565b5f6152c8600c83613ead565b91506152d382615294565b602082019050919050565b5f6020820190508181035f8301526152f5816152bc565b9050919050565b5f5ffd5b82818337505050565b5f61531483856144e6565b93507f07ffffffffffffffffffffffffffffffffffffffffffffffffffffffffffffff831115615347576153466152fc565b5b602083029250615358838584615300565b82840190509392505050565b5f6040820190508181035f83015261537d818688615309565b90508181036020830152615392818486615309565b905095945050505050565b7f75726920726571756972656400000000000000000000000000000000000000005f82015250565b5f6153d1600c83613ead565b91506153dc8261539d565b602082019050919050565b5f6020820190508181035f8301526153fe816153c5565b9050919050565b5f6040820190506154185f830186613d9d565b818103602083015261542b818486614ee7565b9050949350505050565b7f6e6f20726563697069656e7473000000000000000000000000000000000000005f82015250565b5f615469600d83613ead565b915061547482615435565b602082019050919050565b5f6020820190508181035f8301526154968161545d565b9050919050565b7f5061757361626c653a20706175736564000000000000000000000000000000005f82015250565b5f6154d1601083613ead565b91506154dc8261549d565b602082019050919050565b5f6020820190508181035f8301526154fe816154c5565b9050919050565b7f5265656e7472616e637947756172643a207265656e7472616e742063616c6c005f82015250565b5f615539601f83613ead565b915061554482615505565b602082019050919050565b5f6020820190508181035f8301526155668161552d565b9050919050565b61557682613ea3565b67ffffffffffffffff81111561558f5761558e61407f565b5b61559982546149e1565b6155a4828285614d91565b5f60209050601f8311600181146155d5575f84156155c3578287015190505b6155cd8582614dff565b865550615634565b601f1984166155e386614c83565b5f5b8281101561560a578489015182556001820191506020850194506020810190506155e5565b868310156156275784890151615623601f891682614de3565b8355505b6001600288020188555050505b505050505050565b5f60608201905061564f5f83018661470f565b61565c602083018561470f565b6156696040830184613d9d565b949350505050565b7f5061757361626c653a206e6f74207061757365640000000000000000000000005f82015250565b5f6156a5601483613ead565b91506156b082615671565b602082019050919050565b5f6020820190508181035f8301526156d281615699565b9050919050565b5f6080820190506156ec5f83018761470f565b6156f96020830186613d9d565b6157066040830185613d9d565b6157136060830184613d9d565b95945050505050565b5f6040820190508181035f8301526157348185614537565b905081810360208301526157488184614537565b90509392505050565b5f81519050919050565b5f82825260208201905092915050565b5f61577582615751565b61577f818561575b565b935061578f818560208601613ebd565b61579881613ecb565b840191505092915050565b5f60a0820190506157b65f83018861470f565b6157c3602083018761470f565b6157d06040830186613d9d565b6157dd6060830185613d9d565b81810360808301526157ef818461576b565b90509695505050505050565b5f8151905061580981613df0565b92915050565b5f6020828403121561582457615823613cca565b5b5f615831848285016157fb565b91505092915050565b5f60a08201905061584d5f83018861470f565b61585a602083018761470f565b818103604083015261586c8186614537565b905081810360608301526158808185614537565b90508181036080830152615894818461576b565b9050969550505050505056fea2646970667358221220d59ced5b5060f13785b4588be149f81eb18ccffab887494c3f139f272fb6735564736f6c634300081e0033",
			"opcodes": "PUSH1 0x80 PUSH1 0x40 MSTORE CALLVALUE DUP1 ISZERO PUSH2 0xF JUMPI PUSH0 PUSH0 REVERT JUMPDEST POP PUSH1 0x40 MLOAD PUSH2 0x6314 CODESIZE SUB DUP1 PUSH2 0x6314 DUP4 CODECOPY DUP2 DUP2 ADD PUSH1 0x40 MSTORE DUP2 ADD SWAP1 PUSH2 0x31 SWAP2 SWAP1 PUSH2 0x562 JUMP JUMPDEST DUP4 DUP4 PUSH2 0x42 DUP2 PUSH2 0x2D1 PUSH1 0x20 SHL PUSH1 0x20 SHR JUMP JUMPDEST POP PUSH0 PUSH20 0xFFFFFFFFFFFFFFFFFFFFFFFFFFFFFFFFFFFFFFFF AND DUP2 PUSH20 0xFFFFFFFFFFFFFFFFFFFFFFFFFFFFFFFFFFFFFFFF AND SUB PUSH2 0xB3 JUMPI PUSH0 PUSH1 0x40 MLOAD PUSH32 0x1E4FBDF700000000000000000000000000000000000000000000000000000000 DUP2 MSTORE PUSH1 0x4 ADD PUSH2 0xAA SWAP2 SWAP1 PUSH2 0x5F1 JUMP JUMPDEST PUSH1 0x40 MLOAD DUP1 SWAP2 SUB SWAP1 REVERT JUMPDEST PUSH2 0xC2 DUP2 PUSH2 0x2E4 PUSH1 0x20 SHL PUSH1 0x20 SHR JUMP JUMPDEST POP PUSH0 PUSH1 0x3 PUSH1 0x14 PUSH2 0x100 EXP DUP2 SLOAD DUP2 PUSH1 0xFF MUL NOT AND SWAP1 DUP4 ISZERO ISZERO MUL OR SWAP1 SSTORE POP PUSH1 0x1 PUSH1 0x4 DUP2 SWAP1 SSTORE POP PUSH0 PUSH20 0xFFFFFFFFFFFFFFFFFFFFFFFFFFFFFFFFFFFFFFFF AND DUP5 PUSH20 0xFFFFFFFFFFFFFFFFFFFFFFFFFFFFFFFFFFFFFFFF AND SUB PUSH2 0x153 JUMPI PUSH1 0x40 MLOAD PUSH32 0x8C379A000000000000000000000000000000000000000000000000000000000 DUP2 MSTORE PUSH1 0x4 ADD PUSH2 0x14A SWAP1 PUSH2 0x664 JUMP JUMPDEST PUSH1 0x40 MLOAD DUP1 SWAP2 SUB SWAP1 REVERT JUMPDEST PUSH0 PUSH20 0xFFFFFFFFFFFFFFFFFFFFFFFFFFFFFFFFFFFFFFFF AND DUP3 PUSH20 0xFFFFFFFFFFFFFFFFFFFFFFFFFFFFFFFFFFFFFFFF AND SUB PUSH2 0x1C1 JUMPI PUSH1 0x40 MLOAD PUSH32 0x8C379A000000000000000000000000000000000000000000000000000000000 DUP2 MSTORE PUSH1 0x4 ADD PUSH2 0x1B8 SWAP1 PUSH2 0x6CC JUMP JUMPDEST PUSH1 0x40 MLOAD DUP1 SWAP2 SUB SWAP1 REVERT JUMPDEST PUSH0 PUSH20 0xFFFFFFFFFFFFFFFFFFFFFFFFFFFFFFFFFFFFFFFF AND DUP2 PUSH20 0xFFFFFFFFFFFFFFFFFFFFFFFFFFFFFFFFFFFFFFFF AND SUB PUSH2 0x22F JUMPI PUSH1 0x40 MLOAD PUSH32 0x8C379A000000000000000000000000000000000000000000000000000000000 DUP2 MSTORE PUSH1 0x4 ADD PUSH2 0x226 SWAP1 PUSH2 0x734 JUMP JUMPDEST PUSH1 0x40 MLOAD DUP1 SWAP2 SUB SWAP1 REVERT JUMPDEST DUP2 PUSH1 0xB PUSH0 PUSH2 0x100 EXP DUP2 SLOAD DUP2 PUSH20 0xFFFFFFFFFFFFFFFFFFFFFFFFFFFFFFFFFFFFFFFF MUL NOT AND SWAP1 DUP4 PUSH20 0xFFFFFFFFFFFFFFFFFFFFFFFFFFFFFFFFFFFFFFFF AND MUL OR SWAP1 SSTORE POP DUP1 PUSH1 0xC PUSH0 PUSH2 0x100 EXP DUP2 SLOAD DUP2 PUSH20 0xFFFFFFFFFFFFFFFFFFFFFFFFFFFFFFFFFFFFFFFF MUL NOT AND SWAP1 DUP4 PUSH20 0xFFFFFFFFFFFFFFFFFFFFFFFFFFFFFFFFFFFFFFFF AND MUL OR SWAP1 SSTORE POP PUSH2 0x1388 PUSH1 0xD DUP2 SWAP1 SSTORE POP PUSH2 0x2C8 PUSH1 0x5 PUSH2 0x3A7 PUSH1 0x20 SHL PUSH1 0x20 SHR JUMP JUMPDEST POP POP POP POP PUSH2 0xA31 JUMP JUMPDEST DUP1 PUSH1 0x2 SWAP1 DUP2 PUSH2 0x2E0 SWAP2 SWAP1 PUSH2 0x962 JUMP JUMPDEST POP POP JUMP JUMPDEST PUSH0 PUSH1 0x3 PUSH0 SWAP1 SLOAD SWAP1 PUSH2 0x100 EXP SWAP1 DIV PUSH20 0xFFFFFFFFFFFFFFFFFFFFFFFFFFFFFFFFFFFFFFFF AND SWAP1 POP DUP2 PUSH1 0x3 PUSH0 PUSH2 0x100 EXP DUP2 SLOAD DUP2 PUSH20 0xFFFFFFFFFFFFFFFFFFFFFFFFFFFFFFFFFFFFFFFF MUL NOT AND SWAP1 DUP4 PUSH20 0xFFFFFFFFFFFFFFFFFFFFFFFFFFFFFFFFFFFFFFFF AND MUL OR SWAP1 SSTORE POP DUP2 PUSH20 0xFFFFFFFFFFFFFFFFFFFFFFFFFFFFFFFFFFFFFFFF AND DUP2 PUSH20 0xFFFFFFFFFFFFFFFFFFFFFFFFFFFFFFFFFFFFFFFF AND PUSH32 0x8BE0079C531659141344CD1FD0A4F28419497F9722A3DAAFE3B4186F6B6457E0 PUSH1 0x40 MLOAD PUSH1 0x40 MLOAD DUP1 SWAP2 SUB SWAP1 LOG3 POP POP JUMP JUMPDEST PUSH1 0x1 DUP2 PUSH0 ADD PUSH0 DUP3 DUP3 SLOAD ADD SWAP3 POP POP DUP2 SWAP1 SSTORE POP POP JUMP JUMPDEST PUSH0 PUSH1 0x40 MLOAD SWAP1 POP SWAP1 JUMP JUMPDEST PUSH0 PUSH0 REVERT JUMPDEST PUSH0 PUSH0 REVERT JUMPDEST PUSH0 PUSH20 0xFFFFFFFFFFFFFFFFFFFFFFFFFFFFFFFFFFFFFFFF DUP3 AND SWAP1 POP SWAP2 SWAP1 POP JUMP JUMPDEST PUSH0 PUSH2 0x3F5 DUP3 PUSH2 0x3CC JUMP JUMPDEST SWAP1 POP SWAP2 SWAP1 POP JUMP JUMPDEST PUSH2 0x405 DUP2 PUSH2 0x3EB JUMP JUMPDEST DUP2 EQ PUSH2 0x40F JUMPI PUSH0 PUSH0 REVERT JUMPDEST POP JUMP JUMPDEST PUSH0 DUP2 MLOAD SWAP1 POP PUSH2 0x420 DUP2 PUSH2 0x3FC JUMP JUMPDEST SWAP3 SWAP2 POP POP JUMP JUMPDEST PUSH0 PUSH0 REVERT JUMPDEST PUSH0 PUSH0 REVERT JUMPDEST PUSH0 PUSH1 0x1F NOT PUSH1 0x1F DUP4 ADD AND SWAP1 POP SWAP2 SWAP1 POP JUMP JUMPDEST PUSH32 0x4E487B7100000000000000000000000000000000000000000000000000000000 PUSH0 MSTORE PUSH1 0x41 PUSH1 0x4 MSTORE PUSH1 0x24 PUSH0 REVERT JUMPDEST PUSH2 0x474 DUP3 PUSH2 0x42E JUMP JUMPDEST DUP2 ADD DUP2 DUP2 LT PUSH8 0xFFFFFFFFFFFFFFFF DUP3 GT OR ISZERO PUSH2 0x493 JUMPI PUSH2 0x492 PUSH2 0x43E JUMP JUMPDEST JUMPDEST DUP1 PUSH1 0x40 MSTORE POP POP POP JUMP JUMPDEST PUSH0 PUSH2 0x4A5 PUSH2 0x3BB JUMP JUMPDEST SWAP1 POP PUSH2 0x4B1 DUP3 DUP3 PUSH2 0x46B JUMP JUMPDEST SWAP2 SWAP1 POP JUMP JUMPDEST PUSH0 PUSH8 0xFFFFFFFFFFFFFFFF DUP3 GT ISZERO PUSH2 0x4D0 JUMPI PUSH2 0x4CF PUSH2 0x43E JUMP JUMPDEST JUMPDEST PUSH2 0x4D9 DUP3 PUSH2 0x42E JUMP JUMPDEST SWAP1 POP PUSH1 0x20 DUP2 ADD SWAP1 POP SWAP2 SWAP1 POP JUMP JUMPDEST DUP3 DUP2 DUP4 MCOPY PUSH0 DUP4 DUP4 ADD MSTORE POP POP POP JUMP JUMPDEST PUSH0 PUSH2 0x506 PUSH2 0x501 DUP5 PUSH2 0x4B6 JUMP JUMPDEST PUSH2 0x49C JUMP JUMPDEST SWAP1 POP DUP3 DUP2 MSTORE PUSH1 0x20 DUP2 ADD DUP5 DUP5 DUP5 ADD GT ISZERO PUSH2 0x522 JUMPI PUSH2 0x521 PUSH2 0x42A JUMP JUMPDEST JUMPDEST PUSH2 0x52D DUP5 DUP3 DUP6 PUSH2 0x4E6 JUMP JUMPDEST POP SWAP4 SWAP3 POP POP POP JUMP JUMPDEST PUSH0 DUP3 PUSH1 0x1F DUP4 ADD SLT PUSH2 0x549 JUMPI PUSH2 0x548 PUSH2 0x426 JUMP JUMPDEST JUMPDEST DUP2 MLOAD PUSH2 0x559 DUP5 DUP3 PUSH1 0x20 DUP7 ADD PUSH2 0x4F4 JUMP JUMPDEST SWAP2 POP POP SWAP3 SWAP2 POP POP JUMP JUMPDEST PUSH0 PUSH0 PUSH0 PUSH0 PUSH1 0x80 DUP6 DUP8 SUB SLT ISZERO PUSH2 0x57A JUMPI PUSH2 0x579 PUSH2 0x3C4 JUMP JUMPDEST JUMPDEST PUSH0 PUSH2 0x587 DUP8 DUP3 DUP9 ADD PUSH2 0x412 JUMP JUMPDEST SWAP5 POP POP PUSH1 0x20 DUP6 ADD MLOAD PUSH8 0xFFFFFFFFFFFFFFFF DUP2 GT ISZERO PUSH2 0x5A8 JUMPI PUSH2 0x5A7 PUSH2 0x3C8 JUMP JUMPDEST JUMPDEST PUSH2 0x5B4 DUP8 DUP3 DUP9 ADD PUSH2 0x535 JUMP JUMPDEST SWAP4 POP POP PUSH1 0x40 PUSH2 0x5C5 DUP8 DUP3 DUP9 ADD PUSH2 0x412 JUMP JUMPDEST SWAP3 POP POP PUSH1 0x60 PUSH2 0x5D6 DUP8 DUP3 DUP9 ADD PUSH2 0x412 JUMP JUMPDEST SWAP2 POP POP SWAP3 SWAP6 SWAP2 SWAP5 POP SWAP3 POP JUMP JUMPDEST PUSH2 0x5EB DUP2 PUSH2 0x3EB JUMP JUMPDEST DUP3 MSTORE POP POP JUMP JUMPDEST PUSH0 PUSH1 0x20 DUP3 ADD SWAP1 POP PUSH2 0x604 PUSH0 DUP4 ADD DUP5 PUSH2 0x5E2 JUMP JUMPDEST SWAP3 SWAP2 POP POP JUMP JUMPDEST PUSH0 DUP3 DUP3 MSTORE PUSH1 0x20 DUP3 ADD SWAP1 POP SWAP3 SWAP2 POP POP JUMP JUMPDEST PUSH32 0x6F776E6572207A65726F00000000000000000000000000000000000000000000 PUSH0 DUP3 ADD MSTORE POP JUMP JUMPDEST PUSH0 PUSH2 0x64E PUSH1 0xA DUP4 PUSH2 0x60A JUMP JUMPDEST SWAP2 POP PUSH2 0x659 DUP3 PUSH2 0x61A JUMP JUMPDEST PUSH1 0x20 DUP3 ADD SWAP1 POP SWAP2 SWAP1 POP JUMP JUMPDEST PUSH0 PUSH1 0x20 DUP3 ADD SWAP1 POP DUP2 DUP2 SUB PUSH0 DUP4 ADD MSTORE PUSH2 0x67B DUP2 PUSH2 0x642 JUMP JUMPDEST SWAP1 POP SWAP2 SWAP1 POP JUMP JUMPDEST PUSH32 0x7061796D656E7420746F6B656E207A65726F0000000000000000000000000000 PUSH0 DUP3 ADD MSTORE POP JUMP JUMPDEST PUSH0 PUSH2 0x6B6 PUSH1 0x12 DUP4 PUSH2 0x60A JUMP JUMPDEST SWAP2 POP PUSH2 0x6C1 DUP3 PUSH2 0x682 JUMP JUMPDEST PUSH1 0x20 DUP3 ADD SWAP1 POP SWAP2 SWAP1 POP JUMP JUMPDEST PUSH0 PUSH1 0x20 DUP3 ADD SWAP1 POP DUP2 DUP2 SUB PUSH0 DUP4 ADD MSTORE PUSH2 0x6E3 DUP2 PUSH2 0x6AA JUMP JUMPDEST SWAP1 POP SWAP2 SWAP1 POP JUMP JUMPDEST PUSH32 0x66656520636F6C6C6563746F72207A65726F0000000000000000000000000000 PUSH0 DUP3 ADD MSTORE POP JUMP JUMPDEST PUSH0 PUSH2 0x71E PUSH1 0x12 DUP4 PUSH2 0x60A JUMP JUMPDEST SWAP2 POP PUSH2 0x729 DUP3 PUSH2 0x6EA JUMP JUMPDEST PUSH1 0x20 DUP3 ADD SWAP1 POP SWAP2 SWAP1 POP JUMP JUMPDEST PUSH0 PUSH1 0x20 DUP3 ADD SWAP1 POP DUP2 DUP2 SUB PUSH0 DUP4 ADD MSTORE PUSH2 0x74B DUP2 PUSH2 0x712 JUMP JUMPDEST SWAP1 POP SWAP2 SWAP1 POP JUMP JUMPDEST PUSH0 DUP2 MLOAD SWAP1 POP SWAP2 SWAP1 POP JUMP JUMPDEST PUSH32 0x4E487B7100000000000000000000000000000000000000000000000000000000 PUSH0 MSTORE PUSH1 0x22 PUSH1 0x4 MSTORE PUSH1 0x24 PUSH0 REVERT JUMPDEST PUSH0 PUSH1 0x2 DUP3 DIV SWAP1 POP PUSH1 0x1 DUP3 AND DUP1 PUSH2 0x7A0 JUMPI PUSH1 0x7F DUP3 AND SWAP2 POP JUMPDEST PUSH1 0x20 DUP3 LT DUP2 SUB PUSH2 0x7B3 JUMPI PUSH2 0x7B2 PUSH2 0x75C JUMP JUMPDEST JUMPDEST POP SWAP2 SWAP1 POP JUMP JUMPDEST PUSH0 DUP2 SWAP1 POP DUP2 PUSH0 MSTORE PUSH1 0x20 PUSH0 KECCAK256 SWAP1 POP SWAP2 SWAP1 POP JUMP JUMPDEST PUSH0 PUSH1 0x20 PUSH1 0x1F DUP4 ADD DIV SWAP1 POP SWAP2 SWAP1 POP JUMP JUMPDEST PUSH0 DUP3 DUP3 SHL SWAP1 POP SWAP3 SWAP2 POP POP JUMP JUMPDEST PUSH0 PUSH1 0x8 DUP4 MUL PUSH2 0x815 PUSH32 0xFFFFFFFFFFFFFFFFFFFFFFFFFFFFFFFFFFFFFFFFFFFFFFFFFFFFFFFFFFFFFFFF DUP3 PUSH2 0x7DA JUMP JUMPDEST PUSH2 0x81F DUP7 DUP4 PUSH2 0x7DA JUMP JUMPDEST SWAP6 POP DUP1 NOT DUP5 AND SWAP4 POP DUP1 DUP7 AND DUP5 OR SWAP3 POP POP POP SWAP4 SWAP3 POP POP POP JUMP JUMPDEST PUSH0 DUP2 SWAP1 POP SWAP2 SWAP1 POP JUMP JUMPDEST PUSH0 DUP2 SWAP1 POP SWAP2 SWAP1 POP JUMP JUMPDEST PUSH0 PUSH2 0x863 PUSH2 0x85E PUSH2 0x859 DUP5 PUSH2 0x837 JUMP JUMPDEST PUSH2 0x840 JUMP JUMPDEST PUSH2 0x837 JUMP JUMPDEST SWAP1 POP SWAP2 SWAP1 POP JUMP JUMPDEST PUSH0 DUP2 SWAP1 POP SWAP2 SWAP1 POP JUMP JUMPDEST PUSH2 0x87C DUP4 PUSH2 0x849 JUMP JUMPDEST PUSH2 0x890 PUSH2 0x888 DUP3 PUSH2 0x86A JUMP JUMPDEST DUP5 DUP5 SLOAD PUSH2 0x7E6 JUMP JUMPDEST DUP3 SSTORE POP POP POP POP JUMP JUMPDEST PUSH0 PUSH0 SWAP1 POP SWAP1 JUMP JUMPDEST PUSH2 0x8A7 PUSH2 0x898 JUMP JUMPDEST PUSH2 0x8B2 DUP2 DUP5 DUP5 PUSH2 0x873 JUMP JUMPDEST POP POP POP JUMP JUMPDEST JUMPDEST DUP2 DUP2 LT ISZERO PUSH2 0x8D5 JUMPI PUSH2 0x8CA PUSH0 DUP3 PUSH2 0x89F JUMP JUMPDEST PUSH1 0x1 DUP2 ADD SWAP1 POP PUSH2 0x8B8 JUMP JUMPDEST POP POP JUMP JUMPDEST PUSH1 0x1F DUP3 GT ISZERO PUSH2 0x91A JUMPI PUSH2 0x8EB DUP2 PUSH2 0x7B9 JUMP JUMPDEST PUSH2 0x8F4 DUP5 PUSH2 0x7CB JUMP JUMPDEST DUP2 ADD PUSH1 0x20 DUP6 LT ISZERO PUSH2 0x903 JUMPI DUP2 SWAP1 POP JUMPDEST PUSH2 0x917 PUSH2 0x90F DUP6 PUSH2 0x7CB JUMP JUMPDEST DUP4 ADD DUP3 PUSH2 0x8B7 JUMP JUMPDEST POP POP JUMPDEST POP POP POP JUMP JUMPDEST PUSH0 DUP3 DUP3 SHR SWAP1 POP SWAP3 SWAP2 POP POP JUMP JUMPDEST PUSH0 PUSH2 0x93A PUSH0 NOT DUP5 PUSH1 0x8 MUL PUSH2 0x91F JUMP JUMPDEST NOT DUP1 DUP4 AND SWAP2 POP POP SWAP3 SWAP2 POP POP JUMP JUMPDEST PUSH0 PUSH2 0x952 DUP4 DUP4 PUSH2 0x92B JUMP JUMPDEST SWAP2 POP DUP3 PUSH1 0x2 MUL DUP3 OR SWAP1 POP SWAP3 SWAP2 POP POP JUMP JUMPDEST PUSH2 0x96B DUP3 PUSH2 0x752 JUMP JUMPDEST PUSH8 0xFFFFFFFFFFFFFFFF DUP2 GT ISZERO PUSH2 0x984 JUMPI PUSH2 0x983 PUSH2 0x43E JUMP JUMPDEST JUMPDEST PUSH2 0x98E DUP3 SLOAD PUSH2 0x789 JUMP JUMPDEST PUSH2 0x999 DUP3 DUP3 DUP6 PUSH2 0x8D9 JUMP JUMPDEST PUSH0 PUSH1 0x20 SWAP1 POP PUSH1 0x1F DUP4 GT PUSH1 0x1 DUP2 EQ PUSH2 0x9CA JUMPI PUSH0 DUP5 ISZERO PUSH2 0x9B8 JUMPI DUP3 DUP8 ADD MLOAD SWAP1 POP JUMPDEST PUSH2 0x9C2 DUP6 DUP3 PUSH2 0x947 JUMP JUMPDEST DUP7 SSTORE POP PUSH2 0xA29 JUMP JUMPDEST PUSH1 0x1F NOT DUP5 AND PUSH2 0x9D8 DUP7 PUSH2 0x7B9 JUMP JUMPDEST PUSH0 JUMPDEST DUP3 DUP2 LT ISZERO PUSH2 0x9FF JUMPI DUP5 DUP10 ADD MLOAD DUP3 SSTORE PUSH1 0x1 DUP3 ADD SWAP2 POP PUSH1 0x20 DUP6 ADD SWAP5 POP PUSH1 0x20 DUP2 ADD SWAP1 POP PUSH2 0x9DA JUMP JUMPDEST DUP7 DUP4 LT ISZERO PUSH2 0xA1C JUMPI DUP5 DUP10 ADD MLOAD PUSH2 0xA18 PUSH1 0x1F DUP10 AND DUP3 PUSH2 0x92B JUMP JUMPDEST DUP4 SSTORE POP JUMPDEST PUSH1 0x1 PUSH1 0x2 DUP9 MUL ADD DUP9 SSTORE POP POP POP JUMPDEST POP POP POP POP POP POP JUMP JUMPDEST PUSH2 0x58D6 DUP1 PUSH2 0xA3E PUSH0 CODECOPY PUSH0 RETURN INVALID PUSH1 0x80 PUSH1 0x40 MSTORE CALLVALUE DUP1 ISZERO PUSH2 0xF JUMPI PUSH0 PUSH0 REVERT JUMPDEST POP PUSH1 0x4 CALLDATASIZE LT PUSH2 0x22F JUMPI PUSH0 CALLDATALOAD PUSH1 0xE0 SHR DUP1 PUSH4 0x8456CB59 GT PUSH2 0x12E JUMPI DUP1 PUSH4 0xB378E634 GT PUSH2 0xB6 JUMPI DUP1 PUSH4 0xE985E9C5 GT PUSH2 0x7A JUMPI DUP1 PUSH4 0xE985E9C5 EQ PUSH2 0x66B JUMPI DUP1 PUSH4 0xEDDD0D9C EQ PUSH2 0x69B JUMPI DUP1 PUSH4 0xF242432A EQ PUSH2 0x6B7 JUMPI DUP1 PUSH4 0xF2FDE38B EQ PUSH2 0x6D3 JUMPI DUP1 PUSH4 0xF5298ACA EQ PUSH2 0x6EF JUMPI PUSH2 0x22F JUMP JUMPDEST DUP1 PUSH4 0xB378E634 EQ PUSH2 0x5B5 JUMPI DUP1 PUSH4 0xBD85B039 EQ PUSH2 0x5D1 JUMPI DUP1 PUSH4 0xC415B95C EQ PUSH2 0x601 JUMPI DUP1 PUSH4 0xC4D77D50 EQ PUSH2 0x61F JUMPI DUP1 PUSH4 0xD81D0A15 EQ PUSH2 0x64F JUMPI PUSH2 0x22F JUMP JUMPDEST DUP1 PUSH4 0xA22CB465 GT PUSH2 0xFD JUMPI DUP1 PUSH4 0xA22CB465 EQ PUSH2 0x501 JUMPI DUP1 PUSH4 0xA42DCE80 EQ PUSH2 0x51D JUMPI DUP1 PUSH4 0xAC5F9067 EQ PUSH2 0x539 JUMPI DUP1 PUSH4 0xB2931096 EQ PUSH2 0x555 JUMPI DUP1 PUSH4 0xB2C20E87 EQ PUSH2 0x585 JUMPI PUSH2 0x22F JUMP JUMPDEST DUP1 PUSH4 0x8456CB59 EQ PUSH2 0x48D JUMPI DUP1 PUSH4 0x869F7594 EQ PUSH2 0x497 JUMPI DUP1 PUSH4 0x8DA5CB5B EQ PUSH2 0x4C7 JUMPI DUP1 PUSH4 0x98AE99A8 EQ PUSH2 0x4E5 JUMPI PUSH2 0x22F JUMP JUMPDEST DUP1 PUSH4 0x379607F5 GT PUSH2 0x1BC JUMPI DUP1 PUSH4 0x55F804B3 GT PUSH2 0x180 JUMPI DUP1 PUSH4 0x55F804B3 EQ PUSH2 0x411 JUMPI DUP1 PUSH4 0x5C975ABB EQ PUSH2 0x42D JUMPI DUP1 PUSH4 0x6A326AB1 EQ PUSH2 0x44B JUMPI DUP1 PUSH4 0x6B20C454 EQ PUSH2 0x467 JUMPI DUP1 PUSH4 0x715018A6 EQ PUSH2 0x483 JUMPI PUSH2 0x22F JUMP JUMPDEST DUP1 PUSH4 0x379607F5 EQ PUSH2 0x36F JUMPI DUP1 PUSH4 0x37DA577C EQ PUSH2 0x38B JUMPI DUP1 PUSH4 0x3F4BA83A EQ PUSH2 0x3A7 JUMPI DUP1 PUSH4 0x4E1273F4 EQ PUSH2 0x3B1 JUMPI DUP1 PUSH4 0x4F558E79 EQ PUSH2 0x3E1 JUMPI PUSH2 0x22F JUMP JUMPDEST DUP1 PUSH4 0x156E29F6 GT PUSH2 0x203 JUMPI DUP1 PUSH4 0x156E29F6 EQ PUSH2 0x2E1 JUMPI DUP1 PUSH4 0x162094C4 EQ PUSH2 0x2FD JUMPI DUP1 PUSH4 0x1DA62554 EQ PUSH2 0x319 JUMPI DUP1 PUSH4 0x2EB2C2D6 EQ PUSH2 0x335 JUMPI DUP1 PUSH4 0x3013CE29 EQ PUSH2 0x351 JUMPI PUSH2 0x22F JUMP JUMPDEST DUP1 PUSH3 0xFDD58E EQ PUSH2 0x233 JUMPI DUP1 PUSH4 0x1FFC9A7 EQ PUSH2 0x263 JUMPI DUP1 PUSH4 0xE89341C EQ PUSH2 0x293 JUMPI DUP1 PUSH4 0x13966DB5 EQ PUSH2 0x2C3 JUMPI JUMPDEST PUSH0 PUSH0 REVERT JUMPDEST PUSH2 0x24D PUSH1 0x4 DUP1 CALLDATASIZE SUB DUP2 ADD SWAP1 PUSH2 0x248 SWAP2 SWAP1 PUSH2 0x3D5F JUMP JUMPDEST PUSH2 0x70B JUMP JUMPDEST PUSH1 0x40 MLOAD PUSH2 0x25A SWAP2 SWAP1 PUSH2 0x3DAC JUMP JUMPDEST PUSH1 0x40 MLOAD DUP1 SWAP2 SUB SWAP1 RETURN JUMPDEST PUSH2 0x27D PUSH1 0x4 DUP1 CALLDATASIZE SUB DUP2 ADD SWAP1 PUSH2 0x278 SWAP2 SWAP1 PUSH2 0x3E1A JUMP JUMPDEST PUSH2 0x760 JUMP JUMPDEST PUSH1 0x40 MLOAD PUSH2 0x28A SWAP2 SWAP1 PUSH2 0x3E5F JUMP JUMPDEST PUSH1 0x40 MLOAD DUP1 SWAP2 SUB SWAP1 RETURN JUMPDEST PUSH2 0x2AD PUSH1 0x4 DUP1 CALLDATASIZE SUB DUP2 ADD SWAP1 PUSH2 0x2A8 SWAP2 SWAP1 PUSH2 0x3E78 JUMP JUMPDEST PUSH2 0x841 JUMP JUMPDEST PUSH1 0x40 MLOAD PUSH2 0x2BA SWAP2 SWAP1 PUSH2 0x3F13 JUMP JUMPDEST PUSH1 0x40 MLOAD DUP1 SWAP2 SUB SWAP1 RETURN JUMPDEST PUSH2 0x2CB PUSH2 0x918 JUMP JUMPDEST PUSH1 0x40 MLOAD PUSH2 0x2D8 SWAP2 SWAP1 PUSH2 0x3DAC JUMP JUMPDEST PUSH1 0x40 MLOAD DUP1 SWAP2 SUB SWAP1 RETURN JUMPDEST PUSH2 0x2FB PUSH1 0x4 DUP1 CALLDATASIZE SUB DUP2 ADD SWAP1 PUSH2 0x2F6 SWAP2 SWAP1 PUSH2 0x3F33 JUMP JUMPDEST PUSH2 0x91E JUMP JUMPDEST STOP JUMPDEST PUSH2 0x317 PUSH1 0x4 DUP1 CALLDATASIZE SUB DUP2 ADD SWAP1 PUSH2 0x312 SWAP2 SWAP1 PUSH2 0x3FE4 JUMP JUMPDEST PUSH2 0xB5F JUMP JUMPDEST STOP JUMPDEST PUSH2 0x333 PUSH1 0x4 DUP1 CALLDATASIZE SUB DUP2 ADD SWAP1 PUSH2 0x32E SWAP2 SWAP1 PUSH2 0x4041 JUMP JUMPDEST PUSH2 0xC09 JUMP JUMPDEST STOP JUMPDEST PUSH2 0x34F PUSH1 0x4 DUP1 CALLDATASIZE SUB DUP2 ADD SWAP1 PUSH2 0x34A SWAP2 SWAP1 PUSH2 0x4267 JUMP JUMPDEST PUSH2 0xCC2 JUMP JUMPDEST STOP JUMPDEST PUSH2 0x359 PUSH2 0xD69 JUMP JUMPDEST PUSH1 0x40 MLOAD PUSH2 0x366 SWAP2 SWAP1 PUSH2 0x438D JUMP JUMPDEST PUSH1 0x40 MLOAD DUP1 SWAP2 SUB SWAP1 RETURN JUMPDEST PUSH2 0x389 PUSH1 0x4 DUP1 CALLDATASIZE SUB DUP2 ADD SWAP1 PUSH2 0x384 SWAP2 SWAP1 PUSH2 0x3E78 JUMP JUMPDEST PUSH2 0xD8E JUMP JUMPDEST STOP JUMPDEST PUSH2 0x3A5 PUSH1 0x4 DUP1 CALLDATASIZE SUB DUP2 ADD SWAP1 PUSH2 0x3A0 SWAP2 SWAP1 PUSH2 0x4041 JUMP JUMPDEST PUSH2 0x1085 JUMP JUMPDEST STOP JUMPDEST PUSH2 0x3AF PUSH2 0x1149 JUMP JUMPDEST STOP JUMPDEST PUSH2 0x3CB PUSH1 0x4 DUP1 CALLDATASIZE SUB DUP2 ADD SWAP1 PUSH2 0x3C6 SWAP2 SWAP1 PUSH2 0x4466 JUMP JUMPDEST PUSH2 0x115B JUMP JUMPDEST PUSH1 0x40 MLOAD PUSH2 0x3D8 SWAP2 SWAP1 PUSH2 0x4593 JUMP JUMPDEST PUSH1 0x40 MLOAD DUP1 SWAP2 SUB SWAP1 RETURN JUMPDEST PUSH2 0x3FB PUSH1 0x4 DUP1 CALLDATASIZE SUB DUP2 ADD SWAP1 PUSH2 0x3F6 SWAP2 SWAP1 PUSH2 0x3E78 JUMP JUMPDEST PUSH2 0x1265 JUMP JUMPDEST PUSH1 0x40 MLOAD PUSH2 0x408 SWAP2 SWAP1 PUSH2 0x3E5F JUMP JUMPDEST PUSH1 0x40 MLOAD DUP1 SWAP2 SUB SWAP1 RETURN JUMPDEST PUSH2 0x42B PUSH1 0x4 DUP1 CALLDATASIZE SUB DUP2 ADD SWAP1 PUSH2 0x426 SWAP2 SWAP1 PUSH2 0x45B3 JUMP JUMPDEST PUSH2 0x12A8 JUMP JUMPDEST STOP JUMPDEST PUSH2 0x435 PUSH2 0x1300 JUMP JUMPDEST PUSH1 0x40 MLOAD PUSH2 0x442 SWAP2 SWAP1 PUSH2 0x3E5F JUMP JUMPDEST PUSH1 0x40 MLOAD DUP1 SWAP2 SUB SWAP1 RETURN JUMPDEST PUSH2 0x465 PUSH1 0x4 DUP1 CALLDATASIZE SUB DUP2 ADD SWAP1 PUSH2 0x460 SWAP2 SWAP1 PUSH2 0x45FE JUMP JUMPDEST PUSH2 0x1316 JUMP JUMPDEST STOP JUMPDEST PUSH2 0x481 PUSH1 0x4 DUP1 CALLDATASIZE SUB DUP2 ADD SWAP1 PUSH2 0x47C SWAP2 SWAP1 PUSH2 0x467E JUMP JUMPDEST PUSH2 0x144F JUMP JUMPDEST STOP JUMPDEST PUSH2 0x48B PUSH2 0x16E6 JUMP JUMPDEST STOP JUMPDEST PUSH2 0x495 PUSH2 0x16F9 JUMP JUMPDEST STOP JUMPDEST PUSH2 0x4B1 PUSH1 0x4 DUP1 CALLDATASIZE SUB DUP2 ADD SWAP1 PUSH2 0x4AC SWAP2 SWAP1 PUSH2 0x3E78 JUMP JUMPDEST PUSH2 0x170B JUMP JUMPDEST PUSH1 0x40 MLOAD PUSH2 0x4BE SWAP2 SWAP1 PUSH2 0x3DAC JUMP JUMPDEST PUSH1 0x40 MLOAD DUP1 SWAP2 SUB SWAP1 RETURN JUMPDEST PUSH2 0x4CF PUSH2 0x1720 JUMP JUMPDEST PUSH1 0x40 MLOAD PUSH2 0x4DC SWAP2 SWAP1 PUSH2 0x471E JUMP JUMPDEST PUSH1 0x40 MLOAD DUP1 SWAP2 SUB SWAP1 RETURN JUMPDEST PUSH2 0x4FF PUSH1 0x4 DUP1 CALLDATASIZE SUB DUP2 ADD SWAP1 PUSH2 0x4FA SWAP2 SWAP1 PUSH2 0x4041 JUMP JUMPDEST PUSH2 0x1748 JUMP JUMPDEST STOP JUMPDEST PUSH2 0x51B PUSH1 0x4 DUP1 CALLDATASIZE SUB DUP2 ADD SWAP1 PUSH2 0x516 SWAP2 SWAP1 PUSH2 0x4761 JUMP JUMPDEST PUSH2 0x1993 JUMP JUMPDEST STOP JUMPDEST PUSH2 0x537 PUSH1 0x4 DUP1 CALLDATASIZE SUB DUP2 ADD SWAP1 PUSH2 0x532 SWAP2 SWAP1 PUSH2 0x45FE JUMP JUMPDEST PUSH2 0x19A9 JUMP JUMPDEST STOP JUMPDEST PUSH2 0x553 PUSH1 0x4 DUP1 CALLDATASIZE SUB DUP2 ADD SWAP1 PUSH2 0x54E SWAP2 SWAP1 PUSH2 0x479F JUMP JUMPDEST PUSH2 0x1AE2 JUMP JUMPDEST STOP JUMPDEST PUSH2 0x56F PUSH1 0x4 DUP1 CALLDATASIZE SUB DUP2 ADD SWAP1 PUSH2 0x56A SWAP2 SWAP1 PUSH2 0x3D5F JUMP JUMPDEST PUSH2 0x1EB8 JUMP JUMPDEST PUSH1 0x40 MLOAD PUSH2 0x57C SWAP2 SWAP1 PUSH2 0x3E5F JUMP JUMPDEST PUSH1 0x40 MLOAD DUP1 SWAP2 SUB SWAP1 RETURN JUMPDEST PUSH2 0x59F PUSH1 0x4 DUP1 CALLDATASIZE SUB DUP2 ADD SWAP1 PUSH2 0x59A SWAP2 SWAP1 PUSH2 0x3FE4 JUMP JUMPDEST PUSH2 0x1EE2 JUMP JUMPDEST PUSH1 0x40 MLOAD PUSH2 0x5AC SWAP2 SWAP1 PUSH2 0x3DAC JUMP JUMPDEST PUSH1 0x40 MLOAD DUP1 SWAP2 SUB SWAP1 RETURN JUMPDEST PUSH2 0x5CF PUSH1 0x4 DUP1 CALLDATASIZE SUB DUP2 ADD SWAP1 PUSH2 0x5CA SWAP2 SWAP1 PUSH2 0x4872 JUMP JUMPDEST PUSH2 0x1FFA JUMP JUMPDEST STOP JUMPDEST PUSH2 0x5EB PUSH1 0x4 DUP1 CALLDATASIZE SUB DUP2 ADD SWAP1 PUSH2 0x5E6 SWAP2 SWAP1 PUSH2 0x3E78 JUMP JUMPDEST PUSH2 0x2292 JUMP JUMPDEST PUSH1 0x40 MLOAD PUSH2 0x5F8 SWAP2 SWAP1 PUSH2 0x3DAC JUMP JUMPDEST PUSH1 0x40 MLOAD DUP1 SWAP2 SUB SWAP1 RETURN JUMPDEST PUSH2 0x609 PUSH2 0x22AC JUMP JUMPDEST PUSH1 0x40 MLOAD PUSH2 0x616 SWAP2 SWAP1 PUSH2 0x471E JUMP JUMPDEST PUSH1 0x40 MLOAD DUP1 SWAP2 SUB SWAP1 RETURN JUMPDEST PUSH2 0x639 PUSH1 0x4 DUP1 CALLDATASIZE SUB DUP2 ADD SWAP1 PUSH2 0x634 SWAP2 SWAP1 PUSH2 0x3E78 JUMP JUMPDEST PUSH2 0x22D1 JUMP JUMPDEST PUSH1 0x40 MLOAD PUSH2 0x646 SWAP2 SWAP1 PUSH2 0x3DAC JUMP JUMPDEST PUSH1 0x40 MLOAD DUP1 SWAP2 SUB SWAP1 RETURN JUMPDEST PUSH2 0x669 PUSH1 0x4 DUP1 CALLDATASIZE SUB DUP2 ADD SWAP1 PUSH2 0x664 SWAP2 SWAP1 PUSH2 0x467E JUMP JUMPDEST PUSH2 0x22E6 JUMP JUMPDEST STOP JUMPDEST PUSH2 0x685 PUSH1 0x4 DUP1 CALLDATASIZE SUB DUP2 ADD SWAP1 PUSH2 0x680 SWAP2 SWAP1 PUSH2 0x48E3 JUMP JUMPDEST PUSH2 0x2668 JUMP JUMPDEST PUSH1 0x40 MLOAD PUSH2 0x692 SWAP2 SWAP1 PUSH2 0x3E5F JUMP JUMPDEST PUSH1 0x40 MLOAD DUP1 SWAP2 SUB SWAP1 RETURN JUMPDEST PUSH2 0x6B5 PUSH1 0x4 DUP1 CALLDATASIZE SUB DUP2 ADD SWAP1 PUSH2 0x6B0 SWAP2 SWAP1 PUSH2 0x3E78 JUMP JUMPDEST PUSH2 0x26F6 JUMP JUMPDEST STOP JUMPDEST PUSH2 0x6D1 PUSH1 0x4 DUP1 CALLDATASIZE SUB DUP2 ADD SWAP1 PUSH2 0x6CC SWAP2 SWAP1 PUSH2 0x4921 JUMP JUMPDEST PUSH2 0x2748 JUMP JUMPDEST STOP JUMPDEST PUSH2 0x6ED PUSH1 0x4 DUP1 CALLDATASIZE SUB DUP2 ADD SWAP1 PUSH2 0x6E8 SWAP2 SWAP1 PUSH2 0x45FE JUMP JUMPDEST PUSH2 0x27EF JUMP JUMPDEST STOP JUMPDEST PUSH2 0x709 PUSH1 0x4 DUP1 CALLDATASIZE SUB DUP2 ADD SWAP1 PUSH2 0x704 SWAP2 SWAP1 PUSH2 0x3F33 JUMP JUMPDEST PUSH2 0x2873 JUMP JUMPDEST STOP JUMPDEST PUSH0 PUSH0 PUSH0 DUP4 DUP2 MSTORE PUSH1 0x20 ADD SWAP1 DUP2 MSTORE PUSH1 0x20 ADD PUSH0 KECCAK256 PUSH0 DUP5 PUSH20 0xFFFFFFFFFFFFFFFFFFFFFFFFFFFFFFFFFFFFFFFF AND PUSH20 0xFFFFFFFFFFFFFFFFFFFFFFFFFFFFFFFFFFFFFFFF AND DUP2 MSTORE PUSH1 0x20 ADD SWAP1 DUP2 MSTORE PUSH1 0x20 ADD PUSH0 KECCAK256 SLOAD SWAP1 POP SWAP3 SWAP2 POP POP JUMP JUMPDEST PUSH0 PUSH32 0xD9B67A2600000000000000000000000000000000000000000000000000000000 PUSH28 0xFFFFFFFFFFFFFFFFFFFFFFFFFFFFFFFFFFFFFFFFFFFFFFFFFFFFFFFF NOT AND DUP3 PUSH28 0xFFFFFFFFFFFFFFFFFFFFFFFFFFFFFFFFFFFFFFFFFFFFFFFFFFFFFFFF NOT AND EQ DUP1 PUSH2 0x82A JUMPI POP PUSH32 0xE89341C00000000000000000000000000000000000000000000000000000000 PUSH28 0xFFFFFFFFFFFFFFFFFFFFFFFFFFFFFFFFFFFFFFFFFFFFFFFFFFFFFFFF NOT AND DUP3 PUSH28 0xFFFFFFFFFFFFFFFFFFFFFFFFFFFFFFFFFFFFFFFFFFFFFFFFFFFFFFFF NOT AND EQ JUMPDEST DUP1 PUSH2 0x83A JUMPI POP PUSH2 0x839 DUP3 PUSH2 0x29D4 JUMP JUMPDEST JUMPDEST SWAP1 POP SWAP2 SWAP1 POP JUMP JUMPDEST PUSH1 0x60 PUSH0 PUSH1 0x8 PUSH0 DUP5 DUP2 MSTORE PUSH1 0x20 ADD SWAP1 DUP2 MSTORE PUSH1 0x20 ADD PUSH0 KECCAK256 DUP1 SLOAD PUSH2 0x860 SWAP1 PUSH2 0x49E1 JUMP JUMPDEST SWAP1 POP GT ISZERO PUSH2 0x907 JUMPI PUSH1 0x8 PUSH0 DUP4 DUP2 MSTORE PUSH1 0x20 ADD SWAP1 DUP2 MSTORE PUSH1 0x20 ADD PUSH0 KECCAK256 DUP1 SLOAD PUSH2 0x884 SWAP1 PUSH2 0x49E1 JUMP JUMPDEST DUP1 PUSH1 0x1F ADD PUSH1 0x20 DUP1 SWAP2 DIV MUL PUSH1 0x20 ADD PUSH1 0x40 MLOAD SWAP1 DUP2 ADD PUSH1 0x40 MSTORE DUP1 SWAP3 SWAP2 SWAP1 DUP2 DUP2 MSTORE PUSH1 0x20 ADD DUP3 DUP1 SLOAD PUSH2 0x8B0 SWAP1 PUSH2 0x49E1 JUMP JUMPDEST DUP1 ISZERO PUSH2 0x8FB JUMPI DUP1 PUSH1 0x1F LT PUSH2 0x8D2 JUMPI PUSH2 0x100 DUP1 DUP4 SLOAD DIV MUL DUP4 MSTORE SWAP2 PUSH1 0x20 ADD SWAP2 PUSH2 0x8FB JUMP JUMPDEST DUP3 ADD SWAP2 SWAP1 PUSH0 MSTORE PUSH1 0x20 PUSH0 KECCAK256 SWAP1 JUMPDEST DUP2 SLOAD DUP2 MSTORE SWAP1 PUSH1 0x1 ADD SWAP1 PUSH1 0x20 ADD DUP1 DUP4 GT PUSH2 0x8DE JUMPI DUP3 SWAP1 SUB PUSH1 0x1F AND DUP3 ADD SWAP2 JUMPDEST POP POP POP POP POP SWAP1 POP PUSH2 0x913 JUMP JUMPDEST PUSH2 0x910 DUP3 PUSH2 0x2A3D JUMP JUMPDEST SWAP1 POP JUMPDEST SWAP2 SWAP1 POP JUMP JUMPDEST PUSH1 0xD SLOAD DUP2 JUMP JUMPDEST PUSH2 0x926 PUSH2 0x2ACF JUMP JUMPDEST PUSH2 0x92E PUSH2 0x2B56 JUMP JUMPDEST PUSH2 0x936 PUSH2 0x2BA0 JUMP JUMPDEST PUSH0 PUSH20 0xFFFFFFFFFFFFFFFFFFFFFFFFFFFFFFFFFFFFFFFF AND DUP4 PUSH20 0xFFFFFFFFFFFFFFFFFFFFFFFFFFFFFFFFFFFFFFFF AND SUB PUSH2 0x9A4 JUMPI PUSH1 0x40 MLOAD PUSH32 0x8C379A000000000000000000000000000000000000000000000000000000000 DUP2 MSTORE PUSH1 0x4 ADD PUSH2 0x99B SWAP1 PUSH2 0x4A5B JUMP JUMPDEST PUSH1 0x40 MLOAD DUP1 SWAP2 SUB SWAP1 REVERT JUMPDEST PUSH0 DUP2 GT PUSH2 0x9E6 JUMPI PUSH1 0x40 MLOAD PUSH32 0x8C379A000000000000000000000000000000000000000000000000000000000 DUP2 MSTORE PUSH1 0x4 ADD PUSH2 0x9DD SWAP1 PUSH2 0x4AC3 JUMP JUMPDEST PUSH1 0x40 MLOAD DUP1 SWAP2 SUB SWAP1 REVERT JUMPDEST PUSH0 PUSH1 0x8 PUSH0 DUP5 DUP2 MSTORE PUSH1 0x20 ADD SWAP1 DUP2 MSTORE PUSH1 0x20 ADD PUSH0 KECCAK256 DUP1 SLOAD PUSH2 0xA03 SWAP1 PUSH2 0x49E1 JUMP JUMPDEST SWAP1 POP GT PUSH2 0xA45 JUMPI PUSH1 0x40 MLOAD PUSH32 0x8C379A000000000000000000000000000000000000000000000000000000000 DUP2 MSTORE PUSH1 0x4 ADD PUSH2 0xA3C SWAP1 PUSH2 0x4B2B JUMP JUMPDEST PUSH1 0x40 MLOAD DUP1 SWAP2 SUB SWAP1 REVERT JUMPDEST PUSH0 PUSH1 0x7 PUSH0 DUP5 DUP2 MSTORE PUSH1 0x20 ADD SWAP1 DUP2 MSTORE PUSH1 0x20 ADD PUSH0 KECCAK256 SLOAD SWAP1 POP PUSH0 DUP2 EQ PUSH2 0xAC1 JUMPI DUP1 DUP3 PUSH1 0x6 PUSH0 DUP7 DUP2 MSTORE PUSH1 0x20 ADD SWAP1 DUP2 MSTORE PUSH1 0x20 ADD PUSH0 KECCAK256 SLOAD PUSH2 0xA7F SWAP2 SWAP1 PUSH2 0x4B76 JUMP JUMPDEST GT ISZERO PUSH2 0xAC0 JUMPI PUSH1 0x40 MLOAD PUSH32 0x8C379A000000000000000000000000000000000000000000000000000000000 DUP2 MSTORE PUSH1 0x4 ADD PUSH2 0xAB7 SWAP1 PUSH2 0x4BF3 JUMP JUMPDEST PUSH1 0x40 MLOAD DUP1 SWAP2 SUB SWAP1 REVERT JUMPDEST JUMPDEST PUSH2 0xADB DUP5 DUP5 DUP5 PUSH1 0x40 MLOAD DUP1 PUSH1 0x20 ADD PUSH1 0x40 MSTORE DUP1 PUSH0 DUP2 MSTORE POP PUSH2 0x2BEF JUMP JUMPDEST DUP2 PUSH1 0x6 PUSH0 DUP6 DUP2 MSTORE PUSH1 0x20 ADD SWAP1 DUP2 MSTORE PUSH1 0x20 ADD PUSH0 KECCAK256 PUSH0 DUP3 DUP3 SLOAD PUSH2 0xAFB SWAP2 SWAP1 PUSH2 0x4B76 JUMP JUMPDEST SWAP3 POP POP DUP2 SWAP1 SSTORE POP DUP3 DUP5 PUSH20 0xFFFFFFFFFFFFFFFFFFFFFFFFFFFFFFFFFFFFFFFF AND PUSH32 0xD9BE9C40C7E99DFC974FA3FE3B790AF02AFD2939B5DEDFCCB1BA12933EB27A8E DUP5 PUSH1 0x40 MLOAD PUSH2 0xB49 SWAP2 SWAP1 PUSH2 0x3DAC JUMP JUMPDEST PUSH1 0x40 MLOAD DUP1 SWAP2 SUB SWAP1 LOG3 POP PUSH2 0xB5A PUSH2 0x2C84 JUMP JUMPDEST POP POP POP JUMP JUMPDEST PUSH2 0xB67 PUSH2 0x2ACF JUMP JUMPDEST PUSH0 DUP4 GT PUSH2 0xBA9 JUMPI PUSH1 0x40 MLOAD PUSH32 0x8C379A000000000000000000000000000000000000000000000000000000000 DUP2 MSTORE PUSH1 0x4 ADD PUSH2 0xBA0 SWAP1 PUSH2 0x4C5B JUMP JUMPDEST PUSH1 0x40 MLOAD DUP1 SWAP2 SUB SWAP1 REVERT JUMPDEST DUP2 DUP2 PUSH1 0x8 PUSH0 DUP7 DUP2 MSTORE PUSH1 0x20 ADD SWAP1 DUP2 MSTORE PUSH1 0x20 ADD PUSH0 KECCAK256 SWAP2 DUP3 PUSH2 0xBC9 SWAP3 SWAP2 SWAP1 PUSH2 0x4E1A JUMP JUMPDEST POP DUP3 PUSH32 0xDA84CA2183491F179A603E877B2CB058E42195041C2B9C53D746427E519A34DF DUP4 DUP4 PUSH1 0x40 MLOAD PUSH2 0xBFC SWAP3 SWAP2 SWAP1 PUSH2 0x4F13 JUMP JUMPDEST PUSH1 0x40 MLOAD DUP1 SWAP2 SUB SWAP1 LOG2 POP POP POP JUMP JUMPDEST PUSH2 0xC11 PUSH2 0x2ACF JUMP JUMPDEST PUSH0 PUSH1 0x8 PUSH0 DUP5 DUP2 MSTORE PUSH1 0x20 ADD SWAP1 DUP2 MSTORE PUSH1 0x20 ADD PUSH0 KECCAK256 DUP1 SLOAD PUSH2 0xC2E SWAP1 PUSH2 0x49E1 JUMP JUMPDEST SWAP1 POP GT PUSH2 0xC70 JUMPI PUSH1 0x40 MLOAD PUSH32 0x8C379A000000000000000000000000000000000000000000000000000000000 DUP2 MSTORE PUSH1 0x4 ADD PUSH2 0xC67 SWAP1 PUSH2 0x4B2B JUMP JUMPDEST PUSH1 0x40 MLOAD DUP1 SWAP2 SUB SWAP1 REVERT JUMPDEST DUP1 PUSH1 0x9 PUSH0 DUP5 DUP2 MSTORE PUSH1 0x20 ADD SWAP1 DUP2 MSTORE PUSH1 0x20 ADD PUSH0 KECCAK256 DUP2 SWAP1 SSTORE POP DUP2 PUSH32 0xFAF4D1242DAFD68C114DD26F4AAE1BE5548457F00D0B34F50F099BE695A71B7B DUP3 PUSH1 0x40 MLOAD PUSH2 0xCB6 SWAP2 SWAP1 PUSH2 0x3DAC JUMP JUMPDEST PUSH1 0x40 MLOAD DUP1 SWAP2 SUB SWAP1 LOG2 POP POP JUMP JUMPDEST PUSH0 PUSH2 0xCCB PUSH2 0x2C8E JUMP JUMPDEST SWAP1 POP DUP1 PUSH20 0xFFFFFFFFFFFFFFFFFFFFFFFFFFFFFFFFFFFFFFFF AND DUP7 PUSH20 0xFFFFFFFFFFFFFFFFFFFFFFFFFFFFFFFFFFFFFFFF AND EQ ISZERO DUP1 ISZERO PUSH2 0xD10 JUMPI POP PUSH2 0xD0E DUP7 DUP3 PUSH2 0x2668 JUMP JUMPDEST ISZERO JUMPDEST ISZERO PUSH2 0xD54 JUMPI DUP1 DUP7 PUSH1 0x40 MLOAD PUSH32 0xE237D92200000000000000000000000000000000000000000000000000000000 DUP2 MSTORE PUSH1 0x4 ADD PUSH2 0xD4B SWAP3 SWAP2 SWAP1 PUSH2 0x4F35 JUMP JUMPDEST PUSH1 0x40 MLOAD DUP1 SWAP2 SUB SWAP1 REVERT JUMPDEST PUSH2 0xD61 DUP7 DUP7 DUP7 DUP7 DUP7 PUSH2 0x2C95 JUMP JUMPDEST POP POP POP POP POP POP JUMP JUMPDEST PUSH1 0xB PUSH0 SWAP1 SLOAD SWAP1 PUSH2 0x100 EXP SWAP1 DIV PUSH20 0xFFFFFFFFFFFFFFFFFFFFFFFFFFFFFFFFFFFFFFFF AND DUP2 JUMP JUMPDEST PUSH2 0xD96 PUSH2 0x2B56 JUMP JUMPDEST PUSH2 0xD9E PUSH2 0x2BA0 JUMP JUMPDEST PUSH0 PUSH1 0x9 PUSH0 DUP4 DUP2 MSTORE PUSH1 0x20 ADD SWAP1 DUP2 MSTORE PUSH1 0x20 ADD PUSH0 KECCAK256 SLOAD GT PUSH2 0xDF1 JUMPI PUSH1 0x40 MLOAD PUSH32 0x8C379A000000000000000000000000000000000000000000000000000000000 DUP2 MSTORE PUSH1 0x4 ADD PUSH2 0xDE8 SWAP1 PUSH2 0x4FA6 JUMP JUMPDEST PUSH1 0x40 MLOAD DUP1 SWAP2 SUB SWAP1 REVERT JUMPDEST PUSH1 0xA PUSH0 CALLER PUSH20 0xFFFFFFFFFFFFFFFFFFFFFFFFFFFFFFFFFFFFFFFF AND PUSH20 0xFFFFFFFFFFFFFFFFFFFFFFFFFFFFFFFFFFFFFFFF AND DUP2 MSTORE PUSH1 0x20 ADD SWAP1 DUP2 MSTORE PUSH1 0x20 ADD PUSH0 KECCAK256 PUSH0 DUP3 DUP2 MSTORE PUSH1 0x20 ADD SWAP1 DUP2 MSTORE PUSH1 0x20 ADD PUSH0 KECCAK256 PUSH0 SWAP1 SLOAD SWAP1 PUSH2 0x100 EXP SWAP1 DIV PUSH1 0xFF AND ISZERO PUSH2 0xE8A JUMPI PUSH1 0x40 MLOAD PUSH32 0x8C379A000000000000000000000000000000000000000000000000000000000 DUP2 MSTORE PUSH1 0x4 ADD PUSH2 0xE81 SWAP1 PUSH2 0x500E JUMP JUMPDEST PUSH1 0x40 MLOAD DUP1 SWAP2 SUB SWAP1 REVERT JUMPDEST PUSH0 PUSH1 0x8 PUSH0 DUP4 DUP2 MSTORE PUSH1 0x20 ADD SWAP1 DUP2 MSTORE PUSH1 0x20 ADD PUSH0 KECCAK256 DUP1 SLOAD PUSH2 0xEA7 SWAP1 PUSH2 0x49E1 JUMP JUMPDEST SWAP1 POP GT PUSH2 0xEE9 JUMPI PUSH1 0x40 MLOAD PUSH32 0x8C379A000000000000000000000000000000000000000000000000000000000 DUP2 MSTORE PUSH1 0x4 ADD PUSH2 0xEE0 SWAP1 PUSH2 0x4B2B JUMP JUMPDEST PUSH1 0x40 MLOAD DUP1 SWAP2 SUB SWAP1 REVERT JUMPDEST PUSH0 PUSH1 0x7 PUSH0 DUP4 DUP2 MSTORE PUSH1 0x20 ADD SWAP1 DUP2 MSTORE PUSH1 0x20 ADD PUSH0 KECCAK256 SLOAD SWAP1 POP PUSH0 DUP2 EQ PUSH2 0xF66 JUMPI DUP1 PUSH1 0x1 PUSH1 0x6 PUSH0 DUP6 DUP2 MSTORE PUSH1 0x20 ADD SWAP1 DUP2 MSTORE PUSH1 0x20 ADD PUSH0 KECCAK256 SLOAD PUSH2 0xF24 SWAP2 SWAP1 PUSH2 0x4B76 JUMP JUMPDEST GT ISZERO PUSH2 0xF65 JUMPI PUSH1 0x40 MLOAD PUSH32 0x8C379A000000000000000000000000000000000000000000000000000000000 DUP2 MSTORE PUSH1 0x4 ADD PUSH2 0xF5C SWAP1 PUSH2 0x4BF3 JUMP JUMPDEST PUSH1 0x40 MLOAD DUP1 SWAP2 SUB SWAP1 REVERT JUMPDEST JUMPDEST PUSH1 0x1 PUSH1 0x9 PUSH0 DUP5 DUP2 MSTORE PUSH1 0x20 ADD SWAP1 DUP2 MSTORE PUSH1 0x20 ADD PUSH0 KECCAK256 PUSH0 DUP3 DUP3 SLOAD PUSH2 0xF87 SWAP2 SWAP1 PUSH2 0x502C JUMP JUMPDEST SWAP3 POP POP DUP2 SWAP1 SSTORE POP PUSH1 0x1 PUSH1 0xA PUSH0 CALLER PUSH20 0xFFFFFFFFFFFFFFFFFFFFFFFFFFFFFFFFFFFFFFFF AND PUSH20 0xFFFFFFFFFFFFFFFFFFFFFFFFFFFFFFFFFFFFFFFF AND DUP2 MSTORE PUSH1 0x20 ADD SWAP1 DUP2 MSTORE PUSH1 0x20 ADD PUSH0 KECCAK256 PUSH0 DUP5 DUP2 MSTORE PUSH1 0x20 ADD SWAP1 DUP2 MSTORE PUSH1 0x20 ADD PUSH0 KECCAK256 PUSH0 PUSH2 0x100 EXP DUP2 SLOAD DUP2 PUSH1 0xFF MUL NOT AND SWAP1 DUP4 ISZERO ISZERO MUL OR SWAP1 SSTORE POP PUSH2 0x100D CALLER DUP4 PUSH1 0x1 PUSH1 0x40 MLOAD DUP1 PUSH1 0x20 ADD PUSH1 0x40 MSTORE DUP1 PUSH0 DUP2 MSTORE POP PUSH2 0x2BEF JUMP JUMPDEST PUSH1 0x1 PUSH1 0x6 PUSH0 DUP5 DUP2 MSTORE PUSH1 0x20 ADD SWAP1 DUP2 MSTORE PUSH1 0x20 ADD PUSH0 KECCAK256 PUSH0 DUP3 DUP3 SLOAD PUSH2 0x102E SWAP2 SWAP1 PUSH2 0x4B76 JUMP JUMPDEST SWAP3 POP POP DUP2 SWAP1 SSTORE POP DUP2 CALLER PUSH20 0xFFFFFFFFFFFFFFFFFFFFFFFFFFFFFFFFFFFFFFFF AND PUSH32 0x6D19FF886809A18034B4A6EAA1A47897927295FBCB65B1951C8334D80E184132 PUSH1 0x40 MLOAD PUSH1 0x40 MLOAD DUP1 SWAP2 SUB SWAP1 LOG3 POP PUSH2 0x1082 PUSH2 0x2C84 JUMP JUMPDEST POP JUMP JUMPDEST PUSH2 0x108D PUSH2 0x2ACF JUMP JUMPDEST PUSH0 DUP3 GT DUP1 ISZERO PUSH2 0x10B8 JUMPI POP PUSH0 PUSH1 0x8 PUSH0 DUP5 DUP2 MSTORE PUSH1 0x20 ADD SWAP1 DUP2 MSTORE PUSH1 0x20 ADD PUSH0 KECCAK256 DUP1 SLOAD PUSH2 0x10B4 SWAP1 PUSH2 0x49E1 JUMP JUMPDEST SWAP1 POP GT JUMPDEST PUSH2 0x10F7 JUMPI PUSH1 0x40 MLOAD PUSH32 0x8C379A000000000000000000000000000000000000000000000000000000000 DUP2 MSTORE PUSH1 0x4 ADD PUSH2 0x10EE SWAP1 PUSH2 0x4C5B JUMP JUMPDEST PUSH1 0x40 MLOAD DUP1 SWAP2 SUB SWAP1 REVERT JUMPDEST DUP1 PUSH1 0x7 PUSH0 DUP5 DUP2 MSTORE PUSH1 0x20 ADD SWAP1 DUP2 MSTORE PUSH1 0x20 ADD PUSH0 KECCAK256 DUP2 SWAP1 SSTORE POP DUP2 PUSH32 0x5AF22A09E6677EFE5D29D19BF6A17F71D28CAAD7707022D8EAB337320DF9F50D DUP3 PUSH1 0x40 MLOAD PUSH2 0x113D SWAP2 SWAP1 PUSH2 0x3DAC JUMP JUMPDEST PUSH1 0x40 MLOAD DUP1 SWAP2 SUB SWAP1 LOG2 POP POP JUMP JUMPDEST PUSH2 0x1151 PUSH2 0x2ACF JUMP JUMPDEST PUSH2 0x1159 PUSH2 0x2D89 JUMP JUMPDEST JUMP JUMPDEST PUSH1 0x60 DUP2 MLOAD DUP4 MLOAD EQ PUSH2 0x11A7 JUMPI DUP2 MLOAD DUP4 MLOAD PUSH1 0x40 MLOAD PUSH32 0x5B05999100000000000000000000000000000000000000000000000000000000 DUP2 MSTORE PUSH1 0x4 ADD PUSH2 0x119E SWAP3 SWAP2 SWAP1 PUSH2 0x505F JUMP JUMPDEST PUSH1 0x40 MLOAD DUP1 SWAP2 SUB SWAP1 REVERT JUMPDEST PUSH0 DUP4 MLOAD PUSH8 0xFFFFFFFFFFFFFFFF DUP2 GT ISZERO PUSH2 0x11C3 JUMPI PUSH2 0x11C2 PUSH2 0x407F JUMP JUMPDEST JUMPDEST PUSH1 0x40 MLOAD SWAP1 DUP1 DUP3 MSTORE DUP1 PUSH1 0x20 MUL PUSH1 0x20 ADD DUP3 ADD PUSH1 0x40 MSTORE DUP1 ISZERO PUSH2 0x11F1 JUMPI DUP2 PUSH1 0x20 ADD PUSH1 0x20 DUP3 MUL DUP1 CALLDATASIZE DUP4 CALLDATACOPY DUP1 DUP3 ADD SWAP2 POP POP SWAP1 POP JUMPDEST POP SWAP1 POP PUSH0 PUSH0 SWAP1 POP JUMPDEST DUP5 MLOAD DUP2 LT ISZERO PUSH2 0x125A JUMPI PUSH2 0x1230 PUSH2 0x1218 DUP3 DUP8 PUSH2 0x2DEB SWAP1 SWAP2 SWAP1 PUSH4 0xFFFFFFFF AND JUMP JUMPDEST PUSH2 0x122B DUP4 DUP8 PUSH2 0x2DFE SWAP1 SWAP2 SWAP1 PUSH4 0xFFFFFFFF AND JUMP JUMPDEST PUSH2 0x70B JUMP JUMPDEST DUP3 DUP3 DUP2 MLOAD DUP2 LT PUSH2 0x1243 JUMPI PUSH2 0x1242 PUSH2 0x5086 JUMP JUMPDEST JUMPDEST PUSH1 0x20 MUL PUSH1 0x20 ADD ADD DUP2 DUP2 MSTORE POP POP DUP1 PUSH1 0x1 ADD SWAP1 POP PUSH2 0x11F9 JUMP JUMPDEST POP DUP1 SWAP2 POP POP SWAP3 SWAP2 POP POP JUMP JUMPDEST PUSH0 PUSH0 PUSH1 0x6 PUSH0 DUP5 DUP2 MSTORE PUSH1 0x20 ADD SWAP1 DUP2 MSTORE PUSH1 0x20 ADD PUSH0 KECCAK256 SLOAD GT DUP1 PUSH2 0x12A1 JUMPI POP PUSH0 PUSH1 0x8 PUSH0 DUP5 DUP2 MSTORE PUSH1 0x20 ADD SWAP1 DUP2 MSTORE PUSH1 0x20 ADD PUSH0 KECCAK256 DUP1 SLOAD PUSH2 0x129D SWAP1 PUSH2 0x49E1 JUMP JUMPDEST SWAP1 POP GT JUMPDEST SWAP1 POP SWAP2 SWAP1 POP JUMP JUMPDEST PUSH2 0x12B0 PUSH2 0x2ACF JUMP JUMPDEST PUSH2 0x12FC DUP3 DUP3 DUP1 DUP1 PUSH1 0x1F ADD PUSH1 0x20 DUP1 SWAP2 DIV MUL PUSH1 0x20 ADD PUSH1 0x40 MLOAD SWAP1 DUP2 ADD PUSH1 0x40 MSTORE DUP1 SWAP4 SWAP3 SWAP2 SWAP1 DUP2 DUP2 MSTORE PUSH1 0x20 ADD DUP4 DUP4 DUP1 DUP3 DUP5 CALLDATACOPY PUSH0 DUP2 DUP5 ADD MSTORE PUSH1 0x1F NOT PUSH1 0x1F DUP3 ADD AND SWAP1 POP DUP1 DUP4 ADD SWAP3 POP POP POP POP POP POP POP PUSH2 0x2E11 JUMP JUMPDEST POP POP JUMP JUMPDEST PUSH0 PUSH1 0x3 PUSH1 0x14 SWAP1 SLOAD SWAP1 PUSH2 0x100 EXP SWAP1 DIV PUSH1 0xFF AND SWAP1 POP SWAP1 JUMP JUMPDEST PUSH2 0x131E PUSH2 0x2ACF JUMP JUMPDEST PUSH0 PUSH20 0xFFFFFFFFFFFFFFFFFFFFFFFFFFFFFFFFFFFFFFFF AND DUP2 PUSH20 0xFFFFFFFFFFFFFFFFFFFFFFFFFFFFFFFFFFFFFFFF AND SUB PUSH2 0x138C JUMPI PUSH1 0x40 MLOAD PUSH32 0x8C379A000000000000000000000000000000000000000000000000000000000 DUP2 MSTORE PUSH1 0x4 ADD PUSH2 0x1383 SWAP1 PUSH2 0x50FD JUMP JUMPDEST PUSH1 0x40 MLOAD DUP1 SWAP2 SUB SWAP1 REVERT JUMPDEST PUSH0 PUSH1 0xB PUSH0 SWAP1 SLOAD SWAP1 PUSH2 0x100 EXP SWAP1 DIV PUSH20 0xFFFFFFFFFFFFFFFFFFFFFFFFFFFFFFFFFFFFFFFF AND SWAP1 POP DUP2 PUSH1 0xB PUSH0 PUSH2 0x100 EXP DUP2 SLOAD DUP2 PUSH20 0xFFFFFFFFFFFFFFFFFFFFFFFFFFFFFFFFFFFFFFFF MUL NOT AND SWAP1 DUP4 PUSH20 0xFFFFFFFFFFFFFFFFFFFFFFFFFFFFFFFFFFFFFFFF AND MUL OR SWAP1 SSTORE POP DUP2 PUSH20 0xFFFFFFFFFFFFFFFFFFFFFFFFFFFFFFFFFFFFFFFF AND DUP2 PUSH20 0xFFFFFFFFFFFFFFFFFFFFFFFFFFFFFFFFFFFFFFFF AND PUSH32 0x5EFDFEDF5AEF119C431263F0656093045DFFDF44B3D8F1B0F158DC295C3A0F8E PUSH1 0x40 MLOAD PUSH1 0x40 MLOAD DUP1 SWAP2 SUB SWAP1 LOG3 POP POP JUMP JUMPDEST PUSH2 0x1457 PUSH2 0x2B56 JUMP JUMPDEST CALLER PUSH20 0xFFFFFFFFFFFFFFFFFFFFFFFFFFFFFFFFFFFFFFFF AND DUP6 PUSH20 0xFFFFFFFFFFFFFFFFFFFFFFFFFFFFFFFFFFFFFFFF AND EQ DUP1 PUSH2 0x1497 JUMPI POP PUSH2 0x1496 DUP6 CALLER PUSH2 0x2668 JUMP JUMPDEST JUMPDEST PUSH2 0x14D6 JUMPI PUSH1 0x40 MLOAD PUSH32 0x8C379A000000000000000000000000000000000000000000000000000000000 DUP2 MSTORE PUSH1 0x4 ADD PUSH2 0x14CD SWAP1 PUSH2 0x5165 JUMP JUMPDEST PUSH1 0x40 MLOAD DUP1 SWAP2 SUB SWAP1 REVERT JUMPDEST PUSH2 0x1561 DUP6 DUP6 DUP6 DUP1 DUP1 PUSH1 0x20 MUL PUSH1 0x20 ADD PUSH1 0x40 MLOAD SWAP1 DUP2 ADD PUSH1 0x40 MSTORE DUP1 SWAP4 SWAP3 SWAP2 SWAP1 DUP2 DUP2 MSTORE PUSH1 0x20 ADD DUP4 DUP4 PUSH1 0x20 MUL DUP1 DUP3 DUP5 CALLDATACOPY PUSH0 DUP2 DUP5 ADD MSTORE PUSH1 0x1F NOT PUSH1 0x1F DUP3 ADD AND SWAP1 POP DUP1 DUP4 ADD SWAP3 POP POP POP POP POP POP POP DUP5 DUP5 DUP1 DUP1 PUSH1 0x20 MUL PUSH1 0x20 ADD PUSH1 0x40 MLOAD SWAP1 DUP2 ADD PUSH1 0x40 MSTORE DUP1 SWAP4 SWAP3 SWAP2 SWAP1 DUP2 DUP2 MSTORE PUSH1 0x20 ADD DUP4 DUP4 PUSH1 0x20 MUL DUP1 DUP3 DUP5 CALLDATACOPY PUSH0 DUP2 DUP5 ADD MSTORE PUSH1 0x1F NOT PUSH1 0x1F DUP3 ADD AND SWAP1 POP DUP1 DUP4 ADD SWAP3 POP POP POP POP POP POP POP PUSH2 0x2E24 JUMP JUMPDEST PUSH0 PUSH0 SWAP1 POP JUMPDEST DUP5 DUP5 SWAP1 POP DUP2 LT ISZERO PUSH2 0x16DE JUMPI DUP3 DUP3 DUP3 DUP2 DUP2 LT PUSH2 0x1584 JUMPI PUSH2 0x1583 PUSH2 0x5086 JUMP JUMPDEST JUMPDEST SWAP1 POP PUSH1 0x20 MUL ADD CALLDATALOAD PUSH1 0x6 PUSH0 DUP8 DUP8 DUP6 DUP2 DUP2 LT PUSH2 0x15A1 JUMPI PUSH2 0x15A0 PUSH2 0x5086 JUMP JUMPDEST JUMPDEST SWAP1 POP PUSH1 0x20 MUL ADD CALLDATALOAD DUP2 MSTORE PUSH1 0x20 ADD SWAP1 DUP2 MSTORE PUSH1 0x20 ADD PUSH0 KECCAK256 SLOAD LT ISZERO PUSH2 0x15F7 JUMPI PUSH1 0x40 MLOAD PUSH32 0x8C379A000000000000000000000000000000000000000000000000000000000 DUP2 MSTORE PUSH1 0x4 ADD PUSH2 0x15EE SWAP1 PUSH2 0x51CD JUMP JUMPDEST PUSH1 0x40 MLOAD DUP1 SWAP2 SUB SWAP1 REVERT JUMPDEST DUP3 DUP3 DUP3 DUP2 DUP2 LT PUSH2 0x160A JUMPI PUSH2 0x1609 PUSH2 0x5086 JUMP JUMPDEST JUMPDEST SWAP1 POP PUSH1 0x20 MUL ADD CALLDATALOAD PUSH1 0x6 PUSH0 DUP8 DUP8 DUP6 DUP2 DUP2 LT PUSH2 0x1627 JUMPI PUSH2 0x1626 PUSH2 0x5086 JUMP JUMPDEST JUMPDEST SWAP1 POP PUSH1 0x20 MUL ADD CALLDATALOAD DUP2 MSTORE PUSH1 0x20 ADD SWAP1 DUP2 MSTORE PUSH1 0x20 ADD PUSH0 KECCAK256 PUSH0 DUP3 DUP3 SLOAD PUSH2 0x1649 SWAP2 SWAP1 PUSH2 0x502C JUMP JUMPDEST SWAP3 POP POP DUP2 SWAP1 SSTORE POP DUP5 DUP5 DUP3 DUP2 DUP2 LT PUSH2 0x1663 JUMPI PUSH2 0x1662 PUSH2 0x5086 JUMP JUMPDEST JUMPDEST SWAP1 POP PUSH1 0x20 MUL ADD CALLDATALOAD DUP7 PUSH20 0xFFFFFFFFFFFFFFFFFFFFFFFFFFFFFFFFFFFFFFFF AND PUSH32 0xCA29B5193C49B3F0CB8DA1E82B521DB2857868FCD608682D536A6444A936460C DUP6 DUP6 DUP6 DUP2 DUP2 LT PUSH2 0x16B5 JUMPI PUSH2 0x16B4 PUSH2 0x5086 JUMP JUMPDEST JUMPDEST SWAP1 POP PUSH1 0x20 MUL ADD CALLDATALOAD PUSH1 0x40 MLOAD PUSH2 0x16C9 SWAP2 SWAP1 PUSH2 0x3DAC JUMP JUMPDEST PUSH1 0x40 MLOAD DUP1 SWAP2 SUB SWAP1 LOG3 DUP1 DUP1 PUSH1 0x1 ADD SWAP2 POP POP PUSH2 0x1566 JUMP JUMPDEST POP POP POP POP POP POP JUMP JUMPDEST PUSH2 0x16EE PUSH2 0x2ACF JUMP JUMPDEST PUSH2 0x16F7 PUSH0 PUSH2 0x2EB4 JUMP JUMPDEST JUMP JUMPDEST PUSH2 0x1701 PUSH2 0x2ACF JUMP JUMPDEST PUSH2 0x1709 PUSH2 0x2F77 JUMP JUMPDEST JUMP JUMPDEST PUSH1 0x7 PUSH1 0x20 MSTORE DUP1 PUSH0 MSTORE PUSH1 0x40 PUSH0 KECCAK256 PUSH0 SWAP2 POP SWAP1 POP SLOAD DUP2 JUMP JUMPDEST PUSH0 PUSH1 0x3 PUSH0 SWAP1 SLOAD SWAP1 PUSH2 0x100 EXP SWAP1 DIV PUSH20 0xFFFFFFFFFFFFFFFFFFFFFFFFFFFFFFFFFFFFFFFF AND SWAP1 POP SWAP1 JUMP JUMPDEST PUSH2 0x1750 PUSH2 0x2B56 JUMP JUMPDEST PUSH2 0x1758 PUSH2 0x2BA0 JUMP JUMPDEST PUSH0 DUP2 GT PUSH2 0x179A JUMPI PUSH1 0x40 MLOAD PUSH32 0x8C379A000000000000000000000000000000000000000000000000000000000 DUP2 MSTORE PUSH1 0x4 ADD PUSH2 0x1791 SWAP1 PUSH2 0x4AC3 JUMP JUMPDEST PUSH1 0x40 MLOAD DUP1 SWAP2 SUB SWAP1 REVERT JUMPDEST PUSH0 PUSH1 0x8 PUSH0 DUP5 DUP2 MSTORE PUSH1 0x20 ADD SWAP1 DUP2 MSTORE PUSH1 0x20 ADD PUSH0 KECCAK256 DUP1 SLOAD PUSH2 0x17B7 SWAP1 PUSH2 0x49E1 JUMP JUMPDEST SWAP1 POP GT PUSH2 0x17F9 JUMPI PUSH1 0x40 MLOAD PUSH32 0x8C379A000000000000000000000000000000000000000000000000000000000 DUP2 MSTORE PUSH1 0x4 ADD PUSH2 0x17F0 SWAP1 PUSH2 0x4B2B JUMP JUMPDEST PUSH1 0x40 MLOAD DUP1 SWAP2 SUB SWAP1 REVERT JUMPDEST PUSH0 PUSH1 0x7 PUSH0 DUP5 DUP2 MSTORE PUSH1 0x20 ADD SWAP1 DUP2 MSTORE PUSH1 0x20 ADD PUSH0 KECCAK256 SLOAD SWAP1 POP PUSH0 DUP2 EQ PUSH2 0x1875 JUMPI DUP1 DUP3 PUSH1 0x6 PUSH0 DUP7 DUP2 MSTORE PUSH1 0x20 ADD SWAP1 DUP2 MSTORE PUSH1 0x20 ADD PUSH0 KECCAK256 SLOAD PUSH2 0x1833 SWAP2 SWAP1 PUSH2 0x4B76 JUMP JUMPDEST GT ISZERO PUSH2 0x1874 JUMPI PUSH1 0x40 MLOAD PUSH32 0x8C379A000000000000000000000000000000000000000000000000000000000 DUP2 MSTORE PUSH1 0x4 ADD PUSH2 0x186B SWAP1 PUSH2 0x4BF3 JUMP JUMPDEST PUSH1 0x40 MLOAD DUP1 SWAP2 SUB SWAP1 REVERT JUMPDEST JUMPDEST PUSH0 DUP3 PUSH1 0xD SLOAD PUSH2 0x1884 SWAP2 SWAP1 PUSH2 0x51EB JUMP JUMPDEST SWAP1 POP PUSH2 0x18F5 CALLER PUSH1 0xC PUSH0 SWAP1 SLOAD SWAP1 PUSH2 0x100 EXP SWAP1 DIV PUSH20 0xFFFFFFFFFFFFFFFFFFFFFFFFFFFFFFFFFFFFFFFF AND DUP4 PUSH1 0xB PUSH0 SWAP1 SLOAD SWAP1 PUSH2 0x100 EXP SWAP1 DIV PUSH20 0xFFFFFFFFFFFFFFFFFFFFFFFFFFFFFFFFFFFFFFFF AND PUSH20 0xFFFFFFFFFFFFFFFFFFFFFFFFFFFFFFFFFFFFFFFF AND PUSH2 0x2FDA SWAP1 SWAP4 SWAP3 SWAP2 SWAP1 PUSH4 0xFFFFFFFF AND JUMP JUMPDEST PUSH2 0x190F CALLER DUP6 DUP6 PUSH1 0x40 MLOAD DUP1 PUSH1 0x20 ADD PUSH1 0x40 MSTORE DUP1 PUSH0 DUP2 MSTORE POP PUSH2 0x2BEF JUMP JUMPDEST DUP3 PUSH1 0x6 PUSH0 DUP7 DUP2 MSTORE PUSH1 0x20 ADD SWAP1 DUP2 MSTORE PUSH1 0x20 ADD PUSH0 KECCAK256 PUSH0 DUP3 DUP3 SLOAD PUSH2 0x192F SWAP2 SWAP1 PUSH2 0x4B76 JUMP JUMPDEST SWAP3 POP POP DUP2 SWAP1 SSTORE POP DUP4 CALLER PUSH20 0xFFFFFFFFFFFFFFFFFFFFFFFFFFFFFFFFFFFFFFFF AND PUSH32 0xD9BE9C40C7E99DFC974FA3FE3B790AF02AFD2939B5DEDFCCB1BA12933EB27A8E DUP6 PUSH1 0x40 MLOAD PUSH2 0x197D SWAP2 SWAP1 PUSH2 0x3DAC JUMP JUMPDEST PUSH1 0x40 MLOAD DUP1 SWAP2 SUB SWAP1 LOG3 POP POP PUSH2 0x198F PUSH2 0x2C84 JUMP JUMPDEST POP POP JUMP JUMPDEST PUSH2 0x19A5 PUSH2 0x199E PUSH2 0x2C8E JUMP JUMPDEST DUP4 DUP4 PUSH2 0x305C JUMP JUMPDEST POP POP JUMP JUMPDEST PUSH2 0x19B1 PUSH2 0x2ACF JUMP JUMPDEST PUSH0 PUSH20 0xFFFFFFFFFFFFFFFFFFFFFFFFFFFFFFFFFFFFFFFF AND DUP2 PUSH20 0xFFFFFFFFFFFFFFFFFFFFFFFFFFFFFFFFFFFFFFFF AND SUB PUSH2 0x1A1F JUMPI PUSH1 0x40 MLOAD PUSH32 0x8C379A000000000000000000000000000000000000000000000000000000000 DUP2 MSTORE PUSH1 0x4 ADD PUSH2 0x1A16 SWAP1 PUSH2 0x5276 JUMP JUMPDEST PUSH1 0x40 MLOAD DUP1 SWAP2 SUB SWAP1 REVERT JUMPDEST PUSH0 PUSH1 0xC PUSH0 SWAP1 SLOAD SWAP1 PUSH2 0x100 EXP SWAP1 DIV PUSH20 0xFFFFFFFFFFFFFFFFFFFFFFFFFFFFFFFFFFFFFFFF AND SWAP1 POP DUP2 PUSH1 0xC PUSH0 PUSH2 0x100 EXP DUP2 SLOAD DUP2 PUSH20 0xFFFFFFFFFFFFFFFFFFFFFFFFFFFFFFFFFFFFFFFF MUL NOT AND SWAP1 DUP4 PUSH20 0xFFFFFFFFFFFFFFFFFFFFFFFFFFFFFFFFFFFFFFFF AND MUL OR SWAP1 SSTORE POP DUP2 PUSH20 0xFFFFFFFFFFFFFFFFFFFFFFFFFFFFFFFFFFFFFFFF AND DUP2 PUSH20 0xFFFFFFFFFFFFFFFFFFFFFFFFFFFFFFFFFFFFFFFF AND PUSH32 0x5D16AD41BAEB009CD23EB8F6C7CDE5C2E0CD5ACF4A33926AB488875C37C37F38 PUSH1 0x40 MLOAD PUSH1 0x40 MLOAD DUP1 SWAP2 SUB SWAP1 LOG3 POP POP JUMP JUMPDEST PUSH2 0x1AEA PUSH2 0x2B56 JUMP JUMPDEST PUSH2 0x1AF2 PUSH2 0x2BA0 JUMP JUMPDEST DUP2 DUP2 SWAP1 POP DUP5 DUP5 SWAP1 POP EQ PUSH2 0x1B3A JUMPI PUSH1 0x40 MLOAD PUSH32 0x8C379A000000000000000000000000000000000000000000000000000000000 DUP2 MSTORE PUSH1 0x4 ADD PUSH2 0x1B31 SWAP1 PUSH2 0x52DE JUMP JUMPDEST PUSH1 0x40 MLOAD DUP1 SWAP2 SUB SWAP1 REVERT JUMPDEST PUSH0 PUSH0 SWAP1 POP PUSH0 PUSH0 SWAP1 POP JUMPDEST DUP6 DUP6 SWAP1 POP DUP2 LT ISZERO PUSH2 0x1CC2 JUMPI PUSH0 PUSH1 0x8 PUSH0 DUP9 DUP9 DUP6 DUP2 DUP2 LT PUSH2 0x1B65 JUMPI PUSH2 0x1B64 PUSH2 0x5086 JUMP JUMPDEST JUMPDEST SWAP1 POP PUSH1 0x20 MUL ADD CALLDATALOAD DUP2 MSTORE PUSH1 0x20 ADD SWAP1 DUP2 MSTORE PUSH1 0x20 ADD PUSH0 KECCAK256 DUP1 SLOAD PUSH2 0x1B84 SWAP1 PUSH2 0x49E1 JUMP JUMPDEST SWAP1 POP GT PUSH2 0x1BC6 JUMPI PUSH1 0x40 MLOAD PUSH32 0x8C379A000000000000000000000000000000000000000000000000000000000 DUP2 MSTORE PUSH1 0x4 ADD PUSH2 0x1BBD SWAP1 PUSH2 0x4B2B JUMP JUMPDEST PUSH1 0x40 MLOAD DUP1 SWAP2 SUB SWAP1 REVERT JUMPDEST PUSH0 PUSH1 0x7 PUSH0 DUP9 DUP9 DUP6 DUP2 DUP2 LT PUSH2 0x1BDD JUMPI PUSH2 0x1BDC PUSH2 0x5086 JUMP JUMPDEST JUMPDEST SWAP1 POP PUSH1 0x20 MUL ADD CALLDATALOAD DUP2 MSTORE PUSH1 0x20 ADD SWAP1 DUP2 MSTORE PUSH1 0x20 ADD PUSH0 KECCAK256 SLOAD SWAP1 POP PUSH0 DUP2 EQ PUSH2 0x1C8D JUMPI DUP1 DUP6 DUP6 DUP5 DUP2 DUP2 LT PUSH2 0x1C0F JUMPI PUSH2 0x1C0E PUSH2 0x5086 JUMP JUMPDEST JUMPDEST SWAP1 POP PUSH1 0x20 MUL ADD CALLDATALOAD PUSH1 0x6 PUSH0 DUP11 DUP11 DUP8 DUP2 DUP2 LT PUSH2 0x1C2C JUMPI PUSH2 0x1C2B PUSH2 0x5086 JUMP JUMPDEST JUMPDEST SWAP1 POP PUSH1 0x20 MUL ADD CALLDATALOAD DUP2 MSTORE PUSH1 0x20 ADD SWAP1 DUP2 MSTORE PUSH1 0x20 ADD PUSH0 KECCAK256 SLOAD PUSH2 0x1C4B SWAP2 SWAP1 PUSH2 0x4B76 JUMP JUMPDEST GT ISZERO PUSH2 0x1C8C JUMPI PUSH1 0x40 MLOAD PUSH32 0x8C379A000000000000000000000000000000000000000000000000000000000 DUP2 MSTORE PUSH1 0x4 ADD PUSH2 0x1C83 SWAP1 PUSH2 0x4BF3 JUMP JUMPDEST PUSH1 0x40 MLOAD DUP1 SWAP2 SUB SWAP1 REVERT JUMPDEST JUMPDEST DUP5 DUP5 DUP4 DUP2 DUP2 LT PUSH2 0x1CA0 JUMPI PUSH2 0x1C9F PUSH2 0x5086 JUMP JUMPDEST JUMPDEST SWAP1 POP PUSH1 0x20 MUL ADD CALLDATALOAD DUP4 PUSH2 0x1CB2 SWAP2 SWAP1 PUSH2 0x4B76 JUMP JUMPDEST SWAP3 POP POP DUP1 DUP1 PUSH1 0x1 ADD SWAP2 POP POP PUSH2 0x1B43 JUMP JUMPDEST POP PUSH0 DUP2 PUSH1 0xD SLOAD PUSH2 0x1CD2 SWAP2 SWAP1 PUSH2 0x51EB JUMP JUMPDEST SWAP1 POP PUSH2 0x1D43 CALLER PUSH1 0xC PUSH0 SWAP1 SLOAD SWAP1 PUSH2 0x100 EXP SWAP1 DIV PUSH20 0xFFFFFFFFFFFFFFFFFFFFFFFFFFFFFFFFFFFFFFFF AND DUP4 PUSH1 0xB PUSH0 SWAP1 SLOAD SWAP1 PUSH2 0x100 EXP SWAP1 DIV PUSH20 0xFFFFFFFFFFFFFFFFFFFFFFFFFFFFFFFFFFFFFFFF AND PUSH20 0xFFFFFFFFFFFFFFFFFFFFFFFFFFFFFFFFFFFFFFFF AND PUSH2 0x2FDA SWAP1 SWAP4 SWAP3 SWAP2 SWAP1 PUSH4 0xFFFFFFFF AND JUMP JUMPDEST PUSH2 0x1DDD CALLER DUP8 DUP8 DUP1 DUP1 PUSH1 0x20 MUL PUSH1 0x20 ADD PUSH1 0x40 MLOAD SWAP1 DUP2 ADD PUSH1 0x40 MSTORE DUP1 SWAP4 SWAP3 SWAP2 SWAP1 DUP2 DUP2 MSTORE PUSH1 0x20 ADD DUP4 DUP4 PUSH1 0x20 MUL DUP1 DUP3 DUP5 CALLDATACOPY PUSH0 DUP2 DUP5 ADD MSTORE PUSH1 0x1F NOT PUSH1 0x1F DUP3 ADD AND SWAP1 POP DUP1 DUP4 ADD SWAP3 POP POP POP POP POP POP POP DUP7 DUP7 DUP1 DUP1 PUSH1 0x20 MUL PUSH1 0x20 ADD PUSH1 0x40 MLOAD SWAP1 DUP2 ADD PUSH1 0x40 MSTORE DUP1 SWAP4 SWAP3 SWAP2 SWAP1 DUP2 DUP2 MSTORE PUSH1 0x20 ADD DUP4 DUP4 PUSH1 0x20 MUL DUP1 DUP3 DUP5 CALLDATACOPY PUSH0 DUP2 DUP5 ADD MSTORE PUSH1 0x1F NOT PUSH1 0x1F DUP3 ADD AND SWAP1 POP DUP1 DUP4 ADD SWAP3 POP POP POP POP POP POP POP PUSH1 0x40 MLOAD DUP1 PUSH1 0x20 ADD PUSH1 0x40 MSTORE DUP1 PUSH0 DUP2 MSTORE POP PUSH2 0x31C5 JUMP JUMPDEST PUSH0 PUSH0 SWAP1 POP JUMPDEST DUP7 DUP7 SWAP1 POP DUP2 LT ISZERO PUSH2 0x1E53 JUMPI DUP5 DUP5 DUP3 DUP2 DUP2 LT PUSH2 0x1E00 JUMPI PUSH2 0x1DFF PUSH2 0x5086 JUMP JUMPDEST JUMPDEST SWAP1 POP PUSH1 0x20 MUL ADD CALLDATALOAD PUSH1 0x6 PUSH0 DUP10 DUP10 DUP6 DUP2 DUP2 LT PUSH2 0x1E1D JUMPI PUSH2 0x1E1C PUSH2 0x5086 JUMP JUMPDEST JUMPDEST SWAP1 POP PUSH1 0x20 MUL ADD CALLDATALOAD DUP2 MSTORE PUSH1 0x20 ADD SWAP1 DUP2 MSTORE PUSH1 0x20 ADD PUSH0 KECCAK256 PUSH0 DUP3 DUP3 SLOAD PUSH2 0x1E3F SWAP2 SWAP1 PUSH2 0x4B76 JUMP JUMPDEST SWAP3 POP POP DUP2 SWAP1 SSTORE POP DUP1 DUP1 PUSH1 0x1 ADD SWAP2 POP POP PUSH2 0x1DE2 JUMP JUMPDEST POP CALLER PUSH20 0xFFFFFFFFFFFFFFFFFFFFFFFFFFFFFFFFFFFFFFFF AND PUSH32 0xD4C50E5EBF755BAFD67AF075E537A0BC038CFE574120F65DE5BF7BEB72BCB1B DUP8 DUP8 DUP8 DUP8 PUSH1 0x40 MLOAD PUSH2 0x1EA0 SWAP5 SWAP4 SWAP3 SWAP2 SWAP1 PUSH2 0x5364 JUMP JUMPDEST PUSH1 0x40 MLOAD DUP1 SWAP2 SUB SWAP1 LOG2 POP POP PUSH2 0x1EB2 PUSH2 0x2C84 JUMP JUMPDEST POP POP POP POP JUMP JUMPDEST PUSH1 0xA PUSH1 0x20 MSTORE DUP2 PUSH0 MSTORE PUSH1 0x40 PUSH0 KECCAK256 PUSH1 0x20 MSTORE DUP1 PUSH0 MSTORE PUSH1 0x40 PUSH0 KECCAK256 PUSH0 SWAP2 POP SWAP2 POP SWAP1 SLOAD SWAP1 PUSH2 0x100 EXP SWAP1 DIV PUSH1 0xFF AND DUP2 JUMP JUMPDEST PUSH0 PUSH2 0x1EEB PUSH2 0x2ACF JUMP JUMPDEST PUSH0 DUP4 DUP4 SWAP1 POP GT PUSH2 0x1F30 JUMPI PUSH1 0x40 MLOAD PUSH32 0x8C379A000000000000000000000000000000000000000000000000000000000 DUP2 MSTORE PUSH1 0x4 ADD PUSH2 0x1F27 SWAP1 PUSH2 0x53E7 JUMP JUMPDEST PUSH1 0x40 MLOAD DUP1 SWAP2 SUB SWAP1 REVERT JUMPDEST PUSH2 0x1F3A PUSH1 0x5 PUSH2 0x3248 JUMP JUMPDEST PUSH2 0x1F44 PUSH1 0x5 PUSH2 0x325C JUMP JUMPDEST SWAP1 POP DUP4 PUSH1 0x7 PUSH0 DUP4 DUP2 MSTORE PUSH1 0x20 ADD SWAP1 DUP2 MSTORE PUSH1 0x20 ADD PUSH0 KECCAK256 DUP2 SWAP1 SSTORE POP DUP3 DUP3 PUSH1 0x8 PUSH0 DUP5 DUP2 MSTORE PUSH1 0x20 ADD SWAP1 DUP2 MSTORE PUSH1 0x20 ADD PUSH0 KECCAK256 SWAP2 DUP3 PUSH2 0x1F7C SWAP3 SWAP2 SWAP1 PUSH2 0x4E1A JUMP JUMPDEST POP DUP1 PUSH32 0xB422B6A58F90B597556AD527264CD8162B14E403EA3A093C13197BD9E7227D95 DUP6 DUP6 DUP6 PUSH1 0x40 MLOAD PUSH2 0x1FB1 SWAP4 SWAP3 SWAP2 SWAP1 PUSH2 0x5405 JUMP JUMPDEST PUSH1 0x40 MLOAD DUP1 SWAP2 SUB SWAP1 LOG2 DUP1 PUSH32 0xDA84CA2183491F179A603E877B2CB058E42195041C2B9C53D746427E519A34DF DUP5 DUP5 PUSH1 0x40 MLOAD PUSH2 0x1FEB SWAP3 SWAP2 SWAP1 PUSH2 0x4F13 JUMP JUMPDEST PUSH1 0x40 MLOAD DUP1 SWAP2 SUB SWAP1 LOG2 SWAP4 SWAP3 POP POP POP JUMP JUMPDEST PUSH2 0x2002 PUSH2 0x2ACF JUMP JUMPDEST PUSH2 0x200A PUSH2 0x2B56 JUMP JUMPDEST PUSH2 0x2012 PUSH2 0x2BA0 JUMP JUMPDEST PUSH0 DUP5 DUP5 SWAP1 POP GT PUSH2 0x2057 JUMPI PUSH1 0x40 MLOAD PUSH32 0x8C379A000000000000000000000000000000000000000000000000000000000 DUP2 MSTORE PUSH1 0x4 ADD PUSH2 0x204E SWAP1 PUSH2 0x547F JUMP JUMPDEST PUSH1 0x40 MLOAD DUP1 SWAP2 SUB SWAP1 REVERT JUMPDEST PUSH0 PUSH1 0x8 PUSH0 DUP5 DUP2 MSTORE PUSH1 0x20 ADD SWAP1 DUP2 MSTORE PUSH1 0x20 ADD PUSH0 KECCAK256 DUP1 SLOAD PUSH2 0x2074 SWAP1 PUSH2 0x49E1 JUMP JUMPDEST SWAP1 POP GT PUSH2 0x20B6 JUMPI PUSH1 0x40 MLOAD PUSH32 0x8C379A000000000000000000000000000000000000000000000000000000000 DUP2 MSTORE PUSH1 0x4 ADD PUSH2 0x20AD SWAP1 PUSH2 0x4B2B JUMP JUMPDEST PUSH1 0x40 MLOAD DUP1 SWAP2 SUB SWAP1 REVERT JUMPDEST PUSH0 DUP2 GT PUSH2 0x20F8 JUMPI PUSH1 0x40 MLOAD PUSH32 0x8C379A000000000000000000000000000000000000000000000000000000000 DUP2 MSTORE PUSH1 0x4 ADD PUSH2 0x20EF SWAP1 PUSH2 0x4AC3 JUMP JUMPDEST PUSH1 0x40 MLOAD DUP1 SWAP2 SUB SWAP1 REVERT JUMPDEST PUSH0 DUP2 DUP6 DUP6 SWAP1 POP PUSH2 0x2108 SWAP2 SWAP1 PUSH2 0x51EB JUMP JUMPDEST SWAP1 POP PUSH0 PUSH1 0x7 PUSH0 DUP6 DUP2 MSTORE PUSH1 0x20 ADD SWAP1 DUP2 MSTORE PUSH1 0x20 ADD PUSH0 KECCAK256 SLOAD SWAP1 POP PUSH0 DUP2 EQ PUSH2 0x2186 JUMPI DUP1 DUP3 PUSH1 0x6 PUSH0 DUP8 DUP2 MSTORE PUSH1 0x20 ADD SWAP1 DUP2 MSTORE PUSH1 0x20 ADD PUSH0 KECCAK256 SLOAD PUSH2 0x2144 SWAP2 SWAP1 PUSH2 0x4B76 JUMP JUMPDEST GT ISZERO PUSH2 0x2185 JUMPI PUSH1 0x40 MLOAD PUSH32 0x8C379A000000000000000000000000000000000000000000000000000000000 DUP2 MSTORE PUSH1 0x4 ADD PUSH2 0x217C SWAP1 PUSH2 0x4BF3 JUMP JUMPDEST PUSH1 0x40 MLOAD DUP1 SWAP2 SUB SWAP1 REVERT JUMPDEST JUMPDEST PUSH0 PUSH0 SWAP1 POP JUMPDEST DUP7 DUP7 SWAP1 POP DUP2 LT ISZERO PUSH2 0x2281 JUMPI PUSH2 0x21D7 DUP8 DUP8 DUP4 DUP2 DUP2 LT PUSH2 0x21AC JUMPI PUSH2 0x21AB PUSH2 0x5086 JUMP JUMPDEST JUMPDEST SWAP1 POP PUSH1 0x20 MUL ADD PUSH1 0x20 DUP2 ADD SWAP1 PUSH2 0x21C1 SWAP2 SWAP1 PUSH2 0x45FE JUMP JUMPDEST DUP7 DUP7 PUSH1 0x40 MLOAD DUP1 PUSH1 0x20 ADD PUSH1 0x40 MSTORE DUP1 PUSH0 DUP2 MSTORE POP PUSH2 0x2BEF JUMP JUMPDEST DUP4 PUSH1 0x6 PUSH0 DUP8 DUP2 MSTORE PUSH1 0x20 ADD SWAP1 DUP2 MSTORE PUSH1 0x20 ADD PUSH0 KECCAK256 PUSH0 DUP3 DUP3 SLOAD PUSH2 0x21F7 SWAP2 SWAP1 PUSH2 0x4B76 JUMP JUMPDEST SWAP3 POP POP DUP2 SWAP1 SSTORE POP DUP5 DUP8 DUP8 DUP4 DUP2 DUP2 LT PUSH2 0x2212 JUMPI PUSH2 0x2211 PUSH2 0x5086 JUMP JUMPDEST JUMPDEST SWAP1 POP PUSH1 0x20 MUL ADD PUSH1 0x20 DUP2 ADD SWAP1 PUSH2 0x2227 SWAP2 SWAP1 PUSH2 0x45FE JUMP JUMPDEST PUSH20 0xFFFFFFFFFFFFFFFFFFFFFFFFFFFFFFFFFFFFFFFF AND PUSH32 0xD9BE9C40C7E99DFC974FA3FE3B790AF02AFD2939B5DEDFCCB1BA12933EB27A8E DUP7 PUSH1 0x40 MLOAD PUSH2 0x226C SWAP2 SWAP1 PUSH2 0x3DAC JUMP JUMPDEST PUSH1 0x40 MLOAD DUP1 SWAP2 SUB SWAP1 LOG3 DUP1 DUP1 PUSH1 0x1 ADD SWAP2 POP POP PUSH2 0x218B JUMP JUMPDEST POP POP POP PUSH2 0x228C PUSH2 0x2C84 JUMP JUMPDEST POP POP POP POP JUMP JUMPDEST PUSH0 PUSH1 0x6 PUSH0 DUP4 DUP2 MSTORE PUSH1 0x20 ADD SWAP1 DUP2 MSTORE PUSH1 0x20 ADD PUSH0 KECCAK256 SLOAD SWAP1 POP SWAP2 SWAP1 POP JUMP JUMPDEST PUSH1 0xC PUSH0 SWAP1 SLOAD SWAP1 PUSH2 0x100 EXP SWAP1 DIV PUSH20 0xFFFFFFFFFFFFFFFFFFFFFFFFFFFFFFFFFFFFFFFF AND DUP2 JUMP JUMPDEST PUSH1 0x9 PUSH1 0x20 MSTORE DUP1 PUSH0 MSTORE PUSH1 0x40 PUSH0 KECCAK256 PUSH0 SWAP2 POP SWAP1 POP SLOAD DUP2 JUMP JUMPDEST PUSH2 0x22EE PUSH2 0x2ACF JUMP JUMPDEST PUSH2 0x22F6 PUSH2 0x2B56 JUMP JUMPDEST PUSH2 0x22FE PUSH2 0x2BA0 JUMP JUMPDEST PUSH0 PUSH20 0xFFFFFFFFFFFFFFFFFFFFFFFFFFFFFFFFFFFFFFFF AND DUP6 PUSH20 0xFFFFFFFFFFFFFFFFFFFFFFFFFFFFFFFFFFFFFFFF AND SUB PUSH2 0x236C JUMPI PUSH1 0x40 MLOAD PUSH32 0x8C379A000000000000000000000000000000000000000000000000000000000 DUP2 MSTORE PUSH1 0x4 ADD PUSH2 0x2363 SWAP1 PUSH2 0x4A5B JUMP JUMPDEST PUSH1 0x40 MLOAD DUP1 SWAP2 SUB SWAP1 REVERT JUMPDEST DUP2 DUP2 SWAP1 POP DUP5 DUP5 SWAP1 POP EQ PUSH2 0x23B4 JUMPI PUSH1 0x40 MLOAD PUSH32 0x8C379A000000000000000000000000000000000000000000000000000000000 DUP2 MSTORE PUSH1 0x4 ADD PUSH2 0x23AB SWAP1 PUSH2 0x52DE JUMP JUMPDEST PUSH1 0x40 MLOAD DUP1 SWAP2 SUB SWAP1 REVERT JUMPDEST PUSH0 PUSH0 SWAP1 POP JUMPDEST DUP5 DUP5 SWAP1 POP DUP2 LT ISZERO PUSH2 0x256A JUMPI PUSH0 PUSH1 0x8 PUSH0 DUP8 DUP8 DUP6 DUP2 DUP2 LT PUSH2 0x23DB JUMPI PUSH2 0x23DA PUSH2 0x5086 JUMP JUMPDEST JUMPDEST SWAP1 POP PUSH1 0x20 MUL ADD CALLDATALOAD DUP2 MSTORE PUSH1 0x20 ADD SWAP1 DUP2 MSTORE PUSH1 0x20 ADD PUSH0 KECCAK256 DUP1 SLOAD PUSH2 0x23FA SWAP1 PUSH2 0x49E1 JUMP JUMPDEST SWAP1 POP GT PUSH2 0x243C JUMPI PUSH1 0x40 MLOAD PUSH32 0x8C379A000000000000000000000000000000000000000000000000000000000 DUP2 MSTORE PUSH1 0x4 ADD PUSH2 0x2433 SWAP1 PUSH2 0x4B2B JUMP JUMPDEST PUSH1 0x40 MLOAD DUP1 SWAP2 SUB SWAP1 REVERT JUMPDEST PUSH0 PUSH1 0x7 PUSH0 DUP8 DUP8 DUP6 DUP2 DUP2 LT PUSH2 0x2453 JUMPI PUSH2 0x2452 PUSH2 0x5086 JUMP JUMPDEST JUMPDEST SWAP1 POP PUSH1 0x20 MUL ADD CALLDATALOAD DUP2 MSTORE PUSH1 0x20 ADD SWAP1 DUP2 MSTORE PUSH1 0x20 ADD PUSH0 KECCAK256 SLOAD SWAP1 POP PUSH0 DUP2 EQ PUSH2 0x2503 JUMPI DUP1 DUP5 DUP5 DUP5 DUP2 DUP2 LT PUSH2 0x2485 JUMPI PUSH2 0x2484 PUSH2 0x5086 JUMP JUMPDEST JUMPDEST SWAP1 POP PUSH1 0x20 MUL ADD CALLDATALOAD PUSH1 0x6 PUSH0 DUP10 DUP10 DUP8 DUP2 DUP2 LT PUSH2 0x24A2 JUMPI PUSH2 0x24A1 PUSH2 0x5086 JUMP JUMPDEST JUMPDEST SWAP1 POP PUSH1 0x20 MUL ADD CALLDATALOAD DUP2 MSTORE PUSH1 0x20 ADD SWAP1 DUP2 MSTORE PUSH1 0x20 ADD PUSH0 KECCAK256 SLOAD PUSH2 0x24C1 SWAP2 SWAP1 PUSH2 0x4B76 JUMP JUMPDEST GT ISZERO PUSH2 0x2502 JUMPI PUSH1 0x40 MLOAD PUSH32 0x8C379A000000000000000000000000000000000000000000000000000000000 DUP2 MSTORE PUSH1 0x4 ADD PUSH2 0x24F9 SWAP1 PUSH2 0x4BF3 JUMP JUMPDEST PUSH1 0x40 MLOAD DUP1 SWAP2 SUB SWAP1 REVERT JUMPDEST JUMPDEST DUP4 DUP4 DUP4 DUP2 DUP2 LT PUSH2 0x2516 JUMPI PUSH2 0x2515 PUSH2 0x5086 JUMP JUMPDEST JUMPDEST SWAP1 POP PUSH1 0x20 MUL ADD CALLDATALOAD PUSH1 0x6 PUSH0 DUP9 DUP9 DUP7 DUP2 DUP2 LT PUSH2 0x2533 JUMPI PUSH2 0x2532 PUSH2 0x5086 JUMP JUMPDEST JUMPDEST SWAP1 POP PUSH1 0x20 MUL ADD CALLDATALOAD DUP2 MSTORE PUSH1 0x20 ADD SWAP1 DUP2 MSTORE PUSH1 0x20 ADD PUSH0 KECCAK256 PUSH0 DUP3 DUP3 SLOAD PUSH2 0x2555 SWAP2 SWAP1 PUSH2 0x4B76 JUMP JUMPDEST SWAP3 POP POP DUP2 SWAP1 SSTORE POP POP DUP1 DUP1 PUSH1 0x1 ADD SWAP2 POP POP PUSH2 0x23B9 JUMP JUMPDEST POP PUSH2 0x2605 DUP6 DUP6 DUP6 DUP1 DUP1 PUSH1 0x20 MUL PUSH1 0x20 ADD PUSH1 0x40 MLOAD SWAP1 DUP2 ADD PUSH1 0x40 MSTORE DUP1 SWAP4 SWAP3 SWAP2 SWAP1 DUP2 DUP2 MSTORE PUSH1 0x20 ADD DUP4 DUP4 PUSH1 0x20 MUL DUP1 DUP3 DUP5 CALLDATACOPY PUSH0 DUP2 DUP5 ADD MSTORE PUSH1 0x1F NOT PUSH1 0x1F DUP3 ADD AND SWAP1 POP DUP1 DUP4 ADD SWAP3 POP POP POP POP POP POP POP DUP5 DUP5 DUP1 DUP1 PUSH1 0x20 MUL PUSH1 0x20 ADD PUSH1 0x40 MLOAD SWAP1 DUP2 ADD PUSH1 0x40 MSTORE DUP1 SWAP4 SWAP3 SWAP2 SWAP1 DUP2 DUP2 MSTORE PUSH1 0x20 ADD DUP4 DUP4 PUSH1 0x20 MUL DUP1 DUP3 DUP5 CALLDATACOPY PUSH0 DUP2 DUP5 ADD MSTORE PUSH1 0x1F NOT PUSH1 0x1F DUP3 ADD AND SWAP1 POP DUP1 DUP4 ADD SWAP3 POP POP POP POP POP POP POP PUSH1 0x40 MLOAD DUP1 PUSH1 0x20 ADD PUSH1 0x40 MSTORE DUP1 PUSH0 DUP2 MSTORE POP PUSH2 0x31C5 JUMP JUMPDEST DUP5 PUSH20 0xFFFFFFFFFFFFFFFFFFFFFFFFFFFFFFFFFFFFFFFF AND PUSH32 0xD4C50E5EBF755BAFD67AF075E537A0BC038CFE574120F65DE5BF7BEB72BCB1B DUP6 DUP6 DUP6 DUP6 PUSH1 0x40 MLOAD PUSH2 0x2651 SWAP5 SWAP4 SWAP3 SWAP2 SWAP1 PUSH2 0x5364 JUMP JUMPDEST PUSH1 0x40 MLOAD DUP1 SWAP2 SUB SWAP1 LOG2 PUSH2 0x2661 PUSH2 0x2C84 JUMP JUMPDEST POP POP POP POP POP JUMP JUMPDEST PUSH0 PUSH1 0x1 PUSH0 DUP5 PUSH20 0xFFFFFFFFFFFFFFFFFFFFFFFFFFFFFFFFFFFFFFFF AND PUSH20 0xFFFFFFFFFFFFFFFFFFFFFFFFFFFFFFFFFFFFFFFF AND DUP2 MSTORE PUSH1 0x20 ADD SWAP1 DUP2 MSTORE PUSH1 0x20 ADD PUSH0 KECCAK256 PUSH0 DUP4 PUSH20 0xFFFFFFFFFFFFFFFFFFFFFFFFFFFFFFFFFFFFFFFF AND PUSH20 0xFFFFFFFFFFFFFFFFFFFFFFFFFFFFFFFFFFFFFFFF AND DUP2 MSTORE PUSH1 0x20 ADD SWAP1 DUP2 MSTORE PUSH1 0x20 ADD PUSH0 KECCAK256 PUSH0 SWAP1 SLOAD SWAP1 PUSH2 0x100 EXP SWAP1 DIV PUSH1 0xFF AND SWAP1 POP SWAP3 SWAP2 POP POP JUMP JUMPDEST PUSH2 0x26FE PUSH2 0x2ACF JUMP JUMPDEST PUSH0 PUSH1 0xD SLOAD SWAP1 POP DUP2 PUSH1 0xD DUP2 SWAP1 SSTORE POP PUSH32 0x7864BF708CAE822050E5F50960A0DE31BD6FE7620A8F67A48582FB95F29C114A DUP2 DUP4 PUSH1 0x40 MLOAD PUSH2 0x273C SWAP3 SWAP2 SWAP1 PUSH2 0x505F JUMP JUMPDEST PUSH1 0x40 MLOAD DUP1 SWAP2 SUB SWAP1 LOG1 POP POP JUMP JUMPDEST PUSH0 PUSH2 0x2751 PUSH2 0x2C8E JUMP JUMPDEST SWAP1 POP DUP1 PUSH20 0xFFFFFFFFFFFFFFFFFFFFFFFFFFFFFFFFFFFFFFFF AND DUP7 PUSH20 0xFFFFFFFFFFFFFFFFFFFFFFFFFFFFFFFFFFFFFFFF AND EQ ISZERO DUP1 ISZERO PUSH2 0x2796 JUMPI POP PUSH2 0x2794 DUP7 DUP3 PUSH2 0x2668 JUMP JUMPDEST ISZERO JUMPDEST ISZERO PUSH2 0x27DA JUMPI DUP1 DUP7 PUSH1 0x40 MLOAD PUSH32 0xE237D92200000000000000000000000000000000000000000000000000000000 DUP2 MSTORE PUSH1 0x4 ADD PUSH2 0x27D1 SWAP3 SWAP2 SWAP1 PUSH2 0x4F35 JUMP JUMPDEST PUSH1 0x40 MLOAD DUP1 SWAP2 SUB SWAP1 REVERT JUMPDEST PUSH2 0x27E7 DUP7 DUP7 DUP7 DUP7 DUP7 PUSH2 0x3268 JUMP JUMPDEST POP POP POP POP POP POP JUMP JUMPDEST PUSH2 0x27F7 PUSH2 0x2ACF JUMP JUMPDEST PUSH0 PUSH20 0xFFFFFFFFFFFFFFFFFFFFFFFFFFFFFFFFFFFFFFFF AND DUP2 PUSH20 0xFFFFFFFFFFFFFFFFFFFFFFFFFFFFFFFFFFFFFFFF AND SUB PUSH2 0x2867 JUMPI PUSH0 PUSH1 0x40 MLOAD PUSH32 0x1E4FBDF700000000000000000000000000000000000000000000000000000000 DUP2 MSTORE PUSH1 0x4 ADD PUSH2 0x285E SWAP2 SWAP1 PUSH2 0x471E JUMP JUMPDEST PUSH1 0x40 MLOAD DUP1 SWAP2 SUB SWAP1 REVERT JUMPDEST PUSH2 0x2870 DUP2 PUSH2 0x2EB4 JUMP JUMPDEST POP JUMP JUMPDEST PUSH2 0x287B PUSH2 0x2B56 JUMP JUMPDEST CALLER PUSH20 0xFFFFFFFFFFFFFFFFFFFFFFFFFFFFFFFFFFFFFFFF AND DUP4 PUSH20 0xFFFFFFFFFFFFFFFFFFFFFFFFFFFFFFFFFFFFFFFF AND EQ DUP1 PUSH2 0x28BB JUMPI POP PUSH2 0x28BA DUP4 CALLER PUSH2 0x2668 JUMP JUMPDEST JUMPDEST PUSH2 0x28FA JUMPI PUSH1 0x40 MLOAD PUSH32 0x8C379A000000000000000000000000000000000000000000000000000000000 DUP2 MSTORE PUSH1 0x4 ADD PUSH2 0x28F1 SWAP1 PUSH2 0x5165 JUMP JUMPDEST PUSH1 0x40 MLOAD DUP1 SWAP2 SUB SWAP1 REVERT JUMPDEST PUSH2 0x2905 DUP4 DUP4 DUP4 PUSH2 0x336E JUMP JUMPDEST DUP1 PUSH1 0x6 PUSH0 DUP5 DUP2 MSTORE PUSH1 0x20 ADD SWAP1 DUP2 MSTORE PUSH1 0x20 ADD PUSH0 KECCAK256 SLOAD LT ISZERO PUSH2 0x2959 JUMPI PUSH1 0x40 MLOAD PUSH32 0x8C379A000000000000000000000000000000000000000000000000000000000 DUP2 MSTORE PUSH1 0x4 ADD PUSH2 0x2950 SWAP1 PUSH2 0x51CD JUMP JUMPDEST PUSH1 0x40 MLOAD DUP1 SWAP2 SUB SWAP1 REVERT JUMPDEST DUP1 PUSH1 0x6 PUSH0 DUP5 DUP2 MSTORE PUSH1 0x20 ADD SWAP1 DUP2 MSTORE PUSH1 0x20 ADD PUSH0 KECCAK256 PUSH0 DUP3 DUP3 SLOAD PUSH2 0x2979 SWAP2 SWAP1 PUSH2 0x502C JUMP JUMPDEST SWAP3 POP POP DUP2 SWAP1 SSTORE POP DUP2 DUP4 PUSH20 0xFFFFFFFFFFFFFFFFFFFFFFFFFFFFFFFFFFFFFFFF AND PUSH32 0xCA29B5193C49B3F0CB8DA1E82B521DB2857868FCD608682D536A6444A936460C DUP4 PUSH1 0x40 MLOAD PUSH2 0x29C7 SWAP2 SWAP1 PUSH2 0x3DAC JUMP JUMPDEST PUSH1 0x40 MLOAD DUP1 SWAP2 SUB SWAP1 LOG3 POP POP POP JUMP JUMPDEST PUSH0 PUSH32 0x1FFC9A700000000000000000000000000000000000000000000000000000000 PUSH28 0xFFFFFFFFFFFFFFFFFFFFFFFFFFFFFFFFFFFFFFFFFFFFFFFFFFFFFFFF NOT AND DUP3 PUSH28 0xFFFFFFFFFFFFFFFFFFFFFFFFFFFFFFFFFFFFFFFFFFFFFFFFFFFFFFFF NOT AND EQ SWAP1 POP SWAP2 SWAP1 POP JUMP JUMPDEST PUSH1 0x60 PUSH1 0x2 DUP1 SLOAD PUSH2 0x2A4C SWAP1 PUSH2 0x49E1 JUMP JUMPDEST DUP1 PUSH1 0x1F ADD PUSH1 0x20 DUP1 SWAP2 DIV MUL PUSH1 0x20 ADD PUSH1 0x40 MLOAD SWAP1 DUP2 ADD PUSH1 0x40 MSTORE DUP1 SWAP3 SWAP2 SWAP1 DUP2 DUP2 MSTORE PUSH1 0x20 ADD DUP3 DUP1 SLOAD PUSH2 0x2A78 SWAP1 PUSH2 0x49E1 JUMP JUMPDEST DUP1 ISZERO PUSH2 0x2AC3 JUMPI DUP1 PUSH1 0x1F LT PUSH2 0x2A9A JUMPI PUSH2 0x100 DUP1 DUP4 SLOAD DIV MUL DUP4 MSTORE SWAP2 PUSH1 0x20 ADD SWAP2 PUSH2 0x2AC3 JUMP JUMPDEST DUP3 ADD SWAP2 SWAP1 PUSH0 MSTORE PUSH1 0x20 PUSH0 KECCAK256 SWAP1 JUMPDEST DUP2 SLOAD DUP2 MSTORE SWAP1 PUSH1 0x1 ADD SWAP1 PUSH1 0x20 ADD DUP1 DUP4 GT PUSH2 0x2AA6 JUMPI DUP3 SWAP1 SUB PUSH1 0x1F AND DUP3 ADD SWAP2 JUMPDEST POP POP POP POP POP SWAP1 POP SWAP2 SWAP1 POP JUMP JUMPDEST PUSH2 0x2AD7 PUSH2 0x2C8E JUMP JUMPDEST PUSH20 0xFFFFFFFFFFFFFFFFFFFFFFFFFFFFFFFFFFFFFFFF AND PUSH2 0x2AF5 PUSH2 0x1720 JUMP JUMPDEST PUSH20 0xFFFFFFFFFFFFFFFFFFFFFFFFFFFFFFFFFFFFFFFF AND EQ PUSH2 0x2B54 JUMPI PUSH2 0x2B18 PUSH2 0x2C8E JUMP JUMPDEST PUSH1 0x40 MLOAD PUSH32 0x118CDAA700000000000000000000000000000000000000000000000000000000 DUP2 MSTORE PUSH1 0x4 ADD PUSH2 0x2B4B SWAP2 SWAP1 PUSH2 0x471E JUMP JUMPDEST PUSH1 0x40 MLOAD DUP1 SWAP2 SUB SWAP1 REVERT JUMPDEST JUMP JUMPDEST PUSH2 0x2B5E PUSH2 0x1300 JUMP JUMPDEST ISZERO PUSH2 0x2B9E JUMPI PUSH1 0x40 MLOAD PUSH32 0x8C379A000000000000000000000000000000000000000000000000000000000 DUP2 MSTORE PUSH1 0x4 ADD PUSH2 0x2B95 SWAP1 PUSH2 0x54E7 JUMP JUMPDEST PUSH1 0x40 MLOAD DUP1 SWAP2 SUB SWAP1 REVERT JUMPDEST JUMP JUMPDEST PUSH1 0x2 PUSH1 0x4 SLOAD SUB PUSH2 0x2BE5 JUMPI PUSH1 0x40 MLOAD PUSH32 0x8C379A000000000000000000000000000000000000000000000000000000000 DUP2 MSTORE PUSH1 0x4 ADD PUSH2 0x2BDC SWAP1 PUSH2 0x554F JUMP JUMPDEST PUSH1 0x40 MLOAD DUP1 SWAP2 SUB SWAP1 REVERT JUMPDEST PUSH1 0x2 PUSH1 0x4 DUP2 SWAP1 SSTORE POP JUMP JUMPDEST PUSH0 PUSH20 0xFFFFFFFFFFFFFFFFFFFFFFFFFFFFFFFFFFFFFFFF AND DUP5 PUSH20 0xFFFFFFFFFFFFFFFFFFFFFFFFFFFFFFFFFFFFFFFF AND SUB PUSH2 0x2C5F JUMPI PUSH0 PUSH1 0x40 MLOAD PUSH32 0x57F447CE00000000000000000000000000000000000000000000000000000000 DUP2 MSTORE PUSH1 0x4 ADD PUSH2 0x2C56 SWAP2 SWAP1 PUSH2 0x471E JUMP JUMPDEST PUSH1 0x40 MLOAD DUP1 SWAP2 SUB SWAP1 REVERT JUMPDEST PUSH0 PUSH0 PUSH2 0x2C6B DUP6 DUP6 PUSH2 0x3410 JUMP JUMPDEST SWAP2 POP SWAP2 POP PUSH2 0x2C7C PUSH0 DUP8 DUP5 DUP5 DUP8 PUSH2 0x3440 JUMP JUMPDEST POP POP POP POP POP POP JUMP JUMPDEST PUSH1 0x1 PUSH1 0x4 DUP2 SWAP1 SSTORE POP JUMP JUMPDEST PUSH0 CALLER SWAP1 POP SWAP1 JUMP JUMPDEST PUSH0 PUSH20 0xFFFFFFFFFFFFFFFFFFFFFFFFFFFFFFFFFFFFFFFF AND DUP5 PUSH20 0xFFFFFFFFFFFFFFFFFFFFFFFFFFFFFFFFFFFFFFFF AND SUB PUSH2 0x2D05 JUMPI PUSH0 PUSH1 0x40 MLOAD PUSH32 0x57F447CE00000000000000000000000000000000000000000000000000000000 DUP2 MSTORE PUSH1 0x4 ADD PUSH2 0x2CFC SWAP2 SWAP1 PUSH2 0x471E JUMP JUMPDEST PUSH1 0x40 MLOAD DUP1 SWAP2 SUB SWAP1 REVERT JUMPDEST PUSH0 PUSH20 0xFFFFFFFFFFFFFFFFFFFFFFFFFFFFFFFFFFFFFFFF AND DUP6 PUSH20 0xFFFFFFFFFFFFFFFFFFFFFFFFFFFFFFFFFFFFFFFF AND SUB PUSH2 0x2D75 JUMPI PUSH0 PUSH1 0x40 MLOAD PUSH32 0x1A8351400000000000000000000000000000000000000000000000000000000 DUP2 MSTORE PUSH1 0x4 ADD PUSH2 0x2D6C SWAP2 SWAP1 PUSH2 0x471E JUMP JUMPDEST PUSH1 0x40 MLOAD DUP1 SWAP2 SUB SWAP1 REVERT JUMPDEST PUSH2 0x2D82 DUP6 DUP6 DUP6 DUP6 DUP6 PUSH2 0x3440 JUMP JUMPDEST POP POP POP POP POP JUMP JUMPDEST PUSH2 0x2D91 PUSH2 0x34EC JUMP JUMPDEST PUSH0 PUSH1 0x3 PUSH1 0x14 PUSH2 0x100 EXP DUP2 SLOAD DUP2 PUSH1 0xFF MUL NOT AND SWAP1 DUP4 ISZERO ISZERO MUL OR SWAP1 SSTORE POP PUSH32 0x5DB9EE0A495BF2E6FF9C91A7834C1BA4FDD244A5E8AA4E537BD38AEAE4B073AA PUSH2 0x2DD4 PUSH2 0x2C8E JUMP JUMPDEST PUSH1 0x40 MLOAD PUSH2 0x2DE1 SWAP2 SWAP1 PUSH2 0x471E JUMP JUMPDEST PUSH1 0x40 MLOAD DUP1 SWAP2 SUB SWAP1 LOG1 JUMP JUMPDEST PUSH0 PUSH1 0x20 DUP3 MUL PUSH1 0x20 DUP5 ADD ADD MLOAD SWAP1 POP SWAP3 SWAP2 POP POP JUMP JUMPDEST PUSH0 PUSH1 0x20 DUP3 MUL PUSH1 0x20 DUP5 ADD ADD MLOAD SWAP1 POP SWAP3 SWAP2 POP POP JUMP JUMPDEST DUP1 PUSH1 0x2 SWAP1 DUP2 PUSH2 0x2E20 SWAP2 SWAP1 PUSH2 0x556D JUMP JUMPDEST POP POP JUMP JUMPDEST PUSH0 PUSH20 0xFFFFFFFFFFFFFFFFFFFFFFFFFFFFFFFFFFFFFFFF AND DUP4 PUSH20 0xFFFFFFFFFFFFFFFFFFFFFFFFFFFFFFFFFFFFFFFF AND SUB PUSH2 0x2E94 JUMPI PUSH0 PUSH1 0x40 MLOAD PUSH32 0x1A8351400000000000000000000000000000000000000000000000000000000 DUP2 MSTORE PUSH1 0x4 ADD PUSH2 0x2E8B SWAP2 SWAP1 PUSH2 0x471E JUMP JUMPDEST PUSH1 0x40 MLOAD DUP1 SWAP2 SUB SWAP1 REVERT JUMPDEST PUSH2 0x2EAF DUP4 PUSH0 DUP5 DUP5 PUSH1 0x40 MLOAD DUP1 PUSH1 0x20 ADD PUSH1 0x40 MSTORE DUP1 PUSH0 DUP2 MSTORE POP PUSH2 0x3440 JUMP JUMPDEST POP POP POP JUMP JUMPDEST PUSH0 PUSH1 0x3 PUSH0 SWAP1 SLOAD SWAP1 PUSH2 0x100 EXP SWAP1 DIV PUSH20 0xFFFFFFFFFFFFFFFFFFFFFFFFFFFFFFFFFFFFFFFF AND SWAP1 POP DUP2 PUSH1 0x3 PUSH0 PUSH2 0x100 EXP DUP2 SLOAD DUP2 PUSH20 0xFFFFFFFFFFFFFFFFFFFFFFFFFFFFFFFFFFFFFFFF MUL NOT AND SWAP1 DUP4 PUSH20 0xFFFFFFFFFFFFFFFFFFFFFFFFFFFFFFFFFFFFFFFF AND MUL OR SWAP1 SSTORE POP DUP2 PUSH20 0xFFFFFFFFFFFFFFFFFFFFFFFFFFFFFFFFFFFFFFFF AND DUP2 PUSH20 0xFFFFFFFFFFFFFFFFFFFFFFFFFFFFFFFFFFFFFFFF AND PUSH32 0x8BE0079C531659141344CD1FD0A4F28419497F9722A3DAAFE3B4186F6B6457E0 PUSH1 0x40 MLOAD PUSH1 0x40 MLOAD DUP1 SWAP2 SUB SWAP1 LOG3 POP POP JUMP JUMPDEST PUSH2 0x2F7F PUSH2 0x2B56 JUMP JUMPDEST PUSH1 0x1 PUSH1 0x3 PUSH1 0x14 PUSH2 0x100 EXP DUP2 SLOAD DUP2 PUSH1 0xFF MUL NOT AND SWAP1 DUP4 ISZERO ISZERO MUL OR SWAP1 SSTORE POP PUSH32 0x62E78CEA01BEE320CD4E420270B5EA74000D11B0C9F74754EBDBFC544B05A258 PUSH2 0x2FC3 PUSH2 0x2C8E JUMP JUMPDEST PUSH1 0x40 MLOAD PUSH2 0x2FD0 SWAP2 SWAP1 PUSH2 0x471E JUMP JUMPDEST PUSH1 0x40 MLOAD DUP1 SWAP2 SUB SWAP1 LOG1 JUMP JUMPDEST PUSH2 0x3056 DUP5 DUP6 PUSH20 0xFFFFFFFFFFFFFFFFFFFFFFFFFFFFFFFFFFFFFFFF AND PUSH4 0x23B872DD DUP7 DUP7 DUP7 PUSH1 0x40 MLOAD PUSH1 0x24 ADD PUSH2 0x300F SWAP4 SWAP3 SWAP2 SWAP1 PUSH2 0x563C JUMP JUMPDEST PUSH1 0x40 MLOAD PUSH1 0x20 DUP2 DUP4 SUB SUB DUP2 MSTORE SWAP1 PUSH1 0x40 MSTORE SWAP2 POP PUSH1 0xE0 SHL PUSH1 0x20 DUP3 ADD DUP1 MLOAD PUSH28 0xFFFFFFFFFFFFFFFFFFFFFFFFFFFFFFFFFFFFFFFFFFFFFFFFFFFFFFFF DUP4 DUP2 DUP4 AND OR DUP4 MSTORE POP POP POP POP PUSH2 0x3535 JUMP JUMPDEST POP POP POP POP JUMP JUMPDEST PUSH0 PUSH20 0xFFFFFFFFFFFFFFFFFFFFFFFFFFFFFFFFFFFFFFFF AND DUP3 PUSH20 0xFFFFFFFFFFFFFFFFFFFFFFFFFFFFFFFFFFFFFFFF AND SUB PUSH2 0x30CC JUMPI PUSH0 PUSH1 0x40 MLOAD PUSH32 0xCED3E10000000000000000000000000000000000000000000000000000000000 DUP2 MSTORE PUSH1 0x4 ADD PUSH2 0x30C3 SWAP2 SWAP1 PUSH2 0x471E JUMP JUMPDEST PUSH1 0x40 MLOAD DUP1 SWAP2 SUB SWAP1 REVERT JUMPDEST DUP1 PUSH1 0x1 PUSH0 DUP6 PUSH20 0xFFFFFFFFFFFFFFFFFFFFFFFFFFFFFFFFFFFFFFFF AND PUSH20 0xFFFFFFFFFFFFFFFFFFFFFFFFFFFFFFFFFFFFFFFF AND DUP2 MSTORE PUSH1 0x20 ADD SWAP1 DUP2 MSTORE PUSH1 0x20 ADD PUSH0 KECCAK256 PUSH0 DUP5 PUSH20 0xFFFFFFFFFFFFFFFFFFFFFFFFFFFFFFFFFFFFFFFF AND PUSH20 0xFFFFFFFFFFFFFFFFFFFFFFFFFFFFFFFFFFFFFFFF AND DUP2 MSTORE PUSH1 0x20 ADD SWAP1 DUP2 MSTORE PUSH1 0x20 ADD PUSH0 KECCAK256 PUSH0 PUSH2 0x100 EXP DUP2 SLOAD DUP2 PUSH1 0xFF MUL NOT AND SWAP1 DUP4 ISZERO ISZERO MUL OR SWAP1 SSTORE POP DUP2 PUSH20 0xFFFFFFFFFFFFFFFFFFFFFFFFFFFFFFFFFFFFFFFF AND DUP4 PUSH20 0xFFFFFFFFFFFFFFFFFFFFFFFFFFFFFFFFFFFFFFFF AND PUSH32 0x17307EAB39AB6107E8899845AD3D59BD9653F200F220920489CA2B5937696C31 DUP4 PUSH1 0x40 MLOAD PUSH2 0x31B8 SWAP2 SWAP1 PUSH2 0x3E5F JUMP JUMPDEST PUSH1 0x40 MLOAD DUP1 SWAP2 SUB SWAP1 LOG3 POP POP POP JUMP JUMPDEST PUSH0 PUSH20 0xFFFFFFFFFFFFFFFFFFFFFFFFFFFFFFFFFFFFFFFF AND DUP5 PUSH20 0xFFFFFFFFFFFFFFFFFFFFFFFFFFFFFFFFFFFFFFFF AND SUB PUSH2 0x3235 JUMPI PUSH0 PUSH1 0x40 MLOAD PUSH32 0x57F447CE00000000000000000000000000000000000000000000000000000000 DUP2 MSTORE PUSH1 0x4 ADD PUSH2 0x322C SWAP2 SWAP1 PUSH2 0x471E JUMP JUMPDEST PUSH1 0x40 MLOAD DUP1 SWAP2 SUB SWAP1 REVERT JUMPDEST PUSH2 0x3242 PUSH0 DUP6 DUP6 DUP6 DUP6 PUSH2 0x3440 JUMP JUMPDEST POP POP POP POP JUMP JUMPDEST PUSH1 0x1 DUP2 PUSH0 ADD PUSH0 DUP3 DUP3 SLOAD ADD SWAP3 POP POP DUP2 SWAP1 SSTORE POP POP JUMP JUMPDEST PUSH0 DUP2 PUSH0 ADD SLOAD SWAP1 POP SWAP2 SWAP1 POP JUMP JUMPDEST PUSH0 PUSH20 0xFFFFFFFFFFFFFFFFFFFFFFFFFFFFFFFFFFFFFFFF AND DUP5 PUSH20 0xFFFFFFFFFFFFFFFFFFFFFFFFFFFFFFFFFFFFFFFF AND SUB PUSH2 0x32D8 JUMPI PUSH0 PUSH1 0x40 MLOAD PUSH32 0x57F447CE00000000000000000000000000000000000000000000000000000000 DUP2 MSTORE PUSH1 0x4 ADD PUSH2 0x32CF SWAP2 SWAP1 PUSH2 0x471E JUMP JUMPDEST PUSH1 0x40 MLOAD DUP1 SWAP2 SUB SWAP1 REVERT JUMPDEST PUSH0 PUSH20 0xFFFFFFFFFFFFFFFFFFFFFFFFFFFFFFFFFFFFFFFF AND DUP6 PUSH20 0xFFFFFFFFFFFFFFFFFFFFFFFFFFFFFFFFFFFFFFFF AND SUB PUSH2 0x3348 JUMPI PUSH0 PUSH1 0x40 MLOAD PUSH32 0x1A8351400000000000000000000000000000000000000000000000000000000 DUP2 MSTORE PUSH1 0x4 ADD PUSH2 0x333F SWAP2 SWAP1 PUSH2 0x471E JUMP JUMPDEST PUSH1 0x40 MLOAD DUP1 SWAP2 SUB SWAP1 REVERT JUMPDEST PUSH0 PUSH0 PUSH2 0x3354 DUP6 DUP6 PUSH2 0x3410 JUMP JUMPDEST SWAP2 POP SWAP2 POP PUSH2 0x3365 DUP8 DUP8 DUP5 DUP5 DUP8 PUSH2 0x3440 JUMP JUMPDEST POP POP POP POP POP POP POP JUMP JUMPDEST PUSH0 PUSH20 0xFFFFFFFFFFFFFFFFFFFFFFFFFFFFFFFFFFFFFFFF AND DUP4 PUSH20 0xFFFFFFFFFFFFFFFFFFFFFFFFFFFFFFFFFFFFFFFF AND SUB PUSH2 0x33DE JUMPI PUSH0 PUSH1 0x40 MLOAD PUSH32 0x1A8351400000000000000000000000000000000000000000000000000000000 DUP2 MSTORE PUSH1 0x4 ADD PUSH2 0x33D5 SWAP2 SWAP1 PUSH2 0x471E JUMP JUMPDEST PUSH1 0x40 MLOAD DUP1 SWAP2 SUB SWAP1 REVERT JUMPDEST PUSH0 PUSH0 PUSH2 0x33EA DUP5 DUP5 PUSH2 0x3410 JUMP JUMPDEST SWAP2 POP SWAP2 POP PUSH2 0x3409 DUP6 PUSH0 DUP5 DUP5 PUSH1 0x40 MLOAD DUP1 PUSH1 0x20 ADD PUSH1 0x40 MSTORE DUP1 PUSH0 DUP2 MSTORE POP PUSH2 0x3440 JUMP JUMPDEST POP POP POP POP POP JUMP JUMPDEST PUSH1 0x60 DUP1 PUSH1 0x40 MLOAD SWAP2 POP PUSH1 0x1 DUP3 MSTORE DUP4 PUSH1 0x20 DUP4 ADD MSTORE PUSH1 0x40 DUP3 ADD SWAP1 POP PUSH1 0x1 DUP2 MSTORE DUP3 PUSH1 0x20 DUP3 ADD MSTORE PUSH1 0x40 DUP2 ADD PUSH1 0x40 MSTORE SWAP3 POP SWAP3 SWAP1 POP JUMP JUMPDEST PUSH2 0x344C DUP6 DUP6 DUP6 DUP6 PUSH2 0x35D0 JUMP JUMPDEST PUSH0 PUSH20 0xFFFFFFFFFFFFFFFFFFFFFFFFFFFFFFFFFFFFFFFF AND DUP5 PUSH20 0xFFFFFFFFFFFFFFFFFFFFFFFFFFFFFFFFFFFFFFFF AND EQ PUSH2 0x34E5 JUMPI PUSH0 PUSH2 0x3488 PUSH2 0x2C8E JUMP JUMPDEST SWAP1 POP PUSH1 0x1 DUP5 MLOAD SUB PUSH2 0x34D4 JUMPI PUSH0 PUSH2 0x34A7 PUSH0 DUP7 PUSH2 0x2DFE SWAP1 SWAP2 SWAP1 PUSH4 0xFFFFFFFF AND JUMP JUMPDEST SWAP1 POP PUSH0 PUSH2 0x34BD PUSH0 DUP7 PUSH2 0x2DFE SWAP1 SWAP2 SWAP1 PUSH4 0xFFFFFFFF AND JUMP JUMPDEST SWAP1 POP PUSH2 0x34CD DUP4 DUP10 DUP10 DUP6 DUP6 DUP10 PUSH2 0x3963 JUMP JUMPDEST POP POP PUSH2 0x34E3 JUMP JUMPDEST PUSH2 0x34E2 DUP2 DUP8 DUP8 DUP8 DUP8 DUP8 PUSH2 0x3B12 JUMP JUMPDEST JUMPDEST POP JUMPDEST POP POP POP POP POP JUMP JUMPDEST PUSH2 0x34F4 PUSH2 0x1300 JUMP JUMPDEST PUSH2 0x3533 JUMPI PUSH1 0x40 MLOAD PUSH32 0x8C379A000000000000000000000000000000000000000000000000000000000 DUP2 MSTORE PUSH1 0x4 ADD PUSH2 0x352A SWAP1 PUSH2 0x56BB JUMP JUMPDEST PUSH1 0x40 MLOAD DUP1 SWAP2 SUB SWAP1 REVERT JUMPDEST JUMP JUMPDEST PUSH0 PUSH0 PUSH1 0x20 PUSH0 DUP5 MLOAD PUSH1 0x20 DUP7 ADD PUSH0 DUP9 GAS CALL DUP1 PUSH2 0x3554 JUMPI PUSH1 0x40 MLOAD RETURNDATASIZE PUSH0 DUP3 RETURNDATACOPY RETURNDATASIZE DUP2 REVERT JUMPDEST RETURNDATASIZE SWAP3 POP PUSH0 MLOAD SWAP2 POP POP PUSH0 DUP3 EQ PUSH2 0x356D JUMPI PUSH1 0x1 DUP2 EQ ISZERO PUSH2 0x3588 JUMP JUMPDEST PUSH0 DUP5 PUSH20 0xFFFFFFFFFFFFFFFFFFFFFFFFFFFFFFFFFFFFFFFF AND EXTCODESIZE EQ JUMPDEST ISZERO PUSH2 0x35CA JUMPI DUP4 PUSH1 0x40 MLOAD PUSH32 0x5274AFE700000000000000000000000000000000000000000000000000000000 DUP2 MSTORE PUSH1 0x4 ADD PUSH2 0x35C1 SWAP2 SWAP1 PUSH2 0x471E JUMP JUMPDEST PUSH1 0x40 MLOAD DUP1 SWAP2 SUB SWAP1 REVERT JUMPDEST POP POP POP POP JUMP JUMPDEST DUP1 MLOAD DUP3 MLOAD EQ PUSH2 0x361A JUMPI DUP2 MLOAD DUP2 MLOAD PUSH1 0x40 MLOAD PUSH32 0x5B05999100000000000000000000000000000000000000000000000000000000 DUP2 MSTORE PUSH1 0x4 ADD PUSH2 0x3611 SWAP3 SWAP2 SWAP1 PUSH2 0x505F JUMP JUMPDEST PUSH1 0x40 MLOAD DUP1 SWAP2 SUB SWAP1 REVERT JUMPDEST PUSH0 PUSH2 0x3623 PUSH2 0x2C8E JUMP JUMPDEST SWAP1 POP PUSH0 PUSH0 SWAP1 POP JUMPDEST DUP4 MLOAD DUP2 LT ISZERO PUSH2 0x3822 JUMPI PUSH0 PUSH2 0x3647 DUP3 DUP7 PUSH2 0x2DFE SWAP1 SWAP2 SWAP1 PUSH4 0xFFFFFFFF AND JUMP JUMPDEST SWAP1 POP PUSH0 PUSH2 0x365D DUP4 DUP7 PUSH2 0x2DFE SWAP1 SWAP2 SWAP1 PUSH4 0xFFFFFFFF AND JUMP JUMPDEST SWAP1 POP PUSH0 PUSH20 0xFFFFFFFFFFFFFFFFFFFFFFFFFFFFFFFFFFFFFFFF AND DUP9 PUSH20 0xFFFFFFFFFFFFFFFFFFFFFFFFFFFFFFFFFFFFFFFF AND EQ PUSH2 0x3780 JUMPI PUSH0 PUSH0 PUSH0 DUP5 DUP2 MSTORE PUSH1 0x20 ADD SWAP1 DUP2 MSTORE PUSH1 0x20 ADD PUSH0 KECCAK256 PUSH0 DUP11 PUSH20 0xFFFFFFFFFFFFFFFFFFFFFFFFFFFFFFFFFFFFFFFF AND PUSH20 0xFFFFFFFFFFFFFFFFFFFFFFFFFFFFFFFFFFFFFFFF AND DUP2 MSTORE PUSH1 0x20 ADD SWAP1 DUP2 MSTORE PUSH1 0x20 ADD PUSH0 KECCAK256 SLOAD SWAP1 POP DUP2 DUP2 LT ISZERO PUSH2 0x372C JUMPI DUP9 DUP2 DUP4 DUP6 PUSH1 0x40 MLOAD PUSH32 0x3DEE4C500000000000000000000000000000000000000000000000000000000 DUP2 MSTORE PUSH1 0x4 ADD PUSH2 0x3723 SWAP5 SWAP4 SWAP3 SWAP2 SWAP1 PUSH2 0x56D9 JUMP JUMPDEST PUSH1 0x40 MLOAD DUP1 SWAP2 SUB SWAP1 REVERT JUMPDEST DUP2 DUP2 SUB PUSH0 PUSH0 DUP6 DUP2 MSTORE PUSH1 0x20 ADD SWAP1 DUP2 MSTORE PUSH1 0x20 ADD PUSH0 KECCAK256 PUSH0 DUP12 PUSH20 0xFFFFFFFFFFFFFFFFFFFFFFFFFFFFFFFFFFFFFFFF AND PUSH20 0xFFFFFFFFFFFFFFFFFFFFFFFFFFFFFFFFFFFFFFFF AND DUP2 MSTORE PUSH1 0x20 ADD SWAP1 DUP2 MSTORE PUSH1 0x20 ADD PUSH0 KECCAK256 DUP2 SWAP1 SSTORE POP POP JUMPDEST PUSH0 PUSH20 0xFFFFFFFFFFFFFFFFFFFFFFFFFFFFFFFFFFFFFFFF AND DUP8 PUSH20 0xFFFFFFFFFFFFFFFFFFFFFFFFFFFFFFFFFFFFFFFF AND EQ PUSH2 0x3815 JUMPI DUP1 PUSH0 PUSH0 DUP5 DUP2 MSTORE PUSH1 0x20 ADD SWAP1 DUP2 MSTORE PUSH1 0x20 ADD PUSH0 KECCAK256 PUSH0 DUP10 PUSH20 0xFFFFFFFFFFFFFFFFFFFFFFFFFFFFFFFFFFFFFFFF AND PUSH20 0xFFFFFFFFFFFFFFFFFFFFFFFFFFFFFFFFFFFFFFFF AND DUP2 MSTORE PUSH1 0x20 ADD SWAP1 DUP2 MSTORE PUSH1 0x20 ADD PUSH0 KECCAK256 PUSH0 DUP3 DUP3 SLOAD PUSH2 0x380D SWAP2 SWAP1 PUSH2 0x4B76 JUMP JUMPDEST SWAP3 POP POP DUP2 SWAP1 SSTORE POP JUMPDEST POP POP DUP1 PUSH1 0x1 ADD SWAP1 POP PUSH2 0x362A JUMP JUMPDEST POP PUSH1 0x1 DUP4 MLOAD SUB PUSH2 0x38DD JUMPI PUSH0 PUSH2 0x3840 PUSH0 DUP6 PUSH2 0x2DFE SWAP1 SWAP2 SWAP1 PUSH4 0xFFFFFFFF AND JUMP JUMPDEST SWAP1 POP PUSH0 PUSH2 0x3856 PUSH0 DUP6 PUSH2 0x2DFE SWAP1 SWAP2 SWAP1 PUSH4 0xFFFFFFFF AND JUMP JUMPDEST SWAP1 POP DUP6 PUSH20 0xFFFFFFFFFFFFFFFFFFFFFFFFFFFFFFFFFFFFFFFF AND DUP8 PUSH20 0xFFFFFFFFFFFFFFFFFFFFFFFFFFFFFFFFFFFFFFFF AND DUP5 PUSH20 0xFFFFFFFFFFFFFFFFFFFFFFFFFFFFFFFFFFFFFFFF AND PUSH32 0xC3D58168C5AE7397731D063D5BBF3D657854427343F4C083240F7AACAA2D0F62 DUP6 DUP6 PUSH1 0x40 MLOAD PUSH2 0x38CE SWAP3 SWAP2 SWAP1 PUSH2 0x505F JUMP JUMPDEST PUSH1 0x40 MLOAD DUP1 SWAP2 SUB SWAP1 LOG4 POP POP PUSH2 0x395C JUMP JUMPDEST DUP4 PUSH20 0xFFFFFFFFFFFFFFFFFFFFFFFFFFFFFFFFFFFFFFFF AND DUP6 PUSH20 0xFFFFFFFFFFFFFFFFFFFFFFFFFFFFFFFFFFFFFFFF AND DUP3 PUSH20 0xFFFFFFFFFFFFFFFFFFFFFFFFFFFFFFFFFFFFFFFF AND PUSH32 0x4A39DC06D4C0DBC64B70AF90FD698A233A518AA5D07E595D983B8C0526C8F7FB DUP7 DUP7 PUSH1 0x40 MLOAD PUSH2 0x3953 SWAP3 SWAP2 SWAP1 PUSH2 0x571C JUMP JUMPDEST PUSH1 0x40 MLOAD DUP1 SWAP2 SUB SWAP1 LOG4 JUMPDEST POP POP POP POP POP JUMP JUMPDEST PUSH0 DUP5 PUSH20 0xFFFFFFFFFFFFFFFFFFFFFFFFFFFFFFFFFFFFFFFF AND EXTCODESIZE GT ISZERO PUSH2 0x3B0A JUMPI DUP4 PUSH20 0xFFFFFFFFFFFFFFFFFFFFFFFFFFFFFFFFFFFFFFFF AND PUSH4 0xF23A6E61 DUP8 DUP8 DUP7 DUP7 DUP7 PUSH1 0x40 MLOAD DUP7 PUSH4 0xFFFFFFFF AND PUSH1 0xE0 SHL DUP2 MSTORE PUSH1 0x4 ADD PUSH2 0x39C3 SWAP6 SWAP5 SWAP4 SWAP3 SWAP2 SWAP1 PUSH2 0x57A3 JUMP JUMPDEST PUSH1 0x20 PUSH1 0x40 MLOAD DUP1 DUP4 SUB DUP2 PUSH0 DUP8 GAS CALL SWAP3 POP POP POP DUP1 ISZERO PUSH2 0x39FE JUMPI POP PUSH1 0x40 MLOAD RETURNDATASIZE PUSH1 0x1F NOT PUSH1 0x1F DUP3 ADD AND DUP3 ADD DUP1 PUSH1 0x40 MSTORE POP DUP2 ADD SWAP1 PUSH2 0x39FB SWAP2 SWAP1 PUSH2 0x580F JUMP JUMPDEST PUSH1 0x1 JUMPDEST PUSH2 0x3A7F JUMPI RETURNDATASIZE DUP1 PUSH0 DUP2 EQ PUSH2 0x3A2C JUMPI PUSH1 0x40 MLOAD SWAP2 POP PUSH1 0x1F NOT PUSH1 0x3F RETURNDATASIZE ADD AND DUP3 ADD PUSH1 0x40 MSTORE RETURNDATASIZE DUP3 MSTORE RETURNDATASIZE PUSH0 PUSH1 0x20 DUP5 ADD RETURNDATACOPY PUSH2 0x3A31 JUMP JUMPDEST PUSH1 0x60 SWAP2 POP JUMPDEST POP PUSH0 DUP2 MLOAD SUB PUSH2 0x3A77 JUMPI DUP5 PUSH1 0x40 MLOAD PUSH32 0x57F447CE00000000000000000000000000000000000000000000000000000000 DUP2 MSTORE PUSH1 0x4 ADD PUSH2 0x3A6E SWAP2 SWAP1 PUSH2 0x471E JUMP JUMPDEST PUSH1 0x40 MLOAD DUP1 SWAP2 SUB SWAP1 REVERT JUMPDEST DUP1 MLOAD PUSH1 0x20 DUP3 ADD REVERT JUMPDEST PUSH4 0xF23A6E61 PUSH1 0xE0 SHL PUSH28 0xFFFFFFFFFFFFFFFFFFFFFFFFFFFFFFFFFFFFFFFFFFFFFFFFFFFFFFFF NOT AND DUP2 PUSH28 0xFFFFFFFFFFFFFFFFFFFFFFFFFFFFFFFFFFFFFFFFFFFFFFFFFFFFFFFF NOT AND EQ PUSH2 0x3B08 JUMPI DUP5 PUSH1 0x40 MLOAD PUSH32 0x57F447CE00000000000000000000000000000000000000000000000000000000 DUP2 MSTORE PUSH1 0x4 ADD PUSH2 0x3AFF SWAP2 SWAP1 PUSH2 0x471E JUMP JUMPDEST PUSH1 0x40 MLOAD DUP1 SWAP2 SUB SWAP1 REVERT JUMPDEST POP JUMPDEST POP POP POP POP POP POP JUMP JUMPDEST PUSH0 DUP5 PUSH20 0xFFFFFFFFFFFFFFFFFFFFFFFFFFFFFFFFFFFFFFFF AND EXTCODESIZE GT ISZERO PUSH2 0x3CB9 JUMPI DUP4 PUSH20 0xFFFFFFFFFFFFFFFFFFFFFFFFFFFFFFFFFFFFFFFF AND PUSH4 0xBC197C81 DUP8 DUP8 DUP7 DUP7 DUP7 PUSH1 0x40 MLOAD DUP7 PUSH4 0xFFFFFFFF AND PUSH1 0xE0 SHL DUP2 MSTORE PUSH1 0x4 ADD PUSH2 0x3B72 SWAP6 SWAP5 SWAP4 SWAP3 SWAP2 SWAP1 PUSH2 0x583A JUMP JUMPDEST PUSH1 0x20 PUSH1 0x40 MLOAD DUP1 DUP4 SUB DUP2 PUSH0 DUP8 GAS CALL SWAP3 POP POP POP DUP1 ISZERO PUSH2 0x3BAD JUMPI POP PUSH1 0x40 MLOAD RETURNDATASIZE PUSH1 0x1F NOT PUSH1 0x1F DUP3 ADD AND DUP3 ADD DUP1 PUSH1 0x40 MSTORE POP DUP2 ADD SWAP1 PUSH2 0x3BAA SWAP2 SWAP1 PUSH2 0x580F JUMP JUMPDEST PUSH1 0x1 JUMPDEST PUSH2 0x3C2E JUMPI RETURNDATASIZE DUP1 PUSH0 DUP2 EQ PUSH2 0x3BDB JUMPI PUSH1 0x40 MLOAD SWAP2 POP PUSH1 0x1F NOT PUSH1 0x3F RETURNDATASIZE ADD AND DUP3 ADD PUSH1 0x40 MSTORE RETURNDATASIZE DUP3 MSTORE RETURNDATASIZE PUSH0 PUSH1 0x20 DUP5 ADD RETURNDATACOPY PUSH2 0x3BE0 JUMP JUMPDEST PUSH1 0x60 SWAP2 POP JUMPDEST POP PUSH0 DUP2 MLOAD SUB PUSH2 0x3C26 JUMPI DUP5 PUSH1 0x40 MLOAD PUSH32 0x57F447CE00000000000000000000000000000000000000000000000000000000 DUP2 MSTORE PUSH1 0x4 ADD PUSH2 0x3C1D SWAP2 SWAP1 PUSH2 0x471E JUMP JUMPDEST PUSH1 0x40 MLOAD DUP1 SWAP2 SUB SWAP1 REVERT JUMPDEST DUP1 MLOAD PUSH1 0x20 DUP3 ADD REVERT JUMPDEST PUSH4 0xBC197C81 PUSH1 0xE0 SHL PUSH28 0xFFFFFFFFFFFFFFFFFFFFFFFFFFFFFFFFFFFFFFFFFFFFFFFFFFFFFFFF NOT AND DUP2 PUSH28 0xFFFFFFFFFFFFFFFFFFFFFFFFFFFFFFFFFFFFFFFFFFFFFFFFFFFFFFFF NOT AND EQ PUSH2 0x3CB7 JUMPI DUP5 PUSH1 0x40 MLOAD PUSH32 0x57F447CE00000000000000000000000000000000000000000000000000000000 DUP2 MSTORE PUSH1 0x4 ADD PUSH2 0x3CAE SWAP2 SWAP1 PUSH2 0x471E JUMP JUMPDEST PUSH1 0x40 MLOAD DUP1 SWAP2 SUB SWAP1 REVERT JUMPDEST POP JUMPDEST POP POP POP POP POP POP JUMP JUMPDEST PUSH0 PUSH1 0x40 MLOAD SWAP1 POP SWAP1 JUMP JUMPDEST PUSH0 PUSH0 REVERT JUMPDEST PUSH0 PUSH0 REVERT JUMPDEST PUSH0 PUSH20 0xFFFFFFFFFFFFFFFFFFFFFFFFFFFFFFFFFFFFFFFF DUP3 AND SWAP1 POP SWAP2 SWAP1 POP JUMP JUMPDEST PUSH0 PUSH2 0x3CFB DUP3 PUSH2 0x3CD2 JUMP JUMPDEST SWAP1 POP SWAP2 SWAP1 POP JUMP JUMPDEST PUSH2 0x3D0B DUP2 PUSH2 0x3CF1 JUMP JUMPDEST DUP2 EQ PUSH2 0x3D15 JUMPI PUSH0 PUSH0 REVERT JUMPDEST POP JUMP JUMPDEST PUSH0 DUP2 CALLDATALOAD SWAP1 POP PUSH2 0x3D26 DUP2 PUSH2 0x3D02 JUMP JUMPDEST SWAP3 SWAP2 POP POP JUMP JUMPDEST PUSH0 DUP2 SWAP1 POP SWAP2 SWAP1 POP JUMP JUMPDEST PUSH2 0x3D3E DUP2 PUSH2 0x3D2C JUMP JUMPDEST DUP2 EQ PUSH2 0x3D48 JUMPI PUSH0 PUSH0 REVERT JUMPDEST POP JUMP JUMPDEST PUSH0 DUP2 CALLDATALOAD SWAP1 POP PUSH2 0x3D59 DUP2 PUSH2 0x3D35 JUMP JUMPDEST SWAP3 SWAP2 POP POP JUMP JUMPDEST PUSH0 PUSH0 PUSH1 0x40 DUP4 DUP6 SUB SLT ISZERO PUSH2 0x3D75 JUMPI PUSH2 0x3D74 PUSH2 0x3CCA JUMP JUMPDEST JUMPDEST PUSH0 PUSH2 0x3D82 DUP6 DUP3 DUP7 ADD PUSH2 0x3D18 JUMP JUMPDEST SWAP3 POP POP PUSH1 0x20 PUSH2 0x3D93 DUP6 DUP3 DUP7 ADD PUSH2 0x3D4B JUMP JUMPDEST SWAP2 POP POP SWAP3 POP SWAP3 SWAP1 POP JUMP JUMPDEST PUSH2 0x3DA6 DUP2 PUSH2 0x3D2C JUMP JUMPDEST DUP3 MSTORE POP POP JUMP JUMPDEST PUSH0 PUSH1 0x20 DUP3 ADD SWAP1 POP PUSH2 0x3DBF PUSH0 DUP4 ADD DUP5 PUSH2 0x3D9D JUMP JUMPDEST SWAP3 SWAP2 POP POP JUMP JUMPDEST PUSH0 PUSH32 0xFFFFFFFF00000000000000000000000000000000000000000000000000000000 DUP3 AND SWAP1 POP SWAP2 SWAP1 POP JUMP JUMPDEST PUSH2 0x3DF9 DUP2 PUSH2 0x3DC5 JUMP JUMPDEST DUP2 EQ PUSH2 0x3E03 JUMPI PUSH0 PUSH0 REVERT JUMPDEST POP JUMP JUMPDEST PUSH0 DUP2 CALLDATALOAD SWAP1 POP PUSH2 0x3E14 DUP2 PUSH2 0x3DF0 JUMP JUMPDEST SWAP3 SWAP2 POP POP JUMP JUMPDEST PUSH0 PUSH1 0x20 DUP3 DUP5 SUB SLT ISZERO PUSH2 0x3E2F JUMPI PUSH2 0x3E2E PUSH2 0x3CCA JUMP JUMPDEST JUMPDEST PUSH0 PUSH2 0x3E3C DUP5 DUP3 DUP6 ADD PUSH2 0x3E06 JUMP JUMPDEST SWAP2 POP POP SWAP3 SWAP2 POP POP JUMP JUMPDEST PUSH0 DUP2 ISZERO ISZERO SWAP1 POP SWAP2 SWAP1 POP JUMP JUMPDEST PUSH2 0x3E59 DUP2 PUSH2 0x3E45 JUMP JUMPDEST DUP3 MSTORE POP POP JUMP JUMPDEST PUSH0 PUSH1 0x20 DUP3 ADD SWAP1 POP PUSH2 0x3E72 PUSH0 DUP4 ADD DUP5 PUSH2 0x3E50 JUMP JUMPDEST SWAP3 SWAP2 POP POP JUMP JUMPDEST PUSH0 PUSH1 0x20 DUP3 DUP5 SUB SLT ISZERO PUSH2 0x3E8D JUMPI PUSH2 0x3E8C PUSH2 0x3CCA JUMP JUMPDEST JUMPDEST PUSH0 PUSH2 0x3E9A DUP5 DUP3 DUP6 ADD PUSH2 0x3D4B JUMP JUMPDEST SWAP2 POP POP SWAP3 SWAP2 POP POP JUMP JUMPDEST PUSH0 DUP2 MLOAD SWAP1 POP SWAP2 SWAP1 POP JUMP JUMPDEST PUSH0 DUP3 DUP3 MSTORE PUSH1 0x20 DUP3 ADD SWAP1 POP SWAP3 SWAP2 POP POP JUMP JUMPDEST DUP3 DUP2 DUP4 MCOPY PUSH0 DUP4 DUP4 ADD MSTORE POP POP POP JUMP JUMPDEST PUSH0 PUSH1 0x1F NOT PUSH1 0x1F DUP4 ADD AND SWAP1 POP SWAP2 SWAP1 POP JUMP JUMPDEST PUSH0 PUSH2 0x3EE5 DUP3 PUSH2 0x3EA3 JUMP JUMPDEST PUSH2 0x3EEF DUP2 DUP6 PUSH2 0x3EAD JUMP JUMPDEST SWAP4 POP PUSH2 0x3EFF DUP2 DUP6 PUSH1 0x20 DUP7 ADD PUSH2 0x3EBD JUMP JUMPDEST PUSH2 0x3F08 DUP2 PUSH2 0x3ECB JUMP JUMPDEST DUP5 ADD SWAP2 POP POP SWAP3 SWAP2 POP POP JUMP JUMPDEST PUSH0 PUSH1 0x20 DUP3 ADD SWAP1 POP DUP2 DUP2 SUB PUSH0 DUP4 ADD MSTORE PUSH2 0x3F2B DUP2 DUP5 PUSH2 0x3EDB JUMP JUMPDEST SWAP1 POP SWAP3 SWAP2 POP POP JUMP JUMPDEST PUSH0 PUSH0 PUSH0 PUSH1 0x60 DUP5 DUP7 SUB SLT ISZERO PUSH2 0x3F4A JUMPI PUSH2 0x3F49 PUSH2 0x3CCA JUMP JUMPDEST JUMPDEST PUSH0 PUSH2 0x3F57 DUP7 DUP3 DUP8 ADD PUSH2 0x3D18 JUMP JUMPDEST SWAP4 POP POP PUSH1 0x20 PUSH2 0x3F68 DUP7 DUP3 DUP8 ADD PUSH2 0x3D4B JUMP JUMPDEST SWAP3 POP POP PUSH1 0x40 PUSH2 0x3F79 DUP7 DUP3 DUP8 ADD PUSH2 0x3D4B JUMP JUMPDEST SWAP2 POP POP SWAP3 POP SWAP3 POP SWAP3 JUMP JUMPDEST PUSH0 PUSH0 REVERT JUMPDEST PUSH0 PUSH0 REVERT JUMPDEST PUSH0 PUSH0 REVERT JUMPDEST PUSH0 PUSH0 DUP4 PUSH1 0x1F DUP5 ADD SLT PUSH2 0x3FA4 JUMPI PUSH2 0x3FA3 PUSH2 0x3F83 JUMP JUMPDEST JUMPDEST DUP3 CALLDATALOAD SWAP1 POP PUSH8 0xFFFFFFFFFFFFFFFF DUP2 GT ISZERO PUSH2 0x3FC1 JUMPI PUSH2 0x3FC0 PUSH2 0x3F87 JUMP JUMPDEST JUMPDEST PUSH1 0x20 DUP4 ADD SWAP2 POP DUP4 PUSH1 0x1 DUP3 MUL DUP4 ADD GT ISZERO PUSH2 0x3FDD JUMPI PUSH2 0x3FDC PUSH2 0x3F8B JUMP JUMPDEST JUMPDEST SWAP3 POP SWAP3 SWAP1 POP JUMP JUMPDEST PUSH0 PUSH0 PUSH0 PUSH1 0x40 DUP5 DUP7 SUB SLT ISZERO PUSH2 0x3FFB JUMPI PUSH2 0x3FFA PUSH2 0x3CCA JUMP JUMPDEST JUMPDEST PUSH0 PUSH2 0x4008 DUP7 DUP3 DUP8 ADD PUSH2 0x3D4B JUMP JUMPDEST SWAP4 POP POP PUSH1 0x20 DUP5 ADD CALLDATALOAD PUSH8 0xFFFFFFFFFFFFFFFF DUP2 GT ISZERO PUSH2 0x4029 JUMPI PUSH2 0x4028 PUSH2 0x3CCE JUMP JUMPDEST JUMPDEST PUSH2 0x4035 DUP7 DUP3 DUP8 ADD PUSH2 0x3F8F JUMP JUMPDEST SWAP3 POP SWAP3 POP POP SWAP3 POP SWAP3 POP SWAP3 JUMP JUMPDEST PUSH0 PUSH0 PUSH1 0x40 DUP4 DUP6 SUB SLT ISZERO PUSH2 0x4057 JUMPI PUSH2 0x4056 PUSH2 0x3CCA JUMP JUMPDEST JUMPDEST PUSH0 PUSH2 0x4064 DUP6 DUP3 DUP7 ADD PUSH2 0x3D4B JUMP JUMPDEST SWAP3 POP POP PUSH1 0x20 PUSH2 0x4075 DUP6 DUP3 DUP7 ADD PUSH2 0x3D4B JUMP JUMPDEST SWAP2 POP POP SWAP3 POP SWAP3 SWAP1 POP JUMP JUMPDEST PUSH32 0x4E487B7100000000000000000000000000000000000000000000000000000000 PUSH0 MSTORE PUSH1 0x41 PUSH1 0x4 MSTORE PUSH1 0x24 PUSH0 REVERT JUMPDEST PUSH2 0x40B5 DUP3 PUSH2 0x3ECB JUMP JUMPDEST DUP2 ADD DUP2 DUP2 LT PUSH8 0xFFFFFFFFFFFFFFFF DUP3 GT OR ISZERO PUSH2 0x40D4 JUMPI PUSH2 0x40D3 PUSH2 0x407F JUMP JUMPDEST JUMPDEST DUP1 PUSH1 0x40 MSTORE POP POP POP JUMP JUMPDEST PUSH0 PUSH2 0x40E6 PUSH2 0x3CC1 JUMP JUMPDEST SWAP1 POP PUSH2 0x40F2 DUP3 DUP3 PUSH2 0x40AC JUMP JUMPDEST SWAP2 SWAP1 POP JUMP JUMPDEST PUSH0 PUSH8 0xFFFFFFFFFFFFFFFF DUP3 GT ISZERO PUSH2 0x4111 JUMPI PUSH2 0x4110 PUSH2 0x407F JUMP JUMPDEST JUMPDEST PUSH1 0x20 DUP3 MUL SWAP1 POP PUSH1 0x20 DUP2 ADD SWAP1 POP SWAP2 SWAP1 POP JUMP JUMPDEST PUSH0 PUSH2 0x4134 PUSH2 0x412F DUP5 PUSH2 0x40F7 JUMP JUMPDEST PUSH2 0x40DD JUMP JUMPDEST SWAP1 POP DUP1 DUP4 DUP3 MSTORE PUSH1 0x20 DUP3 ADD SWAP1 POP PUSH1 0x20 DUP5 MUL DUP4 ADD DUP6 DUP2 GT ISZERO PUSH2 0x4157 JUMPI PUSH2 0x4156 PUSH2 0x3F8B JUMP JUMPDEST JUMPDEST DUP4 JUMPDEST DUP2 DUP2 LT ISZERO PUSH2 0x4180 JUMPI DUP1 PUSH2 0x416C DUP9 DUP3 PUSH2 0x3D4B JUMP JUMPDEST DUP5 MSTORE PUSH1 0x20 DUP5 ADD SWAP4 POP POP PUSH1 0x20 DUP2 ADD SWAP1 POP PUSH2 0x4159 JUMP JUMPDEST POP POP POP SWAP4 SWAP3 POP POP POP JUMP JUMPDEST PUSH0 DUP3 PUSH1 0x1F DUP4 ADD SLT PUSH2 0x419E JUMPI PUSH2 0x419D PUSH2 0x3F83 JUMP JUMPDEST JUMPDEST DUP2 CALLDATALOAD PUSH2 0x41AE DUP5 DUP3 PUSH1 0x20 DUP7 ADD PUSH2 0x4122 JUMP JUMPDEST SWAP2 POP POP SWAP3 SWAP2 POP POP JUMP JUMPDEST PUSH0 PUSH0 REVERT JUMPDEST PUSH0 PUSH8 0xFFFFFFFFFFFFFFFF DUP3 GT ISZERO PUSH2 0x41D5 JUMPI PUSH2 0x41D4 PUSH2 0x407F JUMP JUMPDEST JUMPDEST PUSH2 0x41DE DUP3 PUSH2 0x3ECB JUMP JUMPDEST SWAP1 POP PUSH1 0x20 DUP2 ADD SWAP1 POP SWAP2 SWAP1 POP JUMP JUMPDEST DUP3 DUP2 DUP4 CALLDATACOPY PUSH0 DUP4 DUP4 ADD MSTORE POP POP POP JUMP JUMPDEST PUSH0 PUSH2 0x420B PUSH2 0x4206 DUP5 PUSH2 0x41BB JUMP JUMPDEST PUSH2 0x40DD JUMP JUMPDEST SWAP1 POP DUP3 DUP2 MSTORE PUSH1 0x20 DUP2 ADD DUP5 DUP5 DUP5 ADD GT ISZERO PUSH2 0x4227 JUMPI PUSH2 0x4226 PUSH2 0x41B7 JUMP JUMPDEST JUMPDEST PUSH2 0x4232 DUP5 DUP3 DUP6 PUSH2 0x41EB JUMP JUMPDEST POP SWAP4 SWAP3 POP POP POP JUMP JUMPDEST PUSH0 DUP3 PUSH1 0x1F DUP4 ADD SLT PUSH2 0x424E JUMPI PUSH2 0x424D PUSH2 0x3F83 JUMP JUMPDEST JUMPDEST DUP2 CALLDATALOAD PUSH2 0x425E DUP5 DUP3 PUSH1 0x20 DUP7 ADD PUSH2 0x41F9 JUMP JUMPDEST SWAP2 POP POP SWAP3 SWAP2 POP POP JUMP JUMPDEST PUSH0 PUSH0 PUSH0 PUSH0 PUSH0 PUSH1 0xA0 DUP7 DUP9 SUB SLT ISZERO PUSH2 0x4280 JUMPI PUSH2 0x427F PUSH2 0x3CCA JUMP JUMPDEST JUMPDEST PUSH0 PUSH2 0x428D DUP9 DUP3 DUP10 ADD PUSH2 0x3D18 JUMP JUMPDEST SWAP6 POP POP PUSH1 0x20 PUSH2 0x429E DUP9 DUP3 DUP10 ADD PUSH2 0x3D18 JUMP JUMPDEST SWAP5 POP POP PUSH1 0x40 DUP7 ADD CALLDATALOAD PUSH8 0xFFFFFFFFFFFFFFFF DUP2 GT ISZERO PUSH2 0x42BF JUMPI PUSH2 0x42BE PUSH2 0x3CCE JUMP JUMPDEST JUMPDEST PUSH2 0x42CB DUP9 DUP3 DUP10 ADD PUSH2 0x418A JUMP JUMPDEST SWAP4 POP POP PUSH1 0x60 DUP7 ADD CALLDATALOAD PUSH8 0xFFFFFFFFFFFFFFFF DUP2 GT ISZERO PUSH2 0x42EC JUMPI PUSH2 0x42EB PUSH2 0x3CCE JUMP JUMPDEST JUMPDEST PUSH2 0x42F8 DUP9 DUP3 DUP10 ADD PUSH2 0x418A JUMP JUMPDEST SWAP3 POP POP PUSH1 0x80 DUP7 ADD CALLDATALOAD PUSH8 0xFFFFFFFFFFFFFFFF DUP2 GT ISZERO PUSH2 0x4319 JUMPI PUSH2 0x4318 PUSH2 0x3CCE JUMP JUMPDEST JUMPDEST PUSH2 0x4325 DUP9 DUP3 DUP10 ADD PUSH2 0x423A JUMP JUMPDEST SWAP2 POP POP SWAP3 SWAP6 POP SWAP3 SWAP6 SWAP1 SWAP4 POP JUMP JUMPDEST PUSH0 DUP2 SWAP1 POP SWAP2 SWAP1 POP JUMP JUMPDEST PUSH0 PUSH2 0x4355 PUSH2 0x4350 PUSH2 0x434B DUP5 PUSH2 0x3CD2 JUMP JUMPDEST PUSH2 0x4332 JUMP JUMPDEST PUSH2 0x3CD2 JUMP JUMPDEST SWAP1 POP SWAP2 SWAP1 POP JUMP JUMPDEST PUSH0 PUSH2 0x4366 DUP3 PUSH2 0x433B JUMP JUMPDEST SWAP1 POP SWAP2 SWAP1 POP JUMP JUMPDEST PUSH0 PUSH2 0x4377 DUP3 PUSH2 0x435C JUMP JUMPDEST SWAP1 POP SWAP2 SWAP1 POP JUMP JUMPDEST PUSH2 0x4387 DUP2 PUSH2 0x436D JUMP JUMPDEST DUP3 MSTORE POP POP JUMP JUMPDEST PUSH0 PUSH1 0x20 DUP3 ADD SWAP1 POP PUSH2 0x43A0 PUSH0 DUP4 ADD DUP5 PUSH2 0x437E JUMP JUMPDEST SWAP3 SWAP2 POP POP JUMP JUMPDEST PUSH0 PUSH8 0xFFFFFFFFFFFFFFFF DUP3 GT ISZERO PUSH2 0x43C0 JUMPI PUSH2 0x43BF PUSH2 0x407F JUMP JUMPDEST JUMPDEST PUSH1 0x20 DUP3 MUL SWAP1 POP PUSH1 0x20 DUP2 ADD SWAP1 POP SWAP2 SWAP1 POP JUMP JUMPDEST PUSH0 PUSH2 0x43E3 PUSH2 0x43DE DUP5 PUSH2 0x43A6 JUMP JUMPDEST PUSH2 0x40DD JUMP JUMPDEST SWAP1 POP DUP1 DUP4 DUP3 MSTORE PUSH1 0x20 DUP3 ADD SWAP1 POP PUSH1 0x20 DUP5 MUL DUP4 ADD DUP6 DUP2 GT ISZERO PUSH2 0x4406 JUMPI PUSH2 0x4405 PUSH2 0x3F8B JUMP JUMPDEST JUMPDEST DUP4 JUMPDEST DUP2 DUP2 LT ISZERO PUSH2 0x442F JUMPI DUP1 PUSH2 0x441B DUP9 DUP3 PUSH2 0x3D18 JUMP JUMPDEST DUP5 MSTORE PUSH1 0x20 DUP5 ADD SWAP4 POP POP PUSH1 0x20 DUP2 ADD SWAP1 POP PUSH2 0x4408 JUMP JUMPDEST POP POP POP SWAP4 SWAP3 POP POP POP JUMP JUMPDEST PUSH0 DUP3 PUSH1 0x1F DUP4 ADD SLT PUSH2 0x444D JUMPI PUSH2 0x444C PUSH2 0x3F83 JUMP JUMPDEST JUMPDEST DUP2 CALLDATALOAD PUSH2 0x445D DUP5 DUP3 PUSH1 0x20 DUP7 ADD PUSH2 0x43D1 JUMP JUMPDEST SWAP2 POP POP SWAP3 SWAP2 POP POP JUMP JUMPDEST PUSH0 PUSH0 PUSH1 0x40 DUP4 DUP6 SUB SLT ISZERO PUSH2 0x447C JUMPI PUSH2 0x447B PUSH2 0x3CCA JUMP JUMPDEST JUMPDEST PUSH0 DUP4 ADD CALLDATALOAD PUSH8 0xFFFFFFFFFFFFFFFF DUP2 GT ISZERO PUSH2 0x4499 JUMPI PUSH2 0x4498 PUSH2 0x3CCE JUMP JUMPDEST JUMPDEST PUSH2 0x44A5 DUP6 DUP3 DUP7 ADD PUSH2 0x4439 JUMP JUMPDEST SWAP3 POP POP PUSH1 0x20 DUP4 ADD CALLDATALOAD PUSH8 0xFFFFFFFFFFFFFFFF DUP2 GT ISZERO PUSH2 0x44C6 JUMPI PUSH2 0x44C5 PUSH2 0x3CCE JUMP JUMPDEST JUMPDEST PUSH2 0x44D2 DUP6 DUP3 DUP7 ADD PUSH2 0x418A JUMP JUMPDEST SWAP2 POP POP SWAP3 POP SWAP3 SWAP1 POP JUMP JUMPDEST PUSH0 DUP2 MLOAD SWAP1 POP SWAP2 SWAP1 POP JUMP JUMPDEST PUSH0 DUP3 DUP3 MSTORE PUSH1 0x20 DUP3 ADD SWAP1 POP SWAP3 SWAP2 POP POP JUMP JUMPDEST PUSH0 DUP2 SWAP1 POP PUSH1 0x20 DUP3 ADD SWAP1 POP SWAP2 SWAP1 POP JUMP JUMPDEST PUSH2 0x450E DUP2 PUSH2 0x3D2C JUMP JUMPDEST DUP3 MSTORE POP POP JUMP JUMPDEST PUSH0 PUSH2 0x451F DUP4 DUP4 PUSH2 0x4505 JUMP JUMPDEST PUSH1 0x20 DUP4 ADD SWAP1 POP SWAP3 SWAP2 POP POP JUMP JUMPDEST PUSH0 PUSH1 0x20 DUP3 ADD SWAP1 POP SWAP2 SWAP1 POP JUMP JUMPDEST PUSH0 PUSH2 0x4541 DUP3 PUSH2 0x44DC JUMP JUMPDEST PUSH2 0x454B DUP2 DUP6 PUSH2 0x44E6 JUMP JUMPDEST SWAP4 POP PUSH2 0x4556 DUP4 PUSH2 0x44F6 JUMP JUMPDEST DUP1 PUSH0 JUMPDEST DUP4 DUP2 LT ISZERO PUSH2 0x4586 JUMPI DUP2 MLOAD PUSH2 0x456D DUP9 DUP3 PUSH2 0x4514 JUMP JUMPDEST SWAP8 POP PUSH2 0x4578 DUP4 PUSH2 0x452B JUMP JUMPDEST SWAP3 POP POP PUSH1 0x1 DUP2 ADD SWAP1 POP PUSH2 0x4559 JUMP JUMPDEST POP DUP6 SWAP4 POP POP POP POP SWAP3 SWAP2 POP POP JUMP JUMPDEST PUSH0 PUSH1 0x20 DUP3 ADD SWAP1 POP DUP2 DUP2 SUB PUSH0 DUP4 ADD MSTORE PUSH2 0x45AB DUP2 DUP5 PUSH2 0x4537 JUMP JUMPDEST SWAP1 POP SWAP3 SWAP2 POP POP JUMP JUMPDEST PUSH0 PUSH0 PUSH1 0x20 DUP4 DUP6 SUB SLT ISZERO PUSH2 0x45C9 JUMPI PUSH2 0x45C8 PUSH2 0x3CCA JUMP JUMPDEST JUMPDEST PUSH0 DUP4 ADD CALLDATALOAD PUSH8 0xFFFFFFFFFFFFFFFF DUP2 GT ISZERO PUSH2 0x45E6 JUMPI PUSH2 0x45E5 PUSH2 0x3CCE JUMP JUMPDEST JUMPDEST PUSH2 0x45F2 DUP6 DUP3 DUP7 ADD PUSH2 0x3F8F JUMP JUMPDEST SWAP3 POP SWAP3 POP POP SWAP3 POP SWAP3 SWAP1 POP JUMP JUMPDEST PUSH0 PUSH1 0x20 DUP3 DUP5 SUB SLT ISZERO PUSH2 0x4613 JUMPI PUSH2 0x4612 PUSH2 0x3CCA JUMP JUMPDEST JUMPDEST PUSH0 PUSH2 0x4620 DUP5 DUP3 DUP6 ADD PUSH2 0x3D18 JUMP JUMPDEST SWAP2 POP POP SWAP3 SWAP2 POP POP JUMP JUMPDEST PUSH0 PUSH0 DUP4 PUSH1 0x1F DUP5 ADD SLT PUSH2 0x463E JUMPI PUSH2 0x463D PUSH2 0x3F83 JUMP JUMPDEST JUMPDEST DUP3 CALLDATALOAD SWAP1 POP PUSH8 0xFFFFFFFFFFFFFFFF DUP2 GT ISZERO PUSH2 0x465B JUMPI PUSH2 0x465A PUSH2 0x3F87 JUMP JUMPDEST JUMPDEST PUSH1 0x20 DUP4 ADD SWAP2 POP DUP4 PUSH1 0x20 DUP3 MUL DUP4 ADD GT ISZERO PUSH2 0x4677 JUMPI PUSH2 0x4676 PUSH2 0x3F8B JUMP JUMPDEST JUMPDEST SWAP3 POP SWAP3 SWAP1 POP JUMP JUMPDEST PUSH0 PUSH0 PUSH0 PUSH0 PUSH0 PUSH1 0x60 DUP7 DUP9 SUB SLT ISZERO PUSH2 0x4697 JUMPI PUSH2 0x4696 PUSH2 0x3CCA JUMP JUMPDEST JUMPDEST PUSH0 PUSH2 0x46A4 DUP9 DUP3 DUP10 ADD PUSH2 0x3D18 JUMP JUMPDEST SWAP6 POP POP PUSH1 0x20 DUP7 ADD CALLDATALOAD PUSH8 0xFFFFFFFFFFFFFFFF DUP2 GT ISZERO PUSH2 0x46C5 JUMPI PUSH2 0x46C4 PUSH2 0x3CCE JUMP JUMPDEST JUMPDEST PUSH2 0x46D1 DUP9 DUP3 DUP10 ADD PUSH2 0x4629 JUMP JUMPDEST SWAP5 POP SWAP5 POP POP PUSH1 0x40 DUP7 ADD CALLDATALOAD PUSH8 0xFFFFFFFFFFFFFFFF DUP2 GT ISZERO PUSH2 0x46F4 JUMPI PUSH2 0x46F3 PUSH2 0x3CCE JUMP JUMPDEST JUMPDEST PUSH2 0x4700 DUP9 DUP3 DUP10 ADD PUSH2 0x4629 JUMP JUMPDEST SWAP3 POP SWAP3 POP POP SWAP3 SWAP6 POP SWAP3 SWAP6 SWAP1 SWAP4 POP JUMP JUMPDEST PUSH2 0x4718 DUP2 PUSH2 0x3CF1 JUMP JUMPDEST DUP3 MSTORE POP POP JUMP JUMPDEST PUSH0 PUSH1 0x20 DUP3 ADD SWAP1 POP PUSH2 0x4731 PUSH0 DUP4 ADD DUP5 PUSH2 0x470F JUMP JUMPDEST SWAP3 SWAP2 POP POP JUMP JUMPDEST PUSH2 0x4740 DUP2 PUSH2 0x3E45 JUMP JUMPDEST DUP2 EQ PUSH2 0x474A JUMPI PUSH0 PUSH0 REVERT JUMPDEST POP JUMP JUMPDEST PUSH0 DUP2 CALLDATALOAD SWAP1 POP PUSH2 0x475B DUP2 PUSH2 0x4737 JUMP JUMPDEST SWAP3 SWAP2 POP POP JUMP JUMPDEST PUSH0 PUSH0 PUSH1 0x40 DUP4 DUP6 SUB SLT ISZERO PUSH2 0x4777 JUMPI PUSH2 0x4776 PUSH2 0x3CCA JUMP JUMPDEST JUMPDEST PUSH0 PUSH2 0x4784 DUP6 DUP3 DUP7 ADD PUSH2 0x3D18 JUMP JUMPDEST SWAP3 POP POP PUSH1 0x20 PUSH2 0x4795 DUP6 DUP3 DUP7 ADD PUSH2 0x474D JUMP JUMPDEST SWAP2 POP POP SWAP3 POP SWAP3 SWAP1 POP JUMP JUMPDEST PUSH0 PUSH0 PUSH0 PUSH0 PUSH1 0x40 DUP6 DUP8 SUB SLT ISZERO PUSH2 0x47B7 JUMPI PUSH2 0x47B6 PUSH2 0x3CCA JUMP JUMPDEST JUMPDEST PUSH0 DUP6 ADD CALLDATALOAD PUSH8 0xFFFFFFFFFFFFFFFF DUP2 GT ISZERO PUSH2 0x47D4 JUMPI PUSH2 0x47D3 PUSH2 0x3CCE JUMP JUMPDEST JUMPDEST PUSH2 0x47E0 DUP8 DUP3 DUP9 ADD PUSH2 0x4629 JUMP JUMPDEST SWAP5 POP SWAP5 POP POP PUSH1 0x20 DUP6 ADD CALLDATALOAD PUSH8 0xFFFFFFFFFFFFFFFF DUP2 GT ISZERO PUSH2 0x4803 JUMPI PUSH2 0x4802 PUSH2 0x3CCE JUMP JUMPDEST JUMPDEST PUSH2 0x480F DUP8 DUP3 DUP9 ADD PUSH2 0x4629 JUMP JUMPDEST SWAP3 POP SWAP3 POP POP SWAP3 SWAP6 SWAP2 SWAP5 POP SWAP3 POP JUMP JUMPDEST PUSH0 PUSH0 DUP4 PUSH1 0x1F DUP5 ADD SLT PUSH2 0x4832 JUMPI PUSH2 0x4831 PUSH2 0x3F83 JUMP JUMPDEST JUMPDEST DUP3 CALLDATALOAD SWAP1 POP PUSH8 0xFFFFFFFFFFFFFFFF DUP2 GT ISZERO PUSH2 0x484F JUMPI PUSH2 0x484E PUSH2 0x3F87 JUMP JUMPDEST JUMPDEST PUSH1 0x20 DUP4 ADD SWAP2 POP DUP4 PUSH1 0x20 DUP3 MUL DUP4 ADD GT ISZERO PUSH2 0x486B JUMPI PUSH2 0x486A PUSH2 0x3F8B JUMP JUMPDEST JUMPDEST SWAP3 POP SWAP3 SWAP1 POP JUMP JUMPDEST PUSH0 PUSH0 PUSH0 PUSH0 PUSH1 0x60 DUP6 DUP8 SUB SLT ISZERO PUSH2 0x488A JUMPI PUSH2 0x4889 PUSH2 0x3CCA JUMP JUMPDEST JUMPDEST PUSH0 DUP6 ADD CALLDATALOAD PUSH8 0xFFFFFFFFFFFFFFFF DUP2 GT ISZERO PUSH2 0x48A7 JUMPI PUSH2 0x48A6 PUSH2 0x3CCE JUMP JUMPDEST JUMPDEST PUSH2 0x48B3 DUP8 DUP3 DUP9 ADD PUSH2 0x481D JUMP JUMPDEST SWAP5 POP SWAP5 POP POP PUSH1 0x20 PUSH2 0x48C6 DUP8 DUP3 DUP9 ADD PUSH2 0x3D4B JUMP JUMPDEST SWAP3 POP POP PUSH1 0x40 PUSH2 0x48D7 DUP8 DUP3 DUP9 ADD PUSH2 0x3D4B JUMP JUMPDEST SWAP2 POP POP SWAP3 SWAP6 SWAP2 SWAP5 POP SWAP3 POP JUMP JUMPDEST PUSH0 PUSH0 PUSH1 0x40 DUP4 DUP6 SUB SLT ISZERO PUSH2 0x48F9 JUMPI PUSH2 0x48F8 PUSH2 0x3CCA JUMP JUMPDEST JUMPDEST PUSH0 PUSH2 0x4906 DUP6 DUP3 DUP7 ADD PUSH2 0x3D18 JUMP JUMPDEST SWAP3 POP POP PUSH1 0x20 PUSH2 0x4917 DUP6 DUP3 DUP7 ADD PUSH2 0x3D18 JUMP JUMPDEST SWAP2 POP POP SWAP3 POP SWAP3 SWAP1 POP JUMP JUMPDEST PUSH0 PUSH0 PUSH0 PUSH0 PUSH0 PUSH1 0xA0 DUP7 DUP9 SUB SLT ISZERO PUSH2 0x493A JUMPI PUSH2 0x4939 PUSH2 0x3CCA JUMP JUMPDEST JUMPDEST PUSH0 PUSH2 0x4947 DUP9 DUP3 DUP10 ADD PUSH2 0x3D18 JUMP JUMPDEST SWAP6 POP POP PUSH1 0x20 PUSH2 0x4958 DUP9 DUP3 DUP10 ADD PUSH2 0x3D18 JUMP JUMPDEST SWAP5 POP POP PUSH1 0x40 PUSH2 0x4969 DUP9 DUP3 DUP10 ADD PUSH2 0x3D4B JUMP JUMPDEST SWAP4 POP POP PUSH1 0x60 PUSH2 0x497A DUP9 DUP3 DUP10 ADD PUSH2 0x3D4B JUMP JUMPDEST SWAP3 POP POP PUSH1 0x80 DUP7 ADD CALLDATALOAD PUSH8 0xFFFFFFFFFFFFFFFF DUP2 GT ISZERO PUSH2 0x499B JUMPI PUSH2 0x499A PUSH2 0x3CCE JUMP JUMPDEST JUMPDEST PUSH2 0x49A7 DUP9 DUP3 DUP10 ADD PUSH2 0x423A JUMP JUMPDEST SWAP2 POP POP SWAP3 SWAP6 POP SWAP3 SWAP6 SWAP1 SWAP4 POP JUMP JUMPDEST PUSH32 0x4E487B7100000000000000000000000000000000000000000000000000000000 PUSH0 MSTORE PUSH1 0x22 PUSH1 0x4 MSTORE PUSH1 0x24 PUSH0 REVERT JUMPDEST PUSH0 PUSH1 0x2 DUP3 DIV SWAP1 POP PUSH1 0x1 DUP3 AND DUP1 PUSH2 0x49F8 JUMPI PUSH1 0x7F DUP3 AND SWAP2 POP JUMPDEST PUSH1 0x20 DUP3 LT DUP2 SUB PUSH2 0x4A0B JUMPI PUSH2 0x4A0A PUSH2 0x49B4 JUMP JUMPDEST JUMPDEST POP SWAP2 SWAP1 POP JUMP JUMPDEST PUSH32 0x746F207A65726F00000000000000000000000000000000000000000000000000 PUSH0 DUP3 ADD MSTORE POP JUMP JUMPDEST PUSH0 PUSH2 0x4A45 PUSH1 0x7 DUP4 PUSH2 0x3EAD JUMP JUMPDEST SWAP2 POP PUSH2 0x4A50 DUP3 PUSH2 0x4A11 JUMP JUMPDEST PUSH1 0x20 DUP3 ADD SWAP1 POP SWAP2 SWAP1 POP JUMP JUMPDEST PUSH0 PUSH1 0x20 DUP3 ADD SWAP1 POP DUP2 DUP2 SUB PUSH0 DUP4 ADD MSTORE PUSH2 0x4A72 DUP2 PUSH2 0x4A39 JUMP JUMPDEST SWAP1 POP SWAP2 SWAP1 POP JUMP JUMPDEST PUSH32 0x616D6F756E74207A65726F000000000000000000000000000000000000000000 PUSH0 DUP3 ADD MSTORE POP JUMP JUMPDEST PUSH0 PUSH2 0x4AAD PUSH1 0xB DUP4 PUSH2 0x3EAD JUMP JUMPDEST SWAP2 POP PUSH2 0x4AB8 DUP3 PUSH2 0x4A79 JUMP JUMPDEST PUSH1 0x20 DUP3 ADD SWAP1 POP SWAP2 SWAP1 POP JUMP JUMPDEST PUSH0 PUSH1 0x20 DUP3 ADD SWAP1 POP DUP2 DUP2 SUB PUSH0 DUP4 ADD MSTORE PUSH2 0x4ADA DUP2 PUSH2 0x4AA1 JUMP JUMPDEST SWAP1 POP SWAP2 SWAP1 POP JUMP JUMPDEST PUSH32 0x746F6B656E2074797065206E6F74206578697374000000000000000000000000 PUSH0 DUP3 ADD MSTORE POP JUMP JUMPDEST PUSH0 PUSH2 0x4B15 PUSH1 0x14 DUP4 PUSH2 0x3EAD JUMP JUMPDEST SWAP2 POP PUSH2 0x4B20 DUP3 PUSH2 0x4AE1 JUMP JUMPDEST PUSH1 0x20 DUP3 ADD SWAP1 POP SWAP2 SWAP1 POP JUMP JUMPDEST PUSH0 PUSH1 0x20 DUP3 ADD SWAP1 POP DUP2 DUP2 SUB PUSH0 DUP4 ADD MSTORE PUSH2 0x4B42 DUP2 PUSH2 0x4B09 JUMP JUMPDEST SWAP1 POP SWAP2 SWAP1 POP JUMP JUMPDEST PUSH32 0x4E487B7100000000000000000000000000000000000000000000000000000000 PUSH0 MSTORE PUSH1 0x11 PUSH1 0x4 MSTORE PUSH1 0x24 PUSH0 REVERT JUMPDEST PUSH0 PUSH2 0x4B80 DUP3 PUSH2 0x3D2C JUMP JUMPDEST SWAP2 POP PUSH2 0x4B8B DUP4 PUSH2 0x3D2C JUMP JUMPDEST SWAP3 POP DUP3 DUP3 ADD SWAP1 POP DUP1 DUP3 GT ISZERO PUSH2 0x4BA3 JUMPI PUSH2 0x4BA2 PUSH2 0x4B49 JUMP JUMPDEST JUMPDEST SWAP3 SWAP2 POP POP JUMP JUMPDEST PUSH32 0x65786365656473206D6178000000000000000000000000000000000000000000 PUSH0 DUP3 ADD MSTORE POP JUMP JUMPDEST PUSH0 PUSH2 0x4BDD PUSH1 0xB DUP4 PUSH2 0x3EAD JUMP JUMPDEST SWAP2 POP PUSH2 0x4BE8 DUP3 PUSH2 0x4BA9 JUMP JUMPDEST PUSH1 0x20 DUP3 ADD SWAP1 POP SWAP2 SWAP1 POP JUMP JUMPDEST PUSH0 PUSH1 0x20 DUP3 ADD SWAP1 POP DUP2 DUP2 SUB PUSH0 DUP4 ADD MSTORE PUSH2 0x4C0A DUP2 PUSH2 0x4BD1 JUMP JUMPDEST SWAP1 POP SWAP2 SWAP1 POP JUMP JUMPDEST PUSH32 0x696E76616C696420696400000000000000000000000000000000000000000000 PUSH0 DUP3 ADD MSTORE POP JUMP JUMPDEST PUSH0 PUSH2 0x4C45 PUSH1 0xA DUP4 PUSH2 0x3EAD JUMP JUMPDEST SWAP2 POP PUSH2 0x4C50 DUP3 PUSH2 0x4C11 JUMP JUMPDEST PUSH1 0x20 DUP3 ADD SWAP1 POP SWAP2 SWAP1 POP JUMP JUMPDEST PUSH0 PUSH1 0x20 DUP3 ADD SWAP1 POP DUP2 DUP2 SUB PUSH0 DUP4 ADD MSTORE PUSH2 0x4C72 DUP2 PUSH2 0x4C39 JUMP JUMPDEST SWAP1 POP SWAP2 SWAP1 POP JUMP JUMPDEST PUSH0 DUP3 SWAP1 POP SWAP3 SWAP2 POP POP JUMP JUMPDEST PUSH0 DUP2 SWAP1 POP DUP2 PUSH0 MSTORE PUSH1 0x20 PUSH0 KECCAK256 SWAP1 POP SWAP2 SWAP1 POP JUMP JUMPDEST PUSH0 PUSH1 0x20 PUSH1 0x1F DUP4 ADD DIV SWAP1 POP SWAP2 SWAP1 POP JUMP JUMPDEST PUSH0 DUP3 DUP3 SHL SWAP1 POP SWAP3 SWAP2 POP POP JUMP JUMPDEST PUSH0 PUSH1 0x8 DUP4 MUL PUSH2 0x4CDF PUSH32 0xFFFFFFFFFFFFFFFFFFFFFFFFFFFFFFFFFFFFFFFFFFFFFFFFFFFFFFFFFFFFFFFF DUP3 PUSH2 0x4CA4 JUMP JUMPDEST PUSH2 0x4CE9 DUP7 DUP4 PUSH2 0x4CA4 JUMP JUMPDEST SWAP6 POP DUP1 NOT DUP5 AND SWAP4 POP DUP1 DUP7 AND DUP5 OR SWAP3 POP POP POP SWAP4 SWAP3 POP POP POP JUMP JUMPDEST PUSH0 PUSH2 0x4D1B PUSH2 0x4D16 PUSH2 0x4D11 DUP5 PUSH2 0x3D2C JUMP JUMPDEST PUSH2 0x4332 JUMP JUMPDEST PUSH2 0x3D2C JUMP JUMPDEST SWAP1 POP SWAP2 SWAP1 POP JUMP JUMPDEST PUSH0 DUP2 SWAP1 POP SWAP2 SWAP1 POP JUMP JUMPDEST PUSH2 0x4D34 DUP4 PUSH2 0x4D01 JUMP JUMPDEST PUSH2 0x4D48 PUSH2 0x4D40 DUP3 PUSH2 0x4D22 JUMP JUMPDEST DUP5 DUP5 SLOAD PUSH2 0x4CB0 JUMP JUMPDEST DUP3 SSTORE POP POP POP POP JUMP JUMPDEST PUSH0 PUSH0 SWAP1 POP SWAP1 JUMP JUMPDEST PUSH2 0x4D5F PUSH2 0x4D50 JUMP JUMPDEST PUSH2 0x4D6A DUP2 DUP5 DUP5 PUSH2 0x4D2B JUMP JUMPDEST POP POP POP JUMP JUMPDEST JUMPDEST DUP2 DUP2 LT ISZERO PUSH2 0x4D8D JUMPI PUSH2 0x4D82 PUSH0 DUP3 PUSH2 0x4D57 JUMP JUMPDEST PUSH1 0x1 DUP2 ADD SWAP1 POP PUSH2 0x4D70 JUMP JUMPDEST POP POP JUMP JUMPDEST PUSH1 0x1F DUP3 GT ISZERO PUSH2 0x4DD2 JUMPI PUSH2 0x4DA3 DUP2 PUSH2 0x4C83 JUMP JUMPDEST PUSH2 0x4DAC DUP5 PUSH2 0x4C95 JUMP JUMPDEST DUP2 ADD PUSH1 0x20 DUP6 LT ISZERO PUSH2 0x4DBB JUMPI DUP2 SWAP1 POP JUMPDEST PUSH2 0x4DCF PUSH2 0x4DC7 DUP6 PUSH2 0x4C95 JUMP JUMPDEST DUP4 ADD DUP3 PUSH2 0x4D6F JUMP JUMPDEST POP POP JUMPDEST POP POP POP JUMP JUMPDEST PUSH0 DUP3 DUP3 SHR SWAP1 POP SWAP3 SWAP2 POP POP JUMP JUMPDEST PUSH0 PUSH2 0x4DF2 PUSH0 NOT DUP5 PUSH1 0x8 MUL PUSH2 0x4DD7 JUMP JUMPDEST NOT DUP1 DUP4 AND SWAP2 POP POP SWAP3 SWAP2 POP POP JUMP JUMPDEST PUSH0 PUSH2 0x4E0A DUP4 DUP4 PUSH2 0x4DE3 JUMP JUMPDEST SWAP2 POP DUP3 PUSH1 0x2 MUL DUP3 OR SWAP1 POP SWAP3 SWAP2 POP POP JUMP JUMPDEST PUSH2 0x4E24 DUP4 DUP4 PUSH2 0x4C79 JUMP JUMPDEST PUSH8 0xFFFFFFFFFFFFFFFF DUP2 GT ISZERO PUSH2 0x4E3D JUMPI PUSH2 0x4E3C PUSH2 0x407F JUMP JUMPDEST JUMPDEST PUSH2 0x4E47 DUP3 SLOAD PUSH2 0x49E1 JUMP JUMPDEST PUSH2 0x4E52 DUP3 DUP3 DUP6 PUSH2 0x4D91 JUMP JUMPDEST PUSH0 PUSH1 0x1F DUP4 GT PUSH1 0x1 DUP2 EQ PUSH2 0x4E7F JUMPI PUSH0 DUP5 ISZERO PUSH2 0x4E6D JUMPI DUP3 DUP8 ADD CALLDATALOAD SWAP1 POP JUMPDEST PUSH2 0x4E77 DUP6 DUP3 PUSH2 0x4DFF JUMP JUMPDEST DUP7 SSTORE POP PUSH2 0x4EDE JUMP JUMPDEST PUSH1 0x1F NOT DUP5 AND PUSH2 0x4E8D DUP7 PUSH2 0x4C83 JUMP JUMPDEST PUSH0 JUMPDEST DUP3 DUP2 LT ISZERO PUSH2 0x4EB4 JUMPI DUP5 DUP10 ADD CALLDATALOAD DUP3 SSTORE PUSH1 0x1 DUP3 ADD SWAP2 POP PUSH1 0x20 DUP6 ADD SWAP5 POP PUSH1 0x20 DUP2 ADD SWAP1 POP PUSH2 0x4E8F JUMP JUMPDEST DUP7 DUP4 LT ISZERO PUSH2 0x4ED1 JUMPI DUP5 DUP10 ADD CALLDATALOAD PUSH2 0x4ECD PUSH1 0x1F DUP10 AND DUP3 PUSH2 0x4DE3 JUMP JUMPDEST DUP4 SSTORE POP JUMPDEST PUSH1 0x1 PUSH1 0x2 DUP9 MUL ADD DUP9 SSTORE POP POP POP JUMPDEST POP POP POP POP POP POP POP JUMP JUMPDEST PUSH0 PUSH2 0x4EF2 DUP4 DUP6 PUSH2 0x3EAD JUMP JUMPDEST SWAP4 POP PUSH2 0x4EFF DUP4 DUP6 DUP5 PUSH2 0x41EB JUMP JUMPDEST PUSH2 0x4F08 DUP4 PUSH2 0x3ECB JUMP JUMPDEST DUP5 ADD SWAP1 POP SWAP4 SWAP3 POP POP POP JUMP JUMPDEST PUSH0 PUSH1 0x20 DUP3 ADD SWAP1 POP DUP2 DUP2 SUB PUSH0 DUP4 ADD MSTORE PUSH2 0x4F2C DUP2 DUP5 DUP7 PUSH2 0x4EE7 JUMP JUMPDEST SWAP1 POP SWAP4 SWAP3 POP POP POP JUMP JUMPDEST PUSH0 PUSH1 0x40 DUP3 ADD SWAP1 POP PUSH2 0x4F48 PUSH0 DUP4 ADD DUP6 PUSH2 0x470F JUMP JUMPDEST PUSH2 0x4F55 PUSH1 0x20 DUP4 ADD DUP5 PUSH2 0x470F JUMP JUMPDEST SWAP4 SWAP3 POP POP POP JUMP JUMPDEST PUSH32 0x6E6F20636C61696D20737570706C790000000000000000000000000000000000 PUSH0 DUP3 ADD MSTORE POP JUMP JUMPDEST PUSH0 PUSH2 0x4F90 PUSH1 0xF DUP4 PUSH2 0x3EAD JUMP JUMPDEST SWAP2 POP PUSH2 0x4F9B DUP3 PUSH2 0x4F5C JUMP JUMPDEST PUSH1 0x20 DUP3 ADD SWAP1 POP SWAP2 SWAP1 POP JUMP JUMPDEST PUSH0 PUSH1 0x20 DUP3 ADD SWAP1 POP DUP2 DUP2 SUB PUSH0 DUP4 ADD MSTORE PUSH2 0x4FBD DUP2 PUSH2 0x4F84 JUMP JUMPDEST SWAP1 POP SWAP2 SWAP1 POP JUMP JUMPDEST PUSH32 0x616C726561647920636C61696D65640000000000000000000000000000000000 PUSH0 DUP3 ADD MSTORE POP JUMP JUMPDEST PUSH0 PUSH2 0x4FF8 PUSH1 0xF DUP4 PUSH2 0x3EAD JUMP JUMPDEST SWAP2 POP PUSH2 0x5003 DUP3 PUSH2 0x4FC4 JUMP JUMPDEST PUSH1 0x20 DUP3 ADD SWAP1 POP SWAP2 SWAP1 POP JUMP JUMPDEST PUSH0 PUSH1 0x20 DUP3 ADD SWAP1 POP DUP2 DUP2 SUB PUSH0 DUP4 ADD MSTORE PUSH2 0x5025 DUP2 PUSH2 0x4FEC JUMP JUMPDEST SWAP1 POP SWAP2 SWAP1 POP JUMP JUMPDEST PUSH0 PUSH2 0x5036 DUP3 PUSH2 0x3D2C JUMP JUMPDEST SWAP2 POP PUSH2 0x5041 DUP4 PUSH2 0x3D2C JUMP JUMPDEST SWAP3 POP DUP3 DUP3 SUB SWAP1 POP DUP2 DUP2 GT ISZERO PUSH2 0x5059 JUMPI PUSH2 0x5058 PUSH2 0x4B49 JUMP JUMPDEST JUMPDEST SWAP3 SWAP2 POP POP JUMP JUMPDEST PUSH0 PUSH1 0x40 DUP3 ADD SWAP1 POP PUSH2 0x5072 PUSH0 DUP4 ADD DUP6 PUSH2 0x3D9D JUMP JUMPDEST PUSH2 0x507F PUSH1 0x20 DUP4 ADD DUP5 PUSH2 0x3D9D JUMP JUMPDEST SWAP4 SWAP3 POP POP POP JUMP JUMPDEST PUSH32 0x4E487B7100000000000000000000000000000000000000000000000000000000 PUSH0 MSTORE PUSH1 0x32 PUSH1 0x4 MSTORE PUSH1 0x24 PUSH0 REVERT JUMPDEST PUSH32 0x7A65726F20746F6B656E00000000000000000000000000000000000000000000 PUSH0 DUP3 ADD MSTORE POP JUMP JUMPDEST PUSH0 PUSH2 0x50E7 PUSH1 0xA DUP4 PUSH2 0x3EAD JUMP JUMPDEST SWAP2 POP PUSH2 0x50F2 DUP3 PUSH2 0x50B3 JUMP JUMPDEST PUSH1 0x20 DUP3 ADD SWAP1 POP SWAP2 SWAP1 POP JUMP JUMPDEST PUSH0 PUSH1 0x20 DUP3 ADD SWAP1 POP DUP2 DUP2 SUB PUSH0 DUP4 ADD MSTORE PUSH2 0x5114 DUP2 PUSH2 0x50DB JUMP JUMPDEST SWAP1 POP SWAP2 SWAP1 POP JUMP JUMPDEST PUSH32 0x6E6F74206F776E6572206E6F7220617070726F76656400000000000000000000 PUSH0 DUP3 ADD MSTORE POP JUMP JUMPDEST PUSH0 PUSH2 0x514F PUSH1 0x16 DUP4 PUSH2 0x3EAD JUMP JUMPDEST SWAP2 POP PUSH2 0x515A DUP3 PUSH2 0x511B JUMP JUMPDEST PUSH1 0x20 DUP3 ADD SWAP1 POP SWAP2 SWAP1 POP JUMP JUMPDEST PUSH0 PUSH1 0x20 DUP3 ADD SWAP1 POP DUP2 DUP2 SUB PUSH0 DUP4 ADD MSTORE PUSH2 0x517C DUP2 PUSH2 0x5143 JUMP JUMPDEST SWAP1 POP SWAP2 SWAP1 POP JUMP JUMPDEST PUSH32 0x6275726E206578636565647320737570706C7900000000000000000000000000 PUSH0 DUP3 ADD MSTORE POP JUMP JUMPDEST PUSH0 PUSH2 0x51B7 PUSH1 0x13 DUP4 PUSH2 0x3EAD JUMP JUMPDEST SWAP2 POP PUSH2 0x51C2 DUP3 PUSH2 0x5183 JUMP JUMPDEST PUSH1 0x20 DUP3 ADD SWAP1 POP SWAP2 SWAP1 POP JUMP JUMPDEST PUSH0 PUSH1 0x20 DUP3 ADD SWAP1 POP DUP2 DUP2 SUB PUSH0 DUP4 ADD MSTORE PUSH2 0x51E4 DUP2 PUSH2 0x51AB JUMP JUMPDEST SWAP1 POP SWAP2 SWAP1 POP JUMP JUMPDEST PUSH0 PUSH2 0x51F5 DUP3 PUSH2 0x3D2C JUMP JUMPDEST SWAP2 POP PUSH2 0x5200 DUP4 PUSH2 0x3D2C JUMP JUMPDEST SWAP3 POP DUP3 DUP3 MUL PUSH2 0x520E DUP2 PUSH2 0x3D2C JUMP JUMPDEST SWAP2 POP DUP3 DUP3 DIV DUP5 EQ DUP4 ISZERO OR PUSH2 0x5225 JUMPI PUSH2 0x5224 PUSH2 0x4B49 JUMP JUMPDEST JUMPDEST POP SWAP3 SWAP2 POP POP JUMP JUMPDEST PUSH32 0x7A65726F20636F6C6C6563746F72000000000000000000000000000000000000 PUSH0 DUP3 ADD MSTORE POP JUMP JUMPDEST PUSH0 PUSH2 0x5260 PUSH1 0xE DUP4 PUSH2 0x3EAD JUMP JUMPDEST SWAP2 POP PUSH2 0x526B DUP3 PUSH2 0x522C JUMP JUMPDEST PUSH1 0x20 DUP3 ADD SWAP1 POP SWAP2 SWAP1 POP JUMP JUMPDEST PUSH0 PUSH1 0x20 DUP3 ADD SWAP1 POP DUP2 DUP2 SUB PUSH0 DUP4 ADD MSTORE PUSH2 0x528D DUP2 PUSH2 0x5254 JUMP JUMPDEST SWAP1 POP SWAP2 SWAP1 POP JUMP JUMPDEST PUSH32 0x6C656E206D69736D617463680000000000000000000000000000000000000000 PUSH0 DUP3 ADD MSTORE POP JUMP JUMPDEST PUSH0 PUSH2 0x52C8 PUSH1 0xC DUP4 PUSH2 0x3EAD JUMP JUMPDEST SWAP2 POP PUSH2 0x52D3 DUP3 PUSH2 0x5294 JUMP JUMPDEST PUSH1 0x20 DUP3 ADD SWAP1 POP SWAP2 SWAP1 POP JUMP JUMPDEST PUSH0 PUSH1 0x20 DUP3 ADD SWAP1 POP DUP2 DUP2 SUB PUSH0 DUP4 ADD MSTORE PUSH2 0x52F5 DUP2 PUSH2 0x52BC JUMP JUMPDEST SWAP1 POP SWAP2 SWAP1 POP JUMP JUMPDEST PUSH0 PUSH0 REVERT JUMPDEST DUP3 DUP2 DUP4 CALLDATACOPY POP POP POP JUMP JUMPDEST PUSH0 PUSH2 0x5314 DUP4 DUP6 PUSH2 0x44E6 JUMP JUMPDEST SWAP4 POP PUSH32 0x7FFFFFFFFFFFFFFFFFFFFFFFFFFFFFFFFFFFFFFFFFFFFFFFFFFFFFFFFFFFFFF DUP4 GT ISZERO PUSH2 0x5347 JUMPI PUSH2 0x5346 PUSH2 0x52FC JUMP JUMPDEST JUMPDEST PUSH1 0x20 DUP4 MUL SWAP3 POP PUSH2 0x5358 DUP4 DUP6 DUP5 PUSH2 0x5300 JUMP JUMPDEST DUP3 DUP5 ADD SWAP1 POP SWAP4 SWAP3 POP POP POP JUMP JUMPDEST PUSH0 PUSH1 0x40 DUP3 ADD SWAP1 POP DUP2 DUP2 SUB PUSH0 DUP4 ADD MSTORE PUSH2 0x537D DUP2 DUP7 DUP9 PUSH2 0x5309 JUMP JUMPDEST SWAP1 POP DUP2 DUP2 SUB PUSH1 0x20 DUP4 ADD MSTORE PUSH2 0x5392 DUP2 DUP5 DUP7 PUSH2 0x5309 JUMP JUMPDEST SWAP1 POP SWAP6 SWAP5 POP POP POP POP POP JUMP JUMPDEST PUSH32 0x7572692072657175697265640000000000000000000000000000000000000000 PUSH0 DUP3 ADD MSTORE POP JUMP JUMPDEST PUSH0 PUSH2 0x53D1 PUSH1 0xC DUP4 PUSH2 0x3EAD JUMP JUMPDEST SWAP2 POP PUSH2 0x53DC DUP3 PUSH2 0x539D JUMP JUMPDEST PUSH1 0x20 DUP3 ADD SWAP1 POP SWAP2 SWAP1 POP JUMP JUMPDEST PUSH0 PUSH1 0x20 DUP3 ADD SWAP1 POP DUP2 DUP2 SUB PUSH0 DUP4 ADD MSTORE PUSH2 0x53FE DUP2 PUSH2 0x53C5 JUMP JUMPDEST SWAP1 POP SWAP2 SWAP1 POP JUMP JUMPDEST PUSH0 PUSH1 0x40 DUP3 ADD SWAP1 POP PUSH2 0x5418 PUSH0 DUP4 ADD DUP7 PUSH2 0x3D9D JUMP JUMPDEST DUP2 DUP2 SUB PUSH1 0x20 DUP4 ADD MSTORE PUSH2 0x542B DUP2 DUP5 DUP7 PUSH2 0x4EE7 JUMP JUMPDEST SWAP1 POP SWAP5 SWAP4 POP POP POP POP JUMP JUMPDEST PUSH32 0x6E6F20726563697069656E747300000000000000000000000000000000000000 PUSH0 DUP3 ADD MSTORE POP JUMP JUMPDEST PUSH0 PUSH2 0x5469 PUSH1 0xD DUP4 PUSH2 0x3EAD JUMP JUMPDEST SWAP2 POP PUSH2 0x5474 DUP3 PUSH2 0x5435 JUMP JUMPDEST PUSH1 0x20 DUP3 ADD SWAP1 POP SWAP2 SWAP1 POP JUMP JUMPDEST PUSH0 PUSH1 0x20 DUP3 ADD SWAP1 POP DUP2 DUP2 SUB PUSH0 DUP4 ADD MSTORE PUSH2 0x5496 DUP2 PUSH2 0x545D JUMP JUMPDEST SWAP1 POP SWAP2 SWAP1 POP JUMP JUMPDEST PUSH32 0x5061757361626C653A2070617573656400000000000000000000000000000000 PUSH0 DUP3 ADD MSTORE POP JUMP JUMPDEST PUSH0 PUSH2 0x54D1 PUSH1 0x10 DUP4 PUSH2 0x3EAD JUMP JUMPDEST SWAP2 POP PUSH2 0x54DC DUP3 PUSH2 0x549D JUMP JUMPDEST PUSH1 0x20 DUP3 ADD SWAP1 POP SWAP2 SWAP1 POP JUMP JUMPDEST PUSH0 PUSH1 0x20 DUP3 ADD SWAP1 POP DUP2 DUP2 SUB PUSH0 DUP4 ADD MSTORE PUSH2 0x54FE DUP2 PUSH2 0x54C5 JUMP JUMPDEST SWAP1 POP SWAP2 SWAP1 POP JUMP JUMPDEST PUSH32 0x5265656E7472616E637947756172643A207265656E7472616E742063616C6C00 PUSH0 DUP3 ADD MSTORE POP JUMP JUMPDEST PUSH0 PUSH2 0x5539 PUSH1 0x1F DUP4 PUSH2 0x3EAD JUMP JUMPDEST SWAP2 POP PUSH2 0x5544 DUP3 PUSH2 0x5505 JUMP JUMPDEST PUSH1 0x20 DUP3 ADD SWAP1 POP SWAP2 SWAP1 POP JUMP JUMPDEST PUSH0 PUSH1 0x20 DUP3 ADD SWAP1 POP DUP2 DUP2 SUB PUSH0 DUP4 ADD MSTORE PUSH2 0x5566 DUP2 PUSH2 0x552D JUMP JUMPDEST SWAP1 POP SWAP2 SWAP1 POP JUMP JUMPDEST PUSH2 0x5576 DUP3 PUSH2 0x3EA3 JUMP JUMPDEST PUSH8 0xFFFFFFFFFFFFFFFF DUP2 GT ISZERO PUSH2 0x558F JUMPI PUSH2 0x558E PUSH2 0x407F JUMP JUMPDEST JUMPDEST PUSH2 0x5599 DUP3 SLOAD PUSH2 0x49E1 JUMP JUMPDEST PUSH2 0x55A4 DUP3 DUP3 DUP6 PUSH2 0x4D91 JUMP JUMPDEST PUSH0 PUSH1 0x20 SWAP1 POP PUSH1 0x1F DUP4 GT PUSH1 0x1 DUP2 EQ PUSH2 0x55D5 JUMPI PUSH0 DUP5 ISZERO PUSH2 0x55C3 JUMPI DUP3 DUP8 ADD MLOAD SWAP1 POP JUMPDEST PUSH2 0x55CD DUP6 DUP3 PUSH2 0x4DFF JUMP JUMPDEST DUP7 SSTORE POP PUSH2 0x5634 JUMP JUMPDEST PUSH1 0x1F NOT DUP5 AND PUSH2 0x55E3 DUP7 PUSH2 0x4C83 JUMP JUMPDEST PUSH0 JUMPDEST DUP3 DUP2 LT ISZERO PUSH2 0x560A JUMPI DUP5 DUP10 ADD MLOAD DUP3 SSTORE PUSH1 0x1 DUP3 ADD SWAP2 POP PUSH1 0x20 DUP6 ADD SWAP5 POP PUSH1 0x20 DUP2 ADD SWAP1 POP PUSH2 0x55E5 JUMP JUMPDEST DUP7 DUP4 LT ISZERO PUSH2 0x5627 JUMPI DUP5 DUP10 ADD MLOAD PUSH2 0x5623 PUSH1 0x1F DUP10 AND DUP3 PUSH2 0x4DE3 JUMP JUMPDEST DUP4 SSTORE POP JUMPDEST PUSH1 0x1 PUSH1 0x2 DUP9 MUL ADD DUP9 SSTORE POP POP POP JUMPDEST POP POP POP POP POP POP JUMP JUMPDEST PUSH0 PUSH1 0x60 DUP3 ADD SWAP1 POP PUSH2 0x564F PUSH0 DUP4 ADD DUP7 PUSH2 0x470F JUMP JUMPDEST PUSH2 0x565C PUSH1 0x20 DUP4 ADD DUP6 PUSH2 0x470F JUMP JUMPDEST PUSH2 0x5669 PUSH1 0x40 DUP4 ADD DUP5 PUSH2 0x3D9D JUMP JUMPDEST SWAP5 SWAP4 POP POP POP POP JUMP JUMPDEST PUSH32 0x5061757361626C653A206E6F7420706175736564000000000000000000000000 PUSH0 DUP3 ADD MSTORE POP JUMP JUMPDEST PUSH0 PUSH2 0x56A5 PUSH1 0x14 DUP4 PUSH2 0x3EAD JUMP JUMPDEST SWAP2 POP PUSH2 0x56B0 DUP3 PUSH2 0x5671 JUMP JUMPDEST PUSH1 0x20 DUP3 ADD SWAP1 POP SWAP2 SWAP1 POP JUMP JUMPDEST PUSH0 PUSH1 0x20 DUP3 ADD SWAP1 POP DUP2 DUP2 SUB PUSH0 DUP4 ADD MSTORE PUSH2 0x56D2 DUP2 PUSH2 0x5699 JUMP JUMPDEST SWAP1 POP SWAP2 SWAP1 POP JUMP JUMPDEST PUSH0 PUSH1 0x80 DUP3 ADD SWAP1 POP PUSH2 0x56EC PUSH0 DUP4 ADD DUP8 PUSH2 0x470F JUMP JUMPDEST PUSH2 0x56F9 PUSH1 0x20 DUP4 ADD DUP7 PUSH2 0x3D9D JUMP JUMPDEST PUSH2 0x5706 PUSH1 0x40 DUP4 ADD DUP6 PUSH2 0x3D9D JUMP JUMPDEST PUSH2 0x5713 PUSH1 0x60 DUP4 ADD DUP5 PUSH2 0x3D9D JUMP JUMPDEST SWAP6 SWAP5 POP POP POP POP POP JUMP JUMPDEST PUSH0 PUSH1 0x40 DUP3 ADD SWAP1 POP DUP2 DUP2 SUB PUSH0 DUP4 ADD MSTORE PUSH2 0x5734 DUP2 DUP6 PUSH2 0x4537 JUMP JUMPDEST SWAP1 POP DUP2 DUP2 SUB PUSH1 0x20 DUP4 ADD MSTORE PUSH2 0x5748 DUP2 DUP5 PUSH2 0x4537 JUMP JUMPDEST SWAP1 POP SWAP4 SWAP3 POP POP POP JUMP JUMPDEST PUSH0 DUP2 MLOAD SWAP1 POP SWAP2 SWAP1 POP JUMP JUMPDEST PUSH0 DUP3 DUP3 MSTORE PUSH1 0x20 DUP3 ADD SWAP1 POP SWAP3 SWAP2 POP POP JUMP JUMPDEST PUSH0 PUSH2 0x5775 DUP3 PUSH2 0x5751 JUMP JUMPDEST PUSH2 0x577F DUP2 DUP6 PUSH2 0x575B JUMP JUMPDEST SWAP4 POP PUSH2 0x578F DUP2 DUP6 PUSH1 0x20 DUP7 ADD PUSH2 0x3EBD JUMP JUMPDEST PUSH2 0x5798 DUP2 PUSH2 0x3ECB JUMP JUMPDEST DUP5 ADD SWAP2 POP POP SWAP3 SWAP2 POP POP JUMP JUMPDEST PUSH0 PUSH1 0xA0 DUP3 ADD SWAP1 POP PUSH2 0x57B6 PUSH0 DUP4 ADD DUP9 PUSH2 0x470F JUMP JUMPDEST PUSH2 0x57C3 PUSH1 0x20 DUP4 ADD DUP8 PUSH2 0x470F JUMP JUMPDEST PUSH2 0x57D0 PUSH1 0x40 DUP4 ADD DUP7 PUSH2 0x3D9D JUMP JUMPDEST PUSH2 0x57DD PUSH1 0x60 DUP4 ADD DUP6 PUSH2 0x3D9D JUMP JUMPDEST DUP2 DUP2 SUB PUSH1 0x80 DUP4 ADD MSTORE PUSH2 0x57EF DUP2 DUP5 PUSH2 0x576B JUMP JUMPDEST SWAP1 POP SWAP7 SWAP6 POP POP POP POP POP POP JUMP JUMPDEST PUSH0 DUP2 MLOAD SWAP1 POP PUSH2 0x5809 DUP2 PUSH2 0x3DF0 JUMP JUMPDEST SWAP3 SWAP2 POP POP JUMP JUMPDEST PUSH0 PUSH1 0x20 DUP3 DUP5 SUB SLT ISZERO PUSH2 0x5824 JUMPI PUSH2 0x5823 PUSH2 0x3CCA JUMP JUMPDEST JUMPDEST PUSH0 PUSH2 0x5831 DUP5 DUP3 DUP6 ADD PUSH2 0x57FB JUMP JUMPDEST SWAP2 POP POP SWAP3 SWAP2 POP POP JUMP JUMPDEST PUSH0 PUSH1 0xA0 DUP3 ADD SWAP1 POP PUSH2 0x584D PUSH0 DUP4 ADD DUP9 PUSH2 0x470F JUMP JUMPDEST PUSH2 0x585A PUSH1 0x20 DUP4 ADD DUP8 PUSH2 0x470F JUMP JUMPDEST DUP2 DUP2 SUB PUSH1 0x40 DUP4 ADD MSTORE PUSH2 0x586C DUP2 DUP7 PUSH2 0x4537 JUMP JUMPDEST SWAP1 POP DUP2 DUP2 SUB PUSH1 0x60 DUP4 ADD MSTORE PUSH2 0x5880 DUP2 DUP6 PUSH2 0x4537 JUMP JUMPDEST SWAP1 POP DUP2 DUP2 SUB PUSH1 0x80 DUP4 ADD MSTORE PUSH2 0x5894 DUP2 DUP5 PUSH2 0x576B JUMP JUMPDEST SWAP1 POP SWAP7 SWAP6 POP POP POP POP POP POP JUMP INVALID LOG2 PUSH5 0x6970667358 0x22 SLT KECCAK256 0xD5 SWAP13 0xED JUMPDEST POP PUSH1 0xF1 CALLDATACOPY DUP6 0xB4 PC DUP12 RJUMPI 0x49F8 0x1E 0xB1 DUP13 0xCF STATICCALL 0xB8 DUP8 BLOBHASH 0x4C EXTCODEHASH SGT SWAP16 0x27 0x2F 0xB6 PUSH20 0x5564736F6C634300081E00330000000000000000 "
		},
		"gasEstimates": {
			"creation": {
				"codeDepositCost": "4548400",
				"executionCost": "infinite",
				"totalCost": "infinite"
			},
			"external": {
				"balanceOf(address,uint256)": "infinite",
				"balanceOfBatch(address[],uint256[])": "infinite",
				"burn(address,uint256,uint256)": "infinite",
				"burnBatch(address,uint256[],uint256[])": "infinite",
				"claim(uint256)": "infinite",
				"claimSupplyLeft(uint256)": "infinite",
				"createItemType(uint256,string)": "infinite",
				"exists(uint256)": "5249",
				"feeCollector()": "2597",
				"hasClaimed(address,uint256)": "3181",
				"isApprovedForAll(address,address)": "infinite",
				"maxSupply(uint256)": "infinite",
				"mint(address,uint256,uint256)": "infinite",
				"mintAirdrop(address[],uint256,uint256)": "infinite",
				"mintBatch(address,uint256[],uint256[])": "infinite",
				"mintFee()": "2538",
				"owner()": "2605",
				"pause()": "infinite",
				"paused()": "2591",
				"paymentToken()": "infinite",
				"publicMint(uint256,uint256)": "infinite",
				"publicMintBatch(uint256[],uint256[])": "infinite",
				"renounceOwnership()": "infinite",
				"safeBatchTransferFrom(address,address,uint256[],uint256[],bytes)": "infinite",
				"safeTransferFrom(address,address,uint256,uint256,bytes)": "infinite",
				"setApprovalForAll(address,bool)": "infinite",
				"setBaseURI(string)": "infinite",
				"setClaimSupply(uint256,uint256)": "infinite",
				"setFeeCollector(address)": "infinite",
				"setMaxSupply(uint256,uint256)": "infinite",
				"setMintFee(uint256)": "infinite",
				"setPaymentToken(address)": "infinite",
				"setTokenURI(uint256,string)": "infinite",
				"supportsInterface(bytes4)": "832",
				"totalSupply(uint256)": "infinite",
				"transferOwnership(address)": "infinite",
				"unpause()": "infinite",
				"uri(uint256)": "infinite"
			},
			"internal": {
				"_beforeTokenTransfer(address,address,address,uint256[] memory,uint256[] memory,bytes memory)": "infinite"
			}
		},
		"methodIdentifiers": {
			"balanceOf(address,uint256)": "00fdd58e",
			"balanceOfBatch(address[],uint256[])": "4e1273f4",
			"burn(address,uint256,uint256)": "f5298aca",
			"burnBatch(address,uint256[],uint256[])": "6b20c454",
			"claim(uint256)": "379607f5",
			"claimSupplyLeft(uint256)": "c4d77d50",
			"createItemType(uint256,string)": "b2c20e87",
			"exists(uint256)": "4f558e79",
			"feeCollector()": "c415b95c",
			"hasClaimed(address,uint256)": "b2931096",
			"isApprovedForAll(address,address)": "e985e9c5",
			"maxSupply(uint256)": "869f7594",
			"mint(address,uint256,uint256)": "156e29f6",
			"mintAirdrop(address[],uint256,uint256)": "b378e634",
			"mintBatch(address,uint256[],uint256[])": "d81d0a15",
			"mintFee()": "13966db5",
			"owner()": "8da5cb5b",
			"pause()": "8456cb59",
			"paused()": "5c975abb",
			"paymentToken()": "3013ce29",
			"publicMint(uint256,uint256)": "98ae99a8",
			"publicMintBatch(uint256[],uint256[])": "ac5f9067",
			"renounceOwnership()": "715018a6",
			"safeBatchTransferFrom(address,address,uint256[],uint256[],bytes)": "2eb2c2d6",
			"safeTransferFrom(address,address,uint256,uint256,bytes)": "f242432a",
			"setApprovalForAll(address,bool)": "a22cb465",
			"setBaseURI(string)": "55f804b3",
			"setClaimSupply(uint256,uint256)": "1da62554",
			"setFeeCollector(address)": "a42dce80",
			"setMaxSupply(uint256,uint256)": "37da577c",
			"setMintFee(uint256)": "eddd0d9c",
			"setPaymentToken(address)": "6a326ab1",
			"setTokenURI(uint256,string)": "162094c4",
			"supportsInterface(bytes4)": "01ffc9a7",
			"totalSupply(uint256)": "bd85b039",
			"transferOwnership(address)": "f2fde38b",
			"unpause()": "3f4ba83a",
			"uri(uint256)": "0e89341c"
		}
	},
	"abi": [
		{
			"inputs": [
				{
					"internalType": "address",
					"name": "initialOwner",
					"type": "address"
				},
				{
					"internalType": "string",
					"name": "baseURI",
					"type": "string"
				},
				{
					"internalType": "address",
					"name": "_paymentToken",
					"type": "address"
				},
				{
					"internalType": "address",
					"name": "_feeCollector",
					"type": "address"
				}
			],
			"stateMutability": "nonpayable",
			"type": "constructor"
		},
		{
			"inputs": [
				{
					"internalType": "address",
					"name": "sender",
					"type": "address"
				},
				{
					"internalType": "uint256",
					"name": "balance",
					"type": "uint256"
				},
				{
					"internalType": "uint256",
					"name": "needed",
					"type": "uint256"
				},
				{
					"internalType": "uint256",
					"name": "tokenId",
					"type": "uint256"
				}
			],
			"name": "ERC1155InsufficientBalance",
			"type": "error"
		},
		{
			"inputs": [
				{
					"internalType": "address",
					"name": "approver",
					"type": "address"
				}
			],
			"name": "ERC1155InvalidApprover",
			"type": "error"
		},
		{
			"inputs": [
				{
					"internalType": "uint256",
					"name": "idsLength",
					"type": "uint256"
				},
				{
					"internalType": "uint256",
					"name": "valuesLength",
					"type": "uint256"
				}
			],
			"name": "ERC1155InvalidArrayLength",
			"type": "error"
		},
		{
			"inputs": [
				{
					"internalType": "address",
					"name": "operator",
					"type": "address"
				}
			],
			"name": "ERC1155InvalidOperator",
			"type": "error"
		},
		{
			"inputs": [
				{
					"internalType": "address",
					"name": "receiver",
					"type": "address"
				}
			],
			"name": "ERC1155InvalidReceiver",
			"type": "error"
		},
		{
			"inputs": [
				{
					"internalType": "address",
					"name": "sender",
					"type": "address"
				}
			],
			"name": "ERC1155InvalidSender",
			"type": "error"
		},
		{
			"inputs": [
				{
					"internalType": "address",
					"name": "operator",
					"type": "address"
				},
				{
					"internalType": "address",
					"name": "owner",
					"type": "address"
				}
			],
			"name": "ERC1155MissingApprovalForAll",
			"type": "error"
		},
		{
			"inputs": [
				{
					"internalType": "address",
					"name": "owner",
					"type": "address"
				}
			],
			"name": "OwnableInvalidOwner",
			"type": "error"
		},
		{
			"inputs": [
				{
					"internalType": "address",
					"name": "account",
					"type": "address"
				}
			],
			"name": "OwnableUnauthorizedAccount",
			"type": "error"
		},
		{
			"inputs": [
				{
					"internalType": "address",
					"name": "token",
					"type": "address"
				}
			],
			"name": "SafeERC20FailedOperation",
			"type": "error"
		},
		{
			"anonymous": false,
			"inputs": [
				{
					"indexed": true,
					"internalType": "address",
					"name": "account",
					"type": "address"
				},
				{
					"indexed": true,
					"internalType": "address",
					"name": "operator",
					"type": "address"
				},
				{
					"indexed": false,
					"internalType": "bool",
					"name": "approved",
					"type": "bool"
				}
			],
			"name": "ApprovalForAll",
			"type": "event"
		},
		{
			"anonymous": false,
			"inputs": [
				{
					"indexed": true,
					"internalType": "uint256",
					"name": "id",
					"type": "uint256"
				},
				{
					"indexed": false,
					"internalType": "uint256",
					"name": "supply",
					"type": "uint256"
				}
			],
			"name": "ClaimSupplySet",
			"type": "event"
		},
		{
			"anonymous": false,
			"inputs": [
				{
					"indexed": true,
					"internalType": "address",
					"name": "oldCollector",
					"type": "address"
				},
				{
					"indexed": true,
					"internalType": "address",
					"name": "newCollector",
					"type": "address"
				}
			],
			"name": "FeeCollectorUpdated",
			"type": "event"
		},
		{
			"anonymous": false,
			"inputs": [
				{
					"indexed": true,
					"internalType": "address",
					"name": "to",
					"type": "address"
				},
				{
					"indexed": false,
					"internalType": "uint256[]",
					"name": "ids",
					"type": "uint256[]"
				},
				{
					"indexed": false,
					"internalType": "uint256[]",
					"name": "amounts",
					"type": "uint256[]"
				}
			],
			"name": "ItemBatchMinted",
			"type": "event"
		},
		{
			"anonymous": false,
			"inputs": [
				{
					"indexed": true,
					"internalType": "address",
					"name": "from",
					"type": "address"
				},
				{
					"indexed": true,
					"internalType": "uint256",
					"name": "id",
					"type": "uint256"
				},
				{
					"indexed": false,
					"internalType": "uint256",
					"name": "amount",
					"type": "uint256"
				}
			],
			"name": "ItemBurned",
			"type": "event"
		},
		{
			"anonymous": false,
			"inputs": [
				{
					"indexed": true,
					"internalType": "address",
					"name": "claimer",
					"type": "address"
				},
				{
					"indexed": true,
					"internalType": "uint256",
					"name": "id",
					"type": "uint256"
				}
			],
			"name": "ItemClaimed",
			"type": "event"
		},
		{
			"anonymous": false,
			"inputs": [
				{
					"indexed": true,
					"internalType": "address",
					"name": "to",
					"type": "address"
				},
				{
					"indexed": true,
					"internalType": "uint256",
					"name": "id",
					"type": "uint256"
				},
				{
					"indexed": false,
					"internalType": "uint256",
					"name": "amount",
					"type": "uint256"
				}
			],
			"name": "ItemMinted",
			"type": "event"
		},
		{
			"anonymous": false,
			"inputs": [
				{
					"indexed": true,
					"internalType": "uint256",
					"name": "id",
					"type": "uint256"
				},
				{
					"indexed": false,
					"internalType": "uint256",
					"name": "maxSupply",
					"type": "uint256"
				},
				{
					"indexed": false,
					"internalType": "string",
					"name": "uri",
					"type": "string"
				}
			],
			"name": "ItemTypeCreated",
			"type": "event"
		},
		{
			"anonymous": false,
			"inputs": [
				{
					"indexed": true,
					"internalType": "uint256",
					"name": "id",
					"type": "uint256"
				},
				{
					"indexed": false,
					"internalType": "uint256",
					"name": "maxSupplyValue",
					"type": "uint256"
				}
			],
			"name": "MaxSupplySet",
			"type": "event"
		},
		{
			"anonymous": false,
			"inputs": [
				{
					"indexed": false,
					"internalType": "uint256",
					"name": "oldFee",
					"type": "uint256"
				},
				{
					"indexed": false,
					"internalType": "uint256",
					"name": "newFee",
					"type": "uint256"
				}
			],
			"name": "MintFeeUpdated",
			"type": "event"
		},
		{
			"anonymous": false,
			"inputs": [
				{
					"indexed": true,
					"internalType": "address",
					"name": "previousOwner",
					"type": "address"
				},
				{
					"indexed": true,
					"internalType": "address",
					"name": "newOwner",
					"type": "address"
				}
			],
			"name": "OwnershipTransferred",
			"type": "event"
		},
		{
			"anonymous": false,
			"inputs": [
				{
					"indexed": false,
					"internalType": "address",
					"name": "account",
					"type": "address"
				}
			],
			"name": "Paused",
			"type": "event"
		},
		{
			"anonymous": false,
			"inputs": [
				{
					"indexed": true,
					"internalType": "address",
					"name": "oldToken",
					"type": "address"
				},
				{
					"indexed": true,
					"internalType": "address",
					"name": "newToken",
					"type": "address"
				}
			],
			"name": "PaymentTokenUpdated",
			"type": "event"
		},
		{
			"anonymous": false,
			"inputs": [
				{
					"indexed": true,
					"internalType": "uint256",
					"name": "id",
					"type": "uint256"
				},
				{
					"indexed": false,
					"internalType": "string",
					"name": "uri",
					"type": "string"
				}
			],
			"name": "TokenURISet",
			"type": "event"
		},
		{
			"anonymous": false,
			"inputs": [
				{
					"indexed": true,
					"internalType": "address",
					"name": "operator",
					"type": "address"
				},
				{
					"indexed": true,
					"internalType": "address",
					"name": "from",
					"type": "address"
				},
				{
					"indexed": true,
					"internalType": "address",
					"name": "to",
					"type": "address"
				},
				{
					"indexed": false,
					"internalType": "uint256[]",
					"name": "ids",
					"type": "uint256[]"
				},
				{
					"indexed": false,
					"internalType": "uint256[]",
					"name": "values",
					"type": "uint256[]"
				}
			],
			"name": "TransferBatch",
			"type": "event"
		},
		{
			"anonymous": false,
			"inputs": [
				{
					"indexed": true,
					"internalType": "address",
					"name": "operator",
					"type": "address"
				},
				{
					"indexed": true,
					"internalType": "address",
					"name": "from",
					"type": "address"
				},
				{
					"indexed": true,
					"internalType": "address",
					"name": "to",
					"type": "address"
				},
				{
					"indexed": false,
					"internalType": "uint256",
					"name": "id",
					"type": "uint256"
				},
				{
					"indexed": false,
					"internalType": "uint256",
					"name": "value",
					"type": "uint256"
				}
			],
			"name": "TransferSingle",
			"type": "event"
		},
		{
			"anonymous": false,
			"inputs": [
				{
					"indexed": false,
					"internalType": "string",
					"name": "value",
					"type": "string"
				},
				{
					"indexed": true,
					"internalType": "uint256",
					"name": "id",
					"type": "uint256"
				}
			],
			"name": "URI",
			"type": "event"
		},
		{
			"anonymous": false,
			"inputs": [
				{
					"indexed": false,
					"internalType": "address",
					"name": "account",
					"type": "address"
				}
			],
			"name": "Unpaused",
			"type": "event"
		},
		{
			"inputs": [
				{
					"internalType": "address",
					"name": "account",
					"type": "address"
				},
				{
					"internalType": "uint256",
					"name": "id",
					"type": "uint256"
				}
			],
			"name": "balanceOf",
			"outputs": [
				{
					"internalType": "uint256",
					"name": "",
					"type": "uint256"
				}
			],
			"stateMutability": "view",
			"type": "function"
		},
		{
			"inputs": [
				{
					"internalType": "address[]",
					"name": "accounts",
					"type": "address[]"
				},
				{
					"internalType": "uint256[]",
					"name": "ids",
					"type": "uint256[]"
				}
			],
			"name": "balanceOfBatch",
			"outputs": [
				{
					"internalType": "uint256[]",
					"name": "",
					"type": "uint256[]"
				}
			],
			"stateMutability": "view",
			"type": "function"
		},
		{
			"inputs": [
				{
					"internalType": "address",
					"name": "account",
					"type": "address"
				},
				{
					"internalType": "uint256",
					"name": "id",
					"type": "uint256"
				},
				{
					"internalType": "uint256",
					"name": "value",
					"type": "uint256"
				}
			],
			"name": "burn",
			"outputs": [],
			"stateMutability": "nonpayable",
			"type": "function"
		},
		{
			"inputs": [
				{
					"internalType": "address",
					"name": "account",
					"type": "address"
				},
				{
					"internalType": "uint256[]",
					"name": "ids",
					"type": "uint256[]"
				},
				{
					"internalType": "uint256[]",
					"name": "values",
					"type": "uint256[]"
				}
			],
			"name": "burnBatch",
			"outputs": [],
			"stateMutability": "nonpayable",
			"type": "function"
		},
		{
			"inputs": [
				{
					"internalType": "uint256",
					"name": "id",
					"type": "uint256"
				}
			],
			"name": "claim",
			"outputs": [],
			"stateMutability": "nonpayable",
			"type": "function"
		},
		{
			"inputs": [
				{
					"internalType": "uint256",
					"name": "",
					"type": "uint256"
				}
			],
			"name": "claimSupplyLeft",
			"outputs": [
				{
					"internalType": "uint256",
					"name": "",
					"type": "uint256"
				}
			],
			"stateMutability": "view",
			"type": "function"
		},
		{
			"inputs": [
				{
					"internalType": "uint256",
					"name": "_maxSupply",
					"type": "uint256"
				},
				{
					"internalType": "string",
					"name": "uri_",
					"type": "string"
				}
			],
			"name": "createItemType",
			"outputs": [
				{
					"internalType": "uint256",
					"name": "newId",
					"type": "uint256"
				}
			],
			"stateMutability": "nonpayable",
			"type": "function"
		},
		{
			"inputs": [
				{
					"internalType": "uint256",
					"name": "id",
					"type": "uint256"
				}
			],
			"name": "exists",
			"outputs": [
				{
					"internalType": "bool",
					"name": "",
					"type": "bool"
				}
			],
			"stateMutability": "view",
			"type": "function"
		},
		{
			"inputs": [],
			"name": "feeCollector",
			"outputs": [
				{
					"internalType": "address",
					"name": "",
					"type": "address"
				}
			],
			"stateMutability": "view",
			"type": "function"
		},
		{
			"inputs": [
				{
					"internalType": "address",
					"name": "",
					"type": "address"
				},
				{
					"internalType": "uint256",
					"name": "",
					"type": "uint256"
				}
			],
			"name": "hasClaimed",
			"outputs": [
				{
					"internalType": "bool",
					"name": "",
					"type": "bool"
				}
			],
			"stateMutability": "view",
			"type": "function"
		},
		{
			"inputs": [
				{
					"internalType": "address",
					"name": "account",
					"type": "address"
				},
				{
					"internalType": "address",
					"name": "operator",
					"type": "address"
				}
			],
			"name": "isApprovedForAll",
			"outputs": [
				{
					"internalType": "bool",
					"name": "",
					"type": "bool"
				}
			],
			"stateMutability": "view",
			"type": "function"
		},
		{
			"inputs": [
				{
					"internalType": "uint256",
					"name": "",
					"type": "uint256"
				}
			],
			"name": "maxSupply",
			"outputs": [
				{
					"internalType": "uint256",
					"name": "",
					"type": "uint256"
				}
			],
			"stateMutability": "view",
			"type": "function"
		},
		{
			"inputs": [
				{
					"internalType": "address",
					"name": "to",
					"type": "address"
				},
				{
					"internalType": "uint256",
					"name": "id",
					"type": "uint256"
				},
				{
					"internalType": "uint256",
					"name": "amount",
					"type": "uint256"
				}
			],
			"name": "mint",
			"outputs": [],
			"stateMutability": "nonpayable",
			"type": "function"
		},
		{
			"inputs": [
				{
					"internalType": "address[]",
					"name": "recipients",
					"type": "address[]"
				},
				{
					"internalType": "uint256",
					"name": "id",
					"type": "uint256"
				},
				{
					"internalType": "uint256",
					"name": "amountEach",
					"type": "uint256"
				}
			],
			"name": "mintAirdrop",
			"outputs": [],
			"stateMutability": "nonpayable",
			"type": "function"
		},
		{
			"inputs": [
				{
					"internalType": "address",
					"name": "to",
					"type": "address"
				},
				{
					"internalType": "uint256[]",
					"name": "ids",
					"type": "uint256[]"
				},
				{
					"internalType": "uint256[]",
					"name": "amounts",
					"type": "uint256[]"
				}
			],
			"name": "mintBatch",
			"outputs": [],
			"stateMutability": "nonpayable",
			"type": "function"
		},
		{
			"inputs": [],
			"name": "mintFee",
			"outputs": [
				{
					"internalType": "uint256",
					"name": "",
					"type": "uint256"
				}
			],
			"stateMutability": "view",
			"type": "function"
		},
		{
			"inputs": [],
			"name": "owner",
			"outputs": [
				{
					"internalType": "address",
					"name": "",
					"type": "address"
				}
			],
			"stateMutability": "view",
			"type": "function"
		},
		{
			"inputs": [],
			"name": "pause",
			"outputs": [],
			"stateMutability": "nonpayable",
			"type": "function"
		},
		{
			"inputs": [],
			"name": "paused",
			"outputs": [
				{
					"internalType": "bool",
					"name": "",
					"type": "bool"
				}
			],
			"stateMutability": "view",
			"type": "function"
		},
		{
			"inputs": [],
			"name": "paymentToken",
			"outputs": [
				{
					"internalType": "contract IERC20",
					"name": "",
					"type": "address"
				}
			],
			"stateMutability": "view",
			"type": "function"
		},
		{
			"inputs": [
				{
					"internalType": "uint256",
					"name": "id",
					"type": "uint256"
				},
				{
					"internalType": "uint256",
					"name": "amount",
					"type": "uint256"
				}
			],
			"name": "publicMint",
			"outputs": [],
			"stateMutability": "nonpayable",
			"type": "function"
		},
		{
			"inputs": [
				{
					"internalType": "uint256[]",
					"name": "ids",
					"type": "uint256[]"
				},
				{
					"internalType": "uint256[]",
					"name": "amounts",
					"type": "uint256[]"
				}
			],
			"name": "publicMintBatch",
			"outputs": [],
			"stateMutability": "nonpayable",
			"type": "function"
		},
		{
			"inputs": [],
			"name": "renounceOwnership",
			"outputs": [],
			"stateMutability": "nonpayable",
			"type": "function"
		},
		{
			"inputs": [
				{
					"internalType": "address",
					"name": "from",
					"type": "address"
				},
				{
					"internalType": "address",
					"name": "to",
					"type": "address"
				},
				{
					"internalType": "uint256[]",
					"name": "ids",
					"type": "uint256[]"
				},
				{
					"internalType": "uint256[]",
					"name": "values",
					"type": "uint256[]"
				},
				{
					"internalType": "bytes",
					"name": "data",
					"type": "bytes"
				}
			],
			"name": "safeBatchTransferFrom",
			"outputs": [],
			"stateMutability": "nonpayable",
			"type": "function"
		},
		{
			"inputs": [
				{
					"internalType": "address",
					"name": "from",
					"type": "address"
				},
				{
					"internalType": "address",
					"name": "to",
					"type": "address"
				},
				{
					"internalType": "uint256",
					"name": "id",
					"type": "uint256"
				},
				{
					"internalType": "uint256",
					"name": "value",
					"type": "uint256"
				},
				{
					"internalType": "bytes",
					"name": "data",
					"type": "bytes"
				}
			],
			"name": "safeTransferFrom",
			"outputs": [],
			"stateMutability": "nonpayable",
			"type": "function"
		},
		{
			"inputs": [
				{
					"internalType": "address",
					"name": "operator",
					"type": "address"
				},
				{
					"internalType": "bool",
					"name": "approved",
					"type": "bool"
				}
			],
			"name": "setApprovalForAll",
			"outputs": [],
			"stateMutability": "nonpayable",
			"type": "function"
		},
		{
			"inputs": [
				{
					"internalType": "string",
					"name": "newuri",
					"type": "string"
				}
			],
			"name": "setBaseURI",
			"outputs": [],
			"stateMutability": "nonpayable",
			"type": "function"
		},
		{
			"inputs": [
				{
					"internalType": "uint256",
					"name": "id",
					"type": "uint256"
				},
				{
					"internalType": "uint256",
					"name": "supply",
					"type": "uint256"
				}
			],
			"name": "setClaimSupply",
			"outputs": [],
			"stateMutability": "nonpayable",
			"type": "function"
		},
		{
			"inputs": [
				{
					"internalType": "address",
					"name": "newCollector",
					"type": "address"
				}
			],
			"name": "setFeeCollector",
			"outputs": [],
			"stateMutability": "nonpayable",
			"type": "function"
		},
		{
			"inputs": [
				{
					"internalType": "uint256",
					"name": "id",
					"type": "uint256"
				},
				{
					"internalType": "uint256",
					"name": "_max",
					"type": "uint256"
				}
			],
			"name": "setMaxSupply",
			"outputs": [],
			"stateMutability": "nonpayable",
			"type": "function"
		},
		{
			"inputs": [
				{
					"internalType": "uint256",
					"name": "newFee",
					"type": "uint256"
				}
			],
			"name": "setMintFee",
			"outputs": [],
			"stateMutability": "nonpayable",
			"type": "function"
		},
		{
			"inputs": [
				{
					"internalType": "address",
					"name": "newToken",
					"type": "address"
				}
			],
			"name": "setPaymentToken",
			"outputs": [],
			"stateMutability": "nonpayable",
			"type": "function"
		},
		{
			"inputs": [
				{
					"internalType": "uint256",
					"name": "id",
					"type": "uint256"
				},
				{
					"internalType": "string",
					"name": "uri_",
					"type": "string"
				}
			],
			"name": "setTokenURI",
			"outputs": [],
			"stateMutability": "nonpayable",
			"type": "function"
		},
		{
			"inputs": [
				{
					"internalType": "bytes4",
					"name": "interfaceId",
					"type": "bytes4"
				}
			],
			"name": "supportsInterface",
			"outputs": [
				{
					"internalType": "bool",
					"name": "",
					"type": "bool"
				}
			],
			"stateMutability": "view",
			"type": "function"
		},
		{
			"inputs": [
				{
					"internalType": "uint256",
					"name": "id",
					"type": "uint256"
				}
			],
			"name": "totalSupply",
			"outputs": [
				{
					"internalType": "uint256",
					"name": "",
					"type": "uint256"
				}
			],
			"stateMutability": "view",
			"type": "function"
		},
		{
			"inputs": [
				{
					"internalType": "address",
					"name": "newOwner",
					"type": "address"
				}
			],
			"name": "transferOwnership",
			"outputs": [],
			"stateMutability": "nonpayable",
			"type": "function"
		},
		{
			"inputs": [],
			"name": "unpause",
			"outputs": [],
			"stateMutability": "nonpayable",
			"type": "function"
		},
		{
			"inputs": [
				{
					"internalType": "uint256",
					"name": "id",
					"type": "uint256"
				}
			],
			"name": "uri",
			"outputs": [
				{
					"internalType": "string",
					"name": "",
					"type": "string"
				}
			],
			"stateMutability": "view",
			"type": "function"
		}
	]
}